:020000040800F2
:10000000A8B503203522020801D3010851020008D7
:1000100003D3010805D3010807D30108000000003D
:10002000000000000000000000000000217D010829
:1000300009D3010800000000C17D010889D701082B
:100040007D2202087D2202087D2202087D2202080C
:100050007D2202087D2202080BD3010815D3010876
:100060001FD3010829D3010833D301087D220208D8
:100070007D2202087D2202087D2202087D220208DC
:100080007D2202087D2202087D2202087D220208CC
:100090007D2202087D2202087D2202083DD301084C
:1000A0007D2202087D2202087D2202087D220208AC
:1000B0007D2202087D2202087D2202087D2202089C
:1000C0007D2202087D2202087D2202087D2202088C
:1000D0007D22020881D50108C1D5010801D6010899
:1000E00063D301087D2202087D2202087D220208D6
:1000F0007D2202087D2202087D2202087D2202085C
:100100007D2202087D2202087D2202087D2202084B
:1001100041D6010881D601087D2202087D2202080D
:1001200099D30108B9D30108D9D30108FDD3010837
:1001300021D401087D2202087D2202087D220208C6
:100140007D2202087D2202087D22020881D7010853
:1001500045D4010869D4010800000000C1D6010897
:100160007D2202087D22020800000000000000003D
:100170007D2202087D2202087D2202080000000084
:10018000000000007D22020801D7010841D70108C4
:100190007D220208000000000000000000000000B6
:1001A0000000000000000000000000007D220208A6
:1001B0007D220208000000007D22020800000000ED
:1001C000000000000000000000000000000000002F
:1001D00000000000000000007D2202087D220208CD
:1001E0007D2202088DD701087D2202087D220208A7
:1001F0008DD40108B1D40108D5D40108F9D401087F
:0C0200001DD5010841D5010865D5010895
:1002100010B5054C237833B9044B13B10448AFF340
:1002200000800123237010BD701703200000000020
:100230007472040808B5034B1BB103490348AFF3BC
:10024000008008BD000000007417032074720408C9
:100250007046694603F0C4FCFFF7FEFF10F8012B5F
:1002600011F8013B012A28BF9A42F7D0D01A7047F3
:10027000034613F8012B002AFBD1181A01387047E6
:1002800001F0FF01102A2BDB10F0070F08D010F847
:10029000013B013A8B422DD010F0070F42B3F6D14B
:1002A000F0B441EA012141EA014122F007047FF064
:1002B00000070023F0E80256083C85EA010586EABB
:1002C000010685FA47F5A3FA87F586FA47F6A5FAF7
:1002D00087F68EB9EED1F0BC01F0FF0102F0070203
:1002E00032B110F8013B013A83EA010313B1F8D1AE
:1002F0000020704701387047002D06BF354603388F
:10030000073815F0010F07D1013015F4807F02BFC7
:10031000013015F4C03F0130F0BC0138704700BF18
:1003200081F0004102E000BF83F0004330B54FEAA6
:1003300041044FEA430594EA050F08BF90EA020F13
:100340001FBF54EA000C55EA020C7FEA645C7FEAA6
:10035000655C00F0E2804FEA5454D4EB5555B8BFC9
:100360006D420CDD2C4480EA020281EA030382EA3A
:10037000000083EA010180EA020281EA0303362DCC
:1003800088BF30BD11F0004F4FEA01314FF4801C9F
:100390004CEA113102D0404261EB410113F0004FB1
:1003A0004FEA03334CEA133302D0524263EB430368
:1003B00094EA050F00F0A780A4F10104D5F1200E06
:1003C0000DDB02FA0EFC22FA05F2801841F1000161
:1003D00003FA0EF2801843FA05F359410EE0A5F135
:1003E00020050EF1200E012A03FA0EFC28BF4CF066
:1003F000020C43FA05F3C01851EBE37101F000451C
:1004000007D54FF0000EDCF1000C7EEB00006EEB28
:100410000101B1F5801F1BD3B1F5001F0CD34908B2
:100420005FEA30004FEA3C0C04F101044FEA445209
:1004300012F5800F80F09A80BCF1004F08BF5FEA90
:10044000500C50F1000041EB045141EA050130BD70
:100450005FEA4C0C404141EB0101013C28BFB1F582
:10046000801FE9D291F0000F04BF01460020B1FACD
:1004700081F308BF2033A3F10B03B3F120020CDAA0
:100480000C3208DD02F1140CC2F10C0201FA0CF07E
:1004900021FA02F10CE002F11402D8BFC2F1200CE3
:1004A00001FA02F120FA0CFCDCBF41EA0C01904099
:1004B000E41AA2BF01EB0451294330BD6FEA0404E2
:1004C0001F3C1CDA0C340EDC04F11404C4F12002CD
:1004D00020FA04F001FA02F340EA030021FA04F3DF
:1004E00045EA030130BDC4F10C04C4F1200220FA36
:1004F00002F001FA04F340EA0300294630BD21FA74
:1005000004F0294630BD94F0000F83F4801306BF39
:1005100081F480110134013D4EE77FEA645C18BF2D
:100520007FEA655C29D094EA050F08BF90EA020FC4
:1005300005D054EA000C04BF1946104630BD91EABC
:10054000030F1EBF0021002030BD5FEA545C05D1BF
:100550004000494128BF41F0004130BD14F58004FE
:100560003CBF01F5801130BD01F0004545F0FE4172
:1005700041F470014FF0000030BD7FEA645C1ABFA7
:10058000194610467FEA655C1CBF0B46024650EADE
:10059000013406BF52EA033591EA030F41F400210A
:1005A00030BD00BF90F0000F04BF0021704730B590
:1005B0004FF4806404F132044FF000054FF0000165
:1005C00050E700BF90F0000F04BF0021704730B526
:1005D0004FF4806404F1320410F0004548BF4042FB
:1005E0004FF000013EE700BF42004FEAE2014FEA50
:1005F00031014FEA02701FBF12F07F4393F07F4F2B
:1006000081F06051704732F07F4208BF704793F02D
:100610007F4F04BF41F40021704730B54FF4607440
:1006200001F0004521F000411CE700BF50EA010243
:1006300008BF704730B54FF000050AE050EA0102EC
:1006400008BF704730B511F0004502D5404261EB5C
:1006500041014FF4806404F132045FEA915C3FF49D
:10066000D8AE4FF003025FEADC0C18BF03325FEA3A
:10067000DC0C18BF033202EBDC02C2F1200300FAEB
:1006800003FC20FA02F001FA03FE40EA0E0021FA10
:1006900002F11444BDE600BF70B54FF0FF0C4CF4FE
:1006A000E06C1CEA11541DBF1CEA135594EA0C0FB0
:1006B00095EA0C0F00F0DEF82C4481EA030621EAEB
:1006C0004C5123EA4C5350EA013518BF52EA033526
:1006D00041F4801143F4801338D0A0FB02CE4FF0D8
:1006E0000005E1FB02E506F00042E0FB03E54FF008
:1006F0000006E1FB03569CF0000F18BF4EF0010E00
:10070000A4F1FF04B6F5007F64F5407404D25FEAFB
:100710004E0E6D4146EB060642EAC62141EA5551AE
:100720004FEAC52040EA5E504FEACE2EB4F1FD0CF0
:1007300088BFBCF5E06F1ED8BEF1004F08BF5FEA6E
:10074000500E50F1000041EB045170BD06F0004620
:1007500046EA010140EA020081EA0301B4EB5C04CD
:10076000C2BFD4EB0C0541EA045170BD41F48011C5
:100770004FF0000E013C00F3AB8014F1360FDEBFEA
:10078000002001F0004170BDC4F10004203C35DAC6
:100790000C341BDC04F11404C4F1200500FA05F349
:1007A00020FA04F001FA05F240EA020001F00042EA
:1007B00021F0004110EBD37021FA04F642EB060160
:1007C0005EEA430E08BF20EAD37070BDC4F10C048A
:1007D000C4F1200500FA04F320FA05F001FA04F24E
:1007E00040EA020001F0004110EBD37041F100013A
:1007F0005EEA430E08BF20EAD37070BDC4F1200545
:1008000000FA05F24EEA020E20FA04F301FA05F2AC
:1008100043EA020321FA04F001F0004121FA04F254
:1008200020EA020000EBD3705EEA430E08BF20EA24
:10083000D37070BD94F0000F0FD101F0004640005E
:1008400041EB010111F4801F08BF013CF7D041EAE0
:10085000060195F0000F18BF704703F000465200E4
:1008600043EB030313F4801F08BF013DF7D043EAB5
:100870000603704794EA0C0F0CEA135518BF95EA6B
:100880000C0F0CD050EA410618BF52EA4306D1D1F2
:1008900081EA030101F000414FF0000070BD50EA11
:1008A000410606BF1046194652EA430619D094EA9B
:1008B0000C0F02D150EA013613D195EA0C0F05D185
:1008C00052EA03361CBF104619460AD181EA0301D9
:1008D00001F0004141F0FE4141F470014FF0000091
:1008E00070BD41F0FE4141F4780170BD70B54FF02C
:1008F000FF0C4CF4E06C1CEA11541DBF1CEA1355AC
:1009000094EA0C0F95EA0C0F00F0A7F8A4EB05048D
:1009100081EA030E52EA03354FEA013100F0888084
:100920004FEA03334FF0805545EA131343EA12634D
:100930004FEA022245EA111545EA10654FEA002602
:100940000EF000419D4208BF964244F1FD0404F5BB
:10095000407402D25B084FEA3202B61A65EB030517
:100960005B084FEA32024FF480104FF4002CB6EBD4
:10097000020E75EB030E22BFB61A754640EA0C0054
:100980005B084FEA3202B6EB020E75EB030E22BF94
:10099000B61A754640EA5C005B084FEA3202B6EBD5
:1009A000020E75EB030E22BFB61A754640EA9C0094
:1009B0005B084FEA3202B6EB020E75EB030E22BF64
:1009C000B61A754640EADC0055EA060E18D04FEA22
:1009D000051545EA16754FEA06164FEAC30343EAC2
:1009E00052734FEAC2025FEA1C1CC0D111F4801F8F
:1009F0000BD141EA00014FF000004FF0004CB6E788
:100A000011F4801F04BF01430020B4F1FD0C88BF26
:100A1000BCF5E06F3FF6AFAEB5EB030C04BFB6EB31
:100A2000020C5FEA500C50F1000041EB045170BD24
:100A30000EF0004E4EEA113114EB5C04C2BFD4EB51
:100A40000C0541EA045170BD41F480114FF0000ED5
:100A5000013C90E645EA060E8DE60CEA135594EA51
:100A60000C0F08BF95EA0C0F3FF43BAF94EA0C0F54
:100A70000AD150EA01347FF434AF95EA0C0F7FF4C9
:100A800025AF104619462CE795EA0C0F06D152EA1D
:100A900003353FF4FDAE1046194622E750EA410601
:100AA00018BF52EA43067FF4C5AE50EA41047FF412
:100AB0000DAF52EA43057FF4EBAE12E74FF0FF3C77
:100AC00006E000BF4FF0010C02E000BF4FF0010C48
:100AD0004DF804CD4FEA410C7FEA6C5C4FEA430CC1
:100AE00018BF7FEA6C5C1BD001B050EA410C0CBF10
:100AF00052EA430C91EA030F02BF90EA020F002072
:100B0000704710F1000F91EA030F58BF994208BFD8
:100B100090422CBFD8176FEAE37040F00100704795
:100B20004FEA410C7FEA6C5C02D150EA013C07D1EC
:100B30004FEA430C7FEA6C5CD6D152EA033CD3D037
:100B40005DF8040B704700BF8446104662468C4631
:100B50001946634600E000BF01B5FFF7B7FF002864
:100B600048BF10F1000F01BD4DF808EDFFF7F4FF8D
:100B70000CBF012000205DF808FB00BF4DF808ED18
:100B8000FFF7EAFF34BF012000205DF808FB00BF3B
:100B90004DF808EDFFF7E0FF94BF012000205DF85D
:100BA00008FB00BF4DF808EDFFF7CEFF94BF012012
:100BB00000205DF808FB00BF4DF808EDFFF7C4FF0B
:100BC00034BF012000205DF808FB00BF4FEA410C54
:100BD0007FEA6C5C02D150EA013C0AD14FEA430C37
:100BE0007FEA6C5C02D152EA033C02D14FF0000074
:100BF00070474FF0010070474FEA410212F50012B2
:100C000015D211D56FF47873B3EB625212D94FEA53
:100C1000C12343F0004343EA505311F0004F23FA3D
:100C200002F018BF404270474FF00000704750EA92
:100C3000013005D111F0004008BF6FF0004070474F
:100C40004FF00000704700BF4A0011D212F50012A9
:100C500011D20DD56FF47873B3EB62520ED44FEA14
:100C6000C12343F0004343EA505323FA02F0704794
:100C70004FF00000704750EA013002D14FF0FF30D2
:100C800070474FF0000070474FEA4102B2F1E04375
:100C900024BFB3F5001CDCF1FE5C0DD901F0004C63
:100CA0004FEAC0024CEA5070B2F1004F40EB8300B3
:100CB00008BF20F00100704711F0804F21D113F1DF
:100CC0003872BCBF01F00040704741F480114FEA18
:100CD0005252C2F11802C2F1200C10FA0CF320FAA1
:100CE00002F018BF40F001004FEAC1234FEAD323BE
:100CF00003FA0CFC40EA0C0023FA02F34FEA430328
:100D0000CCE77FEA625307D150EA01331EBF4FF0B0
:100D1000FE4040F44000704701F0004040F0FE40CB
:100D200040F40000704700BF53B94AB9002908BF1A
:100D300000281CBF4FF0FF314FF0FF3001F014B915
:100D4000ADF1080C6DE904CE00F03CF8DDF804E0EC
:100D5000DDE9022304B0704738B5002200230446C1
:100D60000D46FFF70BFF28B920462946BDE838405D
:100D700000F00AB8204605F1004100F005F84042B5
:100D800061EB410138BD00BFD0B50C4B00220646D7
:100D90000F46FFF781FCFFF757FF0446FFF702FC01
:100DA000074B0022FFF778FC02460B4630463946D7
:100DB000FFF7BAFAFFF748FF2146D0BD0000F03D2B
:100DC0000000F0412DE9F047089D04468E46002BB7
:100DD0004DD18A42944669D9B2FA82F252B101FAEF
:100DE00002F3C2F1200120FA01F10CFA02FC41EAFF
:100DF000030E94404FEA1C48210CBEFBF8F61FFA84
:100E00008CF708FB16E341EA034306FB07F199421E
:100E10000AD91CEB030306F1FF3080F01F819942D1
:100E200040F21C81023E63445B1AA4B2B3FBF8F0AB
:100E300008FB103344EA034400FB07F7A7420AD932
:100E40001CEB040400F1FF3380F00A81A74240F25A
:100E500007816444023840EA0640E41B00261DB1C5
:100E6000D4400023C5E900433146BDE8F0878B42FA
:100E700009D9002D00F0EF800026C5E900013046B9
:100E80003146BDE8F087B3FA83F6002E4AD18B4293
:100E900002D3824200F2F980841A61EB030301203D
:100EA0009E46002DE0D0C5E9004EDDE702B9FFDE29
:100EB000B2FA82F2002A40F09280A1EB0C014FEAD4
:100EC0001C471FFA8CFE0126200CB1FBF7F307FB31
:100ED000131140EA01410EFB03F0884208D91CEBD4
:100EE000010103F1FF3802D2884200F2CB80434671
:100EF000091AA4B2B1FBF7F007FB101144EA014450
:100F00000EFB00FEA64508D91CEB040400F1FF31DE
:100F100002D2A64500F2BB800846A4EB0E0440EACC
:100F200003409CE7C6F12007B34022FA07FC4CEAD5
:100F3000030C20FA07F401FA06F31C43F9404FEAC8
:100F40001C4900FA06F3B1FBF9F8200C1FFA8CFEDD
:100F500009FB181140EA014108FB0EF0884202FA31
:100F600006F20BD91CEB010108F1FF3A80F08880F2
:100F7000884240F28580A8F102086144091AA4B2AF
:100F8000B1FBF9F009FB101144EA014100FB0EFE30
:100F90008E4508D91CEB010100F1FF346CD28E455F
:100FA0006AD90238614440EA0840A0FB0294A1EBF0
:100FB0000E01A142C846A64656D353D05DB1B3EB4D
:100FC000080261EB0E0101FA07F722FA06F3F1407D
:100FD0001F43C5E9007100263146BDE8F087C2F124
:100FE0002003D8400CFA02FC21FA03F3914001439C
:100FF0004FEA1C471FFA8CFEB3FBF7F007FB1036D5
:101000000B0C43EA064300FB0EF69E4204FA02F480
:1010100008D91CEB030300F1FF382FD29E422DD9D3
:10102000023863449B1B89B2B3FBF7F607FB163308
:1010300041EA034106FB0EF38B4208D91CEB010188
:1010400006F1FF3816D28B4214D9023E6144C91A08
:1010500046EA004638E72E46284605E70646E3E618
:101060001846F8E64B45A9D2B9EB020864EB0C0E22
:101070000138A3E74646EAE7204694E74046D1E731
:10108000D0467BE7023B614432E7304609E76444DF
:10109000023842E703685A004CBF43F0004323F094
:1010A00000431844704700BF2DE9F84329B34F1E91
:1010B000044615463E464FF0000808EB060101EBDA
:1010C000D171491004EBC1094846FFF7E3FF03461D
:1010D000C80008308F42204409D0AB4209D8FFF73E
:1010E000D9FF0138A8420AD201F10108E5E7AB4275
:1010F00005D9884501D04E1EDFE74FF0000948466C
:10110000BDE8F883012807D0022807D0044B002847
:101110000CBF1846002070470248704702487047CD
:10112000DD170008E1170008E517000830B5234B6C
:1011300083B004468D1E3BB301A92846AFF300805F
:10114000E8B101992A46FFF7AFFF0146B8B1FFF7B2
:10115000A1FF4B68A064012B2CD0002B01F10400EF
:1011600024DBFFF797FF0023C4E913030368002B78
:1011700011DBFFF78FFF2061002003B030BD00239B
:101180000920236103B030BD0D4B0E49C91AC910A7
:1011900018460191D6E7C3F30360FFF7B3FF0028B9
:1011A000206114BF0020092003B030BD0123C4E931
:1011B0001303DBE7002323610520DEE700000000C6
:1011C00000100508A01105080368DA0710B50446E9
:1011D00006D49B0700F1480009D500F05BFC2368AA
:1011E000590709D51A070ED5DB0613D510BD00F037
:1011F00049FC23685907F5D404F1D00000F052FCF3
:1012000023681A07F0D404F5A87000F053FC236893
:10121000DB06EBD404F5E870BDE8104000F08EBCAE
:10122000092070470346006800B11844704700BFAA
:10123000704700BF70B504460E46316C2046FFF77C
:1012400075FF054688B9326C6261236932462146D2
:10125000012098470828F0D0072806D12846316C8D
:10126000FFF7E6FF301D00F001FC22F029FE00BF71
:101270002DE9F0470D1DD0F80C80D0F818900746E6
:1012800014460FCDADF5727D0DF10C0CACE80F00DE
:101290000FCDACE80F000FCDACE80F0095E80F00C4
:1012A00002AE4FF0000E8CE80F00C6F800E020E020
:1012B000336C7B614FF4F07231467AA821F05AF812
:1012C0003B697AAA394650469847889B7364214601
:1012D000CDE9006905463B463A460120C047044631
:1012E000E0B94FF4F0727AA9304621F043F8082DA6
:1012F0001AD1316C3846FFF719FF09345FFA84FAC6
:1013000005460028D4D0B36B73643A46CDE9006932
:101310003B464AF010010120C04700B1092528468C
:101320000DF5727DBDE8F087072DF7D12046316CB1
:10133000FFF77EFF03A800F099FB00BF406C7047E9
:10134000F0B5CB6B0B6401F1040C0E460546BCE80E
:101350000F00F9B001AC0FC4BCE80F000FC4BCE82B
:101360000F000FC49CE80F004FF0FF3784E80F0018
:10137000009706E02B696A462946984708280446E4
:1013800008D110992846FFF7D1FE0028F2D0092095
:1013900079B0F0BD6846FFF717FF062CF7D131464C
:1013A0002846FFF747FF00BFC160D96B826119640F
:1013B000002219465CE700BF70B5C66843690B643C
:1013C000AEB903690A4604460D4601460220984715
:1013D000072805D008280FD129462046FFF72AFF05
:1013E0003046296CFFF724FF281D00F03FFB012247
:1013F000FFF73EFF22F064FD22F062FDC2681AB1E1
:10140000CA6B0A64002233E79AE700BF704700BF47
:10141000836801460BB1012018477047012912D09B
:1014200009D873B90F2A0CD800EB8202184653680A
:10143000009A136070470339012994BF01200220EC
:101440007047022070470846704700BF00B585B05E
:101450000A46002303A900911946FFF7DFFF03980E
:1014600005B05DF804FB00BF012912D009D873B99B
:101470000F2A0CD800EB8200009A126842601846CE
:1014800070470339012994BF0120022070470220D0
:1014900070470846704700BF10B584B0002303AC06
:1014A000039200940A461946FFF7DEFF04B010BD10
:1014B00070B5D36B136402F1040C05460C46BCE80E
:1014C0000F00ADF50E7D0DF15C0EAEE80F00BCE82F
:1014D0000F00AEE80F00BCE80F00AEE80F009CE87C
:1014E0000F004FF0FF368EE80F00169610E0FFF762
:1014F000D3FF214616A8A847034616AA6946082026
:1015000083B9049B9847052806460CD0092809D0C2
:1015100026996846FFF70AFE03466A460C2116A87C
:10152000002BE4D0092616A8FFF74EFE30460DF535
:101530000E7D70BD2DE9F04FCC6C89B01E4654F87D
:10154000043B06940D46174600F00308002E79D0A0
:101550001A0C1B0405938DF81D200223D2B204EB54
:1015600082048DF81C302B6DB8F1020F08BFAC6BF4
:1015700013F001030CD005A9384600F079FB18B927
:10158000082009B0BDE8F08F092009B0BDE8F08F50
:10159000D4F800A0BAF1000FEDD0019300F00803D9
:1015A0000293022E4AD0B4F800A0B4F8029004349A
:1015B000AB6C29F0010B0F2138469B44FFF746FF27
:1015C000834539D82AF001039B44834594BF00200A
:1015D00001204FEA490303F002030AF0010A43EA3B
:1015E0000A03012B49D0022B32D0002BCCD1B8F109
:1015F000000F02D0002840F0CD800434D4F800A0C1
:10160000BAF1000FCDD105A9384600F031FB002812
:10161000BAD1019B002BB3D00F213846FFF716FF3C
:101620000E2102463846FFF737FF38466A4A0F2137
:10163000FFF732FF0720A8E70020CAE7D4F804909C
:101640000834B5E71B0205930323ADF81C308AE785
:10165000236823F0004BB8F1000F45D128B1029A5E
:10166000002A5CD0BBF1000F74D0002B00DA0434E8
:101670000BF1010B04EB8B04C0E7B8F1000F19D19B
:10168000B0B163682268991C4FEAD2723FF47CAF14
:1016900005F158010133049100F09080201DFFF7FF
:1016A000C1FD04AB0146284628F0E0FA00285BD1D2
:1016B0000834A3E70D213846D5F82090FFF7C6FE81
:1016C0008145F5D1AB6A9C42F2D12046FFF7E2FC9E
:1016D0000F2102463846FFF7DFFE38462A46002132
:1016E000FFF7DAFE072050E70D213846D5F82090A5
:1016F000FFF7ACFE814501D02368B6E7AB6A9C4298
:10170000FAD104230022C5E90B23E318C5F828B059
:101710006B632368002B59DB01230193A8E705F1D4
:101720005803CDF80C8004F1040AB04691461E46D9
:101730000EE050460496FFF775FD0022014604AB0B
:10174000284609F101090AF1040A28F08FFAE0B9E4
:10175000D945EED10D213846FFF778FE049BAC62E7
:10176000C5E90803062010E781460D213846FFF73A
:101770006DFEB9F1020F286225D12B46049A43F879
:101780002C2F6B62AC620620FFE646462368DDF82C
:101790000C806AE72046FFF77DFC04340246AC6308
:1017A0002846144628F0C0FA00283FF4EDAE38462B
:1017B00022460F21FFF770FE0720E6E60D2138468E
:1017C000FFF744FE2862049B6B62DBE70BF101002C
:1017D00004EB80007AE700BF912404080023A9E607
:1017E0000123A7E60223A5E62DE9F0430646C3B090
:1017F00015461C46042900F2BF80DFE801F09E5721
:10180000BD2D0300002C40F0B780102A00F2B480F8
:101810000368D80600F1F98020AF384600F098F947
:10182000B46B394600234FF0010C0CFA03F22A4244
:10183000204603F1010303D050F8042B0A6004464C
:10184000042B01F10401F0D13846B46300F076F9BD
:10185000002043B0BDE8F083032C40F08D8094B2AB
:1018600004EB1243102B4FEA124500F28580036807
:101870001F0700F1D28020AF384600F03DF9B26B6F
:1018800007EBC50154B10B46D01A01EBC401E400CB
:101890001D5843F8045B8B42FAD122443846B263A8
:1018A00000F008F9002043B0BDE8F083012C4FEAB6
:1018B000124895B25CD0052C5ED108EB0509B9F150
:1018C000200F59D8B8F10F0F79D9A946002D40F053
:1018D0008A80B36B6DB320AF4FF0000907EBC807E8
:1018E000043F03EBC50553F8041B47F8041FAB4244
:1018F000F9D1B9F1000F0FD06F464146102938BF1A
:10190000102107EBC101843903EBC90553F8040B1F
:1019100041F8040FAB42F9D1012C00F08680B8F1F8
:101920000F0FB56347D9B9F1000F02D0684600F038
:10193000B9F8002043B0BDE8F083ECB9806B2346D2
:101940001FFA82FC0124371D04FA03F212EA0C0F7D
:10195000014604D051F8042B47F8232008460133F0
:10196000102BF1D115F40055E3D1B063284604E003
:1019700008EB0503102B03D9022043B0BDE8F08328
:10198000B8F10F0FF8D83368DA0706D5304623F0E0
:10199000030340F8483B00F079F820AF384600F0E8
:1019A00075F8B36B002D97D11D460435B5633846E5
:1019B00000F068F8BDE720A800F06CF8B3E7B9F1D3
:1019C000100F40D9A9F110093368D90708D523F0C1
:1019D0000103304643F0020340F8483B00F05EF854
:1019E000B9F1000F32D033685A0720D4B8F10F0F85
:1019F00025D96F463846C8F1100500F057F8002D7C
:101A0000B36B7FF77AAF20AF68E723F01003336042
:101A100006F5E87000F09CF8FEE623F0080303608A
:101A200000F5A87000F068F825E720AFBDE7304664
:101A300023F0040340F8D03B00F038F8D6E720A8A4
:101A400000F02CF8D5E74FF00009BDE7B8F10F0F13
:101A50003FF63FAF20AF384600F020F8B36B002DC3
:101A60007FF43AAF384600F015F862E700F1340130
:101A700091E838009C46A6464CF8045D90E8FF0FBC
:101A8000E54600BD90EC210B704700BF80EC210BB8
:101A9000704700BF90EC200B704700BF80EC200B1C
:101AA000704700BFD0EC200B704700BFC0EC200B8C
:101AB000704700BFF0EC0201F0EC0211F0EC0221E3
:101AC000F0EC0231F0EC0241F0EC0251F0EC02617A
:101AD000F0EC0271F0EC0281F0EC0291F0EC02A16A
:101AE000F0EC02B1F0EC02C1F0EC02D1F0EC02E15A
:101AF000F0EC02F1704700BFE0EC0201E0EC0211F3
:101B0000E0EC0221E0EC0231E0EC0241E0EC0251B9
:101B1000E0EC0261E0EC0271E0EC0281E0EC0291A9
:101B2000E0EC02A1E0EC02B1E0EC02C1E0EC02D199
:101B3000E0EC02E1E0EC02F1704700BFB0FC018193
:101B4000B0FC0191B0FC01A1B0FC01B1704700BF35
:101B5000A0FC0181A0FC0191A0FC01A1A0FC01B1AD
:101B6000704700BFEC4600B52DE900502DE9FF1F7E
:101B70004FF000032DE90C0001A9FFF7E1FBDDF8B0
:101B800040E012B0704700BFEC4600B52DE90050B0
:101B90002DE9FF1F4FF000032DE90C0001A9FFF70D
:101BA0000BFCDDF840E012B0704700BFEC4600B51A
:101BB0002DE900502DE9FF1F4FF000032DE90C0027
:101BC00001A9FFF71BFCDDF840E012B0704700BF31
:101BD000EC4600B52DE900502DE9FF1F4FF0000342
:101BE0002DE90C0001ABFFF7DFFBDDF840E012B0A0
:101BF000704700BFEC4600B52DE900502DE9FF1FEE
:101C00004FF000032DE90C0001AAFFF751FCDDF8AD
:101C100040E012B0704700BF027A03467AB9427AB8
:101C2000A2B14168013A10B44272086803220C1D47
:101C30001A7202025C60000E10BC1A6070470068E5
:101C4000013A1A7202021A60000E7047B020704703
:101C500000B585B0002303AA009219460C22FFF7B5
:101C6000DDFB039805B05DF804FB00BFF0E700BFA3
:101C70002DE9F043054685B00E464FF0000830468A
:101C8000FFF7CAFFB028044600F0BA80070620D547
:101C900000F0F003802B4DD0902B36D0A02B60D0DD
:101CA000B02B74D0C02B00F08B8000F0F803D02B49
:101CB0000BD100F007020132052342F4002201217A
:101CC0002846FFF791FD0028D9D0092005B0BDE8CE
:101CD000F0838300DBB21F1D0DF10C0900231946B0
:101CE000CDF800900D222846FFF798FB039BCDF816
:101CF000009060064CBFDF1BFF1800230D22194621
:101D000028460397FFF7B0FBB9E700F00D030D2B52
:101D1000DBD003AF002300F00F02194600972846DE
:101D2000FFF77CFB002300970D2219462846FFF79A
:101D30009BFBA4E73046FFF76FFF24022043B0F57A
:101D4000004FC2D004010023A2B219462846FFF773
:101D50004BFD0028B9D114F4004F18BF4FF0010813
:101D60008DE7C24302F007034FF47F621A41010777
:101D700002F47F624FF0000348BF42F480421946EC
:101D80002846FFF731FD00283FF479AF9DE7B128E1
:101D90003BD0B22800F09380B32841D000F0FC0380
:101DA000B42B92D000F007020132012342F400224A
:101DB00019462846FFF718FD00283FF460AF84E776
:101DC000C6284AD0C72854D000F0F803C02B63D0EF
:101DD000C82868D0C9287FF478AF3046FFF71CFFC9
:101DE000020300F00F0002F47022013002430121CF
:101DF00005232846FFF7F8FC00283FF440AF64E7CE
:101E0000B8F1000F18D0002060E73046FFF704FF5C
:101E1000024600283FF459AF10F0F003C8D054E751
:101E20003046FFF7F9FE020300F00F03013302F41E
:101E300070221A430123BBE703AC43460E224146FE
:101E400000942846FFF7EAFA009443460F224146E1
:101E50002846FFF709FB404638E73046FFF7DCFE2F
:101E6000020300F00F03013302F470221A4303232C
:101E70009EE73046FFF7D0FE024600283FF425AF2C
:101E800010F0F0037FF421AF04212846FFF7ACFCEB
:101E900000283FF4F4AE18E700F00F0201320323EC
:101EA00042F4202284E73046FFF7B6FE00F0F0024D
:101EB00000F00F031032013343EA023297E70023A8
:101EC0000DF10C090D221946CDF800902846FFF7B8
:101ED000A5FA3046FFF7A0FE02064FF002040CD52B
:101EE000039B00F07F00A040184403903046FFF7AA
:101EF00093FE030604F10704F2D4039BCDF800908F
:101F000000F07F02A24003F501731A4400230392FC
:101F100019460D222846FFF7A7FAB0E610B5C26CA5
:101F2000536884B04FF0030C08321C0208461B0EA5
:101F300001A9019402928DF80CC08DF80D30FFF7C5
:101F400097FE04B010BD00BF08B5FFF78FFE806C90
:101F500008BD00BF08B5FFF789FEC06CC379023326
:101F600000EB830008BD00BF704700BF08B517F045
:101F700021FA0028FDD01DF0FDFB002008BD000067
:101F8000F6EE007A60EE277A10EE103A074AA2EBDE
:101F9000630307EE103A67EE277A67EE277AB7EE0B
:101FA000080A30EE670A27EE000A7047DF59375FEC
:101FB000002800F09B802DE9F0472DED048B824630
:101FC00090ED018AD0ED027A28EE278AD0ED036ADF
:101FD00090ED047A26EE877A38EE078A67EEA77AC4
:101FE000F6EE008A78EEE77A66EEA66A77EEE67A93
:101FF00017EE900AFEF7F8FA41EC190B18EE100AEA
:10200000FEF7F2FAB0EE491AF0EE691A41EC100B45
:1020100025F0E0FA57EC106BDAED027A9AED047ACB
:1020200067EE877A9AED017ADAED036A27EE267A6F
:1020300077EEC77AB8EE007A67EE877A17EE900AE5
:10204000FEF7D2FA41EC100B25F090FA59EC108B08
:102050009AED028A9AED037A28EE078ADAED016A90
:10206000DAED047A66EEA76A38EE268A27EE077A5A
:1020700038EEC77A67EEA77A77EE677A17EE900A9E
:10208000FEF7B2FA41EC190B18EE100AFEF7ACFAA3
:10209000B0EE491AF0EE691A41EC100B25F09AFAED
:1020A00055EC104B40464946FEF7EEFD07EE900A10
:1020B0009FED0F8A68EE677ACAED057A3046394699
:1020C000FEF7E2FD07EE900A67EE887ACAED067A1F
:1020D00020462946FEF7D8FD07EE900A28EE678ACB
:1020E0008AED078ABDEC048BBDE8F087704700BF1E
:1020F000333365424FF07F5303604FF07E534360AC
:1021000000238360C360036143618361C3617047DF
:10211000002800F0488110B52DED0E8BB0EE61CA9D
:10212000F0EE428AF0EE629A044690ED02DA2DEE6D
:1021300040BAD0ED03CA6CEEA07A3BEE67BAD0EDA0
:1021400004BA6BEE817A3BEE67BAB6EE008A2BEEEC
:1021500008BAD0ED01DA6DEE80AA6CEE817A7AEEE3
:10216000A7AA6BEEA07A7AEEE7AA6AEE88AA2DEE0D
:10217000A0AA6DEE017A3AEE67AA6BEE807A3AEE8B
:1021800027AA2AEE08AA2DEE811A2DEE209A31EE0A
:10219000099A2CEE801A39EE419A29EE089AF5EE4A
:1021A000401AF1EE10FA0AD1B5EE402AF1EE10FA1B
:1021B00005D1F5EE402AF1EE10FA00F0B4806CEE95
:1021C0000C7A28EEA80A77EE807A29EEA90A37EE73
:1021D000800AFFF7D5FE6CEE001A28EE802A69EE21
:1021E000802A3DEEAD3A3DEE0D5A7CEEAC5A3BEE08
:1021F000AB4AB1EE006A2DEE860A2DEE061A6CEEA1
:10220000864AB2EE008A6DEE080A2CEE888A2DEE20
:10221000ADEA6DEE0D7A6CEEAC6A6BEEAB3A20EE89
:1022200026CA21EEA57A3CEE07CA20EE270A3CEE2C
:1022300000CA22EE057A3CEE47CA61EE239A21EEEF
:10224000847A79EEC79A2EEE067A2DEE070A79EE99
:10225000809A22EE030A79EEC09A79EEC19A20EEB6
:10226000A70A79EE809A60EEA60A79EEA09A22EE8D
:10227000811A79EE819A2CEE877A21EE833A37EE35
:10228000037A64EEA33A37EE237A22EE044A37EE5D
:10229000447A37EE647A28EE274A37EE047A28EE3D
:1022A000268A37EE087A22EEA48A37EE088A67EE8D
:1022B000868A6BEEA88A61EE851A78EEE18A66EE70
:1022C000866A6BEEA66A78EEA68A22EE252A78EE5A
:1022D000C28A6CEE0C7A29EEA90A77EE807A28EE93
:1022E000080A77EE807A28EEA80A37EE800AFFF710
:1022F00047FE2CEE00CA69EE809A28EE008A28EE8E
:10230000800AD4ED007A27EE8CCA3BEE4CBA67EE19
:10231000A99A7AEEE9AA27EE888A3AEE48AA67EEE9
:10232000807A39EE679A9FED208A2BEE08BA7DEE0F
:102330008BDAC4ED01DA6AEE88AA3DEE2ADA84ED82
:1023400002DA2AEE08AA7CEE8ACAC4ED03CA29EE94
:10235000088A3BEE888A84ED048A6DEEAD7A2DEE14
:102360000D0A77EE807A2CEEAC0A77EE807A28EEB2
:10237000080A37EE800AFFF703FE6DEE80DAC4ED3F
:1023800001DA2DEE00DA84ED02DA6CEE80CAC4EDDB
:1023900003CA28EE008A84ED048A2046FFF708FE6F
:1023A000BDEC0E8B10BD70470AD7233C002800F00F
:1023B000C38210B52DED108B90B0B0EE61DAB0EEA7
:1023C000429AF0EE628AF0EE43BAF0EE63AAB0EE03
:1023D00044BA0446B5EE403AF1EE10FA0AD1F5EEF1
:1023E000403AF1EE10FA05D1B5EE404AF1EE10FA9E
:1023F00000F09F8294ED02CA6CEE407A94ED03AA3D
:102400002AEE207A77EEC77AD4ED049A29EE817A03
:1024100077EEC77AB6EE007A67EE877ACDED007A6E
:10242000D4ED01CA6CEE807A6AEE016A77EEA67A84
:1024300069EEA06A77EEE67A67EE877ACDED017AEB
:102440006CEEA07A6CEE016A77EEE67A69EE806A4D
:1024500077EEA67A67EE877ACDED027A2CEE811AB6
:102460006CEE200A31EE201A2AEE000A31EE401AF4
:1024700061EE077ACDED037AB5EE40DAF1EE10FAAF
:102480000AD1B5EE409AF1EE10FA05D1F5EE408A88
:10249000F1EE10FA00F0FC816DEE0D7A29EE090ADA
:1024A00077EE807A28EEA80A37EE800AFFF768FDFB
:1024B0006DEE007ACDED047A29EE007A8DED057A85
:1024C00068EE806ACDED066A6BEEAB7A2AEEAA0A58
:1024D00077EE807A2BEE0B0A37EE800AFFF750FD7D
:1024E0006BEE80BA6AEE80AA2BEE00BA7CEEAC8A64
:1024F00028EEAB6A68EEAAFA68EE8B6A3CEE0C9A9C
:1025000069EE2B5A7AEE0ADA39EEA9EA8DED09EA7C
:102510002AEE285A8DED0A5A69EEAD4ACDED0B4AE6
:102520002CEEACEA2CEE2C8A2AEE2C0A8DED0C0A4D
:1025300029EEAC4A8DED0D4A2CEE0CDA2CEE0A3A5F
:102540008DED0E3A6CEE29EA6AEE0ACA2AEE292AC5
:102550008DED0F2A29EEA9FA2BEE8E7A69EEAF7A6D
:1025600037EE677A6AEE267A37EE277A6BEE8D7A47
:1025700037EE277A69EE2A7A6AEE277A37EE277ADB
:1025800069EE0B7A69EEA77A37EE277A6BEEAC7AB2
:1025900037EE677A6BEE8F7A37EE677A8DED076AE2
:1025A00069EE867A2AEE8E6A77EE867A2CEE26CA55
:1025B00037EECCCACDED085A2AEE25AA3CEE0AAA7F
:1025C0002AEE8DCA3AEE4CAA6AEEAC7A3AEE27AA07
:1025D0006BEE2D7A69EEA79A7AEE299A6AEE8F7AD7
:1025E00079EEE79A27EE077A69EEA99A77EE291A2B
:1025F00011EE900AFDF7F8FF41EC100B25F064F89E
:1026000051EC100BFEF740FB07EE100AD4ED036A05
:102610009DED076A66EE667AD4ED020A60EEAFFAC7
:1026200077EEAF7A2BEE0EEA77EE8E7A94ED046AAF
:10263000DDED085A26EE25EA77EE8E7A2BEE0DEACE
:1026400077EECE7A6AEEAD5A66EE255A77EEA57A27
:102650006BEE2C5A77EEE57A6BEE0F5A77EEA57A91
:1026600077EE074A37EEA71A7EEEAE1A9DED0A5AAC
:1026700071EEC51ADDED045A71EEE51A6DEEE19AC0
:1026800038EE082A9DED0B5A32EE052ADDED055A8B
:1026900032EE652A69EE025A79EEA59A66EEA75ADD
:1026A000F6EE002A32EEEC5A35EE4FFA2FEE07FA2C
:1026B0009DED0C0A3EEEC05A25EE275A3FEE05FA74
:1026C0007FEE6BBA25EEAB5A79EEC59A27EE464AF5
:1026D00020EEA75A34EE054A9DED0E3ADDED0D3A97
:1026E00073EE633A63EE873A9DED0F3A38EE033AA4
:1026F00023EE273A73EE833A73EEEAAA24EE2A4ACF
:1027000079EE849A26EE873A30EE2E4A24EE074A76
:1027100072EECDEA7EEEECEA6EEEA7EA34EE2E4AD9
:1027200034EE4B4A63EE043A79EEA39A9DED09EA42
:1027300021EE8EAA68EE823A3AEE23AAB1EE00BAF2
:1027400060EE8B3A3DEE0DDAF7EE002A32EECDDA8E
:102750007CEEACCA7DEE6CCADDED062A7CEEE22A88
:1027600063EEA23A3AEE63AA26EE27CA6BEE8C3AE3
:102770003AEE23AAD4ED013A63EEA77A33EE273A74
:102780002AEE833A3AEE03AA26EE073A20EE810AB1
:1027900033EE403A24EE033A3AEE03AA28EEE18AF9
:1027A00062EE0E8A38EE288A26EE8BBA62EE8B2A0B
:1027B00038EE628A24EEE63A73EE677A6BEEA77A19
:1027C00038EE278A60EE870A3CEE20CA2AEE8CCAD1
:1027D00038EE0C8A63EE877A66EE816A77EEE66AF7
:1027E00064EE266A38EE268A29EE21BA22EE2D2AD8
:1027F0003BEE02BA24EEC66A35EE065A6BEE85BA97
:102800003BEE2BBA27EE637A35EE877A6AEE87AA1B
:102810007BEE2AAA24EE20BA3AEE8BBA69EEA97AA8
:102820002AEE0A0A77EE807A28EE080A77EE807A96
:102830002BEE0B0A37EE800AFFF7A2FB69EE809AB7
:102840002AEE00AA28EE008A2BEE000AD4ED007AC8
:1028500067EEA99A9DED007A37EE697A8DED007AE0
:1028600027EE8AAA9DED017A37EE4A7A8DED017A3C
:1028700027EE888A9DED027A37EE487A8DED027A4E
:1028800067EE807A9DED037A77EE677ACDED037A75
:102890009FED2A8ADDED007A67EE887AD4ED019A01
:1028A00077EEA99AC4ED019ADDED017A67EE887A98
:1028B00094ED029A37EE899A84ED029ADDED027A60
:1028C00067EE887AD4ED038A77EEA88AC4ED038A8E
:1028D000DDED037A27EE888AD4ED047A38EE278A74
:1028E00084ED048A69EEA97A29EE090A77EE807AE6
:1028F00028EEA80A77EE807A28EE080A37EE800ADA
:10290000FFF73EFB69EE807AC4ED017A69EE007A4A
:10291000C4ED027A68EE807AC4ED037A28EE008A6C
:1029200084ED048A2046FFF743FB10B0BDEC108B0A
:1029300010BDFFF7EDFBF8E7704700BF0AD7233C57
:1029400010B40B681B6983ED000A0B689B680022BA
:10295000DA600B689C689A6002680B689360026892
:10296000DA600B6803600C605DF8044B7047000090
:1029700038B52DED028B30B99FED228AB0EE480AB2
:10298000BDEC028B38BD044600F110010C30FFF79E
:10299000D7FF6569E16800239FED1A8AB0EE487A97
:1029A00001E00133DBB222789A421FD361B1606843
:1029B00000EB8300D0ED007A0869D0ED006A67EE85
:1029C000A67A37EE277AC9689A42EAD9002DE8D06C
:1029D000A26802EB8302D2ED007A2A69D2ED006A86
:1029E00067EEA67A38EE278AED68DAE737EE488A8E
:1029F000B0EE480A04F1180104F11400FFF7A0FF3B
:102A0000BCE700BF0000000058B161B16AB191EDB0
:102A1000007AD2ED007A77EE877AC2ED007A012053
:102A2000704700207047002070470020704730B189
:102A300000224260026082600022C2607047002073
:102A40007047000000000000002840D0F8B52DEDD0
:102A5000028B0D46B0EE408A0446C3688BB3CB1A96
:102A600007EE903AF8EE677A9FED1D7AC7EE878AF7
:102A7000C0ED018A0068FDF7B7FD17A3D3E9002375
:102A8000FDF70AFE06460F4618EE900AFDF7ACFD6C
:102A900002460B4630463946FDF7FEFDFEF7F4F8D8
:102AA00007EE100A27EE080AF7EE007A77EEC77AEB
:102AB00094ED027A67EE877A30EE270A84ED020AF7
:102AC00001E09FED080AE560BDEC028BF8BD9FEDCB
:102AD000050A7047AFF30080EA2E4454FB211940E9
:102AE00000007A44000000002DE9F84F80460F46B0
:102AF00091469A46002408E0174B1B6B984700202C
:102B000027E0C9F800700134E4B2444519D2124BF1
:102B1000DB6A0420984783460028EDD004EB840547
:102B2000AE0007EB8505014628460FF05AFB00234F
:102B3000CBF80030002CE4D0143E3E44F560AE608B
:102B4000E1E708EB88039B00143B1F44CAF80070C0
:102B50000120BDE8F88F00BF08070320002800F01F
:102B6000C380F8B505460678012E40F2BA80771C7E
:102B7000FFB24368002B00F0B9808368002B00F09F
:102B8000B7805C4BDB6A242098470446002837D086
:102B9000584BDB6A07EB870080009847E06100280C
:102BA00033D004F1100304F10C0201463846FFF75C
:102BB0009BFF002831D04F4BDB6A06EB860080007C
:102BC000984701462062002830D004F1180304F130
:102BD00014023046FFF788FF002833D0454BDB6AEC
:102BE000B80098476060002838D0424BDB6AB000DC
:102BF0009847A06000283FD02B78237000234FE037
:102C00003C4B1B6B984700206DE03A4D2B6B98476F
:102C10002B6B20469847002065E0364D2B6BE06912
:102C200098472B6B2046984700205CE0314D2B6B7A
:102C3000E06998472B6B206A98472B6B2046984792
:102C4000002050E02B4D2B6BE06998472B6B206ADE
:102C500098472B6B20469847002044E0254D2B6B6E
:102C600098472B6BE06998472B6B206A98472B6B32
:102C700020469847002036E01E4D2B6B6068984731
:102C80002B6BA06898472B6BE06998472B6B206AE9
:102C900098472B6B20469847002024E00133DBB295
:102CA000BB421FD26A68D80002EBC302D2ED007AA1
:102CB00092ED017A6268990002EB830267EE877AEF
:102CC000C2ED007A9E42E9D9AA680244D2ED007AA8
:102CD00092ED017AA2680A4467EE877AC2ED007A23
:102CE000DCE700242046F8BD002070470020FAE70A
:102CF0000020F8E7080703200A2824D838B504463E
:102D0000144BDB6A102098470546F0B1002343704E
:102D10000470104BDB6A04EB840080009847E86085
:102D200048B105F108032A1D01462046FFF7DCFEE5
:102D300068B1284638BD074C236B9847236B28465B
:102D400098470020F6E7002070470020F2E70020B7
:102D5000F0E700BF0807032010B582B000230193FD
:102D6000E0B1044643780278934201D201334370C4
:102D700004F10801201DFFF7E3FD002301AA094922
:102D800060680FF07FFA637807EE903AF8EEE77A22
:102D9000DDED016A86EEA77A8DED017A9DED010ADF
:102DA00002B010BD092A000858B1D0ED037A27EE11
:102DB000800AD0ED047A20EE270A80ED050A012072
:102DC000704700207047024658B3D0ED067A27EED0
:102DD000800AD0ED0A7A30EE270A80ED0A0A037FD6
:102DE0007BB1BDEEC00A10EE103A1BB290ED097A2D
:102DF000FDEEC77A17EE901A09B28B4205DB80ED23
:102E00000A7A936AD3620120704790ED087AFDEE4A
:102E1000C77A17EE901A09B28B42F2DC80ED0A7A7B
:102E2000EFE700207047D0ED0E7A30EE677A68B198
:102E3000D0ED0C7AD0ED0D6A67EEA67A67EE877A50
:102E4000C0ED0F7A80ED0E0A012070470020704718
:102E500010B10022826282637047000084B010B516
:102E600003AC84E80E00C0B1044600230360436055
:102E700083604361C362C3634FF07E530361436366
:102E8000FFF7E6FF074B1B6804F14000984730B19D
:102E90000120BDE8104004B070470020F9E7002091
:102EA000F7E700BF0C00032070B52DED028B30EE6C
:102EB000C08A68B30D46044680ED000AC0ED010AE1
:102EC000B0EE480AFFF770FF064618B93046BDEC71
:102ED000028B70BDD4ED058ADFED0E7A78EEA78AFD
:102EE000B0EE480A2046FFF76EFF18B1D4ED0B7A1A
:102EF00078EEA78AB0EE480A29462046FFF793FFEE
:102F000018B1D4ED0F7A78EEA78AC4ED028ADDE716
:102F10000026DBE70000000070B14FF07E52026136
:102F200051B1DFED067AC0ED047AB4EEE70AF1EEB6
:102F300010FA01DD80ED040A704700BFCDCCCC3E15
:102F400070B14FF07E52426351B1DFED067AC0EDB1
:102F50000D7AB4EEE70AF1EE10FA01DD80ED0D0A0C
:102F6000704700BFCDCCCC3E84B08DE80F009DED06
:102F7000007ADFED4C7A67EE277AFCEEE77A17EEFF
:102F8000903A9BB2002B00F08280474B83ED047A8D
:102F9000019ADA61049A5A63444A9A62444A5A622C
:102FA0009DED057ADFED3F7A67EE277AFCEEE77A52
:102FB00017EE903A9BB2002B6CD03B4B83ED187A06
:102FC000069ADA66099AC3F88420384A9A67384A1A
:102FD0005A679DED0A7ADFED337A67EE277AFCEEC9
:102FE000E77A17EE903A9BB2002B55D02E4B83ED2B
:102FF0002C7A0B9AC3F8BC200E9AC3F8D420002276
:1030000083F8C0202B4AC3F8C4202B4AC3F8C82039
:103010009DED0F7ADFED237A67EE277AFCEEE77AF3
:1030200017EE903A9BB2002B38D01F4B83ED407ABD
:10303000109AC3F80C21002283F810211D4AC3F80E
:1030400014211D4AC3F81821139AC3F824219DEDB9
:10305000147ADFED147A67EE277AFCEEE77A17EE42
:10306000903A9BB2E3B1104B83ED547A159AC3F8B2
:103070005C21002283F860210E4AC3F864210E4AC5
:10308000C3F86821189AC3F87421012000E00020D9
:1030900004B070470020FBE70020F9E70020F7E7C5
:1030A0000020F5E700007A448C1703200000A041BF
:1030B0000000A0C100004842000048C210B50A4C00
:1030C000201DFFF7C5FE04F15400FFF7C1FE04F117
:1030D000A400FFF7BDFE04F1F400FFF7B9FE04F50C
:1030E000A270FFF7B5FE10BD8C17032082B02DE94A
:1030F000F0472DED028B04460AA880E80C00169FCD
:10310000002F00F08680B9B1434B0022DA63DA6207
:10311000C3F88C20DA679DED0A8ADFED407AB4EEC1
:10312000E78AF1EE10FA1EDB78EE677AB7EE008AD6
:1031300038EE678A012619E0374DDDED0B0A9DED6B
:10314000110A2146281DFFF7AFFEEB680E93DDED57
:103150000C0A9DED120A214605F15400FFF7A4FE6A
:10316000EB6D0D93D7E70026B7EE008A2A4D05F1E7
:10317000A40AB0EE480A31465046FFF7CDFE05F1ED
:10318000F409B0EE480A31464846FFF7C5FE05F59A
:10319000A278B0EE480A31464046FFF7BDFEB0EED9
:1031A000480A31465046FFF7CBFEB0EE480A31469A
:1031B0004846FFF7C5FEB0EE480A31464046FFF7E5
:1031C000BFFEDDED0D0A9DED130A21465046FFF7C7
:1031D0006BFEDDED0E0A9DED140A21464846FFF711
:1031E00063FEDDED0F0A9DED150A21464046FFF70F
:1031F0005BFED5F8AC303B60D5F8FC307B60D5F891
:103200004C31BB600120BDEC028BBDE8F04702B041
:1032100070470020F7E700BF8C170320CDCCCC3ED1
:1032200030B59BB0044664252A46002101A81FF052
:10323000C9F81C4B0193DFF894C0CDF808C01A48B8
:1032400003901A4904914FF07C5205920693CDF8F1
:103250001CC0089009910A92DFF874E0CDF82CE0C8
:10326000DFF870C0CDF830C011480D9011490E91B3
:10327000114A0F92CDF840E0CDF844C0129013915E
:1032800014920E4A15920E4A16920E4A17920E4A40
:10329000189219932A4601A920461FF06BF8204680
:1032A0001BB030BD9A99993F00002041000020C119
:1032B0000000C8420000C8C26666E63F6666A63FD8
:1032C0006F12033C00004842000048C2CDCC4C3E87
:1032D0003333B33FA69BC43B30B59BB00446642553
:1032E0002A46002101A81FF06DF8184B1A690192B7
:1032F000DA6902925A6B05921A6E0692DA6E07929A
:10330000D3F884200A92D3F8B0200B92D3F8BC20D3
:103310000C92D3F8D4200F92D3F800211092D3F856
:103320000C211192D3F824211492D3F85021159234
:10333000D3F85C211692D3F8743119932A4601A967
:1033400020461FF017F820461BB030BD8C17032015
:1033500084B070B59AB01EAC84E80F00274B1B7880
:10336000002B40D0542222A968461FF003F81EAB60
:103370000FCBFFF7F9FD064600283BD0204B1693F4
:103380001E4D199B009316AC94E80E00281DFFF704
:1033900065FD199B009394E80E0005F15400FFF7BA
:1033A0005DFD184B1693199B009394E80E0005F1F0
:1033B000A400FFF753FD199B009394E80E0005F15C
:1033C000F400FFF74BFD199B009394E80E0005F500
:1033D000A270FFF743FD01232B7030461AB0BDE801
:1033E000704004B070474FF4CA72002103481EF0C9
:1033F000E9FFB7E71EA8FFF713FFBFE78C1703200D
:103400000000A0410000C84282B070B58CB011939A
:10341000F8B90D461446104BDE681D9B0A930DF15A
:10342000100C0DF15C0EBEE80F00ACE80F009EE83A
:1034300003008CE8030013AB0FCB8DE80F0011AB3A
:103440000CCB21462846B0470CB0BDE8704002B016
:1034500070470020F8E700BF1C00032020B908B522
:10346000024B1B69984708BD704700BF1C00032032
:103470002DE9F04796B0642925D104460D46144B3A
:103480001E68D0F800A0D0F80490D0F80880C76873
:10349000542200F1100168461EF06CFF5046494668
:1034A00042463B46B047064670B10A4B1B6843B1E3
:1034B000094BDF682B4622460649096B0220B847B4
:1034C00010B1002600E00026304616B0BDE8F087B7
:1034D0001C000320201903202408032010B5BDF888
:1034E000084078B101290CD8022A0CD86BB174B10C
:1034F00079B90AB1002005E021461846FFF7B8FF68
:1035000000E0002010BD0020FCE70020FAE70020CA
:10351000F8E70020F6E70000364B9B68002B64D0EC
:103520002DE9F043CBB016A8984731AC642216A918
:1035300020461EF01FFF2F4B1D68542235A96846F8
:103540001EF018FF94E80F00A8472B4B5B682B4C2C
:103550002B4A022116A89847452216A920461EF09C
:1035600009FF23684BB9244B9C68642331AA244982
:103570000220A04760B3002034E01F4B1E691F4C9F
:1035800064220E9231AA0D92D4F80590D4F80980E5
:10359000D4F80D7004F1110C6D464134AE46DCF8E0
:1035A0000000DCF80410DCF80820DCF80C30AEE891
:1035B0000F000CF1100C7546A445EFD1DCF80000AB
:1035C000CEF80000494642463B460220B04770B95B
:1035D000084B1C68542235A968461EF0CBFE31AB5F
:1035E0000FCBA0474BB0BDE8F08300207047002010
:1035F000F8E700BF1C000320240803202019032043
:10360000007404080020704710B5044645220021CC
:1036100004481EF0D7FE0CB1002010BDFFF77CFF60
:10362000FBE700BF2019032084B010B50DF10C0C8E
:103630008CE80E00D8B104460398FCF7D5FF02468B
:103640000B460D49204615F045F80498FCF7CCFFD1
:1036500002460B460949204615F03CF80798FCF74E
:10366000C3FF02460B460649204615F033F8BDE875
:10367000104004B0704700BF0874040814740408B4
:103680002074040884B010B582B005AC84E80E0044
:10369000002845D00446254915F01CF808AB93E8EE
:1036A00003008DE8030005AB0ECB2046FFF7BCFFFF
:1036B0001F49204615F00EF80DAB93E803008DE886
:1036C00003000AAB0ECB2046FFF7AEFF1949204698
:1036D00015F000F812AB93E803008DE803000FAB80
:1036E0000ECB2046FFF7A0FF1349204614F0F2FF4F
:1036F00017AB93E803008DE8030014AB0ECB204614
:10370000FFF792FF0D49204614F0E4FF1CAB93E84D
:1037100003008DE8030019AB0ECB2046FFF784FFB2
:1037200002B0BDE8104004B0704700BF2C7404081C
:103730004C7404086C7404088C740408AC74040899
:1037400070B5CAB014F000FEF0B1054631AC642685
:103750003246002120461EF035FE0C49284614F062
:10376000B9FF0B4B5B6816A89847324616A920464E
:103770001EF000FE582234A968461EF0FBFD94E8B6
:103780000E002846FFF77EFF4AB070BDCC740408D7
:103790001C0003202DE9F04385B00446404B93E81C
:1037A000070004AB03E90700002C65D0274620463C
:1037B000FCF75EFD8046062861D82378502B3DD06B
:1037C000702B3FD0492B41D0692B43D0442B45D09F
:1037D000642B59D101264FF000090EE009F10109CF
:1037E0005FFA89F9B9F1010F16D99FED2E0A48E069
:1037F0000023002B51D00136F6B23246B04531D904
:103800007B782E2B43D007EB080313F8013C2E2BBB
:1038100040D0BD5C2E2DE1D0002401A8FCF728FD8E
:103820008442E5D204F110036B4413F80C3C9D4232
:1038300002D00134E4B2F0E70123DAE701264FF0C9
:103840000009DAE701264FF00009D6E701264FF01C
:103850000009D2E701264FF00009CEE701264FF01C
:103860000009CAE7781C1EF02DFD51EC100BFDF786
:103870000BFA00EE100A04E09FED0A0A01E09FED4A
:10388000090A05B0BDE8F0839FED060AF9E79FED50
:10389000050AF6E79FED030AF3E79FED020AF0E75A
:1038A000EC740408000000002DE9F043E3B0054685
:1038B00088461746994614F047FD002800F081809D
:1038C000044664263246002149A81EF07BFD32469C
:1038D000002130A81EF076FD544B5B6816A898476F
:1038E000324616A949A81EF045FD324649A930A81E
:1038F0001EF040FD4E49204614F0ECFE4D49204696
:1039000014F0E8FE4C49204614F0E4FE4B492046F2
:1039100014F0E0FE4A49204614F0DCFE49492046F6
:1039200014F0D8FE4849204614F0D4FE042D63D884
:10393000DFE805F0034A50565C004449204614F085
:10394000C9FE49AD4046FFF725FF85ED000A384620
:10395000FFF720FF85ED010A4846FFF71BFF85EDC5
:10396000040A2868FCF740FE02460B463849204608
:1039700014F0B0FE6868FCF737FE02460B46354986
:10398000204614F0A7FE2869FCF72EFE02460B46DF
:103990003149204614F09EFE244B1D6854224DA947
:1039A00068461EF0E7FC49AB0FCBA84748B364213B
:1039B00049A8FFF75DFD002832D02849204614F0C1
:1039C00089FE63B0BDE8F0832549204614F082FEED
:1039D0004EADB7E72349204614F07CFE53ADB1E766
:1039E0002149204614F076FE58ADABE71F4920462A
:1039F00014F070FE5DADA5E71D49204614F06AFE87
:103A0000DFE71C49204614F065FE084B1C68542271
:103A100034A968461EF0AEFC30AB0FCBA047D0E710
:103A20001549204614F056FECBE700BF1C000320CA
:103A3000F874040828750408587504087C7504088F
:103A4000A0750408C4750408E87504080C76040819
:103A5000B8760408CC760408E076040844770408B5
:103A60002876040844760408607604087C76040806
:103A700098760408F47604081C77040841B10B46D4
:103A800032B110B50349CC6919460068A04710BD92
:103A9000704700BF0C0D032010B50446006840B10C
:103AA000054B1B68984720B10123237123689C6450
:103AB00010BD00232360FBE70C0D03200CB430B5D0
:103AC000C3B00379002B38D004460D46036923B1F7
:103AD000C36813B18268002A34D04FF40072002109
:103AE000A0681EF06FFC4FF48072002101A81EF048
:103AF00069FC294601A81FF040FA469901A81FF069
:103B00002DFAA368CBB12368BBB147AB419301AA9F
:103B10004FF40071A06820F005F985B2B5F5007F7B
:103B200001D94FF400752A46A1682046FFF7A6FF89
:103B30002A460021A0681EF045FC43B0BDE8304095
:103B400002B070474FF400709847A0600028C4D1BD
:103B5000F3E768467047EFF309807047EFF308809A
:103B6000704700002DE9F84304460D469046154F76
:103B7000154E0346154A39463046FFF79FFF2B4640
:103B8000134A39463046FFF799FF05EB08094B46C3
:103B9000104A39463046FFF791FF43460E4A3946F0
:103BA0003046FFF78BFF2034A54204D8A14502D34D
:103BB0000020BDE8F883094A02490348FFF77EFF69
:103BC0000120F6E70878040808130320F4770408B6
:103BD000187804082C7804084078040854780408FD
:103BE00000B587B004460E464C4A4D494D48FFF794
:103BF00065FF002305930496FFF7ABFF0390FFF7E3
:103C0000ADFF0290FFF7A7FF019014F0040F77D0EB
:103C1000434D444C444A29462046FFF74FFF13F0DA
:103C2000FDFB0590059813F067F903463F4A2946C6
:103C30002046FFF743FF019B0493049D059813F072
:103C4000F3FB0446059813F003FC02462146284680
:103C5000FFF788FF324D334C3346354A294620461C
:103C6000FFF72CFF039B334A29462046FFF726FF28
:103C7000019B314A29462046FFF720FF029B2F4A2D
:103C800029462046FFF71AFF049B1B682C4A294649
:103C90002046FFF713FF049B5B682A4A294620460B
:103CA000FFF70CFF049B9B68274A29462046FFF735
:103CB00005FF049BDB68254A29462046FFF7FEFEE8
:103CC000049B1B69224A29462046FFF7F7FE049B06
:103CD0005B69204A29462046FFF7F0FE049B9B695A
:103CE0001D4A29462046FFF7E9FE049BDB691B4A73
:103CF00029462046FFF7E2FE194BDB689847FEE7AE
:103D0000184A07490748FFF7D9FE0498164B1A6866
:103D1000164B1968FFF726FF9CE700BF6878040878
:103D200008780408081303207878040888780408C1
:103D3000AC780408C0780408D4780408E87804084B
:103D4000FC7804080C7904081C7904082C79040810
:103D50003C7904084C7904085C7904086C790408FF
:103D60004C0603209C780408A8B50320A8AD0320C6
:103D700010B50446094B5B689847B0FBF4F304FBAD
:103D8000130454B9064B1B68834206D0054A1378C6
:103D900083F001031370024B186010BD0807032065
:103DA000AC190320601A032010B514F0CDFA0028D6
:103DB00000F0AF800446624B1B7813F0040F5CD018
:103DC000604A6149204614F085FC5D4B1B7813F076
:103DD000010F54D05B4A5D49204614F07BFC584BE0
:103DE0001B7813F0020F4CD0564A5949204614F064
:103DF00071FC534B1B7813F0080F44D0514A5549BE
:103E0000204614F067FC5449204614F063FC4C4BE8
:103E10001B7913F0040F38D04A4A5049204614F059
:103E200059FC474B1B7913F0010F30D0454A4C49E0
:103E3000204614F04FFC424B1B7913F0020F28D0A0
:103E4000404A4849204614F045FC3D4B1B7913F08D
:103E5000080F20D03B4A4449204614F03BFC3E4921
:103E6000204614F037FC364B93F83030042B29D819
:103E7000DFE803F0132A222426003C4AA1E73B4A4C
:103E8000A9E73A4AB1E7394AB9E7384AC5E7374AB4
:103E9000CDE7364AD5E7354ADDE7354A354920468C
:103EA00014F018FC264B93F83130042B38D8DFE897
:103EB00003F00D39313335002F4AEFE72F4AEDE794
:103EC0002F4AEBE72F4AE9E72F4AE7E7284A2F492D
:103ED000204614F0FFFB2049204614F0FBFB184B52
:103EE00093F82D30012B21D0022B21D0E3B1254AAC
:103EF0002749204614F0EEFB114B93F82E30012B8E
:103F00001AD0022B1AD0ABB11E4A2249204614F017
:103F1000E1FB10BD184ADAE7184AD8E7184AD6E795
:103F2000184AD4E7184AD2E7154AE1E71A4ADFE708
:103F30001A4ADDE7124AE8E7194AE6E7194AE4E7D0
:103F4000B019032084790408DC790408F4790408A2
:103F50000C7A0408247A04083C7A04085C7A040881
:103F6000747A04088C7A0408A47A04087C7904081A
:103F7000BC790408BC7A0408A4790408B079040860
:103F8000C08304088C79040898790408D07A04085E
:103F9000E47A0408F87A0408CC790408C47904089F
:103FA000D8790408D47904082DE9F04383B00024BB
:103FB00001940094454EAC22214630461EF002FA90
:103FC000DFF8389127252A46214648461EF0FAF99F
:103FD0003F4F2A46214638461EF0F4F93D4D2C60ED
:103FE0006C60AC60EC602C616C61AC6105F11C082C
:103FF0005422214640461EF0E5F9C9F80D805423AD
:1040000089F8113089F812404FF0010889F80C80C6
:10401000C7F80D501C237B74BC7487F80C80337870
:1040200043EA08033370DBB243F004033370737A5E
:10403000052262F303037372274B1B6830469847CF
:10404000264F387033682B6773686B6705F1700310
:104050002348C0F80D3004234374847480F80C8026
:104060007435204EC6F80D507374B47486F80C8005
:104070001D4911F0D3FE1D49304611F0CFFE3B78AB
:1040800033B1154BDB6801AA41461048984728B95F
:10409000174B01221A6003B0BDE8F0839DF804209D
:1040A000A5F1740383F87820BDF80620A3F87A20E0
:1040B00078331048C0F80D3004234374847480F8BA
:1040C0000C800D4911F0AAFEE2E700BFB0190320F1
:1040D000240A03200000022058070320611A03204D
:1040E000040C0320540C0320DC0B03202C0C0320B5
:1040F0005C1A0320EC0A0320140B03203C0B032062
:1041000000B599B0224B5B689847179005E0204BAB
:10411000DB68204A116817A898476420FFF728FE3B
:104120001D4B1B78002BF2D01C4B5B681C4898473A
:104130000028ECD0194E33691A4C194D29466846AF
:1041400098475422694604F11C001EF013F9736964
:10415000294668469847A646EC46BCE80F00AEE8FC
:104160000F009CE807008EE807000F4D0F49284616
:1041700011F054FE0E4C0F49204611F04FFE0E492F
:10418000284611F04BFE0D49204611F047FEBEE7D0
:10419000080703205C1A0320611A03205807032034
:1041A000B0190320000002203C0B0320C40A0320A6
:1041B000240A0320D4090320640B0320FC090320F4
:1041C00020B1036913B1598001221A7070470000B1
:1041D000002866D00269002A65D0B2F804C01389AD
:1041E0009C4562D210B5117851B1D1680888D18848
:1041F000548801EB040E704502DC091B884256DA34
:10420000D0881B1A9BB2B2F802E0A3EB0E031BB2DC
:10421000A0EB0C0189B2A1EB0E0109B2D2681288A1
:1042200000EB0E04141B002C1EDDA2EB0E02121A72
:1042300007EE902AF8EEE76A07EE903AB8EEE77AD2
:10424000C6EE877AB6EE007A67EE877A9FED197A26
:1042500067EE877A9FED187A77EE877AFCEEE77A39
:1042600017EE903A98B210BDA0EB0E00801A00280D
:1042700014DDA2EB0C0207EE902AB8EEE77A07EE07
:10428000901AF8EEE76AC7EE267AB6EE007A67EE85
:10429000877A9FED087A67EE877ADFE7DFED067AA7
:1042A000DCE7002070470020704700207047322074
:1042B000D9E700BF0000C84200004842054A938980
:1042C000128A9B1A9BB208B90020704793FBF0F04A
:1042D000704700BFA41A0320034618B1094B1960A8
:1042E000002070470748006850B1091AB1EB420F2F
:1042F00001D218467047034B00221A600120704714
:1043000018467047241C03202DE9F04389B0044669
:104310000D463C22002128461EF054F84FF00109BA
:1043200085F8019085F80090DFF87080174A05AB9A
:1043300007CA83E80700164A02AB07CA83E80700EA
:104340000026019605230093334604223146114886
:10435000D8F80070B8470146D8F808302846984782
:10436000207084F80C90667384F81E90268426745E
:10437000D8F81460084901F1100301F10E020C3164
:104380002846B047207009B0BDE8F08378140320B8
:104390008814032000480040A41A0320D4050320F9
:1043A00084B010B502AC84E80F00139C002C00F020
:1043B00092806422002120461EF004F8099B2360AD
:1043C0009DF8080084F85E009DF80D3084F85F3099
:1043D000002B67D19DF82830237100230AE003F1F8
:1043E000100202A901EB4202518804EB4302D18082
:1043F0000133DBB20F2BF2D9394B9A7C103202A970
:1044000001EB4202B2F90220A4F84620DA7C103215
:1044100001EB4202B2F90220A4F848201A7D1032C2
:1044200001EB4202B2F90220A4F84A205A7D103270
:1044300001EB4202B2F90220A4F84C20BDF8122090
:1044400084F84E20BDF8142084F84F20BDF81620C3
:1044500084F85020BDF8182084F85120B3F90C20BE
:10446000A4F85220B3F90E20A4F85420B3F9103068
:10447000A4F856309DF80C2094F85A3062F30413D7
:1044800084F85A3088B19DF80A20DBB262F3C30386
:1044900084F85A309DF80B20DBB262F3820384F873
:1044A0005A3002E0012384F85E309DF8092094F828
:1044B0005A3062F3410384F85A309DF81A3084F878
:1044C000583094F85A3043F0010384F85A30BDF85C
:1044D0001030A4F86030BDE8104004B0704700BF51
:1044E000A41A03202DE9F041BDF81C80002838D023
:1044F0000C4617461D460646002934D01D4BB3F91D
:1045000010309D4231DB1B4BB3F90C3098452FDC4A
:10451000194BDB6A14209847014668B1C460A0F8C3
:104520000880BDF81830C380858000234380037065
:10453000032F06D9002019E00F4B1B6B9847002072
:1045400014E007EB470306EBC303012483F8644040
:1045500007EB4703DB005033F0180DF042FE204616
:1045600004E0002002E0002000E00020BDE8F0812F
:104570000020FBE7A41A03200807032088426BD021
:10458000F0B583B00D4616461C46904266D0984260
:1045900066D0914266D0994266D09A4266D0344B3A
:1045A000D968344FB7F910C0B7F90E20B7F90C30FD
:1045B0009BB2019392B200921FFA8CF3002201EB9E
:1045C000400107F12400FFF78DFF10B9002003B070
:1045D000F0BD274BD9683846B7F91030B7F90E202F
:1045E000B7F90C70BFB2019792B200929BB2012250
:1045F00001EB45012430FFF775FF0028E6D01C4B86
:10460000D9681C48B0F91030B0F90E20B0F90C5040
:10461000ADB2019592B200929BB2022201EB46012B
:104620002430FFF75FFF0028D0D0114BD968114824
:10463000B0F91030B0F90E20B0F90C50ADB20195C0
:1046400092B200929BB2032201EB44012430FFF7A7
:1046500049FF0028BBD1B9E7002070470020B6E72A
:104660000020B4E70020B2E70020B0E70020AEE76A
:10467000641A0320A41A0320F8B5BDF8187028B3F3
:104680000C4616461D4619B3144BB3F910309D4223
:1046900020DB124BB3F90C309F421DDC104BDB6A60
:1046A00014209847014660B1C460078185800124C9
:1046B000347534700023736030460DF092FD20464F
:1046C00009E0074B1B6B9847002004E0002002E044
:1046D000002000E00020F8BD0020FCE7A41A032021
:1046E000080703202DE9F843BDF82070002836D0D4
:1046F0000E4615461C46002933D01D4BB3F9103029
:104700009C4230DB1A4BB3F90C309F422EDC194B24
:10471000DB6A142098478046B8B1164BDB6A142038
:1047200098478146B0B1C8F80C60A8F80870A8F89E
:1047300004402B7D01332B7541460DF052FD494657
:1047400028460DF088FD01200EE00A4B1B6B9847B0
:10475000002009E0074B1B6B9847002004E0002075
:1047600002E0002000E00020BDE8F8830020FBE725
:10477000A41A0320080703202DE9F04182B00F4658
:1047800016469846424BD968424CB4F91030B4F9F9
:104790000E50ADB200959BB204F1D40201EB400182
:1047A00004F12400FFF768FF10B902B0BDE8F08102
:1047B000374BD9682046B4F90E30B4F90C2092B2C8
:1047C00000929BB204F5827201EB46012430FFF7A0
:1047D00053FF0028E9D00320FFF770FD04462D4861
:1047E000B0F910309BB21D19ADB2294AD1687E00D4
:1047F000009500F1EC0201EB47012430FFF73CFF8C
:104800000028D2D02C44A4B2214BD968214800946E
:104810002B4600F1EC0231442430FFF763FF0028FF
:10482000C3D01C48B0F90C30194AD1689BB2009330
:10483000234600F1EC0231442430FFF753FF0028F7
:10484000B3D0134BD9681348B0F90E30B0F90C202F
:1048500092B200929BB200F58E729DF8204001EB5F
:1048600044012430FFF708FF00289ED0084BD96888
:104870000848B0F90E30B0F90C2092B200929BB209
:1048800000F59A7201EB48012430FFF7F5FE8CE742
:10489000641A0320A41A032030B583B01D48B0F970
:1048A0001040A4B204F16405ADB21B4BD968009569
:1048B000234600F5B27204312430FFF713FF10B91C
:1048C000002003B030BD144BD96812480095234630
:1048D00000F5B27202312430FFF704FF0028EFD058
:1048E0000C480095234600F5B2720B49C968243084
:1048F000FFF7F8FE0028E3D0074BD968054800957C
:10490000234600F5B27206312430FFF7EBFE002893
:10491000D7D1D5E7A41A0320641A032030B583B099
:104920000023ADF802308DF800308DF8013018B159
:1049300004460346002513E0009B01932CE0BDF8DC
:10494000021001228A402A43D5B29DF8002001328C
:104950008DF80020BDF802200132ADF80220DB689E
:104960005BB11A69002AEAD0D168098810898142AE
:10497000F0D892889142EDD3E1E728460EF0E9F8AD
:10498000012814D00023ADF802309DF80020237DCB
:104990009A4212D0009B01930020BDF8043063F3CB
:1049A0000F00BDF8063063F31F4003B030BD28464A
:1049B0000EF0C4F8ADF80200E7E701238DF80130EE
:1049C000E8E70000F0B5A1B006460D461746002105
:1049D0001691179118911991442205A81DF0F2FC27
:1049E0000DB307B32B78F3B1724BDB686C463946D5
:1049F000204698470DF1580C94E80F008CE80F0002
:104A00009DF86530002B40F0B380BDF860306B82BC
:104A1000BDF86230AB826B68AB62674B9B7885F800
:104A20002C30002411E04422002130461DF0CAFC45
:104A3000304621B0F0BD179B33F9142004F1140364
:104A400005EB4303DA800134E4B2BB78A3420ED90C
:104A5000032CF0D804EB4400C00050302844FFF78A
:104A6000B7FB04F1080305EB4303D880E3E705F146
:104A7000F800FFF753FF1A909DF869302B7405F189
:104A8000E000FFF74BFF1B909DF86D306B7305F155
:104A9000B000FFF743FF1C909DF871302B7305F1B8
:104AA000C800FFF73BFF1D909DF87630AB77012BD8
:104AB00001D90123AB772B7B002B39D10023AB73BA
:104AC000EB73169B6B60AA689A1A6A62AB6000234C
:104AD0006B743A4B93F8203053B1384B93F8213034
:104AE00013B12B7B002B37D0344B002283F82020CE
:104AF000324BDB7E23B12B7B002B35D101232B7373
:104B00002B7B5BB92D4B93F821303BB1EB8A042B07
:104B100004D90023EB822A4B01221A70284B1B7800
:104B20000BB101232B732A7B244B83F8212034E023
:104B3000234B00221A7005F5A070FFF7EFFE1E90C0
:104B40009DF87930AB7305F58870FFF7E7FE1F908D
:104B50009DF87D30EB73B4E701236B74442205A903
:104B600030461DF007FC63E7144B0022DA76C7E7F6
:104B700001226A742A7300236B73AA7707E003F19A
:104B8000080205EB42020021D1800133DBB2032B86
:104B9000F5D90A4B012283F820204424224605F14E
:104BA0000C0105A81DF0E6FB224605A930461DF0C4
:104BB000E1FB3DE7D4050320641A0320A41A032077
:104BC000201C03202DE9F04182B005463A4C4FF4F9
:104BD000BE72002120461DF0F5FB384B5B689847FC
:104BE00020600223A3740123E374002323750323AD
:104BF00063750423A3750523E37506232376072332
:104C000063760823A3762E4904F12400FFF77CFB8A
:104C100038B12B4B1B78012B0BD0274B012283F88B
:104C20002120254B0122DA76264B1D6002B0BDE81B
:104C3000F081637D227DE17CA07CFFF79FFC002852
:104C4000EBD0637E0093A37EE27D217EA07DFFF703
:104C500093FD0028E1D0FFF71FFE0028DDD0264697
:104C6000012784F83070642104F18C00FFF7A8FA62
:104C7000642104F1A400FFF7A3FA642104F1BC004D
:104C8000FFF79EFA104C2722002120461DF09AFBC8
:104C9000DFF83C806422002140461DF093FBC4F8FD
:104CA0000D80642363740023A374084B1B69F17C9B
:104CB000034898472773B0E7A41A03200807032086
:104CC000641A0320A01A03208C0B0320D4050320B0
:104CD0007C00022030B5B5B02A4B5B689847339012
:104CE00000218DF8CB10442221A81DF06BFB09E0B8
:104CF0002549264811F092F8224BDB68244A1168B6
:104D000033A898471F4B5B6898470446214B1B69A3
:104D10000DF1CB0098470028EED09DF8CB30002B4A
:104D2000EAD11D4A1D490EA8FFF74CFE21AD4422D1
:104D30000EA928461DF01EFB194B0D93EC460DF1F4
:104D4000940EBEE80F00ACE80F00BEE80F00ACE820
:104D50000F00BEE80F00ACE80F00DEF80030CCF822
:104D6000003095E80F00FFF71BFB094B1A6821463E
:104D70009DF88800FFF7B0FA0028B9D003F052FC84
:104D8000B6E700BF08070320B40B03208C0B0320F9
:104D9000A01A0320A4060320641A0320C81A0320C3
:104DA0007C000220022801D000207047084B9B782D
:104DB0008B4209D9064B9B6B01EBC10103EB8100D0
:104DC00013F8213013B1704700207047002070475E
:104DD000741F032060B110B50C46426812B103780D
:104DE000012B00D010BD034B5B6898472060F9E7AA
:104DF000704700BF08070320F0B585B000238DF889
:104E000007308DF8063002238DF80830344B5B698B
:104E10000DF106009847334B1B78002B5ED0304BCA
:104E20005B6D0DF1070098472F4B1B681A7822B372
:104E300002228DF8092003932C4E2D4D2D4C2B462C
:104E400002AA21462C487769B8472B4602AA214678
:104E50002A487769B8472B4602AA2146284877692D
:104E6000B8472B4602AA214626487769B847766993
:104E70002B4602AA21462448B047244B1B7A002B1C
:104E80002CD001238DF80930214B1B680393174E5A
:104E9000174D184C2B4602AA21461E487769B84781
:104EA0002B4602AA21461C487769B8472B4602AA1E
:104EB00021461A487769B8472B4602AA2146184866
:104EC0007769B8472B4602AA214616487769B84742
:104ED00076692B4602AA21461348B04705B0F0BDBB
:104EE000A4060320B81E032068250320880603209B
:104EF000C95400086800032094200320CC2003201C
:104F00005C200320B020032040200320741F0320D6
:104F1000B02A0320DC250320142603208825032043
:104F2000F82503206C250320A425032008B10120C7
:104F300070470020704708B101207047002070477B
:104F400000B583B001238DF8073040B1064B5B6D8F
:104F50000DF10700984710B99DF8070000B900202F
:104F600003B05DF804FB00BFA406032000B583B0C6
:104F700001238DF8073040B1064B5B6D0DF1070042
:104F8000984710B99DF8070000B9002003B05DF8FC
:104F900004FB00BFA406032000B583B001238DF8F5
:104FA000073040B1064B5B6D0DF10700984710B913
:104FB0009DF8070000B9002003B05DF804FB00BFB6
:104FC000A406032000B583B001238DF8073040B15B
:104FD000064B5B6D0DF10700984710B99DF807006F
:104FE00000B9002003B05DF804FB00BFA406032055
:104FF00000B583B001238DF8073040B1064B5B6DDF
:105000000DF10700984710B99DF8070000B900207E
:1050100003B05DF804FB00BFA406032000B583B015
:1050200001238DF8073040B1064B5B6D0DF1070091
:10503000984710B99DF8070000B9002003B05DF84B
:1050400004FB00BFA40603202DE9F04F83B0044BFE
:105050005B689847022805D0002003B0BDE8F08FB8
:10506000880603200024ADF804408DF80640DFF8E0
:105070003CB3CBF80040CBF80440CBF80840CBF869
:105080000C40CBF81040CBF81440CBF81840DFF8B8
:105090002093C9F80040C9F80440C9F80840C9F88D
:1050A0000C40C9F81040C9F81440C9F81840A54F81
:1050B0003C607C60BC60FC603C617C61BC61A24B7C
:1050C0001C605C609C60DC601C615C619C619F4B4F
:1050D0001C605C609C60DC601C615C619C619C4B42
:1050E0001C605C609C60DC601C615C619C61DFF842
:1050F000C482C8F80040C8F80440C8F80840C8F89E
:105100000C40C8F81040C8F81440C8F81840914E38
:1051100034607460B460F46034617461B4618E4B67
:105120001C605C609C60DC601C615C619C618B4B02
:105130001C605C609C60DC601C615C619C614FF089
:10514000010A8DF804A08DF805A0854DEB680A22B0
:105150000199584698472B69214658469847EB686D
:105160000A2201997A4898472B692146784898473E
:105170008DF804A04FF002038DF805308DF806403D
:10518000EB680A220199484698472B6951464846E0
:105190009847EB680A220199404698472B69514687
:1051A000404698478DF804A04FF008038DF805306D
:1051B0008DF80640EB6814220199384698472B6910
:1051C000514638469847EB68142201993046984773
:1051D0002B695146304698478DF804A04FF00903DB
:1051E0008DF805308DF80640EB680A220199564883
:1051F00098472B69214654489847EB680A22019941
:10520000554898472B692146534898478DF804A084
:105210004FF005038DF805308DF80640EB68142239
:1052200001994A4898472B69514648489847EB6886
:1052300014220199494898472B6951464748984795
:105240008DF804A04FF0060B8DF805B08DF80640E0
:10525000EB68444E14220199304698472B69514619
:10526000304698478DF804A04FF007098DF8059057
:105270008DF80640EB683C4E642201993046984711
:105280002B69514630469847EB68384E64220199A5
:10529000304698472B69514630469847344E354B37
:1052A000354A08213046AF69B847344B344A0921A2
:1052B0003046AF69B847334B334A05213046AF69B2
:1052C000B847324B324A59463046AF69B847DFF8E3
:1052D000E880304B424649463046AE69B0472E4ED4
:1052E0002E4B2F4A51463046AF69B8472B4F07F136
:1052F00010032C4A21463046AC69A047AC6907F13F
:105300001C03294A02213046A047AC6907F1240357
:10531000194A08213046A047AC6907F14003184AF2
:1053200009213046A047AC6907F15C03164A052104
:105330003046A047AC6907F17803154A5946304614
:105340003CE000BFF8250320C0250320882503206A
:1053500094200320B0200320782003205C20032029
:1053600088060320A42503206C2503204020032069
:10537000281E0320E41E03206D4F0008001F032099
:10538000994F00081C1F0320C54F0008381F032039
:10539000F14F0008541F0320B01F0320C01E03203C
:1053A0002D4F0008374F0008414F0008DC2503202F
:1053B00014260320CC2003201D500008A047AC6910
:1053C00007F19403424649463046A047504644E61A
:1053D0002DE9F04120B30E461546074621B32AB306
:1053E0000478F4B1036A1BB3806918B3124B93F8C5
:1053F0000180B8F1000F01D0002412E0002112F06A
:10540000E6F90E4BDB692A463146386A984704466E
:1054100038B10521B86912F0DAF910B1444600E05C
:1054200000242046BDE8F0810024FAE70024F8E7D4
:105430000024F6E70024F4E7741F03200C0D03207A
:1054400070B5134B1C7A44B106460D465C7824B106
:105450009869C0B1CEB111B90024204670BD0021B9
:1054600012F0B5F90B4B9B6829463046984708B1B6
:105470000024F2E70521064B986912F0A8F90028EC
:10548000EBD00024E9E70024E7E70024E5E700BFCC
:10549000741F03209011032090B108B559B1094A37
:1054A0001278012A09D0022A05D10A460146054B85
:1054B0005868FFF78DFF002008BDFFF7C1FFFAE72E
:1054C0000020704744000320D8B108B50B460146C0
:1054D0000078022800D008BD48680028FBD0002BC7
:1054E000F9D0002AF7D04978012905D00229F2D154
:1054F0001946FFF76DFFEEE711461846FFF7A0FFCC
:10550000E9E7704750B330B583B00446144B1B68CD
:105510000C30984718B10023237203B030BD01212D
:105520002172002300930193684612F024F9A061D0
:1055300088B10B4D2B690B489847EB680A48984790
:105540006B690A48984704F108032361012222731A
:10555000074A1360E1E700232372DEE7704700BFCC
:1055600090110320095800084D560008D54D000839
:10557000B02A032000285FD0F0B583B00446012391
:1055800083702E4B8363002538E0A36B012199556E
:10559000A26B3244002353609360D360A26B324409
:1055A00013615361A26B324402201071A26B32442A
:1055B0005571A26B3244101D126A906400930193DE
:1055C000A76B3744684612F0D6F8B861A26B9319FE
:1055D0009969002928D01A4F3A6A1A49186A9047DF
:1055E0007A6AA36B33441849186A9047A36B334413
:1055F0009B60A36B01229A550135EDB2A378AB42B3
:1056000018D90F4B1968A36B05EBC502960003EB85
:105610008203186A88470028B7D1A36B00229A55E5
:10562000A378013BA370E7E700239355A378013BE0
:10563000A370E1E703B0F0BD704700BFE0000320B6
:105640000C0D03204D56000809580008F0B585B030
:105650000023624C23608DF8033091B10646154655
:105660000C4672B168B15E4B5B690DF1030098475F
:105670005C4B5B689847B0603378012B03D0022BFA
:1056800012D005B0F0BD554B574A1A609DF8033053
:10569000EBB1564B1B780BB1554F19E0294620460C
:1056A000FFF7CEFE524F13E04C4B524A1A609DF862
:1056B0000330002B5CD04D4B1B780BB14E4F07E0F5
:1056C0002A4621467068FFF783FE4B4F00E0484FA3
:1056D000BB88E918FA8891424CDC38682A46214692
:1056E00018441CF047FEBB882B449BB2BB803F4A4A
:1056F0001278002A46D1414A94683A6837490968C5
:1057000001A8A0479DF80430002BBAD09DF80330C3
:105710001BB99DF80530022B4CD09DF80530012BAC
:10572000AFD1374B5B6813B172689342A9D1344B48
:105730009A689388B9880B44D2889342A1DC284B9D
:105740009B680120984732782D4B1A7072685A6016
:105750009C682068A388BDF80C20029918441CF0AE
:1057600009FEBB88A2881344A3800023BB8088E77E
:10577000214FADE71A46002138681CF023FE0023B4
:10578000BB807EE7194A516872689142B3D11D4BC4
:105790009C68144B5B689847BA883968A047002812
:1057A0003FF46FAFFA88002138681CF00BFE00232D
:1057B000BB8066E7BA88BDF80C40A24209D9121B2B
:1057C0000299214438681CF0E3FDBB881B1BBB8099
:1057D000A3E7002138681CF0F5FDF6E7701F0320F1
:1057E000A406032008070320281E0320342F0320CB
:1057F00004010320B01F03200C01032088060320AE
:10580000440003207807032018B310B5446824B17E
:105810000378012B02D0022B13D010BD2378002B6C
:10582000FBD020690028F8D014340028F5D0002CD3
:10583000F3D011F0FBFF0028EFD023680133236081
:10584000EBE72378002BE8D0A0690028E5D01C34D2
:10585000EBE7704700B583B0124B5B6898470023B5
:105860008DF80730104A5370104BDB6923B1104A92
:10587000116898470C4B58700E4B9B690DF107004F
:105880009847094B5B789DF80720934202D103B0FB
:105890005DF804FB084A13700849094810F0BEFA85
:1058A000F5E700BF08070320741F032090110320B1
:1058B000BC1E0320A4060320E00002207C0C032071
:1058C000A40C0320F0B583B012F03EFD10B30646E1
:1058D000114B9B681A68EAB19F88DFB10F4B5B6D73
:1058E0000DF1070098479DF807309BB100240FE0A9
:1058F000094DAB681B68195D304613F0D5FCAB68E9
:105900001A68002111559A88013A9A800134A4B28C
:10591000A742EDD803B0F0BD44000320A406032045
:1059200070B50446234B5B689847054612F00CFDA2
:105930000646214B5B682846984703280ED0082866
:1059400002D001281ED070BD44B13EB11B49304683
:1059500012F0C0FE1A49304612F0BCFE24B11EB14E
:105960001849304612F0B6FE174B00241C705C60DC
:10597000104D6B6B9847154BDB6820469847AB6B17
:105980009847E0E77CB176B10A4CA3680A209847B3
:105990000F49304612F09EFE0E49304612F09AFE34
:1059A000A36814209847084B00221A70014B9B6C87
:1059B0009847C8E7080703207807032088A9040848
:1059C000307B0408547B0408342F0320A4060320F2
:1059D000687B0408887B040838B512F0B5FC98B1E0
:1059E00004460A4912F076FE094D6B6B9847094B45
:1059F0009B6800209847AB6B98470749204612F0F8
:105A000069FE064B00225A6038BD00BFEC960408C0
:105A100008070320A4060320A87B040844000320F1
:105A200070B50546254B05221A60254C3C22002105
:105A300020461CF0C7FC90263246002121481CF06D
:105A4000C1FC3246002120481CF0BCFCB0220021E1
:105A50001E481CF0B7FC2046FFF754FD2046FFF718
:105A600089FD00210220FFF79DF9194B18600123E1
:105A70002370FFF7E9FA174B18706B1E042B01D83F
:105A80000E4B1D60144BDB68DA881968134812F05E
:105A900051FC134C2722002120461CF093FC114A94
:105AA00000231370C4F80D2001226274A3740E4BFE
:105AB0009B68322098470123237370BDBC1E0320CE
:105AC000741F0320281E0320B01F0320C01E0320C4
:105AD00068250320B81E03204400032099540008C1
