:020000040800F2
:100000000000022089190308F9970208FB970208EB
:10001000FD970208FF9702080198020800000000FF
:10002000000000000000000000000000039802082B
:100030000F980208000000001198020819980208A1
:10004000D9190308D9190308D9190308D9190308BC
:10005000D9190308D91903087D980208879802085E
:10006000919802089B980208A5980208D9190308DC
:10007000D9190308D9190308D9190308D91903088C
:10008000D9190308D9190308D9190308D91903087C
:10009000D9190308D9190308D9190308AF98020818
:1000A000D9190308D9190308D9190308D91903085C
:1000B000D9190308D9190308D9190308D91903084C
:1000C000D9190308D9190308D9190308D91903083C
:1000D000D9190308D9190308D9190308D91903082C
:1000E000D5980208D919030800000000D91903089F
:1000F000D9190308D9190308D9190308D91903080C
:10010000D919030809990208D9190308D91903084C
:10011000D9190308D9190308D9190308D9190308EB
:10012000D9190308D9190308D9190308D9190308DB
:10013000D9190308D9190308D9190308D9190308CB
:1001400000000000000000000000000000000000AF
:10015000D9190308D919030829990208D9190308DC
:10016000D9190308D9190308D9190308D91903089B
:10017000D9190308D9190308D91903080000000088
:10018000D9190308D9190308D9190308D91903087B
:10019000D9190308D9190308D9190308D91903086B
:1001A000D9190308D9190308D9190308D91903085B
:1001B000D9190308D9190308D9190308D91903084B
:1001C000D9190308D9190308D9190308D91903083B
:1001D000D91903086D980208D9190308D919030819
:1001E000D9190308D9190308D9190308D91903081B
:1001F000D9190308D9190308D9190308D91903080B
:10020000D9190308D9190308D9190308D9190308FA
:10021000D9190308D9190308D9190308D9190308EA
:10022000D9190308D9190308199902080000000018
:10023000D9190308D919030800000000D9190308C7
:10024000D9190308D9190308D9190308D9190308BA
:10025000D9190308D9190308D9190308D9190308AA
:10026000D9190308D9190308D9190308D91903089A
:10027000D9190308D9190308D91903080000000087
:10028000D9190308D9190308D91903080000000077
:0802900000000000D919030869
:100298000000000000000000000000000000000056
:1002A8000000000000000000000000000000000046
:1002B8000000000000000000000000000000000036
:1002C8000000000000000000000000000000000026
:020000040802F0
:1007600010B5054C237833B9044B13B10448AFF3EB
:1007700000800123237010BDA02E00200000000087
:10078000482F030808B5034B1BB103490348AFF3D7
:10079000008008BD00000000A42E0020482F0308A0
:1007A00010F8012B11F8013B012A28BF9A42F7D01B
:1007B000D01A7047034613F8012B002AFBD1181AF0
:1007C0000138704700000000000000000000000039
:1007D00001F0FF01102A2BDB10F0070F08D010F8F2
:1007E000013B013A8B422DD010F0070F42B3F6D1F6
:1007F000F0B441EA012141EA014122F007047FF00F
:1008000000070023F0E80256083C85EA010586EA65
:10081000010685FA47F5A3FA87F586FA47F6A5FAA1
:1008200087F68EB9EED1F0BC01F0FF0102F00702AD
:1008300032B110F8013B013A83EA010313B1F8D158
:100840000020704701387047002D06BF3546033839
:10085000073815F0010F07D1013015F4807F02BF72
:10086000013015F4C03F0130F0BC0138704700BFC3
:1008700080F0004002E000BF81F0004142001FBF55
:100880005FEA410392EA030F7FEA226C7FEA236C5E
:100890006AD04FEA1262D2EB1363C1BFD218414053
:1008A00048404140B8BF5B42192B88BF704710F0E9
:1008B000004F40F4000020F07F4018BF404211F08C
:1008C000004F41F4000121F07F4118BF494292EAF4
:1008D000030F3FD0A2F1010241FA03FC10EB0C0020
:1008E000C3F1200301FA03F100F0004302D54942AD
:1008F00060EB4000B0F5000F13D3B0F1807F06D35A
:1009000040084FEA310102F10102FE2A51D2B1F151
:10091000004F40EBC25008BF20F0010040EA030046
:100920007047490040EB0000013A28BFB0F5000FC6
:10093000EDD2B0FA80FCACF1080CB2EB0C0200FA7C
:100940000CF0AABF00EBC25052421843BCBFD040CB
:100950001843704792F0000F81F4000106BF80F445
:1009600000000132013BB5E74FEA41037FEA226C08
:1009700018BF7FEA236C21D092EA030F04D092F0D3
:10098000000F08BF0846704790EA010F1CBF002007
:10099000704712F07F4F04D1400028BF40F0004064
:1009A000704712F100723CBF00F50000704700F084
:1009B000004343F0FE4040F4000070477FEA2262AB
:1009C00016BF08467FEA23630146420206BF5FEA7C
:1009D000412390EA010F40F4800070474FF000037C
:1009E00004E000BF10F0004348BF40425FEA000C43
:1009F00008BF704743F0964301464FF000001CE0EB
:100A000050EA010208BF70474FF000030AE000BF40
:100A100050EA010208BF704711F0004302D540427E
:100A200061EB41015FEA010C02BF844601460020F0
:100A300043F0B64308BFA3F18053A3F50003BCFA0B
:100A40008CF2083AA3EBC25310DB01FA02FC6344B8
:100A500000FA02FCC2F12002BCF1004F20FA02F2BF
:100A600043EB020008BF20F00100704702F12002B2
:100A700001FA02FCC2F1200250EA4C0021FA02F213
:100A800043EB020008BF20EADC70704753B94AB953
:100A9000002908BF00281CBF4FF0FF314FF0FF3086
:100AA00000F074B9ADF1080C6DE904CE00F006F861
:100AB000DDF804E0DDE9022304B070472DE9F047DA
:100AC000089D04468E46002B4DD18A42944669D932
:100AD000B2FA82F252B101FA02F3C2F1200120FA15
:100AE00001F10CFA02FC41EA030E94404FEA1C4863
:100AF000210CBEFBF8F61FFA8CF708FB16E341EA5F
:100B0000034306FB07F199420AD91CEB030306F1E4
:100B1000FF3080F01F81994240F21C81023E634405
:100B20005B1AA4B2B3FBF8F008FB103344EA0344A9
:100B300000FB07F7A7420AD91CEB040400F1FF33BE
:100B400080F00A81A74240F207816444023840EAFB
:100B50000640E41B00261DB1D4400023C5E9004334
:100B60003146BDE8F0878B4209D9002D00F0EF80B7
:100B70000026C5E9000130463146BDE8F087B3FAEA
:100B800083F6002E4AD18B4202D3824200F2F980D2
:100B9000841A61EB030301209E46002DE0D0C5E9D5
:100BA000004EDDE702B9FFDEB2FA82F2002A40F021
:100BB0009280A1EB0C014FEA1C471FFA8CFE012624
:100BC000200CB1FBF7F307FB131140EA01410EFBC8
:100BD00003F0884208D91CEB010103F1FF3802D26F
:100BE000884200F2CB804346091AA4B2B1FBF7F069
:100BF00007FB101144EA01440EFB00FEA64508D98C
:100C00001CEB040400F1FF3102D2A64500F2BB80C8
:100C10000846A4EB0E0440EA03409CE7C6F1200717
:100C2000B34022FA07FC4CEA030C20FA07F401FA5D
:100C300006F31C43F9404FEA1C4900FA06F3B1FBE6
:100C4000F9F8200C1FFA8CFE09FB181140EA01414B
:100C500008FB0EF0884202FA06F20BD91CEB0101E8
:100C600008F1FF3A80F08880884240F28580A8F140
:100C700002086144091AA4B2B1FBF9F009FB101192
:100C800044EA014100FB0EFE8E4508D91CEB010130
:100C900000F1FF346CD28E456AD90238614440EAD3
:100CA0000840A0FB0294A1EB0E01A142C846A64653
:100CB00056D353D05DB1B3EB080261EB0E0101FADC
:100CC00007F722FA06F3F1401F43C5E90071002639
:100CD0003146BDE8F087C2F12003D8400CFA02FC8F
:100CE00021FA03F3914001434FEA1C471FFA8CFE9F
:100CF000B3FBF7F007FB10360B0C43EA064300FB8F
:100D00000EF69E4204FA02F408D91CEB030300F12C
:100D1000FF382FD29E422DD9023863449B1B89B2E3
:100D2000B3FBF7F607FB163341EA034106FB0EF36C
:100D30008B4208D91CEB010106F1FF3816D28B4219
:100D400014D9023E6144C91A46EA004638E72E46E5
:100D5000284605E70646E3E61846F8E64B45A9D2DD
:100D6000B9EB020864EB0C0E0138A3E74646EAE74C
:100D7000204694E74046D1E7D0467BE7023B6144FA
:100D800032E7304609E76444023842E7704700BF63
:100D900008B54FF47A6004F08FF800F073F900F0B2
:100DA000D5F904F0CFF808BD00B583B002AB03E974
:100DB0000300064B5B6833B102AA12E903009847AF
:100DC00003B05DF804FB0020FAE700BFC400002078
:100DD00000B583B002AB03E90300064B9B6933B156
:100DE000BDF804109847012003B05DF804FB002013
:100DF000FAE700BFC400002000B1FEE77047000022
:100E000070B582B0214B1B782BB105460C46204BA8
:100E10001B78012B11D91D4B1B78002B2DD01D4B9E
:100E20001C6A1D4B1A7C8DF800200FCBA0470428AC
:100E300027D0174B187802B070BD164B1E6A164BA0
:100E40001A7C8DF800200FCBB047032809D0114B36
:100E50001E6A114B1A7C8DF800200FCBB04700287A
:100E6000D9D10B4E022333700A4B9B692246294687
:100E70000948984701203070DDE70420044B1870C2
:100E8000D9E70320024B1870D5E700BFED2E0020F4
:100E9000DA2E0020BC020020DC2E0020014B0122B3
:100EA0001A707047EE2E002008B507F065FC08B9EF
:100EB000012008BD0020FCE708B5024807F072FCDD
:100EC00008BD00BFA030030870B5194C1E220021D8
:100ED000204610F0C5FD174E2F252A46002130462A
:100EE00010F0BEFD2660A58007F052FBC8B1124B82
:100EF0009B684FF480521149114898470446A0B1AD
:100F00000125104B1D70104807F064FC0F4806F0D7
:100F100007FC0F4B1B690F49284698470E4B1D7065
:100F200003E004460C4B02221A70204670BD00BF3D
:100F3000BC2E002000000224BC020020B8300308B0
:100F4000DC2E0020ED2E00209D0E0208A90E0208C6
:100F5000F4020020010E020808000020F0B583B062
:100F60002C4B5C682C4B012293E80300A0472B4BD1
:100F70001B78012B08D0274B5C68274B002293E895
:100F80000300A04703B0F0BD254B1B78002BF2D027
:100F9000244B1C6A244B1A7C8DF800200FCBA047F1
:100FA00048B1204B1C6A204B1A7C8DF800200FCBD7
:100FB000A0470428DFD11B4B1C681B4B1A7C8DF803
:100FC00000200FCBA0470028D5D0164B1C68164B2D
:100FD0001A7C8DF800200FCBA04703F0A5FB064636
:100FE0000028C8D00F4F3D680F4C237C8DF800308F
:100FF00094E80F00A8470546FB69024631462046A3
:10100000984729463046FFF74FFF304603F0ECFB88
:10101000B1E700BF000000204C00002008000020C5
:10102000EE2E0020BC020020DC2E002038B504F09B
:1010300025FB05460C4664220023FFF727FD1343DA
:101040000ED10C4B1A685B68A34208BFAA4207D0B6
:10105000094A137883F001031370064B1D605C602E
:10106000064B5C68064B044A127893E80300A047DD
:1010700038BD00BFF02E0020082F002058010020AE
:101080008000002010B5234C2268234B93E8030016
:1010900090472268214B93E8030090472268204B39
:1010A00093E8030090471F4C22681F4B93E803000E
:1010B000904722681D4B93E80300904722681C4B21
:1010C00093E80300904722681A4B93E80300904787
:1010D0002268194B93E8030090472268174B93E866
:1010E000030090472268164B93E80300904722685C
:1010F000144B93E8030090472268134B93E80300D6
:10110000904703F00FFAFFF7DFFE00F06DF800F0F4
:10111000FFF910BD58010020800000208800002049
:101120009000002000000020340000203C0000203F
:10113000440000204C000020140000201C0000206F
:10114000240000202C0000200C00002010B582B0EC
:101150004FF480640194184B009300231A464FF417
:10116000FA61164803F040FF154B18600194154BC7
:101170000093002301221421134803F035FF134B81
:1011800018600194124B009300230222C8211148D9
:1011900003F02AFF104B18604FF4807301930F4B3C
:1011A0000093022300224FF47A710D4803F01CFFD4
:1011B0000C4B186002B010BD39120208DC30030875
:1011C000F82E00205D0F0208EC300308002F0020ED
:1011D00079160208F4300308FC2E00202D100208B6
:1011E00000310308042F002070B50F4C1E2200218F
:1011F000204610F035FC0D4E2F252A4600213046A2
:1012000010F02EFC2A46002106F1300010F028FCD8
:101210002660A580064B1B689847012800D070BD4A
:10122000044B01221A70FAE70C2F00203000022430
:10123000D40100202A2F002070B58CB03E4B5C6892
:101240003E4B012293E80300A0473D4B1C78002C45
:1012500066D13C4B5B689847002861D0394B9B684E
:10126000012168469847EC46374D08AEAE46DCF89B
:101270000000DCF80410DCF80820DCF80C30AEE8E4
:101280000F000CF1100C7546B445EFD1DCF80000EE
:10129000DCF80410DCF8082007C5BCF80C209CF82A
:1012A0000E302A80AB70274B9B6802216846984716
:1012B000EC46264D08AEAE46DCF80000DCF8041023
:1012C000DCF80820DCF80C30AEE80F000CF1100C54
:1012D0007546B445EFD1DCF80000DCF80410DCF80A
:1012E000082007C5BCF80C209CF80E302A80AB7093
:1012F00010E0154B1A5DB3F82D100A44A3F82D2009
:101300001A1992F83020B3F85D100A44A3F85D2052
:101310000134E4B22C2CECD90D490E4803F050F9FD
:10132000084BDB689847044B5C68044B002293E849
:101330000300A0470CB070BD000000202400002076
:101340002A2F0020D4010020300002246000022453
:101350001C3000200C2F002084B070B582B007AC88
:1013600084E80E000F9E002836D004461D4B1D68F1
:10137000037C8DF8003000686168A268E368A847C4
:1013800050B3DDF836303BB3337843F001033370AC
:10139000144B1D68237C8DF8003020686168A268BA
:1013A000E368A8470546B0F5007F01D840B101E0E9
:1013B0004FF400750B4BDB692A460B4920469847D2
:1013C00033786FF30003337035B1084B1C692B463B
:1013D000054A07490748A04702B0BDE8704004B07D
:1013E000704700BFBC020020B03000209C040020E9
:1013F0003C3000202C2F0020154B1B783BB3154BA5
:101400001B7813F0010F22D0134BD3F82230B3F521
:10141000800F05D3114B1A786FF300021A707047D2
:1014200010B586B00E4C0F4B0593EC4604F10C0E34
:10143000BEE80F00ACE80F00DEF80030ACF800307A
:1014400094E80E000848FFF787FF06B010BD70470C
:1014500075300020AC3000203C300020A43000204B
:101460001C300020A83000200830002050B11F4B55
:101470001B783BB11E4B1B7813F0010F02D01D4BA4
:10148000984200D070471C4B1B7813F0010FF9D025
:1014900030B583B0194B1C6A194B1A7C8DF80020AB
:1014A0000FCBA04748B1154B1C6A154B1A7C8DF821
:1014B00000200FCBA04703280CD1104DAB69104C76
:1014C0000322104920469847AD690A4B9A8819684B
:1014D0002046A8470C4B1B7813F0010F04D1074B93
:1014E0005B6A0A490648984703B030BD7530002052
:1014F000AC3000201C300020A4300020BC020020B2
:10150000F42F002038310308A830002008300020D4
:1015100030B593B0424C1E220021204610F0A0FAB4
:10152000392200213F4810F09BFA3F4DC82200218C
:10153000284610F095FA3D4820602F23A3803C4BAD
:10154000C4F8063080B203F0EFF8C4F81A000023A4
:10155000384A1380384A1380384B1B68384928466C
:10156000984700284ED0354D6B682F4C02223549E4
:10157000204698470346344A1060AD68334A2146F6
:101580006846A847EC46274C0CADA646DCF80000A0
:10159000DCF80410DCF80820DCF80C30AEE80F00B2
:1015A0000CF1100C7446AC45EFD1DCF80000DCF80F
:1015B000041003C49CF808302370204BDC68194BDE
:1015C000224A20491848A047214B9B684FF42052DB
:1015D000204921489847A8B11D4BDC684FF420539F
:1015E0001E4A1F491F48A04760B11F4B01221A70B5
:1015F0001E4A137843F0010313700E4A137843F028
:101600000103137000231093ADF84430184B12AA55
:1016100012E90600174803F0BFFC13B030BD00BF4D
:101620001C3000203C3000202C2F00209000022491
:101630006D140208AC300020A83000209C0400206B
:10164000010E020808310308783000201031030829
:10165000BC02002018310308F42F00209C06002053
:10166000283103080830002075300020A430002005
:10167000F91302087C30002010B503F0FFFF154B72
:101680001860154B1B78A3B1144B1B78092B11D88C
:101690000133124A1370124B1B7813F0010F08D15B
:1016A00000220E4B1A700F4B5C680F4B93E803003F
:1016B000A04710BD094B00221A700C4B1A7882F01B
:1016C00001021A70074B5C68074B93E80300A047C0
:1016D000E1E700BFB432002075300020B0320020B6
:1016E000A43000205801002088000020B1320020E2
:1016F00007EE900AF8EE677A17EE900AC0F3C7502B
:101700007F38C0B2704700008CB0654B98422FD034
:10171000644B98423CD0644B984248D0634B98420B
:1017200054D0634B984260D0624B98426CD0624B6D
:10173000984278D0614B984200F08480604B984288
:1017400000F08F805F4B984200F09A805E4B984289
:101750001CD103F5E053D3F8E02042F48062C3F8D3
:10176000E020D3F8E03003F480630B930B9B0DE093
:1017700003F58843D3F8E02042F00102C3F8E020EB
:10178000D3F8E03003F001030193019B0CB07047E4
:1017900003F58043D3F8E02042F00202C3F8E020D2
:1017A000D3F8E03003F002030293029BEEE703F567
:1017B0007053D3F8E02042F00402C3F8E020D3F8DD
:1017C000E03003F004030393039BDFE703F560536A
:1017D000D3F8E02042F00802C3F8E020D3F8E0306C
:1017E00003F008030493049BD0E703F55053D3F8A8
:1017F000E02042F01002C3F8E020D3F8E03003F01C
:1018000010030593059BC1E703F54053D3F8E0208F
:1018100042F02002C3F8E020D3F8E03003F02003C8
:101820000693069BB2E703F53053D3F8E02042F06D
:101830004002C3F8E020D3F8E03003F04003079300
:10184000079BA3E703F52053D3F8E02042F0800282
:10185000C3F8E020D3F8E03003F080030893089B3E
:1018600094E703F51053D3F8E02042F48072C3F8F4
:10187000E020D3F8E03003F480730993099B85E7F7
:1018800003F50053D3F8E02042F40072C3F8E020DF
:10189000D3F8E03003F400730A930A9B76E700BFA5
:1018A000000002580004025800080258000C0258B8
:1018B000001002580014025800180258001C025868
:1018C00000200258002402580028025810B582B0A7
:1018D00002AB03E903001446BDF80400FFF708FF5C
:1018E000024B43F8204002B010BD00BFB8320020C8
:1018F00008B50AF0EEFD08BD10B588B06B4683E868
:1019000003000446FFF700FFBDF8043003930023F3
:10191000049302230593069303A920460AF01AFCB8
:10192000012008B010BD30B589B06B4683E80300D4
:10193000B0B10546FFF7E8FEBDF80410039101249D
:1019400004940594002306939DF8062028460AF087
:10195000C0FD03A928460AF0FDFB204609B030BDB2
:101960000020FBE700B583B002AB03E90300BDF83C
:101970000430202B17D81AB2002A45D0013B1F2B68
:1019800042D8DFE803F0454741394141413B4141FD
:1019900041414141413D414141414141414141413B
:1019A00041414141413FB3F5806F35D00BD9B3F58B
:1019B000005F37D018D9B3F5804F37D0B3F5004F5B
:1019C00022D128200DE0B3F5807F27D004D9B3F5CC
:1019D000007F19D1172004E0402B21D0802B13D198
:1019E000172003B05DF804FBB3F5006F1CD0B3F50E
:1019F000805F09D12820F4E70820F2E70920F0E70A
:101A00000A20EEE71720ECE70120FFF7F5F9E8E7F9
:101A10000620E6E70720E4E72820E2E71720E0E7D2
:101A20001720DEE72820DCE72820DAE72820D8E79F
:101A3000F0B589B06B4683E80300A8B314460546A9
:101A40006B4693E80300FFF78DFF08F0BFF9022C07
:101A50002FD0032C30D0012C28D04FF4041428466A
:101A6000FFF752FEBDF80410039104940027059778
:101A7000032606969DF8062028460AF02AFD03A9AB
:101A800028460AF067FB6C4694E80300FFF76AFFFC
:101A90003A46314608F056F994E80300FFF762FF32
:101AA00008F086F909B0F0BD0020FBE74FF4881478
:101AB000D5E74FF40414D2E74FF44414CFE7000005
:101AC000F0B589B06B4683E8030078B31546044649
:101AD000FFF71AFEBDF8046003964FF40413049355
:101AE00000270597032306939DF8062031462046DC
:101AF0000AF0EFFC03A920460AF02CFB3046FFF762
:101B0000F7FD0B4B43F820506C4694E80300FFF7B9
:101B100029FF3A46042108F015F994E80300FFF77D
:101B200021FF08F045F9012009B0F0BD0020FBE7D6
:101B3000B832002000B583B002AB03E90300BDF862
:101B400004100AF0BFFC003818BF012003B05DF894
:101B500004FB000008B5FFF7CBFD034B53F8203022
:101B600003B1984708BD00BFB83200208AB05B4B74
:101B700098422AD05A4B984237D05A4B984243D079
:101B8000594B98424FD0594B98425BD0584B984292
:101B900067D0584B984273D0574B98427FD0574BE1
:101BA000984200F08B80564B98421CD103F5E053CD
:101BB000D3F8E02042F48062C3F8E020D3F8E030AC
:101BC00003F480630993099B0DE003F58843D3F880
:101BD000E02042F00102C3F8E020D3F8E03003F047
:101BE00001030093009B0AB0704703F58043D3F8CC
:101BF000E02042F00202C3F8E020D3F8E03003F026
:101C000002030193019BEEE703F57053D3F8E02044
:101C100042F00402C3F8E020D3F8E03003F00403FC
:101C20000293029BDFE703F56053D3F8E02042F014
:101C30000802C3F8E020D3F8E03003F00803039370
:101C4000039BD0E703F55053D3F8E02042F0100295
:101C5000C3F8E020D3F8E03003F010030493049BB2
:101C6000C1E703F54053D3F8E02042F02002C3F867
:101C7000E020D3F8E03003F020030593059BB2E7A2
:101C800003F53053D3F8E02042F04002C3F8E020DF
:101C9000D3F8E03003F040030693069BA3E703F577
:101CA0002053D3F8E02042F08002C3F8E020D3F8BC
:101CB000E03003F080030793079B94E703F500539C
:101CC000D3F8E02042F40072C3F8E020D3F8E0300B
:101CD00003F400730893089B85E700BF00000258D7
:101CE0000004025800080258000C02580010025864
:101CF0000014025800180258001C02580024025810
:101D00000028025810B1C1610120704700207047BF
:101D100010B582B0BDF8104000940CF069FA10B113
:101D2000002002B010BD0120FBE708B50CF070FCEC
:101D300008B1002008BD0120FCE708B50CF0F6F85A
:101D400008B1002008BD0120FCE7000084B008B500
:101D50000DF1080C8CE80F00099B2A4A934210D021
:101D6000294A934225D0294A93422AD0284A9342AD
:101D70002FD0284A934234D0274A934239D00020AA
:101D800013E0264AD2F8F03023F48053C2F8F03042
:101D9000059902980AF0EEFA069903980AF0EAFA11
:101DA000079904980AF0E6FA0120BDE8084004B05B
:101DB00070471A4AD2F8E83023F48043C2F8E8307A
:101DC000E6E7164AD2F8E83023F40043C2F8E830D8
:101DD000DEE7124AD2F8F03023F40053C2F8F030B4
:101DE000D6E70E4AD2F8F03023F48013C2F8F03070
:101DF000CEE702F50C32D2F8F43023F02003C2F81B
:101E0000F430C5E70030014000380040003C00409D
:101E100000340140005001400014005800440258B2
:101E200084B030B587B00AAC84E80F00002301937A
:101E3000022202920393049305930546FFF796FE50
:101E40000D9B0193109C059401A928460AF082F984
:101E50000B9D2846FFF78AFE0E9B0193059401A96E
:101E600028460AF077F90C9D2846FFF77FFE0F9B66
:101E70000193059401A928460AF06CF9012007B0E6
:101E8000BDE8304004B0704784B010B5ACB02EACA3
:101E900084E80F00359C534B9C4211D0524B9C421E
:101EA00056D0524B9C4261D0514B9C426CD0514B0E
:101EB0009C4277D0504B9C4200F08280002042E050
:101EC0004E4BD3F8F02042F48052C3F8F020D3F800
:101ED000F03003F480530493049B32AB93E8070083
:101EE0008DE807002EAB0FCBFFF79AFF0A944FF453
:101EF00080030B9300230C9307220D92369A0E92C7
:101F0000379A0F924FF080621092389A1192129382
:101F100013931493159316931793189319931A9375
:101F20001B931C931D931E934FF000421F9220930E
:101F30000AA80BF047FF002851D188220AA9399836
:101F40000FF080FD01202CB0BDE8104004B07047B8
:101F50002A4BD3F8E82042F48042C3F8E820D3F8B3
:101F6000E83003F480430593059BB6E7234BD3F891
:101F7000E82042F40042C3F8E820D3F8E83003F444
:101F800000430693069BA8E71C4BD3F8F02042F4CD
:101F90000052C3F8F020D3F8F03003F40053079355
:101FA000079B9AE7154BD3F8F02042F48012C3F850
:101FB000F020D3F8F03003F480130893089B8CE7EB
:101FC00003F50C33D3F8F42042F02002C3F8F420D8
:101FD000D3F8F43003F020030993099B7DE7002038
:101FE000B1E700BF0030014000380040003C004035
:101FF00000340140005001400014005800440258D1
:102000008AB05B4B98422AD05A4B984237D05A4BF1
:10201000984243D0594B98424FD0594B98425BD08D
:10202000584B984267D0584B984273D0574B9842C0
:102030007FD0574B984200F08B80564B98421CD172
:1020400003F5E053D3F8E02042F48062C3F8E020C7
:10205000D3F8E03003F480630993099B0DE003F5A6
:102060008843D3F8E02042F00102C3F8E020D3F81F
:10207000E03003F001030093009B0AB0704703F5C2
:102080008043D3F8E02042F00202C3F8E020D3F806
:10209000E03003F002030193019BEEE703F5705378
:1020A000D3F8E02042F00402C3F8E020D3F8E03097
:1020B00003F004030293029BDFE703F56053D3F8B8
:1020C000E02042F00802C3F8E020D3F8E03003F04B
:1020D00008030393039BD0E703F55053D3F8E020A4
:1020E00042F01002C3F8E020D3F8E03003F0100310
:1020F0000493049BC1E703F54053D3F8E02042F07A
:102100002002C3F8E020D3F8E03003F02003059369
:10211000059BB2E703F53053D3F8E02042F04002CC
:10212000C3F8E020D3F8E03003F040030693069BA9
:10213000A3E703F52053D3F8E02042F08002C3F870
:10214000E020D3F8E03003F080030793079B94E787
:1021500003F50053D3F8E02042F40072C3F8E02006
:10216000D3F8E03003F400730893089B85E700BFC1
:10217000000002580004025800080258000C0258DF
:10218000001002580014025800180258001C02588F
:102190000024025800280258002808BF002901D155
:1021A0000020704738B5044600F1F40524220021D0
:1021B00028460FF055FC2946201D0DF05FFF012039
:1021C00038BD40B108B504300EF016F8042814BF2D
:1021D0000020012008BD0020704708B504300DF034
:1021E000E3FB08B9012008BD0020FCE7F8B505466F
:1021F0000C4616461F4603F047F904353B46324667
:10220000214628460DF060FB044603F049F974B1FD
:1022100000240D4B1C702046F8BD134600221A7096
:1022200028460DF03DFC0128F5D00024F3E74FF0DF
:10223000FF33002BECD0044A1478002CEDD1BFF30F
:102240004F8F013BF5E700BFF9320020F8B5054696
:102250000C4616461F4603F017F904353B46324636
:10226000214628460DF0C0FA044603F019F974B16E
:1022700000240D4B1C702046F8BD134600221A7036
:1022800028460DF00DFC0128F5D00024F3E74FF0AF
:10229000FF33002BECD0044A1478002CEDD1BFF3AF
:1022A0004F8F013BF5E700BFF832002010B5B0B00A
:1022B0000446BC22002101A80FF0D2FBDCB1104B78
:1022C0009C4202D0012030B010BD4FF48033019306
:1022D00001A808F04DFC80B90A4BD3F8D42042F491
:1022E0008032C3F8D420D3F8D43003F48033009381
:1022F000009B0120E7E70020E5E70020E3E700BFBF
:10230000007000520044025810B586B000230193BB
:1023100002930393049305930223029303230493EC
:10232000002940D00C46214B984202D0002006B034
:1023300010BD0B6B05930869FFF762FEA36A01935A
:1023400001A9206909F006FF6069FFF759FEE36AF9
:10235000019301A9606909F0FDFE2068FFF750FEB6
:10236000A369019301A9206809F0F4FE6068FFF7F2
:1023700047FEE369019301A9606809F0EBFEA068DC
:10238000FFF73EFE236A019301A9A06809F0E2FE6F
:10239000E068FFF735FE636A019301A9E06809F080
:1023A000D9FE0120C3E70020C1E700BF0070005242
:1023B000002836D000B583B01B4AD2F8D41041F0C3
:1023C0000101C2F8D410D2F8D42002F00102019227
:1023D000019A164A02604FF0805282600022C26069
:1023E00002610221416108218161C26102624FF0F4
:1023F0000071416201218162C262026342638263B1
:102400000BF00EFB18B1002003B05DF804FB0022B6
:102410000A217A2007F096FC7A2007F0C9FC0120F7
:10242000F2E70020704700BF00440258400000520D
:1024300070B50446D0F8F000FFF738FF2168D4F8F3
:10244000F000FFF761FF002C3FD0D4F8F030204AB5
:1024500093422AD01F4A934202D00025284670BDDD
:102460007C266360002323726372A372E37223737A
:102470006373A373E37323746374A374E3742375A6
:1024800063750222A275E37522766376A376E376FE
:10249000012222776377A377E37704F18400FFF7C3
:1024A00087FF054618B90025D8E73126D9E7201D52
:1024B0000DF0B3FE0028F6D100220421304607F0CB
:1024C00041FC304607F074FCC8E70025C6E700BFB2
:1024D00000700052002402480268054B9A4200D066
:1024E0007047044B01221A70BFF34F8FF8E700BF0B
:1024F00000700052F93200200268054B9A4200D069
:102500007047044B01221A70BFF34F8FF8E700BFEA
:1025100000700052F832002000B583B001900268CC
:10252000064B9A4202D003B05DF804FB836B13F0B4
:10253000100FF8D001A80DF0D1FEF4E700700052A2
:1025400070B582B0154661F07F018DF8071000224A
:102550008DF80620D8B11E4604460268CAB1436809
:10256000CBB100209047636801220DF106010DF107
:102570000700984763689DF8182031462846984719
:102580000546236801209847284602B070BD002503
:10259000FAE70025F8E70025F6E770B582B00023DA
:1025A000ADF80430ADF80030D8B1164604460368E3
:1025B000CBB14368CBB161F07F018DF804100368A3
:1025C0000020984763680222694601A8984705469B
:1025D0002368012098479DF801303370284602B0E7
:1025E00070BD0025FAE70025F8E70025F6E730B5CD
:1025F00083B00023ADF80430ADF80030B8B1044624
:102600000368B3B14368B3B18DF804108DF80520A9
:1026100003680020984763680222694601A898472A
:102620000546236801209847284603B030BD0025A1
:10263000FAE70025F8E70025F6E7000010B590F866
:102640001DE0BEF1070F94BF00240124002C40D1EF
:102650008446012000FA0EF010F08B0F14BF012009
:10266000002029D08CF81D10032A34D8DFE802F0AE
:10267000020C11164FF08D41CCF81410032B2CD8FE
:10268000DFE803F0111B1F234FF08C41CCF814102E
:10269000F4E74FF08B41CCF81410EFE74FF08A418C
:1026A000CCF81410EAE70E49CCF81810D2008CF8D8
:1026B0001020DB008CF8113010BD0A49CCF818103E
:1026C000F4E70949CCF81810F0E70849CCF81810DD
:1026D000ECE70020F0E72046EEE72046ECE700BFFD
:1026E000000003430000834233330342333383410A
:1026F000016042608360009BC360704730B583B067
:1027000000238DF80730044600B34368F3B1036833
:10271000E3B180226B21FFF76AFF0546E8B1A368A9
:102720000F2098470DF1070275212046FFF735FF6E
:102730000546B0B19DF80730682B16D0042384F805
:102740006A30A3680F209847002503E0012384F82E
:102750006A300025284603B030BD032384F86A3070
:10276000F8E7032384F86A30F4E70322682120465F
:10277000FFF73DFF054600285BD0A3680F20984770
:1027800003226B212046FFF732FF0546002854D074
:10279000A3680F20984710226A212046FFF727FFE1
:1027A000054600284DD0A3680F20984700226C21D1
:1027B0002046FFF71CFF0546002846D0A3680F20DF
:1027C0009847627F19212046FFF711FF0546002830
:1027D0003FD0A3680F209847627C1B212046FFF75B
:1027E00006FF0546002838D0A3680F209847227CB2
:1027F0001C212046FFF7FBFE054690B3A3680F207F
:102800009847102237212046FFF7F1FE054660B3B6
:10281000A3680F209847012238212046FFF7E7FEE2
:10282000054630B3A3680F209847002384F86A3028
:1028300090E7052384F86A308CE7052384F86A3032
:1028400088E7062384F86A3084E7072384F86A302F
:1028500080E7082384F86A307CE7092384F86A302B
:1028600078E70A2384F86A3074E70B2384F86A3027
:1028700070E70C2384F86A306CE790F86A007047C0
:10288000012303777047007F70470020704770B5C1
:102890008AB00023069307930893ADF8243002937F
:1028A00003930493ADF8143090F86A50002D61D171
:1028B0000446067F002E5ED0C3689847C4F81E0009
:1028C000C4F822100E23009302AB06AA3B21204637
:1028D000FFF736FE43E069000AAB03EB450313F84C
:1028E000200C4B1C0AAA134413F8202C42EA0022A5
:1028F00012B205F1180304EB4303DA802B1D0AA87A
:1029000000EB430313F8200C09310AAB194411F80A
:10291000203C43EA00231BB205F1140104EB410102
:102920000B8107EE902AF8EEE77AD4ED056A87EE80
:10293000A67A05F1100204EB820282ED037A07EE1B
:10294000903AF8EEE77AD4ED066A87EEA67A05F1BA
:102950000E0304EB830383ED027A0135EDB2022D01
:10296000B9D9E3689847C4F81E00C4F822100023C0
:10297000237700E0002630460AB070BD30B595B030
:1029800004460D464C22002101A80FF069F895F885
:102990006A303BB14C22002120460FF061F82046FE
:1029A00015B030BD4C2205F11E0120460FF04AF84B
:1029B000F5E770B582B00023ADF80430ADF8003013
:1029C000D8B1164604460368CBB14368CBB161F079
:1029D0007F018DF800100368002098476368022289
:1029E00001A96846984705462368012098479DF845
:1029F00005303370284602B070BD0025FAE7002587
:102A0000F8E70025F6E730B583B00023ADF80430D1
:102A1000ADF80030B8B104460368B3B14368B3B150
:102A20008DF800108DF80120036800209847636836
:102A3000022201A968469847054623680120984765
:102A4000284603B030BD0025FAE70025F8E7002549
:102A5000F6E7000000B590F81DE0BEF1070F28D89A
:102A60004FF0010C0CFA0EFC1CF08B0F21D04177BB
:102A7000032B1ED8DFE803F0020B0F134FF08D413C
:102A80004161032A15D8DFE802F00E16191C4FF039
:102A90008C414161F5E74FF08B414161F1E74FF027
:102AA0008A414161EDE708498161DB008374D2000E
:102AB000C2745DF804FB05498161F6E70449816150
:102AC000F3E704498161F0E700000343000083421B
:102AD0003333034233338341016042608360009BA0
:102AE000C360704701230374704710B50446802209
:102AF0006B21FFF788FFA36814209847E368984785
:102B0000012010BD70B582B000238DF80730044657
:102B100050B1436843B1036833B1FFF7E6FF48B9EA
:102B200003232377002502E001232377002528468D
:102B300002B070BD0DF1070275212046FFF739FF85
:102B4000A3680A2098479DF80730122B03D0022370
:102B500023770025EBE701226B212046FFF753FF87
:102B6000A3680A2098470DF107026B212046FFF762
:102B700020FF9DF80760012E03D004232377002552
:102B8000D5E700226C212046FFF73DFFA3680A200D
:102B900098470DF107026C212046FFF70AFF9DF8C8
:102BA00007501DB1052323770025C0E7402270217F
:102BB0002046FFF728FFA3680A2098470DF1070277
:102BC00070212046FFF7F5FE9DF80730402B02D01C
:102BD00006232377ABE7627F19212046FFF713FF17
:102BE000A3680A2098470DF1070219212046FFF734
:102BF000E0FE627F9DF807309A4202D009232377D6
:102C000095E7A27C1C212046FFF7FDFEA3680A2061
:102C100098470DF107021C212046FFF7CAFEA27C4F
:102C20009DF807309A4202D0072323777FE7E27CA2
:102C30001B212046FFF7E7FEA3680A2098470DF105
:102C400007021B212046FFF7B4FEE27C9DF8073007
:102C50009A4202D00823237769E760223721204671
:102C6000FFF7D1FEA3680A2098470DF1070237212C
:102C70002046FFF79EFE9DF80730602B02D0082308
:102C8000237754E7354652E7007C704708B10120AE
:102C9000704700207047007F704730B595B00446FC
:102CA0000D464C22002101A80EF0DAFE2B7F0BB955
:102CB0006B7C3BB14C22002120460EF0D1FE204619
:102CC00015B030BD2B744C2205F11E0120460EF0CC
:102CD000B9FEF4E700B583B002AB03E90300064B8D
:102CE0005B683BB102AA12E903009847012003B0D8
:102CF0005DF804FB0020FAE7C400002000B583B0B3
:102D000002AB03E90300064B9B6933B1BDF8041025
:102D10009847012003B05DF804FB0020FAE700BFEC
:102D2000C4000020002848D010B50446244B1B687E
:102D30009847B8B3224B5B6904F1F40120469847E9
:102D4000A0B3D4F80431C4F82A31D4F80821C4F867
:102D50002E21D4F81421C4F83A21D4F8F420C4F870
:102D60001A21D4F80C21C4F83221D4F81021C4F867
:102D70003621D4F80021C4F82621012284F8192133
:102D8000002084F8460184F8470184F83E0184F865
:102D90003F0184F8400184F84101C4F8423184F8CD
:102DA000180110BD022084F81801FAE7002384F806
:102DB0001931032084F81801F3E70120704700BFA0
:102DC000F800002010B190F81801704701207047FA
:102DD00038B505460C462F2200210EF041FEF4B115
:102DE00004F219132A4604F23914D3F800E0D3F898
:102DF00004C09868D968C2F800E0C2F804C09060C6
:102E0000D16010331032A342EFD11C685868996822
:102E100014605060916099899B7B918193732846DF
:102E200038BD000010B5BDF808308646002A18BF2E
:102E300000280CBF0120002013D08C461146BCF1A5
:102E4000000F18BF002B0CBF012400240AD0DEF8AD
:102E50002A21624507D3054A946862467046A04716
:102E600000E0002010BD2046FCE700BFF800002075
:102E700038B5BDF810408446002A18BF00280CBFA2
:102E80000120002013D0964694B1DCF82A218A4212
:102E90000ED3DCF82E2104FB02F2934208D3054B3B
:102EA0005D6823460A4671466046A84700E0002058
:102EB00038BD00BFF8000020F0B589B02A4B5A6831
:102EC0002A4B93E803009047002841D0264B1C680A
:102ED000274B284A93E80300A04700283BD0264D03
:102EE000264CAC4620686168A268E368ACE80F0035
:102EF00020696169A269ACE80700214E214C224B90
:102F00000093224B224A234920463768B847766807
:102F100003231A4601212046B0471F4B1C681F4B54
:102F20000793EC4605F1100EBEE80F00ACE80F0069
:102F30009EE807008CE8070095E80F00A04768B1FD
:102F40000F4B9B680F48984758B1002009B0F0BD5F
:102F50006FF00700FAE76FF00600F7E76FF0050083
:102F6000F4E76FF00400F1E7C4000020B400002093
:102F7000BC000020D1340208A801002098000020E5
:102F800010010020F033002071560208D5560208C7
:102F9000C130020889300208E00000205C340020C3
:102FA000F0B589B02A4B5A682A4B93E80300904742
:102FB000002841D0264B1C68274B284A93E8030081
:102FC000A04700283BD0264D264CAC4620686168BF
:102FD000A268E368ACE80F0020696169A269ACE807
:102FE0000700214E214C224B0093224B224A2349B9
:102FF00020467768B847366803231A4601212046E1
:10300000B0471F4B1C681F4B0793EC4605F1100E91
:10301000BEE80F00ACE80F009EE807008CE8070050
:1030200095E80F00A04768B10F4B9B680F48984781
:1030300058B1002009B0F0BD6FF00300FAE76FF05F
:103040000200F7E76FF00100F4E74FF0FF30F1E71F
:10305000C40000207000002078000020F534020831
:103060007C0100205400002034010020FC320020AC
:1030700071560208D5560208E5300208A53002084C
:10308000E00000206833002010B50246034B9C6925
:10309000034B99881868A04710BD00BFC4000020EA
:1030A000B400002010B50246034B9C69034B99887D
:1030B0001868A04710BD00BFC400002070000020A9
:1030C00010B582B01346054A14694FF47A72009223
:1030D0000A4601460248A04702B010BDE0000020A9
:1030E0005C34002010B582B01346054A14694FF4D1
:1030F0007A7200920A4601460248A04702B010BD0B
:10310000E00000206833002007EE101A07EE902A36
:10311000B8EEC77ADFED425A27EE255AF8EEE77A85
:1031200067EEA55ADFED3F6A27EE266A67EEA66ACC
:10313000002315E000EB030C9CF8491001318CF8DA
:10314000491000F14901632940D900238CF8493026
:10315000022070470244002182F846100133DBB29E
:10316000022B57D81A4603F10A0100EB8101D1F86E
:10317000061007EE901AF0EEE77AF4EEC57AF1EE5B
:1031800010FA49DC03F1080100EB8101D1F80210CB
:1031900007EE101AB0EEC77AB4EEE57AF1EE10FA47
:1031A0003CDC03F1200130F9111079B1F4EEC67A5C
:1031B000F1EE10FA05D803F10C0C30F91CC0614592
:1031C000B8D081184FF0000C81F849C002F11C0101
:1031D00000EB4101B1F902100029BFD0B4EEE67A4C
:1031E000F1EE10FAB6D802F1080C00EB4C0CBCF969
:1031F00002C06145AED100EB020C9CF846100131D3
:10320000C9B28CF846106329A8D900238CF846303F
:103210000320704700207047042070470520704746
:103220009A99993F6666663FF8B5974B1B7813F0FD
:103230000F0F00F0CC80954B1B69954898470028EC
:103240007AD0924B9B69924898470446002873D0E5
:10325000904B1A78012161F303021A708E4B9A6821
:10326000D968013241F100019A60D960884AD2F8E8
:103270001E10D2F8222019605A60884B18685B68CB
:1032800050EA030503D08842934180F09E80804835
:10329000C36B814D2B61427C017C1E30FFF734FFF4
:1032A00085F82C00002318E0794A03F1180102EB9D
:1032B0004101B1F9065003F12C0102EB4101CD802F
:1032C00003F1140102EB4101B1F9081003F12805E3
:1032D00002EB450211810133DBB2022B19D86C4994
:1032E00003F1100201EB8202D6686B4A03F1080574
:1032F00002EB85052E6003F10E0501EB850189685F
:103300001D1D02EB85025160021FD2B2012ACBD8EB
:10331000E1E7604B1A786FF303021A70604D5E4E5E
:103320000FCE0FC50FCE0FC596E80F0007C525F8C5
:10333000023B1B0C2B7004E0594B012283F82C201C
:103340000024554B19685A68544B19605A604E4B0B
:103350001B7813F0F00F00F09580524B1B69524818
:10336000984700287DD04F4B9B694F4898470546AA
:10337000002876D0474B1A78012161F307121A70A2
:103380004A4B9A68D968013241F100019A60D960CC
:10339000454AD2F81E10D2F8222019605A60444BD8
:1033A00018685B6850EA030602D08842934167D2EE
:1033B0003D48C36B3D4E3361C27C817C1E30FFF7BC
:1033C000A3FE86F82C0000231CE00024B9E70024AB
:1033D000BDE7354A03F1180102EB4101B1F906607E
:1033E00003F12C0102EB4101CE8003F1140102EB49
:1033F0004101B1F9081003F1280602EB46021181E0
:103400000133DBB2022B19D8274903F1100201EB7B
:103410008202D768254A03F1080602EB8606376068
:1034200003F10E0601EB860189681E1D02EB860280
:103430005160021FD2B2012ACBD8E1E7154B1A78AE
:103440006FF307121A701B4E184F0FCF0FC60FCF16
:103450000FC697E80F0007C626F8023B1B0C337017
:1034600004E0124B012283F82C2000250F4B196831
:103470005A680F4B19605A6044EA0500C0B2F8BDA3
:103480000025F3E70025F7E7C835002010010020EC
:10349000F0330020CC350020E434002048350020F3
:1034A0001435002034010020FC320020503500206B
:1034B000B03500208035002008B5034BDB68034A97
:1034C0001068984708BD00BFF4020020C4350020F2
:1034D00008B5054B1B7813F00F0F03D0034B5B6946
:1034E0000348984708BD00BFC835002010010020E0
:1034F000F033002008B5054B1B7813F0F00F03D014
:10350000034BDB680348984708BD00BFC83500205F
:1035100034010020FC3200200B6801330B6070473F
:103520000B6801330B6070470B6801330B60704709
:1035300070B58CB005460C462F22002168460EF06F
:103540008FFA012C24D0022C43D0EC46AE4608AEB4
:1035500064460FCCCEF80000CEF80410CEF8082058
:10356000CEF80C30A4460EF1100EB442F0D1234632
:1035700007CBCEF80000CEF80410CEF808201A8849
:103580009B78AEF80C208EF80E3028460CB070BD3B
:10359000204B1B7813F00F0F0DD16C461E4E0FCE33
:1035A0000FC40FCE0FC496E80F0007C424F8023BE7
:1035B0001B0C2370C9E76C46184E0FCE0FC40FCEFC
:1035C0000FC496E80F0007C424F8023B1B0C2370BD
:1035D000BBE7104B1B7813F0F00F0DD16C46104E6B
:1035E0000FCE0FC40FCE0FC496E80F0007C424F807
:1035F000023B1B0C2370A8E76C460A4E0FCE0FC48B
:103600000FCE0FC496E80F0007C424F8023B1B0C32
:1036100023709AE7CC350020E434002014350020D4
:10362000503500208035002038B5374C23683748A6
:103630009847374B18606368092236499847FFF767
:103640003BFC0546FFF7ACFC04460023324A1370EE
:10365000324A13708DBB304B1A78012161F303029B
:103660001A70002C33D12C4B1A78012161F3071208
:103670001A702F242246002129480EF0F1F9224623
:10368000002128480EF0ECF92246002126480EF0D1
:10369000E7F92246002125480EF0E2F91E4B1B787F
:1036A000FBB113F00F0202D113F0F00F23D12AB3B4
:1036B00013F0F00F24D0002038BD134B9D68042375
:1036C0001B4A6FF0040112480068A847C9E70E4B77
:1036D0009C680423174A4FF0FF310D480068A0474B
:1036E000C7E7094B9C680423134A01210848006876
:1036F000A0470120E0E76FF00400DDE70020DBE7F2
:103700004FF0FF30D8E700BFF40200203C3103083F
:10371000C4350020E4010020C8350020CC3500204D
:10372000E43400205035002014350020803500207E
:10373000BC350020C0350020B83500200378427821
:1037400043EA0223827843EA0243C07843EA0060F6
:1037500070470378407843EA0020704759B10870F9
:10376000C0F307224A70C0F307428A70C0F30760B3
:10377000C8700120704700207047B0F80910B0F8F9
:103780000B3099420ED00133828893FBF2FC02FB8E
:103790001C338B420DD0C3889A420AD00023037297
:1037A00018467047C288002AEDD1032303721846D9
:1037B0007047042303721846704788B3F8B50F4664
:1037C0001646044683886BB3027A032A18BF002A80
:1037D00024D1C2889B1A9E4201DC00251CE00120F6
:1037E0001DE0A288B4F80B30B3FBF2F102FB1133F9
:1037F0009AB2A4F80B30D4F80D30795D9954B4F82E
:103800000B300133A4F80B30E3880133E38020460A
:10381000FFF7B3FF0135ADB2B542E2D3207AF8BD70
:10382000052070470520FAE7B0B3F8B50F461646F5
:103830000446838893B3037A042B18BF002B29D145
:10384000C388934201D3002522E0022023E0A2880E
:10385000B4F80930B3FBF2F102FB11339AB2A4F8C9
:103860000930D4F80D309B5C7B55D4F80D20B4F8AA
:1038700009300021D154B4F809300133A4F80930DB
:10388000E388013BE3802046FFF777FF0135ADB2C7
:10389000B542DCD3207AF8BD052070470520FAE751
:1038A00084B08DE80F00BDF80400BDF80630C01AE2
:1038B00080B204B070478446002B18BF00280CBFAC
:1038C0000120002019D070B51D46AAB100200FE0DC
:1038D000DCF80D40BCF809300B440344BCF804E0AC
:1038E00093FBFEF60EFB1633E35C13540130C0B2BB
:1038F00083B2AB42ECD3012070BD0020704784B08E
:103900008DE80F009DF8080004B0704784B08DE882
:103910000F00BDF8060004B07047F0B583B0044650
:10392000002918BF00280CBF012000205ED00D46E2
:10393000E388002B58D08A88CB889A4254D00B7CDD
:103940008DF8003008684968AA68EB68FFF7A8FF9F
:103950000746237C8DF8003020686168A268E36820
:10396000FFF7D4FF874228BF0746BFB2002638E0E2
:10397000AA88B5F80B30B3FBF2F102FB1133A5F8BE
:103980000B30A288B4F80930B3FBF2F102FB11331B
:1039900099B2A4F80930D4F80D00D5F80D20B5F887
:1039A0000B30415CD154D4F80D20B4F8093000211B
:1039B000D154B4F809300133A4F80930E388013B4D
:1039C000E380B5F80B300133A5F80B30EB880133F9
:1039D000EB802846FFF7D1FE2046FFF7CEFE0136EA
:1039E000B6B2BE42C4D3012003B0F0BD0020FBE755
:1039F000B8B108B50346D0F80D00A0B19A880AB94D
:103A0000002008BD0021D9721973597299729971F9
:103A1000D9714FF0030C83F808C00EF021F8012093
:103A2000EFE7002070470020EBE738B5002B18BF08
:103A300000280CBF0124002402D10024204638BDF8
:103A4000944605461A4601600021C1720173417215
:103A500081728171C1718380C0F80DC060460DF024
:103A6000FFFFD5F80D30002BE8D003232B72012483
:103A7000E4E770B5002A18BF00280CBF0124002419
:103A800002D10024204670BD054601600026C672A2
:103A90000673467286728671C6718280104600F087
:103AA00043FEC5F80D00AA8831460DF0D9FFD5F8C0
:103AB0000D30002BE6D003232B720124E2E70369CB
:103AC0000A6902610B61704710B40C690461CC682B
:103AD000C4604B600A7002704360002383605DF82D
:103AE000044B7047034620B1002018619860D860ED
:103AF00070476FF00100704738B504460D46FFF778
:103B0000F1FF00B9256138BD08B5C3681BB18068F5
:103B1000FFF7FAFF08BD8160C860FBE708B5034600
:103B2000C06810B1FFF7FAFF08BDD9608B60FBE7F2
:103B300038B543687BB104460D46006958B1096940
:103B400049B1984738B12A69824205D0E06840B14E
:103B50002946FFF7EDFF38BD29462046FFF7AFFFA6
:103B6000F4E7E560AC600023EB60F4E7002818BFE1
:103B7000002913D008B543684B6003780B70012B04
:103B800006D0022B07D003B108BDFFF7BDFFFBE74E
:103B9000FFF7C4FFF8E7FFF7CBFFF5E7704728B35F
:103BA0002DE9F0410D4617461C4680460E1E18BFF3
:103BB0000126002B14BF002306F001030BB101699D
:103BC000A847D8F80C0020B123463A462946FFF70B
:103BD000E6FF012C14BF002606F001064EB13A465E
:103BE000D8F810104046A847002003E06FF001000D
:103BF00070470020BDE8F08108B90020704738B553
:103C00000546D0F80E00FFF7F7FF80B2013004B28E
:103C1000D5F81200FFF7F0FF80B2013000B2A042E9
:103C2000B8BF204638BD08B90020704738B50546F2
:103C3000D0F80E00FFF7E0FF84B2D5F81200FFF7CE
:103C4000DBFF80B2201A00B238BD08B5034628B1A8
:103C5000D0F80A0010B1FFF7F8FF0346184608BD78
:103C600070B5054650B3D0F80E40D0F80A6076B172
:103C7000D0F81E306168706898476168884217D034
:103C8000D5F81E30706898476368984213D0C4F81E
:103C90000A60D4F81230C5F80E30D4F812300BB1E7
:103CA000C3F80A50C4F81250C5F80A40204670BD47
:103CB000C6F80E40EBE7C6F81240E8E70446F5E721
:103CC00070B5054650B3D0F81240D0F80A6076B10E
:103CD000D0F81E306168706898476168884217D0D4
:103CE000D5F81E30706898477368984213D0C4F8AE
:103CF0000A60D4F80E30C5F81230D4F80E300BB18B
:103D0000C3F80A50C4F80E50C5F80A40204670BDEA
:103D1000C6F80E40EBE7C6F81240E8E70446F5E7C0
:103D200060B338B50446FFF77EFF022803D010F1D8
:103D3000020F12D038BDD4F80E502846FFF773FF9B
:103D4000B0F1FF3F03D02046FFF78AFFF2E7284695
:103D5000FFF7B6FFC4F80E00F5E7D4F81250284676
:103D6000FFF761FF012803D02046FFF7A9FFE1E735
:103D70002846FFF775FFC4F81200F5E7704770B5E5
:103D8000002918BF00280CBF0124002428D00546B4
:103D90000E46D0F8163049684068984773688342E9
:103DA0000BD06B6883421CD1D5F8120098B9C6F8C5
:103DB0000A50C5F81260012413E0D5F80E0028B9A6
:103DC000C6F80A50C5F80E6001240AE03146FFF734
:103DD000D6FF044605E03146FFF7D1FF044600E078
:103DE0000024204670BDC0B110B50446FFF71BFF8C
:103DF0002081D4F80E00FFF7F6FFD4F81200FFF789
:103E0000F2FFB4F9083013F1020F18BF022B00D0F3
:103E100010BD2046FFF784FFFAE7704750B110B598
:103E20000446406828B1FFF710FF10B16060FFF74B
:103E3000DAFF10BD70478446002818BF002A14BF5F
:103E4000012000201BD010B59646029A002A18BF08
:103E5000002B0CBF012200220DD0039C6CB1CCF8CA
:103E60000010CCF804E0CCF81E40CCF81630029BD1
:103E7000CCF81A3010BD0020FCE71046FAE7704776
:103E800080B138B50C46054609B1406888472146DF
:103E9000D5F80E00FFF7F4FF2146D5F81200FFF722
:103EA000EFFF38BD704778B138B50C460546D0F8FD
:103EB0000E00FFF7F8FF0CB16868A0472146D5F85F
:103EC0001200FFF7F0FF38BD704778B138B50C46E7
:103ED0000546D0F80E00FFF7F8FF2146D5F812008E
:103EE000FFF7F3FF0CB16868A04738BD7047B0B169
:103EF00008B50B46406828B1022B08D0032B0AD026
:103F0000012B00D008BD1146FFF7BAFFFAE71146B2
:103F1000FFF7C9FFF6E71146FFF7D7FFF2E7704753
:103F200070B582B00446002300938DF8043004235A
:103F30008DF8043079B116460D46D1F81A3053B1D8
:103F40001146686898478DF80400022814D00328A9
:103F500009D0012809D0009820609DF80430237111
:103F6000204602B070BD0095F5E73246D5F80E1038
:103F70002046FFF7D5FFF3E73246D5F8121020466A
:103F8000FFF7CEFFECE700B583B004238DF80430D3
:103F900000230093002918BF00280ED00A46C168EC
:103FA00079B141686846FFF7BBFF9DF80430032BE9
:103FB00001D0002002E0009800E0002003B05DF88E
:103FC00004FB0020FAE720B3F0B583B00F46154696
:103FD0000446222000F0A8FB0646E368226901920D
:103FE0000093A3682A463946FFF725FF16B900203B
:103FF00003B0F0BD2046FFF711FF606838B13146CD
:10400000FFF7BDFE2046FFF709FF0120F0E76660DD
:10401000F8E700207047F8B507460C4615461E46DF
:10402000142000F081FB68B1002C18BF002D0AD0CD
:104030004EB10760C560846006610023037143715F
:104040008371C371F8BD00F0CFFB0020FAE70000D8
:10405000012383F31388BFF34F8F0549CA6802F425
:10406000E062044B1343CB60BFF34F8F00BFFDE70B
:1040700000ED00E00400FA0582B003460022ADF82E
:104080000620ADF80420084301D18B420ED1B3F9CC
:1040900000200FFA82FCADF80620B1F9002010B222
:1040A000ADF80420844503DC04DB002002B0704737
:1040B0000846FBE71846F9E782B0B0F90030ADF8E2
:1040C0000630B1F90030ADF80430BDF8062012B268
:1040D000BDF804301BB29A4211DCBDF8062012B2C2
:1040E000BDF804301BB29A420BDBBDF8062012B2B9
:1040F000BDF804301BB29A4205D002B070470120CF
:10410000FBE70220F9E70320F7E70000B0B1F8B5BC
:104110000E461546074600240BE0094B5B6804EB8E
:10412000440206EBC2025168D7F8020098470134F6
:10413000A4B2AC42F1D33D800120F8BD002070470D
:10414000E4020020012802D0022803D07047034B6C
:1041500019607047024B1960704700BFE8350020B6
:10416000E43500200FB4F0B5A3B028AC54F8045BDC
:10417000002102917C2203A80DF072FC0194104BE7
:104180001B7833B90024204623B0BDE8F04004B0CA
:10419000704723462A46802102A80DF013FD0446ED
:1041A00087B20849A1F80100074EB369074D042200
:1041B00028469847B3693A4602A928469847E2E755
:1041C000E1350020EC350020BC020020D035002075
:1041D00070B50546164B1B785BB9164B9B684FF4C0
:1041E0008062154915489847154B1870104B0122ED
:1041F0001A700A2000F098FA0446B8B1114B1E68F4
:1042000011490B46114A2846B047C4F802002378EA
:104210000023237062786370A279A371E279E3715D
:10422000227A2372627A6372204670BD0020FCE716
:10423000E2350020BC02002054320308D0350020B3
:10424000E1350020E402002079400208B94002086C
:10425000F0B587B0002303930493ADF81430002821
:104260005AD02F4B1C78002C57D02E4B5D6904235D
:1042700003AA00212C48A8479DF80C30002B4CD0F5
:104280002A4B1B68002B42D0BDF80D0000F04CFA01
:104290000546002841D0234B1E6A234B1A7C8DF81B
:1042A00000200FCBB047042808D01E4B1E6A1E4BBF
:1042B0001A7C8DF800200FCBB04720BB194FFB694B
:1042C000194E042203A930469847FB69BDF80D201A
:1042D0002946304698479DF80C3013F00F0F06D052
:1042E000124B1B681BB1BDF80D10284698479DF86E
:1042F0000C3013F0F00F06D00D4B1B681BB1BDF84E
:104300000D1028469847284600F06EFA05E0084B45
:104310001B68002BB8D100E00024204607B0F0BD98
:10432000E1350020BC020020D0350020E835002017
:10433000E43500202DE9F04F83B015461E46ADF858
:104340000610414B00221A6000287BD00F468046A1
:104350003E4B9B680DF10601D0F8020098470446D9
:104360000095ADF804604368C3F80E5043685E8260
:10437000002860D04368002B5DD0597ADFF8C8A0D0
:104380009AF8002061F307128AF80020197AD2B255
:1043900061F303028AF800205868FCF70BFA8146A3
:1043A000D8F802301868FCF705FA81441FFA89F939
:1043B00009F10509AAF80190254B1B788BB3DAF8AF
:1043C000003073B3DFF894A0DAF81830DFF890907B
:1043D00004221D4948469847DAF8183002221D4940
:1043E00048469847DAF818B0D8F80230D3F8008079
:1043F0004046FCF7DFF982B241464846D847DAF832
:1044000018300322144948469847DAF818A0636820
:10441000D3F804804046FCF7CDF982B241464846C5
:10442000D04763689A7832B9D3F80A301BB1324664
:10443000294638469847044B00221A60012003B0F1
:10444000BDE8F08F0020FAE7EC350020E402002000
:10445000E13500206032030864320308BC0200200A
:10446000D035002008B5114B834200D008BD104B59
:1044700001221A700F4A5168D1F812300133C1F885
:1044800012301068D0F80E300133C0F80E30D0F87A
:10449000063003B19847074B5868D0F8063003B18F
:1044A0009847044B00225A601A60DFE7F835002075
:1044B00070360020F0350020174B984200D070472E
:1044C00010B50446154B03221A70154A5168D1F8ED
:1044D00016300133C1F816301068D0F816300133A9
:1044E000C0F81630D0F80A3003B198470C4B586822
:1044F000D0F80A3003B19847094B00225A601A607D
:10450000636D636D636D636D636D636D636D636D2B
:10451000636D636D10BD00BFF8350020703600205C
:10452000F035002010B582B01F4BD3F8D82042F0F0
:104530000202C3F8D820D3F8D83003F00203019365
:10454000019B1A481A4B036000234360802282605B
:104550004FF40072C2604FF4806202614361836174
:10456000C3614FF4403303620423436208F0DAF975
:1045700010B1002002B010BD0C4C0E4A00212046A4
:1045800009F0C2F90C4A0421204609F0BDF90022C5
:104590000521462005F0D6FB462005F009FC012048
:1045A000064B1870E6E700BF00440258F8350020BB
:1045B000B804024065440208B9440208703600207D
:1045C000F8B504460D4601F059F8002D18BF002C2F
:1045D0000CBF012700273AD0A288AB889A4237D176
:1045E0001C4B1B78012B33D11B4B5D601C6000F012
:1045F0004BFF0526174B02221A70A3882A682168F0
:10460000164808F061FBA0B1124B03221A70D4F8CF
:1046100016300133C4F81630D5F816300133C5F81A
:104620001630013EF6B20D4808F09AFC08B1002E93
:10463000E0D100F035FFC823064A1278012A04D0E1
:10464000013B13F0FF03F7D102E0012700E0002750
:104650003846F8BD70360020F0350020F8350020CF
:10466000194B00E01B681A688242FBD3002B2AD04A
:104670005A681A4482420BD0426800EB020C196857
:104680008C450BD01A68026098421CD018607047A5
:104690005A6841680A445A601846EDE710B41C682D
:1046A0000A4909688C420CD0196849680A4442607A
:1046B0001A6812680260984200D018605DF8044BD6
:1046C00070470160F7E770477836002074360020A5
:1046D000F8B50E4C4FF400322260002666600127C8
:1046E00067610B4D314628460DF0BAF9094B1D6044
:1046F0005E60094B094A1360094AE2602B60094B6E
:10470000E3606B60A36084F82070F8BD8036002001
:104710000000002478360020F8FF012474360020C1
:10472000F8FF0100F0FF010070B5044672B62A4B95
:1047300093F8203093B1002C43D00834A3B214F086
:10474000030F03D023F0030304339BB21D46224A18
:104750009268934239D8214A146807E0FFF7B8FFFE
:104760001D4B1E4A1A61E6E722461C4663689D42BD
:1047700002D92368002BF7D104F07F41184B9942EE
:1047800025D1184B1B68A34223D013498B690133F1
:104790008B61166808362368136063685B1B082BFF
:1047A00009D80D4B9A68521B9A605A682A445A607D
:1047B0000023236006E0601943606560FFF750FF47
:1047C000EFE7002662B6304670BD0026FAE7002605
:1047D000F8E70026F6E700BF803600207836002094
:1047E000000000247436002040B102460C49CB6919
:1047F0000133CB61083852F8083C03B1704710B55B
:1048000072B60B46496852F8044C091B596052F8BD
:10481000041C9A680A449A60FFF722FF62B610BD32
:1048200080360020002918BF00280DD010B50C4696
:104830008B68898820689847E3682269013342F1D0
:104840000002E360226110BD7047000010B542789D
:104850004FEAD20E02F00702094B19784FF0010C13
:104860000CFA0EF42143C9B21970734459780CFA4A
:1048700002F20A43D2B25A7080F800C010BD00BFE5
:10488000FC370020407800F0070C0D4B03EBD00301
:104890005A78012101FA0CF122EA01025A70597882
:1048A00061B900B54FEAD00E05490B78012202FA32
:1048B0000EF223EA02030B705DF804FB704700BFA1
:1048C000FC370020407800F0070C0D4B03EBD003C1
:1048D0005A78012101FA0CF122EA01025A70597842
:1048E00061B900B54FEAD00E05490B78012202FAF2
:1048F0000EF223EA02030B705DF804FB704700BF61
:10490000F0370020FEE70000144B1B781BB3134B5D
:104910001A78D2B212498A5C13445B78DBB2CB5C62
:1049200003EBC2000F4951F8200000B1704710B5E9
:104930000A4991F800E04FF0010C0CFA02F42EEA5B
:10494000040E81F800E00A4451780CFA03F321EADE
:104950000303537010BD0020704700BFFC370020D8
:1049600070320308D8360020144B1B781BB3134B4E
:104970001A78D2B212498A5C13445B78DBB2CB5C02
:1049800003EBC2000F4951F8200000B1704710B589
:104990000A4991F800E04FF0010C0CFA02F42EEAFB
:1049A000040E81F800E00A4451780CFA03F321EA7E
:1049B0000303537010BD0020704700BFF037002084
:1049C00070320308D836002082B002464078C3080F
:1049D0008DF807304B784FEAD30C8DF806C000F005
:1049E00007008DF8050003F007038DF80430B2FAD4
:1049F00082F35B09B1FA81F0400903427DD10029BD
:104A00000CBF002303F0010333B10B78043BDBB28E
:104A1000012B75D9084671E0002A0CBF002000F078
:104A2000010030B11378043BDBB2012B6AD9104688
:104A300064E09DF80700C0B29DF80630DBB29842F2
:104A40000BD21378043BDBB2012B5DD80B78043B0F
:104A5000DBB2012B5AD9084650E09DF80700C0B2DE
:104A60009DF80630DBB298420BD90B78043BDBB2E1
:104A7000012B4DD81378043BDBB2012B4AD91046E9
:104A80003CE09DF80700C0B29DF80630DBB29842CA
:104A900034D19DF80500C0B29DF80430DBB29842D5
:104AA0000BD21378043BDBB2012B35D80B78043BD7
:104AB000DBB2012B32D9084620E09DF80500C0B2D8
:104AC0009DF80430DBB298420BD90B78043BDBB283
:104AD000012B25D81378043BDBB2012B22D91046D9
:104AE0000CE00B78043BDBB2012B1DD81378043BA0
:104AF000DBB2012B1AD9104600E0002002B070474B
:104B00000020FBE70020F9E71046F7E70020F5E773
:104B10000846F3E70020F1E71046EFE70020EDE755
:104B20000846EBE70020E9E70846E7E70020E5E76D
:104B300038B504460025457045608560858105616E
:104B4000456285620023836305634563143000F08A
:104B500041FD257038BD0000C9B110B50C460D4BA4
:104B60001B78DBB2022B01D0002010BD0B78032B89
:104B700018BF012B01D0052BF6D16069A16900F0A7
:104B80009DFD0028F0D02046FFF760FEECE70020F6
:104B9000704700BF1038002010B582B000220023FB
:104BA000CDE90023114B1B6801221A70104B1B78B2
:104BB000A3B100F05DFDDDE90023994208BF9042FA
:104BC00012D000F055FDCDE900010A4CD4E90023D4
:104BD000501C43F10001C4E9000105E000231A461E
:104BE00005490648FEF7DBFF02B010BDC8360020BD
:104BF000B03600200838002025480208B4360020CE
:104C000010B50446C26B92000021406C0CF028FFE6
:104C100004F14403E16B6FF040420A4403EB82036A
:104C200023F007034FF0807243F8042C084A22F067
:104C3000010243F8082C074A43F80C2C002243F8E1
:104C4000202C6FF0020243F8242C443B236410BD57
:104C5000855202080549020810B55020FFF764FD8F
:104C6000104B1860C8B104460F4B4360802343705B
:104C70000E4B03614FF48063C3634FF48050FFF722
:104C800053FD6064074B1868436C43B1FFF7B8FFEE
:104C9000074B00221A70012010BD0020FCE7002005
:104CA000FAE700BFC836002068320308994B0208B3
:104CB000B0360020D0B52DED028B86B0044604A896
:104CC00000F088FC2378012B03D006B0BDEC028BEA
:104CD000D0BD0023A3642046FFF7D4FD454B1C60E4
:104CE000A36A4BB9444B1B68A34205D000F0C0FC3B
:104CF000E06121626061A1612369002B66D0A28915
:104D00000023CDE902230223237000F0B1FCCDE99A
:104D1000000123692046984700F0AAFCDDE90067FE
:104D2000821B61EB0703CDE90023DDE90001DDE92A
:104D30000267321A67EB0103CDE90223DDE90223A2
:104D4000012A73F100033CDB2B4B1B68A342BCD050
:104D5000A36A0133A362A16C236B626B5B1842F1FF
:104D60000002236362636269A369E069216A00F05B
:104D700036FCCDE90401DDE9020180B200F094FCCB
:104D80006061A161276B666BDDE90401FBF738FE0A
:104D900008EE100A38463146FBF732FE07EE100ADD
:104DA000C7EE087AC4ED0E7A9FED147A67EE877A23
:104DB000C4ED0E7AA66A66B9BFF34F8F0323237042
:104DC00083E7A2890023CDE90223BDE703232370F3
:104DD0007BE700F05FFCFBF713FE06EE900A07EEA0
:104DE000906AF8EE677A87EEA67ABCEEC77A84ED11
:104DF000097AE1E7A4360020C83600200000C84246
:104E0000074B19680868B0E8F04F1EF0100F08BF94
:104E1000B0EC108A80F30988BFF36F8F704700BF32
:104E2000A836002000000000000000000000000084
:104E3000EFF30980BFF36F8FDFF850301A681EF070
:104E4000100F08BF20ED108A20E9F04F10602DE907
:104E500009004FF0300080F31188BFF34F8FBFF38C
:104E60006F8F00F015F84FF0000080F3118809BC37
:104E700019680868B0E8F04F1EF0100F08BFB0ECDA
:104E8000108A80F30988BFF36F8F7047A83600201F
:104E9000054B064A92E8030083E80300044B1A68B6
:104EA000044B1A60704700BFA8360020D03600209F
:104EB000CC360020A43600202DE9F041804600F0D9
:104EC000BBFA0028FBD0002718E0194D04EBC706F9
:104ED00005EB8600FFF72CFE55F826200023D36350
:104EE00055F82620536455F82620136445F82630DB
:104EF0000134E4B2072CE8D90137FFB2072F01D8FB
:104F00000024F7E70B4B00221A705A611A61DA602D
:104F1000094B1868FFF70CFE084B1868FFF708FEEE
:104F2000404600F0EDFA064B01221A70BDE8F08110
:104F3000D8360020D8370020A4360020CC360020F8
:104F40001038002010B5FFF7DFFC0E4B186050B191
:104F500000F140020C4B1A60426C5A600B4A93E815
:104F6000030082E803000224094B1C70FFF774FE63
:104F700000F07AFA0749204600F0A6FA00F064FA39
:104F800010BD00BFCC360020D0360020A83600204F
:104F900010380020A551020810B582B002AC04E917
:104FA0000600D8B1024654E9020182E8030093608A
:104FB00002F1140411462046FEF79EFD084B1B78B3
:104FC00033B121460748FEF7D1FD012002B010BDE4
:104FD000012221460348FEF777FDF2E70020F5E7BE
:104FE000B0360020B43600202DE9F84317461C46A1
:104FF00003EBC202564B53F8223023B14FF00008A6
:105000004046BDE8F88306460D465020FFF78CFB6E
:1050100004EBC7034E4A42F82300002800F08E80BC
:10502000804646601646994652F823309D604949AD
:10503000B1FBF5F552F829309D8152F82930089AD4
:105040001A6156F8293044EAC7025A7056F82930D6
:10505000099ADA6356F82950900080B2FFF764FB92
:10506000686456F82900436C002B6AD0FFF7C8FD2E
:1050700035464E4655F829304FF00009C3F84890A0
:1050800055F8263000229A6355F82630C3F8309040
:10509000C3F83490304B197855F8260090F801C0C9
:1050A000012202FA0CF241EAE201C9B2197003EBE3
:1050B000DC03597802F007020A435A70C0F82490C2
:1050C00055F82600143000F085FA55F826001C30FB
:1050D00000F080FA55F82630C3F8289055F82630AD
:1050E00083F82C9055F82600FFF7B0FB55F8269072
:1050F0001420FFF719FBC9F84C0055F82610C86CAE
:1051000010B3FEF7F9FC154B1B786BB955F8261058
:10511000134B0222C96C1348FEF7D6FC0F4A1378D2
:105120000133DBB213706BE704EBC704084B53F891
:105130002430D96C0B48FEF719FDEFE74FF000085B
:105140005EE74FF000085BE74FF0000858E700BF4C
:10515000D836002040420F00FC370020D83700200E
:10516000C9490208DC37002010B590F801C04FEAA9
:10517000DC020CF0070E0A4B19784FF0010C0CFA08
:1051800002F42143C9B2197013445A780CFA0EFC88
:1051900042EA0C02D2B25A700623037010BD00BF5F
:1051A000F037002030B583B0CDE900012E4B1B78DD
:1051B00033BBFFF7A9FB0446FFF7D6FB01462046A9
:1051C000FFF702FC294D2968FFF7FEFB04462B6818
:1051D000834230D090B10378062B18D0234B186847
:1051E00038B1234B1B68984203D00378DBB2022B03
:1051F00013D02378043BDBB2012B11D803B030BDB0
:1052000000236A461B491C48FEF7C9FCD1E7FFF79B
:1052100059FB2046FFF71AFBE0E7FFF7A5FFE8E799
:10522000164B1C6004F14002154B1A60626C5A6008
:1052300000F022F9E2E798B12378052B01D0042B86
:10524000DCD10B4B1B6801221A700C4A136003F16E
:1052500040010B4A11605B6C536000F00DF9CDE723
:10526000002BE9D1EDE700BFD8370020A43600209D
:10527000C8360020594B0208DC370020CC3600200D
:10528000D036002008B503E000F0F2F9FFF78AFFFE
:10529000074B18680028FBD0FFF70CFD054B1A6878
:1052A000054B1B689A42EFD0024B00221A60EBE7D5
:1052B000CC360020A4360020C836002080F31188A8
:1052C000BFF34F8FBFF36F8F7047000000B5CFB0B3
:1052D000BC2200211FA80CF0C3FB4C2200210CA80B
:1052E0000CF0BEFB2022002104A80CF0B9FB022028
:1052F00008F0A0FC002301934C4BDA6A22F0010273
:10530000DA62DB6A03F001030193494B9A6942F4C4
:1053100040429A619B6903F440430193019B444BD3
:105320009B6913F4005FFAD0424A936A23F00303A7
:1053300043F00203936221230C934FF480330D93C7
:105340000122129202231593169317925A22189251
:10535000199308221A921B930C231C9300231D936C
:105360001E930CA804F058FD18B100204FB05DF852
:1053700004FB3F2304930323059300230693082390
:1053800007934023089309934FF480620A920B938A
:10539000022104A805F074F908B10020E6E74FF4F3
:1053A00040531F930223209390222192092222929C
:1053B00023922493802325930023269327934FF44D
:1053C000805336934FF4803337931FA805F0D0FBFA
:1053D00048BB184BD3F8E02042F08002C3F8E0202D
:1053E000D3F8E02002F080020292029AD3F8F4206F
:1053F00042F00202C3F8F420D3F8F43003F00203C1
:105400000393039B4FF0E023D3F8202D42F4700266
:10541000C3F8202DD3F8202D42F07042C3F8202D80
:1054200062B60120A2E70020A0E700BF00040058F8
:10543000004802580044025808B572B604F016FC41
:10544000FFF744FF08BD0000002080F309880548ED
:105450000068006880F3088800DFBFF36F8F00BF2B
:105460007047000008ED00E002484FF0FF010170B6
:105470007047000022ED00E002484FF080510160CB
:105480007047000004ED00E008B53020FFF716FF7C
:10549000024A13880133138008BD00BF1238002070
:1054A00008B5084B1B884BB1013B9BB2054A1380E2
:1054B00003B108BD0020FFF701FFFAE70020FFF766
:1054C000FDFEF6E712380020012808D002280AD095
:1054D00008B100207047064B996101207047044BCA
:1054E000D96101207047024B19620120704700BF4B
:1054F00014380020014B1869704700BF1438002091
:1055000010B549F64043984216D042F210739842C3
:1055100038D0B0F5FA5F37D041F28833984235D0B1
:10552000B0F57A6F34D0B0F5FA6F33D0B0F57A7F3A
:1055300032D049F6404100E00146184C002284F880
:105540002420174BB3FBF1F32361606104F05AFA96
:105550006269144B1B68B3FBF2F3013BB3F1807F2C
:105560000AD24FF0E02253610F4BF02183F8231051
:10557000002393610723136104F088FF0B4B18602D
:10558000012010BD0146D8E70146D6E70146D4E721
:105590000146D2E70146D0E70146CEE714380020A5
:1055A00040420F002806002000ED00E048380020AF
:1055B00008B5074B012283F8242000221A605A60A4
:1055C0009B6923B1024B9B6900200021984708BDCD
:1055D0001438002000220023C0E9002370478242D3
:1055E00073EB010C03D2801A61EB03017047101AB0
:1055F00063EB01017047000010B51B4B93F824309A
:10560000DBB2012B0ED0194BD3E90023134329D071
:10561000164CD4E90023501E43F1FF31C4E90001C8
:10562000002020E0104C002384F8253021692368F5
:1056300062685B1842F10002236062602068616862
:105640004FF47A720023FBF721FAA060E160012396
:1056500084F82530236A1BB1226A2068616890476C
:10566000012000E0002010BD143800204038002048
:10567000014B1868596870471438002008B5044B6E
:10568000186859684FF47A720023FBF7FFF908BDD8
:105690001438002008B5FFF7F1FF4FF47A720023A9
:1056A000FBF7F4F908BD0000034A13685168C018FD
:1056B00041F10001704700BF14380020044B1A6804
:1056C0005B6882428B4101D2002070470120704705
:1056D00014380020084B1B694FF47A71B1FBF3F1C9
:1056E00000FB01F200230549C1E90023034BD3E984
:1056F00000231343FAD170471438002040380020AB
:10570000014B1868704700BFDC38002010B5044614
:10571000024B1B6902499847204610BD60010020DA
:1057200054030020012907D90239D0F8AC30D0F851
:10573000B40003FB0100704700207047002831D0FF
:1057400070B582B005460024D5F8A830A3421FD911
:10575000154B5E69D5F8B010012300934FF4007328
:10576000124A21441248B047002313F0800F0DD194
:105770000E4A52F8232012B10133DBB2F5E703EBF6
:10578000C413C5F8C030012002B070BD0134DBE79E
:10579000084B9C6800231A46062107480068A0476A
:1057A0000020F1E70020704760010020C0000224C3
:1057B00054030020F40200204C38002080B10D4A30
:1057C00090420FD0811E0A3A91420DD90A4A0244F2
:1057D000062A0BD9094A0244072A09D90020704732
:1057E0000120704704207047022070470320704753
:1057F00005207047F7FFFF0F100000F0080000F0D1
:1058000010F0100F01D100207047012070470000F8
:10581000002818BF012932D92DE9F04782B00C4683
:105820000646DFF86490174FDFF860804FF0010AFA
:10583000CDF800A04FF400733A46D0F82A10404645
:10584000D9F81450A84796F82E3007EB4313220CD2
:105850001A75220E5A759C76220ADA76D9F81890B3
:10586000CDF800A04FF400733A46D6F82A1040460F
:10587000C847C6F81E40504602B0BDE8F087002079
:10588000704700BFC00002246001002054030020C4
:1058900008B5034B5B6909780248984708BD00BF0B
:1058A000F40200207033030808B5024B5B6902481C
:1058B000984708BDF40200209033030808B5024B56
:1058C0005B690248984708BDF4020020B033030822
:1058D00000B587B084460A46002303930493CDF8AD
:1058E000133000930193CDF8073003AB0068DCF868
:1058F000041003C3BCF808009CF80A1018809970C3
:105900006B461068516803C31189927A19809A70A6
:105910000B22694603A80CF085F818B9012007B0DE
:105920005DF804FB0020FAE7012921D9F0B583B026
:105930000746FFF7F7FE05464FF4007200210D48B9
:105940000CF08EF800240CE00B4B9E6901230093B1
:105950004FF40073074A29460848B047013501341F
:10596000E4B2D7F8AC309C42EED3012003B0F0BDD6
:1059700000207047C0000224600100205403002072
:1059800030B583B00546134C0023236023710360B8
:105990001148124B0360237843F002032370104B2D
:1059A0001B689847A07050B18DF807000D4B9C689C
:1059B00001230DF1070202210B480068A047054BA7
:1059C000D3F801301BB90120287003B030BD00208E
:1059D000FAE700BF5038002054030020D0350308F8
:1059E00060010020F40200204C38002070B584B023
:1059F0000C4600230393D0F8B0100B4B5E690B4D9F
:105A0000012300934FF400732A4601EBD411084898
:105A1000B04704F07F0455F82430039303A8FDF742
:105A20008DFE04B070BD00BF60010020C0000224E4
:105A300054030020002859D070B5ADF5027D04460E
:105A40004FF40072002102A80CF00AF86378002BD2
:105A500035D0D4F80A500135254B5E6901230093F7
:105A60004FF40073234A29462348B0474FF400728D
:105A7000204902A80BF0E6FF0422204902A80BF0FF
:105A8000D1FF48B904221E497BA80BF0CBFF18B9FF
:105A90009DF80632552B1DD0002284F89C2084F8F6
:105AA0009D2084F89E2084F89F20164B9C68134606
:105AB000052115480068A0470DF5027D70BD0C4B0F
:105AC0005E69012500954FF400730A4A29460A4889
:105AD000B047CBE79DF80732AA2BDDD1C4F89C5024
:105AE0007CA8FDF72BFEC4F8C400E5E7704700BFB3
:105AF00060010020C000022454030020D4330308B6
:105B0000DC330308F40200204C380020C0B32DE938
:105B1000F04782B00D460446D0F89C1069B3D0F827
:105B20006230D0F8662090F8520000FB1233D4F8AF
:105B3000A420B3FBF2F3AB421FD3DFF84C90114E1D
:105B4000DFF848A04FF00108CDF800804FF4007353
:105B500032465046D9F81470B84706F5F471284615
:105B6000FDF7FCFDD9F81850CDF800804FF4007314
:105B70003246D4F89C105046A84702B0BDE8F087E2
:105B8000704700BFC00002246001002054030020C1
:105B900000286FD02DE9F04182B00546D0F8C4301E
:105BA000002B5AD0013BC0F8C430D0F8C060F709D0
:105BB000314B5C69D0F8B010012300934FF40073AF
:105BC0002E4A01EBD6112E48A047D5F8C04004F06C
:105BD0007F0414F0800F15D1A046284800EB840004
:105BE000FDF7ACFD10B10134E4B2F2E726F07F0618
:105BF000B044C5F8C080D5F8C4102846FFF786FF2A
:105C0000012034E00137D5F8A830BB4225D91A4B22
:105C10005C69D5F8B010012300934FF40073174A64
:105C200039441748A047002414F0800F13D11348BB
:105C300000EB8400FDF782FD10B10134E4B2F3E71C
:105C400004EBC716C5F8C060D5F8C4102846FFF7A6
:105C50005DFF01200BE00137D5E70020022385F826
:105C6000C03085F8C10085F8C20085F8C30002B0D5
:105C7000BDE8F0810020704760010020C0000224D0
:105C8000540300202DE9F04F83B00646002818BFCA
:105C9000012994BF0120002055D90C461546012A40
:105CA00052D9DFF8B4804FF400794A4600214046CB
:105CB0000BF0D6FED6F8B070A400D6F8A430B4FB32
:105CC000F3F10F4403FB1144214BD3F814A001233B
:105CD00000934B46424639461E48D047A0B3444441
:105CE00021462846FDF73AFD194BD3F818900123B9
:105CF00000934FF40073424639461648C84718B31C
:105D0000D6F8A8301F44DFF848B0C146DFF8448019
:105D10004FF0010ACDF800A04FF400734A4639460F
:105D20004046DBF81460B04721462846FDF716FDD3
:105D3000DBF81840CDF800A04FF400734A4639460E
:105D40004046A04700E0002003B0BDE8F08F00BF50
:105D50006001002054030020C00002242DE9F0431C
:105D600083B00446DFF84C80114DDFF84C900127DA
:105D700000974FF400732A46D0F826104846D8F80A
:105D80001460B04794F82E1049011C312944D4F80E
:105D90002200FDF7E3FCD8F8188000974FF4007359
:105DA0002A46D4F826104846C04703B0BDE8F08321
:105DB000C000022460010020540300202DE9F043BC
:105DC00083B00546002918BF00280CBF0120002021
:105DD0006AD016461C460F46B3FA83F35B09002AC5
:105DE00063D0002B61D1D5F8C0103846FFF710FD05
:105DF000D5F8BC20B4FBF2F302FB1343BBB1D7F8D8
:105E00001E80D5F8C010C7F81E102846FFF78AFC80
:105E1000C7F82A00D5F8A420B4FBF2F302FB134321
:105E20002BBBD7F81E2041462846FFF72BFF6FF00B
:105E30007042D7F81E102846FFF724FF2846FFF7C8
:105E4000A7FED5F8C0102846FFF76EFDC7F8224020
:105E5000C7F82F400023C7F83330B7F837301C1B82
:105E6000A7F837403846FFF779FF01201DE0DFF83B
:105E700048904FF40072002148460BF0F1FD224695
:105E8000314648460BF0DEFD094B9E69D5F8A4303B
:105E9000B4FBF3F20121009103FB12434A46D7F809
:105EA0002A100448B047BCE7002003B0BDE8F083E7
:105EB0006001002054030020C00202242DE9F04FAD
:105EC00087B003920493002800F00B810C4607462C
:105ED00090F800B0BBF1000F00F00881002A18BF55
:105EE00000290CBF0125002500F0FE80002B00F0EA
:105EF0000181D1F82F20D1F83330D0F8A41091428D
:105F00004FF0000272EB0303C0F0F6800B22002179
:105F100020460BF087FD002800F0F080D4F82230F6
:105F200093B1D4F81E103846FFF7FCFBD7F8AC301D
:105F3000C318DDF810804FF00009CDF814B09B466F
:105F40003B464F4699469BE0049B039A21463846C0
:105F5000FFF734FF8346C9E0DDF814B04B46B9467D
