:020000040800F2
:1000000000000220C9090008790300087B030008EA
:100010007D0300087F030008810300080000000042
:100020000000000000000000000000008303000842
:10003000850300080000000087030008890300080A
:10004000190A0008190A0008190A0008190A000804
:10005000190A0008190A0008190A0008190A0008F4
:10006000190A0008190A0008190A0008190A0008E4
:10007000190A0008190A0008190A0008190A0008D4
:10008000190A0008190A0008190A0008190A0008C4
:10009000190A0008190A0008190A0008190A0008B4
:1000A000190A0008190A0008190A0008190A0008A4
:1000B000190A0008190A0008190A0008190A000894
:1000C000190A0008190A0008190A0008190A000884
:1000D000190A0008190A0008190A0008190A000874
:1000E000190A0008190A000800000000190A00088F
:1000F000190A0008190A0008190A0008190A000854
:10010000190A0008190A0008190A0008190A000843
:10011000190A0008190A0008190A0008190A000833
:10012000190A0008190A0008190A0008190A000823
:10013000190A0008190A0008190A0008190A000813
:1001400000000000000000000000000000000000AF
:10015000190A0008190A0008190A0008190A0008F3
:10016000190A0008190A0008190A0008190A0008E3
:10017000190A0008190A0008190A000800000000FE
:10018000190A0008190A0008190A0008190A0008C3
:10019000190A0008190A0008190A0008190A0008B3
:1001A000190A0008190A0008190A0008190A0008A3
:1001B000190A0008190A0008190A0008190A000893
:1001C000190A0008190A0008190A0008190A000883
:1001D000190A0008190A0008190A0008190A000873
:1001E000190A0008190A0008190A0008190A000863
:1001F000190A0008190A0008190A0008190A000853
:10020000190A0008190A0008190A0008190A000842
:10021000190A0008190A0008190A0008190A000832
:10022000190A0008190A0008190A0008000000004D
:10023000190A0008190A000800000000190A00083D
:10024000190A0008190A0008190A0008190A000802
:10025000190A0008190A0008190A0008190A0008F2
:10026000190A0008190A0008190A0008190A0008E2
:10027000190A0008190A0008190A000800000000FD
:10028000190A0008190A0008190A000800000000ED
:0802900000000000190A00083B
:1002980010B5054C237833B9044B13B10448AFF3B8
:1002A80000800123237010BD100000200000000012
:1002B800640A000808B5034B1BB103490348AFF3B0
:1002C800008008BD0000000014000020640A000837
:1002D80008B500F0F1F944F6206000F001F8FEE7F7
:1002E80038B542F2107398420CD041F288339842E4
:1002F80030D0B0F5FA6F2FD0B0F57A7F2ED044F613
:10030800206300E00346164D00222A7744F6206455
:10031800B4FBF3F3AB60E86000F09AF8AB68B4FBA9
:10032800F3F4104B1B68B3FBF4F3013BB3F1807F8C
:100338000AD24FF0E02253610B4BF02183F82310CF
:10034800002393610723136100F040FA074B1860FC
:10035800012038BD0346D6E70346D4E70346D2E773
:10036800300000200000002000ED00E050000020D8
:10037800FEE7FEE7FEE7FEE7FEE7704770477047D7
:1003880070470000274AD2F8883043F47003C2F857
:100398008830254B1B6803F00F03062B06D8224A2A
:1003A800136823F00F0343F0070313601F4B1A6809
:1003B80042F001021A6000221A6119681C4A0A40B8
:1003C8001A60194B1B6813F0080F06D0164A1368F9
:1003D80023F00F0343F007031360144B00229A61C4
:1003E800DA611A62134999621349D9621349196388
:1003F8005A639963DA6319645A64196821F480218D
:1004080019601A660E4B1A680E4B1340B3F1005F61
:1004180003D20D4B0122C3F808210C4B43F2D20240
:100428001A60704700ED00E00020005200440258B6
:100438007FEDF6EA000202020000FF0180020101DE
:100448000010005C0000FFFF0080005100400052D7
:1004580010B47A4B1B6903F03803182B00F2E580BF
:10046800DFE813F01B00E300E300E300E300E30030
:10047800E300E3001900E300E300E300E300E30026
:10048800E300E300EA00E300E300E300E300E30045
:10049800E300E30037006A4A05E0684B1B68C3F3D2
:1004A800C103684ADA4065488369C3F30323664990
:1004B800CB5CDA40836903F00F03CB5C03F01F03C6
:1004C80022FA03F361490B60614B1A605DF8044B33
:1004D80070475A49886A00F003008C6AC4F3051211
:1004E800CB6A03F0010C4B6BC3F3CC030CFB03F397
:1004F80007EE903AF8EE677A14F47C7FD3D001289F
:1005080059D0022874D018B34C480168C1F3C1010E
:100518004C4BCB4007EE103AF8EE476A07EE102A2C
:10052800B8EE476A86EE867A036BC3F3080306EED5
:10053800903AF8EE666A9FED476A67EE867A76EE3D
:10054800A77AF7EE006A77EEA67A27EE277A22E0F6
:1005580008460968C1F3C1013A4BCB4007EE103A8F
:10056800F8EE476A07EE102AB8EE476A86EE867AF2
:10057800036BC3F3080306EE903AF8EE666A9FED44
:10058800356A67EE867A76EEA77AF7EE006A77EE36
:10059800A67A27EE277A294B1B6BC3F34623013330
:1005A80007EE903AF8EE677AC7EE276AFCEEE67A2D
:1005B80017EE902A77E707EE102AF8EE476A9FEDC4
:1005C800266A86EE267A1D4B1B6BC3F3080306EEDC
:1005D800903AF8EE666A9FED1F6A67EE867A76EEC5
:1005E800A77AF7EE006A77EEA67A27EE277AD2E79F
:1005F80007EE102AF8EE476A9FED186A86EE267A0B
:100608000E4B1B6BC3F3080306EE903AF8EE666ACE
:100618009FED106A67EE867A76EEA77AF7EE006AA3
:1006280077EEA67A27EE277AB5E7044B1B68C3F363
:10063800C103044ADA4036E7094A34E7004402585D
:1006480000093D000090D0037C0A00080400002047
:1006580000000020000000390024744A20BCBE4B72
:1006680040787D0170470000104B1B780BB90120C2
:10067800704710B504464FF47A70B0FBF3F30C4A98
:100688001068B0FBF3F000F08DF868B90F2C01D9B1
:1006980001200AE0002221464FF0FF3000F04CF81C
:1006A800044B1C60002000E0012010BD0800002061
:1006B800000000200C00002010B5032000F02AF8EC
:1006C80000F084F80F498B69C3F303230E4AD35C07
:1006D80003F01F03D8408B6903F00F03D35C03F0CA
:1006E8001F0320FA03F3094A1360094B186000201E
:1006F800FFF7BAFF10B10124204610BD0446FFF7EA
:10070800B1FFF9E7004402587C0A00080400002001
:10071800000000200649CB6823F4E0631B041B0C8F
:10072800000200F4E0600343024A1A43CA607047BB
:1007380000ED00E00000FA0500B5174BDB68C3F3D5
:100748000223C3F1070CBCF1040F28BF4FF0040CBF
:1007580003F1040EBEF1060F14D9033B4FF0FF3E20
:100768000EFA0CFC21EA0C0199400EFA03F322EA76
:1007780003031943002807DB0901C9B2074B1954C1
:100788005DF804FB0023E9E700F00F000901C9B296
:10079800034B1954F4E700BF00ED00E000E400E06B
:1007A80014ED00E00138B0F1807F0BD24FF0E02368
:1007B8005861054AF02182F8231000209861072229
:1007C8001A6170470120704700ED00E0744B1B6907
:1007D80003F03803102B00F0DE80182B10D00BB17B
:1007E800704870476E4B1B6813F0200F00F0D580DF
:1007F8006B4B1868C0F3C1006B4B23FA00F07047CD
:1008080010B4674A916A01F00301946AC4F30510B1
:10081800D36A03F0010C536BC3F3CC030CFB03F353
:1008280007EE903AF8EE677A14F47C7F00F0938034
:10083800012965D0022900F09180E1B107EE100A84
:10084800F8EE476A9FED596A86EE267A544B1B6B81
:10085800C3F3080306EE903AF8EE666A9FED546A11
:1008680067EE867A76EEA77AF7EE006A77EEA67AD2
:1008780027EE277A60E0136813F0200F23D0114683
:100888001268C2F3C102484BD34007EE103AF8EEA3
:10089800476A07EE100AB8EE476A86EE867A0B6B4F
:1008A800C3F3080306EE903AF8EE666A9FED406AD5
:1008B80067EE867A76EEA77AF7EE006A77EEA67A82
:1008C80027EE277A38E007EE100AF8EE476A9FED20
:1008D800396A86EE267A324B1B6BC3F3080306EEA1
:1008E800903AF8EE666A9FED326A67EE867A76EE9F
:1008F800A77AF7EE006A77EEA67A27EE277A1BE04A
:1009080007EE100AF8EE476A9FED286A86EE267A07
:10091800234B1B6BC3F3080306EE903AF8EE666AA6
:100928009FED236A67EE867A76EEA77AF7EE006A7D
:1009380077EEA67A27EE277A194B1B6BC3F346236B
:10094800013307EE903AF8EE677AC7EE276AFCEEB5
:10095800E67A17EE900A5DF8044B704707EE100A26
:10096800F8EE476A9FED146A86EE267A0C4B1B6BED
:10097800C3F3080306EE903AF8EE666A9FED0C6A38
:1009880067EE867A76EEA77AF7EE006A77EEA67AB1
:1009980027EE277AD0E7094870470348704700BF19
:1009A8000044025800093D000090D0030024744A16
:1009B800000000390024744C20BCBE4B40787D01F7
:1009C800DFF834D0FFF7DEFC0C480D490D4A002350
:1009D80002E0D458C4500433C4188C42F9D30A4AEC
:1009E8000A4C002301E013600432A242FBD300F05A
:1009F80011F8FFF76DFC704700000220000000208E
:100A080010000020940A0008100000205400002064
:100A1800FEE7000070B50D4D0D4C641BA4100026B8
:100A2800A64209D10B4D0C4C00F018F8641BA41019
:100A38000026A64205D170BD55F8043B98470136FB
:100A4800EEE755F8043B98470136F2E78C0A0008B0
:100A58008C0A00088C0A0008900A0008F8B500BF44
:100A6800F8BC08BC9E467047F8B500BFF8BC08BC87
:040A78009E467047DF
:100A7C000000000001020304010203040607080938
:040A8C00BD0200089F
:040A900099020008BF
:100A94000090D0030090D00301000000100000007B
:04000005080009C91D
:00000001FF
