:020000040800F2
:1000000000000220C1E60108497D01084B7D01087E
:100010004D7D01084F7D0108517D01080000000061
:10002000000000000000000000000000537D0108F7
:100030005F7D010800000000617D0108697D010805
:1000400011E7010811E7010811E7010811E70108AC
:1000500011E7010811E70108CD7D0108D77D0108EE
:10006000E17D0108EB7D0108F57D010811E701083C
:1000700011E7010811E7010811E7010811E701087C
:1000800011E7010811E7010811E7010811E701086C
:1000900011E7010811E7010811E70108FF7D0108D8
:1000A00011E7010811E7010811E7010811E701084C
:1000B00011E7010811E7010811E7010811E701083C
:1000C00011E7010811E7010811E7010811E701082C
:1000D00011E7010811E7010811E7010811E701081C
:1000E000257E010811E701080000000011E7010862
:1000F00011E7010811E7010811E7010811E70108FC
:1001000011E7010811E7010811E7010811E70108EB
:1001100011E7010811E7010811E7010811E70108DB
:1001200011E7010811E7010811E7010811E70108CB
:1001300011E7010811E7010811E7010811E70108BB
:1001400000000000000000000000000000000000AF
:1001500011E7010811E7010811E7010811E701089B
:1001600011E7010811E7010811E7010811E701088B
:1001700011E7010811E7010811E70108000000007C
:1001800011E7010811E7010811E7010811E701086B
:1001900011E7010811E7010811E7010811E701085B
:1001A00011E7010811E7010811E7010811E701084B
:1001B00011E7010811E7010811E7010811E701083B
:1001C00011E7010811E7010811E7010811E701082B
:1001D00011E70108BD7D010811E7010811E70108D9
:1001E00011E7010811E7010811E7010811E701080B
:1001F00011E7010811E7010811E7010811E70108FB
:1002000011E7010811E7010811E7010811E70108EA
:1002100011E7010811E7010811E7010811E70108DA
:1002200011E7010811E7010811E7010800000000CB
:1002300011E7010811E701080000000011E70108BB
:1002400011E7010811E7010811E7010811E70108AA
:1002500011E7010811E7010811E7010811E701089A
:1002600011E7010811E7010811E7010811E701088A
:1002700011E7010811E7010811E70108000000007B
:1002800011E7010811E7010811E70108000000006B
:080290000000000011E7010865
:100298000000000000000000000000000000000056
:1002A8000000000000000000000000000000000046
:1002B8000000000000000000000000000000000036
:1002C8000000000000000000000000000000000026
:020000040801F1
:1002A00010B5054C237833B9044B13B10448AFF3B0
:1002B00000800123237010BD100600200000000004
:1002C00080FC010808B5034B1BB103490348AFF399
:1002D000008008BD000000001406002080FC01081A
:1002E00010F8012B11F8013B012A28BF9A42F7D0E0
:1002F000D01A7047034613F8012B002AFBD1181AB5
:1003000001387047000000000000000000000000FD
:1003100001F0FF01102A2BDB10F0070F08D010F8B6
:10032000013B013A8B422DD010F0070F42B3F6D1BA
:10033000F0B441EA012141EA014122F007047FF0D3
:1003400000070023F0E80256083C85EA010586EA2A
:10035000010685FA47F5A3FA87F586FA47F6A5FA66
:1003600087F68EB9EED1F0BC01F0FF0102F0070272
:1003700032B110F8013B013A83EA010313B1F8D11D
:100380000020704701387047002D06BF35460338FE
:10039000073815F0010F07D1013015F4807F02BF37
:1003A000013015F4C03F0130F0BC0138704700BF88
:1003B00080F0004002E000BF81F0004142001FBF1A
:1003C0005FEA410392EA030F7FEA226C7FEA236C23
:1003D0006AD04FEA1262D2EB1363C1BFD218414018
:1003E00048404140B8BF5B42192B88BF704710F0AE
:1003F000004F40F4000020F07F4018BF404211F051
:10040000004F41F4000121F07F4118BF494292EAB8
:10041000030F3FD0A2F1010241FA03FC10EB0C00E4
:10042000C3F1200301FA03F100F0004302D5494271
:1004300060EB4000B0F5000F13D3B0F1807F06D31E
:1004400040084FEA310102F10102FE2A51D2B1F116
:10045000004F40EBC25008BF20F0010040EA03000B
:100460007047490040EB0000013A28BFB0F5000F8B
:10047000EDD2B0FA80FCACF1080CB2EB0C0200FA41
:100480000CF0AABF00EBC25052421843BCBFD04090
:100490001843704792F0000F81F4000106BF80F40A
:1004A00000000132013BB5E74FEA41037FEA226CCD
:1004B00018BF7FEA236C21D092EA030F04D092F098
:1004C000000F08BF0846704790EA010F1CBF0020CC
:1004D000704712F07F4F04D1400028BF40F0004029
:1004E000704712F100723CBF00F50000704700F049
:1004F000004343F0FE4040F4000070477FEA226270
:1005000016BF08467FEA23630146420206BF5FEA40
:10051000412390EA010F40F4800070474FF0000340
:1005200004E000BF10F0004348BF40425FEA000C07
:1005300008BF704743F0964301464FF000001CE0AF
:1005400050EA010208BF70474FF000030AE000BF05
:1005500050EA010208BF704711F0004302D5404243
:1005600061EB41015FEA010C02BF844601460020B5
:1005700043F0B64308BFA3F18053A3F50003BCFAD0
:100580008CF2083AA3EBC25310DB01FA02FC63447D
:1005900000FA02FCC2F12002BCF1004F20FA02F284
:1005A00043EB020008BF20F00100704702F1200277
:1005B00001FA02FCC2F1200250EA4C0021FA02F2D8
:1005C00043EB020008BF20EADC70704753B94AB918
:1005D000002908BF00281CBF4FF0FF314FF0FF304B
:1005E00000F074B9ADF1080C6DE904CE00F006F826
:1005F000DDF804E0DDE9022304B070472DE9F0479F
:10060000089D04468E46002B4DD18A42944669D9F6
:10061000B2FA82F252B101FA02F3C2F1200120FAD9
:1006200001F10CFA02FC41EA030E94404FEA1C4827
:10063000210CBEFBF8F61FFA8CF708FB16E341EA23
:10064000034306FB07F199420AD91CEB030306F1A9
:10065000FF3080F01F81994240F21C81023E6344CA
:100660005B1AA4B2B3FBF8F008FB103344EA03446E
:1006700000FB07F7A7420AD91CEB040400F1FF3383
:1006800080F00A81A74240F207816444023840EAC0
:100690000640E41B00261DB1D4400023C5E90043F9
:1006A0003146BDE8F0878B4209D9002D00F0EF807C
:1006B0000026C5E9000130463146BDE8F087B3FAAF
:1006C00083F6002E4AD18B4202D3824200F2F98097
:1006D000841A61EB030301209E46002DE0D0C5E99A
:1006E000004EDDE702B9FFDEB2FA82F2002A40F0E6
:1006F0009280A1EB0C014FEA1C471FFA8CFE0126E9
:10070000200CB1FBF7F307FB131140EA01410EFB8C
:1007100003F0884208D91CEB010103F1FF3802D233
:10072000884200F2CB804346091AA4B2B1FBF7F02D
:1007300007FB101144EA01440EFB00FEA64508D950
:100740001CEB040400F1FF3102D2A64500F2BB808D
:100750000846A4EB0E0440EA03409CE7C6F12007DC
:10076000B34022FA07FC4CEA030C20FA07F401FA22
:1007700006F31C43F9404FEA1C4900FA06F3B1FBAB
:10078000F9F8200C1FFA8CFE09FB181140EA014110
:1007900008FB0EF0884202FA06F20BD91CEB0101AD
:1007A00008F1FF3A80F08880884240F28580A8F105
:1007B00002086144091AA4B2B1FBF9F009FB101157
:1007C00044EA014100FB0EFE8E4508D91CEB0101F5
:1007D00000F1FF346CD28E456AD90238614440EA98
:1007E0000840A0FB0294A1EB0E01A142C846A64618
:1007F00056D353D05DB1B3EB080261EB0E0101FAA1
:1008000007F722FA06F3F1401F43C5E900710026FD
:100810003146BDE8F087C2F12003D8400CFA02FC53
:1008200021FA03F3914001434FEA1C471FFA8CFE63
:10083000B3FBF7F007FB10360B0C43EA064300FB53
:100840000EF69E4204FA02F408D91CEB030300F1F1
:10085000FF382FD29E422DD9023863449B1B89B2A8
:10086000B3FBF7F607FB163341EA034106FB0EF331
:100870008B4208D91CEB010106F1FF3816D28B42DE
:1008800014D9023E6144C91A46EA004638E72E46AA
:10089000284605E70646E3E61846F8E64B45A9D2A2
:1008A000B9EB020864EB0C0E0138A3E74646EAE711
:1008B000204694E74046D1E7D0467BE7023B6144BF
:1008C00032E7304609E76444023842E7704700BF28
:1008D00008B54FF4FA5003F057FA00F06FF900F042
:1008E000D3F903F097FA08BD00B583B002AB03E972
:1008F0000300064B5B6833B102AA12E90300984774
:1009000003B05DF804FB0020FAE700BFC40000203C
:1009100000B583B002AB03E90300064B9B6933B11A
:10092000BDF804109847012003B05DF804FB0020D7
:10093000FAE700BFC400002000B1FEE770470000E6
:1009400070B582B0214B1B782BB105460C46204B6D
:100950001B78012B11D91D4B1B78002B2DD01D4B63
:100960009C691D4B1A7C8DF800200FCBA0470428F2
:1009700027D0174B187802B070BD164B9E69164BE6
:100980001A7C8DF800200FCBB047032809D0114BFB
:100990009E69114B1A7C8DF800200FCBB0470028C0
:1009A000D9D10B4E022333700A4B1B6922462946CC
:1009B0000948984701203070DDE70420044B187087
:1009C000D9E70320024B1870D5E700BF410600208D
:1009D0002C060020BC02002030060020014B012222
:1009E0001A7070474206002008B506F06DF908B984
:1009F000012008BD0020FCE708B5024806F07AF99E
:100A000008BD00BFD8FD010838B506F069F8C8B1C7
:100A10000F4B5B684FF480520E490F4898470446CD
:100A2000A0B101250D4B1D700D4806F07BF90D4856
:100A300005F01EF90C4B1B690C49284698470C4BD6
:100A40001D7003E004460A4B02221A70204638BD8E
:100A5000BC020020F0FD0108300600204106002005
:100A6000DD090108E9090108E8020020410901083F
:100A700008000020F0B583B02C4B5C682C4B0122A1
:100A800093E80300A0472B4B1B78012B08D0274B82
:100A90005C68274B002293E80300A04703B0F0BD39
:100AA000254B1B78002BF2D0244B9C69244B1A7CDD
:100AB0008DF800200FCBA04748B1204B9C69204BFC
:100AC0001A7C8DF800200FCBA0470428DFD11B4BE8
:100AD0001C681B4B1A7C8DF800200FCBA047002808
:100AE000D5D0164B1C68164B1A7C8DF800200FCB06
:100AF000A04702F0D1FD06460028C8D00F4F3D6840
:100B00000F4C237C8DF8003094E80F00A847054671
:100B10007B69024631462046984729463046FFF712
:100B200063FF304602F018FEB1E700BF000000206E
:100B30004C0000200800002042060020BC020020DB
:100B40003006002038B5174D6B68174C012294E829
:100B5000030098476B68002294E80300984703F06D
:100B6000A1FC05460C4664220023FFF72FFD13432A
:100B70000ED10E4B1A685B68A34208BFAA4207D089
:100B80000B4A137883F001031370084B1D605C60FF
:100B9000084B5C68084B064A127893E80300A047AC
:100BA00038BD00BF000000201C00002048060020C7
:100BB0005C060020580100208000002010B5234C66
:100BC0002268234B93E8030090472268214B93E867
:100BD000030090472268204B93E8030090471F4C86
:100BE00022681F4B93E80300904722681D4B93E84F
:100BF0000300904722681C4B93E80300904722684B
:100C00001A4B93E8030090472268194B93E80300BE
:100C100090472268174B93E8030090472268164BD1
:100C200093E8030090472268144B93E80300904731
:100C30002268134B93E803009047FFF7E5FE00F0AE
:100C400063F8104804F0B0FD10BD00BF580100204B
:100C5000800000208800002090000020000000207C
:100C6000340000203C000020440000204C00002004
:100C7000140000201C000020240000202C00002074
:100C80000C0000204109010800B583B04FF4005367
:100C90000193144B009300231A464FF4FA61124853
:100CA00003F0E2F8114B18604FF480530193104B9E
:100CB00000930023012214210E4803F0D5F80E4BB7
:100CC00018604FF4807301930C4B009302230022B1
:100CD0004FF47A710A4803F0C7F80A4B186003B062
:100CE0005DF804FB290D010814FE010850060020E0
:100CF000750A010824FE010854060020450B01086E
:100D00002CFE01085806002008B5054B1B689847C3
:100D1000012800D008BD034B01221A70FAE700BF7A
:100D2000D40100205D06002010B50C4B5C680C4B14
:100D3000012293E80300A0470A4B1B7813B90A4B22
:100D40005B689847084BDB689847044B5C68044B2A
:100D5000002293E80300A04710BD00BF0000002060
:100D6000240000205D060020D401002007EE900A38
:100D7000F8EE677A17EE900AC0F3C7507F38C0B21A
:100D8000704700008CB0654B98422FD0644B98425E
:100D90003CD0644B984248D0634B984254D0634B4C
:100DA000984260D0624B98426CD0624B984278D0A7
:100DB000614B984200F08480604B984200F08F8035
:100DC0005F4B984200F09A805E4B98421CD103F52D
:100DD000E053D3F8E02042F48062C3F8E020D3F877
:100DE000E03003F480630B930B9B0DE003F5884325
:100DF000D3F8E02042F00102C3F8E020D3F8E0305D
:100E000003F001030193019B0CB0704703F580438D
:100E1000D3F8E02042F00202C3F8E020D3F8E0303B
:100E200003F002030293029BEEE703F57053D3F83D
:100E3000E02042F00402C3F8E020D3F8E03003F0F1
:100E400004030393039BDFE703F56053D3F8E0202B
:100E500042F00802C3F8E020D3F8E03003F00803C2
:100E60000493049BD0E703F55053D3F8E02042F0FD
:100E70001002C3F8E020D3F8E03003F0100305932C
:100E8000059BC1E703F54053D3F8E02042F0200270
:100E9000C3F8E020D3F8E03003F020030693069B6C
:100EA000B2E703F53053D3F8E02042F04002C3F834
:100EB000E020D3F8E03003F040030793079BA3E75B
:100EC00003F52053D3F8E02042F08002C3F8E0207D
:100ED000D3F8E03003F080030893089B94E703F510
:100EE0001053D3F8E02042F48072C3F8E020D3F826
:100EF000E03003F480730993099B85E703F5005301
:100F0000D3F8E02042F40072C3F8E020D3F8E030D8
:100F100003F400730A930A9B76E700BF00000258AF
:100F20000004025800080258000C02580010025831
:100F30000014025800180258001C025800200258E1
:100F4000002402580028025810B582B002AB03E911
:100F500003001446BDF80400FFF708FF024B43F8F6
:100F6000204002B010BD00BF6006002008B509F0A7
:100F700040FD08BD10B588B06B4683E80300044609
:100F8000FFF700FFBDF8043003930023049302230E
:100F90000593069303A9204609F06CFB012008B0D5
:100FA00010BD30B589B06B4683E80300B0B105468B
:100FB000FFF7E8FEBDF804100391012404940594A2
:100FC000002306939DF80620284609F012FD03A988
:100FD000284609F04FFB204609B030BD0020FBE752
:100FE00000B583B002AB03E90300BDF80430202B49
:100FF00017D81AB2002A45D0013B1F2B42D8DFE890
:1010000003F0454741394141413B41414141414163
:10101000413D4141414141414141414141414141C4
:10102000413FB3F5806F35D00BD9B3F5005F37D0B2
:1010300018D9B3F5804F37D0B3F5004F22D128200F
:101040000DE0B3F5807F27D004D9B3F5007F19D127
:10105000172004E0402B21D0802B13D1172003B0A0
:101060005DF804FBB3F5006F1CD0B3F5805F09D1C8
:101070002820F4E70820F2E70920F0E70A20EEE74D
:101080001720ECE70120FFF757FCE8E70620E6E72A
:101090000720E4E72820E2E71720E0E71720DEE753
:1010A0002820DCE72820DAE72820D8E7F0B589B047
:1010B0006B4683E80300A8B3144605466B4693E8E5
:1010C0000300FFF78DFF07F011F9022C2FD0032C3E
:1010D00030D0012C28D04FF404142846FFF752FEDC
:1010E000BDF8041003910494002705970326069683
:1010F0009DF80620284609F07CFC03A9284609F043
:10110000B9FA6C4694E80300FFF76AFF3A463146A5
:1011100007F0A8F894E80300FFF762FF07F0D8F89B
:1011200009B0F0BD0020FBE74FF48814D5E74FF479
:101130000414D2E74FF44414CFE70000F0B589B0AF
:101140006B4683E8030078B315460446FFF71AFEA2
:10115000BDF8046003964FF4041304930027059729
:10116000032306939DF806203146204609F041FCF2
:1011700003A9204609F07EFA3046FFF7F7FD0B4B36
:1011800043F820506C4694E80300FFF729FF3A46E5
:10119000042107F067F894E80300FFF721FF07F048
:1011A00097F8012009B0F0BD0020FBE760060020A1
:1011B00000B583B002AB03E90300BDF8041009F0E9
:1011C00011FC003818BF012003B05DF804FB0000DB
:1011D00008B5FFF7CBFD034B53F8203003B1984718
:1011E00008BD00BF600600208AB05B4B98422AD041
:1011F0005A4B984237D05A4B984243D0594B984259
:101200004FD0594B98425BD0584B984267D0584BBF
:10121000984273D0574B98427FD0574B984200F07A
:101220008B80564B98421CD103F5E053D3F8E02055
:1012300042F48062C3F8E020D3F8E03003F4806326
:101240000993099B0DE003F58843D3F8E02042F0B1
:101250000102C3F8E020D3F8E03003F0010300936B
:10126000009B0AB0704703F58043D3F8E02042F0BA
:101270000202C3F8E020D3F8E03003F00203019348
:10128000019BEEE703F57053D3F8E02042F004022F
:10129000C3F8E020D3F8E03003F004030293029B8C
:1012A000DFE703F56053D3F8E02042F00802C3F80B
:1012B000E020D3F8E03003F008030393039BD0E76A
:1012C00003F55053D3F8E02042F01002C3F8E020B9
:1012D000D3F8E03003F010030493049BC1E703F557
:1012E0004053D3F8E02042F02002C3F8E020D3F8C6
:1012F000E03003F020030593059BB2E703F530537C
:10130000D3F8E02042F04002C3F8E020D3F8E03008
:1013100003F040030693069BA3E703F52053D3F89D
:10132000E02042F08002C3F8E020D3F8E03003F080
:1013300080030793079B94E703F50053D3F8E0205D
:1013400042F40072C3F8E020D3F8E03003F40073F5
:101350000893089B85E700BF00000258000402586C
:1013600000080258000C02580010025800140258DD
:1013700000180258001C0258002402580028025885
:1013800010B1C161012070470020704710B582B0D4
:10139000BDF81040009409F01FFE10B1002002B00B
:1013A00010BD0120FBE708B50AF026F808B10020BF
:1013B00008BD0120FCE708B509F0ACFC08B100202D
:1013C00008BD0120FCE7000084B008B50DF1080C51
:1013D0008CE80F00099B2A4A934210D0294A934275
:1013E00025D0294A93422AD0284A93422FD0284A0E
:1013F000934234D0274A934239D0002013E0264A42
:10140000D2F8F03023F48053C2F8F03005990298F6
:1014100009F040FA0699039809F03CFA07990498F4
:1014200009F038FA0120BDE8084004B070471A4AB4
:10143000D2F8E83023F48043C2F8E830E6E7164AF1
:10144000D2F8E83023F40043C2F8E830DEE7124A6D
:10145000D2F8F03023F40053C2F8F030D6E70E4A49
:10146000D2F8F03023F48013C2F8F030CEE702F562
:101470000C32D2F8F43023F02003C2F8F430C5E780
:101480000030014000380040003C00400034014082
:1014900000500140001400580044025884B030B598
:1014A00087B00AAC84E80F00002301930222029265
:1014B0000393049305930546FFF796FE0D9B019356
:1014C000109C059401A9284609F0D4F80B9D2846E4
:1014D000FFF78AFE0E9B0193059401A9284609F0A7
:1014E000C9F80C9D2846FFF77FFE0F9B01930594DA
:1014F00001A9284609F0BEF8012007B0BDE8304038
:1015000004B0704784B010B5ACB02EAC84E80F00C6
:10151000359C534B9C4211D0524B9C4256D0524B5F
:101520009C4261D0514B9C426CD0514B9C4277D035
:10153000504B9C4200F08280002042E04E4BD3F89A
:10154000F02042F48052C3F8F020D3F8F03003F4D6
:1015500080530493049B32AB93E807008DE80700A7
:101560002EAB0FCBFFF79AFF0A944FF480030B9337
:1015700000230C9307220D92369A0E92379A0F92FF
:101580004FF080621092389A119212931393149331
:10159000159316931793189319931A931B931C93EF
:1015A0001D931E934FF000421F9220930AA809F04A
:1015B000FDFA002851D188220AA939980DF0DEF8E9
:1015C00001202CB0BDE8104004B070472A4BD3F87E
:1015D000E82042F48042C3F8E820D3F8E83003F46E
:1015E00080430593059BB6E7234BD3F8E82042F4EC
:1015F0000042C3F8E820D3F8E83003F40043069330
:10160000069BA8E71C4BD3F8F02042F40052C3F825
:10161000F020D3F8F03003F400530793079B9AE7C8
:10162000154BD3F8F02042F48012C3F8F020D3F821
:10163000F03003F480130893089B8CE703F50C3318
:10164000D3F8F42042F02002C3F8F420D3F8F430A9
:1016500003F020030993099B7DE70020B1E700BF59
:101660000030014000380040003C004000340140A0
:101670000050014000140058004402588AB05B4BEF
:1016800098422AD05A4B984237D05A4B984243D06E
:10169000594B98424FD0594B98425BD0584B984287
:1016A00067D0584B984273D0574B98427FD0574BD6
:1016B000984200F08B80564B98421CD103F5E053C2
:1016C000D3F8E02042F48062C3F8E020D3F8E030A1
:1016D00003F480630993099B0DE003F58843D3F875
:1016E000E02042F00102C3F8E020D3F8E03003F03C
:1016F00001030093009B0AB0704703F58043D3F8C1
:10170000E02042F00202C3F8E020D3F8E03003F01A
:1017100002030193019BEEE703F57053D3F8E02039
:1017200042F00402C3F8E020D3F8E03003F00403F1
:101730000293029BDFE703F56053D3F8E02042F009
:101740000802C3F8E020D3F8E03003F00803039365
:10175000039BD0E703F55053D3F8E02042F010028A
:10176000C3F8E020D3F8E03003F010030493049BA7
:10177000C1E703F54053D3F8E02042F02002C3F85C
:10178000E020D3F8E03003F020030593059BB2E797
:1017900003F53053D3F8E02042F04002C3F8E020D4
:1017A000D3F8E03003F040030693069BA3E703F56C
:1017B0002053D3F8E02042F08002C3F8E020D3F8B1
:1017C000E03003F080030793079B94E703F5005391
:1017D000D3F8E02042F40072C3F8E020D3F8E03000
:1017E00003F400730893089B85E700BF00000258CC
:1017F0000004025800080258000C02580010025859
:101800000014025800180258001C02580024025804
:1018100000280258002808BF002901D10020704785
:1018200038B5044600F188052422002128460CF032
:10183000B3FF2946201D0BF0FBFB012038BD40B152
:1018400008B504300BF0B2FC042814BF00200120BE
:1018500008BD0020704708B504300BF081F808B9C6
:10186000012008BD0020FCE710B582B04FF0FF3426
:10187000009404300AF06AFF10B9012002B010BDD4
:101880000020FBE710B582B04FF0FF340094043025
:101890000AF05AFE10B9012002B010BD0020FBE78B
:1018A00010B5B0B00446BC22002101A80CF074FFB2
:1018B000DCB1104B9C4202D0012030B010BD4FF47F
:1018C0008033019301A807F0E3FB80B90A4BD3F8FA
:1018D000D42042F48032C3F8D420D3F8D43003F4B7
:1018E00080330093009B0120E7E70020E5E700201C
:1018F000E3E700BF007000520044025810B586B004
:10190000002301930293039304930593022302930C
:1019100003230493002940D00C46214B984202D067
:10192000002006B010BD0B6B05930869FFF7A6FEFB
:10193000A36A019301A9206908F09CFE6069FFF782
:101940009DFEE36A019301A9606908F093FE206897
:10195000FFF794FEA369019301A9206808F08AFEAD
:101960006068FFF78BFEE369019301A9606808F0E6
:1019700081FEA068FFF782FE236A019301A9A06897
:1019800008F078FEE068FFF779FE636A019301A929
:10199000E06808F06FFE0120C3E70020C1E700BF48
:1019A0000070005210B50446D0F88400FFF778FFAD
:1019B0002168D4F88400FFF7A1FFD4F88430636075
:1019C000002323726372A372E37223736373A3739E
:1019D000E373237440226274A374E3742375637504
:1019E000A375E37523766376A376E37601222277E7
:1019F0006377A377E377201D0BF0E9FB08B901209B
:101A000010BD0020FCE770B582B0154661F07F0183
:101A10008DF8071000228DF80620D8B11E46044626
:101A20000268CAB14368CBB10020904763680122C5
:101A30000DF106010DF10700984763689DF8182025
:101A4000314628469847054623680120984728468E
:101A500002B070BD0025FAE70025F8E70025F6E79B
:101A600070B582B00023ADF80430ADF80030D8B1C5
:101A7000164604460368CBB14368CBB161F07F01E1
:101A80008DF80410036800209847636802226946B5
:101A900001A8984705462368012098479DF8013022
:101AA0003370284602B070BD0025FAE70025F8E73C
:101AB0000025F6E730B583B00023ADF80430ADF86B
:101AC0000030B8B104460368B3B14368B3B18DF8D0
:101AD00004108DF8052003680020984763680222EF
:101AE000694601A89847054623680120984728467B
:101AF00003B030BD0025FAE70025F8E70025F6E73A
:101B000010B590F81DE0BEF1070F94BF002401242A
:101B1000002C40D18446012000FA0EF010F08B0F0B
:101B200014BF0120002029D08CF81D10032A34D8BE
:101B3000DFE802F0020C11164FF08D41CCF81410C2
:101B4000032B2CD8DFE803F0111B1F234FF08C412F
:101B5000CCF81410F4E74FF08B41CCF81410EFE7F9
:101B60004FF08A41CCF81410EAE70E49CCF818106F
:101B7000D2008CF81020DB008CF8113010BD0A491F
:101B8000CCF81810F4E70949CCF81810F0E7084928
:101B9000CCF81810ECE70020F0E72046EEE72046EE
:101BA000ECE700BF000003430000834233330342ED
:101BB00033338341016042608360009BC3607047A0
:101BC00030B583B000238DF80730044600B3436876
:101BD000F3B10368E3B180226B21FFF76BFF054689
:101BE000E8B1A3680F2098470DF107027521204640
:101BF000FFF736FF0546B0B19DF80730682B16D0C9
:101C0000042384F85830A3680F209847002503E088
:101C1000012384F858300025284603B030BD032343
:101C200084F85830F8E7032384F85830F4E70322A7
:101C300068212046FFF73EFF054600285BD0A368D9
:101C40000F20984703226B212046FFF733FF0546FC
:101C5000002854D0A3680F20984710226A212046FC
:101C6000FFF728FF054600284DD0A3680F209847AE
:101C700000226C212046FFF71DFF0546002846D0B4
:101C8000A3680F209847627F19212046FFF712FFB3
:101C9000054600283FD0A3680F209847627C1B218F
:101CA0002046FFF707FF0546002838D0A3680F201D
:101CB0009847227C1C212046FFF7FCFE054690B386
:101CC000A3680F209847102237212046FFF7F2FE25
:101CD000054660B3A3680F209847012238212046AB
:101CE000FFF7E8FE054630B3A3680F2098470023AE
:101CF00084F8583090E7052384F858308CE70523A2
:101D000084F8583088E7062384F8583084E707239E
:101D100084F8583080E7082384F858307CE709239A
:101D200084F8583078E70A2384F8583074E70B2396
:101D300084F8583070E70C2384F858306CE790F83A
:101D400058007047012303777047007F70470020D9
:101D5000704770B58AB00023069307930893ADF8D7
:101D60002430029303930493ADF8143090F8585044
:101D7000002D5BD10446067F002E58D0C3689847DB
:101D8000C4F81E00C4F822100E23009302AB06AA6A
:101D90003B212046FFF737FE43E069000AAB03EB27
:101DA000450313F8200C4B1C0AAA134413F8202CEB
:101DB00042EA002212B205F1180304EB4303DA8071
:101DC0002B1D0AA800EB430313F8200C09310AABC2
:101DD000194411F8203C43EA00231BB205F1140119
:101DE00004EB41010B8107EE902AF8EEE77AD4ED7F
:101DF000056A87EEA67A05F1100204EB820282EDF5
:101E0000037A07EE903AF8EEE77AD4ED066A87EEA9
:101E1000A67A05F10E0304EB830383ED027A013504
:101E2000EDB2022DB9D90023237700E00026304619
:101E30000AB070BD844691F858300BB160467047C7
:101E400030B501F11E0302464E311D685C68D3F8BF
:101E500008E0D86815605460C2F808E0D06010331C
:101E600010328B42F1D118685968106051601B899B
:101E70001381604630BD70B582B00023ADF80430E8
:101E8000ADF80030D8B1164604460368CBB14368BC
:101E9000CBB161F07F018DF80010036800209847F6
:101EA0006368022201A96846984705462368012015
:101EB00098479DF805303370284602B070BD002564
:101EC000FAE70025F8E70025F6E730B583B00023F0
:101ED000ADF80430ADF80030B8B104460368B3B1D2
:101EE0004368B3B18DF800108DF80120036800201D
:101EF00098476368022201A9684698470546236807
:101F000001209847284603B030BD0025FAE7002598
:101F1000F8E70025F6E7000000B590F81DE0BEF1F7
:101F2000070F28D84FF0010C0CFA0EFC1CF08B0F99
:101F300021D04177032B1ED8DFE803F0020B0F13EB
:101F40004FF08D414161032A15D8DFE802F00E16EB
:101F5000191C4FF08C414161F5E74FF08B41416115
:101F6000F1E74FF08A414161EDE708498161DB000B
:101F70008374D200C2745DF804FB05498161F6E701
:101F800004498161F3E704498161F0E700000343FC
:101F900000008342333303423333834101604260A4
:101FA0008360009BC360704701230374704710B5C2
:101FB000044680226B21FFF788FFA368142098470E
:101FC000E3689847012010BD70B582B000238DF8FA
:101FD0000730044650B1436843B1036833B1FFF79B
:101FE000E6FF48B903232377002502E00123237786
:101FF0000025284602B070BD0DF10702752120466C
:10200000FFF739FFA3680A2098479DF80730122B85
:1020100003D0022323770025EBE701226B21204622
:10202000FFF753FFA3680A2098470DF107026B21C1
:102030002046FFF720FF9DF80760012E03D0042300
:1020400023770025D5E700226C212046FFF73DFFCE
:10205000A3680A2098470DF107026C212046FFF77C
:102060000AFF9DF807501DB1052323770025C0E71F
:10207000402270212046FFF728FFA3680A209847D6
:102080000DF1070270212046FFF7F5FE9DF807309D
:10209000402B02D006232377ABE7627F192120462D
:1020A000FFF713FFA3680A2098470DF107021921D3
:1020B0002046FFF7E0FE627F9DF807309A4202D08B
:1020C0000923237795E7A27C1C212046FFF7FDFE1C
:1020D000A3680A2098470DF107021C212046FFF74C
:1020E000CAFEA27C9DF807309A4202D007232377CC
:1020F0007FE7E27C1B212046FFF7E7FEA3680A206A
:1021000098470DF107021B212046FFF7B4FEE27C41
:102110009DF807309A4202D00823237769E76022AE
:1021200037212046FFF7D1FEA3680A2098470DF11A
:10213000070237212046FFF79EFE9DF80730602BEF
:1021400002D00823237754E7354652E7007C7047D6
:1021500008B1012070470020704770B505460B7F1D
:10216000DBB94B7CCBB90B7401F11E0302464E3137
:10217000D3F800C05E689C68D868C2F800C056609A
:102180009460D060103310328B42F1D118685968D6
:10219000106051601B89138115E001F1580E2C4627
:1021A00001F1880C76460FCE20606160A260E3608A
:1021B000B64610346645F5D1BEE803002060616084
:1021C000BEF800302381284670BD007F70470000B4
:1021D00000B583B002AB03E90300064B5B683BB17B
:1021E00002AA12E903009847012003B05DF804FB3E
:1021F0000020FAE7C400002000B583B002AB03E979
:102200000300064B9B6933B1BDF8041098470120C9
:1022100003B05DF804FB0020FAE700BFC400002013
:10222000002848D010B50446244B1B689847B8B323
:10223000224B5B6904F1880120469847A0B3D4F88B
:102240009830C4F8BE30D4F89C20C4F8C220D4F82A
:10225000A820C4F8CE20D4F88820C4F8AE20D4F842
:10226000A020C4F8C620D4F8A420C4F8CA20D4F80A
:102270009420C4F8BA20012284F8AD20002084F80C
:10228000DA0084F8DB0084F8D20084F8D30084F804
:10229000D40084F8D500C4F8D63084F8AC0010BD62
:1022A000022084F8AC00FAE7002384F8AD30032064
:1022B00084F8AC00F3E70120704700BFF80000206D
:1022C00010B190F8AC0070470120704738B5054652
:1022D0000C462F2200210CF05FFAECB104F1AD03A3
:1022E0002A46CD34D3F800E0D3F804C09868D96802
:1022F000C2F800E0C2F804C09060D1601033103220
:10230000A342EFD11C6858689968146050609160CE
:1023100099899B7B91819373284638BD38B5BDF868
:1023200010C01446002A18BF00280CBF012200224A
:102330001BD08646002918BFBCF1000F0CBF01203E
:10234000002014D0DEF8BE208A420FD3DEF8C2206F
:1023500002FB0CF2934209D1064B9D6863460A4684
:1023600021467046A847012000E0002038BD1046F5
:10237000FCE700BFF800002038B5BDF810408446E7
:10238000002A18BF00280CBF0120002014D0964658
:102390009CB1DCF8BE208A420FD3DCF8C22004FBDB
:1023A00002F2934209D3054B5D6823460A46714603
:1023B0006046A847012000E0002038BDF80000205A
:1023C000F0B589B02A4B5A682A4B93E8030090472E
:1023D000002841D0264B1C68274B284A93E803006D
:1023E000A04700283BD0264D264CAC4620686168AB
:1023F000A268E368ACE80F0020696169A269ACE8F3
:102400000700214E214C224B0093224B224A2349A4
:1024100020463768B847766803231A4601212046CC
:10242000B0471F4B1C681F4B0793EC4605F1100E7D
:10243000BEE80F00ACE80F009EE807008CE807003C
:1024400095E80F00A04768B10F4B9B680F4898476D
:1024500058B1002009B0F0BD6FF00700FAE76FF047
:102460000600F7E76FF00500F4E76FF00400F1E70E
:10247000C4000020B4000020BC0000202926010870
:10248000A80100209800002010010020BC070020B7
:102490009944010801450108C92501089125010851
:1024A000E000002018080020F0B589B02A4B5A68D7
:1024B0002A4B93E803009047002841D0264B1C6824
:1024C000274B284A93E80300A04700283BD0264D1D
:1024D000264CAC4620686168A268E368ACE80F004F
:1024E00020696169A269ACE80700214E214C224BAA
:1024F0000093224B224A234920467768B847366822
:1025000003231A4601212046B0471F4B1C681F4B6E
:102510000793EC4605F1100EBEE80F00ACE80F0083
:102520009EE807008CE8070095E80F00A04768B117
:102530000F4B9B680F48984758B1002009B0F0BD79
:102540006FF00300FAE76FF00200F7E76FF00100A9
:10255000F4E74FF0FF30F1E7C400002070000020E6
:10256000780000204D2601087C0100205400002046
:1025700034010020A006002099440108014501080B
:10258000ED250108AD250108E000002034070020FA
:1025900010B50246034B9C69034B99881868A04705
:1025A00010BD00BFC4000020B400002010B50246DA
:1025B000034B9C69034B99881868A04710BD00BF66
:1025C000C40000207000002010B582B01346054AF8
:1025D00014694FF47A7200920A4601460248A047F5
:1025E00002B010BDE00000201808002010B582B035
:1025F0001346054A14694FF47A7200920A4601465E
:102600000248A04702B010BDE000002034070020BF
:1026100008B5034BDB68034A1068984708BD00BF44
:10262000E80200205C09002008B5054B1B7813F078
:102630000F0F03D0034B5B690348984708BD00BFE9
:102640006009002010010020BC07002008B5054BE0
:102650001B7813F0F00F03D0034BDB680348984757
:1026600008BD00BF6009002034010020A006002042
:102670000B6801330B6070470B6801330B607047C8
:102680000B6801330B60704770B58CB005460C4683
:102690002C22002101A80CF07FF8012C1FD0022C65
:1026A00038D00DF1040CAE4609AE64460FCCCEF81E
:1026B0000000CEF80410CEF80820CEF80C30A44666
:1026C0000EF1100EB442F0D1BCE80700CEF80000C5
:1026D000CEF80410CEF8082028460CB070BD1B4B75
:1026E0001B7813F00F0F0AD101AC194E0FCE0FC497
:1026F0000FCE0FC496E8070084E80700D1E701ACCD
:10270000144E0FCE0FC40FCE0FC496E8070084E816
:102710000700C6E70D4B1B7813F0F00F0AD101AC90
:102720000D4E0FCE0FC40FCE0FC496E8070084E8FD
:102730000700B6E701AC094E0FCE0FC40FCE0FC491
:1027400096E8070084E80700ABE700BF64090020B3
:10275000A0080020CC080020F80800202409002050
:1027600038B5374C236837489847374B186063684B
:10277000092236499847FFF723FE0546FFF794FEE6
:1027800004460023324A1370324A13708DBB304B1B
:102790001A78012161F303021A70002C33D12C4BFB
:1027A0001A78012161F307121A702C2422460021A5
:1027B00029480BF0F1FF2246002128480BF0ECFFDE
:1027C0002246002126480BF0E7FF2246002125483B
:1027D0000BF0E2FF1E4B1B78FBB113F00F0202D18E
:1027E00013F0F00F23D12AB313F0F00F24D0002000
:1027F00038BD134B9D6804231B4A6FF00401124837
:102800000068A847C9E70E4B9C680423174A4FF09D
:10281000FF310D480068A047C7E7094B9C680423B7
:10282000134A012108480068A0470120E0E76FF043
:102830000400DDE70020DBE74FF0FF30D8E700BF02
:10284000E802002034FE01085C090020E4010020B9
:102850006009002064090020A0080020F80800207A
:10286000CC08002024090020540900205809002029
:1028700050090020F8B501F00FFE05460C464E4BFE
:102880001B7813F00F0F48D04C4B1B694C489847EE
:10289000002842D0494B9B694948984700283CD0C2
:1028A000484B1A78012161F303021A70464B9A686B
:1028B000D968013241F100019A60D9601D605C6005
:1028C0003F4AD26B1A610023022B17D83C4903F10F
:1028D000100201EB8202D6683B4A03F1080002EBCA
:1028E0008000066003F10E0001EB80018968181D6D
:1028F00002EB800251600133DBB2E5E7314B1A781D
:102900006FF303021A70314E2F4F0FCF0FC60FCF48
:102910000FC697E8070086E80700274B1B7813F0DF
:10292000F00F48D02A4B1B692A489847002842D00C
:10293000274B9B692748984700283CD0214B1A78A1
:10294000012161F307121A70234B9A68D96801328A
:1029500041F100019A60D9601D605C601D4AD26B34
:102960001A610023022B17D81A4903F1100201EB58
:102970008202D468184A03F1080002EB8000046068
:1029800003F10E0001EB80018968181D02EB800243
:1029900051600133DBB2E5E70A4B1A786FF3071297
:1029A0001A700E4C0C4D0FCD0FC40FCD0FC495E80F
:1029B000070084E80700F8BD60090020100100202E
:1029C000BC07002064090020A0080020CC080020DB
:1029D00034010020A0060020F8080020240900206F
:1029E0000378427843EA0223827843EA0243C078BC
:1029F00043EA006070470378407843EA002070475C
:102A000059B10870C0F307224A70C0F307428A70B8
:102A1000C0F30760C8700120704700207047B0F80D
:102A20000920B0F80B309A420DD0C18859B101335A
:102A3000818893FBF1FC01FB1C33934207D00023F8
:102A40000372184670470323037218467047042325
:102A500003721846704788B3F8B50F461646044609
:102A600083886BB3027A032A18BF002A24D1C28854
:102A70009B1A9E4201DC00251CE001201DE0A2887B
:102A8000B4F80B30B3FBF2F102FB11339AB2A4F8A5
:102A90000B30D4F80D30795D9954B4F80B30013314
:102AA000A4F80B30E3880133E3802046FFF7B7FF3B
:102AB0000135ADB2B542E2D3207AF8BD05207047AA
:102AC0000520FAE7B0B3F8B50F46164604468388EA
:102AD00093B3037A042B18BF002B29D1C3889342E8
:102AE00001D3002522E0022023E0A288B4F80930B7
:102AF000B3FBF2F102FB11339AB2A4F80930D4F817
:102B00000D309B5C7B55D4F80D20B4F809300021C2
:102B1000D154B4F809300133A4F80930E388013BFB
:102B2000E3802046FFF77BFF0135ADB2B542DCD331
:102B3000207AF8BD052070470520FAE78446002B6F
:102B400018BF00280CBF0120002019D070B51D4609
:102B5000AAB100200FE0DCF80D40BCF809300B44AE
:102B60000344BCF804E093FBFEF60EFB1633E35C73
:102B700013540130C0B283B2AB42ECD3012070BD1C
:102B80000020704784B08DE80F009DF8080004B065
:102B9000704784B08DE80F00BDF8060004B07047A0
:102BA000B8B108B50346D0F80D00A0B19A880AB9AB
:102BB000002008BD0021D972197359729972997158
:102BC000D9714FF0030C83F808C00BF0E5FD01202C
:102BD000EFE7002070470020EBE770B5002A18BF30
:102BE00000280CBF0124002402D10024204670BD1F
:102BF000054601600026C6720673467286728671AB
:102C0000C6718280104600F047FDC5F80D00AA8805
:102C100031460BF0C1FDD5F80D30002BE6D0032373
:102C20002B720124E2E703690A6902610B617047B4
:102C300010B40C690461CC68C4604B600A70027007
:102C40004360002383605DF8044B7047034620B166
:102C5000002018619860D86070476FF001007047DD
:102C600038B504460D46FFF7F1FF00B9256138BDC0
:102C700008B5C3681BB18068FFF7FAFF08BD816023
:102C8000C860FBE708B50346C06810B1FFF7FAFF5C
:102C900008BDD9608B60FBE738B543687BB104465B
:102CA0000D46006958B1096949B1984738B12A6998
:102CB000824205D0E06840B12946FFF7EDFF38BDFC
:102CC00029462046FFF7AFFFF4E7E560AC6000233C
:102CD000EB60F4E7002818BF002913D008B543685B
:102CE0004B6003780B70012B06D0022B07D003B189
:102CF00008BDFFF7BDFFFBE7FFF7C4FFF8E7FFF7ED
:102D0000CBFFF5E7704728B32DE9F0410D46174694
:102D10001C4680460E1E18BF0126002B14BF002340
:102D200006F001030BB10169A847D8F80C0020B1E7
:102D300023463A462946FFF7E6FF012C14BF00263A
:102D400006F001064EB13A46D8F810104046A847A2
:102D5000002003E06FF0010070470020BDE8F08123
:102D600008B90020704738B50546D0F80E00FFF7C7
:102D7000F7FF80B2013004B2D5F81200FFF7F0FF80
:102D800080B2013000B2A042B8BF204638BD08B9B9
:102D90000020704738B50546D0F80E00FFF7E0FF79
:102DA00084B2D5F81200FFF7DBFF80B2201A00B220
:102DB00038BD08B5034628B1D0F80A0010B1FFF7B6
:102DC000F8FF0346184608BD70B5054650B3D0F865
:102DD0000E40D0F80A6076B1D0F81E306168706895
:102DE00098476168884217D0D5F81E3070689847B8
:102DF0006368984213D0C4F80A60D4F81230C5F85A
:102E00000E30D4F812300BB1C3F80A50C4F8125087
:102E1000C5F80A40204670BDC6F80E40EBE7C6F87C
:102E20001240E8E70446F5E770B5054650B3D0F820
:102E30001240D0F80A6076B1D0F81E306168706830
:102E400098476168884217D0D5F81E307068984757
:102E50007368984213D0C4F80A60D4F80E30C5F8ED
:102E60001230D4F80E300BB1C3F80A50C4F80E502B
:102E7000C5F80A40204670BDC6F80E40EBE7C6F81C
:102E80001240E8E70446F5E760B338B50446FFF7BB
:102E90007EFF022803D010F1020F12D038BDD4F803
:102EA0000E502846FFF773FFB0F1FF3F03D02046D6
:102EB000FFF78AFFF2E72846FFF7B6FFC4F80E00D7
:102EC000F5E7D4F812502846FFF761FF012803D038
:102ED0002046FFF7A9FFE1E72846FFF775FFC4F892
:102EE0001200F5E7704770B5002918BF00280CBF25
:102EF0000124002428D005460E46D0F81630496833
:102F000040689847736883420BD06B6883421CD13A
:102F1000D5F8120098B9C6F80A50C5F81260012415
:102F200013E0D5F80E0028B9C6F80A50C5F80E60AF
:102F300001240AE03146FFF7D6FF044605E031469A
:102F4000FFF7D1FF044600E00024204670BDC0B169
:102F500010B50446FFF71BFF2081D4F80E00FFF7E1
:102F6000F6FFD4F81200FFF7F2FFB4F9083013F1BE
:102F7000020F18BF022B00D010BD2046FFF784FFC0
:102F8000FAE7704750B110B50446406828B1FFF722
:102F900010FF10B16060FFF7DAFF10BD7047844684
:102FA000002818BF002A14BF012000201BD010B534
:102FB0009646029A002A18BF002B0CBF012200225D
:102FC0000DD0039C6CB1CCF80010CCF804E0CCF828
:102FD0001E40CCF81630029BCCF81A3010BD0020F1
:102FE000FCE71046FAE7704780B138B50C46054655
:102FF00009B1406888472146D5F80E00FFF7F4FF75
:103000002146D5F81200FFF7EFFF38BD704778B1C1
:1030100038B50C460546D0F80E00FFF7F8FF0CB1A6
:103020006868A0472146D5F81200FFF7F0FF38BDC9
:10303000704778B138B50C460546D0F80E00FFF75A
:10304000F8FF2146D5F81200FFF7F3FF0CB16868CE
:10305000A04738BD7047B0B108B50B46406828B1ED
:10306000022B08D0032B0AD0012B00D008BD11463B
:10307000FFF7BAFFFAE71146FFF7C9FFF6E7114677
:10308000FFF7D7FFF2E7704770B582B004461546E8
:10309000002300938DF8043004238DF804300E468D
:1030A000A1B1D6F81A302946706898478DF8040007
:1030B000022819D003280ED001280ED000982060D5
:1030C0009DF804302371204602B070BDD1F81A304B
:1030D000002BE6D1F2E70096F0E72A46D6F80E106C
:1030E0002046FFF7D1FFEEE72A46D6F81210204619
:1030F000FFF7CAFFE7E700B583B004238DF804307B
:1031000000230093002918BF00280ED00A46C1688A
:1031100079B141686846FFF7B7FF9DF80430032B8B
:1031200001D0002002E0009800E0002003B05DF82C
:1031300004FB0020FAE720B3F0B583B00F46154634
:103140000446222000F0A8FA0646E36822690192AC
:103150000093A3682A463946FFF721FF16B90020DD
:1031600003B0F0BD2046FFF70DFF606838B131466F
:10317000FFF7B9FE2046FFF705FF0120F0E7666084
:10318000F8E700207047F8B507460C4615461E467E
:10319000142000F081FA68B1002C18BF002D0AD06D
:1031A0004EB10760C56084600661002303714371FE
:1031B0008371C371F8BD00F0CFFA0020FAE7000078
:1031C000012383F31388BFF34F8F0549CA6802F4C4
:1031D000E062044B1343CB60BFF34F8F00BFFDE7AA
:1031E00000ED00E00400FA0582B003460022ADF8CD
:1031F0000620ADF80420084301D18B420ED1B3F96B
:1032000000200FFA82FCADF80620B1F9002010B2C0
:10321000ADF80420844503DC04DB002002B07047D5
:103220000846FBE71846F9E782B0B0F90030ADF880
:103230000630B1F90030ADF80430BDF8062012B206
:10324000BDF804301BB29A4211DCBDF8062012B260
:10325000BDF804301BB29A420BDBBDF8062012B257
:10326000BDF804301BB29A4205D002B0704701206D
:10327000FBE70220F9E70320F7E70000B0B1F8B55B
:103280000E461546074600240BE0094B5B6804EB2D
:10329000440206EBC2025168D7F802009847013495
:1032A000A4B2AC42F1D33D800120F8BD00207047AC
:1032B000D8020020012802D0022803D07047034B17
:1032C00019607047024B1960704700BF80090020E9
:1032D0007C0900200FB4F0B5A3B028AC54F8045B0F
:1032E000002102917C2203A80BF056FA0194104BA6
:1032F0001B7833B90024204623B0BDE8F04004B069
:10330000704723462A46802102A80BF0F7FA0446AC
:1033100087B20849A1F80100074E3369074D04221E
:103320002846984733693A4602A928469847E2E773
:103330007909002084090020BC02002068090020CF
:1033400070B50546164B1B785BB9164B5B684FF49E
:103350008062154915489847154B1870104B01228B
:103360001A700A2000F098F90446B8B1114B1E6893
:1033700011490B46114A2846B047C4F80200237889
:103380000023237062786370A279A371E279E371FC
:10339000227A2372627A6372204670BD0020FCE7B5
:1033A0007A090020BC0200204CFF010868090020B7
:1033B00079090020D8020020E931010829320108EA
:1033C000F0B587B0002303930493ADF814300028C0
:1033D0005AD02F4B1C78002C57D02E4BDD6804237D
:1033E00003AA00212C48A8479DF80C30002B4CD094
:1033F0002A4B1B68002B42D0BDF80D0000F04CF9A1
:103400000546002841D0234B9E69234B1A7C8DF83A
:1034100000200FCBB047042808D01E4B9E691E4BDE
:103420001A7C8DF800200FCBB04720BB194F7B6969
:10343000194E042203A9304698477B69BDF80D2038
:103440002946304698479DF80C3013F00F0F06D0F0
:10345000124B1B681BB1BDF80D10284698479DF80C
:103460000C3013F0F00F06D00D4B1B681BB1BDF8EC
:103470000D1028469847284600F06EF905E0084BE5
:103480001B68002BB8D100E00024204607B0F0BD37
:1034900079090020BC020020680900208009002072
:1034A0007C0900202DE9F04F83B015461E46ADF88B
:1034B0000610414B00221A6000287BD00F46804640
:1034C0003E4B9B680DF10601D0F802009847044678
:1034D0000095ADF804604368C3F80E5043685E82FF
:1034E000002860D04368002B5DD0597ADFF8C8A06F
:1034F0009AF8002061F307128AF80020197AD2B2F4
:1035000061F303028AF800205868FCF7F3FE814655
:10351000D8F802301868FCF7EDFE81441FFA89F9EB
:1035200009F10509AAF80190254B1B788BB3DAF84D
:10353000003073B3DFF894A0DAF81030DFF8909021
:1035400004221D4948469847DAF8103002221D49E6
:1035500048469847DAF810B0D8F80230D3F800801F
:103560004046FCF7C7FE82B241464846D847DAF8E3
:1035700010300322144948469847DAF810A06368CF
:10358000D3F804804046FCF7B5FE82B24146484677
:10359000D04763689A7832B9D3F80A301BB1324603
:1035A000294638469847044B00221A60012003B090
:1035B000BDE8F08F0020FAE784090020D80200203F
:1035C0007909002058FF01085CFF0108BC020020B7
:1035D00068090020194B00E01B681A688242FBD37F
:1035E000002B2AD05A681A4482420BD0426800EB62
:1035F000020C19688C450BD01A68026098421CD0E6
:10360000186070475A6841680A445A601846EDE7E6
:1036100010B41C680A4909688C420CD019684968C2
:103620000A4442601A6812680260984200D018602A
:103630005DF8044B70470160F7E770478C09002084
:1036400088090020F8B50F4C4FF480322260002624
:103650006660012767610C4D314628460BF09CF8E7
:103660000A4B1D605E600A4B0A4A13604FF6F872FF
:10367000E2602B604FF6F073E3606B60A36084F848
:103680002070F8BD94090020000000248C0900205F
:10369000F8FF00248809002070B5044672B62A4B52
:1036A00093F8203093B1002C43D00834A3B214F027
:1036B000030F03D023F0030304339BB21D46224AB9
:1036C0009268934239D8214A146807E0FFF7BAFF9D
:1036D0001D4B1E4A1A61E6E722461C4663689D425E
:1036E00002D92368002BF7D104F07F41184B99428F
:1036F00025D1184B1B68A34223D013498B69013392
:103700008B61166808362368136063685B1B082B9F
:1037100009D80D4B9A68521B9A605A682A445A601D
:103720000023236006E0601943606560FFF752FFE5
:10373000EFE7002662B6304670BD0026FAE70026A5
:10374000F8E70026F6E700BF940900208C09002066
:10375000000000248809002040B102460C49CB69D2
:103760000133CB61083852F8083C03B1704710B5FB
:1037700072B60B46496852F8044C091B596052F85E
:10378000041C9A680A449A60FFF724FF62B610BDD1
:103790009409002010B542784FEAD20E02F00702D9
:1037A000094B19784FF0010C0CFA0EF42143C9B201
:1037B0001970734459780CFA02F20A43D2B25A7063
:1037C00080F800C010BD00BFF80A0020407800F06B
:1037D000070C0D4B03EBD0035A78012101FA0CF1D1
:1037E00022EA01025A70597861B900B54FEAD00E49
:1037F00005490B78012202FA0EF223EA02030B704C
:103800005DF804FB704700BFF80A0020407800F024
:10381000070C0D4B03EBD0035A78012101FA0CF190
:1038200022EA01025A70597861B900B54FEAD00E08
:1038300005490B78012202FA0EF223EA02030B700B
:103840005DF804FB704700BFEC0A0020FEE70000B3
:10385000144B1B781BB3134B1A78D2B212498A5CF3
:1038600013445B78DBB2CB5C03EBC2000F4951F829
:10387000200000B1704710B50A4991F800E04FF000
:10388000010C0CFA02F42EEA040E81F800E00A445E
:1038900051780CFA03F321EA0303537010BD0020A2
:1038A000704700BFF80A002068FF0108D409002013
:1038B000144B1B781BB3134B1A78D2B212498A5C93
:1038C00013445B78DBB2CB5C03EBC2000F4951F8C9
:1038D000200000B1704710B50A4991F800E04FF0A0
:1038E000010C0CFA02F42EEA040E81F800E00A44FE
:1038F00051780CFA03F321EA0303537010BD002042
:10390000704700BFEC0A002068FF0108D4090020BE
:1039100082B002464078C3088DF807304B784FEAF2
:10392000D30C8DF806C000F007008DF8050003F0F9
:1039300007038DF80430B2FA82F35B09B1FA81F023
:10394000400903427DD100290CBF002303F001038D
:1039500033B10B78043BDBB2012B75D9084671E01B
:10396000002A0CBF002000F0010030B11378043BA6
:10397000DBB2012B6AD9104664E09DF80700C0B2A3
:103980009DF80630DBB298420BD21378043BDBB2D1
:10399000012B5DD80B78043BDBB2012B5AD90846CA
:1039A00050E09DF80700C0B29DF80630DBB29842A7
:1039B0000BD90B78043BDBB2012B4DD81378043BB9
:1039C000DBB2012B4AD910463CE09DF80700C0B29B
:1039D0009DF80630DBB2984234D19DF80500C0B2A4
:1039E0009DF80430DBB298420BD21378043BDBB273
:1039F000012B35D80B78043BDBB2012B32D90846BA
:103A000020E09DF80500C0B29DF80430DBB298427A
:103A10000BD90B78043BDBB2012B25D81378043B80
:103A2000DBB2012B22D910460CE00B78043BDBB251
:103A3000012B1DD81378043BDBB2012B1AD9104699
:103A400000E0002002B070470020FBE70020F9E70B
:103A50001046F7E70020F5E70846F3E70020F1E716
:103A60001046EFE70020EDE70846EBE70020E9E726
:103A70000846E7E70020E5E738B50446002545702D
:103A800045608560858105614562856200238363A9
:103A900005634563143000F0B3FC257038BD0000A9
:103AA000C9B110B50C460D4B1B78DBB2022B01D00F
:103AB000002010BD0B78032B18BF012B01D0052B64
:103AC000F6D16069A16900F00DFD0028F0D0204614
:103AD000FFF760FEECE70020704700BF100B0020EE
:103AE00010B582B000220023CDE900230D4B1B68E6
:103AF00001221A7000F0D0FCDDE90023994208BFD2
:103B0000904201D102B010BD00F0C6FCCDE9000129
:103B1000054CD4E90023501C43F10001C4E9000125
:103B2000F0E700BFC4090020080B002010B50446D0
:103B3000C26B92000021406C0AF02EFE04F1440397
:103B4000E16B6FF040420A4403EB820323F007036A
:103B50004FF0807243F8042C084A22F0010243F827
:103B6000082C074A43F80C2C002243F8202C6FF055
:103B7000020243F8242C443B236410BD0541010894
:103B80004D38010810B55020FFF786FD0E4B186028
:103B9000B0B104460D4B4360802343700C4B03616E
:103BA0004FF48073C3634FF48060FFF775FD60646A
:103BB000054B1868436C2BB1FFF7B8FF012010BD0F
:103BC0000020FCE70020FAE7C409002060FF01089C
:103BD000E13A010870B52DED028B82B004466846CB
:103BE00000F00EFC2378012B03D002B0BDEC028B59
:103BF00070BD0023A3642046FFF7E8FD304B1C6036
:103C0000A36A4BB92F4B1B68A34205D000F044FCBC
:103C1000E06121626061A1612369002B3CD0022236
:103C2000227020469847274B1B68A342DDD0A36A29
:103C30000133A362A16C236B626B5B1842F100023B
:103C4000236362636269A369E069216A00F0DDFBB6
:103C5000CDE90001A08900F03BFC6061A161266B09
:103C6000656BDDE90001FCF76BFC08EE100A3046DD
:103C70002946FCF765FC07EE100AC7EE087AC4ED8A
:103C80000E7A9FED117A67EE877AC4ED0E7AA56AF7
:103C90002DB903232370A8E703232370A5E700F0C1
:103CA0000DFCFCF74DFC06EE900A07EE905AF8EE7C
:103CB000677A87EEA67ABCEEC77A84ED097AE8E7E0
:103CC000B8090020C40900200000C842000000001C
:103CD000074B19680868B0E8F04F1EF0100F08BFD6
:103CE000B0EC108A80F30988BFF36F8F704700BF74
:103CF000BC090020000000000000000000000000DF
:103D0000EFF30980BFF36F8FDFF850301A681EF0B1
:103D1000100F08BF20ED108A20E9F04F10602DE948
:103D200009004FF0300080F31188BFF34F8FBFF3CD
:103D30006F8F00F015F84FF0000080F3118809BC78
:103D400019680868B0E8F04F1EF0100F08BFB0EC1B
:103D5000108A80F30988BFF36F8F7047BC09002079
:103D6000054B064A92E8030083E80300044B1A68F7
:103D7000044B1A60704700BFBC090020CC0900202A
:103D8000C8090020B80900202DE9F041804600F064
:103D90008BFA0028FBD0002718E0194D04EBC7066A
:103DA00005EB8600FFF768FE55F826200023D36355
:103DB00055F82620536455F82620136445F826301C
:103DC0000134E4B2072CE8D90137FFB2072F01D83C
:103DD0000024F7E70B4B00221A705A611A61DA606F
:103DE000094B1868FFF748FE084B1868FFF744FEB8
:103DF000404600F09DFA064B01221A70BDE8F081A2
:103E0000D4090020D40A0020B8090020C8090020E5
:103E1000100B002010B5FFF71BFD0E4B186050B1C2
:103E200000F140020C4B1A60426C5A600B4A93E856
:103E3000030082E803000224094B1C70FFF7A2FE76
:103E400000F04AFA0749204600F056FA00F034FA2A
:103E500010BD00BFC8090020CC090020BC0900200B
:103E6000100B0020254001082DE9F84317461C4699
:103E700003EBC202564B53F8223023B14FF0000837
:103E80004046BDE8F88306460D465020FFF704FC87
:103E900004EBC7034E4A42F82300002800F08E804E
:103EA000804646601646994652F823309D6049493F
:103EB000B1FBF5F552F829309D8152F82930089A66
:103EC0001A6156F8293044EAC7025A7056F8293068
:103ED000099ADA6356F82950900080B2FFF7DCFBAC
:103EE000686456F82900436C002B6AD0FFF71EFE69
:103EF00035464E4655F829304FF00009C3F8489032
:103F000055F8263000229A6355F82630C3F83090D1
:103F1000C3F83490304B197855F8260090F801C05A
:103F2000012202FA0CF241EAE201C9B2197003EB74
:103F3000DC03597802F007020A435A70C0F8249053
:103F400055F82600143000F05BFA55F826001C30B6
:103F500000F056FA55F82630C3F8289055F8263068
:103F600083F82C9055F82600FFF714FC55F826909E
:103F70001420FFF791FBC9F84C0055F82610C86CC7
:103F800010B3FEF76DFE154B1B786BB955F8261074
:103F9000134B0222C96C1348FEF74AFE0F4A1378EE
:103FA0000133DBB213706BE704EBC704084B53F823
:103FB0002430D96C0B48FEF78DFEEFE74FF0000878
:103FC0005EE74FF000085BE74FF0000858E700BFDE
:103FD000D409002040420F00F80A0020D40A002033
:103FE00011390108D80A002010B590F801C04FEA35
:103FF000DC020CF0070E0A4B19784FF0010C0CFA9A
:1040000002F42143C9B2197013445A780CFA0EFC19
:1040100042EA0C02D2B25A700623037010BD00BFF0
:10402000EC0A002030B583B0CDE900012E4B1B789F
:1040300033BBFFF70DFC0446FFF73AFC0146204670
:10404000FFF766FC294D2968FFF762FC04462B68E0
:10405000834230D090B10378062B18D0234B1868D8
:1040600038B1234B1B68984203D00378DBB2022B94
:1040700013D02378043BDBB2012B11D803B030BD41
:1040800000236A461B491C48FEF73DFED1E7FFF7B7
:10409000BDFB2046FFF77EFBE0E7FFF7A5FFE8E763
:1040A000164B1C6004F14002154B1A60626C5A609A
:1040B00000F01AF9E2E798B12378052B01D0042B20
:1040C000DCD10B4B1B6801221A700C4A136003F100
:1040D00040010B4A11605B6C536000F005F9CDE7BD
:1040E000002BE9D1EDE700BFD40A0020B809002079
:1040F000C4090020A13A0108D80A0020C8090020FC
:10410000CC09002008B503E000F0C6F9FFF78AFFEC
:10411000074B18680028FBD0FFF75CFD054B1A68B9
:10412000054B1B689A42EFD0024B00221A60EBE766
:10413000C8090020B8090020C409002000B5CFB08C
:10414000BC2200211FA80AF027FB4C2200210CA84A
:104150000AF022FB2022002104A80AF01DFB022005
:1041600006F05CFC002301934C4BDA6A22F001025A
:10417000DA62DB6A03F001030193494B9A6942F466
:1041800040429A619B6903F440430193019B444B75
:104190009B6913F4005FFAD0424A936A23F0030349
:1041A00043F00203936221230C934FF480330D9369
:1041B00001221292022315931693179264221892E9
:1041C000199350221A921B930C231C9300231D93C6
:1041D0001E930CA804F0B0F818B100204FB05DF8A1
:1041E00004FB3F2304930323059300230693082332
:1041F00007934023089309934FF480620A920B932C
:10420000022104A804F0CCFC08B10020E6E74FF43A
:1042100040531F930223209390222192092222923D
:1042200023922493802325930023269327934FF4EE
:10423000805336934FF4803337931FA804F028FF40
:1042400048BB184BD3F8E02042F08002C3F8E020CE
:10425000D3F8E02002F080020292029AD3F8F42010
:1042600042F00202C3F8F420D3F8F43003F0020362
:104270000393039B4FF0E023D3F8202D42F4700208
:10428000C3F8202DD3F8202D42F07042C3F8202D22
:1042900062B60120A2E70020A0E700BF000400589A
:1042A000004802580044025808B572B603F06EFF89
:1042B000FFF744FF08BD0000002080F3098805488F
:1042C0000068006880F3088800DFBFF36F8F00BFCD
:1042D0007047000008ED00E002484FF0FF01017058
:1042E0007047000022ED00E002484FF0805101606D
:1042F0007047000004ED00E0012808D002280AD031
:1043000008B100207047064B996101207047044BAB
:10431000D96101207047024B19620120704700BF2C
:10432000140B0020014B1869704700BF140B0020CC
:1043300010B549F64043984216D042F210739842A5
:1043400038D0B0F5FA5F37D041F28833984235D093
:10435000B0F57A6F34D0B0F5FA6F33D0B0F57A7F1C
:1043600032D049F6404100E00146184C002284F862
:104370002420174BB3FBF1F32361606103F0D2FDFE
:104380006269144B1B68B3FBF2F3013BB3F1807F0E
:104390000AD24FF0E02253610F4BF02183F8231033
:1043A000002393610723136104F000FB0B4B18609B
:1043B000012010BD0146D8E70146D6E70146D4E703
:1043C0000146D2E70146D0E70146CEE7140B0020B4
:1043D00040420F009805002000ED00E0480B00204F
:1043E00008B5064B012283F8242000221A605A6087
:1043F0009B6913B100200021984708BD140B0020D1
:1044000000220023C0E900237047824273EB010CB5
:1044100003D2801A61EB03017047101A63EB0101AC
:104420007047000070B51A4B93F82430012B0ED062
:10443000184BD3E90023134328D0164CD4E90023AA
:10444000501E43F1FF31C4E9000100201FE0104C71
:10445000002384F825302669236865689E1945F194
:104460000005266065604FF47A72002330462946C5
:10447000FCF7ACF8A060E160012384F82530236AE2
:1044800013B1304629469847012000E0002070BD56
:10449000140B0020400B0020014B1868596870472E
:1044A000140B002008B504494FF47A720023086801
:1044B0004968FCF78BF808BD140B002008B5FFF71E
:1044C000F1FF4FF47A720023FCF780F808BD00007A
:1044D000034A13685168C01841F10001704700BFDA
:1044E000140B0020054B1A685B688B4208BF8242A0
:1044F00001D0002070470120704700BF140B00203E
:10450000084B1B694FF47A71B1FBF3F100FB01F228
:1045100000230549C1E90023034BD3E900231343DA
:10452000FAD17047140B0020400B002010B5044650
:10453000024B1B6902499847204610BD60010020CC
:1045400048030020012907D90239D0F8AB30D0F850
:10455000B30003FB0100704700207047002831D0F2
:1045600070B582B005460024D5F8A730A3421FD904
:10457000154B5E69D5F8AF10012300934FF400731B
:10458000124A21441248B047002313F0800F0DD186
:104590000E4A52F8232012B10133DBB2F5E703EBE8
:1045A000C413C5F8BB30012002B070BD0134DBE795
:1045B000084B9C6800231A46062107480068A0475C
:1045C0000020F1E70020704760010020500B002020
:1045D00048030020E80200204C0B002080B10D4A67
:1045E00090420FD0811E0A3A91420DD90A4A0244E4
:1045F000062A0BD9094A0244072A09D90020704724
:104600000120704704207047022070470320704744
:1046100005207047F7FFFF0F100000F0080000F0C2
:1046200008B5034B5B6909780248984708BD00BF8D
:10463000E80200206800020808B5024B5B690248E6
:10464000984708BDE80200208800020808B5024B20
:104650005B690248984708BDE8020020A8000208EC
:1046600010B582B0134C002121602171C322124881
:104670000AF092F81148124B0360237843F00203CA
:104680002370104B1B689847A07050B18DF807003D
:104690000D4B9C6801230DF1070202210B480068B5
:1046A000A047044BD3F8013013B9012002B010BD6C
:1046B0000020FBE7501B0020DC1B002048030020EB
:1046C000DC02020860010020E80200204C0B002000
:1046D00001291BD9F0B583B00446FFF733FF054627
:1046E0000B4E4FF48052002130460AF055F8094B2A
:1046F0009F69D4F8AB309BB200934FF400733246FD
:1047000029460548B847012003B0F0BD0020704796
:10471000500B002060010020480300200FB410B5AA
:1047200082B004AB53F8042B01930C4B1B687BB194
:104730000B4C019B802120460AF0E0F8074B1B68D8
:1047400081B2204698478022002120460AF024F8B2
:1047500002B0BDE8104004B0704700BF581B0020F5
:104760005C1B002000B587B084460A4600230393F3
:104770000493CDF8133000930193CDF8073003ABC9
:104780000068DCF8041003C3BCF808009CF80A10A9
:10479000188099706B461068516803C31189927A2A
:1047A00019809A700B22694603A809F0D7FF18B93F
:1047B000012007B05DF804FB0020FAE7002863D071
:1047C000F0B587B00646314B5D69314C012300934B
:1047D0004FF40073224600212E48A84703222146A9
:1047E0002D4809F0BBFF18B90023337007B0F0BDA6
:1047F000274B93F8FE31552B06D04FF48052002101
:10480000234809F0C9FFF1E7214B93F8FF31AA2BA8
:10481000F3D13246012302F8013B204B03F140075C
:104820001D685C689868D968156054609060D160B4
:1048300010331032BB42F3D1002422E00023ADF844
:104840000E300493059306EB0415B5F80330ADF86C
:104850000E30D5F809300493D5F80D3005930DF1DD
:104860000E00FEF7C8F8A5F8030004A8FEF7B8F894
:10487000C5F8090005A8FEF7B3F8C5F80D00013426
:10488000E4B2032CDAD9B8E7704700BF600100201A
:10489000500B002048030020D80202080E0D002013
:1048A000002800F0ED8030B585B004460378BBB138
:1048B000744B5D69012300934FF40073724AD0F882
:1048C00009107248A847704B93F8FE31552B12D04F
:1048D0004FF4007200216C4809F05EFF05B030BD56
:1048E000684B5D69012300934FF40073664A002111
:1048F0006648A847E7E7644B93F8FF31AA2BE7D156
:104900000023ADF80A3003935A225F4904F14100B5
:1049100009F034FFB4F84C30ADF80A300DF10A005C
:10492000FEF769F8A4F84C00B4F84F30ADF80A303F
:104930000DF10A00FEF75FF8A4F84F00B4F852300A
:10494000ADF80A300DF10A00FEF755F8A4F8520050
:10495000B4F85430ADF80A300DF10A00FEF74BF808
:10496000A4F85400B4F85730ADF80A300DF10A003D
:10497000FEF741F8A4F85700B4F85930ADF80A3002
:104980000DF10A00FEF737F8A4F85900B4F85B30CF
:10499000ADF80A300DF10A00FEF72DF8A4F85B001F
:1049A000D4F85D30039303A8FEF71AF8C4F85D004D
:1049B000D4F86130039303A8FEF712F8C4F861003D
:1049C000D4F86530039303A8FEF70AF8C4F865002D
:1049D000B4F86930ADF80A300DF10A00FEF70BF8B3
:1049E000A4F86900B4F86B30ADF80A300DF10A0094
:1049F000FEF701F8A4F86B00D4F86D30039303A818
:104A0000FDF7EEFFC4F86D00B4F87130ADF80A3070
:104A10000DF10A00FDF7EFFFA4F87100B4F8733050
:104A2000ADF80A300DF10A00FDF7E5FFA4F87300B8
:104A3000D4F88430039303A8FDF7D2FFC4F88400B0
:104A4000D4F80930C4F89F30B4F84C20C4F8A3203F
:104A5000D4F86520C4F8A72094F84E10C4F8AB1021
:104A6000B4F84F100B44C4F8AF3094F8511001FB68
:104A70000233C4F8B330D4F86130C4F8B73027E754
:104A8000704700BF60010020500B00204803002049
:104A9000002859D070B5ADF5027D04464FF4007280
:104AA000002102A809F078FE2378002B35D0D4F835
:104AB00009500135254B5E69012300934FF40073C3
:104AC000234A29462348B0474FF40072204902A8E0
:104AD00009F054FE0422204902A809F03FFE48B91B
:104AE00004221E497BA809F039FE18B99DF8063248
:104AF000552B1DD0002284F89B2084F89C2084F83C
:104B00009D2084F89E20164B9C681346052115486D
:104B10000068A0470DF5027D70BD0C4B5E69012554
:104B200000954FF400730A4A29460A48B047CBE77C
:104B30009DF80732AA2BDDD1C4F89B507CA8FDF765
:104B40004FFFC4F8BF00E5E7704700BF60010020D9
:104B5000500B002048030020CC000208D4000208BB
:104B6000E80200204C0B00202DE9F04FADF5217D2F
:104B700003901446002105910691CDF81B104FF4C7
:104B8000187208A809F008FE5CB94FF4187208A959
:104B9000039C204609F0F2FD20460DF5217DBDE87D
:104BA000F08F534D4FF4007632460021284609F02D
:104BB000F3FD504B5F690123009333462A4621469B
:104BC0004D48B847002689E008AA262306FB03F3D0
:104BD000D4187501464F07EB461AE859DAF8041065
:104BE000D050616005F1080303EB070BDA5B9BF81B
:104BF00002302281A3729AF80B30E37205F1180893
:104C0000B84408F10200FDF7F6FE029010352F447B
:104C1000381DFDF7F0FE029B43EA0040C4F81E0079
:104C200008F10400FDF7DCFEC4F822000BF10600D9
:104C3000FDF7E1FE00F01F035B00A373420902F0E1
:104C40002F026273C0F3C42020739AF80D202B4901
:104C5000A1FB021203EB5213A3733846FDF7CBFE00
:104C600000F01F03A374C0F343136374C0F3462022
:104C7000A4F80F0000F2BC70A4F80F00B81DFDF7F7
:104C8000BAFE00F01F035B006376430903F02F03B5
:104C90002376C0F3C420E0754046FDF7ACFE00F07B
:104CA0001F036377C0F343132377C0F34620608369
:104CB00000F2BC706083B81CFDF79DFE00F01F037E
:104CC000A375C0F343136375C0F34620A4F8130023
:104CD00000F2BC70A4F813000136F6B20F2E7FF676
:104CE00073AF4FF400720021014809F055FD4CE705
:104CF000500B002060010020480300201F85EB516D
:104D000070B584B00C4600230393D0F8AF100B4B62
:104D10005E690B4D012300934FF400732A4601EBAB
:104D2000D4110848B04704F07F0455F824300393A9
:104D300003A8FDF755FE04B070BD00BF6001002060
:104D4000500B00204803002010B5002401E001347E
:104D5000013020B12F2109F027FD0028F7D120468E
:104D600010BD00002DE9F04105460C469046FBF7CA
:104D7000C1FA013080B2FEF78FFC0646B0B3284678
:104D8000FBF7B8FA013080B2FEF786FC074688B31D
:104D90002846FBF7AFFA02460021384609F0FCFC32
:104DA0002846FBF7A7FA02460021304609F0F4FC3A
:104DB0002846FBF79FFA02462946304609F0DEFCFA
:104DC0001B49304609F012FD0746FCB12846FBF7A7
:104DD00091FA02462946304609F0D0FC14490020D9
:104DE00009F004FD074648B1013CEEE7FEF7B4FCCC
:104DF00000201AE0FEF7B0FC002016E03046FEF777
:104E0000ABFC3846FEF7A8FC00200EE03846FBF766
:104E100071FA02463946404609F0B0FC3046FEF7CA
:104E20009BFC3846FEF798FC0120BDE8F08100BFEE
:104E3000DC000208F0B595B00446002104913C2244
:104E400005A809F0A9FC4E4A01AB07CA03C31A70B2
:104E5000002C00F085802046FBF74CFA402802D950
:104E6000002015B0F0BD0246214604A809F086FCDA
:104E7000444904A809F0BAFC0546002872D041490B
:104E8000002009F0B3FC044600238DF803308DF8B0
:104E900002302846FBF72EFAC0B28DF803002046F8
:104EA000FBF728FAC0B28DF802002B78002B5BD0FC
:104EB0002846FBF71FFA082858D82046FBF71AFAAD
:104EC000032801D90020CCE70026082E12D814AB05
:104ED000334413F84C7C3946204609F065FC002821
:104EE00046D13946284609F05FFC002842D10136F8
:104EF000F6B2EAE700231F469C4618461E460FE01E
:104F00000CF1010C5FFA8CFC17E0E95C1E4A8A5C2C
:104F100002F00302012A15D0022A16D00133DBB2B7
:104F2000072B15D8022BF0D8002CEED0E15C164AE6
:104F30008A5C02F00302012AE2D0022AE5D101379D
:104F4000FFB2E2E70136F6B2E6E70130C0B2E5E7CC
:104F500050EA070310D056EA0C030FD0002080E778
:104F600000207EE700207CE700207AE7002078E739
:104F7000002076E7002074E7012072E7012070E747
:104F8000E4000208E00002086D0602082DE9F04383
:104F900085B0002302930393ADF804308DF80630FA
:104FA000994218BF98420CBF0124002404D1002666
:104FB000304605B0BDE8F08307460D46FFF73AFFDF
:104FC00006460028F3D0DFF8B4904946384609F089
:104FD0000DFC80464946002009F008FC0746B8F160
:104FE000000F47D0002406E0203B04AA224402F828
:104FF000083C0134E4B2072C13D84046FBF77AF999
:10500000844208D218F804301B4A9A5C02F003026A
:10501000022AEAD1E8E7202204AB234403F8082C53
:10502000E7E7002405E004AA224402F80C3C01341E
:10503000E4B2022C13D83846FBF75CF9844208D25C
:105040003B5D0D4A9A5C02F00302022AEBD1203B41
:10505000E9E7202204AB234403F80C2CE7E702AB7A
:1050600003CB28606960BDF804209DF806302A81D2
:10507000AB729DE726469BE76D060208E00002083A
:105080002DE9F04184B0002A18BF002807D00C4653
:105090001E46074615464B1EDBB2012B05D94FF0C5
:1050A0000008404604B0BDE8F081FFF7C3FE80462B
:1050B0000028F4D0002301930293CDF80B3001A90E
:1050C0003846FFF763FF01AB03CB286069601A889D
:1050D0009B782A81AB72022C13D02023EB72002222
:1050E0006A73FE232B7454206874E021A9734A214B
:1050F000E9732B766876AB75E97518232B73EA6133
:10510000CFE73023EB7200232B756B75AE76C6F3B9
:105110000726EE76E3E700002DE9F04F83B08346E3
:10512000002818BF012994BF0120002045D9154649
:10513000012A3FD9DBF8AFA04FEA8109DBF8A330A1
:10514000B9FBF3F18A4403FB1199DFF87C801C4E14
:10515000012400944FF40073324651461948D8F8A0
:105160001470B847B14449462846FDF749FC0094FD
:105170004FF40073324651461248D8F81870B847B9
:10518000DBF8A7309A4400944FF40073324651463E
:105190000C48D8F81470B84749462846FDF730FC4B
:1051A000D8F8185000944FF4007332465146054821
:1051B000A847204603B0BDE8F08F0020FAE700BF03
:1051C000500B00204803002060010020C0B32DE9EF
:1051D000F04782B00D460446D0F89B1069B3D0F872
:1051E0006130D0F8652090F8510000FB1233D4F8FC
:1051F000A320B3FBF2F3AB421FD3DFF84C90114E68
:10520000DFF848A04FF00108CDF800804FF400739C
:1052100032465046D9F81470B84706F5F47128465E
:10522000FDF7EEFBD9F81850CDF800804FF400736D
:105230003246D4F89B105046A84702B0BDE8F0872C
:10524000704700BF500B0020600100204803002081
:1052500000286FD02DE9F04182B00546D0F8BF306C
:10526000002B5AD0013BC0F8BF30D0F8BB60F70923
:10527000314B5C69D0F8AF10012300934FF40073F9
:105280002E4A01EBD6112E48A047D5F8BB4004F0BA
:105290007F0414F0800F14D1A046284800EB84004E
:1052A000FDF79EFB10B10134E4B2F2E726F07F0671
:1052B000B044C5F8BB80D5F8BF102846FFF786FF7D
:1052C00035E00137D5F8A730BB4226D91A4B5C69C7
:1052D000D5F8AF10012300934FF40073174A3944F7
:1052E0001748A047002414F0800F14D1A04613489B
:1052F00000EB8400FDF774FB10B10134E4B2F2E777
:1053000026F07F06B044C5F8BB80D5F8BF1028460C
:10531000FFF75CFF0BE00137D4E70023022285F89A
:10532000BB2085F8BC3085F8BD3085F8BE3002B0B2
:10533000BDE8F081704700BF60010020500B0020E5
:10534000480300202DE9F04FADF20C5D054688467C
:1053500092461F461846FFF741F90446B8F1020F7E
:105360004CD000239F93A093A1939FABDAF8000049
:10537000DAF80410DAF8082007C30DF51F7949465A
:105380004846FFF703FE002800F09E800021022C13
:1053900040F00D8139462846FFF7D4F806464FF015
:1053A000000BD5F8AB309B4580F0F6805E444FF49F
:1053B000187422460021AAA809F0EEF932462946BF
:1053C00004A8FFF7D1FB224604A9AAA809F0D6F940
:1053D00000240F2C00F2DB80262304FB03F3AAAA8F
:1053E000D35CE3B14946262000FB0420FFF7BAF95D
:1053F000002840F07E810134E4B2EAE700239C9368
:105400009D938DF878329CABDAF80000DAF804103E
:1054100003C39AF808201A700DF51C79AFE70394BE
:10542000B8F1020F54D00023C9F80030C9F8043095
:10543000C9F80830DAF80010DAF80420DAF8083091
:10544000C9F80010C9F80420C9F80830202200214A
:10545000A2A809F0A1F9D5F8BB30A2AA4146484656
:10546000FFF70EFEDFF89CA2DFF890924FF0010BE1
:10547000CDF800B04FF400734A4631469E48DAF842
:105480001440A047039B4FEA431C09EB43140DF55E
:10549000227EBEE80F004CF809006160A260E36064
:1054A000BEE80F0020616161A261E361DAF8184093
:1054B000CDF800B04FF400734A4631468E48A047FD
:1054C000B8F1020F18D038460DF20C5DBDE8F08F30
:1054D0000023C9F80030C9F8043089F80830DAF838
:1054E0000020DAF80430C9F80020C9F804309AF82E
:1054F000083089F80830A9E76FF07042D5F8BB1082
:105500002846FFF709FED5F8BB102846FFF7E0F85C
:105510004FF02033A293A39303F16043ADF8903290
:105520008DF892322E278DF888724C46A2AE0FCE9F
:105530000FC496E80F0084E80F008DF88972D5F843
:10554000BB703B0C8DF89C323B0E8DF89D328DF874
:10555000A2723B0A8DF8A33209F12006A2AC0FCC4F
:105560000FC694E80F0086E80F0039462846FEF77C
:10557000E9FF0146DAF81840CDF800B04FF40073A7
:105580004A465D48A0472846FFF762FE9BE70BF1BD
:10559000010B5FFA8BFB04E739462846FFF7B0FBA7
:1055A0000646FFF71BF8044639463746EFE6D5F8BE
:1055B000BF00002888D0D5F8BB202846FFF7ACFDF7
:1055C0006FF07042D5F8BB102846FFF7A5FDD5F85F
:1055D000BB102846FFF77CF80024C9F80040C9F842
:1055E0000440C9F808405046FAF784FE0246514686
:1055F000484609F0C3F820222146A2A809F0CCF8B9
:105600003B46A2AA41464846FFF73AFDD5F8BB10F3
:105610002846FEF797FFDFF8ECB0DBF81440374E72
:10562000DFF8D4904FF0010ACDF800A04FF40073DA
:105630003246039001464846A047B446A2AC0FCC80
:10564000ACE80F0094E80F008CE80F00DBF818407E
:10565000CDF800A04FF40073324603994846A047A6
:105660002846FFF7F5FDB8F1020F01D000202BE727
:105670006FF07042D5F8BB102846FFF74DFDD5F806
:10568000BB102846FFF724F83446002131607160D2
:105690003181B1722E2626704FF40072204609F037
:1056A0007BF86670022F06D93A0C22753A0E6275A5
:1056B000A7763F0AE776124CA4F120073E460FCEAC
:1056C0000FC496E80F0084E80F00D5F8BB102846F9
:1056D000FEF738FF01460B4B9C69012300934FF402
:1056E00000733A460448A0472846FFF7B1FD002062
:1056F000EAE63846E8E600BF48030020500B0020E9
:10570000700B0020600100202DE9F04184B080463C
:105710000E4615460846FFF717FB0746002408E02B
:105720003046FAF7E7FD421C002101A809F034F8E1
:105730000134BC421AD20023019302938DF80C303D
:1057400001AA21463046FFF70DFB98B101A8FFF7EB
:1057500071FB88B12B4601AA02214046FFF7F2FDFA
:10576000054620B17B1EA342DAD100E0002004B040
:10577000BDE8F0810020FAE70020F8E789B170B5B4
:10578000044615460E460846FAF7B4FD0B2801D923
:10579000002070BD2B46324601212046FFF7D2FD86
:1057A000F7E700207047000070B5ADF5027D454B6E
:1057B00000221A601A71444B1860444C2368444814
:1057C0009847444B18606368032243499847FEF7A3
:1057D00047FF054618B928460DF5027D70BD3F48C4
:1057E000FEF79CFF6846FEF7A1FEDDF811103C486D
:1057F000FEF794FF0CA8FEF799FEDDF84510394836
:10580000FEF78CFF18A8FEF791FEDDF881103648F0
:10581000FEF784FF24A8FEF789FEDDF891103348D7
:10582000FEF77CFF30A8FEF781FEDDF8C51030489A
:10583000FEF774FF3CA8FEF779FEDDF8F9102D485D
:10584000FEF76CFF48A8FEF771FEDDF839112A4813
:10585000FEF764FF54A8FEF769FEDDF86D112748D6
:10586000FEF75CFF60A8FEF761FEDDF88D112448AD
:10587000FEF754FF2348FEF751FF234C2046FEF766
:105880009DFF2046FFF70CF82046FFF701F9204660
:10589000FEF764FE26263246002178A808F07CFF39
:1058A000324600216EA808F077FF022217492046F1
:1058B000FFF72AFF6D906D9A15492046FFF75EFFAE
:1058C0006C9088E7501B0020581B0020E802002045
:1058D000F00002084C0B0020000300200001020829
:1058E00014010208380102085C0102088001020864
:1058F000A4010208C8010208EC0102081002020813
:10590000340202081C040208DC1B002058020208B2
:105910006002020802460378302B05D0302B0AD0F3
:10592000302B0FD0002010E04178582918BF78297B
:10593000F4D1032009E05178422918BF6229EFD140
:10594000012002E0022000E01A46134613F8011B72
:1059500039B152782E2AF7D15A78002AF4D004208F
:105960007047704703463038C0B2092810D9A3F1F8
:105970006102D2B2052A07D9A3F14102D2B2052AA7
:1059800005D8373BD8B27047573BD8B27047002094
:1059900070470000034640785C2800D07047987834
:1059A000302837D0FAD37428F8D86228F6D3A0F17B
:1059B0006203122BF2D801A252F823F0095A01080F
:1059C0009D5901089D5901089D5901089D590108DB
:1059D0009D5901089D5901089D5901089D590108CB
:1059E0009D5901089D5901089D5901080D5A01084A
:1059F0009D5901089D5901089D590108195A01082E
:105A00009D590108115A0108082070470A20704763
:105A100009207047002070470D20BFE770B506468B
:105A20000378222B02D03546002409E00136FAE73C
:105A3000681EFFF7AFFF3055013501350134A4B2C0
:105A40002B7843B15C2BF3D0222B01D03355F4E7F4
:105A500000233355F1E73355304670BD2DE9F84347
:105A6000064603782D2B18D04FF001090020304452
:105A7000FFF750FF0746022816D0032818D0012848
:105A80000FD000234FF00A08B9F1FF3F14D00022D5
:105A900013441E440024234612E04FF0FF39012036
