:020000040800F2
:1000000000000220D9B70408591204085B12040842
:100010005D1204085F120408611204080000000069
:10002000000000000000000000000000631204084F
:100030006F1204080000000071120408791204080D
:1000400029B8040829B8040829B8040829B80408FC
:1000500029B8040829B80408DD120408E7120408C6
:10006000F1120408FB12040805130408991304088C
:10007000B1130408C9130408E1130408F9130408B0
:100080001114040829B8040829B8040829B8040878
:1000900029B8040829B8040829B804080F1304086B
:1000A00029B8040829B8040829B8040829B804089C
:1000B00029B8040829B8040829B8040829B804088C
:1000C00029B8040829B8040829B8040829B804087C
:1000D00029B8040829B8040829B8040829B804086C
:1000E0003513040829B804080000000029B80408E2
:1000F00029B8040829B8040829B8040829B804084C
:1001000029B804086913040829B8040829B80408A0
:100110002914040829B8040829B8040829B80408CF
:1001200029B8040829B8040829B8040829B804081B
:1001300029B8040829B8040829B8040829B804080B
:1001400000000000000000000000000000000000AF
:1001500029B8040829B80408891304084D140408B0
:1001600029B8040829B8040829B8040829B80408DB
:1001700029B8040829B8040829B8040800000000B8
:1001800029B8040829B804087114040829B8040817
:1001900029B8040829B8040829B8040829B80408AB
:1001A00029B8040829B8040829B8040829B804089B
:1001B00029B8040829B8040829B8040829B804088B
:1001C00029B8040829B8040829B8040829B804087B
:1001D00029B80408CD12040829B8040829B804086D
:1001E00029B8040829B8040829B8040829B804085B
:1001F00029B8040829B8040829B8040829B804084B
:1002000029B8040829B8040829B8040829B804083A
:1002100029B8040829B8040829B8040829B804082A
:1002200029B8040829B8040879130408000000005C
:1002300029B8040829B804080000000029B80408F7
:1002400029B8040829B8040829B8040829B80408FA
:1002500029B8040829B8040829B8040829B80408EA
:1002600029B8040829B8040829B8040829B80408DA
:1002700029B8040829B8040829B8040800000000B7
:1002800029B8040829B8040829B8040800000000A7
:080290000000000029B8040879
:100298000000000000000000000000000000000056
:1002A8000000000000000000000000000000000046
:1002B8000000000000000000000000000000000036
:1002C8000000000000000000000000000000000026
:020000040803EF
:1021B00010B5054C237833B9044B13B10448AFF381
:1021C00000800123237010BD900A00200000000051
:1021D00030CE040808B5034B1BB103490348AFF3E5
:1021E000008008BD00000000940A002030CE0408E2
:1021F00010F8012B11F8013B012A28BF9A42F7D0B1
:10220000D01A7047034613F8012B002AFBD1181A85
:1022100001387047000000000000000000000000CE
:1022200001F0FF01102A2BDB10F0070F08D010F887
:10223000013B013A8B422DD010F0070F42B3F6D18B
:10224000F0B441EA012141EA014122F007047FF0A4
:1022500000070023F0E80256083C85EA010586EAFB
:10226000010685FA47F5A3FA87F586FA47F6A5FA37
:1022700087F68EB9EED1F0BC01F0FF0102F0070243
:1022800032B110F8013B013A83EA010313B1F8D1EE
:102290000020704701387047002D06BF35460338CF
:1022A000073815F0010F07D1013015F4807F02BF08
:1022B000013015F4C03F0130F0BC0138704700BF59
:1022C00080F0004002E000BF81F0004142001FBFEB
:1022D0005FEA410392EA030F7FEA226C7FEA236CF4
:1022E0006AD04FEA1262D2EB1363C1BFD2184140E9
:1022F00048404140B8BF5B42192B88BF704710F07F
:10230000004F40F4000020F07F4018BF404211F021
:10231000004F41F4000121F07F4118BF494292EA89
:10232000030F3FD0A2F1010241FA03FC10EB0C00B5
:10233000C3F1200301FA03F100F0004302D5494242
:1023400060EB4000B0F5000F13D3B0F1807F06D3EF
:1023500040084FEA310102F10102FE2A51D2B1F1E7
:10236000004F40EBC25008BF20F0010040EA0300DC
:102370007047490040EB0000013A28BFB0F5000F5C
:10238000EDD2B0FA80FCACF1080CB2EB0C0200FA12
:102390000CF0AABF00EBC25052421843BCBFD04061
:1023A0001843704792F0000F81F4000106BF80F4DB
:1023B00000000132013BB5E74FEA41037FEA226C9E
:1023C00018BF7FEA236C21D092EA030F04D092F069
:1023D000000F08BF0846704790EA010F1CBF00209D
:1023E000704712F07F4F04D1400028BF40F00040FA
:1023F000704712F100723CBF00F50000704700F01A
:10240000004343F0FE4040F4000070477FEA226240
:1024100016BF08467FEA23630146420206BF5FEA11
:10242000412390EA010F40F4800070474FF0000311
:1024300004E000BF10F0004348BF40425FEA000CD8
:1024400008BF704743F0964301464FF000001CE080
:1024500050EA010208BF70474FF000030AE000BFD6
:1024600050EA010208BF704711F0004302D5404214
:1024700061EB41015FEA010C02BF84460146002086
:1024800043F0B64308BFA3F18053A3F50003BCFAA1
:102490008CF2083AA3EBC25310DB01FA02FC63444E
:1024A00000FA02FCC2F12002BCF1004F20FA02F255
:1024B00043EB020008BF20F00100704702F1200248
:1024C00001FA02FCC2F1200250EA4C0021FA02F2A9
:1024D00043EB020008BF20EADC70704753B94AB9E9
:1024E000002908BF00281CBF4FF0FF314FF0FF301C
:1024F00000F074B9ADF1080C6DE904CE00F006F8F7
:10250000DDF804E0DDE9022304B070472DE9F0476F
:10251000089D04468E46002B4DD18A42944669D9C7
:10252000B2FA82F252B101FA02F3C2F1200120FAAA
:1025300001F10CFA02FC41EA030E94404FEA1C48F8
:10254000210CBEFBF8F61FFA8CF708FB16E341EAF4
:10255000034306FB07F199420AD91CEB030306F17A
:10256000FF3080F01F81994240F21C81023E63449B
:102570005B1AA4B2B3FBF8F008FB103344EA03443F
:1025800000FB07F7A7420AD91CEB040400F1FF3354
:1025900080F00A81A74240F207816444023840EA91
:1025A0000640E41B00261DB1D4400023C5E90043CA
:1025B0003146BDE8F0878B4209D9002D00F0EF804D
:1025C0000026C5E9000130463146BDE8F087B3FA80
:1025D00083F6002E4AD18B4202D3824200F2F98068
:1025E000841A61EB030301209E46002DE0D0C5E96B
:1025F000004EDDE702B9FFDEB2FA82F2002A40F0B7
:102600009280A1EB0C014FEA1C471FFA8CFE0126B9
:10261000200CB1FBF7F307FB131140EA01410EFB5D
:1026200003F0884208D91CEB010103F1FF3802D204
:10263000884200F2CB804346091AA4B2B1FBF7F0FE
:1026400007FB101144EA01440EFB00FEA64508D921
:102650001CEB040400F1FF3102D2A64500F2BB805E
:102660000846A4EB0E0440EA03409CE7C6F12007AD
:10267000B34022FA07FC4CEA030C20FA07F401FAF3
:1026800006F31C43F9404FEA1C4900FA06F3B1FB7C
:10269000F9F8200C1FFA8CFE09FB181140EA0141E1
:1026A00008FB0EF0884202FA06F20BD91CEB01017E
:1026B00008F1FF3A80F08880884240F28580A8F1D6
:1026C00002086144091AA4B2B1FBF9F009FB101128
:1026D00044EA014100FB0EFE8E4508D91CEB0101C6
:1026E00000F1FF346CD28E456AD90238614440EA69
:1026F0000840A0FB0294A1EB0E01A142C846A646E9
:1027000056D353D05DB1B3EB080261EB0E0101FA71
:1027100007F722FA06F3F1401F43C5E900710026CE
:102720003146BDE8F087C2F12003D8400CFA02FC24
:1027300021FA03F3914001434FEA1C471FFA8CFE34
:10274000B3FBF7F007FB10360B0C43EA064300FB24
:102750000EF69E4204FA02F408D91CEB030300F1C2
:10276000FF382FD29E422DD9023863449B1B89B279
:10277000B3FBF7F607FB163341EA034106FB0EF302
:102780008B4208D91CEB010106F1FF3816D28B42AF
:1027900014D9023E6144C91A46EA004638E72E467B
:1027A000284605E70646E3E61846F8E64B45A9D273
:1027B000B9EB020864EB0C0E0138A3E74646EAE7E2
:1027C000204694E74046D1E7D0467BE7023B614490
:1027D00032E7304609E76444023842E7704700BFF9
:1027E00008B54FF47A6009F0D7FE00F0BFF900F0A9
:1027F00025FA09F017FF08BD00B585B004AB03E961
:102800000700064B5B6833B104AA12E9070098473A
:1028100005B05DF804FB0020FAE700BF5C01002072
:1028200000B585B00DF1100C0CE907001A46064BF7
:10283000DB6933B1BDF808109847012005B05DF899
:1028400004FB0020FAE700BF5C01002000B1FEE7B6
:102850007047000070B582B0214B1B782BB1054644
:102860000C46204B1B78012B11D91D4B1B78002BDC
:102870002DD01D4B1C6A1D4B1A7C8DF800200FCBF0
:10288000A047042827D0174B187802B070BD164B0C
:102890001E6A164B1A7C8DF800200FCBB047032818
:1028A00009D0114B1E6A114B1A7C8DF800200FCBFA
:1028B000B0470028D9D10B4E022333700A4B9B69D5
:1028C000224629460948984701203070DDE7042058
:1028D000044B1870D9E70320024B1870D5E700BFEE
:1028E000450F0020300F002074050020340F002019
:1028F000014B01221A707047460F002008B50DF0F9
:102900006BFC08B9012008BD0020FCE708B50248AF
:102910000DF078FC08BD00BFA8CF04082DE9F047F2
:1029200082B0484C2368002102209847636898478A
:1029300002281FD0434B5B6898470DF059FB0446B3
:10294000002878D0404B9B684FF480523F49404864
:1029500098470446002871D001253E4B1D703E4823
:102960000DF068FC3D4B1B693D49284698473D4B9F
:102970001D7063E00024ADF804408DF80640DFF8D8
:10298000ECA020252A462146504618F0ABFFDFF880
:10299000E0902A462146484618F0A4FFDFF8D4808C
:1029A0002A462146404618F09DFF2F4F2A462146D1
:1029B000384618F097FF01258DF804508DF8055022
:1029C000204EF3680A2201995046984733692946F8
:1029D000504698478DF8045002238DF805308DF845
:1029E0000640F3680A220199484698473369214610
:1029F000484698478DF8045006238DF805308DF829
:102A00000640F368142201994046984733692946E5
:102A1000404698478DF8045007238DF805308DF80F
:102A20000640F3680A2201993846984733692946D7
:102A30003846984781E70B4B02221A70204602B0B5
:102A4000BDE8F0872C05002074050020C0CF0408E5
:102A5000340F0020450F0020F1280308AC050020AA
:102A60005528030810000020B00A0020D00A0020DA
:102A7000100B0020F00A0020F0B587B0314B5C68E5
:102A8000314A012307CAA047304B1B78012B07D0DE
:102A90002C4B5C682C4A002307CAA04707B0F0BD46
:102AA0002B4B1B78002B3DD02A4B1C6A2A4B1A7CDF
:102AB0008DF800200FCBA04748B1264B1C6A264B4F
:102AC0001A7C8DF800200FCBA04704282AD1214B77
:102AD0001C68214B1A7C8DF800200FCBA04708B34F
:102AE0001C4B1C681C4B1A7C8DF800200FCBA04798
:102AF00009F034F9064690B1164F3D68164C237C18
:102B00008DF8003094E80F00A8470546FB6902469F
:102B100031462046984729463046FFF7EFFE3046BB
:102B200009F07CF90D4B5D690D4C0E4B05930E4B76
:102B3000049304F110030FCB8DE80F0094E80F000D
:102B4000A847A5E700000020AC00002010000020EE
:102B5000460F002074050020340F00202C050020B3
:102B6000D00A0020FD2803080800002010B5254CDD
:102B7000254B93E8070023689847244B93E8070008
:102B8000236898472468224B93E80700A047214C0C
:102B9000214B93E8070023689847204B93E80700F0
:102BA000236898471E4B93E80700236898471D4BFE
:102BB00093E80700236898471B4B93E807002368B6
:102BC00098471A4B93E8070023689847184B93E8F7
:102BD000070023689847174B93E807002368984736
:102BE0002468154B93E80700A04708F09BFFFFF708
:102BF00095FE00F0AFF800F0EFFE01F02BF800F0CA
:102C00007FFA10BDA8020020B8000020C4000020F8
:102C1000D000002000000020880000209400002048
:102C2000A0000020AC00002058000020640000201C
:102C3000700000207C0000204C00002010B582B005
:102C40004FF4806401941E4B009300231A464FF406
:102C5000FA611C4809F010FD1B4B186001941B4BD6
:102C60000093012300224FF47A71194809F004FD02
:102C7000184B18600194184B009300230122642123
:102C8000164809F0F9FC164B18600194154B009397
:102C900000230222C821144809F0EEFC134B1860EF
:102CA0004FF400730193124B00930223002264211E
:102CB000104809F0E1FC104B186002B010BD00BFD5
:102CC000A52D0308E4CF04084C0F0020813C030825
:102CD000F4CF0408480F0020792A0308FCCF040829
:102CE000540F00208132030804D00408500F002044
:102CF000193C030810D00408580F002070B5044692
:102D00000AF014F806460D4622460023FFF7E6FBBC
:102D100013430ED10B4B1A685B68AB4208BFB2423B
:102D200007D0094A137883F001031370054B1E6026
:102D30005D60064B5C68064A034B1B7807CAA047D8
:102D400070BD00BF600F0020690F0020A8020020A6
:102D5000C400002038B50F4C2B220021204618F06B
:102D6000C1FD0D4D4F220021284618F0BBFDC4F8CF
:102D700011504F2363750023A37501232374074B60
:102D80001B689847012800D038BD054B01221A70F6
:102D9000FAE700BF48060020000002244C03002090
:102DA000680F002010B594B01E4B5C681E4A0123CA
:102DB00007CAA0471D4B1C7854B11D4B1B6998478F
:102DC000184B5C68184A002307CAA04714B010BD0E
:102DD0006420FFF793FF164B5B6803209847002899
:102DE000EBD0134B9B680321684698474F226946F6
:102DF000104818F04FFD08E00E4B1A5DB3F84D1067
:102E00000A44A3F84D200134E4B24C2CF4D90A4C06
:102E10000A49204608F0D4FE0949204608F0D0FEB1
:102E2000CBE700BF0000002070000020680F0020EA
:102E30004C03002000000224480600201C0600204D
:102E40007406002050B19D4B1B783BB19C4B1B7806
:102E500013F0010F02D09B4B984200D070479A4B61
:102E60001B7813F0010FF9D0F0B595B0974B1B7894
:102E700013F0010F43D1964B1B78002B3FD0954B9D
:102E80001C68954B1A7C8DF800200FCBA047B0F53D
:102E9000806F34D3914A5368013353608D4D2E684F
:102EA0008D4C237C8DF8003094E80F00B0478C4B9C
:102EB00018602E68237C8DF8003094E80F00B0472E
:102EC000884AA2FB00235B0903EB031203EB820396
:102ED000854A1380EE69237C8DF8003094E80F005A
:102EE0002F68B847024681492046B0472D68237CA9
:102EF0008DF8003094E80F00A8477D4B1860002340
:102F0000CDF83530CDF83930CDF83D30CDF8413001
:102F1000CDF84530CDF849306A4AD2F81120106812
:102F2000516803900491D2F8451006EE901ACDF83E
:102F30001510D2F8491007EE101ACDF81910916843
:102F40008DF8141046E0991D02EB8101496807EEE7
:102F5000901A66EEA77AFDEEE77A03F10C0114A849
:102F600000EB410017EE904A20F83F4C181D52F834
:102F7000200007EE900A67EE277AFDEEE77A03F16C
:102F8000100014AC04EB400017EE904A20F8414CBE
:102F900002EB8101496807EE901A66EEA77AFDEE12
:102FA000E77A03F1080114A800EB410117EE900A3B
:102FB00021F8430C03F10A0052F8200007EE900AB2
:102FC00067EE277AFDEEE77A17EE900A21F83D0CBE
:102FD0000133DBB2022BB6D900230AE014AA1A444B
:102FE00012F8442C9DF84D100A448DF84D20013301
:102FF000DBB2402BF2D9374B1C6A374B1A7C8DF869
:1030000000200FCBA04778B1324B1C6A324B1A7CA0
:103010008DF800200FCBA047032805D02F4A136856
:103020000133136015B0F0BD2A4B9B69032231496F
:10303000294898470028F5D1264B9B69422203A9CD
:10304000254898470028EDD12B4B1A695B6913433B
:1030500007D11C4BD3F8113019685A68264B1961F7
:103060005A61254B9A6AD96A013241F100019A628C
:10307000D962144AD2F81120116854681F480268B6
:1030800040688A1A64EB00009D68DB6895428341C2
:103090000CD2194B1D685B689542834102D2164BD6
:1030A0001A605860144A136A01331362124B996113
:1030B000DC61124B19605C60B4E700BFB2180020FD
:1030C000C01800201C060020B8180020BC180020E2
:1030D000480000207405002034100020C41800208F
:1030E000E0180020DB81B976DA18002000000030FB
:1030F000F01800203CD0040818000020E818002038
:103100002DE9F041A2B04A4B00241C605C609C6039
:10311000DC601C611C75474D2B222146284618F0A7
:10312000E1FB66222146444818F0DCFB434EC822EE
:103130002146304618F0D6FB414BC5F811304F23DD
:103140006B75AC753F4BC5F817303F4B1C803F4B40
:103150001C803F4B1B683F493046984700285CD095
:103160003B4B5B6802223C493046984703463B4A4A
:103170001060002841D0364E2F4F394DDFF8BC800B
:103180004FF4001200922A46414606A8B468A047B0
:10319000662206A9384618F07DFBF6683B462A46AB
:1031A0002D494046B0472F4BDC684FF440632E4A10
:1031B0002E492F48A047002832D001222D4B1A70EB
:1031C0002D490B7813430B701F490B7813430B7079
:1031D000184B1A7418230593042204920392029246
:1031E000019200921346022142F2A00008F044FB33
:1031F000B0B1224B00221A7012E000231D4A137056
:103200001D4A117863F3000111700F4A117863F3BE
:1032100000011170074A137402E0064B00221A7471
:1032200000232093ADF8843022B0BDE8F08100BFC8
:10323000C41800201C0600204C1800206C0F002031
:1032400050000224452E0308C0180020BC1800209E
:1032500088080020552803081CD00408B418002052
:1032600024D0040874050020000C00302CD0040881
:1032700034100020B2180020B818002048000020A8
:1032800030B585B00023ADF80E30594B1D88594B31
:103290005C68594A012307CAA047584A136801339A
:1032A0001360574B1B78002B00F09480554B1B7814
:1032B000002B00F08F80544AB2F80038591D0A44A0
:1032C0000021ADF80E10002D00F08A804849002042
:1032D00008804E48017841F0010101704A49CA2036
:1032E000C8544B4B00930DF10E032946494808F092
:1032F0001DFB70B10023434A1370474A0121117529
:10330000464A1374464B5C68464A012307CAA047E5
:1033100066E0BDF80E30AB4208D30023394A137083
:103320003D4A022111753D4A1374EBE73A498A6818
:1033300001328A60344AB2F800180131DDF80E001B
:103340005050B2F800180B449BB205339BB2A2F860
:103350000038ED21D1540133A2F800382B4B1A78F4
:103360006FF300021A7013E00023254A13702A4AF3
:1033700003211175294A1374C4E703F50071224A29
:10338000505CD0540020505401339BB29C42F4D87E
:103390001D4BB3F80038B3F5007FB3D3224B1C6943
:1033A0004FF40073184A21492148A0470228DBD076
:1033B000194BDA680132DA601A6902F500721A6193
:1033C000114BB3F80048A4F50074A4B2A3F8004868
:1033D0000023DBE7124B5C68124A002307CAA047B0
:1033E000044B5C68044A002307CAA04705B030BDFF
:1033F000DA1800200000002064000020DC18002003
:10340000B21800204800002048100020BC180020FE
:103410000018003000000030C41800201C060020F6
:10342000A8020020B8000020880800204C180020C6
:103430006C0F002010B50346024A5468024A07CABE
:10344000A04710BDA8020020B800002028B10369E1
:103450001BB1A3F8011001221A707047A0B30369D1
:10346000A3B3B3F80310B3F80720914230D210B5DC
:10347000187878B1D3F80900B0F800C0B3F80500A7
:10348000B3F801E000EB0E04A44523DBA0EB0E0033
:10349000844521DC521A92B2D3F809301B885B1A9A
:1034A00007EE903AF8EEE76A07EE902AB8EEE77A70
:1034B000C6EE877A9FED097A67EE877AFCEEE77AA7
:1034C00017EE903A98B210BD002070470020704768
:1034D000002070473220F6E73220F4E70000C842AF
:1034E0002DE9F04389B005460E4600240C604FF0EC
:1034F000010981F801900B4603F82F9B81F82F40BA
:103500005C709C70DC701C715C719C71DC71DFF80C
:103510005880124A05AB07CA83E80700104A02AB7D
:1035200007CA83E8070001944FF0FF3100910B4672
:103530000A460C48D8F80070B8470146D8F8083059
:1035400030469847287085F80990AC72EC7285F87F
:103550001590AC75EC7509B0BDE8F083440100200E
:1035600050010020004C00409C0400202DE9F8434D
:10357000BDF824708046002918BF00280CBF012028
:10358000002034D014461E46894640F26C75AF4286
:1035900094BF00250125632B98BF45F001053DBB75
:1035A0000F2008F0DBFB014668B1C0F80990A0F8D5
:1035B0000770A0F803600023437083700370032C2E
:1035C00005D9284614E008F029FC284610E004EB51
:1035D0004402C2EBC20208EB0203012483F87D40DF
:1035E00068324244101907F07DFA204600E00020BE
:1035F000BDE8F8832DE9F041BDF81870002918BF27
:1036000000280CBF0120002029D015461E46884600
:1036100040F26C74A74294BF00240124632B98BF2E
:1036200044F00104E4B90F2008F098FB014690B182
:10363000C0F80980A0F80770A0F8036001242C7579
:103640002C7000232B716B71AB71EB71284607F066
:1036500049FA204604E008F0E1FB204600E00020A3
:10366000BDE8F0812DE9F047BDF82070002918BFB2
:1036700000280CBF0120002031D016461D46884688
:1036800040F26C74A74294BF00240124632B98BFBE
:1036900044F0010424BB0F2008F060FB8146B0B168
:1036A000142008F05BFB8246A8B1C9F80980A9F88C
:1036B0000770A9F80350337D01333375494607F08D
:1036C00011FA5146304607F047FA012008E008F0A9
:1036D000A5FB204604E008F0A1FB204600E0002006
:1036E000BDE8F08730B583B00023ADF802308DF827
:1036F00000308DF8013018B104460346002513E070
:10370000009B01932FE0BDF8021001228A402A435A
:10371000D5B29DF8002001328DF80020BDF80220BE
:103720000132ADF80220DB6873B11A69002AEAD0D1
:10373000D2F809100988B2F807008142EED2B2F837
:1037400003209142EAD9DEE7284607F08CFE0128E3
:103750001CD00023ADF802309DF80020237D9A4252
:103760001AD0009B019300209DF8043063F30700FA
:103770009DF8053063F30F209DF8063063F3174082
:103780009DF8073063F31F6003B030BD284607F093
:103790005FFEADF80200DFE701238DF80130E0E7BE
:1037A000F0B5A3B007460D46164600211A911B91AD
:1037B0001C91ADF87410582204A818F093F8002E4C
:1037C00018BF002D2DD02B785BB3804BDB683146C2
:1037D000684698471AAB00980199029A07C3BDF84A
:1037E0000C201A80002385F8653085F8663085F84E
:1037F000673085F868309DF87530002B40F0C48044
:10380000BDF87030A5F86530BDF87230A5F86730A6
:10381000D5F80130EB616E4B9B7B85F8203000249E
:1038200012E058220021384618F05CF8384623B0E0
:10383000F0BD1B9B33F8142004F1100305EB430388
:10384000A3F801200134E4B2B37BA34210D9032CC6
:10385000EFD804EB4403C3EBC30368332B44581C79
:10386000FFF7FCFD231D05EB4303A3F80500E0E78C
:1038700005F1E700FFF736FF1E909DF87930AB7237
:10388000EB7A73B36B7A002B40D11A9BC5F80130E9
:10389000D5F805209A1AAA61C5F8053000232B73C4
:1038A0004C4B9B7C43B14B4BDB7C13B16B7A002BB5
:1038B00067D0484B00229A746B7A5BB9454BDB7C2E
:1038C00043B1B5F80D30042B04D900236B73AB73EF
:1038D00001236B726A7A3F4BDA740020FFF7AAFD6E
:1038E00067E005F1BD00FFF7FDFE1F909DF87D30FC
:1038F0006B7205F1D200FFF7F5FE20909DF8823043
:103900006B75022BBED901236B75BBE705F2111055
:10391000FFF7E8FE21909DF88530FBB12C4BD3F8E2
:103920002F20D3F83330134310D009F0FFF9284A81
:10393000D2F82F30D2F83320C01A61EB020164288C
:1039400071F10003A1D30123EB729EE709F0EEF9B8
:103950001F4BC3F82F00C3F83310E6E71C490023C0
:1039600081F82F3081F8303081F8313081F83230F1
:1039700081F8333081F8343081F8353081F83630D1
:1039800083E701232B7351E701232B730023EB7291
:10399000AB72032B08D81A1D05EB420200215171AE
:1039A00091710133DBB2F4E701200A4B9874FFF701
:1039B00041FD5824224605F1090104A817F06AFFC9
:1039C000224604A9384617F065FF2FE79C04002023
:1039D0001C1A0020681A002070B582B0884D00249F
:1039E0002C606C60AC60EC602C6109F09FF9286081
:1039F000844B1B6821460220984783498348FFF780
:103A00006FFD30B1804B1B78012B04D07C4B012221
:103A1000DA7402B070BD7C4BD3F8171040F26C73AF
:103A200001934FF47A73009364232246043177485C
:103A3000FFF79CFD0028E9D0734BD3F8171040F234
:103A40006C7301934FF47A73009364230122023163
:103A50006E48FFF78BFD0028D8D040F26C730193BD
:103A60004FF47A730093642302226749D1F8171048
:103A70006648FFF77BFD0028C8D0634BD3F81710CA
:103A800040F26C7301934FF47A7300936423032222
:103A900006315E48FFF76AFD0028B7D05A4BD3F8CD
:103AA00017105A484FF47A730093642300F1BD0253
:103AB0000831FFF79FFD0028A8D0534BD3F817100B
:103AC00052484FF47A730093642300F1E7020A31FD
:103AD000FFF790FD002899D04B4BD3F817104B48B7
:103AE0004FF496730093642300F1D2020C31FFF778
:103AF00081FD00288AD0444BD3F81710434840F288
:103B00004C4300934FF4617300F1D2020C31FFF784
:103B1000A9FD00283FF47AAF3B4BD3F817103B4880
:103B200040F26C73009340F2726300F1D2020C31E8
:103B3000FFF798FD00283FF469AF334BD3F8171017
:103B40003248C8230093642300F211120431FFF7B6
:103B500051FD00283FF45AAF2B4BD3F817102B48D8
:103B6000C8230093642300F211120231FFF77AFD9B
:103B700000283FF44BAF244BD3F81710234840F2F2
:103B80006C7300934FF4E16300F211120631FFF7FA
:103B900069FD00283FF43AAF1C48C8230093642312
:103BA00000F211121849D1F81710FFF75BFD002839
:103BB0003FF42CAF154C01256572322104F17E00D3
:103BC000FFF744FC322104F19300FFF73FFC322160
:103BD00004F1A800FFF73AFC0D4C2B2200212046EF
:103BE00017F080FE0B4E58220021304617F07AFE67
:103BF000C4F81160582363750023A375257405E785
:103C0000681A00202C0500201C1A0020F41800203F
:103C1000A0060020A000022400B597B0084A094978
:103C20006846FFF7BDFD58226946074817F032FE87
:103C30000649074807F0C4FF17B05DF804FB00BF52
:103C40001C1A0020F4180020A0000224CC0600203A
:103C5000A006002038B5084C60220021204617F04D
:103C600041FE064DAB69984720712B680321002067
:103C70009847207038BD00BF801A00201005002032
:103C800030B5A1B000220023CDE91E23CDE91C23CD
:103C9000894B1B78002B00F0EF80874B5B78002B63
:103CA00040F0EA80844901230B76844C0DF1260311
:103CB000069301F13C03059301F13803049301F1EC
:103CC0003403039301F13003029301F12C030193B8
:103CD00001F12803009301F1240301F120021C31BA
:103CE0001EA8A568A84763690DF127020CA91CA8A6
:103CF0009847E3690DF125009847236A09A898477A
:103D0000A3690AA898471E9A1F9B52EA030100F074
:103D1000A78069498868C9689042994115D2664967
:103D2000002048718A60CB609DF82630002B61D05E
:103D3000052B15D9062B61D15F4BDB78042B55D8A9
:103D400001335D4AD37000234DE05B4A5379013360
:103D5000DBB25371092BE7D9134601225A70E3E70E
:103D60005BB2002B4AD0544A92F85C300133DBB28C
:103D700082F85C30092B01D800231AE01346012297
:103D80005A7079E04C4A03F1100102EB8101086896
:103D900003F1080102EB8101486003F1120102EB1B
:103DA0008101496803F10C0002EB800211600133CC
:103DB000DBB2022BE6D921E03F4A03F1100102EB0E
:103DC0008101086803F1080102EB8101486003F1F9
:103DD000120102EB8101496803F10C0002EB800241
:103DE00011600133DBB2022BE6D907E0324B01222E
:103DF0009A7003E0304B002283F85C201C9A1D9BD4
:103E000052EA030111D09DF8241071B92A490869BA
:103E10004969824273EB010107D3274900200876E4
:103E20000A614B619DF8253033BB234B9B7833B13E
:103E30009DF8253003B3204B00229A70DA701E4B98
:103E40001B7ECBB9ADF82A30ADF82C30ADF82E3052
:103E50001B4B9B680AA898479DF8263043B30EE099
:103E6000154A92F85C300133DBB282F85C30092BE2
:103E700002D9134601225A70114B5B68984721B052
:103E800030BD0D4A03F1080102EB8101486803F1DE
:103E9000100102EB8101086003F10C0102EB8101CA
:103EA000096803F1120002EB800251600133DBB2BA
:103EB000022BE6D9E3E700BF801A0020440500206A
:103EC0001005002007EE900AF8EE677A17EE900AC8
:103ED000C0F3C7507F38C0B2704700008CB0654B4C
:103EE00098422FD0644B98423CD0644B984248D0C3
:103EF000634B984254D0634B984260D0624B9842D7
:103F00006CD0624B984278D0614B984200F084802C
:103F1000604B984200F08F805F4B984200F09A808F
:103F20005E4B98421CD103F5E053D3F8E02042F4F5
:103F30008062C3F8E020D3F8E03003F480630B9391
:103F40000B9B0DE003F58843D3F8E02042F001021B
:103F5000C3F8E020D3F8E03003F001030193019BA4
:103F60000CB0704703F58043D3F8E02042F0020222
:103F7000C3F8E020D3F8E03003F002030293029B81
:103F8000EEE703F57053D3F8E02042F00402C3F8E3
:103F9000E020D3F8E03003F004030393039BDFE752
:103FA00003F56053D3F8E02042F00802C3F8E020A4
:103FB000D3F8E03003F008030493049BD0E703F543
:103FC0005053D3F8E02042F01002C3F8E020D3F8B9
:103FD000E03003F010030593059BC1E703F5405360
:103FE000D3F8E02042F02002C3F8E020D3F8E0301C
:103FF00003F020030693069BB2E703F53053D3F892
:10400000E02042F04002C3F8E020D3F8E03003F0B3
:1040100040030793079BA3E703F52053D3F8E02061
:1040200042F08002C3F8E020D3F8E03003F08003D0
:104030000893089B94E703F51053D3F8E02042F46B
:104040008072C3F8E020D3F8E03003F48073099362
:10405000099B85E703F50053D3F8E02042F4007292
:10406000C3F8E020D3F8E03003F400730A930A9B0E
:1040700076E700BF0000025800040258000802580A
:10408000000C025800100258001402580018025880
:10409000001C025800200258002402580028025830
:1040A00010B584B004AC04E907001C46BDF8080054
:1040B000FFF708FF024B43F8204004B010BD00BFDB
:1040C000E01A002008B511F08CFF08BD10B58AB0C9
:1040D00001AB83E807000446FFF700FFBDF8083096
:1040E000059302230693002207920893039B0993EA
:1040F00005A9204611F0B6FD01200AB010BD10B58B
:104100008AB001AB83E807000446FFF7E7FEBDF87D
:10411000083005930023069302230793089305A90B
:10412000204611F09FFD01200AB010BD30B58BB0C4
:1041300001AB83E80700B0B10546FFF7CFFEBDF83D
:1041400008100591012406940794002308939DF814
:104150000A20284611F045FF05A9284611F082FDE6
:1041600020460BB030BD0020FBE700B585B004ABA6
:1041700003E90700BDF80830202B17D81AB2002A2F
:1041800045D0013B1F2B42D8DFE803F045474139BA
:104190004141413B414141414141413D4141414119
:1041A00041414141414141414141413FB3F5806F6E
:1041B00035D00BD9B3F5005F37D018D9B3F5804FA0
:1041C00037D0B3F5004F22D128200DE0B3F5807F22
:1041D00027D004D9B3F5007F19D1172004E0402B74
:1041E00021D0802B13D1172005B05DF804FBB3F567
:1041F000006F1CD0B3F5805F09D12820F4E70820B8
:10420000F2E70920F0E70A20EEE71720ECE70120AB
:10421000FEF71CFBE8E70620E6E70720E4E7282096
:10422000E2E71720E0E71720DEE72820DCE7282078
:10423000DAE72820D8E7F0B58BB001AC84E80700B6
:10424000A8B31C46054601AB93E80700FFF78DFFB6
:104250000DF06AFB022C2FD0032C30D0012C28D07B
:104260004FF404142846FFF739FEBDF808100591F5
:10427000069400270797032608969DF80A202846EB
:1042800011F0AFFE05A9284611F0ECFC01AC94E852
:104290000700FFF76AFF3A4631460DF001FB94E84C
:1042A0000700FFF762FF0DF031FB0BB0F0BD0020FF
:1042B000FBE74FF48814D5E74FF40414D2E74FF42A
:1042C0004414CFE7F0B58BB001AC84E8070078B3B5
:1042D0001D460446FFF702FEBDF8086005964FF440
:1042E0000413069300270797032308939DF80A20D9
:1042F0003146204611F075FE05A9204611F0B2FCAA
:104300003046FFF7DFFD0B4B43F8205001AC94E83B
:104310000700FFF72AFF3A4604210DF0C1FA94E89E
:104320000700FFF722FF0DF0F1FA01200BB0F0BDFE
:104330000020FBE7E01A002000B585B004AB03E9DC
:104340000700BDF8081011F045FE003818BF012025
:1043500005B05DF804FB000008B5FFF7B3FD034BA3
:1043600053F8203003B1984708BD00BFE01A002081
:104370008AB05B4B98422AD05A4B984237D05A4B5E
:10438000984243D0594B98424FD0594B98425BD0FA
:10439000584B984267D0584B984273D0574B98422D
:1043A0007FD0574B984200F08B80564B98421CD1DF
:1043B00003F5E053D3F8E02042F48062C3F8E02034
:1043C000D3F8E03003F480630993099B0DE003F513
:1043D0008843D3F8E02042F00102C3F8E020D3F88C
:1043E000E03003F001030093009B0AB0704703F52F
:1043F0008043D3F8E02042F00202C3F8E020D3F873
:10440000E03003F002030193019BEEE703F57053E4
:10441000D3F8E02042F00402C3F8E020D3F8E03003
:1044200003F004030293029BDFE703F56053D3F824
:10443000E02042F00802C3F8E020D3F8E03003F0B7
:1044400008030393039BD0E703F55053D3F8E02010
:1044500042F01002C3F8E020D3F8E03003F010037C
:104460000493049BC1E703F54053D3F8E02042F0E6
:104470002002C3F8E020D3F8E03003F020030593D6
:10448000059BB2E703F53053D3F8E02042F0400239
:10449000C3F8E020D3F8E03003F040030693069B16
:1044A000A3E703F52053D3F8E02042F08002C3F8DD
:1044B000E020D3F8E03003F080030793079B94E7F4
:1044C00003F50053D3F8E02042F40072C3F8E02073
:1044D000D3F8E03003F400730893089B85E700BF2E
:1044E000000002580004025800080258000C02584C
:1044F000001002580014025800180258001C0258FC
:10450000002402580028025810B1C16101207047F0
:104510000020704710B582B0BDF81040009413F031
:104520008FFD10B1002002B010BD0120FBE708B5DF
:1045300013F096FF08B1002008BD0120FCE708B584
:1045400013F01CFC08B1002008BD0120FCE70000AE
:1045500084B008B50DF1080C8CE80F00099B2A4ABD
:10456000934210D0294A934225D0294A93422AD017
:10457000284A93422FD0284A934234D0274A934264
:1045800039D0002013E0264AD2F8F03023F48053CB
:10459000C2F8F0300599029811F074FC069903985E
:1045A00011F070FC0799049811F06CFC0120BDE833
:1045B000084004B070471A4AD2F8E83023F4804328
:1045C000C2F8E830E6E7164AD2F8E83023F40043B0
:1045D000C2F8E830DEE7124AD2F8F03023F4005394
:1045E000C2F8F030D6E70E4AD2F8F03023F4801348
:1045F000C2F8F030CEE702F50C32D2F8F43023F0F6
:104600002003C2F8F430C5E7003001400038004014
:10461000003C0040003401400050014000140058AC
:104620000044025884B030B587B00AAC84E80F006B
:1046300000230193022202920393049305930546FB
:10464000FFF796FE0D9B0193109C059401A9284647
:1046500011F008FB0B9D2846FFF78AFE0E9B019385
:10466000059401A9284611F0FDFA0C9D2846FFF794
:104670007FFE0F9B0193059401A9284611F0F2FAE1
:10468000012007B0BDE8304004B0704784B010B5D9
:10469000ACB02EAC84E80F00359C534B9C4211D03B
:1046A000524B9C4256D0524B9C4261D0514B9C4243
:1046B0006CD0514B9C4277D0504B9C4200F0828092
:1046C000002042E04E4BD3F8F02042F48052C3F871
:1046D000F020D3F8F03003F480530493049B32AB02
:1046E00093E807008DE807002EAB0FCBFFF79AFF8A
:1046F0000A944FF480030B9300230C9307220D922E
:10470000369A0E92379A0F924FF080621092389A32
:10471000119212931393149315931693179318935E
:1047200019931A931B931C931D931E934FF00042F1
:104730001F9220930AA813F06DFA002851D1882205
:104740000AA9399817F0A6F801202CB0BDE810404E
:1047500004B070472A4BD3F8E82042F48042C3F8F3
:10476000E820D3F8E83003F480430593059BB6E7CF
:10477000234BD3F8E82042F40042C3F8E820D3F8F2
:10478000E83003F400430693069BA8E71C4BD3F8DC
:10479000F02042F40052C3F8F020D3F8F03003F4D4
:1047A00000530793079B9AE7154BD3F8F02042F488
:1047B0008012C3F8F020D3F8F03003F4801308938C
:1047C000089B8CE703F50C33D3F8F42042F0200269
:1047D000C3F8F420D3F8F43003F020030993099BC5
:1047E0007DE70020B1E700BF003001400038004005
:1047F000003C0040003401400050014000140058CB
:10480000004402588AB05B4B98422AD05A4B9842D7
:1048100037D05A4B984243D0594B98424FD0594BBE
:1048200098425BD0584B984267D0584B984273D00F
:10483000574B98427FD0574B984200F08B80564B95
:1048400098421CD103F5E053D3F8E02042F4806293
:10485000C3F8E020D3F8E03003F480630993099BA8
:104860000DE003F58843D3F8E02042F00102C3F8DD
:10487000E020D3F8E03003F001030093009B0AB07E
:10488000704703F58043D3F8E02042F00202C3F8FA
:10489000E020D3F8E03003F002030193019BEEE740
:1048A00003F57053D3F8E02042F00402C3F8E0208F
:1048B000D3F8E03003F004030293029BDFE703F533
:1048C0006053D3F8E02042F00802C3F8E020D3F8A8
:1048D000E03003F008030393039BD0E703F5505344
:1048E000D3F8E02042F01002C3F8E020D3F8E03023
:1048F00003F010030493049BC1E703F54053D3F87E
:10490000E02042F02002C3F8E020D3F8E03003F0CA
:1049100020030593059BB2E703F53053D3F8E0205D
:1049200042F04002C3F8E020D3F8E03003F0400347
:104930000693069BA3E703F52053D3F8E02042F04B
:104940008002C3F8E020D3F8E03003F0800307933F
:10495000079B94E703F50053D3F8E02042F400727C
:10496000C3F8E020D3F8E03003F400730893089B09
:1049700085E700BF000002580004025800080258F2
:10498000000C025800100258001402580018025877
:10499000001C02580024025800280258002808BFB2
:1049A000002901D10020704738B5044600F1F40514
:1049B00024220021284616F095FF2946201D15F0D7
:1049C00085FA012038BD40B108B5043015F03CFB34
:1049D000042814BF0020012008BD0020704708B53E
:1049E000043014F009FF08B9012008BD0020FCE7DD
:1049F00070B572B6051D284614F08EFE044662B6E8
:104A000008F094F9C4B10024114B1C70204670BD0D
:104A1000134600221A70284614F06AFF012801D0BC
:104A20000024F3E708F082F9801B0728EED9094A31
:104A3000136801331360E9E706464FF0FF33002B9C
:104A4000E1D0034A1478002CE2D1013BF7E700BF24
:104A5000211B0020241B002038B572B6051D2846F6
:104A600014F0EAFD62B670B100240D4B1C702046B4
:104A700038BD134600221A70284614F039FF012869
:104A8000F5D00024F3E74FF0FF33002BECD0044ABD
:104A90001478002CEDD1BFF34F8F013BF5E700BF39
:104AA000201B002010B5B0B00446BC22002101A894
:104AB00016F018FFDCB1104B9C4202D0012030B040
:104AC00010BD4FF48033019301A80EF01DFA80B998
:104AD0000A4BD3F8D42042F48032C3F8D420D3F860
:104AE000D43003F480330093009B0120E7E70020DB
:104AF000E5E70020E3E700BF0070005200440258E1
:104B000010B586B000230193029303930493059399
:104B10000223029303230493002940D00C46214B27
:104B2000984202D0002006B010BD0B6B05930869B7
:104B3000FFF768FEA36A019301A9206911F092F8BA
:104B40006069FFF75FFEE36A019301A9606911F0F4
:104B500089F82068FFF756FEA369019301A9206830
:104B600011F080F86068FFF74DFEE369019301A939
:104B7000606811F077F8A068FFF744FE236A01939C
:104B800001A9A06811F06EF8E068FFF73BFE636AC8
:104B9000019301A9E06811F065F80120C3E7002046
:104BA000C1E700BF00700052002840D000B583B0BC
:104BB0000346204AD2F8D41041F00101C2F8D410C3
:104BC000D2F8D42002F001020192019A1A4A02603E
:104BD0004FF0805282608021C1600022026140F269
:104BE0000220586140F6080098612020D8611962BF
:104BF0004FF000715962012199624FF44051D9621E
:104C00004FF4C03119635A639A63184612F030FEAC
:104C100018B1002003B05DF804FB00220A217A20BD
:104C20000CF03EFE7A200CF071FE0120F2E700202D
:104C3000704700BF004402584000005270B5002881
:104C400049D00446D0F8F000FFF72CFF2168D4F8D3
:104C5000F000FFF755FFD4F8F030204A93422AD0F5
:104C60001F4A934202D00025284670BD7C2663600F
:104C7000002323726372A372E37223736373A373BB
:104C8000E373237440226274A374E3742375637521
:104C9000A375E375012222766376A376E376227705
:104CA0006377A377E37704F18400FFF77DFF054680
:104CB00018B90025D8E73126D9E7201D15F0D5F918
:104CC0000028F6D10022042130460CF0E9FD3046E0
:104CD0000CF01CFEC8E70025C6E700BF00700052BC
:104CE000002402480268054B9A4200D07047044BEA
:104CF00001221A70BFF34F8FF8E700BF0070005217
:104D0000211B00200268054B9A4200D07047044BDB
:104D100001221A70BFF34F8FF8E700BF00700052F6
:104D2000201B002000B583B001900268064B9A4218
:104D300002D003B05DF804FB836B13F0100FF8D0C2
:104D400001A815F0F3F9F4E70070005270B50029DE
:104D500018BF00280CBF0124002436D01E4605468B
:104D6000A2B309300FF00AFC48B1431EDBB2012B9D
:104D700014D8D5F8D0310133C5F8D03126E0D5F8B4
:104D8000C0310133C5F8C03185F8B86196B9D5F89E
:104D9000CC310133C5F8CC31012417E0D5F8D4313A
:104DA0000133C5F8D43111E0D5F8D0310133C5F85D
:104DB000D0310BE0642295F8B941002CE7D1531EA5
:104DC000DBB2002AF0D01A46F5E70024204670BD79
:104DD00010B510B10024204610BD90F8BA41002C47
:104DE000F9D0C0F81110093010F01DFD0028F2D0E4
:104DF0000024F0E710B510B10024204610BD90F853
:104E0000BA41002CF9D0C0F81910093010F00BFD90
:104E10000028F2D00024F0E710B510B1002420469D
:104E200010BD90F8BA41002CF9D0C0F81510093027
:104E300010F0F9FC0028F2D00024F0E710B510B112
:104E40000024204610BD034690F8BA41002CF8D04B
:104E5000017191B1002280F841206FF07F0180F84C
:104E6000421080F8432080F8442003F1090010F03C
:104E7000DAFC0028E5D00024E3E7002280F8412096
:104E800080F8422080F8432080F84420EDE70000BD
:104E900070B5B2B00446BC22002103A816F022FD72
:104EA000002C5FD0D4F80530002B5ED0364A9342F8
:104EB0002ED0364A934240D0354A93425ED10223E7
:104EC000039303A80EF020F800285AD1314BD3F8F1
:104ED000E82042F08042C3F8E820D3F8E83003F03D
:104EE00080430293029B02252B4EF368D4F899016C
:104EF000D4F89D11D4F8A1219847F368D4F88D0116
:104F0000D4F89111D4F895219847284632B070BD55
:104F10000223039303A80DF0F7FF48BB1D4BD3F802
:104F2000E82042F40022C3F8E820D3F8E83003F484
:104F300000230093009B0025D6E70123039303A8D9
:104F40000DF0E2FFB8B9134BD3F8F02042F0200285
:104F5000C3F8F020D3F8F03003F020030193019B55
:104F60000125C1E74FF0FF30D0E74FF0FF30CDE72C
:104F70004FF0FF30CAE74FF0FF30C7E74FF0FF3088
:104F8000C4E74FF0FF30C1E7004C0040001401407F
:104F900000780040004402585C010020F0B5BDB02C
:104FA000044678252A4600210DEB050016F09AFCF0
:104FB0002A460021684616F095FC4FF48062229242
:104FC0004FF4803326934021209104920893002CC3
:104FD00057D0D4F80530002B56D0314A934242D0F6
:104FE000304A934244D0304A934250D14F230193E8
:104FF00050231F93022678273A460DEB070104F150
:105000009B0016F047FC04F215153A4669462846FF
:1050100016F040FC254B1B682A4694F9141194F9AC
:105020001301984750B3214B1B6804F19B073A4684
:1050300094F99A1094F999009847F8B1284611F01C
:10504000F9F938BBC4F8855004F10905C4F84D518D
:10505000384611F0EFF900BBC4F88170C4F8D350A2
:1050600030463DB0F0BD3F2301931F910026C2E7BB
:105070004723019348231F930126BCE74FF0FF30DD
:10508000EFE74FF0FF30ECE74FF0FF30E9E74FF08C
:10509000FF30E6E74FF0FF30E3E74FF0FF30E0E7A7
:1050A000004C00400014014000780040C401002082
:1050B00000B338B5D0F80530FBB1134A934213D092
:1050C00002F54842934212D0A2F51C42934217D1F6
:1050D000022452250022052128460CF0E1FB284637
:1050E0000CF014FC204638BD00243425F2E70124DE
:1050F0004725EFE74FF0FF3070474FF0FF30F2E702
:105100004FF0FF30EFE700BF004C004070B5A4B097
:105110000446002380F8BA31FFF7BAFE45B2002DED
:10512000C0F2A680D4F805300093236801930023D1
:105130000293039304930C2205920693079308931A
:10514000099330230A934FF480530F934FF4005385
:105150001093237913B14FF400430E9304F1090621
:1051600090226946304616F095FB304610F05BFB06
:1051700010B1002024B070BD2046FFF70FFF0028BB
:1051800009DB012384F8BB310021684610F020FDC3
:1051900028B10020EEE7022384F8BB31F4E70021B8
:1051A000684610F03AFD0028F3D1684610F0F1FC93
:1051B0000028EED1D4F8AD31002B5BD0B4F8B1317A
:1051C0000BB90020D6E72D4B43F82540002384F887
:1051D000B93184F8B831C4F8BC31C4F8C031C4F86E
:1051E000C431C4F8C831C4F8CC31C4F8D031C4F8E3
:1051F000D43194F8BB31012B03D0022B22D00020F4
:10520000B8E7D4F80920136843F010031360D4F80A
:105210000920936823F001039360D4F809201368F0
:1052200023F4807313602046FFF742FF002823DB3E
:1052300094F8BB31012B0CD0022B12D0012084F842
:10524000BA0197E7D4F80920136843F020031360EC
:10525000DDE7B4F8B121D4F8AD11304610F042FCCE
:10526000ECE7012204F2B311304610F0B3FBE5E79E
:1052700000207FE700207DE700207BE7281B00203F
:10528000144B53F8201019B310B5A4B09022093173
:10529000684616F0FFFA229A009CA36813F0400FAC
:1052A00001D0222A01D024B010BDA36823F040030E
:1052B000A3601F9808B111F0DBFB236823F49073FF
:1052C0002360A36823F00103A36020232293EAE76D
:1052D000704700BF281B0020022804D8034B53F856
:1052E0002000093070470020704700BF281B0020B5
:1052F0004B4B53F82030002B00F0908070B50446E3
:1053000003F10901474A1160D3F80920D0691568F3
:10531000966840F60F0C10EA0C0F04D193F8BBC14D
:10532000BCF1010F00D070BD03F215133E4E336087
:105330000029F8D0002BF6D0D1F8883010F0100FEB
:10534000F1D015F0100FEED0102313622046FFF7B6
:1053500097FF334B53F82400B0F8B12133681B6832
:10536000324D33498B4218BFAB422DD018318B429E
:105370002AD018318B4227D018318B4224D01831D3
:105380008B4221D018318B421ED018318B421BD05A
:1053900001F556718B4217D018318B4214D0183159
:1053A0008B4211D018318B420ED018318B420BD06A
:1053B00018318B4208D018318B4205D018318B42FE
:1053C00002D05B689BB201E05B689BB2D21A92B2DA
:1053D000C2B1D0F8A93123B1D0F8AD11D0F8B401E1
:1053E00098470F4B53F82430D3F8BC210132C3F84F
:1053F000BC21B3F8B121D3F8AD110A4B186810F0F5
:1054000071FB90E7D0F8C4310133C0F8C431054BCB
:105410001B681B685A6A08221A6284E7704700BF3B
:10542000281B0020341B0020381B002010000240E5
:105430002800024038B503682B4A93420AD002F58F
:105440004842934230D0A2F51C42934200D038BD6E
:10545000022300E000231C46244A52F82330002B8C
:10546000F5D093F8BB21012A20D0022AEFD1172BC7
:1054700038D000200FF0CAFD0028E8D01B4B53F8AD
:105480002430D3F8A9512DB1012203F2B311D3F87E
:10549000B401A847154B53F82400012200F2B311C0
:1054A000093010F097FAD2E70123D4E7D3F8A951D5
:1054B00035B1B3F8B121D3F8AD11D3F8B401A84791
:1054C0000A4D55F82400B0F8B121D0F8AD110930DB
:1054D00010F008FB55F82420D2F8C8310133C2F887
:1054E000C831B4E70120C5E7004C0040281B00206C
:1054F00003680F4A93420AD002F54842934214D0FF
:10550000A2F51C42934200D07047022200E0002224
:10551000084B53F82230002BF6D093F8B821002A1C
:10552000F2D0012283F8B921EEE70122F0E700BFB3
:10553000004C0040281B002050EA01032CD482B00C
:10554000CBB2072B98BF002815D0062B98BF012897
:1055500024D1134BD3F8D82042F00202C3F8D8204C
:10556000D3F8D83003F002030193019B0D4B53F89D
:10557000210002B070470A4BD3F8D82042F0010254
:10558000C3F8D820D3F8D83003F001030093009B70
:10559000054B53F82100ECE7002070470020E8E7B6
:1055A0000044025860D0040840D004082DE9F041BE
:1055B000CB0F53EAD07818D104460E461746C5B231
:1055C000CBB2012D98BF072B94BF0125002502D92E
:1055D0002846BDE8F081FFF7AFFF40B1386006EB29
:1055E000C404044B43F82470F2E70025F0E7454675
:1055F000EEE700BF3C1B0020024650EA010312D434
:10560000C0B25FFA81FC012898BFBCF1070F94BFBC
:105610000120002000D9704701EBC201034B00229A
:1056200043F8212070470020F5E700BF3C1B002015
:1056300050EA01030BD4C3B2CAB2012B98BF072AA8
:1056400007D801EBC001044B53F82100704700203C
:1056500070470020704700BF3C1B002050EA010348
:105660003BD410B5E8B907290ED8DFE801F00432C1
:105670000E10121416180B240022052120460CF0DF
:105680000FF920460CF042F910BD0D24F4E70E246A
:10569000F2E70F24F0E71024EEE71124ECE72F24C3
:1056A000EAE70128F0D10729EED8DFE801F0041479
:1056B00006080A0C0E103824DEE73A24DCE73B2407
:1056C000DAE73C24D8E74424D6E74524D4E7462447
:1056D000D2E70C24D0E73924CEE770472F4B98420D
:1056E00022D011D8A3F50063984230D003F580632F
:1056F000984207D104294BD008294BD0002939D032
:105700000020704700207047254B98420AD10C2991
:1057100038D8DFE801F0313737374137373733379B
:1057200037373500002070470C290ED8DFE801F02C
:10573000070D0D0D2C0D0D0D090D0D0D0B00372056
:105740007047392070473A207047002070470C2975
:105750000ED8DFE801F0070D0D0D1B0D0D0D090D25
:105760000D0D0B0017207047192070471A20704745
:10577000002070471D207047692070476B207047DC
:105780006C20704700207047382070471820704701
:105790001E2070471F2070476A207047000C004091
:1057A00000400140C0F8D010D0F8843099627047B2
:1057B000C0F8D410D0F88430D962C0F89010704787
:1057C000836B5A6A824209D09A6A82420CD0DA6AA2
:1057D00082420FD01A6B824212D070471A68D36887
:1057E00023F40073D36070471A68D36823F480638E
:1057F000D36070471A68D36823F40063D36070479E
:105800001A68D36823F48053D360E6E7D0F8E01039
:1058100051B310B50446D0F8E430C3B1D0F8D80085
:10582000421E032A13D8DFE802F00213171BD4F834
:1058300084203432283004EB8000406810F0CCFF24
:10584000D4F88420D368D4F8DC100B43D36010BDA7
:10585000D4F884203832EDE7D4F884203C32E9E7EC
:10586000D4F884204032E5E77047000008B5D0F84E
:10587000D830283300EB83035B68034ADA6341685E
:1058800084300DF031F908BDC157030830B587B039
:1058900004464B4B93F88130D3B1494B93F88010B9
:1058A00069BB1F2900F28880464B9C4229D0B4F185
:1058B000804F3BD0444B9C4246D0444B9C4251D0FD
:1058C000434B9C425CD0434B9C4267D0002074E029
:1058D0003B4D002185F880102022284616F002F862
:1058E000012385F88130D8E70133DBB29942D8D95A
:1058F000334A52F82320A242F6D100205DE0002373
:10590000F4E7354BD3F8F02042F00102C3F8F02061
:10591000D3F8F03003F001030093009B284B43F8C9
:105920002140013183F88010012046E02A4BD3F852
:10593000E82042F00102C3F8E820D3F8E83003F091
:1059400001030193019BE9E7234BD3F8E82042F0E0
:105950000202C3F8E820D3F8E83003F00203029310
:10596000029BDBE71C4BD3F8E82042F00402C3F8AB
:10597000E820D3F8E83003F004030393039BCDE75A
:10598000154BD3F8E82042F00802C3F8E820D3F81A
:10599000E83003F008030493049BBFE70E4BD3F8F1
:1059A000E82042F01002C3F8E820D3F8E83003F012
:1059B00010030593059BB1E7012007B030BD00BF80
:1059C0007C1B002000000140000400400008004053
:1059D000000C0040001000400044025882B02DE945
:1059E000F0478AB013939DF858709DF85C800023AF
:1059F00007930893099300930193029303930493ED
:105A0000059306930446994218BF98420CBF0120A3
:105A1000002000F0B88016468946189B199A002A83
:105A200018BF002B0CBF0125002500F0B3802772A2
:105A300084F809800C2E00F2A780DFE806F007A5A5
:105A4000A5A584A5A5A58CA5A5A594000123C4F8AA
:105A5000D8304FF40073C4F8DC304846FFF716FF27
:105A6000C4F80090C4F884904FF0000AC4F888A0ED
:105A7000C4F88CA0C4F890A0C4F894A0C4F89CA06A
:105A8000454BDB687FB24FFA88F841463846984765
:105A9000E06031464846FFF721FE20614023636104
:105AA000C4F818A04FF48063E3614FF4805323627D
:105AB0006362C4F828A04FF40033E3620423236335
:105AC000C4F834A0C4F838A0C4F83CA004F10C0910
:105AD000484610F0AFFC002856D1D4F8D83028330F
:105AE00004EB8303C3F8049004F1840AC4F844A0CF
:105AF00050460CF0D3FE002846D1002307930993AB
:105B000007A950460DF0A4F800283DD1602300936A
:105B100000230193029304933246694650460CF0E9
:105B200037FF88BB66601D4BDC6813AB93E807004A
:105B3000A047194B1B684A464146384698470546D8
:105B4000C8B9012520E00223C4F8D8304FF480639F
:105B5000C4F8DC3081E70323C4F8D8304FF4006385
:105B6000C4F8DC3079E70423C4F8D8304FF480530C
:105B7000C4F8DC3071E7084B1C690023052241465C
:105B80003846A04700E0002528460AB0BDE8F047A7
:105B900002B070470546F7E7C40100205C01002011
:105BA00070B582B00023ADF80430ADF800309842F3
:105BB00018BF99420CBF0124002416D00E4605469A
:105BC000F5238DF80430002088470222694601A899
:105BD000A84705460120B04725B19DF80130682B44
:105BE00000D02546284602B070BD0025FAE770B502
:105BF00082B0154661F07F018DF8071000228DF804
:105C00000620D8B11E4604460268CAB14368CBB12B
:105C100000209047636801220DF106010DF1070095
:105C2000984763689DF818203146284698470546EE
:105C3000236801209847284602B070BD0025FAE786
:105C40000025F8E70025F6E770B582B00023ADF82F
:105C50000430ADF80030D8B1164604460368CBB125
:105C60004368CBB161F07F018DF804100368002018
:105C7000984763680222694601A898470546236849
:105C8000012098479DF801303370284602B070BD5E
:105C90000025FAE70025F8E70025F6E730B583B0E0
:105CA0000023ADF80430ADF80030B8B10446036805
:105CB000B3B14368B3B18DF804108DF805200368C3
:105CC0000020984763680222694601A89847054664
:105CD000236801209847284603B030BD0025FAE725
:105CE0000025F8E70025F6E7002865D010B58646C0
:105CF00090F821C0BCF1070F94BF00240124002CB0
:105D00005CD1012000FA0CF010F08B0F14BF0120C1
:105D1000002038D08EF82110032A51D8DFE802F095
:105D2000020F171F4FF08D41CEF8181002218EF888
:105D30001210032B46D8DFE803F01A272F374FF055
:105D40008C41CEF8181004218EF81210F1E74FF0B4
:105D50008B41CEF8181008218EF81210E9E74FF0A9
:105D60008A41CEF8181010218EF81210E1E716497A
:105D7000CEF81C10FA21AEF81410D2008EF81020C4
:105D8000DB008EF8113010BD1049CEF81C104FF416
:105D9000FA71AEF81410F0E70D49CEF81C104FF46C
:105DA0007A71AEF81410E8E70A49CEF81C104FF4E7
:105DB000FA61AEF81410E0E7002070470020E2E737
:105DC0002046E0E72046DEE7000003430000834270
:105DD0003333034233338341016042608360009B6D
:105DE000C360704730B583B000238DF80730044698
:105DF00098B343688BB303687BB380226B21FFF7B2
:105E00004DFF054600283ED0A3680F2098470DF1AE
:105E1000070275212046FFF717FF0546002845D0E9
:105E20009DF80730682B55D014F1700F10D0042264
:105E300084F87020C44A626740F20B12A4F87820FC
:105E4000752284F87A2084F87B30682384F87C30CB
:105E5000A3680F209847002512E014F1700F0ED0B0
:105E6000012384F87030B84B6367F723A4F87830C7
:105E7000002384F87A3084F87B3084F87C30002565
:105E8000284603B030BD14F1700FF9D0032384F815
:105E90007030AD4B6367FE23A4F87830002384F89C
:105EA0007A3084F87B3084F87C30E9E714F1700FA5
:105EB000E6D0032384F87030A34B636740F20513E8
:105EC000A4F87830002384F87A3084F87B3084F8A2
:105ED0007C30D5E7032268212046FFF7DFFE054628
:105EE000002874D0A3680F20984703226B21204616
:105EF000FFF7D4FE054600287ED0A3680F20984700
:105F000010226A212046FFF7C9FE0546002800F04E
:105F10008880A3680F20984700226C212046FFF755
:105F2000BDFE0546002800F09180A3680F20984729
:105F300094F8212019212046FFF7B0FE05460028DD
:105F400000F09980A3680F209847627C1B212046AF
:105F5000FFF7A4FE0546002800F0A280A3680F20EA
:105F60009847227C1C212046FFF798FE0546002812
:105F700000F0AB80A3680F209847102237212046FD
:105F8000FFF78CFE0546002800F0B480A3680F20C0
:105F90009847012238212046FFF780FE0546002859
:105FA00000F0BD80A3680F20984714F1700F3FF4F4
:105FB00067AF002384F87030644A6267A4F87830D1
:105FC00084F87A3084F87B3084F87C3058E714F118
:105FD000700F3FF455AF052384F870305A4B636758
:105FE0004FF48973A4F87830002384F87A3084F869
:105FF0007B3084F87C3043E714F1700F3FF440AFFE
:10600000052384F87030504B63674FF48D73A4F808
:106010007830002384F87A3084F87B3084F87C3040
:106020002EE714F1700F3FF42BAF062384F8703085
:10603000454B63674FF49173A4F87830002384F8DC
:106040007A3084F87B3084F87C3019E714F1700FD3
:106050003FF416AF072384F870303B4B636740F280
:106060002913A4F87830002384F87A3084F87B3040
:1060700084F87C3004E714F1700F3FF401AF08237B
:1060800084F87030304B63674FF49873A4F878301D
:10609000002384F87A3084F87B3084F87C30EFE693
:1060A00014F1700F3FF4ECAE092384F87030264BE6
:1060B00063674FF49C73A4F87830002384F87A3037
:1060C00084F87B3084F87C30DAE614F1700F3FF40A
:1060D000D7AE0A2384F870301B4B63674FF4A0736C
:1060E000A4F87830002384F87A3084F87B3084F880
:1060F0007C30C5E614F1700F3FF4C2AE0B2384F878
:106100007030114B63674FF4A473A4F87830002308
:1061100084F87A3084F87B3084F87C30B0E614F16F
:10612000700F3FF4ADAE0C2384F87030064B6367FC
:106130004FF4A873A4F87830002384F87A3084F8F8
:106140007B3084F87C309BE680D00408A8D7040814
:10615000844670310FC98CE80F00604670470123F8
:1061600080F82030704790F820007047002070477A
:1061700070B58AB00023069307930893ADF82430D6
:10618000029303930493ADF8143090F87050002DEF
:1061900063D1044690F82060002E5FD0C368984712
:1061A000C4F82200C4F826100E23009302AB06AAFE
:1061B0003B212046FFF71BFD43E069000AAB03EBE0
:1061C000450313F8200C4B1C0AAA134413F8202C87
:1061D00042EA002212B205F11C0304EB43035A8089
:1061E0002B1D0AA800EB430313F8200C09310AAB5E
:1061F000194411F8203C43EA00231BB205F11801B1
:1062000004EB41018B8007EE902AF8EEE77AD4ED9B
:10621000066A87EEA67A05F1120204EB820282ED8D
:10622000027A07EE903AF8EEE77AD4ED076A87EE45
:10623000A67A05F1100304EB830383ED017A01359F
:10624000EDB2022DB9D9E3689847C4F82200C4F82A
:106250002610002384F8203000E0002630460AB0E3
:1062600070BD86B083690293C369039302AB93E860
:10627000030006AB03E903009DED040ADDED050A0A
:1062800006B07047838A07EE903AF8EEE77A9FED02
:10629000020A87EE800A704700007A4430B595B054
:1062A00004460D464C22002101A815F01BFB95F871
:1062B00070303BB14C220021204615F013FB2046E4
:1062C00015B030BD4C2205F12201204615F0E2FA4E
:1062D000F5E770B582B00023ADF80430ADF80030BA
:1062E000984218BF99420CBF0124002416D00E46D4
:1062F0000546F5238DF8003000208847022201A9C9
:106300006846A84705460120B04725B19DF80530ED
:10631000122B00D02546284602B070BD0025FAE7B2
:1063200070B582B00023ADF80430ADF80030D8B1BC
:10633000164604460368CBB14368CBB161F07F01D8
:106340008DF800100368002098476368022201A9B5
:106350006846984705462368012098479DF8053010
:106360003370284602B070BD0025FAE70025F8E733
:106370000025F6E730B583B00023ADF80430ADF862
:106380000030B8B104460368B3B14368B3B18DF8C7
:1063900000108DF8012003680020984763680222EE
:1063A00001A9684698470546236801209847284672
:1063B00003B030BD0025FAE70025F8E70025F6E731
:1063C000002865D010B5864690F830C0BCF1070FA4
:1063D00094BF00240124002C5CD1012000FA0CF0B1
:1063E00010F08B0F14BF0120002038D08EF8301031
:1063F000032B51D8DFE803F0020F171F4FF08D4138
:10640000CEF8181002218EF81410032A46D8DFE8BF
:1064100002F01A272F374FF08C41CEF818100421C4
:106420008EF81410F1E74FF08B41CEF818100821C8
:106430008EF81410E9E74FF08A41CEF818101021B9
:106440008EF81410E1E71649CEF81C10FA21AEF8C8
:106450001610DB008EF81230D2008EF8132010BD1B
:106460001049CEF81C104FF4FA71AEF81610F0E790
:106470000D49CEF81C104FF47A71AEF81610E8E70B
:106480000A49CEF81C104FF4FA61AEF81610E0E796
:10649000002070470020E2E72046E0E72046DEE7E4
:1064A000000003430000834233330342333383410C
:1064B000016042608360009BC360704708B10122A5
:1064C0000274704710B5044680226B21FFF752FF1B
:1064D000A36814209847E3689847012010BD000086
:1064E00030B583B000238DF807300446C8B1436847
:1064F000BBB10368ABB1FFF7E5FF054630BB14F154
:10650000200F20D0032384F82030B34B6362FB2399
:106510002385002384F82A3084F82B3084F82C302B
:1065200011E014F1200F0DD0012384F82030AA4B84
:106530006362F4232385002384F82A3084F82B3007
:1065400084F82C300025284603B030BD0DF1070239
:1065500075212046FFF7E4FEA3680A2098479DF8BE
:106560000730122B14D014F1200F0FD0022284F820
:106570002020994A62624FF482722285752284F843
:106580002A2084F82B30122384F82C300025DAE7F7
:1065900001226B212046FFF7EDFEA3680A209847F1
:1065A0000DF107026B212046FFF7BAFE9DF8073078
:1065B000012B14D014F1200F0FD0042284F82020D6
:1065C000854A626240F20F1222856B2284F82A20EB
:1065D00084F82B30012384F82C300025B3E7002207
:1065E0006C212046FFF7C6FEA3680A2098470DF1EC
:1065F00007026C212046FFF793FE9DF80730A3B1F8
:1066000014F1200F0FD0052284F82020724A626214
:106610004FF48D7222856C2284F82A2084F82B3066
:10662000002384F82C3000258DE74022702120467D
:10663000FFF7A0FEA3680A2098470DF1070270211A
:106640002046FFF76DFE9DF80730402B14D014F163
:10665000200F0FD0062284F820205F4A626240F2A9
:1066600025122285702284F82A2084F82B304023BA
:1066700084F82C30002566E794F830201921204654
:10668000FFF778FEA3680A2098470DF10702192149
:106690002046FFF745FE94F830309DF807209342DE
:1066A00013D014F1200F0ED00A2184F820104A498B
:1066B00061624FF498712185192184F82A1084F8B9
:1066C0002B2084F82C3000253DE7A27C1C2120469D
:1066D000FFF750FEA3680A2098470DF107021C211E
:1066E0002046FFF71DFEA37C9DF80720934213D0A0
:1066F00014F1200F0ED0082184F820103649616271
:1067000040F23B1121851C2184F82A1084F82B20AB
:1067100084F82C30002516E7E27C1B212046FFF789
:1067200029FEA3680A2098470DF107021B21204685
:10673000FFF7F6FDE37C9DF80720934213D014F198
:10674000200F0ED0092184F82010234961624FF4F4
:10675000A37121851B2184F82A1084F82B2084F84A
:106760002C300025EFE6602237212046FFF702FE9D
:10677000A3680A2098470DF1070237212046FFF74A
:10678000CFFD9DF80730602B14D014F1200F0FD0EF
:10679000072284F82020104A626240F251122285BA
:1067A000372284F82A2084F82B30602384F82C3098
:1067B0000025C8E614F1200F3FF4C5AE002384F88D
:1067C0002030064A6262238584F82A3084F82B3010
:1067D00084F82C30B7E600BF90D00408A8D704088E
:1067E00008B1007C70470020704708B10120704755
:1067F00000207047844620310FC98CE80F006046A6
:10680000704786B083690293C369039302AB93E830
:10681000030006AB03E903009DED040ADDED050A64
:1068200006B07047C38A07EE903AF8EEE77A9FED1C
:10683000020A87EE800A704700007A4430B595B0AE
:1068400004460D464C22002101A815F04BF895F89E
:1068500020300BB96B7C3BB14C220021204615F057
:1068600041F8204615B030BD2B744C2205F13101A2
:10687000204615F00FF8F4E730B583B00023ADF8EB
:106880000430ADF80030984218BF994216D00D463A
:106890000446F5238DF8043000208847022269461B
:1068A00001A8A04704460120A84754B19DF8013033
:1068B000422B08D0472B08D1002000E0002003B075
:1068C00030BD0220FBE70120F9E70220F7E770B5B1
:1068D00082B0154661F07F018DF8071000228DF817
:1068E0000620D8B11E4604464268CAB18368CBB1BF
:1068F00000209047A36801220DF106010DF1070069
:106900009847A368BDF818203146284698470546A1
:10691000636801209847284602B070BD0025FAE759
:106920000025F8E70025F6E770B582B00023ADF842
:106930000430ADF80030D0B1154604464368C3B109
:106940008268C2B161F07F018DF800100020984785
:10695000A368022201A96846984706466368012099
:1069600098479DF805302B70304602B070BD002668
:10697000FAE70026F8E70026F6E730B583B00023F3
:10698000ADF80430ADF80030B0B104464368ABB1A7
:106990008068A8B18DF800108DF80120002098477C
:1069A000A368022201A9684698470546636801204A
:1069B0009847284603B030BD0025FAE70025F8E7E0
:1069C0000025F6E700286AD000B5844690F8340028
:1069D000032866D8DFE800F0020F0B0D03208CF8C7
:1069E0003410032B5FD8DFE803F008151D250520C0
:1069F000F5E70620F3E70420F1E74FF08D41CCF8EE
:106A00001C1002218CF81810032A4ED8DFE802F07F
:106A10001A2F373F4FF08C41CCF81C1004218CF812
:106A20001810F1E74FF08B41CCF81C1008218CF8BE
:106A30001810E9E74FF08A41CCF81C1010218CF8AF
:106A40001810E1E71A49CCF82010FA21ACF81A1016
:106A5000C3F1030340EA43138CF81630C2F103027A
:106A600040EA42128CF8172001205DF804FB11491E
:106A7000CCF820104FF4FA71ACF81A10E8E70E4980
:106A8000CCF820104FF47A71ACF81A10E0E70B49FB
:106A9000CCF820104FF4FA61ACF81A10D8E70020B7
:106AA00070470020E1E70020DFE70020DDE700BFBE
:106AB00000000343000083423333034233338341F6
:106AC00041608260C360009B0361704730B583B052
:106AD00000238DF80730C8B1054601F007042246AF
:106AE0007621FFF74AFF034610B9184603B030BDC0
:106AF0000DF1070276212846FFF716FF034638B14D
:106B00009DF807209442F0D00023EEE70023ECE745
:106B10000023EAE710B582B000238DF80730B8B142
:106B200004461A464E21FFF728FF034610B91846BF
:106B300002B010BD0DF107024E212046FFF7F4FE12
:106B4000034638B19DF80720002AF0D00023EEE775
:106B50000023ECE70023EAE730B583B000238DF88B
:106B60000730E0B10546C368DBB10F224E21FFF7C5
:106B700004FF0446EB680120984714B9204603B08F
:106B800030BD0DF107024E212846FFF7CDFE044629
:106B900048B19DF807300F2BF0D00024EEE7002419
:106BA000ECE70024EAE70024E8E7000030B583B012
:106BB00000238DF807308DF806300446B0B14368E5
:106BC000A3B1836893B10DF107027521FFF7ACFE05
:106BD00008B39DF80730422B30D0472B49D0022311
:106BE0002370092384F82430002012E014F1240FCC
:106BF0000ED0012384F82430B04BA36240F2591325
:106C0000A385002384F82E3084F82F3084F83030A8
:106C1000002003B030BD14F1240FFAD0072384F80C
:106C20002430A64BA3624FF4B073A385002384F8ED
:106C30002E3084F82F3084F83030EAE701232370B7
:106C40009F4D00212046FFF741FFB0B914F1240FFA
:106C5000DFD0072384F82430984BA3624FF4BC7331
:106C6000A385002384F82E3084F82F3084F8303048
:106C7000CFE700232370934DE3E72046FFF74AFF59
:106C800090B914F1240FC4D00C2384F824308B4B1A
:106C9000A36240F27F13A385002384F82E3084F88A
:106CA0002F3084F83030B4E701212046FFF70EFF83
:106CB00090B914F1240FACD0072384F824307F4B13
:106CC000A3624FF4C373A385002384F82E3084F8A5
:106CD0002F3084F830309CE72A780C212046FFF7CB
:106CE0004CFE98B914F1240F0ED0072384F82430F9
:106CF000724BA36240F28D13A385002384F82E30DB
:106D000084F82F3084F83030002082E70DF107023C
:106D10000C212046FFF708FE0028E3D02B789DF8D1
:106D20000720934213D014F1240F0ED0062184F8CB
:106D300024106249A16240F29311A1850C2184F8CC
:106D40002E1084F82F2084F83030002061E7AA78D4
:106D50000D212046FFF711FE98B914F1240F0ED033
:106D6000072384F82430554BA3624FF4CD73A385D9
:106D7000002384F82E3084F82F3084F8303000203F
:106D800047E70DF107020D212046FFF7CDFD002852
:106D9000E3D09DF807206B88A9788A4214D0DBB233
:106DA00014F1240F0ED0062184F824104349A16267
:106DB0004FF4D071A1850D2184F82E1084F82F2076
:106DC00084F83030002024E72A791B0A43EA0212B3
:106DD000D2B20E212046FFF7D0FD98B914F1240F4E
:106DE0000ED0072384F82430344BA3624FF4D473BD
:106DF000A385002384F82E3084F82F3084F83030B7
:106E0000002006E70DF107020E212046FFF78CFD5A
:106E10000028E3D09DF8070069882A79120142EA28
:106E20001121884214D0CBB214F1240F0ED00622C7
:106E300084F82420214AA2624FF4D772A2850E2240
:106E400084F82E2084F82F0084F830300020E0E60B
:106E500002212046FFF73AFE98B914F1240F3FF4BF
:106E6000D8AE072384F82430144BA3624FF4DB73AD
:106E7000A385002384F82E3084F82F3084F8303036
:106E8000C7E62A78520002F0FE0203212046FFF7EF
:106E900074FDC8B914F1240F0ED0072384F82430F0
:106EA000064BA36240F2BD13A385002384F82E3065
:106EB00084F82F3084F830300020AAE6A4D00408EB
:106EC00078020020900200200DF1070203212046E5
:106ED000FFF72AFD0028DDD09DF807202B78B2EBC4
:106EE000430F15D05B00DBB214F1240F0ED0052147
:106EF00084F82410BB49A16240F2C311A18503218B
:106F000084F82E1084F82F2084F83030002080E69A
:106F1000AA7804212046FFF730FD98B914F1240F18
:106F20000ED0072384F82430AE4BA3624FF4E573F0
:106F3000A385002384F82E3084F82F3084F8303075
:106F4000002066E60DF1070204212046FFF7ECFC65
:106F50000028E3D09DF807206B88A9788A4214D0D6
:106F6000DBB214F1240F0ED0052184F824109D49C2
:106F7000A1624FF4E871A185042184F82E1084F8F1
:106F80002F2084F83030002043E62A791B0A43EA98
:106F90000212D2B205212046FFF7EFFC98B914F196
:106FA000240F0ED0072384F824308E4BA3624FF4B5
:106FB000EC73A385002384F82E3084F82F3084F8F6
:106FC0003030002025E60DF1070205212046FFF7AD
:106FD000ABFC0028E3D09DF8070069882A791201EC
:106FE00042EA1121884213D0CBB214F1240F0DD004
:106FF000052284F824207B49A1624FF4EF71A1851A
:1070000084F82E2084F82F0084F83030002000E629
:1070100000212046FFF75AFD98B914F1240F3FF4E0
:10702000F8AD072384F824306E4BA3624FF4F3735A
:10703000A385002384F82E3084F82F3084F8303074
:10704000E7E5FF2252212046FFF797FC98B914F19B
:10705000240F0ED0072384F82430624BA36240F241
:10706000ED13A385002384F82E3084F82F3084F8A4
:1070700030300020CDE50DF1070252212046FFF708
:1070800053FC0028E3D09DF80730FF2B14D014F1F7
:10709000240F0FD0032284F82420524AA26240F227
:1070A000F312A285522284F82E2084F82F30FF2379
:1070B00084F830300020ACE5032214212046FFF78D
:1070C0005CFC98B914F1240F0ED0072384F8243007
:1070D000444BA3624FF4FE73A385002384F82E3043
:1070E00084F82F3084F83030002092E50DF107024B
:1070F00014212046FFF718FC0028E3D09DF8073044
:10710000032B14D014F1240F0FD0042284F8242070
:10711000344AA26240F20222A285142284F82E2070
:1071200084F82F30032384F83030002071E50022EA
:1071300063212046FFF721FC30B10DF107026321E6
:107140002046FFF7F1FB98B914F1240F0ED0072366
:1071500084F82430234BA36240F20A23A385002342
:1071600084F82E3084F82F3084F83030002050E539
:107170009DF80730A3B114F1240F0FD0042284F836
:107180002420184AA2624FF40472A285632284F874
:107190002E2084F82F30002384F83030002038E58A
:1071A000082265212046FFF7E8FB30B10DF1070208
:1071B00065212046FFF7B8FBB0B914F1240F0ED0BB
:1071C000072384F82430074BA36240F21723A385DA
:1071D000002384F82E3084F82F3084F830300020DB
:1071E00017E500BFA4D004089DF80730082B14D081
:1071F00014F1240F0FD0042284F824209D4AA262A7
:1072000040F21D22A285652284F82E2084F82F30BA
:10721000082384F830300020FBE40DF106026421DD
:107220002046FFF781FB98B914F1240F3FF4F1AC2D
:10723000072384F824308F4BA36240F22323A385D5
:10724000002384F82E3084F82F3084F83030E0E4C6
:107250009DF8062002F0EF028DF8062042F0600251
:107260008DF8062064212046FFF787FB30B10DF131
:10727000070264212046FFF757FB98B914F1240F49
:107280000ED0072384F824307A4BA36240F22D23DA
:10729000A385002384F82E3084F82F3084F8303012
:1072A0000020B6E49DF807209DF806309A4213D0DE
:1072B00014F1240F0ED0042184F824106D49A1622A
:1072C00040F23321A185642184F82E1084F82F2008
:1072D00084F8303000209CE42046FFF73DFC98B94C
:1072E00014F1240F3FF495AC0D2384F82430614B46
:1072F000A36240F23A23A385002384F82E3084F859
:107300002F3084F8303084E4E27D4F212046FFF7AF
:1073100034FB98B914F1240F3FF47BAC072384F8B5
:107320002430544BA36240F24123A385002384F808
:107330002E3084F82F3084F830306AE4E3680F2070
:1073400098470DF107024F212046FFF7EDFA98B953
:1073500014F1240F3FF45DAC072384F82430454B2F
:10736000A3624FF41273A385002384F82E3084F8AF
:107370002F3084F830304CE4E37D9DF807209342B1
:1073800013D014F1240F0ED00B2184F824103949A6
:10739000A16240F24E21A1854F2184F82E1084F87D
:1073A0002F2084F83030002033E4A27D5021204685
:1073B000FFF7E3FA98B914F1240F3FF42AAC07233E
:1073C00084F824302B4BA3624FF41573A38500235C
:1073D00084F82E3084F82F3084F8303019E4E368D4
:1073E0000F2098470DF1070250212046FFF79CFA25
:1073F000A0B914F1240F3FF40CAC072384F8243017
:107400001C4BA3624FF41773A385002384F82E301E
:1074100084F82F3084F83030FFF7FBBBA37D9DF854
:107420000720934214D014F1240F0ED00A2184F8BF
:1074300024101049A16240F26221A185502184F8F4
:107440002E1084F82F2084F830300020FFF7E1BBA5
:1074500014F1240F3FF4DDAB002384F82430064AF6
:10746000A262A38584F82E3084F82F3084F830305F
:10747000FFF7CFBBA4D00408A8D70408F0B58BB0A1
:1074800000230893ADF824300693ADF81C30039325
:107490000493059390F82450002D6ED10446067D88
:1074A000002E6BD003699847C4F83500C4F8391032
:1074B0000627009703AB08AA1F212046FFF707FA0B
:1074C00000970DF1120306AA25212046FFF7FFF9C8
:1074D00048E06B000AAA02EB450212F81C0C591C8A
:1074E0000AAA114411F81C2C42EA002211B207EE3C
:1074F000101A05F1240104EB4101A1F80520EA1C52
:107500000AA901EB420212F81C2C07330B4413F8B2
:107510001C3C43EA02231AB207EE902A05F120022E
:1075200004EB4202A2F80730B8EEC77AD4ED076A3E
:1075300005F1160304EB830387EE267A17EE102A73
:10754000C3F80B20F8EEE77A94ED087A05F11403FE
:1075500004EB8303C7EE877A17EE902AC3F807205F
:107560000135EDB2022DB4D923699847C4F835002E
:10757000C4F839100023237500E0002630460BB014
:10758000F0BD08B101220275704708B1007D704757
:1075900000207047844624310FC98CE80F006046F4
:1075A000704786B0C3690293036A039302AB93E802
:1075B000030006AB03E903009DED040ADDED050AB7
:1075C00006B07047438B07EE903AF8EEE77A9FEDEE
:1075D000020A87EE800A704700007A4430B595B001
:1075E00004460D464C22002101A814F07BF995F8C1
:1075F00024303BB14C220021204614F073F9204680
:1076000015B030BD4C2205F13501204614F042F989
:10761000F5E7000000B585B004AB03E90700064BB1
:107620005B683BB104AA12E907009847012005B046
:107630005DF804FB0020FAE75C01002000B585B08E
:107640000DF1100C0CE907001A46064BDB6933B14B
:10765000BDF808109847012005B05DF804FB002034
:10766000FAE700BF5C010020002848D010B50446AE
:10767000244B1B689847B8B3224B5B6904F1F401B3
:1076800020469847A0B3D4F80431C4F82A31D4F87E
:107690000821C4F82E21D4F81421C4F83A21D4F8D2
:1076A000F420C4F81A21D4F80C21C4F83221D4F8FB
:1076B0001021C4F83621D4F80021C4F82621012273
:1076C00084F81921002084F8460184F8470184F8E1
:1076D0003E0184F83F0184F8400184F84101C4F878
:1076E000423184F8180110BD022084F81801FAE72D
:1076F000002384F81931032084F81801F3E70120EE
:10770000704700BF9401002010B190F81801704735
:107710000120704738B505460C462F22002114F091
:10772000E1F8F4B104F219132A4604F23914D3F83B
:1077300000E0D3F804C09868D968C2F800E0C2F845
:1077400004C09060D16010331032A342EFD11C68A6
:107750005868996814605060916099899B7B918109
:107760009373284638BD000010B5BDF80830864632
:10777000002A18BF00280CBF0120002013D08C461F
:107780001146BCF1000F18BF002B0CBF01240024D0
:107790000AD0DEF82A21624507D3054A946862467A
:1077A0007046A04700E0002010BD2046FCE700BF67
:1077B0009401002038B5BDF810408446002A18BF57
:1077C00000280CBF0120002013D0964694B1DCF8AD
:1077D0002A218A420ED3DCF82E2104FB02F29342C6
:1077E00008D3054B5D6823460A4671466046A847A4
:1077F00000E0002038BD00BF94010020002918BF20
:10780000182A40F29C8070B5044615460E460028A2
:1078100000F097802122002114F064F83378F02BD7
:1078200001D0022070BD192D01D00220FAE7737833
:10783000B27843EA0223C3F30A032380B378F278D1
:10784000DB0843EA4213C3F30A036380F378327917
:107850009B0943EA8203727943EA8223C3F30A0352
:10786000A3807379B2795B0843EAC213C3F30A03B6
:10787000E380B379F2791B0943EA0213C3F30A03E5
:107880002381F379327ADB0943EA4203727A43EACD
:107890004223C3F30A036381737AB27A9B0843EAF3
:1078A0008213C3F30A03A381B37AF27A5B0943EA32
:1078B000C203E381337B727B43EA0223C3F30A03EF
:1078C0002382737BB27BDB0843EA4213C3F30A03D0
:1078D0006382B37BF27B9B0943EA8203327C43EAF7
:1078E0008223C3F30A03A382337C727C5B0843EADE
:1078F000C213C3F30A03E382737CB27C1B0943EA1D
:107900000213C3F30A032383B37CF27CDB0943EA4B
:107910004203327D43EA4223C3F30A036383337D88
:10792000727D9B0843EA8213C3F30A03A383737D2A
:10793000B27D5B0943EAC203E383002072E70120C2
:10794000704701206EE730B108B52122002113F005
:10795000C9FF012008BD0020704700000346002237
:10796000104608E013F801CB8CEA000C044810F82C
:107970000C000132D2B21FFA82FC8C45F2D3704760
:10798000B8D0040884B00346002201920292ADF8F8
:107990000C2049B18C4601AAD1F84300D1F8471018
:1079A00003C2BCF84B10118001AA03CA18605960C9
