:020000040800F2
:100000000000022099290008B90B0008BB0B00086A
:10001000BD0B0008BF0B0008C10B0008000000006A
:10002000000000000000000000000000C30B0008FA
:10003000C50B000800000000C70B0008C90B000832
:10004000E9290008E9290008E9290008E929000848
:10005000E9290008E9290008E9290008E929000838
:10006000E9290008E9290008E9290008E929000828
:10007000E9290008E9290008E9290008E929000818
:10008000E9290008E9290008E9290008E929000808
:10009000E9290008E9290008E9290008E9290008F8
:1000A000E9290008E9290008E9290008E9290008E8
:1000B000E9290008E9290008E9290008E9290008D8
:1000C000E9290008E9290008E9290008E9290008C8
:1000D000E9290008E9290008E9290008E9290008B8
:1000E000E9290008E929000800000000E9290008C2
:1000F000E9290008E9290008E9290008E929000898
:10010000E9290008E9290008E9290008E929000887
:10011000E9290008E9290008E9290008E929000877
:10012000E9290008E9290008E9290008E929000867
:10013000E9290008E9290008E9290008E929000857
:1001400000000000000000000000000000000000AF
:10015000E9290008E9290008E9290008E929000837
:10016000E9290008E9290008E9290008E929000827
:10017000E9290008E9290008E92900080000000031
:10018000E9290008E9290008E9290008E929000807
:10019000E9290008E9290008E9290008E9290008F7
:1001A000E9290008E9290008E9290008E9290008E7
:1001B000E9290008E9290008E9290008E9290008D7
:1001C000E9290008E9290008E9290008E9290008C7
:1001D000E9290008E9290008E9290008E9290008B7
:1001E000E9290008E9290008E9290008E9290008A7
:1001F000E9290008E9290008E9290008E929000897
:10020000E9290008E9290008E9290008E929000886
:10021000E9290008E9290008E9290008E929000876
:10022000E9290008E9290008E92900080000000080
:10023000E9290008E929000800000000E929000870
:10024000E9290008E9290008E9290008E929000846
:10025000E9290008E9290008E9290008E929000836
:10026000E9290008E9290008E9290008E929000826
:10027000E9290008E9290008E92900080000000030
:10028000E9290008E9290008E92900080000000020
:0802900000000000E92900084C
:1002980010B5054C237833B9044B13B10448AFF3B8
:1002A80000800123237010BD3000002000000000F2
:1002B800442A000808B5034B1BB103490348AFF3B0
:1002C800008008BD0000000034000020442A000817
:1002D80053B94AB9002908BF00281CBF4FF0FF31A5
:1002E8004FF0FF3000F074B9ADF1080C6DE904CEA1
:1002F80000F006F8DDF804E0DDE9022304B07047F9
:100308002DE9F047089D04468E46002B4DD18A42C0
:10031800944669D9B2FA82F252B101FA02F3C2F1F3
:10032800200120FA01F10CFA02FC41EA030E944084
:100338004FEA1C48210CBEFBF8F61FFA8CF708FBA5
:1003480016E341EA034306FB07F199420AD91CEB7D
:10035800030306F1FF3080F01F81994240F21C81AF
:10036800023E63445B1AA4B2B3FBF8F008FB1033F7
:1003780044EA034400FB07F7A7420AD91CEB04042C
:1003880000F1FF3380F00A81A74240F207816444FC
:10039800023840EA0640E41B00261DB1D440002381
:1003A800C5E900433146BDE8F0878B4209D9002DE5
:1003B80000F0EF800026C5E9000130463146BDE86F
:1003C800F087B3FA83F6002E4AD18B4202D38242D9
:1003D80000F2F980841A61EB030301209E46002D88
:1003E800E0D0C5E9004EDDE702B9FFDEB2FA82F2DD
:1003F800002A40F09280A1EB0C014FEA1C471FFA3B
:100408008CFE0126200CB1FBF7F307FB131140EA21
:1004180001410EFB03F0884208D91CEB010103F1EE
:10042800FF3802D2884200F2CB804346091AA4B2B0
:10043800B1FBF7F007FB101144EA01440EFB00FE84
:10044800A64508D91CEB040400F1FF3102D2A645E9
:1004580000F2BB800846A4EB0E0440EA03409CE788
:10046800C6F12007B34022FA07FC4CEA030C20FA35
:1004780007F401FA06F31C43F9404FEA1C4900FA55
:1004880006F3B1FBF9F8200C1FFA8CFE09FB1811D2
:1004980040EA014108FB0EF0884202FA06F20BD945
:1004A8001CEB010108F1FF3A80F08880884240F295
:1004B8008580A8F102086144091AA4B2B1FBF9F0D9
:1004C80009FB101144EA014100FB0EFE8E4508D9D4
:1004D8001CEB010100F1FF346CD28E456AD9023859
:1004E800614440EA0840A0FB0294A1EB0E01A1423E
:1004F800C846A64656D353D05DB1B3EB080261EBAC
:100508000E0101FA07F722FA06F3F1401F43C5E985
:10051800007100263146BDE8F087C2F12003D840BB
:100528000CFA02FC21FA03F3914001434FEA1C47FD
:100538001FFA8CFEB3FBF7F007FB10360B0C43EAEF
:10054800064300FB0EF69E4204FA02F408D91CEB9F
:10055800030300F1FF382FD29E422DD9023863449D
:100568009B1B89B2B3FBF7F607FB163341EA03413D
:1005780006FB0EF38B4208D91CEB010106F1FF388C
:1005880016D28B4214D9023E6144C91A46EA004683
:1005980038E72E46284605E70646E3E61846F8E615
:1005A8004B45A9D2B9EB020864EB0C0E0138A3E75E
:1005B8004646EAE7204694E74046D1E7D0467BE73F
:1005C800023B614432E7304609E76444023842E7B7
:1005D800704700BF30B585B000220023CDE9022363
:1005E800CDE900233B4B5B6913F4003F12D1BFF305
:1005F8004F8FBFF36F8F374BC3F85022BFF34F8F26
:10060800BFF36F8F5A6942F400325A61BFF34F8FBC
:10061800BFF36F8F2F4B5B6913F4803F27D12D4BAE
:100628000022C3F88420BFF34F8FD3F88040C4F36F
:100638004E3000E01846C4F3C90243F6E07303EAFB
:10064800401343EA82732349C1F860321346013AE2
:10065800002BF2D1431E0028ECD1BFF34F8F4B691A
:1006680043F480334B61BFF34F8FBFF36F8F00F0BC
:1006780045FC44F6206000F017FA00F05FFA164BCC
:100688001A68164B93E803009047002506E0124BC2
:100698005C68124B2A4693E80300A04700F07CFAF6
:1006A800CDE9020132220023DDE90201FFF710FE45
:1006B8001343ECD1DDE90001DDE90223994208BFCB
:1006C8009042E4D085F00105DDE90223CDE900235D
:1006D800DDE700BF00ED00E014000020000000206E
:1006E80008B502F024F908BD08B502F019F9003878
:1006F80018BF012008BD000084B000B58DB00DF111
:10070800380C8CE80F00002800F0DC8003466E4AA5
:10071800904230D06D4A90424DD06D4A904259D0A7
:100728006C4A904265D06C4A904271D06B4A9042B4
:100738007DD06B4A904200F089806A4A904200F06E
:100748009480694A904200F09F80684A904200F085
:10075800AA80674A90421CD102F5E052D2F8E01014
:1007680041F48061C2F8E010D2F8E02002F480621F
:100778000B920B9A0DE002F58842D2F8E01041F096
:100788000101C2F8E010D2F8E02002F00102019263
:10079800019A9DF85220BDF83C10184602F0C7F89F
:1007A8000EA951F8060B01F0ABFF01200DB05DF862
:1007B80004EB04B0704702F58042D2F8E01041F033
:1007C8000201C2F8E010D2F8E02002F00202029220
:1007D800029ADEE702F57052D2F8E01041F0040107
:1007E800C2F8E010D2F8E02002F004020392039A63
:1007F800CFE702F56052D2F8E01041F00801C2F8E4
:10080800E010D2F8E02002F008020492049AC0E74F
:1008180002F55052D2F8E01041F01001C2F8E01091
:10082800D2F8E02002F010020592059AB1E702F52D
:100838004052D2F8E01041F02001C2F8E010D2F89E
:10084800E02002F020020692069AA2E702F5305252
:10085800D2F8E01041F04001C2F8E010D2F8E020F0
:1008680002F040020792079A93E702F52052D2F865
:10087800E01041F08001C2F8E010D2F8E02002F068
:1008880080020892089A84E702F51052D2F8E01024
:1008980041F48071C2F8E010D2F8E02002F48072CE
:1008A8000992099A75E702F50052D2F8E01041F46E
:1008B8000071C2F8E010D2F8E02002F400720A9247
:1008C8000A9A66E7002071E70000025800040258FF
:1008D80000080258000C0258001002580014025870
:1008E80000180258001C0258002002580024025820
:1008F8000028025810B58EB004AB83E80300174BEC
:100908001C6844B3BDF81430ADF8203007909DF84A
:1009180016208DF83620CDF8223000230122ADF8BC
:100928002620ADF82830ADF82A30ADF82C30022258
:10093800ADF82E20ADF830306B460EAA12E907004C
:1009480003C323F8022B120C1A7007AB0FCBA04776
:1009580001200EB010BD0020FBE700BF08000020FA
:1009680000B583B002AB03E90300064B9B6833B1C3
:10097800BDF804109847012003B05DF804FB00207F
:10098800FAE700BF0800002072B6FEE700B5CDB058
:100998004C22002139A802F049F82022002131A870
:1009A80002F044F8BC22002102A802F03FF802201D
:1009B80001F0C4FF00230193384BDA6A22F00102E8
:1009C800DA62DB6A03F001030193354B9A6942F45A
:1009D80040429A619B6903F440430193019B304B69
:1009E8009B6913F4005FFAD02E4A936A23F003033D
:1009F80043F002039362092339934FF480333A9307
:100A080001233E930223429343930522449280227A
:100A180045924693082347934893499300234A9362
:100A28004B9339A800F000FB002830D13F233193C5
:100A380003233293002333930823349340233593BD
:100A480036934FF4806237923893022131A800F030
:100A58001FFFF0B941F20303029319230B93F0230C
:100A68000C9304230D9303230E9302230F93002367
:100A78001093119312934FF4005219921F932093DD
:100A880002A801F05BF930B94DB05DF804FBFFF73F
:100A98007BFFFFF779FFFFF777FF00BF00040058DF
:100AA800004802580044025870B5044642F21073D8
:100AB80098420CD041F2883398422FD0B0F5FA6FA3
:100AC8002ED0B0F57A7F2DD044F6206600E0064699
:100AD800FFF75CFF144D00232B77144BB3FBF6F3A1
:100AE800AB60EC6000F0D6F8EA68114B1B68B3FB0A
:100AF800F2F3013BB3F1807F0AD24FF0E022536159
:100B08000C4BF02183F82310002393610723136112
:100B180000F0C4FD084B1860012070BD0646D7E7F9
:100B28000646D5E70646D3E75000002040420F00AE
:100B38001C00002000ED00E07000002008B5064B06
:100B480001221A7700200021C3E900011B6913B1B3
:100B5800014B1B69984708BD5000002038B50D4B64
:100B68001B7FDBB2012B01D0002038BD094B0022CE
:100B78005A779A68D3E90001841841F10005C3E95E
:100B8800004501225A779B6913B1024B9B6998472C
:100B98000120EAE75000002008B54FF47A720023DC
:100BA8000249D1E90001FFF793FB08BD500000207E
:100BB800FEE7FEE7FEE7FEE7FEE77047704770478F
:100BC80008B5FFF7CBFF08BD274AD2F8883043F4B1
:100BD8007003C2F88830254B1B6803F00F03062BFF
:100BE80006D8224A136823F00F0343F00703136063
:100BF8001F4B1A6842F001021A6000221A61196834
:100C08001C4A0A401A60194B1B6813F0080F06D0DB
:100C1800164A136823F00F0343F007031360144BBD
:100C280000229A61DA611A62134999621349D962FA
:100C3800134919635A639963DA6319645A64196822
:100C480021F4802119601A660E4B1A680E4B134066
:100C5800B3F1005F03D20D4B0122C3F808210C4BFE
:100C680043F2D2021A60704700ED00E00020005203
:100C7800004402587FEDF6EA000202020000FF017C
:100C8800800201010010005C0000FFFF008000519D
:100C98000040005210B47A4B1B6903F03803182B3C
:100CA80000F2E580DFE813F01B00E300E300E30057
:100CB800E300E300E300E3001900E300E300E300DE
:100CC800E300E300E300E300EA00E300E300E300FD
:100CD800E300E300E300E30037006A4A05E0684BFD
:100CE8001B68C3F3C103684ADA4065488369C3F3E4
:100CF80003236649CB5CDA40836903F00F03CB5CBE
:100D080003F01F0322FA03F361490B60614B1A6079
:100D18005DF8044B70475A49886A00F003008C6AF2
:100D2800C4F30512CB6A03F0010C4B6BC3F3CC037D
:100D38000CFB03F307EE903AF8EE677A14F47C7F25
:100D4800D3D0012859D0022874D018B34C48016870
:100D5800C1F3C1014C4BCB4007EE103AF8EE476A9D
:100D680007EE102AB8EE476A86EE867A036BC3F35D
:100D7800080306EE903AF8EE666A9FED476A67EE5A
:100D8800867A76EEA77AF7EE006A77EEA67A27EEED
:100D9800277A22E008460968C1F3C1013A4BCB40E3
:100DA80007EE103AF8EE476A07EE102AB8EE476ADF
:100DB80086EE867A036BC3F3080306EE903AF8EEE4
:100DC800666A9FED356A67EE867A76EEA77AF7EE61
:100DD800006A77EEA67A27EE277A294B1B6BC3F3B6
:100DE8004623013307EE903AF8EE677AC7EE276A92
:100DF800FCEEE67A17EE902A77E707EE102AF8EE6F
:100E0800476A9FED266A86EE267A1D4B1B6BC3F355
:100E1800080306EE903AF8EE666A9FED1F6A67EEE1
:100E2800867A76EEA77AF7EE006A77EEA67A27EE4C
:100E3800277AD2E707EE102AF8EE476A9FED186A7C
:100E480086EE267A0E4B1B6BC3F3080306EE903A28
:100E5800F8EE666A9FED106A67EE867A76EEA77AF4
:100E6800F7EE006A77EEA67A27EE277AB5E7044B05
:100E78001B68C3F3C103044ADA4036E7094A34E77A
:100E88000044025800093D000090D0035C2A000885
:100E9800200000201C000020000000390024744AB3
:100EA80020BCBE4B40787D0170470000104B1B787A
:100EB8000BB90120704710B504464FF47A70B0FBA7
:100EC800F3F30C4A1068B0FBF3F000F099F868B936
:100ED8000F2C01D901200AE0002221464FF0FF30F3
:100EE80000F058F8044B1C60002000E0012010BD01
:100EF800240000201C0000202800002010B503203A
:100F080000F036F800F0CAFB0F498B69C3F30323DE
:100F18000E4AD35C03F01F03D8408B6903F00F031C
:100F2800D35C03F01F0320FA03F3094A1360094B4B
:100F380018600020FFF7BAFF10B10124204610BD49
:100F48000446FFF7B1FFF9E7004402585C2A00089D
:100F5800200000201C000020014B1868704700BFCB
:100F680074000020014B1868000C70470010005CEA
:100F78000649CB6823F4E0631B041B0C000200F451
:100F8800E0600343024A1A43CA60704700ED00E07C
:100F98000000FA0500B5174BDB68C3F30223C3F161
:100FA800070CBCF1040F28BF4FF0040C03F1040E2A
:100FB800BEF1060F14D9033B4FF0FF3E0EFA0CFCAE
:100FC80021EA0C0199400EFA03F322EA03031943BC
:100FD800002807DB0901C9B2074B19545DF804FB67
:100FE8000023E9E700F00F000901C9B2034B1954C7
:100FF800F4E700BF00ED00E000E400E014ED00E0DD
:101008000138B0F1807F0BD24FF0E0235861054AD8
:10101800F02182F823100020986107221A61704796
:101028000120704700ED00E0002800F0188338B573
:101038000446036813F0010F25D0944A136903F09E
:101048003803926A102B15D0182B0FD06368B3F5AC
:10105800803F3FD0002B53D18C4B1A6822F480324A
:101068001A601A6822F480221A6038E002F003023B
:10107800022AEBD1854B1B6813F4003F03D0636849
:10108800002B00F0EE82236813F0020F00F0A1801D
:101098007E4A1369926A13F038035AD0182B55D038
:1010A800E368002B00F0DE8078490A6822F0190214
:1010B80013430B60FFF750FF0546744B1B6813F092
:1010C800040F40F0AD80FFF747FF401B0228F4D91A
:1010D8000320CDE26D4A136843F4803313606368DC
:1010E8002BB3FFF739FF0546684B1B6813F4003F25
:1010F800C9D1FFF731FF401B6428F5D90320B7E2B7
:10110800B3F5A02F09D0614B1A6822F480321A6017
:101118001A6822F480221A60E1E75C4B1A6842F4EC
:1011280080221A601A6842F480321A60D7E7FFF703
:1011380013FF0546554B1B6813F4003FA3D0FFF778
:101148000BFF401B6428F5D9032091E212F0030F2E
:10115800A6D14E4B1B6813F0040F03D0E368002B95
:1011680000F08182494A136823F01903E1680B43B0
:101178001360FFF7F1FE0546444B1B6813F0040F9C
:1011880006D1FFF7E9FE401B0228F5D903206FE2DC
:10119800FFF7E8FE41F20303984212D82269402A79
:1011A80007D03A494B6823F47C3343EA02334B6057
:1011B8000FE0364A536823F47C3343F4003353601A
:1011C80007E0324A536823F0FE43216943EA01638A
:1011D8005360236813F0100F00F088802B4A1369BE
:1011E80003F03803926A082B56D0182B50D0E369C5
:1011F800002B00F0B880254A136843F08003136081
:10120800FFF7AAFE0546214B1B6813F4807F40F0C8
:101218008880FFF7A1FE401B0228F4D9032027E2AB
:10122800FFF7A0FE41F20303984212D82269402A30
:1012380007D016494B6823F47C3343EA02334B60EA
:10124800C7E7124A536823F47C3343F400335360EE
:10125800BFE70E4A536823F0FE43216943EA01635E
:101268005360B6E7094A136823F001031360FFF7D8
:1012780073FE0546054B1B6813F0040FA9D0FFF752
:101288006BFE401B0228F5D90320F1E10044025807
:1012980002F00302012AAAD1A14B1B6813F4807F34
:1012A80003D0E369802B40F0E081FFF75BFE41F259
:1012B8000303984212D8226A202A07D098494B681B
:1012C80023F0F84343EA82634B600FE0944A536883
:1012D80023F0F84343F08043536007E0904AD36813
:1012E80023F07C53216A43EA0163D360236813F037
:1012F800080F60D06369002B49D0894A536F43F0C7
:1013080001035367FFF728FE0546854B5B6F13F013
:10131800020F50D1FFF720FE401B0228F5D9032009
:10132800A6E1FFF71FFE41F20303984212D8226A92
:10133800202A07D07A494B6823F0F84343EA8263AE
:101348004B60D3E7764A536823F0F84343F0804371
:101358005360CBE7724AD36823F07C53216A43EA8F
:101368000163D360C2E76E4A136823F080031360F9
:10137800FFF7F2FD05466A4B1B6813F4807FB5D072
:10138800FFF7EAFD401B0228F5D9032070E1644A03
:10139800536F23F001035367FFF7DEFD0546604BEB
:1013A8005B6F13F0020F06D0FFF7D6FD401B022833
:1013B800F5D903205CE1236813F0200F29D0A36935
:1013C8009BB1574A136843F480531360FFF7C4FD79
:1013D8000546534B1B6813F4005F1AD1FFF7BCFD99
:1013E800401B0228F5D9032042E14D4A136823F433
:1013F80080531360FFF7B0FD0546494B1B6813F493
:10140800005F06D0FFF7A8FD401B0228F5D903208E
:101418002EE1236813F0040F21D1636A002B00F03A
:1014280026813F4A126902F03802182A00F0EE803D
:10143800022B79D03A4A136823F080731360FFF7C0
:101448008BFD0446364B1B6813F0007F00F0DC80F0
:10145800FFF782FD001B0228F4D9032008E1314A76
:10146800136843F480731360FFF776FD05462D4B30
:101478001B6813F4807F06D1FFF76EFD401B6428BC
:10148800F5D90320F4E0A368012B0AD00BBB244B49
:101498001A6F22F001021A671A6F22F004021A6703
:1014A80004E01F4A136F43F001031367A36833B3C3
:1014B800FFF752FD05461A4B1B6F13F0020FACD114
:1014C800FFF74AFD401B41F288339842F3D90320C5
:1014D800CEE0052B09D0124B1A6F22F001021A67D1
:1014E8001A6F22F004021A67E0E70D4B1A6F42F0F8
:1014F80004021A671A6F42F001021A67D6E7FFF76B
:101508002BFD0546064B1B6F13F0020F85D0FFF726
:1015180023FD401B41F288339842F3D90320A7E00A
:101528000044025800480258594A136823F080734F
:101538001360FFF711FD0546554B1B6813F0007F3C
:1015480006D0FFF709FD401B0228F5D903208FE0DC
:101558004F4B996A4F4A0A40A16AE06A41EA001172
:101568000A439A62226B013AC2F30802616B01399D
:10157800490289B20A43A16B0139090401F4FE0149
:101588000A43E16B0139090601F0FE410A431A6377
:10159800DA6A22F00102DA62596B3F4A0A40A16C0A
:1015A80042EAC1025A63DA6A22F00C02216C0A4349
:1015B800DA62DA6A22F00202616C0A43DA62DA6AF3
:1015C80042F48032DA62DA6A42F40032DA62DA6AC3
:1015D80042F48022DA62DA6A42F00102DA621A68B8
:1015E80042F080721A60FFF7B7FC0446284B1B686C
:1015F80013F0007F06D1FFF7AFFC001B0228F5D9D6
:10160800032035E0002033E0002031E0204A916AD1
:10161800106B012B2DD001F00303A26A93422AD14B
:10162800C1F30511E36A994227D1C0F30802236B7D
:10163800013B9A4223D1C0F34622636B013B9A4295
:101648001FD1C0F30642A36B013B9A421BD1C0F3E2
:101658000660E36B013B984217D1002008E00120A7
:101668007047012004E0012002E0012000E0002092
:1016780038BD0120FCE70120FAE70120F8E7012046
:10168800F6E70120F4E70120F2E70120F0E700BFC8
:10169800004402580CFCFFFF0700FFFF744B1B6956
:1016A80003F03803102B00F0DE80182B10D00BB19C
:1016B800704870476E4B1B6813F0200F00F0D58000
:1016C8006B4B1868C0F3C1006B4B23FA00F07047EE
:1016D80010B4674A916A01F00301946AC4F30510D3
:1016E800D36A03F0010C536BC3F3CC030CFB03F375
:1016F80007EE903AF8EE677A14F47C7F00F0938056
:10170800012965D0022900F09180E1B107EE100AA5
:10171800F8EE476A9FED596A86EE267A544B1B6BA2
:10172800C3F3080306EE903AF8EE666A9FED546A32
:1017380067EE867A76EEA77AF7EE006A77EEA67AF3
:1017480027EE277A60E0136813F0200F23D01146A4
:101758001268C2F3C102484BD34007EE103AF8EEC4
:10176800476A07EE100AB8EE476A86EE867A0B6B70
:10177800C3F3080306EE903AF8EE666A9FED406AF6
:1017880067EE867A76EEA77AF7EE006A77EEA67AA3
:1017980027EE277A38E007EE100AF8EE476A9FED41
:1017A800396A86EE267A324B1B6BC3F3080306EEC2
:1017B800903AF8EE666A9FED326A67EE867A76EEC0
:1017C800A77AF7EE006A77EEA67A27EE277A1BE06B
:1017D80007EE100AF8EE476A9FED286A86EE267A29
:1017E800234B1B6BC3F3080306EE903AF8EE666AC8
:1017F8009FED236A67EE867A76EEA77AF7EE006A9F
:1018080077EEA67A27EE277A194B1B6BC3F346238C
:10181800013307EE903AF8EE677AC7EE276AFCEED6
:10182800E67A17EE900A5DF8044B704707EE100A47
:10183800F8EE476A9FED146A86EE267A0C4B1B6B0E
:10184800C3F3080306EE903AF8EE666A9FED0C6A59
:1018580067EE867A76EEA77AF7EE006A77EEA67AD2
:1018680027EE277AD0E7094870470348704700BF3A
:101878000044025800093D000090D0030024744A37
:10188800000000390024744C20BCBE4B40787D0118
:10189800002800F0328170B50D4604469B4B1B684A
:1018A80003F00F038B420BD2984A136823F00F03FF
:1018B8000B431360136803F00F038B4240F01F8142
:1018C800236813F0040F0CD02269914B9B6903F035
:1018D80070039A4205D98E498B6923F070031A4325
:1018E8008A61236813F0080F0CD06269884BDB69A2
:1018F80003F070039A4205D98549CB6923F0700338
:101908001A43CA61236813F0100F0CD0A269804BE8
:10191800DB6903F4E0639A4205D97D49CB6923F476
:10192800E0631A43CA61236813F0200F0CD0E26900
:10193800774B1B6A03F070039A4205D974490B6A06
:1019480023F070031A430A62236813F0020F0CD0C5
:10195800E2686F4B9B6903F00F039A4205D96C4903
:101968008B6923F00F031A438A61236813F0010F70
:1019780041D0674A936923F47063A1680B4393616C
:101988006368022B0AD0032B27D0012B2CD0604A86
:10199800126812F0040F06D10120ADE0126812F4AB
:1019A800003F00F0AE805A490A6922F0070213434B
:1019B8000B61FFF7D1FA0646554B1B6903F0380354
:1019C8006268B3EBC20F16D0FFF7C6FA801B41F26C
:1019D80088339842F0D903208EE04D4A126812F0FD
:1019E800007FE0D1012087E0494A126812F4807F25
:1019F800D9D1012080E0236813F0020F0CD0E268EF
:101A0800434B9B6903F00F039A4205D240498B6907
:101A180023F00F031A438A613C4B1B6803F00F0342
:101A2800AB420AD9394A136823F00F032B431360DA
:101A3800136803F00F03AB4265D1236813F0040F5A
:101A48000CD02269324B9B6903F070039A4205D28D
:101A58002F498B6923F070031A438A61236813F0B6
:101A6800080F0CD062692A4BDB6903F070039A42B5
:101A780005D22749CB6923F070031A43CA6123684A
:101A880013F0100F0CD0A269214BDB6903F4E0635B
:101A98009A4205D21E49CB6923F4E0631A43CA610E
:101AA800236813F0200F0CD0E269194B1B6A03F06E
:101AB80070039A4205D216490B6A23F070031A4341
:101AC8000A62FFF7EBFD12498B69C3F30323114A3E
:101AD800D35C03F01F03D8408B6903F00F03D35C7A
:101AE80003F01F0320FA03F30B4A13600B4B186033
:101AF8000B4B1868FFF7DAF970BD01207047012019
:101B0800FAE70120F8E70120F6E700BF00200052BD
:101B1800004402585C2A0008200000201C00002015
:101B280028000020404B9B6A03F00303032B79D065
:101B380070B505460E463C4A136823F0806313606F
:101B4800FFF70AFA0446384B1B6813F0006F06D0FB
:101B5800FFF702FA031B022BF5D9032070BD324BA5
:101B68009A6A22F47C32296842EA01329A626A68E7
:101B7800013AC2F30802A9680139490289B20A4345
:101B8800E9680139090401F4FE010A4329690139A8
:101B9800090601F0FE410A439A63DA6A22F0C0029C
:101BA80069690A43DA62DA6A22F02002A9690A43FB
:101BB800DA62DA6A22F01002DA62D96B1B4A0A404A
:101BC800E96942EAC102DA63DA6A42F01002DA62CB
:101BD800C6B91A46DB6A43F40023D362124A136873
:101BE80043F080631360FFF7B7F904460E4B1B6898
:101BF80013F0006F14D1FFF7AFF9001B0228F5D9D5
:101C08000320ABE7012E05D0074AD36A43F400133B
:101C1800D362E3E7044AD36A43F48013D362DDE76F
:101C280000209BE701207047004402580700FFFF8F
:101C3800404B9B6A03F00303032B79D070B505462C
:101C48000E463C4A136823F080531360FFF784F96B
:101C58000446384B1B6813F0005F06D0FFF77CF989
:101C6800031B022BF5D9032070BD324B9A6A22F070
:101C78007C72296842EA01529A626A68013AC2F3A0
:101C88000802A9680139490289B20A43E968013999
:101C9800090401F4FE010A4329690139090601F022
:101CA800FE410A431A64DA6A22F4406269690A4307
:101CB800DA62DA6A22F40072A9690A43DA62DA6A35
:101CC80022F48072DA62596C1B4A0A40E96942EAD6
:101CD800C1025A64DA6A42F48072DA62C6B91A46F4
:101CE800DB6A43F48003D362124A136843F08053DB
:101CF8001360FFF731F904460E4B1B6813F0005FC1
:101D080014D1FFF729F9001B0228F5D90320ABE706
:101D1800012E05D0074AD36A43F08073D362E3E704
:101D2800044AD36A43F40003D362DDE700209BE74B
:101D380001207047004402580700FFFFF8B5044629
:101D4800036813F0006F30D0436EB3F5001F26D040
:101D58000ED8EBB1B3F5801F07D102210430FFF78D
:101D6800E1FE054645B12E4621E0012635461EE036
:101D7800B3F5401F09D10025954A136D23F440138C
:101D8800616E0B431365002611E0012635460EE00F
:101D98008F4AD36A43F40033D3620025ECE702216B
:101DA8002430FFF745FF0546DCE700263546236863
:101DB80013F4807F14D0636D042B30D8DFE803F070
:101DC800032228080800824AD36A43F40033D36206
:101DD80045BB7F4A136D23F00703616D0B43136501
:101DE800236813F4007F2FD0A36D802B49D01ED811
:101DF800002B40D0402B17D10021201DFFF792FE69
:101E0800054619E00021201DFFF78CFE0546DFE797
:101E1800002104F12400FFF70BFF0546D8E701264F
:101E28003546DDE72E46DBE7012635460CE0C02BBC
:101E380002D0B3F5807F1BD155BB654A136D23F4DF
:101E4800E073A16D0B431365236813F4806F45D0CD
:101E5800D4F8A430B3F5800F38D01ED883B3B3F5C7
:101E6800001F17D10021201DFFF75CFE05461AE070
:101E780001263546E8E7564AD36A43F40033D3626D
:101E8800DAE7002104F12400FFF7D2FE0546D3E784
:101E98002E46D9E70126354620E0B3F5C00F02D01B
:101EA800B3F5000F09D1C5B9494A936D23F460030E
:101EB800D4F8A4100B43936510E0012635460DE0D5
:101EC800434AD36A43F40033D362ECE7002104F1B8
:101ED8002400FFF7ADFE0546E5E72E46236813F418
:101EE800006F23D0D4F8A830B3F1007F41D00DD8CB
:101EF800002B38D0B3F1807F05D10021201DFFF7DA
:101F080011FE054608E0012635460FE0B3F1407F93
:101F180002D0B3F1806F23D1002D31D12C4A936DBB
:101F280023F0E063D4F8A8100B439365236813F0FB
:101F3800007F2ED0A36C202B3FD026D833B1102B96
:101F480020D1234AD36A43F40033D362002D3AD117
:101F58001F4AD36C23F03003A16C0B43D36418E001
:101F680001263546E2E71A4AD36A43F40033D362BE
:101F7800D2E7002104F12400FFF75AFE0546CBE71B
:101F88002E46D3E70126354603E0302BDED0012666
:101F98003546236813F4805F2BD0E36DB3F5005FFB
:101FA8004CD017D8002B43D0B3F5805F0DD100215A
:101FB800201DFFF7B7FD054612E00221201DFFF79F
:101FC800B1FD0546C2E72E46E3E70126354610E097
:101FD80000440258B3F5405F02D0B3F5804F24D1D6
:101FE800002D32D1754A136D23F4E043E16D0B43A4
:101FF8001365236813F4005F37D0236EB3F5003FF1
:1020080051D027D83BB1B3F5803F20D10121201D05
:10201800FFF788FD0546002D4CD1684A136D23F45F
:10202800E023216E0B4313651FE001263546E0E7E8
:10203800624AD36A43F40033D362D1E7002104F142
:102048002400FFF7F5FD0546CAE72E46D1E701262D
:1020580035460AE0B3F5802FDDD0B3F5A02FDAD0EE
:10206800B3F5403FD7D001263546236813F4804F97
:1020780030D0D4F8AC30B3F1005F44D01FD83BB1B6
:10208800B3F1805F18D10121201DFFF74BFD0546F4
:10209800002D3FD1494A936D23F0E043D4F8AC10AA
:1020A8000B43936516E0012104F12400FFF7C0FDFE
:1020B8000546B0E72E46D8E7012635460AE0B3F1D3
:1020C800804FE5D0B3F1A04FE2D0B3F1405FDFD04D
:1020D80001263546236813F4004F09D0E36EB3F1A7
:1020E800805F19D0B3F1005F24D0D3B10126354603
:1020F800236813F0807F32D0636C032B59D8DFE854
:1021080003F026215226012104F12400FFF790FD57
:102118000546BDE72E46DDE7284AD36A43F4003377
:10212800D3626DB9254A136D23F04053E16E0B431A
:102138001365DDE70121201DFFF7F4FC0546F0E7F4
:102148002E46D5E71D4AD36A43F40033D3629DBBBC
:102158001A4AD36C23F00303616C0B43D3642368DE
:1021680013F4800F2CD1236813F0010F00F0A38023
:10217800A36F282B00F29D80DFE803F08B9B9B9BCD
:102188009B9B9B9B869B9B9B9B9B9B9B949B9B9BB3
:102198009B9B9B9B8B9B9B9B9B9B9B9B8B9B9B9BA7
:1021A8009B9B9B9B8B000221201DFFF7BBFC0546D8
:1021B800CDE701263546D2E72E46D0E7004402583F
:1021C8008F4A136843F480731360FEF7C5FE074611
:1021D8008B4B1B6813F4807F05D1FEF7BDFEC01B37
:1021E8006428F5D90325002D4AD1864B1B6FD4F8F6
:1021F800B020534013F4407F0CD0824B1A6F22F466
:102208004072196F41F480311967196F21F48031D8
:1022180019671A67D4F8B030B3F5807F15D08DBB35
:10222800D4F8B03003F44072B2F5407F1ED0754A3E
:10223800136923F47C53136172490B6FD4F8B020EF
:10224800C2F30B0213430B678DE7FEF785FE0746C3
:102258006C4B1B6F13F0020FE1D1FEF77DFEC01B24
:1022680041F288339842F3D90325D8E765480269D3
:1022780022F47C52644901EA131313430361DBE738
:102288002E4670E72E466EE70121201DFFF74AFC17
:102298000546E5B95B4A536D23F03803A16F0B433C
:1022A800536508E0012104F12400FFF7C1FC05464D
:1022B800EFE701263546236813F0020F16D0636F47
:1022C800052B27D8DFE803F00A051F0A0A0A2E465D
:1022D800F1E70121201DFFF725FC0546EDB9494A24
:1022E800536D23F00703616F0B435365236813F0A5
:1022F800040F22D0D4F89030052B43D8DFE803F040
:10230800140F3B141414012104F12400FFF790FC6E
:102318000546E3E701263546E8E72E46E6E70121CC
:10232800201DFFF7FFFB05467DBB364A936D23F062
:102338000703D4F890100B439365236813F0200F1C
:1023480033D0D4F88C30B3F1005F4CD022D83BB1F5
:10235800B3F1805F1BD10021201DFFF7E3FB054689
:10236800002D47D1274A536D23F0E043D4F88C1051
:102378000B43536519E0012104F12400FFF758FCD1
:102388000546D1E701263546D7E72E46D5E701268B
:1023980035460AE0B3F1804FE2D0B3F1A04FDFD069
:1023A800B3F1405FDCD001263546236813F0400FB7
:1023B80037D0D4F89830B3F5006F52D026D83BB157
:1023C800B3F5806F18D10021201DFFF7ABFB054640
:1023D800002D4DD10B4A936D23F4E053D4F8981097
:1023E8000B4393651DE0022104F12400FFF720FC54
:1023F8000546B5E72E46D8E70126354611E000BF69
:102408000048025800440258CFFFFF00B3F5805F30
:10241800DED0B3F5A05FDBD0B3F5406FD8D001268E
:102428003546236813F0800F32D0D4F89C30B3F5CA
:10243800804F00F09D8020D83BB1B3F5005F19D1E3
:102448000021201DFFF76EFB0546002D40F0978008
:10245800A54A936D23F46043D4F89C100B4393650D
:1024680016E0022104F12400FFF7E2FB0546AFE77E
:102478002E46D6E7012635460AE0B3F5004FE4D0EC
:10248800B3F5204FE1D0B3F5C04FDED00126354675
:10249800236813F0080F0CD0D4F88030B3F5805FB0
:1024A8006FD0914A536D23F44053D4F880100B43F6
:1024B8005365236813F0100F0CD0D4F89430B3F59B
:1024C800807F67D0884A936D23F44073D4F89410C2
:1024D8000B439365236813F4002F0BD0D4F8A03076
:1024E800B3F5803F6ED0B3F5003F61D0002B5AD0D2
:1024F80001263546236813F4802F0CD0D4F8843095
:10250800B3F5001F76D0B3F5401F69D0B3F5801F2F
:1025180061D001263546236813F4803F07D0E36C69
:10252800002B70D0B3F5803F7BD001263546236859
:1025380013F0005F7DD1236813F4003F00F086801C
:10254800E36FB3F5807F00F0C6807CD9B3F5007FD8
:1025580003D0B3F5407F40F0BC80002D40F0C1802F
:10256800614A536D23F44073E16F0B4353656DE08B
:10257800022104F12400FFF75BFB054665E72E46C0
:1025880086E7022104F12400FFF752FB002888D0D7
:10259800012686E7022104F12400FFF749FB002801
:1025A80090D001268EE70021201DFFF7BBFA0546D3
:1025B8007DB94D4A936D23F44033D4F8A0100B43F2
:1025C800936597E7022104F12400FFF731FB0546E4
:1025D800EEE72E468EE7444AD36A43F40033D362CB
:1025E8007DB9414A536D23F44013D4F884100B434A
:1025F800536590E7012104F12400FFF719FB054614
:10260800EEE72E4687E7384AD36A43F40033D362AD
:102618006DB9354AD36C23F48033E16C0B43D36432
:1026280085E70221201DFFF77DFA0546F0E72E46D3
:102638007DE7022104F12400FFF7FAFA00283FF4AD
:102648007AAF012677E7002B87D00126236813F499
:10265800801F06D0244A136D23F00043216F0B43DB
:102668001365236813F0805F07D01F4A136923F4AA
:102678008043D4F8B4100B431361236813F4001F8C
:1026880006D0194A136D23F08073A16E0B431365AE
:10269800236813F0804F09D0134B1A6922F40042C3
:1026A8001A611A69D4F8B8100A431A612368002B12
:1026B8001CDB236813F4000F07D00B4A536D23F477
:1026C8004003D4F888100B43536506B10126304601
:1026D800F8BD0126BAE7044AD36A43F40033D3624B
:1026E8003BE72E46B2E700BF00440258034AD36CCA
:1026F80023F04053216D0B43D364DAE700440258BA
:10270800F0B583B000236BE085685E000324B44015
:1027180025EA0405CC68B4402C438460446824EA64
:102728000C0C4C68C4F300149C4044EA0C0444604C
:1027380068E0DD08083550F8256003F007044FEA23
:10274800840C0F2404FA0CF426EA040E0C6904FA2B
:102758000CF444EA0E0440F825406BE0092400E03C
:10276800002404FA0EF42C430CF1020C694D45F8D0
:102778002C404FF0B0442568D44325EA02064F6840
:1027880017F4801F01D042EA05064FF0B0452E60CD
:102798006D6804EA05064F6817F4001F01D042EA85
:1027A80005064FF0B0456E60D5F8845004EA05067A
:1027B8004F6817F4003F01D042EA05064FF0B045D4
:1027C800C5F88460D5F880502C404E6816F4803FD8
:1027D80001D042EA05044FF0B042C2F8804001330C
:1027E8000A6832FA03F400F092804FF0010C0CFAF8
:1027F80003FC1CEA0202F2D04C6804F00304013C1A
:10280800012C81D94C6804F00304032C0CD0C46853
:102818005D004FF0030C0CFA05FC24EA0C0C8C68E4
:10282800AC4044EA0C04C4604C6804F00304022C75
:102838003FF47FAF04684FEA430E4FF0030C0CFAE5
:102848000EFC24EA0C0C4C6804F0030404FA0EF4A1
:1028580044EA0C0404604C6814F4403FBFD02E4C8A
:10286800D4F8F45045F00205C4F8F450D4F8F44014
:1028780004F002040194019C4FEA930C0CF1020548
:10288800244C54F8255003F003044FEA840E0F2417
:1028980004FA0EF425EA0405204CA0423FF460AF88
:1028A80004F58064A04222D004F58064A04220D0C0
:1028B80004F58064A0421ED004F58064A0421CD0B8
:1028C80004F58064A0421AD004F58064A04218D0B0
:1028D80004F58064A04216D004F58064A04214D0A8
:1028E80004F58064A0423FF439AF0A2439E7012493
:1028F80037E7022435E7032433E7042431E70524C6
:102908002FE706242DE707242BE7082429E703B03F
:10291800F0BD00BF000400580044025800000258EF
:102928000369194201D001207047002070470AB19D
:10293800816170470904816170470000134BDB68AF
:1029480013F0040F07D1114BDB6803F00703834230
:102958001AD00120704710B50C4AD36823F007033A
:102968001843D060FEF7F8FA0446084B5B6813F486
:10297800005F07D1FEF7F0FA001BB0F57A7FF4D9B3
:10298800012000E0002010BD0020704700480258D8
:10299800DFF834D0FEF718F90C480D490D4A00232A
:1029A80002E0D458C4500433C4188C42F9D30A4AFC
:1029B8000A4C002301E013600432A242FBD300F06A
:1029C80011F8FDF707FE7047000002200000002004
:1029D8002C0000207C2A000830000020780000200D
:1029E800FEE7000070B50D4D0D4C641BA4100026C9
:1029F800A64209D10B4D0C4C00F020F8641BA41022
:102A08000026A64205D170BD55F8043B984701360B
:102A1800EEE755F8043B98470136F2E7742A0008B8
:102A2800742A0008742A0008782A00080244034619
:102A3800934200D1704703F8011BF9E7F8B500BFCE
:102A4800F8BC08BC9E467047F8B500BFF8BC08BC87
:042A58009E467047DF
:102A5C000000000001020304010203040607080938
:082A6C009CD8FF7F010000006F
:042A7400BD02000897
:042A780099020008B7
:102A7C00001C02588000000001070008F106000845
:102A8C00E9060008FD080008690900080090D00359
:0C2A9C000090D0030100000010000000BA
:04000005080029992D
:00000001FF
