:020000040800F2
:100000000000022015760108E93F0108EB3F0108D6
:10001000ED3F0108EF3F0108F13F0108000000003B
:10002000000000000000000000000000F33F010895
:10003000FB3F010800000000FD3F010805400108EA
:100040006576010865760108657601086576010820
:100050006576010865760108657601086576010810
:100060006576010865760108657601086576010800
:1000700065760108657601086576010865760108F0
:1000800065760108657601086576010865760108E0
:1000900065760108657601086576010865760108D0
:1000A00065760108657601086576010865760108C0
:1000B00065760108657601086576010865760108B0
:1000C00065760108657601086576010865760108A0
:1000D0006576010865760108657601086576010890
:1000E0006576010865760108000000006576010864
:1000F0006576010865760108657601086576010870
:10010000657601086576010865760108657601085F
:10011000657601086576010865760108657601084F
:10012000657601086576010865760108657601083F
:10013000657601086576010865760108657601082F
:1001400000000000000000000000000000000000AF
:10015000657601086576010865760108657601080F
:1001600065760108657601086576010865760108FF
:1001700065760108657601086576010800000000D3
:1001800065760108657601086576010865760108DF
:1001900065760108657601086576010865760108CF
:1001A00065760108657601086576010865760108BF
:1001B00065760108657601086576010865760108AF
:1001C000657601086576010865760108657601089F
:1001D000657601080D40010865760108657601081D
:1001E000657601086576010865760108657601087F
:1001F000657601086576010865760108657601086F
:10020000657601086576010865760108657601085E
:10021000657601086576010865760108657601084E
:100220006576010865760108657601080000000022
:100230006576010865760108000000006576010812
:10024000657601086576010865760108657601081E
:10025000657601086576010865760108657601080E
:1002600065760108657601086576010865760108FE
:1002700065760108657601086576010800000000D2
:1002800065760108657601086576010800000000C2
:08029000000000006576010882
:100298000000000000000000000000000000000056
:1002A8000000000000000000000000000000000046
:1002B8000000000000000000000000000000000036
:1002C8000000000000000000000000000000000026
:020000040801F1
:1002A00010B5054C237833B9044B13B10448AFF3B0
:1002B00000800123237010BDC00100200000000059
:1002C000E876010808B5034B1BB103490348AFF3B7
:1002D000008008BD00000000C4010020E87601088D
:1002E00010F8012B11F8013B012A28BF9A42F7D0E0
:1002F000D01A7047034613F8012B002AFBD1181AB5
:100300000138704780F0004002E000BF81F00041FA
:1003100042001FBF5FEA410392EA030F7FEA226CAB
:100320007FEA236C6AD04FEA1262D2EB1363C1BF3B
:10033000D218414048404140B8BF5B42192B88BFAA
:10034000704710F0004F40F4000020F07F4018BFCD
:10035000404211F0004F41F4000121F07F4118BFED
:10036000494292EA030F3FD0A2F1010241FA03FC95
:1003700010EB0C00C3F1200301FA03F100F000437D
:1003800002D5494260EB4000B0F5000F13D3B0F145
:10039000807F06D340084FEA310102F10102FE2AB4
:1003A00051D2B1F1004F40EBC25008BF20F0010024
:1003B00040EA03007047490040EB0000013A28BFC3
:1003C000B0F5000FEDD2B0FA80FCACF1080CB2EB46
:1003D0000C0200FA0CF0AABF00EBC25052421843C4
:1003E000BCBFD0401843704792F0000F81F4000169
:1003F00006BF80F400000132013BB5E74FEA41033C
:100400007FEA226C18BF7FEA236C21D092EA030FA7
:1004100004D092F0000F08BF0846704790EA010F21
:100420001CBF0020704712F07F4F04D1400028BF4E
:1004300040F00040704712F100723CBF00F5000030
:10044000704700F0004343F0FE4040F40000704766
:100450007FEA226216BF08467FEA23630146420212
:1004600006BF5FEA412390EA010F40F48000704725
:100470004FF0000304E000BF10F0004348BF4042CB
:100480005FEA000C08BF704743F0964301464FF007
:1004900000001CE050EA010208BF70474FF0000363
:1004A0000AE000BF50EA010208BF704711F00043A4
:1004B00002D5404261EB41015FEA010C02BF844674
:1004C0000146002043F0B64308BFA3F18053A3F5D3
:1004D0000003BCFA8CF2083AA3EBC25310DB01FA1A
:1004E00002FC634400FA02FCC2F12002BCF1004F9E
:1004F00020FA02F243EB020008BF20F0010070472F
:1005000002F1200201FA02FCC2F1200250EA4C0082
:1005100021FA02F243EB020008BF20EADC707047C8
:1005200053B94AB9002908BF00281CBF4FF0FF315A
:100530004FF0FF3000F074B9ADF1080C6DE904CE56
:1005400000F006F8DDF804E0DDE9022304B07047AE
:100550002DE9F047089D04468E46002B4DD18A4276
:10056000944669D9B2FA82F252B101FA02F3C2F1A9
:10057000200120FA01F10CFA02FC41EA030E94403A
:100580004FEA1C48210CBEFBF8F61FFA8CF708FB5B
:1005900016E341EA034306FB07F199420AD91CEB33
:1005A000030306F1FF3080F01F81994240F21C8165
:1005B000023E63445B1AA4B2B3FBF8F008FB1033AD
:1005C00044EA034400FB07F7A7420AD91CEB0404E2
:1005D00000F1FF3380F00A81A74240F207816444B2
:1005E000023840EA0640E41B00261DB1D440002337
:1005F000C5E900433146BDE8F0878B4209D9002D9B
:1006000000F0EF800026C5E9000130463146BDE824
:10061000F087B3FA83F6002E4AD18B4202D382428E
:1006200000F2F980841A61EB030301209E46002D3D
:10063000E0D0C5E9004EDDE702B9FFDEB2FA82F292
:10064000002A40F09280A1EB0C014FEA1C471FFAF0
:100650008CFE0126200CB1FBF7F307FB131140EAD7
:1006600001410EFB03F0884208D91CEB010103F1A4
:10067000FF3802D2884200F2CB804346091AA4B266
:10068000B1FBF7F007FB101144EA01440EFB00FE3A
:10069000A64508D91CEB040400F1FF3102D2A6459F
:1006A00000F2BB800846A4EB0E0440EA03409CE73E
:1006B000C6F12007B34022FA07FC4CEA030C20FAEB
:1006C00007F401FA06F31C43F9404FEA1C4900FA0B
:1006D00006F3B1FBF9F8200C1FFA8CFE09FB181188
:1006E00040EA014108FB0EF0884202FA06F20BD9FB
:1006F0001CEB010108F1FF3A80F08880884240F24B
:100700008580A8F102086144091AA4B2B1FBF9F08E
:1007100009FB101144EA014100FB0EFE8E4508D989
:100720001CEB010100F1FF346CD28E456AD902380E
:10073000614440EA0840A0FB0294A1EB0E01A142F3
:10074000C846A64656D353D05DB1B3EB080261EB61
:100750000E0101FA07F722FA06F3F1401F43C5E93B
:10076000007100263146BDE8F087C2F12003D84071
:100770000CFA02FC21FA03F3914001434FEA1C47B3
:100780001FFA8CFEB3FBF7F007FB10360B0C43EAA5
:10079000064300FB0EF69E4204FA02F408D91CEB55
:1007A000030300F1FF382FD29E422DD90238634453
:1007B0009B1B89B2B3FBF7F607FB163341EA0341F3
:1007C00006FB0EF38B4208D91CEB010106F1FF3842
:1007D00016D28B4214D9023E6144C91A46EA004639
:1007E00038E72E46284605E70646E3E61846F8E6CB
:1007F0004B45A9D2B9EB020864EB0C0E0138A3E714
:100800004646EAE7204694E74046D1E7D0467BE7F4
:10081000023B614432E7304609E76444023842E76C
:10082000704700BF70B50546134E7368134C012224
:1008300094E8030098470A21284601F073F873688A
:10084000002294E8030098471421284601F06AF832
:100850007368012294E8030098471E21284601F09E
:1008600061F87368002294E803009847282128461D
:1008700001F058F870BD00BF2000002000000020EB
:1008800038B5064D6B68064C012294E80300984782
:100890006B68002294E80300984738BD20000020D0
:1008A0000800002010B582B000220023CDE900230B
:1008B00001F014FACDE9000132220023DDE9000144
:1008C000FFF72EFE134312D10F4BD3E90001DDE9F0
:1008D0000023994208BF904209D00C4A137883F054
:1008E00001031370DDE90001074BC3E90001084B68
:1008F0005C68084B054A127893E80300A047FFF7AD
:10090000BFFF02B010BD00BFE0010020F0010020D9
:10091000340000201800002038B5064D6B68064CE6
:10092000012294E8030098476B68002294E80300D2
:10093000984738BD200000201000002008B5FFF7C0
:10094000EBFF08BD10B582B0224B1A68224B93E82A
:1009500003009047214C2268214B93E80300904705
:100960002268204B93E80300904722681E4B93E8CF
:100970000300904702F05EFA49F6404000F004FEA2
:100980004FF480740194194B009300231A4642F2ED
:100990001071174800F06AFE164B18600194164B50
:1009A0000093022300224FF4FA51144800F05EFE37
:1009B000134B18600194134B0093012300224FF452
:1009C000FA61114800F052FE104B186000F022FE50
:1009D00002B010BD340000201800002020000020CC
:1009E000000000200800002010000020A5080108D9
:1009F00020780108DC01002025080108287801087A
:100A0000EC0100203D09010830780108E8010020D0
:100A100010B58EB004AB83E80300174B1C6844B3D9
:100A2000BDF81430ADF82030049A07929DF81620D6
:100A30008DF83620CDF8223000230122ADF8262093
:100A4000ADF82830ADF82A30ADF82C300322ADF8DF
:100A50002E20ADF830306B460EAA12E9070003C312
:100A600023F8022B120C1A7007AB0FCBA0470EB065
:100A700010BD0020FBE700BF2800002000B583B0B8
:100A800002AB03E90300064B9B6833B1BDF80410C9
:100A90009847012003B05DF804FB0020FAE700BF8F
:100AA0002800002008B505F0B0F908BD08B505F02C
:100AB000A5F9003818BF012008BD000084B000B5BA
:100AC0008DB00DF1380C8CE80F00002800F0DC80B0
:100AD00003466E4A904230D06D4A90424DD06D4AE6
:100AE000904259D06C4A904265D06C4A904271D085
:100AF0006B4A90427DD06B4A904200F089806A4AEE
:100B0000904200F09480694A904200F09F80684AC9
:100B1000904200F0AA80674A90421CD102F5E05250
:100B2000D2F8E01041F48061C2F8E010D2F8E02081
:100B300002F480620B920B9A0DE002F58842D2F823
:100B4000E01041F00101C2F8E010D2F8E02002F01C
:100B500001020192019A9DF85220BDF83C101846FE
:100B600005F053F90EA951F8060B05F037F80120EE
:100B70000DB05DF804EB04B0704702F58042D2F886
:100B8000E01041F00201C2F8E010D2F8E02002F0DB
:100B900002020292029ADEE702F57052D2F8E010E9
:100BA00041F00401C2F8E010D2F8E02002F00402A3
:100BB0000392039ACFE702F56052D2F8E01041F0B9
:100BC0000801C2F8E010D2F8E02002F00802049216
:100BD000049AC0E702F55052D2F8E01041F010013B
:100BE000C2F8E010D2F8E02002F010020592059A57
:100BF000B1E702F54052D2F8E01041F02001C2F80E
:100C0000E010D2F8E02002F020020692069AA2E755
:100C100002F53052D2F8E01041F04001C2F8E01085
:100C2000D2F8E02002F040020792079A93E702F51B
:100C30002052D2F8E01041F08001C2F8E010D2F862
:100C4000E02002F080020892089A84E702F5105230
:100C5000D2F8E01041F48071C2F8E010D2F8E02040
:100C600002F480720992099A75E702F50052D2F8EF
:100C7000E01041F40071C2F8E010D2F8E02002F474
:100C800000720A920A9A66E7002071E70000025893
:100C90000004025800080258000C025800100258C4
:100CA0000014025800180258001C02580020025874
:100CB000002402580028025810B58EB004AB83E817
:100CC0000300174B1C6844B3BDF81430ADF8203056
:100CD00007909DF816208DF83620CDF8223000239D
:100CE0000122ADF82620ADF82830ADF82A30ADF855
:100CF0002C300222ADF82E20ADF830306B460EAA13
:100D000012E9070003C323F8022B120C1A7007AB79
:100D10000FCBA04701200EB010BD0020FBE700BFA5
:100D20002800002000B583B002AB03E90300064BA6
:100D30009B6833B1BDF804109847012003B05DF8FB
:100D400004FB0020FAE700BF2800002003690A69BD
:100D500002610B6170478C4651B1096941B1016173
:100D6000DCF80C10C160CCF804308CF8002001E0F5
:100D70000021C16002704360002383607047034616
:100D800020B1002018619860D86070476FF00100B2
:100D9000704738B504460D46FFF7F1FF00B92561ED
:100DA00038BD08B5C3681BB18068FFF7FAFF08BDFE
:100DB0008160C860FBE708B50346C06810B1FFF763
:100DC000FAFF08BDD9608B60FBE738B543687BB19B
:100DD00004460D46006958B1096949B1984738B1D0
:100DE0002A69824205D0E06840B12946FFF7EDFF4D
:100DF00038BD29462046FFF7A9FFF4E7E560AC605F
:100E00000023EB60F4E7002818BF002913D008B5D1
:100E100043684B6003780B70012B06D0022B07D080
:100E200003B108BDFFF7BDFFFBE7FFF7C4FFF8E71D
:100E3000FFF7CBFFF5E7704728B32DE9F0410D46EA
:100E400017461C4680460E1E18BF0126002B14BFF5
:100E5000002306F001030BB10169A847D8F80C0084
:100E600020B123463A462946FFF7E6FF012C14BF7E
:100E7000002606F001064EB13A46D8F8101040465A
:100E8000A847002003E06FF0010070470020BDE894
:100E9000F0810000194B00E01B681A688242FBD306
:100EA000002B2AD05A681A4482420BD0426800EBC9
:100EB000020C19688C450BD01A68026098421CD04D
:100EC000186070475A6841680A445A601846EDE74E
:100ED00010B41C680A4909688C420CD0196849682A
:100EE0000A4442601A6812680260984200D0186092
:100EF0005DF8044B70470160F7E77047F801002088
:100F0000F4010020F8B50F4C4FF480322260002627
:100F10006660012767610C4D3146284606F0C8FB24
:100F20000A4B1D605E600A4B0A4A13604FF6F87266
:100F3000E2602B604FF6F073E3606B60A36084F8AF
:100F40002070F8BD0002002000000024F8010020FD
:100F5000F8FF0024F401002070B5044672B62A4B55
:100F600093F8203093B1002C43D00834A3B214F08E
:100F7000030F03D023F0030304339BB21D46224A20
:100F80009268934239D8214A146807E0FFF7BAFF04
:100F90001D4B1E4A1A61E6E722461C4663689D42C5
:100FA00002D92368002BF7D104F07F41184B9942F6
:100FB00025D1184B1B68A34223D013498B690133F9
:100FC0008B61166808362368136063685B1B082B07
:100FD00009D80D4B9A68521B9A605A682A445A6085
:100FE0000023236006E0601943606560FFF752FF4D
:100FF000EFE7002662B6304670BD0026FAE700260D
:10100000F8E70026F6E700BF00020020F801002004
:1010100000000024F401002010B542784FEAD20EFF
:1010200002F00702094B19784FF0010C0CFA0EF48C
:101030002143C9B21970734459780CFA02F20A4379
:10104000D2B25A7080F800C010BD00BF70030020FB
:1010500030B590F801E04FEADE020EF007040B4BCA
:1010600093F800C04FF0010E0EFA02F54CEA050CA1
:101070005FFA8CFC83F800C013445A780EFA04FE21
:1010800042EA0E02D2B25A70017030BD58030020FD
:10109000407800F0070C0D4B03EBD0035A78012188
:1010A00001FA0CF122EA01025A70597861B900B5CF
:1010B0004FEAD00E05490B78012202FA0EF223EA1C
:1010C00002030B705DF804FB704700BF7003002043
:1010D000407800F0070C0D4B03EBD0035A78012148
:1010E00001FA0CF122EA01025A70597861B900B58F
:1010F0004FEAD00E05490B78012202FA0EF223EADC
:1011000002030B705DF804FB704700BF640300200E
:10111000FEE70000144B1B781BB3134B1A78D2B2B6
:1011200012498A5C13445B78DBB2CB5C03EBC200F0
:101130000F4951F8200000B1704710B50A4991F8E5
:1011400000E04FF0010C0CFA02F42EEA040E81F8D4
:1011500000E00A4451780CFA03F321EA03035370C8
:1011600010BD0020704700BF7003002038780108D0
:1011700040020020144B1B781BB3134B1A78D2B2D9
:1011800012498A5C13445B78DBB2CB5C03EBC20090
:101190000F4951F8200000B1704710B50A4991F885
:1011A00000E04FF0010C0CFA02F42EEA040E81F874
:1011B00000E00A4451780CFA03F321EA0303537068
:1011C00010BD0020704700BF64030020387801087C
:1011D0004002002082B04278D3088DF807304B7867
:1011E0004FEAD30C8DF806C002F007028DF80520F7
:1011F00003F007038DF80430B0FA80F35B09B1FA0D
:1012000081F25209134236D100290CBF002303F0AA
:101210000103002B32D100280CBF002202F0010292
:1012200052BB9DF80720D2B29DF80630DBB29A423D
:1012300022D39DF80720D2B29DF80630DBB29A4245
:101240001ED89DF80720D2B29DF80630DBB29A4234
:1012500012D19DF80520D2B29DF80430DBB29A423B
:101260000AD39DF80520D2B29DF80430DBB29A4231
:1012700002D9084600E0002002B070470846FBE7AC
:101280000846F9E738B50446002545704560856095
:10129000858105614562856200238363056345633B
:1012A000143000F0D1FC257038BD0000B9B110B584
:1012B0000C460C4B1B78DBB2022B01D0002010BD7A
:1012C0000B78052B18BF032BF8D14869896900F00A
:1012D00025FD0028F2D02046FFF79EFEEEE7002015
:1012E000704700BF8803002010B582B000220023A1
:1012F000CDE900230D4B1B6801221A7000F0E8FCB9
:10130000DDE90023994208BF904201D102B010BD2F
:1013100000F0DEFCCDE90001054CD4E90023501CAF
:1013200043F10001C4E90001F0E700BF30020020F2
:101330008003002010B50446C26B92000021406C6F
:1013400006F0B6F904F14403E16B6FF040420A4441
:1013500003EB820323F007034FF0807243F8042C61
:10136000084A22F0010243F8082C074A43F80C2CE3
:10137000002243F8202C6FF0020243F8242C443B57
:10138000236410BDED1801081111010810B550209B
:10139000FFF7E2FD0D4B1860A0B1044680234370B7
:1013A0000B4B03614FF48073C3634FF48060FFF70E
:1013B000D3FD6064054B1868436C2BB1FFF7BAFF8F
:1013C000012010BD0020FCE70020FAE730020020D9
:1013D000E912010870B52DED028B82B00446684613
:1013E00000F032FC2378012B03D002B0BDEC028B5D
:1013F00070BD0023A3642046FFF74AFE304B1C60FB
:10140000A36A4BB92F4B1B68A34205D000F060FCC8
:10141000E06121626061A1612369002B3CD002225E
:10142000227020469847274B1B68A342DDD0A36A51
:101430000133A362A16C236B626B5B1842F1000263
:10144000236362636269A369E069216A00F001FCB9
:1014500002460B46CDE90023266B656BFFF71AF8B1
:1014600008EE100A30462946FFF714F807EE100A76
:10147000C7EE087AC4ED0E7A9FED137A67EE877A8D
:10148000C4ED0E7AA08900F03FFC6061A161A56AFD
:101490002DB903232370A8E703232370A5E700F0E9
:1014A00029FCFEF7F7FF06EE900A07EE905AF8EED9
:1014B000677A87EEA67ABCEEC77A84ED097AE8E708
:1014C00024020020300200200000C842000000007A
:1014D000074B19680868B0E8F04F1EF0100F08BFFE
:1014E000B0EC108A80F30988BFF36F8F704700BF9C
:1014F00028020020000000000000000000000000A2
:10150000EFF30980BFF36F8FDFF850301A681EF0D9
:10151000100F08BF20ED108A20E9F04F10602DE970
:1015200009004FF0300080F31188BFF34F8FBFF3F5
:101530006F8F00F015F84FF0000080F3118809BCA0
:1015400019680868B0E8F04F1EF0100F08BFB0EC43
:10155000108A80F30988BFF36F8F7047280200203C
:10156000054B064A92E8030083E80300044B1A681F
:10157000044B1A60704700BF280200203802002088
:1015800034020020240200202DE9F041804600F0C2
:101590009FFA0028FBD0002718E0194D04EBC7067E
:1015A00005EB8600FFF76EFE55F826200023D36377
:1015B00055F82620536455F82620136445F8263044
:1015C0000134E4B2072CE8D90137FFB2072F01D864
:1015D0000024F7E70B4B00221A705A611A61DA6097
:1015E000094B1868FFF74EFE084B1868FFF74AFED4
:1015F000404600F0CBFA064B01221A70BDE8F0819C
:101600004002002040030020240200203402002079
:101610008803002010B5FFF77DFD0F4B186050B117
:1016200000F140020D4B1A60426C5A600C4A93E87C
:10163000030082E8030002240A4B1C70FFF7A6FE99
:1016400062B600F05DFA0849204600F089FA00F021
:10165000EBFA00F045FA10BD3402002038020020F9
:101660002802002088030020351801082DE9F843DE
:1016700017461C4603EBC202594B53F8223023B1E4
:101680004FF000084046BDE8F88306460D4650205E
:10169000FFF762FC04EBC703514A42F8230000281D
:1016A00000F09480804646601646994652F82330F2
:1016B0009D604C49B1FBF5F552F82930ADB29D81E2
:1016C00052F82930089A1A6156F8292044EAC703CB
:1016D000DBB2537056F82930099ADA6356F829506C
:1016E000900080B2FFF738FC686456F82900436C1C
:1016F000002B6ED0FFF71EFE35464E4655F82930BA
:101700004FF00009C3F8489055F8263000229A633C
:1017100055F82630C3F83090C3F8349055F82600B9
:101720004178C9B2012202FA01FC2F4B197841EA33
:10173000EC01C9B219704178C9B28A4002F00702BF
:10174000417803EBD10359780A435A70C0F82490CA
:1017500055F82600143000F077FA55F826001C30B2
:1017600000F072FA55F82630C3F8289055F8263064
:1017700083F82C9055F82600FFF74EFC55F826907C
:101780001420FFF7E9FBC9F84C0055F82610CB6C84
:1017900013B3C86CFFF7FDFA144B1B7863B955F807
:1017A0002630D96C124B02221248FFF7D4FA0F4AA6
:1017B00013780133137065E704EBC704084B53F843
:1017C0002430D96C0B48FFF71EFBF0E74FF0000800
:1017D00058E74FF0000855E74FF0000852E700BF08
:1017E0004002002040420F00700300204003002010
:1017F000D51101084403002010B590F801C04FEA4C
:10180000DC020CF0070E0A4B19784FF0010C0CFAB1
:1018100002F42143C9B2197013445A780CFA0EFC31
:1018200042EA0C02D2B25A700623037010BD00BF08
:101830006403002030B583B0CDE90001244B1B8840
:101840001BBB244B1B7813BBFFF764FC0446FFF75C
:1018500091FC01462046FFF7BDFC1F4D2968FFF7AC
:10186000B9FC04462B6883420FD070B10378062B75
:1018700014D0194B186818B10378DBB2022B18D0BA
:101880002378043BDBB2012B16D803B030BD002314
:101890006A4612491248FFF7CFFAD5E7FFF718FC5E
:1018A0002046FFF7B9FBA08900F02EFA6061A16124
:1018B000DFE7FFF7A1FFE3E70A4B1C6004F14002FA
:1018C000094B1A60626C5A6000F022F9DDE700BF34
:1018D0007A0300204003002024020020AD120108FA
:1018E00044030020340200203802002008B503E041
:1018F00000F0EEF9FFF79EFF074B18680028FBD0B9
:10190000FFF768FD054B1A68054B1B689A42EFD03C
:10191000024B00221A60EBE7340200202402002070
:101920003002002010B54FF47A7202FB01F14269D7
:101930008469521844F10004426184610521FFF773
:1019400087FB0D4B1B680D4A13601A46012102F8F4
:10195000401B0B490A605B6C4B6000F0E1F8094CDE
:1019600023880133238000F0D3F82388013B2380B0
:1019700000F0E2F810BD00BF300200203402002069
:10198000380200207A03002080F31188BFF34F8FC4
:10199000BFF36F8F7047000000B5CDB04C2200211F
:1019A00039A805F085FE2022002131A805F080FE2F
:1019B000BC22002102A805F07BFE022004F02CFAD4
:1019C000002301933F4B9A6942F440429A619B691C
:1019D00003F4404301933C4BDA6A42F00102DA62BD
:1019E000DB6A03F001030193019B364B9B6913F4FF
:1019F000005FFAD0354A936A23F0030343F00203F1
:101A00009362092339934FF480333A9301233E9331
:101A100002234293439305224492802245924693A7
:101A2000082347934893499300234A934B9339A83B
:101A300002F046FD18B100204DB05DF804FB3F23D5
:101A400031930323329300233393082334934023A9
:101A5000359336934FF4806237923893022131A840
:101A600003F062F908B10020E6E741F203030293B4
:101A700019230B93F0230C9304230D9303230E934C
:101A800002230F9300231093119312934FF40052EB
:101A900019921F93209302A803F0BEFB78B94FF070
:101AA000E023D3F8202D42F47002C3F8202DD3F8A0
:101AB000202D42F07042C3F8202D0120BCE7002009
:101AC000BAE700BF0048025800040058004402581A
:101AD00008B572B602F03CFCFFF75EFF08BD0000DF
:101AE000002080F3098805480068006880F30888B2
:101AF00000DFBFF36F8F00BF7047000008ED00E00C
:101B000002484FF0FF0101707047000022ED00E035
:101B100002484FF0805101607047000004ED00E082
:101B200008B53020FFF730FF024A138801331380D5
:101B300008BD00BF8A03002008B5084B1B884BB1C5
:101B4000013B9BB2054A138003B108BD0020FFF79B
:101B50001BFFFAE70020FFF717FFF6E78A030020D4
:101B6000012808D002280AD008B100207047064B8F
:101B7000996101207047044BD96101207047024BE5
:101B800019620120704700BF8C03002010B549F690
:101B90004043984210D042F21073984232D041F242
:101BA0008833984230D0B0F5FA6F2FD0B0F57A7FF5
:101BB0002ED049F6404100E00146164C002284F840
:101BC0002420154BB3FBF1F32361606102F08CFA22
:101BD0006269124B1B68B3FBF2F3013BB3F1807FE8
:101BE0000AD24FF0E02253610D4BF02183F823100D
:101BF000002393610723136102F09CFF094B1860D7
:101C0000012010BD0146D8E70146D6E70146D4E7DA
:101C10000146D2E78C03002040420F00B0010020B3
:101C200000ED00E0B803002008B5064B012283F860
:101C3000242000221A605A609B6913B10020002101
:101C4000984708BD8C03002000220023C0E9002330
:101C50007047824273EB010C03D2801A61EB0301DF
:101C60007047101A63EB010170470000164B93F8A0
:101C70002430012B01D00020704770B5124C002396
:101C800084F825302669236865689E1945F10005AA
:101C9000266065604FF47A72002330462946FEF7CD
:101CA0003FFCA060E160012384F82530236A13B172
:101CB000304629469847054B1B6813B1013B034A40
:101CC0001360012070BD00BF8C030020B40300200E
:101CD000014B1868596870478C03002008B5044907
:101CE0004FF47A72002308684968FEF719FC08BDB2
:101CF0008C03002008B5FFF7F1FF4FF47A72002340
:101D0000FEF70EFC08BD0000034A13685168C018B6
:101D100041F10001704700BF8C030020054B1A6899
:101D20005B688B4208BF824201D0002070470120CF
:101D3000704700BF8C03002002460378302B05D08B
:101D4000302B0AD0302B0FD0002010E041785829DA
:101D500018BF7829F4D1032009E05178422918BF2F
:101D60006229EFD1012002E0022000E01A4613466A
:101D700013F8011B39B152782E2AF7D15A78002A6C
:101D8000F4D004207047704703463038C0B20928A9
:101D900010D9A3F16102D2B2052A07D9A3F14102F9
:101DA000D2B2052A05D8373BD8B27047573BD8B2D4
:101DB0007047002070470000034640785C2800D040
:101DC00070479878302837D0FAD37428F8D862282A
:101DD000F6D3A0F16203122BF2D801A252F823F03D
:101DE0002D1E0108C11D0108C11D0108C11D0108EA
:101DF000C11D0108C11D0108C11D0108C11D010847
:101E0000C11D0108C11D0108C11D0108C11D010836
:101E1000311E0108C11D0108C11D0108C11D0108B5
:101E20003D1E0108C11D0108351E0108082070472C
:101E30000A20704709207047002070470D20BFE737
:101E400070B506460378222B02D03546002409E0FF
:101E50000136FAE7681EFFF7AFFF3055013501354F
:101E60000134A4B22B7843B15C2BF3D0222B01D0E8
:101E70003355F4E700233355F1E73355304670BD51
:101E80002DE9F843064603782D2B18D04FF00109B1
:101E900000203044FFF750FF0746022816D00328E1
:101EA00018D001280FD000234FF00A08B9F1FF3FE6
:101EB00014D0002213441E440024234612E04FF0A5
:101EC000FF390120E5E702239846EFE701234FF0B1
:101ED0000808EBE702234FF01008E7E70122E9E7E3
:101EE00001360124307858B12E28F9D003FB08F5CB
:101EF000FFF74AFF2B1804EB840464000136F1E776
:101F0000042F14BF00270127002C08BF00279FB112
:101F100007EE903AF8EE677A07EE104AB8EE477A85
:101F2000C7EE876A07EE909AF8EEE77A67EEA67A30
:101F300017EE900ABDE8F88303FB09F0FAE710B545
:101F400004460023826D013100F087FD20B1014677
:101F5000204600F0F9FD10BD0020FCE708B50B7825
:101F6000272B0BD0A3F13002D2B22D2B18BF092A98
:101F70000BD9242B0DD093B9002008BD4A78002A34
:101F8000F0D00846FFF718FFF7E70846FFF778FF9D
:101F9000F3E74A78002AEED0FFF7D1FFEDE70846D5
:101FA000FFF74EFFE9E72DE9F0478CB0064689467A
:101FB00015461F462022002104A805F079FB99F858
:101FC000028008F00F08A84501DA05F1FF38002467
:101FD0000CE004F1010A57F82A103046FFF7BEFF63
:101FE0000CAB03EB840444F8200C544605F1FF3C91
:101FF000A445EEDCB8F1070F49D8DFE808F0040A81
:102000000F151C242E3AD9F8083098470CB0BDE8BB
:10201000F087D9F8083004989847F7E7D9F80830DE
:10202000059904989847F1E7D9F80830069A059978
:1020300004989847EAE7D9F80840079B069A05995B
:102040000498A047E2E7D9F80840089B0093079B53
:10205000069A05990498A047D8E7D9F80840099B43
:102060000193089B0093079B069A05990498A04743
:10207000CCE7D9F808400A9B0293099B0193089B7F
:102080000093079B069A05990498A047BEE74FF076
:10209000FF30BBE70246002002E01354013080B25B
:1020A0000B5C002BF9D1135470478446002318466B
:1020B0001CF803207AB110B4CC5C4CB1A24207D119
:1020C000013080B201339BB21CF80320002AF3D107
:1020D0005DF8044B70477047437803F00F03012B02
:1020E00005D9072B05D9082B05D8C0687047C068EB
:1020F0007047C0687047C068704730B5002306E07D
:102100001A1D00EB82020021516001331BB2072B24
:10211000F6DD0021C1860B4601250DE002699E46D1
:10212000D41812F803C0BCF1220F14D0B5B924782A
:102130005C2C22D001339BB282899A4224D9002997
:10214000ECD10469E25C202A18BF002AE6D1002203
:10215000E2540125EEE781F00101E7E7C58E072D86
:1021600009D805F1010CA0F836C0043500EB85054F
:102170006C600025DBE70025D9E772445278002A1D
:10218000D8D001339BB2D5E730BD10B5044600234B
:10219000A0F85430B0F850305BB1B0F8523053B3BF
:1021A000013B0E3304EB830321695868FEF798F86E
:1021B00000B3B4F852300E3304EB8303216958683E
:1021C000FFF768FF20B1B4F852300133A4F8523061
:1021D000B4F8503001339BB2A4F85030052B02D92B
:1021E0000523A4F85030B4F85230042B02D9002350
:1021F000A4F8523010BD0423D3E770B5054600247F
:102200000AE000211170221D05EB820251680131A4
:1022100051600CE00134A4B2EB8EA34216D92346E0
:10222000221D05EB8202526811782229E9D004337D
:1022300005EB83035E683046FEF75CF883B2013B32
:10224000F25C222AE6D10022F254E3E770BD0000DE
:10225000002301E001331BB2042B0ADC064A52F8CA
:1022600023000028F6D090F8602012F0020FF1D081
:1022700000E00020704700BFC803002000B583B015
:102280008DF80710836E01210DF10700984703B008
:102290005DF804FB08B5C3898289934200D308BD69
:1022A0000269591CC181D15CFFF7E8FFF7E7C389D8
:1022B00003B9704710B504460821FFF7DFFFE38933
:1022C000013BE38110BD38B5856E35B10C4608463B
:1022D000FEF710F881B22046A847002038BD000064
:1022E00010B504460160886850B1037853B1E38E9D
:1022F000012B18D9A169FDF7F3FFB0B1002202E06C
:10230000012200E0012294F8603062F3000384F8B7
:10231000603009492046FFF7D6FF94F8603013F08B
:10232000010F04D110BD0022EDE70122EBE70349C4
:102330002046FFF7C8FFF5E738790108447901081E
:1023400010B5044690F8603013F0010F19D091B920
:10235000236859682046FFF7B6FF0C492046FFF76F
:10236000B2FFA16859B12046FFF7ADFF08492046EA
:10237000FFF7A9FF10BD0749FFF7A5FFE8E70649EA
:10238000F1E70649FFF79FFFF4E700BFEC7901088A
:10239000F0790108487A0108E8790108F479010820
:1023A00010B50446036899680069FDF799FF68B99C
:1023B00094F8603043F0010384F860300649204609
:1023C000FFF781FF0023A381E38110BD034920466D
:1023D000FFF779FFF6E700BF44790108107A01089A
:1023E00008B5FFF735FF10B10149FFF76CFF08BDD5
:1023F000387901080B7843B14A7802F00F02082AB5
:1024000003D00268127813420DD090F8603013F0B8
:10241000010F0BD14B7813F0100F01D00020704743
:102420004FF0FF3070474FF0FF307047002070478B
:1024300000230B72082304E03032013BDBB2CA54A4
:10244000000928B100F00F02092AF5D95732F4E744
:10245000C3F1080040B27047002304E00E4A302167
:10246000D1540133DBB2082BF8D9437803F00F03C2
:10247000012B05D9072B05D9082B05D840687047D3
:10248000406870474068704710B5034C214640686B
:10249000FFF7CEFF204610BDBC03002010B4041E81
:1024A00004DB22460023CB720B2011E06242F9E7E5
:1024B000114B83FB023CD317C3EBAC039C4603EBED
:1024C0008303A2EB43030138C0B230330B5462469E
:1024D000002AEDD1002C0ADB1CB90138C0B2302330
:1024E0000B54C0F10B0040B25DF8044B704701384B
:1024F000C0B22D230B54EFE76766666670B584B0F3
:1025000004460E46184B01AD93E8070085E8070026
:1025100016492046FFF7D7FE29463046FFF7BEFF93
:10252000C0F10B0129442046FFF7CDFE104920469B
:10253000FFF7C9FE002307E004AA1A444FF0300C4D
:1025400002F80CCC01331BB20A2BF5DD01A9304691
:10255000FFF76EFF01A92046FFF7B5FE05492046AB
:10256000FFF7B1FE04B070BD387A0108247A010883
:10257000307A0108487A010870B505460E460846CB
:10258000FFF76AFF01462846FFF79DFEC0F11604DB
:1025900024B2002C17DD2D212846FFF76FFE013CE9
:1025A00024B2002CF7D1737803F00F03012B0CD960
:1025B000072B0FD9082B12D9092B15D80D492846FE
:1025C000FFF781FE05E00424E5E70B492846FFF705
:1025D0007AFE70BD09492846FFF775FEF9E70849FC
:1025E0002846FFF770FEF4E706492846FFF76BFE22
:1025F000EFE700BF587A0108447A01084C7A0108D5
:10260000507A01085C7A0108F8B50646876D0F49D3
:10261000FFF759FE002401E0013424B2B6F85C3023
:102620009C4211DA07EB04156B7803F00F03012BC2
:10263000F2D829463046FFF7DDFE0028ECD12946C6
:102640003046FFF799FFE7E7F8BD00BF647A01085D
:1026500008B5FFF7FDFD08B1FFF7D6FF08BD000084
:10266000F8B50646876D1049FFF72DFE002401E0FE
:10267000013424B2B6F85C309C4214DA07EB04153E
:102680006B7803F00F030E3303F00F03052BEFD825
:1026900029463046FFF7AEFE0028E9D129463046EC
:1026A000FFF76AFFE4E7F8BD787A010808B5FFF79D
:1026B000CFFD08B1FFF7D4FF08BD0000F8B506460E
:1026C000876D0F49FFF7FFFD002401E0013424B2BC
:1026D000B6F85C309C4211DA07EB04156B7803F016
:1026E0000F03082BF2D129463046FFF783FE00285E
:1026F000ECD129463046FFF73FFFE7E7F8BD00BFC2
:10270000887A010808B5FFF7A3FD08B1FFF7D6FFE7
:1027100008BD0000F8B50646876D0F49FFF7D3FDE9
:10272000002401E0013424B2B6F85C309C4211DA96
:1027300007EB04156B7803F00F03092BF2D1294640
:102740003046FFF757FE0028ECD129463046FFF708
:1027500013FFE7E7F8BD00BF987A010808B5FFF757
:1027600077FD08B1FFF7D6FF08BD08B5FFF74CFFAE
:1027700008BD000038B5054604E005492846FFF7C6
:10278000A2FD21464B1EDCB20029F6D138BD00BFA8
:10279000A87A010838B505468489C389E41A24B2A9
:1027A00005E020212846FFF769FD013C24B2002CFA
:1027B000F7DC297B2846FFF7DDFF38BD10B504465E
:1027C000002919DDB0F95420531EA0F85430B0F898
:1027D0005230B0F850108B4238BF0B4659428A42F3
:1027E00001DCA4F854102046FFF7D4FFB4F95430AC
:1027F00083B9A381E38110BD0029FCDAB0F954301C
:1028000001331BB2A0F85430002BECDD0023A0F8FC
:102810005430F0E7B4F8522005321A440C4981FBD9
:102820000231D317C3EB610303EB8303D31A0E33D7
:1028300004EB830359682069FFF72CFCA081002872
:10284000D9D0E08121692046FFF73DFDD3E700BFE5
:102850006766666608B50121FFF7B0FF08BD08B5D9
:102860004FF0FF31FFF7AAFF08BD00002DE9F84F38
:102870000546B0F834A0838943B102694FF00008DF
:1028800002F80380876D4446C14624E0FFF76DFFE0
:1028900001212846FFF754FD5EE007EB081841468A
:1028A0002846FFF769FE4046FFF7D6FD80463046D2
:1028B000FFF7D2FD01464046FFF7F7FB824528BFF0
:1028C00082461FFA8AFA1FFA84F809F101091FFAF1
:1028D00089F9013424B2B5F85C309C421EDA07EB6A
:1028E000041631462846FFF785FD0028F1D1D5F8BA
:1028F00010B03046FFF7B0FD01465846FFF7D5FB54
:10290000AB899842E5D1B9F1000FDCD0B9F1010FE4
:10291000C3D11A492846FFF7D6FCBEE7B9F1000F2C
:102920001AD0B9F1010F19D02C6907EB08173846F6
:10293000FFF792FD01462046FFF7ACFBA881B9F1F5
:10294000010F0FD82A69AB890021D154AB89EB81E3
:1029500029692846FFF7B7FCBDE8F88F2846FFF73E
:1029600019FFE1E739462846FFF706FE0121284610
:10297000FFF7E6FCA5F80CA0E4E700BF487A0108E1
:1029800038B50446B1F1FF3F14BF00230123C289CB
:102990000AB9012955D0A089824203D0824205D0CC
:1029A0001BB219E0B1F1FF3FF8D14AE00129F7D19C
:1029B000013AE281431E9BB2A38122690021D154D6
:1029C00001212046FFF7D6FE3BE020691A44551E40
:1029D000825C425501331BB2A089E289851AAB4261
:1029E000F3DB0138A081B1F1FF3F06D12269A38951
:1029F0000021D154B4F90E500DE0013AE2810821D2
:102A00002046FFF73BFCF1E72369595D2046FFF7BD
:102A100035FC01352DB2A3899D42F5DB20212046EE
:102A2000FFF72CFCA589E389ED1AADB201352DB273
:102A300005E008212046FFF721FC013D2DB2002DC5
:102A4000F7DC38BD08B50121FFF79AFF08BD08B5CE
:102A50004FF0FF31FFF794FF08BD2DE9F0478046A6
:102A60008A4617469946B0F85C60836DD31AC3F363
:102A70000F13F31A9EB2002406E04A46504604F0B3
:102A80001FFE00B30134A4B2B4421BD207EB0415FD
:102A900095F801C00CF00F0CBCF1090FF2D02946DB
:102AA0004046FFF7A7FC0028ECD12846FFF7D4FCEE
:102AB0000146B9F1000FE0D15046FDF711FC0028A6
:102AC000E0D100E000252846BDE8F08770B5044657
:102AD0000D46FFF7BDFB20B10646012C02D0012CAC
:102AE00003DC70BDFFF741FEFBE70023826D6968E0
:102AF000FFF7B3FF0446D8B110493046FFF7E3FBB8
:102B00002046FFF7A9FC01463046FFF7DCFB0C4DE1
:102B100029463046FFF7D7FB2046FFF7DDFA01468E
:102B20003046FFF7D0FB29463046FFF7CCFBD8E70D
:102B300004493046FFF7C7FBD3E700BFAC7A010872
:102B4000487A0108C07A010808B54B7803F00F03F2
:102B5000023B052B16D8DFE803F003060A0D0D0F24
:102B60008B68186808BD8B68B3F90000FAE78B68BA
:102B70001878F7E78868F5E78A68536823B1106822
:102B80009847EFE70020EDE70020EBE770B584B051
:102B900004460D46274B93E8070004AB03E9070002
:102BA00029462046FFF7D0FF064669682046FFF712
:102BB0008AFB21492046FFF786FB6B7803F00F0361
:102BC000052B10D001A93046FFF768FCC0F10B01BE
:102BD00001AB19442046FFF776FB18492046FFF762
:102BE00072FB002315E0164D29462046FFF76BFBCC
:102BF00031462046FFF767FB29462046FFF763FB77
:102C000011E004AA1A444FF0300C02F80CCC013346
:102C10001BB20A2BF5DD01A93046FFF709FC01A91B
:102C20002046FFF750FB07492046FFF74CFB304694
:102C300004B070BD387A0108D47A0108307A0108EE
:102C4000D87A0108487A010870B505460C464B78D9
:102C500013F0400F0AD14B7803F00F03023B052B12
:102C600007D8DFE803F00B0E1114191D1249FFF706
:102C70002AFB21462846FFF789FF70BDA3681A602A
:102C8000F7E7A3681A80F4E7A3681A70F1E7114622
:102C9000A068FFF7FFF9ECE70849FFF714FBE8E746
:102CA000A3689E68002EE4D0186810B11146B047A2
:102CB000DFE71046B047DCE7DC7A0108F87A010864
:102CC00070B504460D46FFF7C3FA20B3064600234D
:102CD000826D2146FFF7C1FE014660B1437803F0E3
:102CE0000F030E3303F00F03052B0AD82A46304694
:102CF000FFF7AAFF70BD09493046FFF7E4FA00204C
:102D0000F8E721463046FFF7DEFA05493046FFF77F
:102D1000DAFA0020EEE70020ECE700BF0C7B0108A8
:102D20001C7B010870B504460D4690F8603043F0F6
:102D3000020380F860304B7813F00F0314D0012B9E
:102D400023D04A7802F00F020E3202F00F02052A59
:102D50002AD9082B2CD0002694F860306FF3410359
:102D600084F86030304670BDFFF747FAAB6804F175
:102D70001401E08E984706466B7813F0200FEBD1D4
:102D800001462046FFF7BAFBE6E700F11403C28EC6
:102D9000FFF709F906466B7813F0200FDCD10146E6
:102DA0002046FFF7ABFBD7E7FFF7F0FE0026D3E79F
:102DB000FFF796FA0026CFE783895BB310B5044688
:102DC00002690021D15490F8603013F0010F1ED039
:102DD000FFF7DBF92046FFF790F90023E381A38199
:102DE000E38EB3B10C492046FFF76DFA0023A26DC4
:102DF00061692046FFF731FE014618B12046FFF712
:102E000091FF06E005492046FFF75DFA01E0FFF774
:102E1000C7FA10BD704700BF487A0108C07A0108A0
:102E200010B50446FFF7C8FF01212046FFF788FAD6
:102E300010BD000008B500220D490E4800F04AFA06
:102E400008B1002008BD0C490A4800F05FFA0028CC
:102E5000F7D10A49074801F099F80028F1D105484F
:102E600000F068FA0028ECD103F000F8EAE700BFB0
:102E70003C000020DC030020A00000208C0000208B
:102E800012230B80004870475800002004230B8059
:102E9000004870476C000020002393421ED200B50A
:102EA00010E00CF1370C01F813C000014FEA430C9D
:102EB0000CF1010C4FF0000E01F80CE00133DBB215
:102EC000934209D24FEA107CB0F1204FE9D20CF1C5
:102ED000300C01F813C0E8E75DF804FB7047000010
:102EE00038B50B4BD3F80008D3F80448D3F80838AA
:102EF000C01800D138BD074D0822A91CFFF7CCFF30
:102F0000042205F112012046FFF7C6FFF2E700BFD9
:102F100000E0F11F7000002008B51A230B80FFF7B6
:102F2000DFFF014808BD00BF7000002008B50A4659
:102F300028B90549054800F062FE034808BD02496A
:102F4000024800F05CFEF8E7AC060020507C010867
:102F500010B50A46034C2146034800F050FE2046B7
:102F600010BD00BFAC060020587C010808B50A4619
:102F700028B90549054800F042FE034808BD02494A
:102F8000024800F03CFEF8E7AC060020607C010837
:102F900008B50A4628B90549054800F030FE03483F
:102FA00008BD0249024800F02AFEF8E7AC060020FE
:102FB0006C7C01080020704700207047002070479B
:102FC00010B50146044C204600F0EFFF204600F00B
:102FD000F2FF002010BD00BFDC03002010B5064C3E
:102FE00000220649204600F0D8FF0549204600F09F
:102FF000DCFF002010BD00BFDC030020AC1200206D
:10300000AC0A002030B5B7B00446002131913291AE
:10301000339134913591BC2202A804F049FB226817
:10302000204B9A4201D037B030BD4FF48023029339
:103030004FF44013239302A802F0EEF80028F2D1D7
:1030400002F014FF184CD4F8E03043F00103C4F848
:10305000E030D4F8E03003F001030093009B4FF41C
:10306000C0533193022332930025339534950A23BC
:10307000359331A90D4802F0B1FDD4F8D83043F0B2
:103080000063C4F8D830D4F8D83003F0006301935B
:10309000019B2A460321652001F0BAF9652001F061
:1030A000EDF9C0E700000840004402580000025853
:1030B00008B500F57171D0F8040400F050F908BDAE
:1030C00008B5C1EBC10300EB8303D3F80822D0F8A5
:1030D000040400F070F908BD08B5C1EBC10300EBB2
:1030E00083039A6CD0F8040400F09EF908BD08B57B
:1030F000D0F8040400F034FA08BD10B50446C368E3
:103100005BB1022B08D10121D4F8040400F011FABC
:10311000D4F8040400F0E4F910BD0021F4E7000045
:1031200010B50446D0F8040400F006FA2268D2F87C
:10313000003E43F00103C2F8003E236A23B1034A74
:10314000136943F00603136110BD00BF00ED00E0FA
:1031500008B5D0F8040400F0F8F908BD08B5D0F8B7
:10316000040400F00DFA08BD08B5D0F8040400F01E
:1031700005FA08BD08B5D0F8040400F003FA08BD4C
:1031800008B5D0F8040400F0FFF908BD02780AB1D0
:103190000020704710B503461448C0F80434C3F843
:1031A000C402134B0360092343600222C260002360
:1031B00003618261C361036243628362C36203632A
:1031C00002F0C4FE00B110BD084C8021204603F07F
:1031D00018FC40220021204603F0EDFB8022012153
:1031E000204603F0E8FB0020EDE700BFAC1A00200A
:1031F00000000840D0F8C43211F0800F08D101F06F
:103200007F01C1EBC10103EB810191F8FE01704721
:1032100001F07F01C1EBC10103EB810191F83E0098
:10322000704708B5D0F8C40203F00EFB08BD0000DB
:1032300000487047B41E00207047032805D8DFE817
:1032400000F005040205012070470320704708B50F
:10325000D0F8C40202F018FFFFF7EFFF08BD08B571
:1032600094461A466346D0F8C40203F040FAFFF7CA
:10327000E4FF08BD08B5D0F8C40203F07DFAFFF7FB
:10328000DCFF08BD08B5D0F8C40203F015FBFFF75A
:10329000D4FF08BD08B5D0F8C40203F051FBFFF716
:1032A000CCFF08BD08B5D0F8C40203F00CFAFFF754
:1032B000C4FF08BD08B5D0F8C40203F0CEFAFFF78A
:1032C000BCFF08BD08B5D0F8C40203F08EFAFFF7C2
:1032D000B4FF08BDC0B108B50346D0F8B80210B1BC
:1032E0000020C3F8B802D3F8CC0210B10020C3F814
:1032F000CC0209B1C3F8B412012183F89C121A70F0
:103300001846FFF743FF08BD0320704710B582B091
:103310000023ADF8063059B10446C0F8B8128B6AE4
:103320000DF106009847C4F8CC02002002B010BD91
:103330000320FBE708B5FFF78AFF08BD08B5D0F802
:10334000B83213B11B68984708BD0320FCE708B5E5
:10335000D0F8B8320BB15B689847002008BD38B58B
:10336000044600F2AA25284600F02EF90123C4F8ED
:103370009432B4F8B032C4F8983294F8AA1201F03A
:103380001F03012B0DD0022B10D02BB101F08001B7
:103390002046FFF777FF03E02946204600F0CEFAEB
:1033A00038BD2946204600F001FBF9E729462046B2
:1033B00000F030FBF4E738B504460D4631BB134648
:1033C000D0F89422032A01D0084638BDD0F85C1109
:1033D000D0F8602191420CD8D0F8B8321B691BB1EB
:1033E00090F89C22032A0FD0204600F051FC28467A
:1033F000EBE7891AC0F85C118A4228BF0A461946D1
:1034000000F03EFC2846E0E79847EDE7D0F8B832F8
:103410009B692BB190F89C22032A03D19847D4E7EB
:103420000320D2E70320D0E738B504460D46002933
:1034300048D11346D0F89422022A05D094F8A0323D
:10344000012B3AD0284638BDC269016A8A4211D898
:103450008A421BD0D4F8B832DB681BB194F89C22A6
:10346000032A27D080212046FFF70CFF204600F0DA
:103470001AFCE3E7521AC261194600F0EAFB002386
:103480001A4619462046FFF71DFFD7E78369994280
:10349000E0D8D0F898229342DCD20022114600F006
:1034A000D8FB0021C4F898120B460A462046FFF7C5
:1034B00009FFC3E720469847D4E7002384F8A032E9
:1034C0002846C0E7D0F8B8325B692BB190F89C224F
:1034D000032A03D19847B6E70320B4E70320B2E7F5
:1034E00070B50446012380F89C320023C0F8943262
:1034F0004360C0F8A432D0F8BC3223B1D0F8B8325F
:103500005B68002198474023002211462046FFF7C0
:10351000A6FE0126A4F864614025C4F860512B463C
:10352000002280212046FFF79AFEA6842562002013
:1035300070BD01740020704790F89C3280F89D3275
:10354000042380F89C320020704790F89C32042BB2
:1035500001D00020704790F89D3280F89C32F8E747
:1035600008B590F89C32032B01D0002008BDD0F89C
:10357000B832DB69002BF8D09847F6E70020704797
:10358000002070470020704708B5012380F89C3266
:10359000D0F8B83213B15B6801799847002008BDB4
:1035A0000346002002E00130C0B201331A78002A3D
:1035B000F9D1704708B54B88012B00D008BDC0F881
:1035C000A43200F065FBF9E70B7803704B78437089
:1035D0008B78CA7843EA022343800B794A7943EA1D
:1035E000022383808B79CA7943EA0223C380704720
:1035F00010B504468021FFF745FE00212046FFF765
:1036000041FE10BD30B583B004460D460023ADF831
:1036100006304A88130A013B062B00F2AB80DFE834
:1036200003F0041F33A9A98D9A00D0F8B4321B68A7
:103630000DF10601007C9847EA88002A00F0A3807B
:10364000BDF80630002B00F099809A4228BF1A4638
:10365000ADF806200146204600F0EEFA03B030BD7A
:10366000037C43B9D0F8B8329B6A0DF10600984745
:1036700002234370E0E7D0F8B832DB6A0DF10600B0
:10368000984702234370D7E7D2B2052A52D8DFE821
:1036900002F003101D2A3744D0F8B4325B6823B11E
:1036A0000DF10601007C9847C6E72946FFF7A0FF09
:1036B000D4E7D0F8B4329B6823B10DF10601007C49
:1036C0009847B9E72946FFF793FFC7E7D0F8B43228
:1036D000DB6823B10DF10601007C9847ACE7294671
:1036E000FFF786FFBAE7D0F8B4321B6923B10DF1BA
:1036F0000601007C98479FE72946FFF779FFADE771
:10370000D0F8B4325B6923B10DF10601007C984713
:1037100092E72946FFF76CFFA0E7D0F8B4329B6927
:1037200023B10DF10601007C984785E72946FFF794
:103730005FFF93E72946FFF75BFF8FE7037C33B911
:10374000D0F8B8325B6B0DF10600984774E7294654
:10375000FFF74EFF82E7037C43B9D0F8B8321B6B0A
:103760000DF1060098470723437065E72946FFF7E8
:103770003FFF73E72946FFF73BFF6FE729462046E7
:10378000FFF736FF6AE7204600F082FA66E738B5B1
:1037900004468B88F3B9CB88E3B94B887F2B19D8C3
:1037A00003F07F0590F89C32032B0CD080F89E52DA
:1037B0002946FFF777FD204600F06AFA35B102236B
:1037C00084F89C3209E0FFF713FF06E0012384F838
:1037D0009C3202E02046FFF70BFF38BD70B504466F
:1037E0000E468D782D4B1D70012D0FD890F89C3210
:1037F000022B0FD0032B23D0FFF7FAFE274B1978AB
:103800002046FFF7A4FD0325284670BDFFF7F0FE14
:103810000325F9E78DB145602946FFF78FFD054681
:1038200020B131462046FFF7E3FEEDE7204600F0E9
:103830002FFA032384F89C32E6E700F029FAE3E745
:10384000CDB141688D4225D0C9B2FFF780FD134B41
:10385000197861602046FFF771FD0546B0B1314629
:103860002046FFF7C5FE21792046FFF770FD0223B1
:1038700084F89C32C8E7022380F89C3245602946D0
:10388000FFF765FD204600F003FABDE7204600F093
:10389000FFF9B9E700F0FCF90025B5E7D4200020D6
:1038A00008B5CB88012B0AD190F89C32022B09D99C
:1038B000032B09D10122011D00F0BEF901E0FFF741
:1038C00097FE08BD5BB213B9FFF792FEF9E7014618
:1038D000002341F8083F012200F0AEF9F1E708B5F6
:1038E00090F89C32013B022B12D8CB88022B0CD1D2
:1038F0000123C360D0F8A4320BB10323C3600222BA
:1039000000F10C0100F098F908BDFFF771FEFBE72C
:10391000FFF76EFEF8E708B590F89C32013B022BEA
:1039200009D84B88012B00D008BD0023C0F8A43271
:1039300000F0AEF9F8E7FFF75BFEF5E738B50C7875
:1039400004F06004202C06D0402C04D054B1FFF7C2
:103950004FFE002404E0D0F8B8329B689847044634
:10396000204638BD4D78092D1DD8DFE805F0121925
:103970001C161C08051C0F0BFFF744FEF0E7FFF7B1
:1039800006FFEDE7FFF72AFF0446E9E7FFF788FFA8
:10399000E6E7FFF7A4FF2C46E2E7FFF70BFEDFE7C1
:1039A000FFF7B9FFDCE7FFF723FED9E770B505465F
:1039B0000C460B7803F06003202B07D0402B05D07A
:1039C00023B1FFF715FE0026304670BD95F89C32F6
:1039D000013B022B18D82379012B0FD8D5F8B83228
:1039E0009B682146284698470646E388002BEBD182
:1039F0000028E9D1284600F04BF9E5E721462846A2
:103A0000FFF7F6FD0026DFE721462846FFF7F0FD29
:103A10000026D9E7F8B506460D468B880C7804F0E9
:103A20006004202C08D0D9B2402C05D06CB12946B6
:103A3000FFF7DEFD002406E0D6F8B8329B68294681
:103A40003046984704462046F8BD6F78012F2FD0A6
:103A5000032F05D0002F57D02946FFF7C9FDF2E705
:103A600090F89C32022B05D0032B12D02946FFF789
:103A7000BFFDE8E7002918BF802906D0FFF702FC48
:103A800080213046FFF7FEFBDDE72946FFF7B0FD5A
:103A9000D9E76B882BB9002918BF802901D0EB88A2
:103AA0001BB1304600F0F4F8CDE7FFF7EBFBF8E789
:103AB00090F89C32022B05D0032B12D02946FFF739
:103AC00097FDC0E7002918BF802906D0FFF7DAFB71
:103AD00080213046FFF7D6FBB5E72946FFF788FD82
:103AE000B1E76B88002BAED111F07F0F09D13046C2
:103AF00000F0CEF8D6F8B8329B6829463046984791
:103B0000A1E7FFF7C7FBF2E790F89C22022A06D054
:103B1000032A2AD02946FFF76BFD3C4693E700298C
:103B200018BF802913D113F0800F15D101F07F0148
:103B300001EB8101890001F5A871014404310023E2
:103B40000B600222304600F077F83C467BE72946BE
:103B5000FFF74EFD3C4676E701F07F0101EB810166
:103B60008900103101440431E9E75BB2002B20DB0E
:103B700001F00F0202EB820200EB8202B2F8642134
:103B80002AB3002B28DB01F07F0303EB83039C00A7
:103B900004F5A87434440434802918BF002924D1C2
:103BA0000023236002222146304600F045F83C46BF
:103BB00049E701F00F0202EB820200EB8202928CD5
:103BC000002ADED12946FFF713FD3C463BE7294694
:103BD000FFF70EFD3C4636E701F07F0303EB83035E
:103BE0009C00103434440434D6E73046FFF702FB1F
:103BF00010B101232360D5E700232360D2E7D0B1C1
:103C000070B50D4616460446FFF7CAFC431C5B0020
:103C10009BB233802B7003236B70022307E0EA54BE
:103C200001345A1CD2B20021A9540233DBB22278EB
:103C3000002AF4D170BD704708B513460222C0F8BF
:103C400094228361C3610A460021FFF733FB002001
:103C500008BD08B513460A460021FFF72BFB0020DC
:103C600008BD08B513460322C0F89422C0F85831A5
:103C7000C0F85C310A460021FFF724FB002008BD94
:103C800008B513460A460021FFF71CFB002008BDBB
:103C900008B50423C0F8943200231A461946FFF7EA
:103CA00009FB002008BD08B50523C0F894320023A5
:103CB0001A461946FFF706FB002008BD10B5D0F8DC
:103CC000BC42D0F8C0325BB194F80002FF2807D0A4
:103CD0009B6894F8012221469847FF2384F800321C
:103CE000002010BD4323038000487047D800002007
:103CF00043230380004870471C01002043230380B6
:103D0000004870476C0100200A2303800048704778
:103D10006001002038B5D0F8BC5275B10446FFF7F9
:103D200080FAC5F80C02D4F8C032DB6805F50371DF
:103D3000D5F804029847002038BD0320FCE738B5C9
:103D4000D0F8C442D0F8BC324BB301EB810200EB97
:103D5000820292694AB1C1EBC10504EB8504646C2F
:103D6000B2FBF4F504FB15226AB10024C3F8144237
:103D7000D0F8C02215690A4603F50471D3F8080289
:103D8000A847204638BD01EB810300EB83030024E4
:103D90009C6123462246FFF78DFA2046F2E7032076
:103DA000F0E7F0B583B006460C46D0F8BC720023AD
:103DB0008DF80730ADF804300B7813F0600527D08C
:103DC000202D58D1CA88DAB113F0800F0CD0D0F86A
:103DD000C0329B68394660789847E2883946304659
:103DE000FFF72AFF002549E04B7887F800328B79EE
:103DF00087F80132CA883946FFF733FF00253DE0D6
:103E0000D0F8C0329B68002248789847002535E0FA
:103E10004F780B2F2BD8DFE807F006312A2A2A2A01
:103E20002A2A2A2A142290F89C32032B03D0FFF767
:103E3000DFFB032522E0022201A9FFF7FDFE3D463C
:103E40001CE090F89C32032B03D0FFF7D1FB032535
:103E500014E001220DF10701FFF7EEFE0EE090F8ED
:103E60009C32032B0AD0FFF7C3FB032506E0FFF7C4
:103E7000BFFB032502E0FFF7BBFB0325284603B089
:103E8000F0BD38B504468121FFF7F4F900252587F8
:103E900001212046FFF7EEF9A4F87851822120464F
:103EA000FFF7E8F9A4F84C50A4F84E50D4F8BC320F
:103EB0004BB1D4F8C0325B689847D4F8BC02FFF726
:103EC000BBF9C4F8BC52002038BD70B504464FF4AD
:103ED0000770FFF7ADF9B8B30646C4F8BC02237CFF
:103EE000BBBB4FF40073022281212046FFF7B7F9D4
:103EF000012525874FF40073022229462046FFF74B
:103F0000AEF9A4F878511023A4F84E300823032208
:103F100082212046FFF7A3F90123A4F84C30D4F8FE
:103F2000C0321B6898470023C6F81432C6F818320E
:103F3000257C15BB4FF40073D6F8042201212046DE
:103F4000FFF7C0F9284670BD0023C4F8BC32022533
:103F5000F8E74023022281212046FFF780F901255E
:103F600025874023022229462046FFF778F9A4F846
:103F700078511023A4F84E30C8E74023D6F8042225
:103F800001212046FFF79EF90025DBE719B1C0F8B3
:103F9000C0120020704703207047D0F8BC32C3F82D
:103FA0000812C3F8102200207047D0F8BC32C3F8C2
:103FB00004120020704710B5D0F8BC2292B1047CE6
:103FC00044B94FF40073D2F804220121FFF77AF9C3
:103FD000204610BD4023D2F804220121FFF772F9D8
:103FE0000024F5E70324F3E7FEE7FEE7FEE7FEE73C
:103FF000FEE708B5FDF76CFA08BD704708B5FDF798
:104000007FFA08BD08B5FDF731FE08BD08B50248C6
:1040100002F0FEF808BD00BFAC1A0020274AD2F813
:10402000883043F47003C2F88830254B1B6803F0D6
:104030000F03062B06D8224A136823F00F0343F020
:10404000070313601F4B1A6842F001021A60002236
:104050001A6119681C4A0A401A60194B1B6813F050
:10406000080F06D0164A136823F00F0343F0070326
:104070001360144B00229A61DA611A621349996243
:104080001349D962134919635A639963DA6319644E
:104090005A64196821F4802119601A660E4B1A6857
:1040A0000E4B1340B3F1005F03D20D4B0122C3F856
:1040B00008210C4B43F2D2021A60704700ED00E079
:1040C00000200052004402587FEDF6EA000202028E
:1040D0000000FF01800201010010005C0000FFFFF2
:1040E000008000510040005210B47A4B1B6903F06D
:1040F0003803182B00F2E580DFE813F01B00E30023
:10410000E300E300E300E300E300E3001900E30061
:10411000E300E300E300E300E300E300EA00E30080
:10412000E300E300E300E300E300E30037006A4A52
:1041300005E0684B1B68C3F3C103684ADA40654871
:104140008369C3F303236649CB5CDA40836903F0D8
:104150000F03CB5C03F01F0322FA03F361490B60EA
:10416000614B1A605DF8044B70475A49886A00F049
:1041700003008C6AC4F30512CB6A03F0010C4B6B8D
:10418000C3F3CC030CFB03F307EE903AF8EE677A27
:1041900014F47C7FD3D0012859D0022874D018B3EE
:1041A0004C480168C1F3C1014C4BCB4007EE103ABB
:1041B000F8EE476A07EE102AB8EE476A86EE867A6E
:1041C000036BC3F3080306EE903AF8EE666A9FEDC0
:1041D000476A67EE867A76EEA77AF7EE006A77EEA0
:1041E000A67A27EE277A22E008460968C1F3C101C2
:1041F0003A4BCB4007EE103AF8EE476A07EE102A2A
:10420000B8EE476A86EE867A036BC3F3080306EEC0
:10421000903AF8EE666A9FED356A67EE867A76EE3A
:10422000A77AF7EE006A77EEA67A27EE277A294B6F
:104230001B6BC3F34623013307EE903AF8EE677A1F
:10424000C7EE276AFCEEE67A17EE902A77E707EECC
:10425000102AF8EE476A9FED266A86EE267A1D4BF5
:104260001B6BC3F3080306EE903AF8EE666A9FED07
:104270001F6A67EE867A76EEA77AF7EE006A77EE27
:10428000A67A27EE277AD2E707EE102AF8EE476AD9
:104290009FED186A86EE267A0E4B1B6BC3F308035C
:1042A00006EE903AF8EE666A9FED106A67EE867A3F
:1042B00076EEA77AF7EE006A77EEA67A27EE277AEF
:1042C000B5E7044B1B68C3F3C103044ADA4036E781
:1042D000094A34E70044025800093D000090D00329
:1042E0007C7C0108B4010020B001002000000039EE
:1042F0000024744A20BCBE4B40787D01704700000A
:10430000104B1B780BB90120704710B504464FF4D1
:104310007A70B0FBF3F30C4A1068B0FBF3F000F0D6
:10432000BBF868B90F2C01D901200AE00022214610
:104330004FF0FF3000F06CF8044B1C60002000E0F0
:10434000012010BDB8010020B0010020BC010020F8
:1043500010B5032000F04AF800F0ECFB0F498B6920
:10436000C3F303230E4AD35C03F01F03D8408B69C9
:1043700003F00F03D35C03F01F0320FA03F3094A91
:104380001360094B18600020FFF7BAFF10B1012439
:10439000204610BD0446FFF7B1FFF9E7004402587C
:1043A0007C7C0108B4010020B0010020014B18689A
:1043B000704700BFD820002038B50446FFF7F6FF4D
:1043C0000546B4F1FF3F02D0044B1B781C44FFF7B5
:1043D000EDFF401BA042FAD338BD00BFB80100205A
:1043E000014B1868000C70470010005C0649CB6850
:1043F00023F4E0631B041B0C000200F4E0600343A1
:10440000024A1A43CA60704700ED00E00000FA0556
:1044100000B5174BDB68C3F30223C3F1070CBCF1F3
:10442000040F28BF4FF0040C03F1040EBEF1060F79
:1044300014D9033B4FF0FF3E0EFA0CFC21EA0C01AD
:1044400099400EFA03F322EA03031943002807DB1D
:104450000901C9B2074B19545DF804FB0023E9E7D1
:1044600000F00F000901C9B2034B1954F4E700BF73
:1044700000ED00E000E400E014ED00E0002807DBC0
:1044800000F01F02400901239340024A42F8203005
:10449000704700BF00E100E00138B0F1807F0BD22F
:1044A0004FF0E0235861054AF02182F823100020E4
:1044B000986107221A6170470120704700ED00E003
:1044C000002800F0188338B50446036813F0010F84
:1044D00025D0944A136903F03803926A102B15D043
:1044E000182B0FD06368B3F5803F3FD0002B53D11A
:1044F0008C4B1A6822F480321A601A6822F48022E7
:104500001A6038E002F00302022AEBD1854B1B68E7
:1045100013F4003F03D06368002B00F0EE822368A1
:1045200013F0020F00F0A1807E4A1369926A13F023
:1045300038035AD0182B55D0E368002B00F0DE80EA
:1045400078490A6822F0190213430B60FFF72EFF27
:104550000546744B1B6813F0040F40F0AD80FFF765
:1045600025FF401B0228F4D90320CDE26D4A1368D1
:1045700043F48033136063682BB3FFF717FF0546DE
:10458000684B1B6813F4003FC9D1FFF70FFF401BB6
:104590006428F5D90320B7E2B3F5A02F09D0614B09
:1045A0001A6822F480321A601A6822F480221A6093
:1045B000E1E75C4B1A6842F480221A601A6842F400
:1045C00080321A60D7E7FFF7F1FE0546554B1B68AE
:1045D00013F4003FA3D0FFF7E9FE401B6428F5D990
:1045E000032091E212F0030FA6D14E4B1B6813F08B
:1045F000040F03D0E368002B00F08182494A13685E
:1046000023F01903E1680B431360FFF7CFFE054663
:10461000444B1B6813F0040F06D1FFF7C7FE401B85
:104620000228F5D903206FE2FFF7DAFE41F2030317
:10463000984212D82269402A07D03A494B6823F49D
:104640007C3343EA02334B600FE0364A536823F46D
:104650007C3343F40033536007E0324A536823F05D
:10466000FE43216943EA01635360236813F0100F8E
:1046700000F088802B4A136903F03803926A082BF4
:1046800056D0182B50D0E369002B00F0B880254A93
:10469000136843F080031360FFF788FE0546214B43
:1046A0001B6813F4807F40F08880FFF77FFE401B7B
:1046B0000228F4D9032027E2FFF792FE41F2030318
:1046C000984212D82269402A07D016494B6823F431
:1046D0007C3343EA02334B60C7E7124A536823F442
:1046E0007C3343F400335360BFE70E4A536823F032
:1046F000FE43216943EA01635360B6E7094A136840
:1047000023F001031360FFF751FE0546054B1B68BC
:1047100013F0040FA9D0FFF749FE401B0228F5D97A
:104720000320F1E10044025802F00302012AAAD159
:10473000A14B1B6813F4807F03D0E369802B40F00A
:10474000E081FFF74DFE41F20303984212D8226A3E
:10475000202A07D098494B6823F0F84343EA826344
:104760004B600FE0944A536823F0F84343F08043D2
:10477000536007E0904AD36823F07C53216A43EAF0
:104780000163D360236813F0080F60D06369002BC6
:1047900049D0894A536F43F001035367FFF706FE80
:1047A0000546854B5B6F13F0020F50D1FFF7FEFDFE
:1047B000401B0228F5D90320A6E1FFF711FE41F2C4
:1047C0000303984212D8226A202A07D07A494B68FC
:1047D00023F0F84343EA82634B60D3E7764A536899
:1047E00023F0F84343F080435360CBE7724AD36829
:1047F00023F07C53216A43EA0163D360C2E76E4A27
:10480000136823F080031360FFF7D0FD05466A4B61
:104810001B6813F4807FB5D0FFF7C8FD401B02284A
:10482000F5D9032070E1644A536F23F00103536705
:10483000FFF7BCFD0546604B5B6F13F0020F06D01F
:10484000FFF7B4FD401B0228F5D903205CE1236883
:1048500013F0200F29D0A3699BB1574A136843F482
:1048600080531360FFF7A2FD0546534B1B6813F4FA
:10487000005F1AD1FFF79AFD401B0228F5D90320EB
:1048800042E14D4A136823F480531360FFF78EFD15
:104890000546494B1B6813F4005F06D0FFF786FD01
:1048A000401B0228F5D903202EE1236813F0040FE2
:1048B00021D1636A002B00F026813F4A126902F081
:1048C0003802182A00F0EE80022B79D03A4A136899
:1048D00023F080731360FFF769FD0446364B1B68B5
:1048E00013F0007F00F0DC80FFF760FD001B022862
:1048F000F4D9032008E1314A136843F4807313604C
:10490000FFF754FD05462D4B1B6813F4807F06D13D
:10491000FFF74CFD401B6428F5D90320F4E0A368A1
:10492000012B0AD00BBB244B1A6F22F001021A672D
:104930001A6F22F004021A6704E01F4A136F43F053
:1049400001031367A36833B3FFF730FD05461A4B25
:104950001B6F13F0020FACD1FFF728FD401B41F293
:1049600088339842F3D90320CEE0052B09D0124BAF
:104970001A6F22F001021A671A6F22F004021A67F6
:10498000E0E70D4B1A6F42F004021A671A6F42F00B
:1049900001021A67D6E7FFF709FD0546064B1B6FB4
:1049A00013F0020F85D0FFF701FD401B41F2883361
:1049B0009842F3D90320A7E0004402580048025867
:1049C000594A136823F080731360FFF7EFFC054624
:1049D000554B1B6813F0007F06D0FFF7E7FC401B28
:1049E0000228F5D903208FE04F4B996A4F4A0A40BD
:1049F000A16AE06A41EA00110A439A62226B013A15
:104A0000C2F30802616B0139490289B20A43A16B02
:104A10000139090401F4FE010A43E16B0139090679
:104A200001F0FE410A431A63DA6A22F00102DA62F7
:104A3000596B3F4A0A40A16C42EAC1025A63DA6AE2
:104A400022F00C02216C0A43DA62DA6A22F00202D6
:104A5000616C0A43DA62DA6A42F48032DA62DA6A54
:104A600042F40032DA62DA6A42F48022DA62DA6A06
:104A700042F00102DA621A6842F080721A60FFF7AF
:104A800095FC0446284B1B6813F0007F06D1FFF706
:104A90008DFC001B0228F5D9032035E0002033E00F
:104AA000002031E0204A916A106B012B2DD001F0DB
:104AB0000303A26A93422AD1C1F30511E36A994222
:104AC00027D1C0F30802236B013B9A4223D1C0F3E4
:104AD0004622636B013B9A421FD1C0F30642A36B8F
:104AE000013B9A421BD1C0F30660E36B013B984245
:104AF00017D1002008E001207047012004E00120C8
:104B000002E0012000E0002038BD0120FCE7012088
:104B1000FAE70120F8E70120F6E70120F4E7012099
:104B2000F2E70120F0E700BF004402580CFCFFFF51
:104B30000700FFFF744B1B6903F03803102B00F0D4
:104B4000DE80182B10D00BB1704870476E4B1B687D
:104B500013F0200F00F0D5806B4B1868C0F3C10034
:104B60006B4B23FA00F0704710B4674A916A01F06A
:104B70000301946AC4F30510D36A03F0010C536B6C
:104B8000C3F3CC030CFB03F307EE903AF8EE677A1D
:104B900014F47C7F00F09380012965D0022900F095
:104BA0009180E1B107EE100AF8EE476A9FED596A6D
:104BB00086EE267A544B1B6BC3F3080306EE903A3D
:104BC000F8EE666A9FED546A67EE867A76EEA77A0B
:104BD000F7EE006A77EEA67A27EE277A60E0136890
:104BE00013F0200F23D011461268C2F3C102484BC4
:104BF000D34007EE103AF8EE476A07EE100AB8EE17
:104C0000476A86EE867A0B6BC3F3080306EE903A8A
:104C1000F8EE666A9FED406A67EE867A76EEA77ACE
:104C2000F7EE006A77EEA67A27EE277A38E007EEED
:104C3000100AF8EE476A9FED396A86EE267A324B03
:104C40001B6BC3F3080306EE903AF8EE666A9FED1D
:104C5000326A67EE867A76EEA77AF7EE006A77EE2A
:104C6000A67A27EE277A1BE007EE100AF8EE476ACD
:104C70009FED286A86EE267A234B1B6BC3F308034D
:104C800006EE903AF8EE666A9FED236A67EE867A42
:104C900076EEA77AF7EE006A77EEA67A27EE277A05
:104CA000194B1B6BC3F34623013307EE903AF8EE22
:104CB000677AC7EE276AFCEEE67A17EE900A5DF88F
:104CC000044B704707EE100AF8EE476A9FED146A2E
:104CD00086EE267A0C4B1B6BC3F3080306EE903A64
:104CE000F8EE666A9FED0C6A67EE867A76EEA77A32
:104CF000F7EE006A77EEA67A27EE277AD0E7094822
:104D000070470348704700BF0044025800093D0047
:104D10000090D0030024744A000000390024744C31
:104D200020BCBE4B40787D01002800F0328170B578
:104D30000D4604469B4B1B6803F00F038B420BD2BE
:104D4000984A136823F00F030B431360136803F0B2
:104D50000F038B4240F01F81236813F0040F0CD027
:104D60002269914B9B6903F070039A4205D98E49E1
:104D70008B6923F070031A438A61236813F0080FCC
:104D80000CD06269884BDB6903F070039A4205D945
:104D90008549CB6923F070031A43CA61236813F075
:104DA000100F0CD0A269804BDB6903F4E0639A42D8
:104DB00005D97D49CB6923F4E0631A43CA612368AE
:104DC00013F0200F0CD0E269774B1B6A03F07003DD
:104DD0009A4205D974490B6A23F070031A430A6298
:104DE000236813F0020F0CD0E2686F4B9B6903F04D
:104DF0000F039A4205D96C498B6923F00F031A43BC
:104E00008A61236813F0010F41D0674A936923F444
:104E10007063A1680B4393616368022B0AD0032B74
:104E200027D0012B2CD0604A126812F0040F06D153
:104E30000120ADE0126812F4003F00F0AE805A4944
:104E40000A6922F0070213430B61FFF7AFFA064627
:104E5000554B1B6903F038036268B3EBC20F16D0E1
:104E6000FFF7A4FA801B41F288339842F0D903205F
:104E70008EE04D4A126812F0007FE0D1012087E0F9
:104E8000494A126812F4807FD9D1012080E023685A
:104E900013F0020F0CD0E268434B9B6903F00F0341
:104EA0009A4205D240498B6923F00F031A438A6165
:104EB0003C4B1B6803F00F03AB420AD9394A136815
:104EC00023F00F032B431360136803F00F03AB426F
:104ED00065D1236813F0040F0CD02269324B9B6913
:104EE00003F070039A4205D22F498B6923F07003B7
:104EF0001A438A61236813F0080F0CD062692A4BA9
:104F0000DB6903F070039A4205D22749CB6923F08D
:104F100070031A43CA61236813F0100F0CD0A26902
:104F2000214BDB6903F4E0639A4205D21E49CB6949
:104F300023F4E0631A43CA61236813F0200F0CD0F6
:104F4000E269194B1B6A03F070039A4205D21649B5
:104F50000B6A23F070031A430A62FFF7EBFD124954
:104F60008B69C3F30323114AD35C03F01F03D840BA
:104F70008B6903F00F03D35C03F01F0320FA03F3E4
:104F80000B4A13600B4B18600B4B1868FFF7B8F90E
:104F900070BD012070470120FAE70120F8E70120E9
:104FA000F6E700BF00200052004402587C7C010854
:104FB000B4010020B0010020BC01002008B5FFF7BB
:104FC000B9FD0B4A9369C3F303230A49CB5C03F091
:104FD0001F0320FA03F3926902F00F02885C00F0CD
:104FE0001F0023FA00F0044A1060044A136008BD51
:104FF000004402587C7C0108B4010020B00100206C
:10500000404B9B6A03F00303032B79D070B5054630
:105010000E463C4A136823F080631360FFF7C6F91D
:105020000446384B1B6813F0006F06D0FFF7BEF93B
:10503000031B022BF5D9032070BD324B9A6A22F470
:105040007C32296842EA01329A626A68013AC2F304
:105050000802A9680139490289B20A43E96801399D
:10506000090401F4FE010A4329690139090601F026
:10507000FE410A439A63DA6A22F0C00269690A4370
:10508000DA62DA6A22F02002A9690A43DA62DA6A8D
:1050900022F01002DA62D96B1B4A0A40E96942EA3F
:1050A000C102DA63DA6A42F01002DA62C6B91A465D
:1050B000DB6A43F40023D362124A136843F080632F
:1050C0001360FFF773F904460E4B1B6813F0006F73
:1050D00014D1FFF76BF9001B0228F5D90320ABE7C9
:1050E000012E05D0074AD36A43F40013D362E3E7E5
:1050F000044AD36A43F48013D362DDE700209BE7C0
:1051000001207047004402580700FFFF404B9B6A94
:1051100003F00303032B79D070B505460E463C4AD5
:10512000136823F080531360FFF740F90446384BAF
:105130001B6813F0005F06D0FFF738F9031B022B42
:10514000F5D9032070BD324B9A6A22F07C7229682F
:1051500042EA01529A626A68013AC2F30802A968F7
:105160000139490289B20A43E9680139090401F4A5
:10517000FE010A4329690139090601F0FE410A438B
:105180001A64DA6A22F4406269690A43DA62DA6A06
:1051900022F40072A9690A43DA62DA6A22F48072A0
:1051A000DA62596C1B4A0A40E96942EAC1025A6450
:1051B000DA6A42F48072DA62C6B91A46DB6A43F4EC
:1051C0008003D362124A136843F080531360FFF7E1
:1051D000EDF804460E4B1B6813F0005F14D1FFF787
:1051E000E5F8001B0228F5D90320ABE7012E05D016
:1051F000074AD36A43F08073D362E3E7044AD36A71
:1052000043F40003D362DDE700209BE701207047F1
:10521000004402580700FFFFF8B50446036813F086
:10522000006F30D0436EB3F5001F26D00ED8EBB11F
:10523000B3F5801F07D102210430FFF7E1FE0546D8
:1052400045B12E4621E0012635461EE0B3F5401F4C
:1052500009D10025954A136D23F44013616E0B4369
:105260001365002611E0012635460EE08F4AD36A09
:1052700043F40033D3620025ECE702212430FFF72A
:1052800045FF0546DCE700263546236813F4807F9A
:1052900014D0636D042B30D8DFE803F00322280814
:1052A0000800824AD36A43F40033D36245BB7F4A85
:1052B000136D23F00703616D0B431365236813F42B
:1052C000007F2FD0A36D802B49D01ED8002B40D05B
:1052D000402B17D10021201DFFF792FE054619E053
:1052E0000021201DFFF78CFE0546DFE7002104F1B9
:1052F0002400FFF70BFF0546D8E701263546DDE71A
:105300002E46DBE7012635460CE0C02B02D0B3F574
:10531000807F1BD155BB654A136D23F4E073A16DEB
:105320000B431365236813F4806F45D0D4F8A43081
:10533000B3F5800F38D01ED883B3B3F5001F17D153
:105340000021201DFFF75CFE05461AE001263546C8
:10535000E8E7564AD36A43F40033D362DAE7002120
:1053600004F12400FFF7D2FE0546D3E72E46D9E725
:105370000126354620E0B3F5C00F02D0B3F5000F8B
:1053800009D1C5B9494A936D23F46003D4F8A41038
:105390000B43936510E0012635460DE0434AD36A7E
:1053A00043F40033D362ECE7002104F12400FFF75B
:1053B000ADFE0546E5E72E46236813F4006F23D0C3
:1053C000D4F8A830B3F1007F41D00DD8002B38D0ED
:1053D000B3F1807F05D10021201DFFF711FE0546A6
:1053E00008E0012635460FE0B3F1407F02D0B3F16B
:1053F000806F23D1002D31D12C4A936D23F0E063CF
:10540000D4F8A8100B439365236813F0007F2ED0C7
:10541000A36C202B3FD026D833B1102B20D1234AA8
:10542000D36A43F40033D362002D3AD11F4AD36CC0
:1054300023F03003A16C0B43D36418E001263546FA
:10544000E2E71A4AD36A43F40033D362D2E7002179
:1054500004F12400FFF75AFE0546CBE72E46D3E7BA
:105460000126354603E0302BDED001263546236881
:1054700013F4805F2BD0E36DB3F5005F4CD017D8E9
:10548000002B43D0B3F5805F0DD10021201DFFF725
:10549000B7FD054612E00221201DFFF7B1FD0546CC
:1054A000C2E72E46E3E70126354610E000440258E5
:1054B000B3F5405F02D0B3F5804F24D1002D32D137
:1054C000754A136D23F4E043E16D0B4313652368C4
:1054D00013F4005F37D0236EB3F5003F51D027D8C7
:1054E0003BB1B3F5803F20D10121201DFFF788FD9E
:1054F0000546002D4CD1684A136D23F4E023216E3C
:105500000B4313651FE001263546E0E7624AD36A84
:1055100043F40033D362D1E7002104F12400FFF704
:10552000F5FD0546CAE72E46D1E7012635460AE0D5
:10553000B3F5802FDDD0B3F5A02FDAD0B3F5403F1F
:10554000D7D001263546236813F4804F30D0D4F8E5
:10555000AC30B3F1005F44D01FD83BB1B3F1805FF2
:1055600018D10121201DFFF74BFD0546002D3FD12D
:10557000494A936D23F0E043D4F8AC100B43936594
:1055800016E0012104F12400FFF7C0FD0546B0E755
:105590002E46D8E7012635460AE0B3F1804FE5D024
:1055A000B3F1A04FE2D0B3F1405FDFD00126354622
:1055B000236813F4004F09D0E36EB3F1805F19D074
:1055C000B3F1005F24D0D3B101263546236813F030
:1055D000807F32D0636C032B59D8DFE803F026219B
:1055E0005226012104F12400FFF790FD0546BDE796
:1055F0002E46DDE7284AD36A43F40033D3626DB9FF
:10560000254A136D23F04053E16E0B431365DDE72C
:105610000121201DFFF7F4FC0546F0E72E46D5E7F3
:105620001D4AD36A43F40033D3629DBB1A4AD36C3C
:1056300023F00303616C0B43D364236813F4800FDE
:105640002CD1236813F0010F00F0A380A36F282B47
:1056500000F29D80DFE803F08B9B9B9B9B9B9B9BB9
:10566000869B9B9B9B9B9B9B949B9B9B9B9B9B9BA6
:105670008B9B9B9B9B9B9B9B8B9B9B9B9B9B9B9B9A
:105680008B000221201DFFF7BBFC0546CDE701265C
:105690003546D2E72E46D0E7004402588F4A1368B9
:1056A00043F480731360FEF781FE07468B4B1B6843
:1056B00013F4807F05D1FEF779FEC01B6428F5D96D
:1056C0000325002D4AD1864B1B6FD4F8B0205340E0
:1056D00013F4407F0CD0824B1A6F22F44072196F82
:1056E00041F480311967196F21F4803119671A6705
:1056F000D4F8B030B3F5807F15D08DBBD4F8B0307E
:1057000003F44072B2F5407F1ED0754A136923F44A
:105710007C53136172490B6FD4F8B020C2F30B02B3
:1057200013430B678DE7FEF741FE07466C4B1B6F7B
:1057300013F0020FE1D1FEF739FEC01B41F28833AE
:105740009842F3D90325D8E76548026922F47C52D0
:10575000644901EA131313430361DBE72E4670E744
:105760002E466EE70121201DFFF74AFC0546E5B9EC
:105770005B4A536D23F03803A16F0B43536508E078
:10578000012104F12400FFF7C1FC0546EFE70126E3
:105790003546236813F0020F16D0636F052B27D808
:1057A000DFE803F00A051F0A0A0A2E46F1E7012185
:1057B000201DFFF725FC0546EDB9494A536D23F03E
:1057C0000703616F0B435365236813F0040F22D066
:1057D000D4F89030052B43D8DFE803F0140F3B14C6
:1057E0001414012104F12400FFF790FC0546E3E7BF
:1057F00001263546E8E72E46E6E70121201DFFF7A2
:10580000FFFB05467DBB364A936D23F00703D4F8B2
:1058100090100B439365236813F0200F33D0D4F816
:105820008C30B3F1005F4CD022D83BB1B3F1805F34
:105830001BD10021201DFFF7E3FB0546002D47D1BA
:10584000274A536D23F0E043D4F88C100B43536583
:1058500019E0012104F12400FFF758FC0546D1E7C7
:1058600001263546D7E72E46D5E7012635460AE01C
:10587000B3F1804FE2D0B3F1A04FDFD0B3F1405F7E
:10588000DCD001263546236813F0400F37D0D4F81A
:105890009830B3F5006F52D026D83BB1B3F5806F86
:1058A00018D10021201DFFF7ABFB0546002D4DD17F
:1058B0000B4A936D23F4E053D4F898100B4393658F
:1058C0001DE0022104F12400FFF720FC0546B5E7A6
:1058D0002E46D8E70126354611E000BF00480258A1
:1058E00000440258CFFFFF00B3F5805FDED0B3F570
:1058F000A05FDBD0B3F5406FD8D0012635462368D2
:1059000013F0800F32D0D4F89C30B3F5804F00F004
:105910009D8020D83BB1B3F5005F19D10021201D37
:10592000FFF76EFB0546002D40F09780A54A936D6A
:1059300023F46043D4F89C100B43936516E00221D6
:1059400004F12400FFF7E2FB0546AFE72E46D6E759
:10595000012635460AE0B3F5004FE4D0B3F5204FF9
:10596000E1D0B3F5C04FDED001263546236813F0F1
:10597000080F0CD0D4F88030B3F5805F6FD0914A17
:10598000536D23F44053D4F880100B4353652368C0
:1059900013F0100F0CD0D4F89430B3F5807F67D09B
:1059A000884A936D23F44073D4F894100B439365A5
:1059B000236813F4002F0BD0D4F8A030B3F5803F48
:1059C0006ED0B3F5003F61D0002B5AD0012635468A
:1059D000236813F4802F0CD0D4F88430B3F5001F63
:1059E00076D0B3F5401F69D0B3F5801F61D0012692
:1059F0003546236813F4803F07D0E36C002B70D04A
:105A0000B3F5803F7BD001263546236813F0005F55
:105A10007DD1236813F4003F00F08680E36FB3F577
:105A2000807F00F0C6807CD9B3F5007F03D0B3F54A
:105A3000407F40F0BC80002D40F0C180614A536D32
:105A400023F44073E16F0B4353656DE0022104F1D1
:105A50002400FFF75BFB054665E72E4686E702213B
:105A600004F12400FFF752FB002888D0012686E7C6
:105A7000022104F12400FFF749FB002890D0012601
:105A80008EE70021201DFFF7BBFA05467DB94D4A80
:105A9000936D23F44033D4F8A0100B43936597E73C
