:020000040800F2
:1000000000000220E19101084D4D01084F4D01080B
:10001000514D0108534D0108554D010800000000E5
:10002000000000000000000000000000574D010823
:100030005F4D010800000000614D0108694D010895
:100040003192010831920108319201083192010880
:100050003192010831920108A94D0108B34D010800
:10006000BD4D0108C74D0108D14D0108319201086D
:100070003192010831920108319201083192010850
:100080003192010831920108319201083192010840
:10009000319201083192010831920108DB4D0108CB
:1000A0003192010831920108319201083192010820
:1000B0003192010831920108319201083192010810
:1000C0003192010831920108319201083192010800
:1000D00031920108319201083192010831920108F0
:1000E000014E010831920108000000003192010820
:1000F00031920108319201083192010831920108D0
:1001000031920108319201083192010831920108BF
:1001100031920108319201083192010831920108AF
:10012000319201083192010831920108319201089F
:10013000319201083192010831920108319201088F
:1001400000000000000000000000000000000000AF
:10015000319201083192010831920108319201086F
:10016000319201083192010831920108319201085F
:10017000319201083192010831920108000000001B
:10018000319201083192010831920108319201083F
:10019000319201083192010831920108319201082F
:1001A000319201083192010831920108319201081F
:1001B000319201083192010831920108319201080F
:1001C00031920108319201083192010831920108FF
:1001D00031920108994D01083192010831920108CC
:1001E00031920108319201083192010831920108DF
:1001F00031920108319201083192010831920108CF
:1002000031920108319201083192010831920108BE
:1002100031920108319201083192010831920108AE
:10022000319201083192010831920108000000006A
:10023000319201083192010800000000319201085A
:10024000319201083192010831920108319201087E
:10025000319201083192010831920108319201086E
:10026000319201083192010831920108319201085E
:10027000319201083192010831920108000000001A
:10028000319201083192010831920108000000000A
:0802900000000000319201089A
:100298000000000000000000000000000000000056
:1002A8000000000000000000000000000000000046
:1002B8000000000000000000000000000000000036
:1002C8000000000000000000000000000000000026
:020000040801F1
:1002A00010B5054C237833B9044B13B10448AFF3B0
:1002B00000800123237010BDA80200200000000070
:1002C000589B010808B5034B1BB103490348AFF322
:1002D000008008BD00000000AC020020589B01080F
:1002E00010F8012B11F8013B012A28BF9A42F7D0E0
:1002F000D01A7047034613F8012B002AFBD1181AB5
:1003000001387047000000000000000000000000FD
:1003100001F0FF01102A2BDB10F0070F08D010F8B6
:10032000013B013A8B422DD010F0070F42B3F6D1BA
:10033000F0B441EA012141EA014122F007047FF0D3
:1003400000070023F0E80256083C85EA010586EA2A
:10035000010685FA47F5A3FA87F586FA47F6A5FA66
:1003600087F68EB9EED1F0BC01F0FF0102F0070272
:1003700032B110F8013B013A83EA010313B1F8D11D
:100380000020704701387047002D06BF35460338FE
:10039000073815F0010F07D1013015F4807F02BF37
:1003A000013015F4C03F0130F0BC0138704700BF88
:1003B00080F0004002E000BF81F0004142001FBF1A
:1003C0005FEA410392EA030F7FEA226C7FEA236C23
:1003D0006AD04FEA1262D2EB1363C1BFD218414018
:1003E00048404140B8BF5B42192B88BF704710F0AE
:1003F000004F40F4000020F07F4018BF404211F051
:10040000004F41F4000121F07F4118BF494292EAB8
:10041000030F3FD0A2F1010241FA03FC10EB0C00E4
:10042000C3F1200301FA03F100F0004302D5494271
:1004300060EB4000B0F5000F13D3B0F1807F06D31E
:1004400040084FEA310102F10102FE2A51D2B1F116
:10045000004F40EBC25008BF20F0010040EA03000B
:100460007047490040EB0000013A28BFB0F5000F8B
:10047000EDD2B0FA80FCACF1080CB2EB0C0200FA41
:100480000CF0AABF00EBC25052421843BCBFD04090
:100490001843704792F0000F81F4000106BF80F40A
:1004A00000000132013BB5E74FEA41037FEA226CCD
:1004B00018BF7FEA236C21D092EA030F04D092F098
:1004C000000F08BF0846704790EA010F1CBF0020CC
:1004D000704712F07F4F04D1400028BF40F0004029
:1004E000704712F100723CBF00F50000704700F049
:1004F000004343F0FE4040F4000070477FEA226270
:1005000016BF08467FEA23630146420206BF5FEA40
:10051000412390EA010F40F4800070474FF0000340
:1005200004E000BF10F0004348BF40425FEA000C07
:1005300008BF704743F0964301464FF000001CE0AF
:1005400050EA010208BF70474FF000030AE000BF05
:1005500050EA010208BF704711F0004302D5404243
:1005600061EB41015FEA010C02BF844601460020B5
:1005700043F0B64308BFA3F18053A3F50003BCFAD0
:100580008CF2083AA3EBC25310DB01FA02FC63447D
:1005900000FA02FCC2F12002BCF1004F20FA02F284
:1005A00043EB020008BF20F00100704702F1200277
:1005B00001FA02FCC2F1200250EA4C0021FA02F2D8
:1005C00043EB020008BF20EADC70704753B94AB918
:1005D000002908BF00281CBF4FF0FF314FF0FF304B
:1005E00000F074B9ADF1080C6DE904CE00F006F826
:1005F000DDF804E0DDE9022304B070472DE9F0479F
:10060000089D04468E46002B4DD18A42944669D9F6
:10061000B2FA82F252B101FA02F3C2F1200120FAD9
:1006200001F10CFA02FC41EA030E94404FEA1C4827
:10063000210CBEFBF8F61FFA8CF708FB16E341EA23
:10064000034306FB07F199420AD91CEB030306F1A9
:10065000FF3080F01F81994240F21C81023E6344CA
:100660005B1AA4B2B3FBF8F008FB103344EA03446E
:1006700000FB07F7A7420AD91CEB040400F1FF3383
:1006800080F00A81A74240F207816444023840EAC0
:100690000640E41B00261DB1D4400023C5E90043F9
:1006A0003146BDE8F0878B4209D9002D00F0EF807C
:1006B0000026C5E9000130463146BDE8F087B3FAAF
:1006C00083F6002E4AD18B4202D3824200F2F98097
:1006D000841A61EB030301209E46002DE0D0C5E99A
:1006E000004EDDE702B9FFDEB2FA82F2002A40F0E6
:1006F0009280A1EB0C014FEA1C471FFA8CFE0126E9
:10070000200CB1FBF7F307FB131140EA01410EFB8C
:1007100003F0884208D91CEB010103F1FF3802D233
:10072000884200F2CB804346091AA4B2B1FBF7F02D
:1007300007FB101144EA01440EFB00FEA64508D950
:100740001CEB040400F1FF3102D2A64500F2BB808D
:100750000846A4EB0E0440EA03409CE7C6F12007DC
:10076000B34022FA07FC4CEA030C20FA07F401FA22
:1007700006F31C43F9404FEA1C4900FA06F3B1FBAB
:10078000F9F8200C1FFA8CFE09FB181140EA014110
:1007900008FB0EF0884202FA06F20BD91CEB0101AD
:1007A00008F1FF3A80F08880884240F28580A8F105
:1007B00002086144091AA4B2B1FBF9F009FB101157
:1007C00044EA014100FB0EFE8E4508D91CEB0101F5
:1007D00000F1FF346CD28E456AD90238614440EA98
:1007E0000840A0FB0294A1EB0E01A142C846A64618
:1007F00056D353D05DB1B3EB080261EB0E0101FAA1
:1008000007F722FA06F3F1401F43C5E900710026FD
:100810003146BDE8F087C2F12003D8400CFA02FC53
:1008200021FA03F3914001434FEA1C471FFA8CFE63
:10083000B3FBF7F007FB10360B0C43EA064300FB53
:100840000EF69E4204FA02F408D91CEB030300F1F1
:10085000FF382FD29E422DD9023863449B1B89B2A8
:10086000B3FBF7F607FB163341EA034106FB0EF331
:100870008B4208D91CEB010106F1FF3816D28B42DE
:1008800014D9023E6144C91A46EA004638E72E46AA
:10089000284605E70646E3E61846F8E64B45A9D2A2
:1008A000B9EB020864EB0C0E0138A3E74646EAE711
:1008B000204694E74046D1E7D0467BE7023B6144BF
:1008C00032E7304609E76444023842E7704700BF28
:1008D00008B549F6404001F037FC00F077F900F028
:1008E000B5F901F077FC08BD00B583B002AB03E9B0
:1008F0000300064B5B6833B102AA12E90300984774
:1009000003B05DF804FB0020FAE700BF40000020C0
:1009100000B583B002AB03E90300064BDB6833B1DB
:10092000BDF804109847012003B05DF804FB0020D7
:10093000FAE700BF4000002000B1FEE7704700006A
:1009400008B5024803F0D8F908BD00BFB09C010803
:1009500008B503F0BBF908B9012008BD0020FCE789
:1009600008B5FFF7F5FF08BD014B1870704700BFD1
:10097000C402002010B50E4B1A680E4B93E803001A
:10098000904703F0AFF8044620B90B4B02221A70CF
:10099000204610BD094803F0C7F9094802F06AF97A
:1009A000084803F0A9F9044B01221A70F0E700BFD0
:1009B0000000002008000020C50200206109010895
:1009C00051090108C49C010810B5114B5C68114B1A
:1009D000012293E80300A0470F4B1B78012B07D09F
:1009E0000B4B5C680B4B002293E80300A04710BD43
:1009F0000A4B93F900100A4803F07EF9094B197865
:100A0000094803F079F9094803F076F9E8E700BFEF
:100A10000000002008000020C5020020C4020020C1
:100A2000D89C010830030020F49C0108009D0108B7
:100A300070B50546134E7368134C012294E8030009
:100A400098470A21284601F05BFD7368002294E86C
:100A5000030098471421284601F052FD73680122D3
:100A600094E8030098471E21284601F049FD736869
:100A7000002294E8030098472821284601F040FD11
:100A800070BD00BF000000201000002038B5064DEA
:100A90006B68064C012294E8030098476B680022BB
:100AA00094E80300984738BD00000020180000209B
:100AB00010B582B000220023CDE9002301F0EAFE48
:100AC000CDE9000132220023DDE90001FFF77EFDC0
:100AD000134312D10F4BD3E90001DDE90023994202
:100AE00008BF904209D00C4A137883F001031370B9
:100AF000DDE90001074BC3E90001084B5C68084BC6
:100B0000054A127893E80300A047FFF7BFFF02B041
:100B100010BD00BFD0020020EC02002088000020A1
:100B20002800002038B5064D6B68064C012294E879
:100B3000030098476B68002294E80300984738BD8B
:100B4000000000202000002030B583B000220023E8
:100B5000CDE9002301F09EFECDE9000164220023CF
:100B6000DDE90001FFF732FD134312D1124BD3E947
:100B70000001DDE90023994208BF904209D00F4AE5
:100B8000137883F001031370DDE900010A4BC3E918
:100B900000010B4D094C0B4B227893E803006B6866
:100BA00098476D68084B227893E80300A847FFF741
:100BB000B9FF03B030BD00BFD8020020ED02002015
:100BC00088000020300000203800002010B5174CAD
:100BD0002268174B93E8030090472268154B93E86F
:100BE000030090472268144B93E803009047134C8E
:100BF0002268134B93E8030090472268114B93E857
:100C0000030090472268104B93E80300904700F0E0
:100C100099FD10F1040F04D0FFF7A6FEFFF7AAFE1E
:100C200010BD00F0F3FDFFF79FFEF7E788000020FE
:100C300028000020300000203800002000000020A4
:100C400010000020180000202000002010B582B005
:100C50004FF480740194194B009300231A464FF40B
:100C6000FA51174801F0E2FA164B18600194164B3E
:100C70000093012300224FF4FA51144801F0D6FAF0
:100C8000134B18600194134B0093022300224FF47E
:100C90007A71114801F0CAFA104B18604FF4806362
:100CA00001930F4B00930023012214210D4801F002
:100CB000BDFA0D4B186002B010BD00BFB10A0108AB
:100CC0001C9D0108C8020020310A0108249D01086A
:100CD000E8020020490B0108309D0108E4020020D1
:100CE000C9090108389D0108E002002007EE900ABA
:100CF000F8EE677A17EE900AC0F3C7507F38C0B29B
:100D0000704700008CB0654B98422FD0644B9842DE
:100D10003CD0644B984248D0634B984254D0634BCC
:100D2000984260D0624B98426CD0624B984278D027
:100D3000614B984200F08480604B984200F08F80B5
:100D40005F4B984200F09A805E4B98421CD103F5AD
:100D5000E053D3F8E02042F48062C3F8E020D3F8F7
:100D6000E03003F480630B930B9B0DE003F58843A5
:100D7000D3F8E02042F00102C3F8E020D3F8E030DD
:100D800003F001030193019B0CB0704703F580430E
:100D9000D3F8E02042F00202C3F8E020D3F8E030BC
:100DA00003F002030293029BEEE703F57053D3F8BE
:100DB000E02042F00402C3F8E020D3F8E03003F072
:100DC00004030393039BDFE703F56053D3F8E020AC
:100DD00042F00802C3F8E020D3F8E03003F0080343
:100DE0000493049BD0E703F55053D3F8E02042F07E
:100DF0001002C3F8E020D3F8E03003F010030593AD
:100E0000059BC1E703F54053D3F8E02042F02002F0
:100E1000C3F8E020D3F8E03003F020030693069BEC
:100E2000B2E703F53053D3F8E02042F04002C3F8B4
:100E3000E020D3F8E03003F040030793079BA3E7DB
:100E400003F52053D3F8E02042F08002C3F8E020FD
:100E5000D3F8E03003F080030893089B94E703F590
:100E60001053D3F8E02042F48072C3F8E020D3F8A6
:100E7000E03003F480730993099B85E703F5005381
:100E8000D3F8E02042F40072C3F8E020D3F8E03059
:100E900003F400730A930A9B76E700BF0000025830
:100EA0000004025800080258000C025800100258B2
:100EB0000014025800180258001C02580020025862
:100EC000002402580028025808B505F05EFF08BD4E
:100ED00008B505F053FF003818BF012008BD30B534
:100EE00089B06B4683E80300B8B10446FFF70AFFF8
:100EF000BDF80410039101250495022305930323F3
:100F000006939DF80620204605F03FFF03A92046E2
:100F100005F07CFD284609B030BD0020FBE700B598
:100F200083B002AB03E90300BDF80430202B17D8CF
:100F30001AB2002A45D0013B1F2B42D8DFE803F04C
:100F4000454741394141413B414141414141413D99
:100F50004141414141414141414141414141413F83
:100F6000B3F5806F35D00BD9B3F5005F37D018D902
:100F7000B3F5804F37D0B3F5004F22D128200DE0D4
:100F8000B3F5807F27D004D9B3F5007F19D117209E
:100F900004E0402B21D0802B13D1172003B05DF843
:100FA00004FBB3F5006F1CD0B3F5805F09D1282096
:100FB000F4E70820F2E70920F0E70A20EEE717201F
:100FC000ECE70120FFF7B8FCE8E70620E6E707209A
:100FD000E4E72820E2E71720E0E71720DEE72820F3
:100FE000DCE72820DAE72820D8E700002DE9F041E7
:100FF00088B06B4683E8030090B315460446FFF7BC
:1010000081FEBDF8046003964FF4041304934FF07F
:101010000008CDF81480032706979DF80620314676
:10102000204605F0B2FE03A9204605F0EFFC30464D
:10103000FFF75CFE0B4B43F820506C4694E803002E
:10104000FFF76DFF4246394604F0FAF894E80300D2
:10105000FFF765FF04F02AF9012008B0BDE8F08130
:101060000020FAE7F002002008B5FFF73FFE034B2F
:1010700053F8203003B1984708BD00BFF0020020AC
:101080008CB0654B98422FD0644B98423CD0644B57
:10109000984248D0634B984254D0634B984260D0FA
:1010A000624B98426CD0624B984278D0614B984228
:1010B00000F08480604B984200F08F805F4B984234
:1010C00000F09A805E4B98421CD103F5E053D3F8B0
:1010D000E02042F48062C3F8E020D3F8E03003F46B
:1010E00080630B930B9B0DE003F58843D3F8E0205E
:1010F00042F00102C3F8E020D3F8E03003F001032E
:101100000193019B0CB0704703F58043D3F8E020B6
:1011100042F00202C3F8E020D3F8E03003F002030B
:101120000293029BEEE703F57053D3F8E02042F000
:101130000402C3F8E020D3F8E03003F00403039383
:10114000039BDFE703F56053D3F8E02042F0080289
:10115000C3F8E020D3F8E03003F008030493049BC5
:10116000D0E703F55053D3F8E02042F01002C3F863
:10117000E020D3F8E03003F010030593059BC1E7AE
:1011800003F54053D3F8E02042F02002C3F8E020FA
:10119000D3F8E03003F020030693069BB2E703F593
:1011A0003053D3F8E02042F04002C3F8E020D3F8F7
:1011B000E03003F040030793079BA3E703F52053B8
:1011C000D3F8E02042F08002C3F8E020D3F8E0300A
:1011D00003F080030893089B94E703F51053D3F8BA
:1011E000E02042F48072C3F8E020D3F8E03003F44A
:1011F00080730993099B85E703F50053D3F8E0203A
:1012000042F40072C3F8E020D3F8E03003F4007336
:101210000A930A9B76E700BF0000025800040258B8
:1012200000080258000C025800100258001402581E
:1012300000180258001C02580020025800240258CE
:101240000028025810B1C16101207047002070478A
:1012500010B582B0BDF81040009406F089F810B1C6
:10126000002002B010BD0120FBE708B506F090FA9F
:1012700008B1002008BD0120FCE708B505F016FF05
:1012800008B1002008BD0120FCE7000084B008B5CB
:101290000DF1080C8CE80F00099B2A4A934210D0EC
:1012A000294A934225D0294A93422AD0284A934278
:1012B0002FD0284A934234D0274A934239D0002075
:1012C00013E0264AD2F8F03023F48053C2F8F0300D
:1012D0000599029805F0AAFC0699039805F0A6FC6A
:1012E0000799049805F0A2FC0120BDE8084004B06D
:1012F00070471A4AD2F8E83023F48043C2F8E83045
:10130000E6E7164AD2F8E83023F40043C2F8E830A2
:10131000DEE7124AD2F8F03023F40053C2F8F0307E
:10132000D6E70E4AD2F8F03023F48013C2F8F0303A
:10133000CEE702F50C32D2F8F43023F02003C2F8E5
:10134000F430C5E70030014000380040003C004068
:10135000003401400050014000140058004402587D
:1013600084B030B587B00AAC84E80F000DF1040CEE
:10137000174C0FCCACE80F002368CCF800300A9D66
:101380002846FFF77DFE0D9B0193109C059401A953
:10139000284605F03BFB0B9D2846FFF771FE0E9B90
:1013A0000193059401A9284605F030FB0C9D2846C1
:1013B000FFF766FE0F9B0193059401A9284605F0EF
:1013C00025FB012007B0BDE8304004B0704700BFE6
:1013D000409D010884B010B5ACB02EAC84E80F007D
:1013E000359C524B9C4210D0514B9C4250D0514B9B
:1013F0009C425BD0504B9C4266D0504B9C4271D07B
:101400004F4B9C427CD000203DE04E4BD3F8F02067
:1014100042F48052C3F8F020D3F8F03003F4805344
:101420000493049B32AB93E807008DE807002EABD2
:101430000FCBFFF795FF0A944FF480030B93002323
:101440000C9307220D92369A0E92379A0F924FF014
:1014500080621092389A11921293139314931593F9
:1014600016931793189319931A931B931C931D9318
:101470001E934FF000421F9220930AA805F062FDD0
:1014800000284CD000202CB0BDE8104004B07047BC
:101490002C4BD3F8E82042F48042C3F8E820D3F87C
:1014A000E83003F480430593059BBBE7254BD3F855
:1014B000E82042F40042C3F8E820D3F8E83003F40F
:1014C00000430693069BADE71E4BD3F8F02042F491
:1014D0000052C3F8F020D3F8F03003F40053079320
:1014E000079B9FE7174BD3F8F02042F48012C3F814
:1014F000F020D3F8F03003F480130893089B91E7B1
:1015000003F50C33D3F8F42042F02002C3F8F420A2
:10151000D3F8F43003F020030993099B82E7882273
:101520000AA9399807F0AAFE0120ACE70030014073
:1015300000380040003C00400034014000500140B1
:10154000001400580044025870B582B00023ADF872
:101550000430ADF80030D8B1164604460368CBB16C
:101560004368CBB161F07F018DF80410036800205F
:10157000984763680222694601A898470546236890
:10158000012098479DF801303370284602B070BDA5
:101590000025FAE70025F8E70025F6E730B583B027
:1015A0000023ADF80430ADF80030B8B1044603684C
:1015B000B3B14368B3B18DF804108DF8052003680A
:1015C0000020984763680222694601A898470546AB
:1015D000236801209847284603B030BD0025FAE76C
:1015E0000025F8E70025F6E7016042608360704758
:1015F00010B582B000238DF8073080B104464368EF
:1016000053B1036843B180226B21FFF7C7FF48B98C
:10161000022384F8A23002E0012384F8A2300020E3
:1016200002B010BDA3680F2098470DF10702752185
:101630002046FFF789FF0028F7D1022384F8A23063
:10164000EDE790F8A2007047012303737047007B19
:10165000704700207047034690F8A22032B9007B03
:1016600028B101225A7300221A7370470020704774
:1016700070B50446084691F8A2208AB94A7B7AB12F
:1016800000224A7301F10E054A2632462946583097
:1016900007F0F4FD32462946204607F0EFFD05E04D
:1016A0004A2200F15801204607F0E8FD204670BDAF
:1016B00000B583B002AB03E90300064B5B683BB1A6
:1016C00002AA12E903009847012003B05DF804FB69
:1016D0000020FAE74000002000B583B002AB03E928
:1016E0000300064BDB6833B1BDF8041098470120B6
:1016F00003B05DF804FB0020FAE700BF40000020C3
:1017000008B50246034BDB684FF400410248984796
:1017100008BD00BF400000200008025810B582B08C
:101720001346054A14694FF47A7200920A4601463C
:101730000248A04702B010BD50000020D80300208E
:101740007047000070B588B0234B5A68234B93E86C
:1017500003009047002833D01F4B1C68204B214AC0
:1017600093E80300A04700282DD01F4E34461F4D9C
:101770000FCD0FC495E8070084E807001C4B1D68D7
:101780001C4B1D4A1D491E48A8471E4B1D681E4B79
:101790000793EC460FCCACE80F0094E807008CE808
:1017A000070096E80F00A84780B1114B5B6814480A
:1017B000984770B14FF08052B262002008B070BDFF
:1017C0004FF0FF30FAE76FF00100F7E76FF002002B
:1017D000F4E76FF00300F1E740000020709D01087E
:1017E000789D01084117010890000020549D0108D0
:1017F00068000020ED2801081D17010801170108E5
:101800003403002050000020D803002008B5034B0B
:10181000DB690348984740B208BD00BF680000205C
:101820003403002003690A6902610B6170478C462A
:1018300051B1096941B10161DCF80C10C160CCF80B
:1018400004308CF8002001E00021C1600270436088
:10185000002383607047034620B100201861986020
:10186000D86070476FF00100704738B504460D46E8
:10187000FFF7F1FF00B9256138BD08B5C3681BB19A
:101880008068FFF7FAFF08BD8160C860FBE708B514
:101890000346C06810B1FFF7FAFF08BDD9608B603E
:1018A000FBE738B543687BB104460D46006958B183
:1018B000096949B1984738B12A69824205D0E06880
:1018C00040B12946FFF7EDFF38BD29462046FFF716
:1018D000A9FFF4E7E560AC600023EB60F4E70028C3
:1018E00018BF002913D008B543684B6003780B700C
:1018F000012B06D0022B07D003B108BDFFF7BDFFB7
:10190000FBE7FFF7C4FFF8E7FFF7CBFFF5E770470A
:1019100028B32DE9F0410D4617461C4680460E1EA1
:1019200018BF0126002B14BF002306F001030BB1E2
:101930000169A847D8F80C0020B123463A46294649
:10194000FFF7E6FF012C14BF002606F001064EB19A
:101950003A46D8F810104046A847002003E06FF040
:10196000010070470020BDE8F0810000012383F3EF
:101970001388BFF34F8F0549CA6802F4E062044B35
:101980001343CB60BFF34F8F00BFFDE700ED00E0D6
:101990000400FA05194B00E01B681A688242FBD369
:1019A000002B2AD05A681A4482420BD0426800EBBE
:1019B000020C19688C450BD01A68026098421CD042
:1019C000186070475A6841680A445A601846EDE743
:1019D00010B41C680A4909688C420CD0196849681F
:1019E0000A4442601A6812680260984200D0186087
:1019F0005DF8044B70470160F7E77047640400200E
:101A000060040020F8B50F4C4FF4803222600026AD
:101A10006660012767610C4D3146284607F03CFCA3
:101A20000A4B1D605E600A4B0A4A13604FF6F8725B
:101A3000E2602B604FF6F073E3606B60A36084F8A4
:101A40002070F8BD6C040020000000246404002015
:101A5000F8FF00246004002070B5044672B62A4BDB
:101A600093F8203093B1002C43D00834A3B214F083
:101A7000030F03D023F0030304339BB21D46224A15
:101A80009268934239D8214A146807E0FFF7BAFFF9
:101A90001D4B1E4A1A61E6E722461C4663689D42BA
:101AA00002D92368002BF7D104F07F41184B9942EB
:101AB00025D1184B1B68A34223D013498B690133EE
:101AC0008B61166808362368136063685B1B082BFC
:101AD00009D80D4B9A68521B9A605A682A445A607A
:101AE0000023236006E0601943606560FFF752FF42
:101AF000EFE7002662B6304670BD0026FAE7002602
:101B0000F8E70026F6E700BF6C040020640400201C
:101B1000000000246004002010B542784FEAD20E85
:101B200002F00702094B19784FF0010C0CFA0EF481
:101B30002143C9B21970734459780CFA02F20A436E
:101B4000D2B25A7080F800C010BD00BFDC05002082
:101B500030B590F801E04FEADE020EF007040B4BBF
:101B600093F800C04FF0010E0EFA02F54CEA050C96
:101B70005FFA8CFC83F800C013445A780EFA04FE16
:101B800042EA0E02D2B25A70017030BDC405002084
:101B9000407800F0070C0D4B03EBD0035A7801217D
:101BA00001FA0CF122EA01025A70597861B900B5C4
:101BB0004FEAD00E05490B78012202FA0EF223EA11
:101BC00002030B705DF804FB704700BFDC050020CA
:101BD000407800F0070C0D4B03EBD0035A7801213D
:101BE00001FA0CF122EA01025A70597861B900B584
:101BF0004FEAD00E05490B78012202FA0EF223EAD1
:101C000002030B705DF804FB704700BFD005002095
:101C1000FEE70000144B1B781BB3134B1A78D2B2AB
:101C200012498A5C13445B78DBB2CB5C03EBC200E5
:101C30000F4951F8200000B1704710B50A4991F8DA
:101C400000E04FF0010C0CFA02F42EEA040E81F8C9
:101C500000E00A4451780CFA03F321EA03035370BD
:101C600010BD0020704700BFDC050020A09D0108CA
:101C7000AC040020144B1B781BB3134B1A78D2B260
:101C800012498A5C13445B78DBB2CB5C03EBC20085
:101C90000F4951F8200000B1704710B50A4991F87A
:101CA00000E04FF0010C0CFA02F42EEA040E81F869
:101CB00000E00A4451780CFA03F321EA030353705D
:101CC00010BD0020704700BFD0050020A09D010876
:101CD000AC04002082B002464078C3088DF807307B
:101CE0004B784FEAD30C8DF806C000F007008DF852
:101CF000050003F007038DF80430B2FA82F35B09A4
:101D0000B1FA81F0400903427DD100290CBF0023C4
:101D100003F0010333B10B78043BDBB2012B75D91F
:101D2000084671E0002A0CBF002000F0010030B12D
:101D30001378043BDBB2012B6AD9104664E09DF8AE
:101D40000700C0B29DF80630DBB298420BD2137880
:101D5000043BDBB2012B5DD80B78043BDBB2012BDB
:101D60005AD9084650E09DF80700C0B29DF80630E9
:101D7000DBB298420BD90B78043BDBB2012B4DD878
:101D80001378043BDBB2012B4AD910463CE09DF8A6
:101D90000700C0B29DF80630DBB2984234D19DF8FE
:101DA0000500C0B29DF80430DBB298420BD2137824
:101DB000043BDBB2012B35D80B78043BDBB2012BA3
:101DC00032D9084620E09DF80500C0B29DF80430E5
:101DD000DBB298420BD90B78043BDBB2012B25D840
:101DE0001378043BDBB2012B22D910460CE00B78B0
:101DF000043BDBB2012B1DD81378043BDBB2012B73
:101E00001AD9104600E0002002B070470020FBE71E
:101E10000020F9E71046F7E70020F5E70846F3E76A
:101E20000020F1E71046EFE70020EDE70846EBE77A
:101E30000020E9E70846E7E70020E5E738B5044673
:101E40000025457045608560858105614562856234
:101E50000023836305634563143000F0C9FC2570DB
:101E600038BD0000C9B110B50C460D4B1B78DBB274
:101E7000022B01D0002010BD0B78032B18BF012BC3
:101E800001D0052BF6D16069A16900F023FD00287F
:101E9000F0D02046FFF740FEECE70020704700BF7F
:101EA000F005002010B582B000220023CDE9002308
:101EB0000D4B1B6801221A7000F0E6FCDDE90023DF
:101EC000994208BF904201D102B010BD00F0DCFC85
:101ED000CDE90001054CD4E90023501C43F1000179
:101EE000C4E90001F0E700BF9C040020E8050020E1
:101EF00010B50446C26B92000021406C07F0CCF98B
:101F000004F14403E16B6FF040420A4403EB8203A7
:101F100023F007034FF0807243F8042C084A22F0A4
:101F2000010243F8082C074A43F80C2C002243F81E
:101F3000202C6FF0020243F8242C443B236410BD94
:101F4000C9240108111C010810B55020FFF784FDB9
:101F50000E4B1860B0B104460D4B436080234370B4
:101F60000C4B03614FF48073C3634FF48060FFF741
:101F700073FD6064054B1868436C2BB1FFF7B8FF25
:101F8000012010BD0020FCE70020FAE79C0400209F
:101F9000989D0108A51E010870B52DED028B82B039
:101FA0000446684600F024FC2378012B03D002B0DD
:101FB000BDEC028B70BD0023A3642046FFF7E8FD53
:101FC000304B1C60A36A4BB92F4B1B68A34205D052
:101FD00000F05AFCE06121626061A1612369002B7D
:101FE0003CD00222227020469847274B1B68A34210
:101FF000DDD0A36A0133A362A16C236B626B5B1813
:1020000042F10002236362636269A369E069216AA5
:1020100000F0F3FBCDE90001A08900F051FC606104
:10202000A161266B656BDDE90001FEF789FA08EE18
:10203000100A30462946FEF783FA07EE100AC7EE6B
:10204000087AC4ED0E7A9FED117A67EE877AC4EDB7
:102050000E7AA56A2DB903232370A8E70323237002
:10206000A5E700F023FCFEF76BFA06EE900A07EEF8
:10207000905AF8EE677A87EEA67ABCEEC77A84EDBE
:10208000097AE8E7900400209C0400200000C84280
:10209000074B19680868B0E8F04F1EF0100F08BF32
:1020A000B0EC108A80F30988BFF36F8F704700BFD0
:1020B0009404002000000000000000000000000068
:1020C000EFF30980BFF36F8FDFF850301A681EF00E
:1020D000100F08BF20ED108A20E9F04F10602DE9A5
:1020E00009004FF0300080F31188BFF34F8FBFF32A
:1020F0006F8F00F015F84FF0000080F3118809BCD5
:1021000019680868B0E8F04F1EF0100F08BFB0EC77
:10211000108A80F30988BFF36F8F70479404002002
:10212000054B064A92E8030083E80300044B1A6853
:10213000044B1A60704700BF94040020A4040020E0
:10214000A0040020900400202DE9F041804600F01A
:10215000ADFA0028FBD0002718E0194D04EBC706A4
:1021600005EB8600FFF76AFE55F826200023D363AF
:1021700055F82620536455F82620136445F8263078
:102180000134E4B2072CE8D90137FFB2072F01D898
:102190000024F7E70B4B00221A705A611A61DA60CB
:1021A000094B1868FFF74AFE084B1868FFF746FE10
:1021B000404600F0BFFA064B01221A70BDE8F081DC
:1021C000AC040020AC05002090040020A0040020F6
:1021D000F005002010B5FFF71DFD0F4B186050B142
:1021E00000F140020D4B1A60426C5A600C4A93E8B1
:1021F000030082E8030002240A4B1C70FFF7A4FED0
:1022000000F06CFA0849204600F078FA00F0E0FA95
:1022100000F054FA10BD00BFA0040020A404002068
:1022200094040020F0050020E92301082DE9F8437B
:1022300017461C4603EBC202564B53F8223023B11B
:102240004FF000084046BDE8F88306460D46502092
:10225000FFF702FC04EBC7034E4A42F823000028B4
:1022600000F08E80804646601646994652F823302C
:102270009D604949B1FBF5F552F829309D8152F82E
:102280002930089A1A6156F8293044EAC7025A7070
:1022900056F82930099ADA6356F82950900080B22E
:1022A000FFF7DAFB686456F82900436C002B6AD00C
:1022B000FFF71EFE35464E4655F829304FF000090F
:1022C000C3F8489055F8263000229A6355F8263016
:1022D000C3F83090C3F83490304B197855F8260085
:1022E00090F801C0012202FA0CF241EAE201C9B2FF
:1022F000197003EBDC03597802F007020A435A70A5
:10230000C0F8249055F82600143000F071FA55F802
:1023100026001C3000F06CFA55F82630C3F82890DF
:1023200055F8263083F82C9055F82600FFF7F4FB7B
:1023300055F826901420FFF78FFBC9F84C0055F88C
:102340002610C86C10B3FFF790FA154B1B786BB9C9
:1023500055F82610134B0222C96C1348FFF767FA91
:102360000F4A13780133DBB213706BE704EBC70439
:10237000084B53F82430D96C0B48FFF7B0FAEFE75D
:102380004FF000085EE74FF000085BE74FF00008F1
:1023900058E700BFAC04002040420F00DC050020DD
:1023A000AC050020D51C0108B005002010B590F840
:1023B00001C04FEADC020CF0070E0A4B19784FF00F
:1023C000010C0CFA02F42143C9B2197013445A7873
:1023D0000CFA0EFC42EA0C02D2B25A7006230370C9
:1023E00010BD00BFD005002030B583B0CDE900019D
:1023F0002E4B1B7833BBFFF70DFC0446FFF73AFC6E
:1024000001462046FFF766FC294D2968FFF762FC6C
:1024100004462B68834230D090B10378062B18D045
:10242000234B186838B1234B1B68984203D00378BC
:10243000DBB2022B13D02378043BDBB2012B11D883
:1024400003B030BD00236A461B491C48FFF760FA01
:10245000D1E7FFF7BDFB2046FFF75EFBE0E7FFF7A4
:10246000A5FFE8E7164B1C6004F14002154B1A600B
:10247000626C5A6000F03AF9E2E798B12378052BD4
:1024800001D0042BDCD10B4B1B6801221A700C4AC3
:10249000136003F140010B4A11605B6C536000F064
:1024A00025F9CDE7002BE9D1EDE700BFAC05002011
:1024B000900400209C040020651E0108B005002047
:1024C000A0040020A404002008B503E000F0DCF91B
:1024D000FFF78AFF074B18680028FBD0FFF75CFD69
:1024E000054B1A68054B1B689A42EFD0024B00223D
:1024F0001A60EBE7A0040020900400209C04002058
:1025000010B504464FF47A7303FB01F14369826905
:102510005B1842F1000243618261FFF739FB05213C
:102520002046FFF715FBFFF775FB50B10B4A106013
:1025300000F140010A4A1160436C536000F0D6F884
:1025400010BD084B1B68054A13601A46012102F8AA
:10255000401B03490A605B6C4B60EFE7A00400205E
:10256000A40400209C04002000B5CDB04C22002122
:1025700039A806F091FE2022002131A806F08CFE39
:10258000BC22002102A806F087FE022004F012FC03
:1025900000230193434B9A6942F440429A619B693C
:1025A00003F440430193404BDA6A42F00102DA62DD
:1025B000DB6A03F001030193019B3A4B9B6913F41F
:1025C000005FFAD0092339934FF480333A93012303
:1025D0003E930223429343930522449280224592E4
:1025E0004693082347934893499300234A934B9378
:1025F00039A802F07DFE18B100204DB05DF804FB53
:102600002223399301233C9340223D923F930023A0
:10261000429339A802F06CFE08B10020EDE73F2399
:1026200031930323329300233393082334934023BD
:10263000359336934FF4806237923893022131A854
:1026400003F08AFA08B10020D7E741F203030293AE
:1026500019230B93F0230C9304230D9303230E9360
:1026600002230F9300231093119312934FF40052FF
:1026700019921F93209302A803F0E6FC80B94FF053
:10268000E023D3F8202D42F47002C3F8202DD3F8B4
:10269000202D42F07042C3F8202D62B60120ACE735
:1026A0000020AAE7004802580004005808B572B696
:1026B00002F05AFDFFF758FF08BD0000002080F32C
:1026C000098805480068006880F3088800DFBFF3C8
:1026D0006F8F00BF7047000008ED00E002484FF028
:1026E000FF0101707047000022ED00E002484FF04A
:1026F000805101607047000004ED00E0012808D01F
:1027000002280AD008B100207047064B99610120C9
:102710007047044BD96101207047024B19620120B8
:10272000704700BFF4050020014B1869704700BFD7
:10273000F405002010B549F64043984210D042F20B
:102740001073984232D041F28833984230D0B0F5BD
:10275000FA6F2FD0B0F57A7F2ED049F6404100E0D5
:102760000146164C002284F82420154BB3FBF1F3EC
:102770002361606102F0C4FB6269124B1B68B3FB0A
:10278000F2F3013BB3F1807F0AD24FF0E0225361B4
:102790000D4BF02183F8231000239361072313616D
:1027A00003F0E0F8094B1860012010BD0146D8E79E
:1027B0000146D6E70146D4E70146D2E7F4050020FA
:1027C00040420F003002002000ED00E0280600200B
:1027D00008B5064B012283F8242000221A605A60B3
:1027E0009B6913B100200021984708BDF405002023
:1027F00000220023C0E900237047824273EB010CE2
:1028000003D2801A61EB03017047101A63EB0101D8
:102810007047000070B51A4B93F82430012B0ED08E
:10282000184BD3E90023134328D0164CD4E90023D6
:10283000501E43F1FF31C4E9000100201FE0104C9D
:10284000002384F825302669236865689E1945F1C0
:102850000005266065604FF47A72002330462946F1
:10286000FDF7B4FEA060E160012384F82530236AFF
:1028700013B1304629469847012000E0002070BD82
:10288000F405002020060020014B186859687047A5
:10289000F405002008B504494FF47A720023086853
:1028A0004968FDF793FE08BDF405002008B5FFF761
:1028B000F1FF4FF47A720023FDF788FE08BD000097
:1028C000034A13685168C01841F10001704700BF06
:1028D000F4050020044B1A685B6882428B4101D2E8
:1028E0000020704701207047F4050020084B1B6949
:1028F0004FF47A71B1FBF3F100FB01F200230549BB
:10290000C1E90023034BD3E900231343FAD17047F5
:10291000F40500202006002002460378302B05D065
:10292000302B0AD0302B0FD0002010E041785829EE
:1029300018BF7829F4D1032009E05178422918BF43
:102940006229EFD1012002E0022000E01A4613467E
:1029500013F8011B39B152782E2AF7D15A78002A80
:10296000F4D004207047704703463038C0B20928BD
:1029700010D9A3F16102D2B2052A07D9A3F141020D
:10298000D2B2052A05D8373BD8B27047573BD8B2E8
:102990007047002070470000034640785C2800D054
:1029A00070479878302837D0FAD37428F8D862283E
:1029B000F6D3A0F16203122BF2D801A252F823F051
:1029C0000D2A0108A1290108A1290108A12901084E
:1029D000A1290108A1290108A1290108A1290108AB
:1029E000A1290108A1290108A1290108A12901089B
:1029F000112A0108A1290108A1290108A12901081A
:102A00001D2A0108A1290108152A0108082070477C
:102A10000A20704709207047002070470D20BFE74B
:102A200070B506460378222B02D03546002409E013
:102A30000136FAE7681EFFF7AFFF30550135013563
:102A40000134A4B22B7843B15C2BF3D0222B01D0FC
:102A50003355F4E700233355F1E73355304670BD65
:102A60002DE9F843064603782D2B18D04FF00109C5
:102A700000203044FFF750FF0746022816D00328F5
:102A800018D001280FD000234FF00A08B9F1FF3FFA
:102A900014D0002213441E440024234612E04FF0B9
:102AA000FF390120E5E702239846EFE701234FF0C5
:102AB0000808EBE702234FF01008E7E70122E9E7F7
:102AC00001360124307858B12E28F9D003FB08F5DF
:102AD000FFF74AFF2B1804EB840464000136F1E78A
:102AE000042F14BF00270127002C08BF00279FB127
:102AF00007EE903AF8EE677A07EE104AB8EE477A9A
:102B0000C7EE876A07EE909AF8EEE77A67EEA67A44
:102B100017EE900ABDE8F88303FB09F0FAE710B559
:102B200004460023826D013100F0A7FD20B101466B
:102B3000204600F061FE10BD0020FCE708B50B78D0
:102B4000272B0BD0A3F13002D2B22D2B18BF092AAC
:102B50000BD9242B0DD093B9002008BD4A78002A48
:102B6000F0D00846FFF718FFF7E70846FFF778FFB1
:102B7000F3E74A78002AEED0FFF7D1FFEDE70846E9
:102B8000FFF74EFFE9E72DE9F0478CB0064689468E
:102B900015461F462022002104A806F07DFB99F867
:102BA000028008F00F08A84501DA05F1FF3800247B
:102BB0000CE004F1010A57F82A103046FFF7BEFF77
:102BC0000CAB03EB840444F8200C544605F1FF3CA5
:102BD000A445EEDCB8F1070F49D8DFE808F0040A95
:102BE0000F151C242E3AD9F8083098470CB0BDE8D0
:102BF000F087D9F8083004989847F7E7D9F80830F3
:102C0000059904989847F1E7D9F80830069A05998C
:102C100004989847EAE7D9F80840079B069A05996F
:102C20000498A047E2E7D9F80840089B0093079B67
:102C3000069A05990498A047D8E7D9F80840099B57
:102C40000193089B0093079B069A05990498A04757
:102C5000CCE7D9F808400A9B0293099B0193089B93
:102C60000093079B069A05990498A047BEE74FF08A
:102C7000FF30BBE708B5044B98664FF40072034978
:102C8000184600F033FD08BD2C06002098060020F1
:102C90000023042B0BDC1946054A52F8232012B1FD
:102CA00001331BB2F5E7024B43F821007047704730
:102CB000A40800200246002002E01354013080B234
:102CC0000B5C002BF9D1135470478446002318463F
:102CD0001CF803207AB110B4CC5C4CB1A24207D1ED
:102CE000013080B201339BB21CF80320002AF3D1DB
:102CF0005DF8044B70477047437803F00F03012BD6
:102D000005D9072B05D9082B05D8C0687047C068BE
:102D10007047C0687047C068704730B5002306E050
:102D20001A1D00EB82020021516001331BB2072BF8
:102D3000F6DD0021C1860B4601250DE002699E46A5
:102D4000D41812F803C0BCF1220F14D0B5B92478FE
:102D50005C2C22D001339BB282899A4224D900296B
:102D6000ECD10469E25C202A18BF002AE6D10022D7
:102D7000E2540125EEE781F00101E7E7C58E072D5A
:102D800009D805F1010CA0F836C0043500EB850523
:102D90006C600025DBE70025D9E772445278002AF1
:102DA000D8D001339BB2D5E730BD10B5044600231F
:102DB000A0F85430B0F850305BB1B0F8523053B393
:102DC000013B0E3304EB830321695868FDF788FA51
:102DD00000B3B4F852300E3304EB83032169586812
:102DE000FFF768FF20B1B4F852300133A4F8523035
:102DF000B4F8503001339BB2A4F85030052B02D9FF
:102E00000523A4F85030B4F85230042B02D9002323
:102E1000A4F8523010BD0423D3E770B50546002452
:102E20000AE000211170221D05EB82025168013178
:102E300051600CE00134A4B2EB8EA34216D92346B4
:102E4000221D05EB8202526811782229E9D0043351
:102E500005EB83035E683046FDF74CFA83B2013B15
:102E6000F25C222AE6D10022F254E3E770BD0000B2
:102E7000002301E001331BB2042B0ADC064A52F89E
:102E800023000028F6D090F8602012F0020FF1D055
:102E900000E00020704700BFA408002000B583B008
:102EA0008DF80710836E01210DF10700984703B0DC
:102EB0005DF804FB08B5C3898289934200D308BD3D
:102EC0000269591CC181D15CFFF7E8FFF7E7C389AC
:102ED00003B9704710B504460821FFF7DFFFE38907
:102EE000013BE38110BD38B5856E35B10C4608460F
:102EF000FDF700FA81B22046A847002038BD000047
:102F000010B504460160886850B1037853B1E38E70
:102F1000012B18D9A169FDF7E3F9B0B1002202E055
:102F2000012200E0012294F8603062F3000384F88B
:102F3000603009492046FFF7D6FF94F8603013F05F
:102F4000010F04D110BD0022EDE70122EBE7034998
:102F50002046FFF7C8FFF5E7A09E0108AC9E0108D8
:102F600010B5044690F8603013F0010F19D091B9F4
:102F7000236859682046FFF7B6FF0C492046FFF743
:102F8000B2FFA16859B12046FFF7ADFF08492046BE
:102F9000FFF7A9FF10BD0749FFF7A5FFE8E70649BE
:102FA000F1E70649FFF79FFFF4E700BF549F0108D0
:102FB000589F0108B09F0108509F01085C9F0108BD
:102FC00010B50446036899680069FDF789F968B986
:102FD00094F8603043F0010384F8603006492046DD
:102FE000FFF781FF0023A381E38110BD0349204641
:102FF000FFF779FFF6E700BFAC9E0108789F010854
:1030000008B5FFF735FF10B10149FFF76CFF08BDA8
:10301000A09E01080B7843B14A7802F00F02082AFB
:1030200003D00268127813420DD090F8603013F08C
:10303000010F0BD14B7813F0100F01D00020704717
:103040004FF0FF3070474FF0FF307047002070475F
:1030500000230B72082304E03032013BDBB2CA5478
:10306000000928B100F00F02092AF5D95732F4E718
:10307000C3F1080040B27047002304E00E4A30213B
:10308000D1540133DBB2082BF8D9437803F00F0396
:10309000012B05D9072B05D9082B05D840687047A7
:1030A000406870474068704710B5034C214640683F
:1030B000FFF7CEFF204610BD9808002010B4041E74
:1030C00004DB22460023CB720B2011E06242F9E7B9
:1030D000114B83FB023CD317C3EBAC039C4603EBC1
:1030E0008303A2EB43030138C0B230330B54624672
:1030F000002AEDD1002C0ADB1CB90138C0B2302304
:103100000B54C0F10B0040B25DF8044B704701381E
:10311000C0B22D230B54EFE76766666670B584B0C6
:1031200004460E46184B01AD93E8070085E80700FA
:1031300016492046FFF7D7FE29463046FFF7BEFF67
:10314000C0F10B0129442046FFF7CDFE104920466F
:10315000FFF7C9FE002307E004AA1A444FF0300C21
:1031600002F80CCC01331BB20A2BF5DD01A9304665
:10317000FFF76EFF01A92046FFF7B5FE054920467F
:10318000FFF7B1FE04B070BDA09F01088C9F01083D
:10319000989F0108B09F010870B505460E46084685
:1031A000FFF76AFF01462846FFF79DFEC0F11604AF
:1031B00024B2002C17DD2D212846FFF76FFE013CBD
:1031C00024B2002CF7D1737803F00F03012B0CD934
:1031D000072B0FD9082B12D9092B15D80D492846D2
:1031E000FFF781FE05E00424E5E70B492846FFF7D9
:1031F0007AFE70BD09492846FFF775FEF9E70849D0
:103200002846FFF770FEF4E706492846FFF76BFEF5
:10321000EFE700BFC09F0108AC9F0108B49F010801
:10322000B89F0108C49F0108F8B50646876D0F498D
:10323000FFF759FE002401E0013424B2B6F85C30F7
:103240009C4211DA07EB04156B7803F00F03012B96
:10325000F2D829463046FFF7DDFE0028ECD129469A
:103260003046FFF799FFE7E7F8BD00BFCC9F0108A4
:1032700008B5FFF7FDFD08B1FFF7D6FF08BD000058
:10328000F8B50646876D1049FFF72DFE002401E0D2
:10329000013424B2B6F85C309C4214DA07EB041512
:1032A0006B7803F00F030E3303F00F03052BEFD8F9
:1032B00029463046FFF7AEFE0028E9D129463046C0
:1032C000FFF76AFFE4E7F8BDE09F010808B5FFF7E4
:1032D000CFFD08B1FFF7D4FF08BD0000F8B50646E2
:1032E000876D0F49FFF7FFFD002401E0013424B290
:1032F000B6F85C309C4211DA07EB04156B7803F0EA
:103300000F03082BF2D129463046FFF783FE002831
:10331000ECD129463046FFF73FFFE7E7F8BD00BF95
:10332000F09F010808B5FFF7A3FD08B1FFF7D6FF2E
:1033300008BD0000F8B50646876D0F49FFF7D3FDBD
:10334000002401E0013424B2B6F85C309C4211DA6A
:1033500007EB04156B7803F00F03092BF2D1294614
:103360003046FFF757FE0028ECD129463046FFF7DC
:1033700013FFE7E7F8BD00BF00A0010808B5FFF79D
:1033800077FD08B1FFF7D6FF08BD08B5FFF74CFF82
:1033900008BD000038B5054604E005492846FFF79A
:1033A000A2FD21464B1EDCB20029F6D138BD00BF7C
:1033B00010A0010838B505468489C389E41A24B2EF
:1033C00005E020212846FFF769FD013C24B2002CCE
:1033D000F7DC297B2846FFF7DDFF38BD10B5044632
:1033E000002919DDB0F95420531EA0F85430B0F86C
:1033F0005230B0F850108B4238BF0B4659428A42C7
:1034000001DCA4F854102046FFF7D4FFB4F954307F
:1034100083B9A381E38110BD0029FCDAB0F95430EF
:1034200001331BB2A0F85430002BECDD0023A0F8D0
:103430005430F0E7B4F8522005321A440C4981FBAD
:103440000231D317C3EB610303EB8303D31A0E33AB
:1034500004EB830359682069FFF72CFCA081002846
:10346000D9D0E08121692046FFF73DFDD3E700BFB9
:103470006766666608B50121FFF7B0FF08BD08B5AD
:103480004FF0FF31FFF7AAFF08BD00002DE9F84F0C
:103490000546B0F834A0838943B102694FF00008B3
:1034A00002F80380876D4446C14624E0FFF76DFFB4
:1034B00001212846FFF754FD5EE007EB081841465E
:1034C0002846FFF769FE4046FFF7D6FD80463046A6
:1034D000FFF7D2FD01464046FFF7F7FB824528BFC4
:1034E00082461FFA8AFA1FFA84F809F101091FFAC5
:1034F00089F9013424B2B5F85C309C421EDA07EB3E
:10350000041631462846FFF785FD0028F1D1D5F88D
:1035100010B03046FFF7B0FD01465846FFF7D5FB27
:10352000AB899842E5D1B9F1000FDCD0B9F1010FB8
:10353000C3D11A492846FFF7D6FCBEE7B9F1000F00
:103540001AD0B9F1010F19D02C6907EB08173846CA
:10355000FFF792FD01462046FFF7ACFBA881B9F1C9
:10356000010F0FD82A69AB890021D154AB89EB81B7
:1035700029692846FFF7B7FCBDE8F88F2846FFF712
:1035800019FFE1E739462846FFF706FE01212846E4
:10359000FFF7E6FCA5F80CA0E4E700BFB09F010828
:1035A00038B50446B1F1FF3F14BF00230123C2899F
:1035B0000AB9012955D0A089824203D0824205D0A0
:1035C0001BB219E0B1F1FF3FF8D14AE00129F7D170
:1035D000013AE281431E9BB2A38122690021D154AA
:1035E00001212046FFF7D6FE3BE020691A44551E14
:1035F000825C425501331BB2A089E289851AAB4235
:10360000F3DB0138A081B1F1FF3F06D12269A38924
:103610000021D154B4F90E500DE0013AE2810821A5
:103620002046FFF73BFCF1E72369595D2046FFF791
:1036300035FC01352DB2A3899D42F5DB20212046C2
:10364000FFF72CFCA589E389ED1AADB201352DB247
:1036500005E008212046FFF721FC013D2DB2002D99
:10366000F7DC38BD08B50121FFF79AFF08BD08B5A2
:103670004FF0FF31FFF794FF08BD2DE9F04780467A
:103680008A4617469946B0F85C60836DD31AC3F337
:103690000F13F31A9EB2002406E04A46504605F086
:1036A00003FE00B30134A4B2B4421BD207EB0415ED
:1036B00095F801C00CF00F0CBCF1090FF2D02946AF
:1036C0004046FFF7A7FC0028ECD12846FFF7D4FCC2
:1036D0000146B9F1000FE0D15046FCF701FE002889
:1036E000E0D100E000252846BDE8F08710B504468B
:1036F00000238381C381A0F85430A0F85030A0F893
:103700005230036090F8600040F0010084F86000DF
:1037100021611648A0FB022C4FEA9C0CA4F834C08F
:1037200009E003FB0CC0084403F10E0204EB820223
:10373000506001331BB2042BF3DD0D4AA2650D4B23
:103740009B1A1B09A4F85C302046FFF7A1FA00235E
:10375000A26D09492046FFF790FF01462046FFF77A
:10376000CFFB01212046FFF7FBFB10BDABAAAAAAA5
:10377000709B0108B09C010814A0010870B50446B4
:103780000D46FFF775FB20B10646012C02D0012C37
:1037900003DC70BDFFF7F9FDFBE70023826D69686C
:1037A000FFF76BFF0446D8B110493046FFF79BFB8B
:1037B0002046FFF761FC01463046FFF794FB0C4DB5
:1037C00029463046FFF78FFB2046FFF795FA014662
:1037D0003046FFF788FB29463046FFF784FBD8E7E1
:1037E00004493046FFF77FFBD3E700BF24A0010860
:1037F000B09F010838A0010808B54B7803F00F030B
:10380000023B052B16D8DFE803F003060A0D0D0F67
:103810008B68186808BD8B68B3F90000FAE78B68FD
:103820001878F7E78868F5E78A68536823B1106865
:103830009847EFE70020EDE70020EBE770B584B094
:1038400004460D46274B93E8070004AB03E9070045
:1038500029462046FFF7D0FF064669682046FFF755
:1038600042FB21492046FFF73EFB6B7803F00F0334
:10387000052B10D001A93046FFF720FCC0F10B0149
:1038800001AB19442046FFF72EFB18492046FFF7ED
:103890002AFB002315E0164D29462046FFF723FB9F
:1038A00031462046FFF71FFB29462046FFF71BFB4A
:1038B00011E004AA1A444FF0300C02F80CCC01338A
:1038C0001BB20A2BF5DD01A93046FFF7C1FB01A9A8
:1038D0002046FFF708FB07492046FFF704FB304668
:1038E00004B070BDA09F01084CA00108989F01087A
:1038F00050A00108B09F010870B505460C464B78F2
:1039000013F0400F0AD14B7803F00F03023B052B55
:1039100007D8DFE803F00B0E1114191D1249FFF749
:10392000E2FA21462846FFF789FF70BDA3681A60B6
:10393000F7E7A3681A80F4E7A3681A70F1E7114665
:10394000A068FFF7B7F9ECE70849FFF7CCFAE8E71A
:10395000A3689E68002EE4D0186810B11146B047E5
:10396000DFE71046B047DCE754A0010870A001086B
:1039700070B504460D46FFF77BFA20B306460023D8
:10398000826D2146FFF779FE014660B1437803F06E
:103990000F030E3303F00F03052B0AD82A463046D7
:1039A000FFF7AAFF70BD09493046FFF79CFA0020D7
:1039B000F8E721463046FFF796FA05493046FFF70B
:1039C00092FA0020EEE70020ECE700BF84A0010897
:1039D00094A0010870B504460D4690F8603043F09D
:1039E000020380F860304B7813F00F0314D0012BE2
:1039F00023D04A7802F00F020E3202F00F02052A9D
:103A00002AD9082B2CD0002694F860306FF341039C
:103A100084F86030304670BDFFF7FFF9AB6804F101
:103A20001401E08E984706466B7813F0200FEBD117
:103A300001462046FFF772FBE6E700F11403C28E51
:103A4000FFF7A1F806466B7813F0200FDCD1014692
:103A50002046FFF763FBD7E7FFF7F0FE0026D3E72A
:103A6000FFF74EFA0026CFE783895BB310B5044613
:103A700002690021D15490F8603013F0010F1ED07C
:103A8000FFF793F92046FFF748F90023E381A3816C
:103A9000E38EB3B10C492046FFF725FA0023A26D4F
:103AA00061692046FFF7E9FD014618B12046FFF79E
:103AB00091FF06E005492046FFF715FA01E0FFF700
:103AC0007FFA10BD704700BFB09F010838A0010801
:103AD00010B50446FFF7C8FF01212046FFF740FA62
:103AE00010BD000008B500220F49104800F08AFA06
:103AF00008B1002008BD0E490C4800F09FFA08B13B
:103B00000020F7E70B49094801F0D8F808B1002078
:103B1000F0E7064800F0A6FA08B10020EAE703F053
:103B200073F90120E6E700BFBC000020B8080020C0
:103B3000200100200C01002012230B800048704758
:103B4000D800002004230B8000487047EC000020C0
:103B5000002393421ED200B510E00CF1370C01F89F
:103B600013C000014FEA430C0CF1010C4FF0000EA2
:103B700001F80CE00133DBB2934209D24FEA107C2A
:103B8000B0F1204FE9D20CF1300C01F813C0E8E796
:103B90005DF804FB7047000038B50B4BD3F8000804
:103BA000D3F80448D3F80838C01800D138BD074D01
:103BB0000822A91CFFF7CCFF042205F112012046C0
:103BC000FFF7C6FFF2E700BF00E0F11FF0000020A2
:103BD00008B51A230B80FFF7DFFF014808BD00BFBF
:103BE000F000002008B50A4628B90549054800F04C
:103BF0009EFE034808BD0249024800F098FEF8E71F
:103C0000880B0020C8A1010810B50A46034C2146C4
:103C1000034800F08CFE204610BD00BF880B00203A
:103C2000D0A1010808B50A4628B90549054800F0A1
:103C30007EFE034808BD0249024800F078FEF8E71E
:103C4000880B0020D8A1010808B50A4628B9054903
:103C5000054800F06CFE034808BD0249024800F028
:103C600066FEF8E7880B0020E4A1010800207047F9
:103C7000002070470020704738B50446074B1B688A
:103C80000BB109889847064D2146284601F025F8D2
:103C9000284601F042F8002038BD00BF881F0020F0
:103CA000B808002010B5064C00220649204601F055
:103CB0000CF80549204601F010F8002010BD00BFA7
:103CC000B808002088170020880F0020094BD3F87F
:103CD000BC32D3F814320BB10120704710B5054C3B
:103CE0000A460146204600F0F0FF204600F0FBFFA8
:103CF00010BD00BFB80800200FB410B582B004ABEF
:103D000053F8042B0193074C4FF40061204605F053
:103D10000BFB81B22046FFF7D9FF02B0BDE810408F
:103D200004B0704788170020014B1860704700BF2F
:103D3000881F002030B5B7B0044600213191329180
:103D4000339134913591BC2202A805F0A5FA22687E
:103D5000204B9A4201D037B030BD4FF480230293FC
:103D60004FF44013239302A802F06EF90028F2D119
:103D700003F04AF8184CD4F8E03043F00103C4F8DB
:103D8000E030D4F8E03003F001030093009B4FF4DF
:103D9000C0533193022332930025339534950A237F
:103DA000359331A90D4802F031FED4F8D83043F0F4
:103DB0000063C4F8D830D4F8D83003F0006301931E
:103DC000019B2A460321652001F03AFA652001F0A3
:103DD0006DFAC0E700000840004402580000025895
:103DE00008B500F57171D0F8040400F050F908BD71
:103DF00008B5C1EBC10300EB8303D3F80822D0F868
:103E0000040400F070F908BD08B5C1EBC10300EB74
:103E100083039A6CD0F8040400F09EF908BD08B53D
:103E2000D0F8040400F034FA08BD10B50446C368A5
:103E30005BB1022B08D10121D4F8040400F011FA7F
:103E4000D4F8040400F0E4F910BD0021F4E7000008
:103E500010B50446D0F8040400F006FA2268D2F83F
:103E6000003E43F00103C2F8003E236A23B1034A37
:103E7000136943F00603136110BD00BF00ED00E0BD
:103E800008B5D0F8040400F0F8F908BD08B5D0F87A
:103E9000040400F00DFA08BD08B5D0F8040400F0E1
:103EA00005FA08BD08B5D0F8040400F003FA08BD0F
:103EB00008B5D0F8040400F0FFF908BD02780AB193
:103EC0000020704710B503461448C0F80434C3F806
:103ED000C402134B0360092343600222C260002323
:103EE00003618261C361036243628362C3620363ED
:103EF00003F012FE00B110BD084C8021204604F0F2
:103F000066FB40220021204604F03BFB8022012179
:103F1000204604F036FB0020EDE700BF8C1F002098
:103F200000000840D0F8C43211F0800F08D101F031
:103F30007F01C1EBC10103EB810191F8FE017047E4
:103F400001F07F01C1EBC10103EB810191F83E005B
:103F5000704708B5D0F8C40204F05CFA08BD000050
:103F600000487047942300207047032805D8DFE8F5
:103F700000F005040205012070470320704708B5D2
:103F8000D0F8C40203F066FEFFF7EFFF08BD08B5E6
:103F900094461A466346D0F8C40204F08EF9FFF73F
:103FA000E4FF08BD08B5D0F8C40204F0CBF9FFF770
:103FB000DCFF08BD08B5D0F8C40204F063FAFFF7CF
:103FC000D4FF08BD08B5D0F8C40204F09FFAFFF78B
:103FD000CCFF08BD08B5D0F8C40204F05AF9FFF7C9
:103FE000C4FF08BD08B5D0F8C40204F01CFAFFF7FE
:103FF000BCFF08BD08B5D0F8C40204F0DCF9FFF737
:10400000B4FF08BDC0B108B50346D0F8B80210B17E
:104010000020C3F8B802D3F8CC0210B10020C3F8D6
:10402000CC0209B1C3F8B412012183F89C121A70B2
:104030001846FFF743FF08BD0320704710B582B054
:104040000023ADF8063059B10446C0F8B8128B6AA7
:104050000DF106009847C4F8CC02002002B010BD54
:104060000320FBE708B5FFF78AFF08BD08B5D0F8C5
:10407000B83213B11B68984708BD0320FCE708B5A8
:10408000D0F8B8320BB15B689847002008BD38B54E
:10409000044600F2AA25284600F02EF90123C4F8B0
:1040A0009432B4F8B032C4F8983294F8AA1201F0FD
:1040B0001F03012B0DD0022B10D02BB101F080017A
:1040C0002046FFF777FF03E02946204600F0CEFAAE
:1040D00038BD2946204600F001FBF9E72946204675
:1040E00000F030FBF4E738B504460D4631BB13460B
:1040F000D0F89422032A01D0084638BDD0F85C11CC
:10410000D0F8602191420CD8D0F8B8321B691BB1AD
:1041100090F89C22032A0FD0204600F051FC28463C
:10412000EBE7891AC0F85C118A4228BF0A46194693
:1041300000F03EFC2846E0E79847EDE7D0F8B832BB
:104140009B692BB190F89C22032A03D19847D4E7AE
:104150000320D2E70320D0E738B504460D460029F6
:1041600048D11346D0F89422022A05D094F8A03200
:10417000012B3AD0284638BDC269016A8A4211D85B
:104180008A421BD0D4F8B832DB681BB194F89C2269
:10419000032A27D080212046FFF70CFF204600F09D
:1041A0001AFCE3E7521AC261194600F0EAFB002349
:1041B0001A4619462046FFF71DFFD7E78369994243
:1041C000E0D8D0F898229342DCD20022114600F0C9
:1041D000D8FB0021C4F898120B460A462046FFF788
:1041E00009FFC3E720469847D4E7002384F8A032AC
:1041F0002846C0E7D0F8B8325B692BB190F89C2212
:10420000032A03D19847B6E70320B4E70320B2E7B7
:1042100070B50446012380F89C320023C0F8943224
:104220004360C0F8A432D0F8BC3223B1D0F8B83221
:104230005B68002198474023002211462046FFF783
:10424000A6FE0126A4F864614025C4F860512B46FF
:10425000002280212046FFF79AFEA68425620020D6
:1042600070BD01740020704790F89C3280F89D3238
:10427000042380F89C320020704790F89C32042B75
:1042800001D00020704790F89D3280F89C32F8E70A
:1042900008B590F89C32032B01D0002008BDD0F85F
:1042A000B832DB69002BF8D09847F6E7002070475A
:1042B000002070470020704708B5012380F89C3229
:1042C000D0F8B83213B15B6801799847002008BD77
:1042D0000346002002E00130C0B201331A78002A00
:1042E000F9D1704708B54B88012B00D008BDC0F844
:1042F000A43200F065FBF9E70B7803704B7843704C
:104300008B78CA7843EA022343800B794A7943EADF
:10431000022383808B79CA7943EA0223C3807047E2
:1043200010B504468021FFF745FE00212046FFF727
:1043300041FE10BD30B583B004460D460023ADF8F4
:1043400006304A88130A013B062B00F2AB80DFE8F7
:1043500003F0041F33A9A98D9A00D0F8B4321B686A
:104360000DF10601007C9847EA88002A00F0A3803E
:10437000BDF80630002B00F099809A4228BF1A46FB
:10438000ADF806200146204600F0EEFA03B030BD3D
:10439000037C43B9D0F8B8329B6A0DF10600984708
:1043A00002234370E0E7D0F8B832DB6A0DF1060073
:1043B000984702234370D7E7D2B2052A52D8DFE8E4
:1043C00002F003101D2A3744D0F8B4325B6823B1E1
:1043D0000DF10601007C9847C6E72946FFF7A0FFCC
:1043E000D4E7D0F8B4329B6823B10DF10601007C0C
:1043F0009847B9E72946FFF793FFC7E7D0F8B432EB
:10440000DB6823B10DF10601007C9847ACE7294633
:10441000FFF786FFBAE7D0F8B4321B6923B10DF17C
:104420000601007C98479FE72946FFF779FFADE733
:10443000D0F8B4325B6923B10DF10601007C9847D6
:1044400092E72946FFF76CFFA0E7D0F8B4329B69EA
:1044500023B10DF10601007C984785E72946FFF757
:104460005FFF93E72946FFF75BFF8FE7037C33B9D4
:10447000D0F8B8325B6B0DF10600984774E7294617
:10448000FFF74EFF82E7037C43B9D0F8B8321B6BCD
:104490000DF1060098470723437065E72946FFF7AB
:1044A0003FFF73E72946FFF73BFF6FE729462046AA
:1044B000FFF736FF6AE7204600F082FA66E738B574
:1044C00004468B88F3B9CB88E3B94B887F2B19D886
:1044D00003F07F0590F89C32032B0CD080F89E529D
:1044E0002946FFF777FD204600F06AFA35B102232E
:1044F00084F89C3209E0FFF713FF06E0012384F8FB
:104500009C3202E02046FFF70BFF38BD70B5044631
:104510000E468D782D4B1D70012D0FD890F89C32D2
:10452000022B0FD0032B23D0FFF7FAFE274B19786D
:104530002046FFF7A4FD0325284670BDFFF7F0FED7
:104540000325F9E78DB145602946FFF78FFD054644
:1045500020B131462046FFF7E3FEEDE7204600F0AC
:104560002FFA032384F89C32E6E700F029FAE3E708
:10457000CDB141688D4225D0C9B2FFF780FD134B04
:10458000197861602046FFF771FD0546B0B13146EC
:104590002046FFF7C5FE21792046FFF770FD022374
:1045A00084F89C32C8E7022380F89C324560294693
:1045B000FFF765FD204600F003FABDE7204600F056
:1045C000FFF9B9E700F0FCF90025B5E7B4250020B4
:1045D00008B5CB88012B0AD190F89C32022B09D95F
:1045E000032B09D10122011D00F0BEF901E0FFF704
:1045F00097FE08BD5BB213B9FFF792FEF9E70146DB
:10460000002341F8083F012200F0AEF9F1E708B5B8
:1046100090F89C32013B022B12D8CB88022B0CD194
:104620000123C360D0F8A4320BB10323C36002227C
:1046300000F10C0100F098F908BDFFF771FEFBE7EF
:10464000FFF76EFEF8E708B590F89C32013B022BAD
:1046500009D84B88012B00D008BD0023C0F8A43234
:1046600000F0AEF9F8E7FFF75BFEF5E738B50C7838
:1046700004F06004202C06D0402C04D054B1FFF785
:104680004FFE002404E0D0F8B8329B6898470446F7
:10469000204638BD4D78092D1DD8DFE805F01219E8
:1046A0001C161C08051C0F0BFFF744FEF0E7FFF774
:1046B00006FFEDE7FFF72AFF0446E9E7FFF788FF6B
:1046C000E6E7FFF7A4FF2C46E2E7FFF70BFEDFE784
:1046D000FFF7B9FFDCE7FFF723FED9E770B5054622
:1046E0000C460B7803F06003202B07D0402B05D03D
:1046F00023B1FFF715FE0026304670BD95F89C32B9
:10470000013B022B18D82379012B0FD8D5F8B832EA
:104710009B682146284698470646E388002BEBD144
:104720000028E9D1284600F04BF9E5E72146284664
:10473000FFF7F6FD0026DFE721462846FFF7F0FDEC
:104740000026D9E7F8B506460D468B880C7804F0AC
:104750006004202C08D0D9B2402C05D06CB1294679
:10476000FFF7DEFD002406E0D6F8B8329B68294644
:104770003046984704462046F8BD6F78012F2FD069
:10478000032F05D0002F57D02946FFF7C9FDF2E7C8
:1047900090F89C32022B05D0032B12D02946FFF74C
:1047A000BFFDE8E7002918BF802906D0FFF702FC0B
:1047B00080213046FFF7FEFBDDE72946FFF7B0FD1D
:1047C000D9E76B882BB9002918BF802901D0EB8865
:1047D0001BB1304600F0F4F8CDE7FFF7EBFBF8E74C
:1047E00090F89C32022B05D0032B12D02946FFF7FC
:1047F00097FDC0E7002918BF802906D0FFF7DAFB34
:1048000080213046FFF7D6FBB5E72946FFF788FD44
:10481000B1E76B88002BAED111F07F0F09D1304684
:1048200000F0CEF8D6F8B8329B6829463046984753
:10483000A1E7FFF7C7FBF2E790F89C22022A06D017
:10484000032A2AD02946FFF76BFD3C4693E700294F
:1048500018BF802913D113F0800F15D101F07F010B
:1048600001EB8101890001F5A871014404310023A5
:104870000B600222304600F077F83C467BE7294681
:10488000FFF74EFD3C4676E701F07F0101EB810129
:104890008900103101440431E9E75BB2002B20DBD1
:1048A00001F00F0202EB820200EB8202B2F86421F7
:1048B0002AB3002B28DB01F07F0303EB83039C006A
:1048C00004F5A87434440434802918BF002924D185
:1048D0000023236002222146304600F045F83C4682
:1048E00049E701F00F0202EB820200EB8202928C98
:1048F000002ADED12946FFF713FD3C463BE7294657
:10490000FFF70EFD3C4636E701F07F0303EB830320
:104910009C00103434440434D6E73046FFF702FBE1
:1049200010B101232360D5E700232360D2E7D0B183
:1049300070B50D4616460446FFF7CAFC431C5B00E3
:104940009BB233802B7003236B70022307E0EA5481
:1049500001345A1CD2B20021A9540233DBB22278AE
:10496000002AF4D170BD704708B513460222C0F882
:1049700094228361C3610A460021FFF733FB0020C4
:1049800008BD08B513460A460021FFF72BFB00209F
:1049900008BD08B513460322C0F89422C0F8583168
:1049A000C0F85C310A460021FFF724FB002008BD57
:1049B00008B513460A460021FFF71CFB002008BD7E
:1049C00008B50423C0F8943200231A461946FFF7AD
:1049D00009FB002008BD08B50523C0F89432002368
:1049E0001A461946FFF706FB002008BD10B5D0F89F
:1049F000BC42D0F8C0325BB194F80002FF2807D067
:104A00009B6894F8012221469847FF2384F80032DE
:104A1000002010BD43230380004870475801002048
:104A200043230380004870479C01002043230380F8
:104A300000487047EC0100200A23038000487047BB
:104A4000E001002038B5D0F8BC5275B10446FFF73C
:104A500080FAC5F80C02D4F8C032DB6805F50371A2
:104A6000D5F804029847002038BD0320FCE738B58C
:104A7000D0F8C442D0F8BC324BB301EB810200EB5A
:104A8000820292694AB1C1EBC10504EB8504646CF2
:104A9000B2FBF4F504FB15226AB10024C3F81442FA
:104AA000D0F8C02215690A4603F50471D3F808024C
:104AB000A847204638BD01EB810300EB83030024A7
:104AC0009C6123462246FFF78DFA2046F2E7032039
:104AD000F0E7F0B583B006460C46D0F8BC72002370
:104AE0008DF80730ADF804300B7813F0600527D04F
:104AF000202D58D1CA88DAB113F0800F0CD0D0F82D
:104B0000C0329B68394660789847E288394630461B
:104B1000FFF72AFF002549E04B7887F800328B79B0
:104B200087F80132CA883946FFF733FF00253DE098
:104B3000D0F8C0329B68002248789847002535E0BD
:104B40004F780B2F2BD8DFE807F006312A2A2A2AC4
:104B50002A2A2A2A142290F89C32032B03D0FFF72A
:104B6000DFFB032522E0022201A9FFF7FDFE3D46FF
:104B70001CE090F89C32032B03D0FFF7D1FB0325F8
:104B800014E001220DF10701FFF7EEFE0EE090F8B0
:104B90009C32032B0AD0FFF7C3FB032506E0FFF787
:104BA000BFFB032502E0FFF7BBFB0325284603B04C
:104BB000F0BD38B504468121FFF7F4F900252587BB
:104BC00001212046FFF7EEF9A4F878518221204612
:104BD000FFF7E8F9A4F84C50A4F84E50D4F8BC32D2
:104BE0004BB1D4F8C0325B689847D4F8BC02FFF7E9
:104BF000BBF9C4F8BC52002038BD70B504464FF470
:104C00000770FFF7ADF9B8B30646C4F8BC02237CC1
:104C1000BBBB4FF40073022281212046FFF7B7F996
:104C2000012525874FF40073022229462046FFF70D
:104C3000AEF9A4F878511023A4F84E3008230322CB
:104C400082212046FFF7A3F90123A4F84C30D4F8C1
:104C5000C0321B6898470023C6F81432C6F81832D1
:104C6000257C15BB4FF40073D6F8042201212046A1
:104C7000FFF7C0F9284670BD0023C4F8BC320225F6
:104C8000F8E74023022281212046FFF780F9012521
:104C900025874023022229462046FFF778F9A4F809
:104CA00078511023A4F84E30C8E74023D6F80422E8
:104CB00001212046FFF79EF90025DBE719B1C0F876
:104CC000C0120020704703207047D0F8BC32C3F8F0
:104CD0000812C3F8102200207047D0F8BC32C3F885
:104CE000041200207047D0F8BC22A2B108B5D2F857
:104CF00014320BB1012008BD0123C2F81432D2F8DE
:104D00001032C362D2F81032D2F808228121FFF7A4
:104D100069F90020EFE70320704710B5D0F8BC22F6
:104D200092B1047C44B94FF40073D2F804220121FB
:104D3000FFF760F9204610BD4023D2F8042201217C
:104D4000FFF758F90024F5E70324F3E7FEE7FEE751
:104D5000FEE7FEE7FEE708B5FDF79AF908BD7047E4
:104D600008B5FDF7ADF908BD08B5FDF753FD094BD2
:104D70001B68B3F57A7F05D3064B00221A6000F05A
:104D800021FA08BDFDF7D0FC024A13680344136002
:104D9000F7E700BFB825002008B5024803F01EF869
:104DA00008BD00BF8C1F002008B5012001F0F3FFF3
:104DB00008BD08B5022001F0EEFF08BD08B50420CB
:104DC00001F0E9FF08BD08B5082001F0E4FF08BDC7
:104DD00008B5102001F0DFFF08BD08B5202001F064
:104DE000DAFF402001F0D7FF802001F0D4FF4FF41C
:104DF000807001F0D0FF4FF4007001F0CCFF08BDCF
:104E000008B54FF4806001F0C6FF4FF4006001F078
:104E1000C2FF4FF4805001F0BEFF4FF4005001F08C
:104E2000BAFF4FF4804001F0B6FF4FF4004001F0AC
:104E3000B2FF08BD274AD2F8883043F47003C2F8A5
:104E40008830254B1B6803F00F03062B06D8224A37
:104E5000136823F00F0343F0070313601F4B1A6816
:104E600042F001021A6000221A6119681C4A0A40C5
:104E70001A60194B1B6813F0080F06D0164A136806
:104E800023F00F0343F007031360144B00229A61D1
:104E9000DA611A62134999621349D9621349196395
:104EA0005A639963DA6319645A64196821F480219A
:104EB00019601A660E4B1A680E4B1340B3F1005F6F
:104EC00003D20D4B0122C3F808210C4B43F2D2024E
:104ED0001A60704700ED00E00020005200440258C4
:104EE0007FEDF6EA000202020000FF0180020101EC
:104EF0000010005C0000FFFF0080005100400052E5
:104F000010B47A4B1B6903F03803182B00F2E580CC
:104F1000DFE813F01B00E300E300E300E300E3003D
:104F2000E300E3001900E300E300E300E300E30033
:104F3000E300E300EA00E300E300E300E300E30052
:104F4000E300E30037006A4A05E0684B1B68C3F3DF
:104F5000C103684ADA4065488369C3F3032366499D
:104F6000CB5CDA40836903F00F03CB5C03F01F03D3
:104F700022FA03F361490B60614B1A605DF8044B40
:104F800070475A49886A00F003008C6AC4F305121E
:104F9000CB6A03F0010C4B6BC3F3CC030CFB03F3A4
:104FA00007EE903AF8EE677A14F47C7FD3D00128AC
:104FB00059D0022874D018B34C480168C1F3C1011C
:104FC0004C4BCB4007EE103AF8EE476A07EE102A3A
:104FD000B8EE476A86EE867A036BC3F3080306EEE3
:104FE000903AF8EE666A9FED476A67EE867A76EE4B
:104FF000A77AF7EE006A77EEA67A27EE277A22E004
:1050000008460968C1F3C1013A4BCB4007EE103A9C
:10501000F8EE476A07EE102AB8EE476A86EE867AFF
:10502000036BC3F3080306EE903AF8EE666A9FED51
:10503000356A67EE867A76EEA77AF7EE006A77EE43
:10504000A67A27EE277A294B1B6BC3F3462301333D
:1050500007EE903AF8EE677AC7EE276AFCEEE67A3A
:1050600017EE902A77E707EE102AF8EE476A9FEDD1
:10507000266A86EE267A1D4B1B6BC3F3080306EEE9
:10508000903AF8EE666A9FED1F6A67EE867A76EED2
:10509000A77AF7EE006A77EEA67A27EE277AD2E7AC
:1050A00007EE102AF8EE476A9FED186A86EE267A18
:1050B0000E4B1B6BC3F3080306EE903AF8EE666ADC
:1050C0009FED106A67EE867A76EEA77AF7EE006AB1
:1050D00077EEA67A27EE277AB5E7044B1B68C3F371
:1050E000C103044ADA4036E7094A34E7004402586B
:1050F00000093D000090D003F4A101083402002013
:1051000030020020000000390024744A20BCBE4B4D
:1051100040787D0170470000104B1B780BB90120CF
:10512000704710B504464FF47A70B0FBF3F30C4AA5
:105130001068B0FBF3F000F0C7F868B90F2C01D984
:1051400001200AE0002221464FF0FF3000F078F8FD
:10515000044B1C60002000E0012010BD380200203C
:10516000300200203C02002010B5032000F056F869
:1051700000F0F8FB0F498B69C3F303230E4AD35C9D
:1051800003F01F03D8408B6903F00F03D35C03F0D7
:105190001F0320FA03F3094A1360094B186000202B
:1051A000FFF7BAFF10B10124204610BD0446FFF7F7
:1051B000B1FFF9E700440258F4A1010834020020CD
:1051C00030020020034B1B78034A11680B44136024
:1051D000704700BF38020020BC250020014B186832
:1051E000704700BFBC25002038B50446FFF7F6FF26
:1051F0000546B4F1FF3F02D0044B1B781C44FFF777
:10520000EDFF401BA042FAD338BD00BF380200209A
:10521000014B1868000C70470010005C0649CB6811
:1052200023F4E0631B041B0C000200F4E060034362
:10523000024A1A43CA60704700ED00E00000FA0518
:1052400000B5174BDB68C3F30223C3F1070CBCF1B5
:10525000040F28BF4FF0040C03F1040EBEF1060F3B
:1052600014D9033B4FF0FF3E0EFA0CFC21EA0C016F
:1052700099400EFA03F322EA03031943002807DBDF
:105280000901C9B2074B19545DF804FB0023E9E793
:1052900000F00F000901C9B2034B1954F4E700BF35
:1052A00000ED00E000E400E014ED00E0002807DB82
:1052B00000F01F02400901239340024A42F82030C7
:1052C000704700BF00E100E00138B0F1807F0BD2F1
:1052D0004FF0E0235861054AF02182F823100020A6
:1052E000986107221A6170470120704700ED00E0C5
:1052F000002800F0188338B50446036813F0010F46
:1053000025D0944A136903F03803926A102B15D004
:10531000182B0FD06368B3F5803F3FD0002B53D1DB
:105320008C4B1A6822F480321A601A6822F48022A8
:105330001A6038E002F00302022AEBD1854B1B68A9
:1053400013F4003F03D06368002B00F0EE82236863
:1053500013F0020F00F0A1807E4A1369926A13F0E5
:1053600038035AD0182B55D0E368002B00F0DE80AC
:1053700078490A6822F0190213430B60FFF72EFFE9
:105380000546744B1B6813F0040F40F0AD80FFF727
:1053900025FF401B0228F4D90320CDE26D4A136893
:1053A00043F48033136063682BB3FFF717FF0546A0
:1053B000684B1B6813F4003FC9D1FFF70FFF401B78
:1053C0006428F5D90320B7E2B3F5A02F09D0614BCB
:1053D0001A6822F480321A601A6822F480221A6055
:1053E000E1E75C4B1A6842F480221A601A6842F4C2
:1053F00080321A60D7E7FFF7F1FE0546554B1B6870
:1054000013F4003FA3D0FFF7E9FE401B6428F5D951
:10541000032091E212F0030FA6D14E4B1B6813F04C
:10542000040F03D0E368002B00F08182494A13681F
:1054300023F01903E1680B431360FFF7CFFE054625
:10544000444B1B6813F0040F06D1FFF7C7FE401B47
:105450000228F5D903206FE2FFF7DAFE41F20303D9
:10546000984212D82269402A07D03A494B6823F45F
:105470007C3343EA02334B600FE0364A536823F42F
:105480007C3343F40033536007E0324A536823F01F
:10549000FE43216943EA01635360236813F0100F50
:1054A00000F088802B4A136903F03803926A082BB6
:1054B00056D0182B50D0E369002B00F0B880254A55
:1054C000136843F080031360FFF788FE0546214B05
:1054D0001B6813F4807F40F08880FFF77FFE401B3D
:1054E0000228F4D9032027E2FFF792FE41F20303DA
:1054F000984212D82269402A07D016494B6823F4F3
:105500007C3343EA02334B60C7E7124A536823F403
:105510007C3343F400335360BFE70E4A536823F0F3
:10552000FE43216943EA01635360B6E7094A136801
:1055300023F001031360FFF751FE0546054B1B687E
:1055400013F0040FA9D0FFF749FE401B0228F5D93C
:105550000320F1E10044025802F00302012AAAD11B
:10556000A14B1B6813F4807F03D0E369802B40F0CC
:10557000E081FFF74DFE41F20303984212D8226A00
:10558000202A07D098494B6823F0F84343EA826306
:105590004B600FE0944A536823F0F84343F0804394
:1055A000536007E0904AD36823F07C53216A43EAB2
:1055B0000163D360236813F0080F60D06369002B88
:1055C00049D0894A536F43F001035367FFF706FE42
:1055D0000546854B5B6F13F0020F50D1FFF7FEFDC0
:1055E000401B0228F5D90320A6E1FFF711FE41F286
:1055F0000303984212D8226A202A07D07A494B68BE
:1056000023F0F84343EA82634B60D3E7764A53685A
:1056100023F0F84343F080435360CBE7724AD368EA
:1056200023F07C53216A43EA0163D360C2E76E4AE8
:10563000136823F080031360FFF7D0FD05466A4B23
:105640001B6813F4807FB5D0FFF7C8FD401B02280C
:10565000F5D9032070E1644A536F23F001035367C7
:10566000FFF7BCFD0546604B5B6F13F0020F06D0E1
:10567000FFF7B4FD401B0228F5D903205CE1236845
:1056800013F0200F29D0A3699BB1574A136843F444
:1056900080531360FFF7A2FD0546534B1B6813F4BC
:1056A000005F1AD1FFF79AFD401B0228F5D90320AD
:1056B00042E14D4A136823F480531360FFF78EFDD7
:1056C0000546494B1B6813F4005F06D0FFF786FDC3
:1056D000401B0228F5D903202EE1236813F0040FA4
:1056E00021D1636A002B00F026813F4A126902F043
:1056F0003802182A00F0EE80022B79D03A4A13685B
:1057000023F080731360FFF769FD0446364B1B6876
:1057100013F0007F00F0DC80FFF760FD001B022823
:10572000F4D9032008E1314A136843F4807313600D
:10573000FFF754FD05462D4B1B6813F4807F06D1FF
:10574000FFF74CFD401B6428F5D90320F4E0A36863
:10575000012B0AD00BBB244B1A6F22F001021A67EF
:105760001A6F22F004021A6704E01F4A136F43F015
:1057700001031367A36833B3FFF730FD05461A4BE7
:105780001B6F13F0020FACD1FFF728FD401B41F255
:1057900088339842F3D90320CEE0052B09D0124B71
:1057A0001A6F22F001021A671A6F22F004021A67B8
:1057B000E0E70D4B1A6F42F004021A671A6F42F0CD
:1057C00001021A67D6E7FFF709FD0546064B1B6F76
:1057D00013F0020F85D0FFF701FD401B41F2883323
:1057E0009842F3D90320A7E0004402580048025829
:1057F000594A136823F080731360FFF7EFFC0546E6
:10580000554B1B6813F0007F06D0FFF7E7FC401BE9
:105810000228F5D903208FE04F4B996A4F4A0A407E
:10582000A16AE06A41EA00110A439A62226B013AD6
:10583000C2F30802616B0139490289B20A43A16BC4
:105840000139090401F4FE010A43E16B013909063B
:1058500001F0FE410A431A63DA6A22F00102DA62B9
:10586000596B3F4A0A40A16C42EAC1025A63DA6AA4
:1058700022F00C02216C0A43DA62DA6A22F0020298
:10588000616C0A43DA62DA6A42F48032DA62DA6A16
:1058900042F40032DA62DA6A42F48022DA62DA6AC8
:1058A00042F00102DA621A6842F080721A60FFF771
:1058B00095FC0446284B1B6813F0007F06D1FFF7C8
:1058C0008DFC001B0228F5D9032035E0002033E0D1
:1058D000002031E0204A916A106B012B2DD001F09D
:1058E0000303A26A93422AD1C1F30511E36A9942E4
:1058F00027D1C0F30802236B013B9A4223D1C0F3A6
:105900004622636B013B9A421FD1C0F30642A36B50
:10591000013B9A421BD1C0F30660E36B013B984206
:1059200017D1002008E001207047012004E0012089
:1059300002E0012000E0002038BD0120FCE701204A
:10594000FAE70120F8E70120F6E70120F4E701205B
:10595000F2E70120F0E700BF004402580CFCFFFF13
:105960000700FFFF744B1B6903F03803102B00F096
:10597000DE80182B10D00BB1704870476E4B1B683F
:1059800013F0200F00F0D5806B4B1868C0F3C100F6
:105990006B4B23FA00F0704710B4674A916A01F02C
:1059A0000301946AC4F30510D36A03F0010C536B2E
:1059B000C3F3CC030CFB03F307EE903AF8EE677ADF
:1059C00014F47C7F00F09380012965D0022900F057
:1059D0009180E1B107EE100AF8EE476A9FED596A2F
:1059E00086EE267A544B1B6BC3F3080306EE903AFF
:1059F000F8EE666A9FED546A67EE867A76EEA77ACD
:105A0000F7EE006A77EEA67A27EE277A60E0136851
:105A100013F0200F23D011461268C2F3C102484B85
:105A2000D34007EE103AF8EE476A07EE100AB8EED8
:105A3000476A86EE867A0B6BC3F3080306EE903A4C
:105A4000F8EE666A9FED406A67EE867A76EEA77A90
:105A5000F7EE006A77EEA67A27EE277A38E007EEAF
:105A6000100AF8EE476A9FED396A86EE267A324BC5
:105A70001B6BC3F3080306EE903AF8EE666A9FEDDF
:105A8000326A67EE867A76EEA77AF7EE006A77EEEC
:105A9000A67A27EE277A1BE007EE100AF8EE476A8F
