:020000040804EE
:10000000C8BE032041E10508E9B40508510204080F
:10001000EBB40508EDB40508EFB4050800000000D6
:1000200000000000000000000000000071600508F2
:10003000F1B40508000000001161050871B9050858
:1000400089E1050889E1050889E1050889E10508D4
:1000500089E1050889E10508F3B40508FDB4050840
:1000600007B5050811B505081BB5050889E10508A0
:1000700089E1050889E1050889E1050889E10508A4
:1000800089E1050889E1050889E1050889E1050894
:1000900089E1050889E1050889E1050825B5050814
:1000A00089E1050889E1050889E1050889E1050874
:1000B00089E1050889E1050889E1050889E1050864
:1000C00089E1050889E1050889E1050889E1050854
:1000D00089E1050869B70508A9B70508E9B7050862
:1000E0004BB5050889E1050889E1050889E105089E
:1000F00089E1050889E1050889E1050889E1050824
:1001000089E1050889E1050889E1050889E1050813
:1001100029B8050869B8050889E1050889E10508D5
:1001200081B50508A1B50508C1B50508E5B50508FF
:1001300009B6050889E1050889E1050889E105088E
:1001400089E1050889E1050889E1050869B905081B
:100150002DB6050851B6050800000000A9B805082D
:1001600089E1050889E105080000000000000000A1
:1001700089E1050889E1050889E10508000000001A
:100180000000000089E10508E9B8050829B905085B
:1001900089E10508000000000000000000000000E8
:1001A00000000000000000000000000089E10508D8
:1001B00089E105080000000089E105080000000051
:1001C000000000000000000000000000000000002F
:1001D000000000000000000089E1050889E1050831
:1001E00089E1050875B9050889E1050889E105086F
:1001F00075B6050899B60508BDB60508E1B6050847
:0C02000005B7050829B705084DB705082B
:1002100010B5054C237833B9044B13B10448AFF340
:1002200000800123237010BD28210320000000005E
:10023000FC36080808B5034B1BB103490348AFF36C
:10024000008008BD000000002C210320FC360808B7
:100250007046694602F098FEFFF7FEFF10F8012B8A
:1002600011F8013B012A28BF9A42F7D0D01A7047F3
:10027000034613F8012B002AFBD1181A01387047E6
:1002800001F0FF01102A2BDB10F0070F08D010F847
:10029000013B013A8B422DD010F0070F42B3F6D14B
:1002A000F0B441EA012141EA014122F007047FF064
:1002B00000070023F0E80256083C85EA010586EABB
:1002C000010685FA47F5A3FA87F586FA47F6A5FAF7
:1002D00087F68EB9EED1F0BC01F0FF0102F0070203
:1002E00032B110F8013B013A83EA010313B1F8D1AE
:1002F0000020704701387047002D06BF354603388F
:10030000073815F0010F07D1013015F4807F02BFC7
:10031000013015F4C03F0130F0BC0138704700BF18
:1003200081F0004102E000BF83F0004330B54FEAA6
:1003300041044FEA430594EA050F08BF90EA020F13
:100340001FBF54EA000C55EA020C7FEA645C7FEAA6
:10035000655C00F0E2804FEA5454D4EB5555B8BFC9
:100360006D420CDD2C4480EA020281EA030382EA3A
:10037000000083EA010180EA020281EA0303362DCC
:1003800088BF30BD11F0004F4FEA01314FF4801C9F
:100390004CEA113102D0404261EB410113F0004FB1
:1003A0004FEA03334CEA133302D0524263EB430368
:1003B00094EA050F00F0A780A4F10104D5F1200E06
:1003C0000DDB02FA0EFC22FA05F2801841F1000161
:1003D00003FA0EF2801843FA05F359410EE0A5F135
:1003E00020050EF1200E012A03FA0EFC28BF4CF066
:1003F000020C43FA05F3C01851EBE37101F000451C
:1004000007D54FF0000EDCF1000C7EEB00006EEB28
:100410000101B1F5801F1BD3B1F5001F0CD34908B2
:100420005FEA30004FEA3C0C04F101044FEA445209
:1004300012F5800F80F09A80BCF1004F08BF5FEA90
:10044000500C50F1000041EB045141EA050130BD70
:100450005FEA4C0C404141EB0101013C28BFB1F582
:10046000801FE9D291F0000F04BF01460020B1FACD
:1004700081F308BF2033A3F10B03B3F120020CDAA0
:100480000C3208DD02F1140CC2F10C0201FA0CF07E
:1004900021FA02F10CE002F11402D8BFC2F1200CE3
:1004A00001FA02F120FA0CFCDCBF41EA0C01904099
:1004B000E41AA2BF01EB0451294330BD6FEA0404E2
:1004C0001F3C1CDA0C340EDC04F11404C4F12002CD
:1004D00020FA04F001FA02F340EA030021FA04F3DF
:1004E00045EA030130BDC4F10C04C4F1200220FA36
:1004F00002F001FA04F340EA0300294630BD21FA74
:1005000004F0294630BD94F0000F83F4801306BF39
:1005100081F480110134013D4EE77FEA645C18BF2D
:100520007FEA655C29D094EA050F08BF90EA020FC4
:1005300005D054EA000C04BF1946104630BD91EABC
:10054000030F1EBF0021002030BD5FEA545C05D1BF
:100550004000494128BF41F0004130BD14F58004FE
:100560003CBF01F5801130BD01F0004545F0FE4172
:1005700041F470014FF0000030BD7FEA645C1ABFA7
:10058000194610467FEA655C1CBF0B46024650EADE
:10059000013406BF52EA033591EA030F41F400210A
:1005A00030BD00BF90F0000F04BF0021704730B590
:1005B0004FF4806404F132044FF000054FF0000165
:1005C00050E700BF90F0000F04BF0021704730B526
:1005D0004FF4806404F1320410F0004548BF4042FB
:1005E0004FF000013EE700BF42004FEAE2014FEA50
:1005F00031014FEA02701FBF12F07F4393F07F4F2B
:1006000081F06051704732F07F4208BF704793F02D
:100610007F4F04BF41F40021704730B54FF4607440
:1006200001F0004521F000411CE700BF50EA010243
:1006300008BF704730B54FF000050AE050EA0102EC
:1006400008BF704730B511F0004502D5404261EB5C
:1006500041014FF4806404F132045FEA915C3FF49D
:10066000D8AE4FF003025FEADC0C18BF03325FEA3A
:10067000DC0C18BF033202EBDC02C2F1200300FAEB
:1006800003FC20FA02F001FA03FE40EA0E0021FA10
:1006900002F11444BDE600BF70B54FF0FF0C4CF4FE
:1006A000E06C1CEA11541DBF1CEA135594EA0C0FB0
:1006B00095EA0C0F00F0DEF82C4481EA030621EAEB
:1006C0004C5123EA4C5350EA013518BF52EA033526
:1006D00041F4801143F4801338D0A0FB02CE4FF0D8
:1006E0000005E1FB02E506F00042E0FB03E54FF008
:1006F0000006E1FB03569CF0000F18BF4EF0010E00
:10070000A4F1FF04B6F5007F64F5407404D25FEAFB
:100710004E0E6D4146EB060642EAC62141EA5551AE
:100720004FEAC52040EA5E504FEACE2EB4F1FD0CF0
:1007300088BFBCF5E06F1ED8BEF1004F08BF5FEA6E
:10074000500E50F1000041EB045170BD06F0004620
:1007500046EA010140EA020081EA0301B4EB5C04CD
:10076000C2BFD4EB0C0541EA045170BD41F48011C5
:100770004FF0000E013C00F3AB8014F1360FDEBFEA
:10078000002001F0004170BDC4F10004203C35DAC6
:100790000C341BDC04F11404C4F1200500FA05F349
:1007A00020FA04F001FA05F240EA020001F00042EA
:1007B00021F0004110EBD37021FA04F642EB060160
:1007C0005EEA430E08BF20EAD37070BDC4F10C048A
:1007D000C4F1200500FA04F320FA05F001FA04F24E
:1007E00040EA020001F0004110EBD37041F100013A
:1007F0005EEA430E08BF20EAD37070BDC4F1200545
:1008000000FA05F24EEA020E20FA04F301FA05F2AC
:1008100043EA020321FA04F001F0004121FA04F254
:1008200020EA020000EBD3705EEA430E08BF20EA24
:10083000D37070BD94F0000F0FD101F0004640005E
:1008400041EB010111F4801F08BF013CF7D041EAE0
:10085000060195F0000F18BF704703F000465200E4
:1008600043EB030313F4801F08BF013DF7D043EAB5
:100870000603704794EA0C0F0CEA135518BF95EA6B
:100880000C0F0CD050EA410618BF52EA4306D1D1F2
:1008900081EA030101F000414FF0000070BD50EA11
:1008A000410606BF1046194652EA430619D094EA9B
:1008B0000C0F02D150EA013613D195EA0C0F05D185
:1008C00052EA03361CBF104619460AD181EA0301D9
:1008D00001F0004141F0FE4141F470014FF0000091
:1008E00070BD41F0FE4141F4780170BD70B54FF02C
:1008F000FF0C4CF4E06C1CEA11541DBF1CEA1355AC
:1009000094EA0C0F95EA0C0F00F0A7F8A4EB05048D
:1009100081EA030E52EA03354FEA013100F0888084
:100920004FEA03334FF0805545EA131343EA12634D
:100930004FEA022245EA111545EA10654FEA002602
:100940000EF000419D4208BF964244F1FD0404F5BB
:10095000407402D25B084FEA3202B61A65EB030517
:100960005B084FEA32024FF480104FF4002CB6EBD4
:10097000020E75EB030E22BFB61A754640EA0C0054
:100980005B084FEA3202B6EB020E75EB030E22BF94
:10099000B61A754640EA5C005B084FEA3202B6EBD5
:1009A000020E75EB030E22BFB61A754640EA9C0094
:1009B0005B084FEA3202B6EB020E75EB030E22BF64
:1009C000B61A754640EADC0055EA060E18D04FEA22
:1009D000051545EA16754FEA06164FEAC30343EAC2
:1009E00052734FEAC2025FEA1C1CC0D111F4801F8F
:1009F0000BD141EA00014FF000004FF0004CB6E788
:100A000011F4801F04BF01430020B4F1FD0C88BF26
:100A1000BCF5E06F3FF6AFAEB5EB030C04BFB6EB31
:100A2000020C5FEA500C50F1000041EB045170BD24
:100A30000EF0004E4EEA113114EB5C04C2BFD4EB51
:100A40000C0541EA045170BD41F480114FF0000ED5
:100A5000013C90E645EA060E8DE60CEA135594EA51
:100A60000C0F08BF95EA0C0F3FF43BAF94EA0C0F54
:100A70000AD150EA01347FF434AF95EA0C0F7FF4C9
:100A800025AF104619462CE795EA0C0F06D152EA1D
:100A900003353FF4FDAE1046194622E750EA410601
:100AA00018BF52EA43067FF4C5AE50EA41047FF412
:100AB0000DAF52EA43057FF4EBAE12E74FF0FF3C77
:100AC00006E000BF4FF0010C02E000BF4FF0010C48
:100AD0004DF804CD4FEA410C7FEA6C5C4FEA430CC1
:100AE00018BF7FEA6C5C1BD001B050EA410C0CBF10
:100AF00052EA430C91EA030F02BF90EA020F002072
:100B0000704710F1000F91EA030F58BF994208BFD8
:100B100090422CBFD8176FEAE37040F00100704795
:100B20004FEA410C7FEA6C5C02D150EA013C07D1EC
:100B30004FEA430C7FEA6C5CD6D152EA033CD3D037
:100B40005DF8040B704700BF8446104662468C4631
:100B50001946634600E000BF01B5FFF7B7FF002864
:100B600048BF10F1000F01BD4DF808EDFFF7F4FF8D
:100B70000CBF012000205DF808FB00BF4DF808ED18
:100B8000FFF7EAFF34BF012000205DF808FB00BF3B
:100B90004DF808EDFFF7E0FF94BF012000205DF85D
:100BA00008FB00BF4DF808EDFFF7CEFF94BF012012
:100BB00000205DF808FB00BF4DF808EDFFF7C4FF0B
:100BC00034BF012000205DF808FB00BF4FEA410C54
:100BD0007FEA6C5C02D150EA013C0AD14FEA430C37
:100BE0007FEA6C5C02D152EA033C02D14FF0000074
:100BF00070474FF0010070474FEA410212F50012B2
:100C000015D211D56FF47873B3EB625212D94FEA53
:100C1000C12343F0004343EA505311F0004F23FA3D
:100C200002F018BF404270474FF00000704750EA92
:100C3000013005D111F0004008BF6FF0004070474F
:100C40004FF00000704700BF4A0011D212F50012A9
:100C500011D20DD56FF47873B3EB62520ED44FEA14
:100C6000C12343F0004343EA505323FA02F0704794
:100C70004FF00000704750EA013002D14FF0FF30D2
:100C800070474FF0000070474FEA4102B2F1E04375
:100C900024BFB3F5001CDCF1FE5C0DD901F0004C63
:100CA0004FEAC0024CEA5070B2F1004F40EB8300B3
:100CB00008BF20F00100704711F0804F21D113F1DF
:100CC0003872BCBF01F00040704741F480114FEA18
:100CD0005252C2F11802C2F1200C10FA0CF320FAA1
:100CE00002F018BF40F001004FEAC1234FEAD323BE
:100CF00003FA0CFC40EA0C0023FA02F34FEA430328
:100D0000CCE77FEA625307D150EA01331EBF4FF0B0
:100D1000FE4040F44000704701F0004040F0FE40CB
:100D200040F40000704700BF53B94AB9002908BF1A
:100D300000281CBF4FF0FF314FF0FF3001F0DEB84C
:100D4000ADF1080C6DE904CE00F006F8DDF804E022
:100D5000DDE9022304B070472DE9F047089D044601
:100D60008E46002B4DD18A42944669D9B2FA82F25E
:100D700052B101FA02F3C2F1200120FA01F10CFA9A
:100D800002FC41EA030E94404FEA1C48210CBEFBD2
:100D9000F8F61FFA8CF708FB16E341EA034306FB5B
:100DA00007F199420AD91CEB030306F1FF3080F0EA
:100DB0001F81994240F21C81023E63445B1AA4B237
:100DC000B3FBF8F008FB103344EA034400FB07F7D9
:100DD000A7420AD91CEB040400F1FF3380F00A811A
:100DE000A74240F207816444023840EA0640E41B0F
:100DF00000261DB1D4400023C5E900433146BDE8BB
:100E0000F0878B4209D9002D00F0EF800026C5E95C
:100E1000000130463146BDE8F087B3FA83F6002E74
:100E20004AD18B4202D3824200F2F980841A61EBEC
:100E3000030301209E46002DE0D0C5E9004EDDE70A
:100E400002B9FFDEB2FA82F2002A40F09280A1EBF2
:100E50000C014FEA1C471FFA8CFE0126200CB1FB47
:100E6000F7F307FB131140EA01410EFB03F0884240
:100E700008D91CEB010103F1FF3802D2884200F2CD
:100E8000CB804346091AA4B2B1FBF7F007FB10115F
:100E900044EA01440EFB00FEA64508D91CEB0404FD
:100EA00000F1FF3102D2A64500F2BB800846A4EB58
:100EB0000E0440EA03409CE7C6F12007B34022FA43
:100EC00007FC4CEA030C20FA07F401FA06F31C4372
:100ED000F9404FEA1C4900FA06F3B1FBF9F8200C7F
:100EE0001FFA8CFE09FB181140EA014108FB0EF0C5
:100EF000884202FA06F20BD91CEB010108F1FF3A15
:100F000080F08880884240F28580A8F10208614420
:100F1000091AA4B2B1FBF9F009FB101144EA01412E
:100F200000FB0EFE8E4508D91CEB010100F1FF34D9
:100F30006CD28E456AD90238614440EA0840A0FB71
:100F40000294A1EB0E01A142C846A64656D353D047
:100F50005DB1B3EB080261EB0E0101FA07F722FA6B
:100F600006F3F1401F43C5E9007100263146BDE894
:100F7000F087C2F12003D8400CFA02FC21FA03F3F7
:100F8000914001434FEA1C471FFA8CFEB3FBF7F078
:100F900007FB10360B0C43EA064300FB0EF69E429D
:100FA00004FA02F408D91CEB030300F1FF382FD236
:100FB0009E422DD9023863449B1B89B2B3FBF7F6DE
:100FC00007FB163341EA034106FB0EF38B4208D9B7
:100FD0001CEB010106F1FF3816D28B4214D9023EF8
:100FE0006144C91A46EA004638E72E46284605E716
:100FF0000646E3E61846F8E64B45A9D2B9EB0208E7
:1010000064EB0C0E0138A3E74646EAE7204694E776
:101010004046D1E7D0467BE7023B614432E73046A9
:1010200009E76444023842E703685A004CBF43F0C2
:10103000004323F000431844704700BF2DE9F843F4
:1010400029B34F1E044615463E464FF0000808EBF4
:10105000060101EBD171491004EBC1094846FFF7C5
:10106000E3FF0346C80008308F42204409D0AB425A
:1010700009D8FFF7D9FF0138A8420AD201F10108C7
:10108000E5E7AB4205D9884501D04E1EDFE74FF0BA
:1010900000094846BDE8F883012807D0022807D098
:1010A000044B00280CBF18460020704702487047C8
:1010B0000248704771170408751704087917040867
:1010C00030B5234B83B004468D1E3BB301A928469F
:1010D000AFF30080E8B101992A46FFF7AFFF014660
:1010E000B8B1FFF7A1FF4B68A064012B2CD0002BF7
:1010F00001F1040024DBFFF797FF0023C4E9130389
:101100000368002B11DBFFF78FFF2061002003B085
:1011100030BD00230920236103B030BD0D4B0E49C3
:10112000C91AC91018460191D6E7C3F30360FFF747
:10113000B3FF0028206114BF0020092003B030BD98
:101140000123C4E91303DBE7002323610520DEE765
:1011500000000000A4B00808B4B108080368DA076A
:1011600010B5044606D49B0700F1480009D500F0ED
:101170005BFC2368590709D51A070ED5DB0613D582
:1011800010BD00F049FC23685907F5D404F1D000E4
:1011900000F052FC23681A07F0D404F5A87000F0A0
:1011A00053FC2368DB06EBD404F5E870BDE810407F
:1011B00000F08EBC092070470346006800B1184457
:1011C000704700BF704700BF70B504460E46316CD3
:1011D0002046FFF775FF054688B9326C62612369C6
:1011E00032462146012098470828F0D0072806D12A
:1011F0002846316CFFF7E6FF301D00F001FC1DF0C2
:1012000053FF00BF2DE9F0470D1DD0F80C80D0F83A
:101210001890074614460FCDADF5727D0DF10C0CFC
:10122000ACE80F000FCDACE80F000FCDACE80F001D
:1012300095E80F0002AE4FF0000E8CE80F00C6F8E4
:1012400000E020E0336C7B614FF4F07231467AA805
:101250001DF012F83B697AAA394650469847889B98
:1012600073642146CDE9006905463B463A460120B4
:10127000C0470446E0B94FF4F0727AA930461CF03A
:10128000FBFF082D1AD1316C3846FFF719FF0934DE
:101290005FFA84FA05460028D4D0B36B73643A46EB
:1012A000CDE900693B464AF010010120C04700B17A
:1012B000092528460DF5727DBDE8F087072DF7D189
:1012C0002046316CFFF77EFF03A800F099FB00BFBA
:1012D000406C7047F0B5CB6B0B6401F1040C0E460B
:1012E0000546BCE80F00F9B001AC0FC4BCE80F0024
:1012F0000FC4BCE80F000FC49CE80F004FF0FF378D
:1013000084E80F00009706E02B696A462946984753
:101310000828044608D110992846FFF7D1FE002876
:10132000F2D0092079B0F0BD6846FFF717FF062C10
:10133000F7D131462846FFF747FF00BFC160D96BA0
:1013400082611964002219465CE700BF70B5C66867
:1013500043690B64AEB903690A4604460D4601466B
:1013600002209847072805D008280FD12946204693
:10137000FFF72AFF3046296CFFF724FF281D00F0F5
:101380003FFB0122FFF73EFF1DF08EFE1DF08CFE9D
:10139000C2681AB1CA6B0A64002233E79AE700BF39
:1013A000704700BF836801460BB1012018477047A2
:1013B000012912D009D873B90F2A0CD800EB820288
:1013C00018465368009A136070470339012994BF87
:1013D000012002207047022070470846704700BF76
:1013E00000B585B00A46002303A900911946FFF70E
:1013F000DFFF039805B05DF804FB00BF012912D0A0
:1014000009D873B90F2A0CD800EB8200009A126831
:101410004260184670470339012994BF0120022019
:101420007047022070470846704700BF10B584B06F
:10143000002303AC039200940A461946FFF7DEFF2F
:1014400004B010BD70B5D36B136402F1040C0546F3
:101450000C46BCE80F00ADF50E7D0DF15C0EAEE85C
:101460000F00BCE80F00AEE80F00BCE80F00AEE8CC
:101470000F009CE80F004FF0FF368EE80F00169625
:1014800010E0FFF7D3FF214616A8A847034616AA87
:101490006946082083B9049B9847052806460CD066
:1014A000092809D026996846FFF70AFE03466A46CE
:1014B0000C2116A8002BE4D0092616A8FFF74EFE33
:1014C00030460DF50E7D70BD2DE9F04FCC6C89B026
:1014D0001E4654F8043B06940D46174600F00308D8
:1014E000002E79D01A0C1B0405938DF81D200223C1
:1014F000D2B204EB82048DF81C302B6DB8F1020FD0
:1015000008BFAC6B13F001030CD005A9384600F0FE
:1015100079FB18B9082009B0BDE8F08F092009B09F
:10152000BDE8F08FD4F800A0BAF1000FEDD0019320
:1015300000F008030293022E4AD0B4F800A0B4F8D9
:1015400002900434AB6C29F0010B0F2138469B4408
:10155000FFF746FF834539D82AF001039B448345B2
:1015600094BF002001204FEA490303F002030AF070
:10157000010A43EA0A03012B49D0022B32D0002B87
:10158000CCD1B8F1000F02D0002840F0CD80043457
:10159000D4F800A0BAF1000FCDD105A9384600F06B
:1015A00031FB0028BAD1019B002BB3D00F21384664
:1015B000FFF716FF0E2102463846FFF737FF384681
:1015C0006A4A0F21FFF732FF0720A8E70020CAE789
:1015D000D4F804900834B5E71B0205930323ADF853
:1015E0001C308AE7236823F0004BB8F1000F45D187
:1015F00028B1029A002A5CD0BBF1000F74D0002BF6
:1016000000DA04340BF1010B04EB8B04C0E7B8F1F2
:10161000000F19D1B0B163682268991C4FEAD272E9
:101620003FF47CAF05F158010133049100F0908044
:10163000201DFFF7C1FD04AB0146284623F05AFBED
:1016400000285BD10834A3E70D213846D5F8209057
:10165000FFF7C6FE8145F5D1AB6A9C42F2D1204628
:10166000FFF7E2FC0F2102463846FFF7DFFE38465F
:101670002A460021FFF7DAFE072050E70D21384601
:10168000D5F82090FFF7ACFE814501D02368B6E77E
:10169000AB6A9C42FAD104230022C5E90B23E3186C
:1016A000C5F828B06B632368002B59DB0123019335
:1016B000A8E705F15803CDF80C8004F1040AB04600
:1016C00091461E460EE050460496FFF775FD002237
:1016D000014604AB284609F101090AF1040A23F086
:1016E00009FBE0B9D945EED10D213846FFF778FE68
:1016F000049BAC62C5E90803062010E781460D2172
:101700003846FFF76DFEB9F1020F286225D12B464E
:10171000049A43F82C2F6B62AC620620FFE6464623
:101720002368DDF80C806AE72046FFF77DFC04346F
:101730000246AC632846144623F03AFB00283FF4E7
:10174000EDAE384622460F21FFF770FE0720E6E691
:101750000D213846FFF744FE2862049B6B62DBE7ED
:101760000BF1010004EB80007AE700BF19D50708F0
:101770000023A9E60123A7E60223A5E62DE9F0430D
:101780000646C3B015461C46042900F2BF80DFE8B8
:1017900001F09E57BD2D0300002C40F0B780102AA9
:1017A00000F2B4800368D80600F1F98020AF384613
:1017B00000F098F9B46B394600234FF0010C0CFA95
:1017C00003F22A42204603F1010303D050F8042B10
:1017D0000A600446042B01F10401F0D13846B463D9
:1017E00000F076F9002043B0BDE8F083032C40F010
:1017F0008D8094B204EB1243102B4FEA124500F295
:10180000858003681F0700F1D28020AF384600F0C2
:101810003DF9B26B07EBC50154B10B46D01A01EB91
:10182000C401E4001D5843F8045B8B42FAD1224402
:101830003846B26300F008F9002043B0BDE8F083F9
:10184000012C4FEA124895B25CD0052C5ED108EB12
:101850000509B9F1200F59D8B8F10F0F79D9A94668
:10186000002D40F08A80B36B6DB320AF4FF00009BC
:1018700007EBC807043F03EBC50553F8041B47F803
:10188000041FAB42F9D1B9F1000F0FD06F464146AA
:10189000102938BF102107EBC101843903EBC905BA
:1018A00053F8040B41F8040FAB42F9D1012C00F0BE
:1018B0008680B8F10F0FB56347D9B9F1000F02D098
:1018C000684600F0B9F8002043B0BDE8F083ECB9F9
:1018D000806B23461FFA82FC0124371D04FA03F2B1
:1018E00012EA0C0F014604D051F8042B47F82320CC
:1018F00008460133102BF1D115F40055E3D1B06344
:10190000284604E008EB0503102B03D9022043B05E
:10191000BDE8F083B8F10F0FF8D83368DA0706D5C1
:10192000304623F0030340F8483B00F079F820AF3D
:10193000384600F075F8B36B002D97D11D4604357D
:10194000B563384600F068F8BDE720A800F06CF8F1
:10195000B3E7B9F1100F40D9A9F110093368D907DD
:1019600008D523F00103304643F0020340F8483B1A
:1019700000F05EF8B9F1000F32D033685A0720D476
:10198000B8F10F0F25D96F463846C8F1100500F0A1
:1019900057F8002DB36B7FF77AAF20AF68E723F0DD
:1019A0001003336006F5E87000F09CF8FEE623F0C3
:1019B0000803036000F5A87000F068F825E720AF81
:1019C000BDE7304623F0040340F8D03B00F038F880
:1019D000D6E720A800F02CF8D5E74FF00009BDE7C6
:1019E000B8F10F0F3FF63FAF20AF384600F020F8B8
:1019F000B36B002D7FF43AAF384600F015F862E77C
:101A000000F1340191E838009C46A6464CF8045D8C
:101A100090E8FF0FE54600BD90EC210B704700BF3A
:101A200080EC210B704700BF90EC200B704700BF8B
:101A300080EC200B704700BFD0EC200B704700BF3C
:101A4000C0EC200B704700BFF0EC0201F0EC02117B
:101A5000F0EC0221F0EC0231F0EC0241F0EC02512A
:101A6000F0EC0261F0EC0271F0EC0281F0EC02911A
:101A7000F0EC02A1F0EC02B1F0EC02C1F0EC02D10A
:101A8000F0EC02E1F0EC02F1704700BFE0EC020183
:101A9000E0EC0211E0EC0221E0EC0231E0EC02416A
:101AA000E0EC0251E0EC0261E0EC0271E0EC02815A
:101AB000E0EC0291E0EC02A1E0EC02B1E0EC02C14A
:101AC000E0EC02D1E0EC02E1E0EC02F1704700BF93
:101AD000B0FC0181B0FC0191B0FC01A1B0FC01B1EE
:101AE000704700BFA0FC0181A0FC0191A0FC01A1F6
:101AF000A0FC01B1704700BFEC4600B52DE90050D5
:101B00002DE9FF1F4FF000032DE90C0001A9FFF79D
:101B1000E1FBDDF840E012B0704700BFEC4600B5D5
:101B20002DE900502DE9FF1F4FF000032DE90C00B7
:101B300001A9FFF70BFCDDF840E012B0704700BFD1
:101B4000EC4600B52DE900502DE9FF1F4FF00003D2
:101B50002DE90C0001A9FFF71BFCDDF840E012B0F5
:101B6000704700BFEC4600B52DE900502DE9FF1F7E
:101B70004FF000032DE90C0001ABFFF7DFFBDDF8B0
:101B800040E012B0704700BFEC4600B52DE90050B0
:101B90002DE9FF1F4FF000032DE90C0001AAFFF70C
:101BA00051FCDDF840E012B0704700BF027A0346F6
:101BB0007AB9427AA2B14168013A10B44272086817
:101BC00003220C1D1A7202025C60000E10BC1A6027
:101BD00070470068013A1A7202021A60000E7047DC
:101BE000B020704700B585B0002303AA00921946C3
:101BF0000C22FFF7DDFB039805B05DF804FB00BF86
:101C0000F0E700BF2DE9F043054685B00E464FF0E2
:101C100000083046FFF7CAFFB028044600F0BA803B
:101C2000070620D500F0F003802B4DD0902B36D046
:101C3000A02B60D0B02B74D0C02B00F08B8000F0B4
:101C4000F803D02B0BD100F007020132052342F438
:101C5000002201212846FFF791FD0028D9D0092054
:101C600005B0BDE8F0838300DBB21F1D0DF10C0948
:101C700000231946CDF800900D222846FFF798FB67
:101C8000039BCDF8009060064CBFDF1BFF180023BC
:101C90000D22194628460397FFF7B0FBB9E700F07D
:101CA0000D030D2BDBD003AF002300F00F0219460C
:101CB00000972846FFF77CFB002300970D2219466A
:101CC0002846FFF79BFBA4E73046FFF76FFF24028F
:101CD0002043B0F5004FC2D004010023A2B2194640
:101CE0002846FFF74BFD0028B9D114F4004F18BF68
:101CF0004FF001088DE7C24302F007034FF47F6203
:101D00001A41010702F47F624FF0000348BF42F41A
:101D1000804219462846FFF731FD00283FF479AF8D
:101D20009DE7B1283BD0B22800F09380B32841D082
:101D300000F0FC03B42B92D000F007020132012323
:101D400042F4002219462846FFF718FD00283FF408
:101D500060AF84E7C6284AD0C72854D000F0F80303
:101D6000C02B63D0C82868D0C9287FF478AF30462C
:101D7000FFF71CFF020300F00F0002F47022013095
:101D80000243012105232846FFF7F8FC00283FF411
:101D900040AF64E7B8F1000F18D0002060E730468C
:101DA000FFF704FF024600283FF459AF10F0F0039C
:101DB000C8D054E73046FFF7F9FE020300F00F03E6
:101DC000013302F470221A430123BBE703AC4346FC
:101DD0000E22414600942846FFF7EAFA0094434653
:101DE0000F2241462846FFF709FB404638E73046B8
:101DF000FFF7DCFE020300F00F03013302F4702250
:101E00001A4303239EE73046FFF7D0FE0246002820
:101E10003FF425AF10F0F0037FF421AF04212846F2
:101E2000FFF7ACFC00283FF4F4AE18E700F00F0217
:101E30000132032342F4202284E73046FFF7B6FE46
:101E400000F0F00200F00F031032013343EA0232D7
:101E500097E700230DF10C090D221946CDF80090EB
:101E60002846FFF7A5FA3046FFF7A0FE02064FF01E
:101E700002040CD5039B00F07F00A040184403909F
:101E80003046FFF793FE030604F10704F2D4039BE8
:101E9000CDF8009000F07F02A24003F501731A44D0
:101EA0000023039219460D222846FFF7A7FAB0E651
:101EB00010B5C26C536884B04FF0030C08321C029A
:101EC00008461B0E01A9019402928DF80CC08DF8F2
:101ED0000D30FFF797FE04B010BD00BF08B5FFF747
:101EE0008FFE806C08BD00BF08B5FFF789FEC06C8F
:101EF000C379023300EB830008BD00BF704700BF09
:101F000038B50022002304460D46FEF737FE28B9F7
:101F100020462946BDE8384000F00AB8204605F1C1
:101F2000004100F005F8404261EB410138BD00BFBF
:101F3000D0B50C4B002206460F46FEF7ADFBFEF770
:101F400083FE0446FEF72EFB074B0022FEF7A4FBA0
:101F500002460B4630463946FEF7E6F9FEF774FEB8
:101F60002146D0BD0000F03D0000F04108B515F05D
:101F7000AFFB0028FDD01BF001FC002008BD0000D5
:101F8000F6EE007A60EE277A10EE103A074AA2EBDE
:101F9000630307EE103A67EE277A67EE277AB7EE0B
:101FA000080A30EE670A27EE000A7047DF59375FEC
:101FB000002800F09B802DE9F0472DED048B824630
:101FC00090ED018AD0ED027A28EE278AD0ED036ADF
:101FD00090ED047A26EE877A38EE078A67EEA77AC4
:101FE000F6EE008A78EEE77A66EEA66A77EEE67A93
:101FF00017EE900AFEF7F8FA41EC190B18EE100AEA
:10200000FEF7F2FAB0EE491AF0EE691A41EC100B45
:1020100020F01AF857EC106BDAED027A9AED047A98
:1020200067EE877A9AED017ADAED036A27EE267A6F
:1020300077EEC77AB8EE007A67EE877A17EE900AE5
:10204000FEF7D2FA41EC100B1FF0CAFF59EC108BCF
:102050009AED028A9AED037A28EE078ADAED016A90
:10206000DAED047A66EEA76A38EE268A27EE077A5A
:1020700038EEC77A67EEA77A77EE677A17EE900A9E
:10208000FEF7B2FA41EC190B18EE100AFEF7ACFAA3
:10209000B0EE491AF0EE691A41EC100B1FF0D4FFB4
:1020A00055EC104B40464946FEF7EEFD07EE900A10
:1020B0009FED0F8A68EE677ACAED057A3046394699
:1020C000FEF7E2FD07EE900A67EE887ACAED067A1F
:1020D00020462946FEF7D8FD07EE900A28EE678ACB
:1020E0008AED078ABDEC048BBDE8F087704700BF1E
:1020F000333365424FF07F5303604FF07E534360AC
:1021000000238360C360036143618361C3617047DF
:10211000002800F0488110B52DED0E8BB0EE61CA9D
:10212000F0EE428AF0EE629A044690ED02DA2DEE6D
:1021300040BAD0ED03CA6CEEA07A3BEE67BAD0EDA0
:1021400004BA6BEE817A3BEE67BAB6EE008A2BEEEC
:1021500008BAD0ED01DA6DEE80AA6CEE817A7AEEE3
:10216000A7AA6BEEA07A7AEEE7AA6AEE88AA2DEE0D
:10217000A0AA6DEE017A3AEE67AA6BEE807A3AEE8B
:1021800027AA2AEE08AA2DEE811A2DEE209A31EE0A
:10219000099A2CEE801A39EE419A29EE089AF5EE4A
:1021A000401AF1EE10FA0AD1B5EE402AF1EE10FA1B
:1021B00005D1F5EE402AF1EE10FA00F0B4806CEE95
:1021C0000C7A28EEA80A77EE807A29EEA90A37EE73
:1021D000800AFFF7D5FE6CEE001A28EE802A69EE21
:1021E000802A3DEEAD3A3DEE0D5A7CEEAC5A3BEE08
:1021F000AB4AB1EE006A2DEE860A2DEE061A6CEEA1
:10220000864AB2EE008A6DEE080A2CEE888A2DEE20
:10221000ADEA6DEE0D7A6CEEAC6A6BEEAB3A20EE89
:1022200026CA21EEA57A3CEE07CA20EE270A3CEE2C
:1022300000CA22EE057A3CEE47CA61EE239A21EEEF
:10224000847A79EEC79A2EEE067A2DEE070A79EE99
:10225000809A22EE030A79EEC09A79EEC19A20EEB6
:10226000A70A79EE809A60EEA60A79EEA09A22EE8D
:10227000811A79EE819A2CEE877A21EE833A37EE35
:10228000037A64EEA33A37EE237A22EE044A37EE5D
:10229000447A37EE647A28EE274A37EE047A28EE3D
:1022A000268A37EE087A22EEA48A37EE088A67EE8D
:1022B000868A6BEEA88A61EE851A78EEE18A66EE70
:1022C000866A6BEEA66A78EEA68A22EE252A78EE5A
:1022D000C28A6CEE0C7A29EEA90A77EE807A28EE93
:1022E000080A77EE807A28EEA80A37EE800AFFF710
:1022F00047FE2CEE00CA69EE809A28EE008A28EE8E
:10230000800AD4ED007A27EE8CCA3BEE4CBA67EE19
:10231000A99A7AEEE9AA27EE888A3AEE48AA67EEE9
:10232000807A39EE679A9FED208A2BEE08BA7DEE0F
:102330008BDAC4ED01DA6AEE88AA3DEE2ADA84ED82
:1023400002DA2AEE08AA7CEE8ACAC4ED03CA29EE94
:10235000088A3BEE888A84ED048A6DEEAD7A2DEE14
:102360000D0A77EE807A2CEEAC0A77EE807A28EEB2
:10237000080A37EE800AFFF703FE6DEE80DAC4ED3F
:1023800001DA2DEE00DA84ED02DA6CEE80CAC4EDDB
:1023900003CA28EE008A84ED048A2046FFF708FE6F
:1023A000BDEC0E8B10BD70470AD7233C002800F00F
:1023B000C38210B52DED108B90B0B0EE61DAB0EEA7
:1023C000429AF0EE628AF0EE43BAF0EE63AAB0EE03
:1023D00044BA0446B5EE403AF1EE10FA0AD1F5EEF1
:1023E000403AF1EE10FA05D1B5EE404AF1EE10FA9E
:1023F00000F09F8294ED02CA6CEE407A94ED03AA3D
:102400002AEE207A77EEC77AD4ED049A29EE817A03
:1024100077EEC77AB6EE007A67EE877ACDED007A6E
:10242000D4ED01CA6CEE807A6AEE016A77EEA67A84
:1024300069EEA06A77EEE67A67EE877ACDED017AEB
:102440006CEEA07A6CEE016A77EEE67A69EE806A4D
:1024500077EEA67A67EE877ACDED027A2CEE811AB6
:102460006CEE200A31EE201A2AEE000A31EE401AF4
:1024700061EE077ACDED037AB5EE40DAF1EE10FAAF
:102480000AD1B5EE409AF1EE10FA05D1F5EE408A88
:10249000F1EE10FA00F0FC816DEE0D7A29EE090ADA
:1024A00077EE807A28EEA80A37EE800AFFF768FDFB
:1024B0006DEE007ACDED047A29EE007A8DED057A85
:1024C00068EE806ACDED066A6BEEAB7A2AEEAA0A58
:1024D00077EE807A2BEE0B0A37EE800AFFF750FD7D
:1024E0006BEE80BA6AEE80AA2BEE00BA7CEEAC8A64
:1024F00028EEAB6A68EEAAFA68EE8B6A3CEE0C9A9C
:1025000069EE2B5A7AEE0ADA39EEA9EA8DED09EA7C
:102510002AEE285A8DED0A5A69EEAD4ACDED0B4AE6
:102520002CEEACEA2CEE2C8A2AEE2C0A8DED0C0A4D
:1025300029EEAC4A8DED0D4A2CEE0CDA2CEE0A3A5F
:102540008DED0E3A6CEE29EA6AEE0ACA2AEE292AC5
:102550008DED0F2A29EEA9FA2BEE8E7A69EEAF7A6D
:1025600037EE677A6AEE267A37EE277A6BEE8D7A47
:1025700037EE277A69EE2A7A6AEE277A37EE277ADB
:1025800069EE0B7A69EEA77A37EE277A6BEEAC7AB2
:1025900037EE677A6BEE8F7A37EE677A8DED076AE2
:1025A00069EE867A2AEE8E6A77EE867A2CEE26CA55
:1025B00037EECCCACDED085A2AEE25AA3CEE0AAA7F
:1025C0002AEE8DCA3AEE4CAA6AEEAC7A3AEE27AA07
:1025D0006BEE2D7A69EEA79A7AEE299A6AEE8F7AD7
:1025E00079EEE79A27EE077A69EEA99A77EE291A2B
:1025F00011EE900AFDF7F8FF41EC100B1FF0A0FD63
:1026000051EC100BFEF740FB07EE100AD4ED036A05
:102610009DED076A66EE667AD4ED020A60EEAFFAC7
:1026200077EEAF7A2BEE0EEA77EE8E7A94ED046AAF
:10263000DDED085A26EE25EA77EE8E7A2BEE0DEACE
:1026400077EECE7A6AEEAD5A66EE255A77EEA57A27
:102650006BEE2C5A77EEE57A6BEE0F5A77EEA57A91
:1026600077EE074A37EEA71A7EEEAE1A9DED0A5AAC
:1026700071EEC51ADDED045A71EEE51A6DEEE19AC0
:1026800038EE082A9DED0B5A32EE052ADDED055A8B
:1026900032EE652A69EE025A79EEA59A66EEA75ADD
:1026A000F6EE002A32EEEC5A35EE4FFA2FEE07FA2C
:1026B0009DED0C0A3EEEC05A25EE275A3FEE05FA74
:1026C0007FEE6BBA25EEAB5A79EEC59A27EE464AF5
:1026D00020EEA75A34EE054A9DED0E3ADDED0D3A97
:1026E00073EE633A63EE873A9DED0F3A38EE033AA4
:1026F00023EE273A73EE833A73EEEAAA24EE2A4ACF
:1027000079EE849A26EE873A30EE2E4A24EE074A76
:1027100072EECDEA7EEEECEA6EEEA7EA34EE2E4AD9
:1027200034EE4B4A63EE043A79EEA39A9DED09EA42
:1027300021EE8EAA68EE823A3AEE23AAB1EE00BAF2
:1027400060EE8B3A3DEE0DDAF7EE002A32EECDDA8E
:102750007CEEACCA7DEE6CCADDED062A7CEEE22A88
:1027600063EEA23A3AEE63AA26EE27CA6BEE8C3AE3
:102770003AEE23AAD4ED013A63EEA77A33EE273A74
:102780002AEE833A3AEE03AA26EE073A20EE810AB1
:1027900033EE403A24EE033A3AEE03AA28EEE18AF9
:1027A00062EE0E8A38EE288A26EE8BBA62EE8B2A0B
:1027B00038EE628A24EEE63A73EE677A6BEEA77A19
:1027C00038EE278A60EE870A3CEE20CA2AEE8CCAD1
:1027D00038EE0C8A63EE877A66EE816A77EEE66AF7
:1027E00064EE266A38EE268A29EE21BA22EE2D2AD8
:1027F0003BEE02BA24EEC66A35EE065A6BEE85BA97
:102800003BEE2BBA27EE637A35EE877A6AEE87AA1B
:102810007BEE2AAA24EE20BA3AEE8BBA69EEA97AA8
:102820002AEE0A0A77EE807A28EE080A77EE807A96
:102830002BEE0B0A37EE800AFFF7A2FB69EE809AB7
:102840002AEE00AA28EE008A2BEE000AD4ED007AC8
:1028500067EEA99A9DED007A37EE697A8DED007AE0
:1028600027EE8AAA9DED017A37EE4A7A8DED017A3C
:1028700027EE888A9DED027A37EE487A8DED027A4E
:1028800067EE807A9DED037A77EE677ACDED037A75
:102890009FED2A8ADDED007A67EE887AD4ED019A01
:1028A00077EEA99AC4ED019ADDED017A67EE887A98
:1028B00094ED029A37EE899A84ED029ADDED027A60
:1028C00067EE887AD4ED038A77EEA88AC4ED038A8E
:1028D000DDED037A27EE888AD4ED047A38EE278A74
:1028E00084ED048A69EEA97A29EE090A77EE807AE6
:1028F00028EEA80A77EE807A28EE080A37EE800ADA
:10290000FFF73EFB69EE807AC4ED017A69EE007A4A
:10291000C4ED027A68EE807AC4ED037A28EE008A6C
:1029200084ED048A2046FFF743FB10B0BDEC108B0A
:1029300010BDFFF7EDFBF8E7704700BF0AD7233C57
:1029400010B40B681B6983ED000A0B689B680022BA
:10295000DA600B689C689A6002680B689360026892
:10296000DA600B6803600C605DF8044B7047000090
:1029700038B52DED028B30B99FED228AB0EE480AB2
:10298000BDEC028B38BD044600F110010C30FFF79E
:10299000D7FF6569E16800239FED1A8AB0EE487A97
:1029A00001E00133DBB222789A421FD361B1606843
:1029B00000EB8300D0ED007A0869D0ED006A67EE85
:1029C000A67A37EE277AC9689A42EAD9002DE8D06C
:1029D000A26802EB8302D2ED007A2A69D2ED006A86
:1029E00067EEA67A38EE278AED68DAE737EE488A8E
:1029F000B0EE480A04F1180104F11400FFF7A0FF3B
:102A0000BCE700BF0000000058B161B16AB191EDB0
:102A1000007AD2ED007A77EE877AC2ED007A012053
:102A2000704700207047002070470020704700006A
:102A30002DE9F84F80460F4691469A46002408E05B
:102A4000174BDB6A9847002027E0C9F80070013473
:102A5000E4B2444519D2124B9B6A0420984783463E
:102A60000028EDD004EB8405AE0007EB8505014698
:102A700028460EF0D2FF0023CBF80030002CE4D023
:102A8000143E3E44F560AE60E1E708EB88039B002E
:102A9000143B1F44CAF800700120BDE8F88F00BF46
:102AA000F4080320002800F0C380F8B50546067836
:102AB000012E40F2BA80771CFFB24368002B00F071
:102AC000B9808368002B00F0B7805C4B9B6A2420A0
:102AD00098470446002837D0584B9B6A07EB87007D
:102AE00080009847E061002833D004F1100304F11E
:102AF0000C0201463846FFF79BFF002831D04F4BB0
:102B00009B6A06EB860080009847014620620028F9
:102B100030D004F1180304F114023046FFF788FFA7
:102B2000002833D0454B9B6AB80098476060002866
:102B300038D0424B9B6AB0009847A06000283FD035
:102B40002B78237000234FE03C4BDB6A9847002032
:102B50006DE03A4DEB6A9847EB6A204698470020B3
:102B600065E0364DEB6AE0699847EB6A2046984786
:102B700000205CE0314DEB6AE0699847EB6A206A1F
:102B80009847EB6A20469847002050E02B4DEB6AAF
:102B9000E0699847EB6A206A9847EB6A20469847B5
:102BA000002044E0254DEB6A9847EB6AE0699847BE
:102BB000EB6A206A9847EB6A20469847002036E087
:102BC0001E4DEB6A60689847EB6AA0689847EB6A0D
:102BD000E0699847EB6A206A9847EB6A2046984775
:102BE000002024E00133DBB2BB421FD26A68D80068
:102BF00002EBC302D2ED007A92ED017A626899008D
:102C000002EB830267EE877AC2ED007A9E42E9D931
:102C1000AA680244D2ED007A92ED017AA2680A44D1
:102C200067EE877AC2ED007ADCE700242046F8BD23
:102C3000002070470020FAE70020F8E7F40803209E
:102C40000A2824D838B50446144B9B6A10209847AC
:102C50000546F0B1002343700470104B9B6A04EBEF
:102C6000840080009847E86048B105F108032A1DF8
:102C700001462046FFF7DCFE68B1284638BD074C08
:102C8000E36A9847E36A284698470020F6E7002061
:102C900070470020F2E70020F0E700BFF4080320AF
:102CA00010B582B000230193E0B104464378027866
:102CB000934201D20133437004F10801201DFFF754
:102CC0003FFE002301AA094960680EF0F7FE637811
:102CD00007EE903AF8EEE77ADDED016A86EEA77A24
:102CE0008DED017A9DED010A02B010BD092A04089C
:102CF000034600B3FDEEC07A17EE902A12B2D0ED73
:102D0000027ABDEEE77A17EE101A09B28A420ADAA1
:102D1000D0ED037ABDEEE77A17EE101A09B28A42B7
:102D200001DDF0EE407A93ED057A67EE277AC3ED88
:102D3000067A0120704700207047024658B3D0ED54
:102D40000A7A30EE270A80ED0A0ABDEEC00A10EEBC
:102D5000103A1BB290ED097AFDEEC77A17EE901A81
:102D600009B28B420BDB80ED0A7AD2ED077A92ED45
:102D70000A7A67EE877AC2ED0B7A0120704790EDF0
:102D8000087AFDEEC77A17EE901A09B28B42ECDC96
:102D900080ED0A7AE9E70020704768B1D0ED0C7A3F
:102DA00090ED0D7A30EE477A67EE877AC0ED0E7AB5
:102DB00080ED0D0A012070470020704738B52DEDD9
:102DC000028B30EE608A38B3044680ED000AC0ED15
:102DD000010AB0EE480AFFF78BFF0546E8B1D4EDD3
:102DE000068ADFED107A78EEA78AB0EE480A204610
:102DF000FFF7A3FF18B1D4ED0B7A78EEA78AB0EEF7
:102E0000480A2046FFF7C9FF18B1D4ED0E7A78EED4
:102E1000A78AC4ED048A00E000252846BDEC028B99
:102E200038BD00BF0000000041B10B4632B110B503
:102E30000349CC6919460068A04710BD704700BF20
:102E4000DC16032010B50446006840B1054B1B6832
:102E5000984720B10123237123689C6410BD00238F
:102E60002360FBE7DC1603200CB430B5A3B0037974
:102E7000002B37D004460D46036923B1C36813B154
:102E80008268002A33D04FF400720021A0681BF042
:102E90001BFA8022002101A81BF016FA294601A87E
:102EA0001BF0EDFF269901A81BF0DAFFA368CBB158
:102EB0002368BBB127AB219301AA4FF40071A0682E
:102EC0001CF024F885B2B5F5007F01D94FF40075E8
:102ED0002A46A1682046FFF7A7FF2A460021A068DE
:102EE0001BF0F2F923B0BDE8304002B070474FF458
:102EF00000709847A0600028C5D1F3E76846704786
:102F0000EFF309807047EFF3088070472DE9F8432D
:102F100004460D469046154F154E0346154A394650
:102F20003046FFF7A1FF2B46134A39463046FFF7DC
:102F30009BFF05EB08094B46104A39463046FFF720
:102F400093FF43460E4A39463046FFF78DFF203443
:102F5000A54204D8A14502D30020BDE8F883094A60
:102F600002490348FFF780FF0120F6E7B838080858
:102F7000E01C0320A4380808C8380808DC38080812
:102F8000F03808080439080830B587B004460D4603
:102F90003F4A40494048FFF767FF002305930495E7
:102FA000FFF7ACFF0390FFF7AEFF0290FFF7A8FF1B
:102FB000019014F0040F5DD0364D374C374A294646
:102FC0002046FFF751FF12F0D5FB0590059812F04F
:102FD0003FF90346324A29462046FFF745FF019B49
:102FE0000493049D059812F0CBFB0446059812F05B
:102FF000DBFB024621462846FFF788FF049B254D50
:10300000254C1B68274A29462046FFF72DFF049BC5
:103010005B68254A29462046FFF726FF049B9B68EC
:10302000224A29462046FFF71FFF049BDB68204AFF
:1030300029462046FFF718FF049B1B691D4A2946B5
:103040002046FFF711FF049B5B691B4A2946204677
:10305000FFF70AFF049B9B69184A29462046FFF7A1
:1030600003FF049BDB69164A29462046FFF7FCFE56
:1030700007B030BD134A07490748FFF7F5FE04982B
:10308000114B1A68114B1968FFF740FFB6E700BFF4
:1030900018390808B8380808E01C0320283908083F
:1030A000383908085C3908086C3908087C39080880
:1030B0008C3908089C390808AC390808BC3908085C
:1030C000CC3908084C390808C8BE0320C8B603200C
:1030D00010B504460D4B1B689847B0FBF4F304FB96
:1030E000130454B90A4B1B68834206D0094A13786B
:1030F00083F001031370064B1860074B5C68074AA6
:10310000044B1B7807CAA04710BD00BFF40803207A
:1031100044210320EC210320FC040320AC1D0320E8
:1031200010B513F0B9FA002854D00446324B1B787E
:1031300013F0040F4FD0314A3149204613F072FC8E
:103140002D4B1B7813F0010F47D02C4A2D492046F8
:1031500013F068FC284B1B7813F0020F3FD0274A6E
:103160002949204613F05EFC234B1B7813F0080F0F
:1031700037D0224A2549204613F054FC24492046E2
:1031800013F050FC1C4B1B7913F0040F2BD01B4A7F
:103190002049204613F046FC174B1B7913F0010F12
:1031A00023D0164A1C49204613F03CFC124B1B79D5
:1031B00013F0020F1BD0114A1849204613F032FCBD
:1031C0000D4B1B7913F0080F13D00C4A14492046FD
:1031D00013F028FC10BD134AAEE7124AB6E7114AB5
:1031E000BEE7104AC6E70F4AD2E70E4ADAE70D4AB1
:1031F000E2E70C4AEAE700BF48210320E439080867
:10320000EC390808043A08081C3A0808343A080857
:103210004C3A08086C3A0808843A08089C3A0808AE
:10322000B43A0808DC3908082DE9F04383B00024DB
:1032300001940094454EA022214630461BF044F8EC
:10324000DFF8389127252A46214648461BF03CF8EE
:103250003F4F2A46214638461BF036F83D4D2C603C
:103260006C60AC60EC602C616C61AC6105F11C08B9
:103270005422214640461BF027F8C9F80D805423FC
:1032800089F8113089F812404FF0010889F80C8054
:10329000C7F80D501C237B74BC7487F80C803378FE
:1032A00043EA08033370DBB243F004033370737AEC
:1032B000052262F303037372274B1B68304698475D
:1032C000264F387033682B6773686B6705F170039E
:1032D0002348C0F80D3004234374847480F80C80B4
:1032E0007435204EC6F80D507374B47486F80C8093
:1032F0001D4910F03FFF1D49304610F03BFF3B7861
:1033000033B1154BDB6801AA41461048984728B9EC
:10331000174B01221A6003B0BDE8F0839DF804202A
:10332000A5F1740383F87820BDF80620A3F87A206D
:1033300078331048C0F80D3004234374847480F847
:103340000C800D4910F016FFE2E700BF4821032072
:10335000F41303200000022040090320ED21032084
:10336000D415032024160320AC150320FC150320DC
:10337000E8210320BC140320E41403200C150320CF
:1033800000B599B0224B1B689847179005E0204B79
:103390009B68204A116817A898476420FFF798FE99
:1033A0001D4B1B78002BF2D01C4B5B681C489847C8
:1033B0000028ECD0194E33691A4C194D294668463D
:1033C00098475422694604F11C001AF055FF7369AE
:1033D000294668469847A646EC46BCE80F00AEE88A
:1033E0000F009CE807008EE807000F4D0F492846A4
:1033F00010F0C0FE0E4C0F49204610F0BBFE0E49E7
:10340000284610F0B7FE0D49204610F0B3FEBEE787
:10341000F4080320E8210320ED21032040090320C4
:1034200048210320000002200C15032094140320DF
:10343000F4130320A413032034150320CC1303201A
:1034400010B50346024A5468024A07CAA04710BD95
:10345000FC040320AC1D032008B1036903B17047CD
:10346000598001221A70FAE7002866D00269002A02
:1034700065D0B2F804C013899C4562D210B51178AA
:1034800051B1D1680888D188548801EB040E704589
:1034900002DC091B884256DAD0881B1A9BB2B2F8AC
:1034A00002E0A3EB0E031BB2A0EB0C0189B2A1EB6F
:1034B0000E0109B2D268128800EB0E04141B002C16
:1034C0001EDDA2EB0E02121A07EE902AF8EEE76A52
:1034D00007EE903AB8EEE77AC6EE877AB6EE007A53
:1034E00067EE877A9FED197A67EE877A9FED187AF3
:1034F00077EE877AFCEEE77A17EE903A98B210BD35
:10350000A0EB0E00801A002814DDA2EB0C0207EEDF
:10351000902AB8EEE77A07EE901AF8EEE76AC7EE5F
:10352000267AB6EE007A67EE877A9FED087A67EE24
:10353000877ADFE7DFED067ADCE7002070470020BE
:103540007047002070473220D9E700BF0000C84212
:1035500000004842054A9389128A9B1A9BB208B917
:103560000020704793FBF0F0704700BF302203202B
:1035700084B08DE80F000E4B187850B99DF80430D8
:103580000C4A1278934200D001200A4A137004B00A
:1035900070479DF80430074A1370054A00211170E6
:1035A00023B1044B1970024B01221A700020EEE780
:1035B00014000320AC2303202DE9F04389B0044616
:1035C0000D464FF00009C1F8009001274F700F70B1
:1035D000DFF86C80164A05AB07CA83E80700154A76
:1035E00002AB07CA83E807000197052300934B4607
:1035F000042249461048D8F80060B0470146D8F880
:103600000830284698472070277384F80D90A777D4
:10361000A4F82090D8F81460084901F1100301F1D2
:103620000E020C312846B047207009B0BDE8F08387
:10363000381E0320481E032000480040302203208B
:10364000C007032084B010B502AC84E80F00139CBF
:10365000002C00F092806422002120461AF034FEF3
:10366000099B23609DF8080084F85E009DF80D30EA
:1036700084F85F30002B67D19DF828302371002338
:103680000AE003F1100202A901EB4202518804EBA7
:103690004302D1800133DBB20F2BF2D9394B9A7C34
:1036A000103202A901EB4202B2F90220A4F846202E
:1036B000DA7C103201EB4202B2F90220A4F8482071
:1036C0001A7D103201EB4202B2F90220A4F84A201E
:1036D0005A7D103201EB4202B2F90220A4F84C20CC
:1036E000BDF8122084F84E20BDF8142084F84F2035
:1036F000BDF8162084F85020BDF8182084F8512019
:10370000B3F90C20A4F85220B3F90E20A4F85420E9
:10371000B3F91030A4F856309DF80C2094F85A30C4
:1037200062F3041384F85A3088B19DF80A20DBB2A2
:1037300062F3C30384F85A309DF80B20DBB262F3C6
:10374000820384F85A3002E0012384F85E309DF849
:10375000092094F85A3062F3410384F85A309DF8F6
:103760001A3084F8583094F85A3043F0010384F842
:103770005A30BDF81030A4F86030BDE8104004B0F5
:10378000704700BF302203202DE9F041BDF81C80B6
:10379000002838D00C4617461D460646002934D06E
:1037A0001D4BB3F910309D4231DB1B4BB3F90C308C
:1037B00098452FDC194B9B6A14209847014668B145
:1037C000C460A0F80880BDF81830C380858000234D
:1037D00043800370032F06D9002019E00F4BDB6AEA
:1037E0009847002014E007EB470306EBC3030124CE
:1037F00083F8644007EB4703DB005033F0180EF00A
:103800000CF9204604E0002002E0002000E0002047
:10381000BDE8F0810020FBE730220320F4080320FC
:1038200088426BD0F0B583B00D4616461C469042D8
:1038300066D0984266D0914266D0994266D09A424C
:1038400066D0344BD968344FB7F910C0B7F90E20A1
:10385000B7F90C309BB2019392B200921FFA8CF32D
:10386000002201EB400107F12400FFF78DFF10B9A2
:10387000002003B0F0BD274BD9683846B7F91030A7
:10388000B7F90E20B7F90C70BFB2019792B200924F
:103890009BB2012201EB45012430FFF775FF0028A0
:1038A000E6D01C4BD9681C48B0F91030B0F90E2096
:1038B000B0F90C50ADB2019592B200929BB20222C7
:1038C00001EB46012430FFF75FFF0028D0D0114BF9
:1038D000D9681148B0F91030B0F90E20B0F90C5089
:1038E000ADB2019592B200929BB2032201EB44016A
:1038F0002430FFF749FF0028BBD1B9E7002070470B
:103900000020B6E70020B4E70020B2E70020B0E7CF
:103910000020AEE7F021032030220320F8B5BDF8E7
:10392000187028B30C4616461D4619B3144BB3F94C
:1039300010309D4220DB124BB3F90C309F421DDC4E
:10394000104B9B6A14209847014660B1C460078100
:1039500085800124347534700023736030460EF086
:103960005CF8204609E0074BDB6A9847002004E03A
:10397000002002E0002000E00020F8BD0020FCE76D
:1039800030220320F40803202DE9F843BDF820700D
:10399000002836D00E4615461C46002933D01D4B54
:1039A000B3F910309C4230DB1A4BB3F90C309F4214
:1039B0002EDC194B9B6A142098478046B8B1164BF1
:1039C0009B6A142098478146B0B1C8F80C60A8F8EB
:1039D0000870A8F804402B7D01332B7541460EF08A
:1039E0001CF8494628460EF052F801200EE00A4B1A
:1039F000DB6A9847002009E0074BDB6A9847002004
:103A000004E0002002E0002000E00020BDE8F88390
:103A10000020FBE730220320F40803202DE9F041C9
:103A200082B00F4616469846424BD968424CB4F9CC
:103A30001030B4F90E50ADB200959BB204F1D4022F
:103A400001EB400104F12400FFF768FF10B902B058
:103A5000BDE8F081374BD9682046B4F90E30B4F98F
:103A60000C2092B200929BB204F5827201EB4601E7
:103A70002430FFF753FF0028E9D00320FFF76AFD49
:103A800004462D48B0F910309BB21D19ADB2294A39
:103A9000D1687E00009500F1EC0201EB4701243073
:103AA000FFF73CFF0028D2D02C44A4B2214BD968A8
:103AB000214800942B4600F1EC0231442430FFF7FA
:103AC00063FF0028C3D01C48B0F90C30194AD168F4
:103AD0009BB20093234600F1EC0231442430FFF7FF
:103AE00053FF0028B3D0134BD9681348B0F90E30F8
:103AF000B0F90C2092B200929BB200F58E729DF844
:103B0000204001EB44012430FFF708FF00289ED03D
:103B1000084BD9680848B0F90E30B0F90C2092B2C1
:103B200000929BB200F59A7201EB48012430FFF736
:103B3000F5FE8CE7F02103203022032030B583B05E
:103B40001D48B0F91040A4B204F16405ADB21B4B9E
:103B5000D9680095234600F5B27204312430FFF78E
:103B600013FF10B9002003B030BD144BD9681248C0
:103B70000095234600F5B27202312430FFF704FFAE
:103B80000028EFD00C480095234600F5B2720B498F
:103B9000C9682430FFF7F8FE0028E3D0074BD96846
:103BA00005480095234600F5B27206312430FFF730
:103BB000EBFE0028D7D1D5E730220320F0210320E7
:103BC00030B583B00023ADF802308DF800308DF8A9
:103BD000013018B104460346002513E0009B019311
:103BE0002CE0BDF8021001228A402A43D5B29DF88C
:103BF000002001328DF80020BDF802200132ADF81E
:103C00000220DB685BB11A69002AEAD0D168098812
:103C100010898142F0D892889142EDD3E1E728469D
:103C20000EF05BFD012814D00023ADF802309DF8A2
:103C30000020237D9A4212D0009B01930020BDF802
:103C4000043063F30F00BDF8063063F31F4003B088
:103C500030BD28460EF036FDADF80200E7E701233F
:103C60008DF80130E8E70000F0B5A1B006460D463A
:103C7000174600211691179118911991442205A811
:103C80001AF022FB0DB307B32B78F3B1744BDB684A
:103C90006C463946204698470DF1580C94E80F00C1
:103CA0008CE80F009DF86530002B40F0B680BDF821
:103CB00060306B82BDF86230AB826B68AB62694B7F
:103CC0009B7885F82C30002411E0442200213046F6
:103CD0001AF0FAFA304621B0F0BD179B33F91420E0
:103CE00004F1140305EB4303DA800134E4B2BB783A
:103CF000A3420ED9032CF0D804EB4400C00050308E
:103D00002844FFF7B1FB04F1080305EB4303D88017
:103D1000E3E705F1F800FFF753FF1A909DF86930CB
:103D20002B7405F1E000FFF74BFF1B909DF86D3001
:103D30006B7305F1B000FFF743FF1C909DF87130E5
:103D40002B7305F1C800FFF73BFF1D909DF87630FF
:103D5000AB77022B01D90123AB772B7B002B3CD116
:103D60000023AB73EB73169B6B60AA689A1A6A62A6
:103D7000AB6000236B743C4B93F8203053B13A4B4B
:103D800093F8213013B12B7B002B3AD0364B002215
:103D900083F82020344BDB7E23B12B7B002B38D1E2
:103DA00001232B732B7B5BB92F4B93F821303BB155
:103DB000EB8A042B04D90023EB822C4B01221A70CE
:103DC0002A4B1B780BB101232B732A7B264B83F8DC
:103DD00021200020FFF734FB35E0244B00221A702D
:103DE00005F5A070FFF7ECFE1E909DF87930AB73DF
:103DF00005F58870FFF7E4FE1F909DF87D30EB73AA
:103E0000B1E701236B74442205A930461AF034FA55
:103E100060E7154B0022DA76C4E701236B742B733D
:103E200000236B7307E003F1080205EB4202002157
:103E3000D1800133DBB2032BF5D901200A4B83F883
:103E40002000FFF7FDFA4424224605F10C0105A8E5
:103E50001AF012FA224605A930461AF00DFA39E78F
:103E6000C0070320F021032030220320AD230320CC
:103E7000F0B583B00546374C4FF4BE7200212046A2
:103E80001AF022FA344B1B68984720600123A37470
:103E90000223E37403232375002363750423A375AE
:103EA0000523E37506232376072363760823A37689
:103EB0002A4904F12400FFF77FFB38B1274B1B7818
:103EC000012B0AD0234B012283F82120214B012210
:103ED000DA76234B1D6003B0F0BD637D227DE17C6B
:103EE000A07CFFF79DFC0028ECD0637E0093A37EAE
:103EF000E27D217EA07DFFF791FD0028E2D0FFF753
:103F00001DFE0028DED0012684F83060642104F113
:103F10008C00FFF7A1FA642104F1A400FFF79CFADA
:103F2000642104F1BC00FFF797FA0E4C2722002110
:103F300020461AF0C9F90C4F6422002138461AF0C5
:103F4000C3F9C4F80D70642363740023A37426734B
:103F5000B8E700BF30220320F4080320F02103203B
:103F60002C2203205C1503207C00022000B5B5B094
:103F7000304B1B689847339000218DF8CB104422BA
:103F800021A81AF0A1F909E02B492C4810F0F2F809
:103F9000284B9B682A4A116833A89847294B1B690C
:103FA0000DF1CB0098470028F2D09DF8CB30002BC4
:103FB000EED1254A25490EA8FFF756FE21AC442232
:103FC0000EA920461AF058F9214B0D93EC460DF13D
:103FD000940EBEE80F00ACE80F00BEE80F00ACE89E
:103FE0000F00BEE80F00ACE80F00DEF80030CCF8A0
:103FF000003094E80F00FFF725FBEC460DF1940E1E
:10400000BEE80F00ACE80F00BEE80F00ACE80F0000
:10401000BEE80F00ACE80F00DEF80030CCF800304E
:1040200094E80F00FFF7A4FA0028ADD003F094FF46
:10403000AAE700BFF4080320841503205C150320C1
:104040002C22032090080320F02103205422032077
:104050007C000220022801D000207047084B9B788A
:104060008B4209D9064B9B6B01EBC10103EB81002D
:1040700013F8213013B170470020704700207047BB
:10408000FC28032060B110B50C46426812B10378D9
:10409000012B00D010BD034B1B6898472060F9E747
:1040A000704700BFF408032030B587B005460DF116
:1040B000040C8CE80E0001238DF81730134B5B6D58
:1040C0000DF117009847044610B19DF8174014B938
:1040D000204607B030BD0E4B1D700A9A1A619DF83C
:1040E0002C201A7565B900221A611A75094D2B6BBF
:1040F0009847064BDB68012098476B6B9847E7E7CA
:10410000054B01AA07CA83E80700E1E790080320EE
:10411000BC380320F4080320C0380320F0B585B074
:1041200000238DF807308DF8063002238DF8083013
:10413000344B5B690DF106009847334B1B78002B1D
:104140005ED0304B5B6D0DF1070098472F4B1B681D
:104150001A7822B302228DF8092003932C4E2D4D9C
:104160002D4C2B4602AA21462C487769B8472B468E
:1041700002AA21462A487769B8472B4602AA214657
:1041800028487769B8472B4602AA2146264877690E
:10419000B84776692B4602AA21462448B047244BEB
:1041A0001B7A002B2CD001238DF80930214B1B6882
:1041B0000393174E174D184C2B4602AA21461E4852
:1041C0007769B8472B4602AA21461C487769B84749
:1041D0002B4602AA21461A487769B8472B4602AAFD
:1041E000214618487769B8472B4602AA2146164847
:1041F0007769B84776692B4602AA21461348B0472B
:1042000005B0F0BD9008032040280320F02E0320C5
:1042100074080320ED4704083C0003201C2A0320F7
:10422000542A0320E4290320382A0320C829032024
:10423000FC28032038340320642F03209C2F032004
:10424000102F0320802F0320F42E03202C2F032077
:1042500008B1012070470020704708B10120704765
:104260000020704700B583B001238DF8073040B1BE
:10427000064B5B6D0DF10700984710B99DF80700DC
:1042800000B9002003B05DF804FB00BF90080320D4
:1042900000B583B001238DF8073040B1064B5B6D4C
:1042A0000DF10700984710B99DF8070000B90020EC
:1042B00003B05DF804FB00BF9008032000B583B095
:1042C00001238DF8073040B1064B5B6D0DF10700FF
:1042D000984710B99DF8070000B9002003B05DF8B9
:1042E00004FB00BF9008032000B583B001238DF8C4
:1042F000073040B1064B5B6D0DF10700984710B9D0
:104300009DF8070000B9002003B05DF804FB00BF72
:104310009008032000B583B001238DF8073040B129
:10432000064B5B6D0DF10700984710B99DF807002B
:1043300000B9002003B05DF804FB00BF9008032023
:1043400000B583B001238DF8073040B1064B5B6D9B
:104350000DF10700984710B99DF8070000B900203B
:1043600003B05DF804FB00BF900803202DE9F04F77
:1043700083B0044B5B689847022805D0002003B047
:10438000BDE8F08F740803200024ADF804408DF8D8
:104390000640DFF83CB3CBF80040CBF80440CBF844
:1043A0000840CBF80C40CBF81040CBF81440CBF8C9
:1043B0001840DFF82093C9F80040C9F80440C9F854
:1043C0000840C9F80C40C9F81040C9F81440C9F8B1
:1043D0001840A54F3C607C60BC60FC603C617C6127
:1043E000BC61A24B1C605C609C60DC601C615C6119
:1043F0009C619F4B1C605C609C60DC601C615C612C
:104400009C619C4B1C605C609C60DC601C615C611E
:104410009C61DFF8C482C8F80040C8F80440C8F8BE
:104420000840C8F80C40C8F81040C8F81440C8F854
:104430001840914E34607460B460F460346174610B
:10444000B4618E4B1C605C609C60DC601C615C61D4
:104450009C618B4B1C605C609C60DC601C615C61DF
:104460009C614FF0010A8DF804A08DF805A0854DE0
:10447000EB680A220199584698472B6951465846DD
:104480009847EB680A2201997A4898472B69514668
:10449000784898478DF804A04FF002038DF8053056
:1044A0008DF80640EB680A220199484698472B6927
:1044B000514648469847EB680A220199404698477A
:1044C0002B695146404698478DF804A04FF00803E9
:1044D0008DF805308DF80640EB68142201993846B6
:1044E00098472B69514638469847EB681422019942
:1044F000304698472B695146304698478DF804A0BE
:104500004FF009038DF805308DF80640EB680A225C
:104510000199564898472B69214654489847EB68BB
:104520000A220199554898472B69214653489847D4
:1045300004238DF804300C238DF805308DF80640E7
:10454000EB68142201994A4898472B69514648481C
:104550009847EB6814220199494898472B695146BE
:10456000474898478DF804A04FF0060B8DF805B02A
:104570008DF80640EB68444E142201993046984766
:104580002B695146304698478DF804A04FF0070933
:104590008DF805908DF80640EB683C4E6422019939
:1045A000304698472B69514630469847EB68384E5D
:1045B00064220199304698472B6951463046984706
:1045C000344E354B354A08213046AF69B847344B35
:1045D000344A09213046AF69B847334B334A052185
:1045E0003046AF69B847324B324A59463046AF6918
:1045F000B847DFF8E880304B424649463046AE695E
:10460000B0472E4E2E4B2F4A51463046AF69B84721
:104610002B4F07F110032C4A21463046AC69A047C6
:10462000AC6907F11C03294A02213046A047AC6956
:1046300007F12403194A08213046A047AC6907F165
:104640004003184A09213046A047AC6907F15C03D2
:10465000164A05213046A047AC6907F17803154A90
:10466000594630463CE000BF802F0320482F0320EE
:10467000102F03201C2A0320382A0320002A03209D
:10468000E4290320740803202C2F0320F42E032098
:10469000C8290320B02703206C2803209142040876
:1046A00088280320BD420408A4280320E942040806
:1046B000C028032015430408DC28032038290320E0
:1046C00048280320514204085B420408654204085C
:1046D000642F03209C2F0320542A03204143040805
:1046E000A047AC6907F19403424649463046A047CB
:1046F000504644E62DE9F04120B30E4615460746E4
:1047000021B32AB30478F4B1036A1BB3806918B3E8
:10471000124B93F80180B8F1000F01D0002412E091
:10472000002111F000FA0E4BDB692A463146386A47
:104730009847044638B10521B86911F0F4F910B171
:10474000444600E000242046BDE8F0810024FAE75A
:104750000024F8E70024F6E70024F4E7FC2803200F
:10476000DC16032070B5134B1C7A44B106460D4687
:104770005C7824B19869C0B1CEB111B9002420464B
:1047800070BD002111F0CFF90B4B9B6829463046D4
:10479000984708B10024F2E70521064B986911F00B
:1047A000C2F90028EBD00024E9E70024E7E7002461
:1047B000E5E700BFFC280320601B032090B108B58B
:1047C00059B1094A1278012A09D0022A05D10A46AC
:1047D0000146054B5868FFF78DFF002008BDFFF725
:1047E000C1FFFAE70020704718000320D8B108B5D0
:1047F0000B4601460078022800D008BD4868002812
:10480000FBD0002BF9D0002AF7D04978012905D038
:104810000229F2D11946FFF76DFFEEE7114618465F
:10482000FFF7A0FFE9E7704708B50A4B1B690BB11A
:1048300000B101B908BD074A127D012A07D0022A3A
:10484000F8D10A4601461846FFF754FFF2E7FFF792
:1048500089FFEFE7BC38032050B330B583B004467E
:10486000144B1B680C30984718B10023237203B017
:1048700030BD01212172002300930193684611F09D
:1048800026F9A06188B10B4D2B690B489847EB685E
:104890000A4898476B690A48984704F1080323615E
:1048A00001222273074A1360E1E700232372DEE747
:1048B000704700BF601B03205D4B0408A14904083A
:1048C000854004083834032000285FD0F0B583B059
:1048D0000446012383702E4B8363002538E0A36BCD
:1048E00001219955A26B3244002353609360D36039
:1048F000A26B324413615361A26B324402201071E7
:10490000A26B32445571A26B3244101D126A90643E
:1049100000930193A76B3744684611F0D8F8B8614B
:10492000A26B93199969002928D01A4F3A6A1A493B
:10493000186A90477A6AA36B33441849186A9047FB
:10494000A36B33449B60A36B01229A550135EDB2F2
:10495000A378AB4218D90F4B1968A36B05EBC502BE
:10496000960003EB8203186A88470028B7D1A36B2F
:1049700000229A55A378013BA370E7E700239355E3
:10498000A378013BA370E1E703B0F0BD704700BF1F
:10499000B4000320DC160320A14904085D4B040881
:1049A000F0B585B00023624C23608DF8033091B1DF
:1049B000064615460C4672B168B15E4B5B690DF157
:1049C000030098475C4B1B689847B0603378012B15
:1049D00003D0022B12D005B0F0BD554B574A1A60D8
:1049E0009DF80330EBB1564B1B780BB1554F19E0D6
:1049F00029462046FFF7B6FE524F13E04C4B524A71
:104A00001A609DF80330002B5CD04D4B1B780BB126
:104A10004E4F07E02A4621467068FFF76BFE4B4F6A
:104A200000E0484FBB88E918FA8891424CDC3868AE
:104A30002A462146184419F01FFCBB882B449BB220
:104A4000BB803F4A1278002A46D1414A94683A68AE
:104A50003749096801A8A0479DF80430002BBAD057
:104A60009DF803301BB99DF80530022B4CD09DF802
:104A70000530012BAFD1374B5B6813B1726893429D
:104A8000A9D1344B9A689388B9880B44D288934251
:104A9000A1DC284B9B680120984732782D4B1A7077
:104AA00072685A609C682068A388BDF80C2002993F
:104AB000184419F0E1FBBB88A2881344A3800023AB
:104AC000BB8088E7214FADE71A460021386819F00E
:104AD000FBFB0023BB807EE7194A11697268914293
:104AE000B3D11D4B5C69144B1B689847BA88396871
:104AF000A04700283FF46FAFFA880021386819F00A
:104B0000E3FB0023BB8066E7BA88BDF80C40A242F5
:104B100009D9121B02992144386819F0BBFBBB88E4
:104B20001B1BBB80A3E70021386819F0CDFBF6E71B
:104B3000F828032090080320F4080320B02703205E
:104B4000BC380320D800032038290320E0000320CC
:104B500074080320180003207C11032018B310B53B
:104B6000446824B10378012B02D0022B13D010BD6E
:104B70002378002BFBD020690028F8D014340028BB
:104B8000F5D0002CF3D010F0FDFF0028EFD0236803
:104B900001332360EBE72378002BE8D0A0690028DD
:104BA000E5D01C34EBE7704700B583B0124B1B68AF
:104BB000984700238DF80730104A5370104BDB697B
:104BC00023B1104A116898470C4B58700E4B9B69E3
:104BD0000DF107009847094B5B789DF80720934239
:104BE00002D103B05DF804FB084A13700849094874
:104BF0000FF0C0FAF5E700BFF4080320FC280320FB
:104C0000601B03204428032090080320E0000220BA
:104C10004C16032074160320F0B583B011F03CFD50
:104C200010B30646114B9B681A68EAB19F88DFB142
:104C30000F4B5B6D0DF1070098479DF807309BB156
:104C400000240FE0094DAB681B68195D304612F077
:104C5000D3FCAB681A68002111559A88013A9A80F2
:104C60000134A4B2A742EDD803B0F0BD1800032070
:104C70009008032070B50546334B1B6898470446DF
:104C800011F00AFD0646314B5B68314920469847D2
:104C9000431E072B27D8DFE803F027260E263F26E2
:104CA000260425B11EB12B49304611F0BBFE2A491E
:104CB000304611F0B7FE25B11EB12849304611F03B
:104CC000B1FE274A0024134603F8044B54605C608D
:104CD0009C6014611C4D2B6B9847224BDB6820466F
:104CE00098476B6B984770BD7DB176B1164C636881
:104CF0000A2098471C49304611F094FE1B49304663
:104D000011F090FE636814209847154B00221A702A
:104D10000D4B5B6C9847E6E70C4BDB684FF400717A
:104D2000134898470028DED04DB146B1064B5B686A
:104D30000A2098470E4A0F49304611F073FE034B84
:104D40001B699847CFE700BFF40803207C110320BC
:104D500029480408C0590808F03A0808143B080814
:104D6000BC38032090080320283B0808483B08086B
:104D7000B0230320683B080838B511F08DFC98B1CA
:104D800004460A4911F04EFE094D2B6B9847094B1A
:104D90009B68002098476B6B98470749204611F0A5
:104DA00041FE064B00225A6038BD00BF7C3B08081C
:104DB000F408032090080320843B0808180003200F
:104DC00030B587B0054611F067FC002303930493C8
:104DD0000593002858D00446314911F023FE31498B
:104DE000204611F01FFE3049204611F01BFE2F49CE
:104DF000204611F017FE2E49204611F013FE2D49D2
:104E0000204611F00FFE012D0AD0022D3ED02A4976
:104E1000204611F007FE2949204611F003FE33E039
:104E20002749204611F0FEFD2649204611F0FAFDE3
:104E30008DF80C5001208DF80D00234B1A788DF859
:104E40000E205A788DF80F209B788DF810301F4B6C
:104E50001A788DF811205A788DF812209B788DF8E9
:104E60001330002305931A4B1A7801925B68009364
:104E700006AB13E90E00FFF717F960B1154B9C68FC
:104E8000154B93E80700A04707B030BD13492046F3
:104E900011F0C8FDC8E71249204611F0C3FDEDE747
:104EA0007C3B0808983B0808B43B0808D43B08083A
:104EB000F43B0808C0590808503C0808643C08083E
:104EC000143C08087C3C08083C5508084055080874
:104ED000180003207C110320C0380320303C080850
:104EE000903C080870B50546274B05221A60274CF0
:104EF0003C220021204619F0E7F990263246002195
:104F0000234819F0E1F932460021224819F0DCF972
:104F1000B0220021204819F0D7F92046FFF79CFC69
:104F20002046FFF7D1FC00210220FFF793F81B4B2E
:104F3000186001232370FFF719FA194B18706B1EC4
:104F4000042B01D8104B1D60164BDB68DA881968FA
:104F5000154811F097FB154D27220021284619F01E
:104F6000B3F9134B00241C70C5F80D3001236B748A
:104F7000AC74104B5B683220984701232B730E4AA8
:104F800054609460D46070BD44280320FC28032042
:104F9000B02703203829032048280320F02E0320BF
:104FA0004028032018000320BD470408741603207E
:104FB000E0000220F4080320BC38032000B583B0D1
:104FC000134B1B689847019000238DF803300CE0C9
:104FD000FFF722FE03E09DF80300FFF74BFE0C4BAA
:104FE0009B680C4A116801A89847FFF7DDFD0A4B42
:104FF0005B690DF103009847084B1B78002BEAD141
:105000009DF80330002BE3D1FFF788F8E7E700BFF6
:10501000F40803204428032090080320BC38032010
:1050200084B00DF1040C8CE80E0080B1019A42614D
:10503000029A8260039AC260049AC261059A42622F
:10504000069A0262079A0263012004B070470020AA
:10505000FBE7000058BB1E4B93F8D70160BB1C4B0D
:1050600093F8D831012B30D0022B2FD0F2EE047AF6
:10507000B4EEE70AF1EE10FA14DCFAEE047AB4EEBC
:10508000E70AF1EE10FA0DD4F2EE047AF4EEE70A34
:10509000F1EE10FA06DCFAEE047AF4EEE70AF1EE2D
:1050A00010FA0DD50A4B022283F8D8217047002050
:1050B000074B83F8D8017047012283F8D821704745
:1050C0000120034B83F8D80170470120704700BFCF
:1050D000E800032000B583B0002300930193D8B10A
:1050E00090F89C21ADF80020D0ED9D7AFDEEE77A96
:1050F00017EE902AADF80220D0EDAD7AFDEEE77AFA
:1051000017EE902AADF80420D0EDBD7AFDEEE77AD7
:1051100017EE903AADF80630034B1B696846984786
:1051200003B05DF804FB00BF3808032084B00DF124
:10513000040C8CE80E00C36C07EE903A436D06EE4B
:10514000903AF4EEE67AF1EE10FA40F20B81036D3C
:1051500007EE103AF4EEC76AF1EE10FA80F205811C
:10516000F4EEC77AF1EE10FA40F2018177EEC77AD9
:1051700037EE667A9DF8533006EE903AF8EEE66A1E
:105180009FED886A76EEC66ADFED875A86EEA56ADD
:1051900080ED6B6AB5EEC06AF1EE10FAC0F2C8801D
:1051A00066EE277AC0ED6B7A836D07EE903A036E58
:1051B00006EE903AF4EEE67AF1EE10FA40F2D9807B
:1051C000C36D07EE103AF4EEC76AF1EE10FA80F202
:1051D000D280F4EEC77AF1EE10FA40F2CE8077EE8C
:1051E000C77A37EE667A9DF8543006EE903AF8EEBC
:1051F000E66ADFED6C5A76EEE56A9FED6B5AC6EE15
:10520000855AC0ED6C5AF5EEC05AF1EE10FAC0F2B4
:10521000948065EEA77AC0ED6C7A436E07EE903A03
:10522000C36E07EE103AF4EEC77AF1EE10FA40F2D0
:10523000A680836E06EE903AB4EEE67AF1EE10FAAE
:1052400080F29F80F4EEE67AF1EE10FA40F29B8055
:1052500077EEE67A36EEC77AC0ED685AF5EEC05AB8
:10526000F1EE10FA6EDB65EEA75AC0ED685A036FD7
:1052700007EE903A836F07EE103AF4EEC77AF1EE3C
:1052800010FA40F28280436F06EE903AB4EEE67A6E
:10529000F1EE10FA7BDAF4EEE67AF1EE10FA78D954
:1052A00077EEE67A36EEC77A80ED696AB5EEC06AC7
:1052B000F1EE10FA4BDB26EE276A80ED696AC36FC8
:1052C00007EE903AD0F8843006EE903AF4EEE67AA3
:1052D000F1EE10FA5FD9D0F8803007EE103AF4EE14
:1052E000C76AF1EE10FA58DAF4EEC77AF1EE10FA66
:1052F00055D977EEC77A37EE667A9DF8553006EEC7
:10530000103AB8EEC66ADFED276A36EE666ADFED60
:10531000265AC6EE256AC0ED6A6AF5EEC06AF1EE5D
:1053200010FA19DB66EEA77AC0ED6A7A01201AE05E
:1053300026EE077A80ED6B7A36E725EE877A80EDE8
:105340006C7A6AE765EE875AC0ED685A8FE726EEF9
:10535000076A80ED696AB2E726EE877A80ED6A7A9D
:10536000012000E0002004B070470020FBE700208F
:10537000F9E70020F7E70020F5E70020F3E7002039
:10538000F1E70020EFE70020EDE70020EBE7002049
:10539000E9E70020E7E70020E5E70020E3E7002059
:1053A000E1E700BF000048420000C84230B5B3B09A
:1053B0000446C8252A460021684618F085FF2A4A77
:1053C00000922A4B0293039205932948069029499B
:1053D000089109900B910C900E911092119326490F
:1053E0000F91DFED267ACDED127ADFF8A4E0CDF84B
:1053F0004CE0234814904FF07E5CCDF854C01792D7
:1054000018931691CDED197ACDF868E01B90CDF880
:1054100070C0DFED1C7ACDED1E7ADFF878E0CDF8B4
:105420007CE01D919FED187A8DED207A21922293D8
:1054300016482390CDED257ACDF898E024918DED96
:10544000277A289229932A90CDED2C7ACDF8B4E0D2
:10545000CDF8ACC031902A466946204618F00CFFC2
:10546000204633B030BD00BF0000F0410000F0C165
:1054700000004844000048C49A99993F0AD7A33DC8
:10548000000048C20000C8426F12033BCDCCCC3DA7
:10549000000048420000C8C22DE9F043ADF53B7D55
:1054A000C8252A46002188A818F00EFF002454942D
:1054B00055942A46214656A818F006FF804F07F15A
:1054C0000709452632462146484618F0FDFE07F5F5
:1054D0008A7832462146404618F0F6FE794C6368D9
:1054E000794A022142A89847324642A9484618F014
:1054F000C3FE6368754A022142A89847324642A912
:10550000404618F0B9FE10A8FFF750FF2A4610A930
:1055100088A818F0B1FE2A4688A956A818F0ACFE53
:10552000D7F80730002B7AD1A4682B4688AA6649A1
:105530000220A04756AC624DC822214605F14C001E
:1055400018F09AFEEC46A06CE16C226D636DACE83D
:105550000F00E16B226C636C05F50970FFF760FDCD
:10556000EC46606EA16EE26E236FACE80F00A16D99
:10557000E26D236E05F5F270FFF752FDEC46D4F8AC
:105580008000D4F88410D4F88820D4F88C30ACE8AB
:105590000F00616FA26FE36F05F51970FFF740FD13
:1055A000EC46D4F89C00D4F8A010D4F8A420D4F889
:1055B000A830ACE80F00D4F89010D4F89420D4F8B8
:1055C000983005F52970FFF72BFDEC46D4F8B800AC
:1055D000D4F8BC10D4F8C020D4F8C430ACE80F0024
:1055E000D4F8AC10D4F8B020D4F8B43005F5397044
:1055F000FFF716FD364B9B6810A89847109A119B31
:10560000C5F85921C5F85D31D5F814311BB1B5F88D
:105610004831082B26D00DF53B7DBDE8F083284BA3
:10562000B3F83B30C82B01D056AC84E7254B1F693B
:10563000234EC8230E9388AB0D936C4606F11805D4
:105640000FCD0FC40FCD0FC40FCD0FC42B68236037
:1056500006F10C030ECB0220B84708B156AC6AE73E
:1056600088AC68E7174BD3F8108008220E9254AA32
:105670000D92D5F81991D5F81DE1D5F821C105F2A3
:1056800025146E4605F25517354620686168A268F4
:10569000E3680FC510342E46BC42F5D1206828605F
:1056A0004946724663460220C0470028B3D1044AE7
:1056B00054AB03CBC2F85901C2F85D11ABE700BF90
:1056C000E800032034120320F43C0808043D0808D5
:1056D0003808032030B5B3B00446C8252A46002157
:1056E000684618F0F1FD374BD3F838220F92D3F803
:1056F0002C221092D3F830221192D3F84022129229
:10570000D3F848221392D3F844221492D3F85422A7
:105710001592D3F8F8211692D3F8EC211792D3F80A
:10572000F0211892D3F800221992D3F808221A9285
:10573000D3F804221B92D3F814221C92D3F87822B7
:105740001D92D3F86C121E91D3F870221F92D3F8D9
:1057500080022090D3F888022190D3F8840222900E
:10576000D3F894022390D3F8B8022490D3F8AC0273
:105770002590D3F8B0022690D3F8C0022790D3F832
:10578000C8022890D3F8C4022990D3F8D4022A90F2
:10579000D3F8F8022B902C912D92D3F800232E925F
:1057A000D3F808232F92D3F804233092D3F814337C
:1057B00031932A466946204618F05EFD204633B0F4
:1057C00030BD00BFE800032008B90020704710B5C5
:1057D0000446D0ED6B0A90ED6E0A00F50970FDF7F6
:1057E000EDFAD4ED6C0A94ED6F0A04F5F270FDF752
:1057F000E5FA012010BD08B90020704710B5044635
:10580000D0ED9A0A90ED5E0A00F51970FDF7D6FA10
:10581000D4EDAA0A94ED5F0A04F52970FDF7CEFADB
:10582000D4EDBA0A94ED600A04F53970FDF7C6FAB2
:10583000012010BD2DE9F04196B0B04B1B78002B34
:1058400000F00E810446002800F00A81AB4D58227A
:1058500000F10C01684618F00FFD94E80E00284690
:10586000FFF764FC94F85E8094F85F20A44B1A70F4
:1058700000266E70A34B83F804805A7194F84E2072
:10588000DA7194F858209A71D5F8AC219A60D5F85D
:10589000B021DA60D5F8A0211A61D5F8A4215A61A7
:1058A000D5F8A8219A61984F984938460EF062FCC5
:1058B000974938460EF05EFC964B9F6B964B0693CD
:1058C000059605F5C073049305F5BE73039305F5BE
:1058D000BC73029305F5BA73019305F5B873009391
:1058E00005F5B673324631468C48B847002800F0BB
:1058F000B7808B4B1B78002B00F0B280854B5E6C21
:1059000005F5EB73049305F5E873039305F5E6736A
:10591000029305F5E473019305F5E273009305F531
:10592000E07305F5DE7205F5DC717E48B0477E4B0D
:105930001870D5ED6F0A95ED6E0A4046FFF78AFBA9
:1059400095F8D831012B40F08B80744B1B68002BED
:1059500000F08C80D5F86421934210D9002185F89D
:105960006211C5F864316C4B1B78002B6AD0013B87
:10597000052B6BD8DFE803F0146A106A103D5F4A0C
:1059800092F862310133DBB282F86231092BEAD935
:10599000134601225A7063E0584B01225A705FE0AF
:1059A000564A92F8E0310133DBB282F8E031092B3C
:1059B00001D800231AE0134601225A7050E04F4AE2
:1059C00003F1600102EB8101486803F15A0102EB27
:1059D0008101486003F1640102EB8101096803F170
:1059E0005E0002EB800211600133DBB2022BE6D9CC
:1059F0002CE0424B93F86131042B1FD801333F4A0E
:105A000082F86131002316E03C4A03F1600102EBA9
:105A10008101486803F15A0102EB8101486003F1FA
:105A2000640102EB8101096803F15E0002EB800270
:105A300011600133DBB2022BE6D907E02F4B0122C4
:105A4000DA7003E02D4B002283F8E0212B4B9B788A
:105A500013B12A4BDB781BB9284B93F8D63193B19D
:105A6000324BDB68984716B0BDE8F081234A92F8C4
:105A7000E0310133DBB282F8E031092BF0D9134673
:105A800001225A70ECE794F84E201C4B83F89C21BD
:105A900094F85830C3B1194BD3F8A021C3F8682249
:105AA000D3F8A421C3F8A822144CD4F8A831C4F820
:105AB000E8322046FFF79FFE2046FFF70BFB164B10
:105AC0001B78002B4BD0CEE70C4CD4F8B031C4F887
:105AD000E831D4F8AC31C4F828322046FFF774FE20
