:020000040800F2
:10000000000002208975030835D0020837D00208A5
:1000100039D002083BD002083DD0020800000000A1
:100020000000000000000000000000003FD00208B7
:100030004BD00208000000004DD0020855D0020845
:10004000D9750308D9750308D9750308D97503084C
:10005000D9750308D9750308B9D00208C3D00208BE
:10006000CDD00208D7D00208E1D0020875D102082D
:100070008DD10208A5D10208BDD10208D5D1020850
:10008000EDD10208D9750308D9750308D97503089D
:10009000D9750308D9750308D9750308EBD0020890
:1000A000D9750308D9750308D9750308D9750308EC
:1000B000D9750308D9750308D9750308D9750308DC
:1000C000D9750308D9750308D9750308D9750308CC
:1000D000D9750308D9750308D9750308D9750308BC
:1000E00011D10208D975030800000000D975030872
:1000F000D9750308D9750308D9750308D97503089C
:10010000D975030845D10208D9750308D9750308C4
:1001100005D20208D9750308D9750308D9750308F3
:10012000D9750308D9750308D9750308D97503086B
:10013000D9750308D9750308D9750308D97503085B
:1001400000000000000000000000000000000000AF
:10015000D9750308D975030865D1020829D20208A8
:10016000D9750308D9750308D9750308D97503082B
:10017000D9750308D9750308D97503080000000074
:10018000D9750308D97503084DD20208D97503083B
:10019000D9750308D9750308D9750308D9750308FB
:1001A000D9750308D9750308D9750308D9750308EB
:1001B000D9750308D9750308D9750308D9750308DB
:1001C000D9750308D9750308D9750308D9750308CB
:1001D000D9750308A9D00208D9750308D975030891
:1001E000D9750308D9750308D9750308D9750308AB
:1001F000D9750308D9750308D9750308D97503089B
:10020000D9750308D9750308D9750308D97503088A
:10021000D9750308D9750308D9750308D97503087A
:10022000D9750308D975030855D1020800000000EC
:10023000D9750308D975030800000000D9750308B3
:10024000D9750308D9750308D9750308D97503084A
:10025000D9750308D9750308D9750308D97503083A
:10026000D9750308D9750308D9750308D97503082A
:10027000D9750308D9750308D97503080000000073
:10028000D9750308D9750308D97503080000000063
:0802900000000000D97503080D
:100298000000000000000000000000000000000056
:1002A8000000000000000000000000000000000046
:1002B8000000000000000000000000000000000036
:1002C8000000000000000000000000000000000026
:020000040802F0
:100A000010B5054C237833B9044B13B10448AFF348
:100A100000800123237010BD783100200000000009
:100A20008880030808B5034B1BB103490348AFF3A3
:100A3000008008BD000000007C3100208880030891
:100A400010F8012B11F8013B012A28BF9A42F7D078
:100A5000D01A7047034613F8012B002AFBD1181A4D
:100A60000138704700000000000000000000000096
:100A700001F0FF01102A2BDB10F0070F08D010F84F
:100A8000013B013A8B422DD010F0070F42B3F6D153
:100A9000F0B441EA012141EA014122F007047FF06C
:100AA00000070023F0E80256083C85EA010586EAC3
:100AB000010685FA47F5A3FA87F586FA47F6A5FAFF
:100AC00087F68EB9EED1F0BC01F0FF0102F007020B
:100AD00032B110F8013B013A83EA010313B1F8D1B6
:100AE0000020704701387047002D06BF3546033897
:100AF000073815F0010F07D1013015F4807F02BFD0
:100B0000013015F4C03F0130F0BC0138704700BF20
:100B100080F0004002E000BF81F0004142001FBFB2
:100B20005FEA410392EA030F7FEA226C7FEA236CBB
:100B30006AD04FEA1262D2EB1363C1BFD2184140B0
:100B400048404140B8BF5B42192B88BF704710F046
:100B5000004F40F4000020F07F4018BF404211F0E9
:100B6000004F41F4000121F07F4118BF494292EA51
:100B7000030F3FD0A2F1010241FA03FC10EB0C007D
:100B8000C3F1200301FA03F100F0004302D549420A
:100B900060EB4000B0F5000F13D3B0F1807F06D3B7
:100BA00040084FEA310102F10102FE2A51D2B1F1AF
:100BB000004F40EBC25008BF20F0010040EA0300A4
:100BC0007047490040EB0000013A28BFB0F5000F24
:100BD000EDD2B0FA80FCACF1080CB2EB0C0200FADA
:100BE0000CF0AABF00EBC25052421843BCBFD04029
:100BF0001843704792F0000F81F4000106BF80F4A3
:100C000000000132013BB5E74FEA41037FEA226C65
:100C100018BF7FEA236C21D092EA030F04D092F030
:100C2000000F08BF0846704790EA010F1CBF002064
:100C3000704712F07F4F04D1400028BF40F00040C1
:100C4000704712F100723CBF00F50000704700F0E1
:100C5000004343F0FE4040F4000070477FEA226208
:100C600016BF08467FEA23630146420206BF5FEAD9
:100C7000412390EA010F40F4800070474FF00003D9
:100C800004E000BF10F0004348BF40425FEA000CA0
:100C900008BF704743F0964301464FF000001CE048
:100CA00050EA010208BF70474FF000030AE000BF9E
:100CB00050EA010208BF704711F0004302D54042DC
:100CC00061EB41015FEA010C02BF8446014600204E
:100CD00043F0B64308BFA3F18053A3F50003BCFA69
:100CE0008CF2083AA3EBC25310DB01FA02FC634416
:100CF00000FA02FCC2F12002BCF1004F20FA02F21D
:100D000043EB020008BF20F00100704702F120020F
:100D100001FA02FCC2F1200250EA4C0021FA02F270
:100D200043EB020008BF20EADC70704753B94AB9B0
:100D3000002908BF00281CBF4FF0FF314FF0FF30E3
:100D400000F06EB9ADF1080C6DE904CE00F006F8C4
:100D5000DDF804E0DDE9022304B070472DE9F04737
:100D6000089D04468C46002B40F083808A4217463B
:100D700047D9B2FA82F242B1C2F1200024FA00F05F
:100D80009140974040EA010C94404FEA1748230CE9
:100D9000BCFBF8F61FFA87FE08FB16C143EA0143C5
:100DA00006FB0EF1994209D9FB1806F1FF3080F0DD
:100DB0001981994240F21681023E3B445B1AA4B26B
:100DC000B3FBF8F008FB103344EA034400FB0EFECB
:100DD000A64509D93C1900F1FF3380F00581A645ED
:100DE00040F2028102383C4440EA0640A4EB0E0483
:100DF00000261DB1D4400023C5E900433146BDE8BB
:100E0000F08702B9FFDEB2FA82F2002A50D1CB1B82
:100E10004FEA174E1FFA87F80126B3FBFEFC210CA0
:100E20000EFB1C3341EA034108FB0CF38B4207D94C
:100E300079180CF1FF3002D28B4200F2E98084462F
:100E4000C91AA3B2B1FBFEF00EFB101143EA014434
:100E500008FB00F8A04507D93C1900F1FF3302D286
:100E6000A04500F2D9801846A4EB080440EA0C40E3
:100E7000BFE78B4209D9002D00F0B1800026C5E9FB
:100E8000000130463146BDE8F087B3FA83F6002E04
:100E90004AD18B4202D3824200F2B880841A61EBBD
:100EA000030101208C46002DA8D0C5E9004CA5E720
:100EB000C2F1200320FA03F6974001FA02F04FEA4C
:100EC000174ED9403043030CB1FBFEF61FFA87F8EA
:100ED0000EFB161143EA014306FB08F1994204FA9E
:100EE00002F409D9FB1806F1FF3C80F08D8099428D
:100EF00040F28A80023E3B445B1A81B2B3FBFEF0B3
:100F00000EFB103341EA034100FB08F38B4207D983
:100F1000791800F1FF3C73D28B4271D90238394401
:100F2000CB1A40EA064678E7C6F1200C03FA06F42D
:100F300022FA0CF31C4320FA0CF701FA06F34FEAED
:100F4000144E21FA0CF11F433B0CB1FBFEF91FFAC2
:100F500084F80EFB191143EA014109FB08FA8A459E
:100F600002FA06F200FA06F308D9611809F1FF3017
:100F700048D28A4546D9A9F102092144A1EB0A01C8
:100F8000BFB2B1FBFEF00EFB101147EA014700FBB8
:100F900008F8B84507D9E71900F1FF312ED2B84556
:100FA0002CD90238274440EA0940A7EB0807A0FBE8
:100FB00002894F45C64649461AD317D05DB1B3EBF7
:100FC0000E0267EB010707FA0CFCF2404CEA020242
:100FD000F740C5E9002700263146BDE8F0872E46D8
:100FE00028460BE70646E9E61846FDE64345E5D206
:100FF000B8EB020E69EB04010138DFE70846D2E7DF
:1010000060468DE78146B9E7664675E730464AE7B0
:10101000ACF1020C394413E702383C4424E700BF2A
:10102000704700BF08B54FF47A6007F00DFB00F081
:10103000BFF900F025FA07F04DFB08BD00B585B0FB
:1010400004AB03E90700064B5B6833B104AA12E95D
:101050000700984705B05DF804FB0020FAE700BFE1
:101060002401002000B585B00DF1100C0CE907003B
:101070001A46064BDB693BB1BDF80810019898474A
:10108000012005B05DF804FB0020FAE724010020F0
:1010900000B1FEE77047000070B582B0214B1B78AD
:1010A0002BB105460C46204B1B78012B11D91D4B4B
:1010B0001B78002B2DD01D4B1C6A1D4B1A7C8DF804
:1010C00000200FCBA047042827D0174B187802B078
:1010D00070BD164B1E6A164B1A7C8DF800200FCB84
:1010E000B047032809D0114B1E6A114B1A7C8DF8AA
:1010F00000200FCBB0470028D9D10B4E022333700C
:101100000A4B9B69224629460948984701203070BE
:10111000DDE70420044B1870D9E70320024B187058
:10112000D5E700BFA93500209435002064040020D5
:1011300098350020014B01221A707047AA35002013
:1011400008B50AF025FF08B9012008BD0020FCE71A
:1011500008B502480AF032FF08BD00BFF481030859
:101160002DE9F04782B0474C2368002102209847C0
:101170006368984702281FD0424B5B6898470AF083
:101180001DFE0446002876D03F4B9B684FF48052EA
:101190003E493F489847044600286FD001253D4B03
:1011A0001D703D480AF022FF3C4B1B693C49284614
:1011B00098473C4B1D7061E0DFF8F0A020242246E8
:1011C0000021504616F04AFADFF8E490224600214A
:1011D000484616F043FADFF8DC80224600214046FC
:1011E00016F03CFA304F22460021384616F036FA07
:1011F00001248DF804408DF8054000268DF8066026
:10120000204DEB680A220199504698472B692146E8
:10121000504698478DF8044002238DF805308DF82C
:101220000660EB680A220199484698472B693146C7
:10123000484698478DF8044006238DF805308DF810
:101240000660EB6814220199404698472B692146B5
:10125000404698478DF8044007238DF805308DF8F7
:101260000660EB680A220199384698472B692146A7
:101270003846984783E70B4B02221A70204602B08B
:10128000BDE8F0871C040020640400200C820308E1
:1012900098350020A9350020351102089C04002053
:1012A000991002081000002060460020204600200F
:1012B0000046002040460020F0B587B0324B5C6805
:1012C000324A012307CAA047314B1B78012B07D0B4
:1012D0002D4B5C682D4A002307CAA04707B0F0BD1C
:1012E0002C4B1B7893B12C4B1C6A2C4B1A7C8DF821
:1012F00000200FCBA047C8B1274B1C6A274B1A7C94
:101300008DF800200FCBA04704280FD0244B5D6937
:10131000244C254B0593254B049304F110030FCB6C
:101320008DE80F0094E80F00A847D1E71A4B1C681E
:101330001A4B1A7C8DF800200FCBA0470028E5D06F
:10134000154B1C68154B1A7C8DF800200FCBA0475D
:1013500006F0BCFD06460028D8D00F4F3D680F4C64
:10136000237C8DF8003094E80F00A8470546FB6900
:10137000024631462046984729463046FFF7E0FEB0
:10138000304606F003FEC1E7000000207400002094
:1013900010000020AA3500206404002098350020A9
:1013A0001C040020204600204111020808000020F3
:1013B00038B5254C2568254B93E80700A8472568D4
:1013C000234B93E80700A8472468224B93E80700C3
:1013D000A047214C2568214B93E80700A8472568C2
:1013E0001F4B93E80700A84725681E4B93E80700AA
:1013F000A84725681C4B93E80700A84725681B4BA6
:1014000093E80700A8472568194B93E80700A84709
:101410002568184B93E80700A8472568164B93E802
:101420000700A8472468154B93E80700A04706F07B
:101430002FFCFFF795FE00F083F800F05DFD00F053
:10144000B7FE00F017FA38BD04020020B4000020F7
:10145000C0000020CC000020000000205000002030
:101460005C000020680000207400002020000020A4
:101470002C00002038000020440000201400002030
:1014800010B582B04FF4806401941E4B009300238A
:101490001A464FF4FA611C4807F06EF91B4B1860AE
:1014A00001941B4B0093012300224FF47A711948D9
:1014B00007F062F9184B18600194184B0093002351
:1014C00001226421164807F057F9164B1860019461
:1014D000154B009300230222C821144807F04CF951
:1014E000134B18604FF400730193124B00930223C7
:1014F00000226421104807F03FF9104B186002B039
:1015000010BD00BF9D15020830820308B0350020D1
:10151000DD21020840820308AC350020B912020820
:1015200048820308B8350020BD190208508203081C
:10153000B4350020712102085C820308BC3500200C
:1015400070B5124C2B220021204616F087F8104D62
:101550004F2632460021284616F080F832460021F8
:1015600005F1500016F07AF8C4F8115066750023A2
:10157000A37501232374074B1B689847012800D0EB
:1015800070BD054B01221A70FAE700BF3805002034
:1015900000000224A4020020C0350020F0B595B060
:1015A000254B5C68254A012307CAA047244B1C78B9
:1015B000002C36D1234B5B68984790B3214FBB6812
:1015C000214D0121684698474F26324669462846F4
:1015D00016F036F8BB6802216846984732466946DD
:1015E00005F1500016F02CF810E0174B1A5DB3F817
:1015F0004D100A44A3F84D201A1992F85020B3F860
:101600009D100A44A3F89D200134E4B24C2CECD97F
:101610000E4C0F49204606F089FB0E49204606F085
:1016200085FB084BDB689847034B5C68034A002343
:1016300007CAA04715B0F0BD000000203800002008
:10164000C0350020A402002000000224380500203C
:101650000C0500206405002084B070B582B007AC92
:1016600084E80E00129E68B304461D4B1D68037C7F
:101670008DF8003000686168A268E368A84708B385
:10168000337843F001033370154B1D68237C8DF8CC
:10169000003020686168A268E368A8470546B0F595
:1016A000007F01D840B101E04FF400750C4BDB69BD
:1016B0002A460C492046984733786FF3000333706D
:1016C0002DB9002002B0BDE8704004B07047064B51
:1016D0001C692B46034A05490548A047F2E700BFAD
:1016E000640400205037002078070020B436002022
:1016F000C435002050B1204B1B783BB11F4B1B78E9
:1017000013F0010F02D01E4B984200D070471D4BC2
:101710001B7813F0010FF9D030B583B01A4B1C6A57
:101720001A4B1A7C8DF800200FCBA04748B1164BFE
:101730001C6A164B1A7C8DF800200FCBA04703289B
:101740000ED1114DAB69114C032211492046984727
:10175000AD690B4BB3F81520D3F811102046A847FC
:101760000C4B1B7813F0010F04D1074B5B6A0A493D
:101770000648984703B030BD1A3700204C37002088
:101780000C05002044370020640400208C36002023
:101790009882030848370020A03600202B4B1B7886
:1017A000002B52D070B58AB0294B1B7813F0010F73
:1017B00017D1284B1B68284A12689B1AB3F5FA7F89
:1017C0000DD3264A137883F001031370244A54681A
:1017D000244A07CAA0471F4B1A681F4B1A600AB059
:1017E00070BD214E214B08936C46354655F80C0FC1
:1017F0006968AA68EB680FC428696969AA6907C49F
:10180000AA8BAB7F2280A37031687268B3681848D6
:10181000FFF722FF044607F0F7FA0E4B1860012C81
:10182000DDD10D4B1B68C01AC728D8D90B4A1378D5
:1018300083F0010313700A4A54680A4A07CAA04792
:10184000044B1A68044B1A60C9E770471A37002026
:101850004C370020543900205839002050390020DE
:1018600004020020C00000200C05002048370020A2
:10187000A03600202DE9F0439FB03B4C2B220021E5
:10188000204615F0EBFE66220021384815F0E6FEF2
:10189000374DC8220021284615F0E0FE354BC4F82C
:1018A000113000234F226275A375334AC4F8172004
:1018B000324A1380324A1380324B1B683249284621
:1018C000984700283ED02F4D6B68DFF8EC80284CFD
:1018D00002224146204698470346DFF890902B4F5E
:1018E0004FF0807200923A46214602A8AE68B04797
:1018F000662202A9484615F0A3FEED684B463A461B
:1019000041462046A847224B9B684FF4205221496C
:1019100021489847C8B11E4BDC684FF420531F4A3A
:101920001F492048A04780B11F4B01221A701F4A4F
:10193000137843F001031370104A137843F0010346
:10194000137002E0084B00221A7400231C93ADF8B8
:101950007430174B1EAA12E90600164806F0E4FE82
:101960001FB0BDE8F08300BF0C050020B436002096
:10197000C4350020A0000224F51602084C370020D0
:101980004837002078070020991002087082030869
:1019900064040020788203088C3600207809002037
:1019A00088820308A03600201A3700204437002020
:1019B0009D1702081C37002068820308704728B171
:1019C00003691BB1A3F8011001221A7070470000CF
:1019D00090B3036993B3B3F80310B3F807209142AF
:1019E0002ED270B4187860B1D3F809000488B3F827
:1019F0000500B3F801504619B44223DB401B844272
:101A000022DC521A92B2D3F809301B885B1A07EE17
:101A1000903AF8EEE76A07EE902AB8EEE77AC6EE5B
:101A2000877A9FED0A7A67EE877AFCEEE77A17EEFF
:101A3000903A98B270BC7047002070470020704701
:101A4000002070473220F5E73220F3E70000C8425B
:101A50002DE9F04389B00546894600244C804FF0BB
:101A6000010881F801800B4603F82E8B81F82E4087
:101A70005C709C70DC701C715C719C71DC71124F2D
:101A8000124A05AB07CA83E80700114A02AB07CA2E
:101A900083E8070001944FF0FF3100910B460A469E
:101AA0000C483E68B0470146BB68484698472870D6
:101AB00085F80980AC72EC7285F81580AC75EC7510
:101AC00009B0BDE8F08300BF8C0300200C010020AA
:101AD00018010020004C00402DE9F843BDF82460B7
:101AE00007468846B1FA81F14909002814BF084623
:101AF0000120B0BB14461D4640F26C794E4594BFA0
:101B00004FF000094FF00109632B98BF49F001091C
:101B1000B9F1000F26D10F2006F0D8F9014668B1BF
:101B2000C0F80980A0F80760A0F8035000234370B4
:101B300083700370032C05D9484613E006F026FA9B
:101B400048460FE004EB4402C2EBC202BB1801247A
:101B500083F87D4068323A44101905F04FFB204667
:101B600000E00020BDE8F8832DE9F041BDF81870D1
:101B70008846B1FA81F14909002814BF08460120BE
:101B800040BB15461E4640F26C74A74294BF002429
:101B90000124632B98BF44F00104E4B90F2006F040
:101BA00095F9014690B1C0F80980A0F80770A0F837
:101BB000036001242C752C7000232B716B71AB71A9
:101BC000EB71284605F01AFB204604E006F0DEF92A
:101BD000204600E00020BDE8F0812DE9F047BDF887
:101BE00020708846B1FA81F14909002814BF0846DF
:101BF000012080BB16461D4640F26C74A74294BF7C
:101C000000240124632B98BF44F0010424BB0F205F
:101C100006F05CF98146B0B1142006F057F982460F
:101C2000A8B1C9F80980A9F80770A9F80350337D55
:101C300001333375494605F0E1FA5146304605F067
:101C400017FB012008E006F0A1F9204604E006F0A9
:101C50009DF9204600E00020BDE8F08730B583B054
:101C60000023ADF802308DF800308DF8013018B146
:101C700004460346002513E0009B01932FE0BDF8C6
:101C8000021001228A402A43D5B29DF80020013279
:101C90008DF80020BDF802200132ADF80220DB688B
:101CA00073B11A69002AEAD0D2F809100988B2F88B
:101CB00007008142EED2B2F803209142EAD9DEE772
:101CC000284605F058FF01281CD00023ADF802304B
:101CD0009DF80020237D9A421AD0009B019300209A
:101CE0009DF8043063F307009DF8053063F30F207F
:101CF0009DF8063063F317409DF8073063F31F60CB
:101D000003B030BD284605F02BFFADF80200DFE739
:101D100001238DF80130E0E72DE9F043A3B08146BF
:101D20000D46904600241A941B941C948DF8744020
:101D30005822214604A815F091FCADF81440ADF8E6
:101D40001640ADF81840ADF81A40B8FA88F35B09B0
:101D5000A54208BF01235BBB2B784BB3644BDB6808
:101D60004146684698471AAB00980199029A07C302
:101D70009DF80C201A70002385F8653085F86630D0
:101D800085F8673085F86830002A40F09280BDF809
:101D90007030A5F86530BDF87230A5F86730D5F819
:101DA0000130EB61534B9B7B85F82030002413E01E
:101DB000582204A9484615F043FC484623B0BDE824
:101DC000F08304F1100305EB43031B9A32F814204F
:101DD000A3F801200134E4B298F80E30A34210D9E0
:101DE000032CEED804EB4403C3EBC3006830284453
:101DF0000130FFF7EDFD231D05EB4303A3F80500BC
:101E0000DFE705F1E700FFF729FFC0F30720A8721D
:101E1000EB7A6BB16B7AF3B91A9BC5F80130D5F840
:101E200005209A1AAA61C5F8053000232B7352E0E9
:101E300005F1BD00FFF712FFC0F30720687205F13E
:101E4000D200FFF70BFFC0F3074068750228E1D905
:101E500001236B75DEE705F21110FFF7FFFE10F4AA
:101E60007F4F1FD02349D1F82E20D1F832301343B1
:101E700010D006F0C9FF1F4CD4F82E30D4F8322011
:101E8000C61A61EB0207002F08BF642EC4D30123DA
:101E9000EB72C1E706F0B8FF164BC3F82E00C3F88B
:101EA0003210E6E713490023CB850B864B868B86E1
:101EB000B2E701222A736A720023EB72AB726A7571
:101EC00007E01A1D05EB42020021517191710133A7
:101ED000DBB2032BF5D95824224605F1090104A8E9
:101EE00015F0AEFB224604A9484615F0A9FB64E7AD
:101EF0008C030020903A002070B582B0824B1B68A2
:101F000000210220984781498148FFF7A1FD18B1BF
:101F10007E4B1B78012B01D002B070BD7B4BD3F8F8
:101F2000171040F26C7301934FF47A73009364239B
:101F3000002204317648FFF7CFFD0028ECD0734B28
:101F4000D3F8171040F26C7301934FF47A73009337
:101F50006423012202316E48FFF7BEFD0028DBD06A
:101F600040F26C7301934FF47A730093642302225E
:101F70006649D1F817106648FFF7AEFD0028CBD0B0
:101F8000624BD3F8171040F26C7301934FF47A73DD
:101F900000936423032206315D48FFF79DFD00286E
:101FA000BAD05A4BD3F8171059484FF47A730093AC
:101FB000642300F1BD020831FFF7D6FD0028ABD045
:101FC000524BD3F8171052484FF47A73009364239E
:101FD00000F1E7020A31FFF7C7FD00289CD04B4B08
:101FE000D3F817104A484FF496730093642300F116
:101FF000D2020C31FFF7B8FD00288DD0434BD3F847
:102000001710434840F24C4300934FF4617300F1C2
:10201000D2020C31FFF7E1FD00283FF47DAF3B4BCE
:10202000D3F817103A4840F26C73009340F2726391
:1020300000F1D2020C31FFF7D0FD00283FF46CAF65
:10204000324BD3F817103248C8230093642300F2B0
:1020500011120431FFF788FD00283FF45DAF2B4BD0
:10206000D3F817102A48C8230093642300F21112F2
:102070000231FFF7B2FD00283FF44EAF234BD3F8F7
:102080001710234840F26C7300934FF4E16300F2A1
:1020900011120631FFF7A1FD00283FF43DAF1C48A7
:1020A000C8230093642300F211121849D1F81710C5
:1020B000FFF793FD00283FF42FAF154C0125657203
:1020C000322104F17E00FFF77AFC322104F1930003
:1020D000FFF775FC322104F1A800FFF770FC0D4CEE
:1020E0002B220021204615F0B9FA0B4E5822002170
:1020F000304615F0B3FAC4F8116058236375002315
:10210000A375257408E700BF1C040020903A002046
:102110006839002090050020F000022438B506F050
:1021200073FE04460D4664220023FEF7FFFD1343B1
:102130000ED10B4BD3E90023AB4208BFA24207D01C
:10214000084A137883F001031370054BC3E9004577
:10215000054B5C68054A034B1B7807CAA04738BD8E
:1021600060390020DA3A002004020020B400002088
:1021700000B597B0FFF7D2FF084A09496846FFF754
:10218000CBFD58226946074815F05AFA0649074818
:1021900005F0CCFD17B05DF804FB00BF903A0020BD
:1021A00068390020F0000224BC05002090050020C2
:1021B00038B5084C20220021204615F04FFA064D74
:1021C000AB699847A0702B680321002098472070C6
:1021D00038BD00BFE03A00200004002030B5A7B0B1
:1021E00000220023CDE92423CDE9222300230E93EE
:1021F0000D930C930B930A930993089307930693FB
:102200003B4B1B781BB93A4B5B78002B6BD1394C9D
:10221000A5680EAB059306AB049307AB039308AB1D
:10222000029309AB01930AAB00930BAB0CAA0DA967
:1022300024A8A84763690DF13F0212A922A8984774
:10224000E3690DF13E009847236A0DF13D00984780
:10225000A36910A89847DDE9242352EA03010BD0B3
:102260002349D1E90201994208BF904225D2204971
:102270000020C870C1E90223DDE9222352EA0301EC
:102280002ED09DF83D1039BB1949D1E904018B428C
:1022900008BF82421CD31649C1E904239DF83E3091
:1022A0000BBB0023ADF84230ADF84430ADF84630FA
:1022B000114B9B6810A8984715E00D4AD37801335D
:1022C000DBB2D370092BD7D9134601225A70D3E75A
:1022D000074B01221A7606E0054B01221A7602E02E
:1022E000034B01221A76044B5B68984727B030BD38
:1022F000E03A0020340400200004002007EE900A99
:10230000F8EE677A17EE900AC0F3C7507F38C0B274
:10231000704700008CB0654B98422FD0644B9842B8
:102320003CD0644B984248D0634B984254D0634BA6
:10233000984260D0624B98426CD0624B984278D001
:10234000614B984200F08480604B984200F08F808F
:102350005F4B984200F09A805E4B98421CD103F587
:10236000E053D3F8E02042F48062C3F8E020D3F8D1
:10237000E03003F480630B930B9B0DE003F588437F
:10238000D3F8E02042F00102C3F8E020D3F8E030B7
:1023900003F001030193019B0CB0704703F58043E8
:1023A000D3F8E02042F00202C3F8E020D3F8E03096
:1023B00003F002030293029BEEE703F57053D3F898
:1023C000E02042F00402C3F8E020D3F8E03003F04C
:1023D00004030393039BDFE703F56053D3F8E02086
:1023E00042F00802C3F8E020D3F8E03003F008031D
:1023F0000493049BD0E703F55053D3F8E02042F058
:102400001002C3F8E020D3F8E03003F01003059386
:10241000059BC1E703F54053D3F8E02042F02002CA
:10242000C3F8E020D3F8E03003F020030693069BC6
:10243000B2E703F53053D3F8E02042F04002C3F88E
:10244000E020D3F8E03003F040030793079BA3E7B5
:1024500003F52053D3F8E02042F08002C3F8E020D7
:10246000D3F8E03003F080030893089B94E703F56A
:102470001053D3F8E02042F48072C3F8E020D3F880
:10248000E03003F480730993099B85E703F500535B
:10249000D3F8E02042F40072C3F8E020D3F8E03033
:1024A00003F400730A930A9B76E700BF000002580A
:1024B0000004025800080258000C0258001002588C
:1024C0000014025800180258001C0258002002583C
:1024D000002402580028025810B584B004AC04E966
:1024E00007001C46BDF80800FFF708FF024B43F841
:1024F000204004B010BD00BF003B002008B50FF025
:1025000056FC08BD10B58AB001AB83E8070004464D
:10251000FFF700FFBDF80830059302230693002261
:1025200007920893039B099305A920460FF098FA98
:1025300001200AB010BD10B58AB001AB83E80700D6
:102540000446FFF7E7FEBDF8083005930023069325
:1025500002230793089305A920460FF081FA012072
:102560000AB010BD30B58BB001AB83E80700B0B145
:102570000546FFF7CFFEBDF808100591012406942B
:102580000794002308939DF80A2028460FF00FFCBB
:1025900005A928460FF064FA20460BB030BD002094
:1025A000FBE700B585B004AB03E90700BDF80830D0
:1025B000202B17D81AB2002A45D0013B1F2B42D836
:1025C000DFE803F0454741394141413B4141414149
:1025D0004141413D414141414141414141414141EF
:1025E0004141413FB3F5806F35D00BD9B3F5005F62
:1025F00037D018D9B3F5804F37D0B3F5004F22D17B
:1026000028200DE0B3F5807F27D004D9B3F5007FF3
:1026100019D1172004E0402B21D0802B13D1172093
:1026200005B05DF804FBB3F5006F1CD0B3F5805F17
:1026300009D12820F4E70820F2E70920F0E70A2072
:10264000EEE71720ECE70120FEF722FDE8E7062081
:10265000E6E70720E4E72820E2E71720E0E7172075
:10266000DEE72820DCE72820DAE72820D8E7F0B5E5
:102670008BB001AC84E80700A8B31C46054601AB4B
:1026800093E80700FFF78DFF0BF038F8022C2FD0EE
:10269000032C30D0012C28D04FF404142846FFF727
:1026A00039FEBDF808100591069400270797032608
:1026B00008969DF80A2028460FF079FB05A92846C0
:1026C0000FF0CEF901AC94E80700FFF76AFF3A4635
:1026D00031460AF0D3FF94E80700FFF762FF0AF0E3
:1026E000FFFF0BB0F0BD0020FBE74FF48814D5E7E7
:1026F0004FF40414D2E74FF44414CFE7F0B58BB095
:1027000001AC84E8070078B31D460446FFF702FEDB
:10271000BDF8086005964FF4041306930027079749
:10272000032308939DF80A20314620460FF03FFB13
:1027300005A920460FF094F93046FFF7DFFD0B4B5B
:1027400043F8205001AC94E80700FFF72AFF3A460F
:1027500004210AF093FF94E80700FFF722FF0AF034
:10276000BFFF01200BB0F0BD0020FBE7003B0020C5
:1027700000B585B004AB03E90700BDF80810019867
:102780000FF00EFB003818BF012005B05DF804FB08
:1027900008B5FFF7B3FD034B53F8203003B198475A
:1027A00008BD00BF003B00208AB05B4B98422AD096
:1027B0005A4B984237D05A4B984243D0594B984283
:1027C0004FD0594B98425BD0584B984267D0584BEA
:1027D000984273D0574B98427FD0574B984200F0A5
:1027E0008B80564B98421CD103F5E053D3F8E02080
:1027F00042F48062C3F8E020D3F8E03003F4806351
:102800000993099B0DE003F58843D3F8E02042F0DB
:102810000102C3F8E020D3F8E03003F00103009395
:10282000009B0AB0704703F58043D3F8E02042F0E4
:102830000202C3F8E020D3F8E03003F00203019372
:10284000019BEEE703F57053D3F8E02042F0040259
:10285000C3F8E020D3F8E03003F004030293029BB6
:10286000DFE703F56053D3F8E02042F00802C3F835
:10287000E020D3F8E03003F008030393039BD0E794
:1028800003F55053D3F8E02042F01002C3F8E020E3
:10289000D3F8E03003F010030493049BC1E703F581
:1028A0004053D3F8E02042F02002C3F8E020D3F8F0
:1028B000E03003F020030593059BB2E703F53053A6
:1028C000D3F8E02042F04002C3F8E020D3F8E03033
:1028D00003F040030693069BA3E703F52053D3F8C8
:1028E000E02042F08002C3F8E020D3F8E03003F0AB
:1028F00080030793079B94E703F50053D3F8E02088
:1029000042F40072C3F8E020D3F8E03003F400731F
:102910000893089B85E700BF000002580004025896
:1029200000080258000C0258001002580014025807
:1029300000180258001C02580024025800280258AF
:1029400010B1C161012070470020704710B582B0FE
:10295000BDF81040009411F04FFA10B1002002B001
:1029600010BD0120FBE708B511F05AFC08B10020AA
:1029700008BD0120FCE708B511F0D8F808B1002027
:1029800008BD0120FCE7000084B008B50DF1080C7B
:102990008CE80F00099B2A4A934210D0294A93429F
:1029A00025D0294A93422AD0284A93422FD0284A38
:1029B000934234D0274A934239D0002013E0264A6C
:1029C000D2F8F03023F48053C2F8F0300599029821
:1029D0000FF03CF9069903980FF038F9079904981D
:1029E0000FF034F90120BDE8084004B070471A4ADE
:1029F000D2F8E83023F48043C2F8E830E6E7164A1C
:102A0000D2F8E83023F40043C2F8E830DEE7124A97
:102A1000D2F8F03023F40053C2F8F030D6E70E4A73
:102A2000D2F8F03023F48013C2F8F030CEE702F58C
:102A30000C32D2F8F43023F02003C2F8F430C5E7AA
:102A40000030014000380040003C004000340140AC
:102A500000500140001400580044025884B030B5C2
:102A600087B00AAC84E80F0000230193022202928F
:102A70000393049305930546FFF796FE0D9B019380
:102A8000109C059401A928460EF0EAFF0B9D2846EC
:102A9000FFF78AFE0E9B0193059401A928460EF0CC
:102AA000DFFF0C9D2846FFF77FFE0F9B01930594E7
:102AB00001A928460EF0D4FF012007B0BDE8304040
:102AC00004B0704784B010B5ACB02EAC84E80F00F1
:102AD000359C534B9C4211D0524B9C4256D0524B8A
:102AE0009C4261D0514B9C426CD0514B9C4277D060
:102AF000504B9C4200F08280002042E04E4BD3F8C5
:102B0000F02042F48052C3F8F020D3F8F03003F400
:102B100080530493049B32AB93E807008DE80700D1
:102B20002EAB0FCBFFF79AFF0A944FF480030B9361
:102B300000230C9307220D92369A0E92379A0F9229
:102B40004FF080621092389A11921293139314935B
:102B5000159316931793189319931A931B931C9319
:102B60001D931E934FF000421F9220930AA810F06D
:102B700029FF002851D188220AA9399814F060FD54
:102B800001202CB0BDE8104004B070472A4BD3F8A8
:102B9000E82042F48042C3F8E820D3F8E83003F498
:102BA00080430593059BB6E7234BD3F8E82042F416
:102BB0000042C3F8E820D3F8E83003F4004306935A
:102BC000069BA8E71C4BD3F8F02042F40052C3F850
:102BD000F020D3F8F03003F400530793079B9AE7F3
:102BE000154BD3F8F02042F48012C3F8F020D3F84C
:102BF000F03003F480130893089B8CE703F50C3343
:102C0000D3F8F42042F02002C3F8F420D3F8F430D3
:102C100003F020030993099B7DE70020B1E700BF83
:102C20000030014000380040003C004000340140CA
:102C30000050014000140058004402588AB05B4B19
:102C400098422AD05A4B984237D05A4B984243D098
:102C5000594B98424FD0594B98425BD0584B9842B1
:102C600067D0584B984273D0574B98427FD0574B00
:102C7000984200F08B80564B98421CD103F5E053EC
:102C8000D3F8E02042F48062C3F8E020D3F8E030CB
:102C900003F480630993099B0DE003F58843D3F89F
:102CA000E02042F00102C3F8E020D3F8E03003F066
:102CB00001030093009B0AB0704703F58043D3F8EB
:102CC000E02042F00202C3F8E020D3F8E03003F045
:102CD00002030193019BEEE703F57053D3F8E02064
:102CE00042F00402C3F8E020D3F8E03003F004031C
:102CF0000293029BDFE703F56053D3F8E02042F034
:102D00000802C3F8E020D3F8E03003F0080303938F
:102D1000039BD0E703F55053D3F8E02042F01002B4
:102D2000C3F8E020D3F8E03003F010030493049BD1
:102D3000C1E703F54053D3F8E02042F02002C3F886
:102D4000E020D3F8E03003F020030593059BB2E7C1
:102D500003F53053D3F8E02042F04002C3F8E020FE
:102D6000D3F8E03003F040030693069BA3E703F596
:102D70002053D3F8E02042F08002C3F8E020D3F8DB
:102D8000E03003F080030793079B94E703F50053BB
:102D9000D3F8E02042F40072C3F8E020D3F8E0302A
:102DA00003F400730893089B85E700BF00000258F6
:102DB0000004025800080258000C02580010025883
:102DC0000014025800180258001C0258002402582F
:102DD00000280258B1FA81F14909002818BF0021E2
:102DE00009B10020704738B5044600F1F4052422EB
:102DF000284614F033FC2946201D12F05BFF012009
:102E000038BD40B108B5043013F012F8042814BFDF
:102E10000020012008BD0020704708B5043012F0E2
:102E2000DDFB08B9012008BD0020FCE7F8B5054628
:102E30000C4616461F4605F0E7FE04353B46324673
:102E40002146284612F05AFB044605F0E9FEBCB1C3
:102E500000240D4B1C702046F8BDBFF34F8F013B83
:102E6000002BF5D0084A1478002CF6D01346002227
:102E70001A70284612F02EFC0128ECD00024EAE754
:102E80004FF0FF33ECE700BF413B0020F8B50546AB
:102E90000C4616461F4605F0B7FE04353B46324643
:102EA0002146284612F0BAFA044605F0B9FEBCB134
:102EB00000240D4B1C702046F8BDBFF34F8F013B23
:102EC000002BF5D0084A1478002CF6D013460022C7
:102ED0001A70284612F0FEFB0128ECD00024EAE725
:102EE0004FF0FF33ECE700BF403B002010B5B0B01F
:102EF0000446BC22002101A814F0B0FBECB1114B38
:102F00009C4202D0012030B010BD4FF480330193B9
:102F10000023149301A80BF0E3FE80B90A4BD3F809
:102F2000D42042F48032C3F8D420D3F8D43003F450
:102F300080330093009B0120E5E70020E3E70020B9
:102F4000E1E700BF007000520044025810B586B09F
:102F50000023019303930223029303230493002984
:102F600040D00C46204B984202D0002006B010BD45
:102F70000B6B05930869FFF761FEA36A019301A932
:102F800020690EF06DFD6069FFF758FEE36A01935A
:102F900001A960690EF064FD2068FFF74FFEA36988
:102FA000019301A920680EF05BFD6068FFF746FE03
:102FB000E369019301A960680EF052FDA068FFF774
:102FC0003DFE236A019301A9A0680EF049FDE06867
:102FD000FFF734FE636A019301A9E0680EF040FD3B
:102FE0000120C3E70020C1E700700052002836D05E
:102FF00000B583B01B4AD2F8D41041F00101C2F8E9
:10300000D410D2F8D42002F001020192019A164A9B
:1030100002604FF0805282600022C2600261022191
:10302000416108218161C26102624FF00071416219
:1030300001218162C26202634263826310F0F1FA8D
:1030400018B1002003B05DF804FB00220A217A20A9
:103050000AF014FB7A200AF043FB0120F2E700207B
:10306000704700BF004402584000005270B504464B
:10307000D0F8F000FFF73AFF2168D4F8F000FFF72E
:1030800065FF002C3FD0D4F8F030204A93422AD07C
:103090001F4A934202D00025284670BD7C266360FB
:1030A000002323726372A372E37223736373A373A7
:1030B000E37323746374A374E3742375637502224A
:1030C000A275E37522766376A376E37601222277F2
:1030D0006377A377E37704F18400FFF787FF054662
:1030E00018B90025D8E73126D9E7201D12F0B1FE26
:1030F0000028F6D10022042130460AF0BFFA3046FB
:103100000AF0EEFAC8E70025C6E700BF00700052DB
:10311000002402480268054B9A4200D07047044BD5
:1031200001221A70BFF34F8FF8E700BF0070005202
:10313000413B00200268054B9A4200D07047044B87
:1031400001221A70BFF34F8FF8E700BF00700052E2
:10315000403B002000B583B001900268064B9A42C4
:1031600002D003B05DF804FB836B13F0100FF8D0AE
:1031700001A812F0CFFEF4E70070005270B5B1FA6A
:1031800081F46409002808BF0124B4BB1E4605462B
:10319000A2B309300DF0E4F848B1431EDBB2012BB5
:1031A00014D8D5F8D0310133C5F8D03126E0D5F8A0
:1031B000C0310133C5F8C03185F8B86196B9D5F88A
:1031C000CC310133C5F8CC31012417E0D5F8D43126
:1031D0000133C5F8D43111E0D5F8D0310133C5F849
:1031E000D0310BE0642295F8B941002CE7D1531E91
:1031F000DBB2002AF0D01A46F5E70024204670BD65
:1032000010B510B10024204610BD90F8BA41002C32
:10321000F9D0C0F8111009300EF0FBF90028F2D0F7
:103220000024F0E710B510B10024204610BD90F83E
:10323000BA41002CF9D0C0F8191009300EF0E9F9A4
:103240000028F2D00024F0E710B510B10024204689
:1032500010BD90F8BA41002CF9D0C0F81510093013
:103260000EF0D7F90028F2D00024F0E710B510B125
:103270000024204610BD034690F8BA41002CF8D037
:10328000017191B1002280F841206FF07F0180F838
:10329000421080F8432080F8442003F109000EF02A
:1032A000B8F90028E5D00024E3E7002280F84120A7
:1032B00080F8422080F8432080F84420EDE70000A9
:1032C00070B5B2B00446BC22002103A814F0C6F9C0
:1032D000002C65D0D4F80530002B64D0394A9342D5
:1032E00030D0394A934244D0384A934264D10223C1
:1032F00003930023209303A80BF0F2FC00285ED177
:10330000334BD3F8E82042F08042C3F8E820D3F8EA
:10331000E83003F080430293029B02252D4EF368B0
:10332000D4F89901D4F89D11D4F8A1219847F368F5
:10333000D4F88D01D4F89111D4F8952198472846F6
:1033400032B070BD022303930023209303A80BF037
:10335000C7FC58BB1E4BD3F8E82042F40022C3F848
:10336000E820D3F8E83003F400230093009B002505
:10337000D4E7012303930023219303A80BF0B0FCAF
:10338000B8B9134BD3F8F02042F02002C3F8F02074
:10339000D3F8F03003F020030193019B0125BDE732
:1033A0004FF0FF30CCE74FF0FF30C9E74FF0FF3070
:1033B000C6E74FF0FF30C3E74FF0FF30C0E74FF0F4
:1033C000FF30BDE7004C0040001401400078004091
:1033D00000440258240100202DE9F041BCB004460D
:1033E00078252A4600210DEB050014F037F92A460E
:1033F0000021684614F032F94FF4806222924FF4B3
:10340000803326934021209104920893002C58D0B9
:10341000D4F80530002B57D0314A934243D0314A7B
:10342000934245D0304A934251D14F2301935023C8
:103430001F93022678273A460DEB070104F19B0003
:1034400014F0FEF804F215153A466946284614F0C1
:10345000F7F8264B1B682A4694F9141194F91301C6
:10346000984758B3214B1B6804F19B073A4694F9DF
:103470009A1094F99900984700B328460EF0BEFEC2
:1034800040BBC4F8855004F10905C4F84D513846D5
:103490000EF0B4FE08BBC4F88170C4F8D3503046B7
:1034A0003CB0BDE8F0813F2301931F910026C1E7A6
:1034B0004723019348231F930126BBE74FF0FF30BA
:1034C000EEE74FF0FF30EBE74FF0FF30E8E74FF06B
:1034D000FF30E5E74FF0FF30E2E74FF0FF30DFE786
:1034E000004C004000140140007800408C01002096
:1034F00000B338B5D0F80530FBB1134A934213D06E
:1035000002F54842934212D0A2F51C42934217D1D1
:10351000022452250022052128460AF0AFF8284649
:103520000AF0DEF8204638BD00243425F2E70124F5
:103530004725EFE74FF0FF3070474FF0FF30F2E7DD
:103540004FF0FF30EFE700BF004C004070B5A4B073
:103550000446002380F8BA31FFF7B2FE45B2002DD1
:10356000C0F2A680D4F805300093236801930023AD
:103570000293039304930C220592069307930893F6
:10358000099330230A934FF480530F934FF4005361
:103590001093237913B14FF400430E9304F10906FD
:1035A00090226946304614F04BF830460EF031F860
:1035B00010B1002024B070BD2046FFF70DFF002899
:1035C00009DB012384F8BB31002168460EF0FEF9C7
:1035D00028B10020EEE7022384F8BB31F4E7002194
:1035E00068460EF018FA0028F3D168460EF0CFF9BD
:1035F0000028EED1D4F8AD31002B5BD0B4F8B13156
:103600000BB90020D6E72D4B43F82540002384F862
:10361000B93184F8B831C4F8BC31C4F8C031C4F849
:10362000C431C4F8C831C4F8CC31C4F8D031C4F8BE
:10363000D43194F8BB31012B03D0022B22D00020CF
:10364000B8E7D4F80920136843F010031360D4F8E6
:103650000920936823F001039360D4F809201368CC
:1036600023F4807313602046FFF742FF002823DB1A
:1036700094F8BB31012B0CD0022B12D0012084F81E
:10368000BA0197E7D4F80920136843F020031360C8
:10369000DDE7B4F8B121D4F8AD1130460EF01CF9D5
:1036A000ECE7012204F2B31130460EF089F8E5E7A9
:1036B00000207FE700207DE700207BE7443B0020DF
:1036C000144B53F8201019B310B5A4B0902209314F
:1036D000684613F0B5FF229A009CA36813F0400FD0
:1036E00001D0222A01D024B010BDA36823F04003EA
:1036F000A3601F9808B10FF097F8236823F4907324
:103700002360A36823F00103A36020232293EAE748
:10371000704700BF443B0020022804D8034B53F8F5
:103720002000093070470020704700BF443B002054
:103730004A4B53F82030002B00F08E8070B50446C1
:1037400003F10901464A1160D3F80920D0691668CF
:10375000956840F60F05284203D193F8BB51012D1F
:1037600000D070BD03F215133E4D2B600029F8D038
:10377000002BF6D0D1F8883010F0100FF1D016F0F1
:10378000100FEED0102313622046FFF799FF334B42
:1037900053F82400B0F8B1212B681B68324D33492F
:1037A0008B4218BFAB422DD018318B422AD0183132
:1037B0008B4227D018318B4224D018318B4221D034
:1037C00018318B421ED018318B421BD001F5567137
:1037D0008B4217D018318B4214D018318B4211D044
:1037E00018318B420ED018318B420BD018318B42DE
:1037F00008D018318B4205D018318B4202D05B685B
:103800009BB201E05B689BB2D21A92B2C2B1D0F80F
:10381000A93123B1D0F8AD11D0F8B40198470F4BBE
:1038200053F82430D3F8BC210132C3F8BC21B3F8DB
:10383000B121D3F8AD110A4B18680EF04DF890E79E
:10384000D0F8C4310133C0F8C431054B1B681B6884
:103850005A6A08221A6284E7704700BF443B00207E
:10386000503B0020543B0020100002402800024042
:1038700038B503682B4A93420AD002F54842934276
:1038800030D0A2F51C42934200D038BD022300E0A4
:1038900000231C46244A52F82330002BF5D093F81D
:1038A000BB21012A20D0022AEFD1172B38D00020CB
:1038B0000DF0A0FA0028E8D01B4B53F82430D3F8C1
:1038C000A9512DB1012203F2B311D3F8B401A847D5
:1038D000154B53F82400012200F2B31109300DF00A
:1038E0006FFFD2E70123D4E7D3F8A95135B1B3F87C
:1038F000B121D3F8AD11D3F8B401A8470A4D55F85A
:103900002400B0F8B121D0F8AD1109300DF0E4FF7A
:1039100055F82420D2F8C8310133C2F8C831B4E7D1
:103920000120C5E7004C0040443B002003680F4ADB
:1039300093420AD002F54842934214D0A2F51C42A9
:10394000934200D07047022200E00022084B53F857
:103950002230002BF6D093F8B821002AF2D00122B1
:1039600083F8B921EEE70122F0E700BF004C0040E8
:10397000443B002050EA010330D482B0CAB2072A87
:103980008CBF00230123002818BF0023ABB9062AEF
:1039900098BF012824D1134BD3F8D82042F002025B
:1039A000C3F8D820D3F8D83003F002030193019B69
:1039B0000D4B53F8210002B070470A4BD3F8D820C2
:1039C00042F00102C3F8D820D3F8D83003F0010345
:1039D0000093009B054B53F82100ECE70020704753
:1039E0000020E8E700440258BC8203089C820308D8
:1039F0002DE9F041CB0F53EAD07818D104460E469A
:103A00001746C5B2CBB2012D98BF072B94BF012535
:103A1000002502D92846BDE8F081FFF7ABFF40B191
:103A2000386006EBC404044B43F82470F2E7002529
:103A3000F0E74546EEE700BF583B002050EA01039F
:103A400014D410B40246C0B2CCB2012898BF072CDF
:103A500094BF0120002002D95DF8044B704701EBB0
:103A6000C201034B002243F82120F5E700207047F4
:103A7000583B002050EA01030BD4C3B2CAB2012B59
:103A800098BF072A07D801EBC001044B53F8210067
:103A90007047002070470020704700BF583B00204F
:103AA00050EA01033BD410B5E8B9072910D8DFE884
:103AB00001F004320610121416180B2400E00D2435
:103AC00000220521204609F0D9FD204609F008FE14
:103AD00010BD0E24F4E70F24F2E71024F0E71124C0
:103AE000EEE72F24ECE70128F2D10729F0D8DFE830
:103AF00001F0041406080A0C0E103824E0E73A24FA
:103B0000DEE73B24DCE73C24DAE74424D8E745241D
:103B1000D6E74624D4E70C24D2E73924D0E770470F
:103B20002F4B984222D011D8A3F50063984230D091
:103B300003F58063984207D104294BD008294BD064
:103B4000002939D00020704700207047254B98424B
:103B50000AD10C2938D8DFE801F03137373741373F
:103B60003737333737373500002070470C290ED8E8
:103B7000DFE801F0070D0D0D2C0D0D0D090D0D0DDC
:103B80000B0037207047392070473A2070470020DB
:103B900070470C290ED8DFE801F0070D0D0D1B0D45
:103BA0000D0D090D0D0D0B001720704719207047E2
:103BB0001A207047002070471D2070476920704709
:103BC0006B2070476C20704700207047382070478A
:103BD000182070471E2070471F2070476A207047CA
:103BE000000C004000400140C0F8D010D0F88430F4
:103BF00099627047C0F8D410D0F88430D962C0F808
:103C000090107047836B5A6A824209D09A6A824246
:103C10000CD0DA6A82420FD01A6B824212D07047FF
:103C20001A68D36823F40073D36070471A68D368A6
:103C300023F48063D36070471A68D36823F4006369
:103C4000D36070471A68D36823F48053D360E6E7E3
:103C5000D0F8E01051B310B50446D0F8E430C3B149
:103C6000D0F8D800421E032A13D8DFE802F002136E
:103C7000171BD4F884203432283004EB80004068CD
:103C80000EF086FCD4F88420D368D4F8DC100B4303
:103C9000D36010BDD4F884203832EDE7D4F8842006
:103CA0003C32E9E7D4F884204032E5E77047000071
:103CB00008B5D0F8D830283300EB83035B68034A9B
:103CC000DA63416884300AF0FBFD08BD053C020858
:103CD00030B587B004464B4B93F88130D3B1494B94
:103CE00093F8801011BB1F2900F28880464B9C423C
:103CF00027D0B4F1804F39D0444B9C4244D0444B40
:103D00009C424FD0434B9C425AD0434B9C4265D07F
:103D1000002074E03B4D002185F8801020222846C9
:103D200013F09CFC012385F88130D8E700239942E9
:103D3000D9D9344A52F82320A2425DD00133DBB2F4
:103D4000F5E7364BD3F8F02042F00102C3F8F0203B
:103D5000D3F8F03003F001030093009B294B43F8A4
:103D60002140013183F88010012048E02B4BD3F82B
:103D7000E82042F00102C3F8E820D3F8E83003F06D
:103D800001030193019BE9E7244BD3F8E82042F0BB
:103D90000202C3F8E820D3F8E83003F002030293EC
:103DA000029BDBE71D4BD3F8E82042F00402C3F886
:103DB000E820D3F8E83003F004030393039BCDE736
:103DC000164BD3F8E82042F00802C3F8E820D3F8F5
:103DD000E83003F008030493049BBFE70F4BD3F8CC
:103DE000E82042F01002C3F8E820D3F8E83003F0EE
:103DF00010030593059BB1E7002000E0012007B008
:103E000030BD00BF983B002000000140000400408E
:103E100000080040000C0040001000400044025820
:103E200082B02DE9F0478AB013939DF858609DF851
:103E30005C70002307930893099300930193029306
:103E400003930493059306938846B1FA81F14909D7
:103E5000984208BF0121002940F0BB801546044666
:103E6000199BB3FA83F94FEA5919189B002B08BF25
:103E70004FF00109B9F1000F40F0B38006724772AC
:103E80000C2A00F2A880DFE802F007A6A6A684A606
:103E9000A6A68CA6A6A694000123C0F8D8304FF49D
:103EA0000073C0F8DC304046FFF712FFC4F8008012
:103EB000C4F884804FF0000AC4F888A0C4F88CA02D
:103EC000C4F890A0C4F894A0C4F89CA0464BDB684A
:103ED00076B27FB2394630469847E0602946404680
:103EE000FFF71EFE206140236361C4F818A04FF461
:103EF0008063E3614FF4805323626362C4F828A0B7
:103F00004FF40033E36204232363C4F834A0C4F8FD
:103F100038A0C4F83CA004F10C0840460EF06EF93D
:103F2000002858D1D4F8D830283304EB8303C3F8E1
:103F3000048004F1840AC4F844A050460AF096FBB9
:103F4000002848D100230793099307A950460AF097
:103F50006BFD00283FD1602300930023019302935F
:103F600004932A46694650460AF0FAFB98BB6560FE
:103F70001E4BDC6813AB93E80700A0471A4B1B6885
:103F800042463946304698478146D0B94FF001093C
:103F900021E00223C0F8D8304FF48063C0F8DC3051
:103FA00081E70323C0F8D8304FF40063C0F8DC3059
:103FB00079E70423C0F8D8304FF48053C0F8DC30E0
:103FC00071E7094B1C690023052239463046A0479A
:103FD00001E04FF0000948460AB0BDE8F04702B0E2
:103FE00070478946F7E700BF8C01002024010020BC
:103FF00070B582B0154661F07F018DF80710002280
:104000008DF80620D8B11E4604460268CAB143683E
:10401000CBB100209047636801220DF106010DF13C
:104020000700984763689DF818203146284698474E
:104030000546236801209847284602B070BD002538
:10404000FAE70025F8E70025F6E770B582B000230F
:10405000ADF80430ADF80030D8B116460446036818
:10406000CBB14368CBB161F07F018DF804100368D8
:104070000020984763680222694601A898470546D0
:104080002368012098479DF801303370284602B01C
:1040900070BD0025FAE70025F8E70025F6E730B502
:1040A00083B00023ADF80030B8B104460368B3B163
:1040B0004368B3B18DF804108DF805200368002023
:1040C000984763680222694601A898470546236815
:1040D00001209847284603B030BD0025FAE70025A7
:1040E000F8E70025F6E7000070B4457F072D94BF80
:1040F00000260126002E35D104460120A84010F0EC
:104100008B0F14BF0120002021D06177032A2BD808
:10411000DFE802F0020B0F134FF08D416161032BBA
:1041200024D8DFE803F00E16191C4FF08C416161B2
:10413000F5E74FF08B416161F1E74FF08A41616132
:10414000EDE70B49A161D2002274DB00637470BCFF
:1041500070470849A161F6E70749A161F3E70749FC
:10416000A161F0E70020F2E73046F0E73046EEE7E5
:10417000000003430000834233330342333383415F
:10418000016042608360009BC360704730B583B0BC
:1041900000238DF80730044600B34368F3B1036889
:1041A000E3B180226B21FFF77AFF0546E8B1A368EF
:1041B0000F2098470DF1070275212046FFF745FFB4
:1041C0000546B0B19DF80730682B16D0042384F85B
:1041D0006A30A3680F209847002503E0012384F884
:1041E0006A300025284603B030BD032384F86A30C6
:1041F000F8E7032384F86A30F4E7032268212046B5
:10420000FFF74DFF054600285BD0A3680F209847B5
:1042100003226B212046FFF742FF0546002854D0B9
:10422000A3680F20984710226A212046FFF737FF26
:10423000054600284DD0A3680F20984700226C2126
:104240002046FFF72CFF0546002846D0A3680F2024
:104250009847627F19212046FFF721FF0546002875
:104260003FD0A3680F209847627C1B212046FFF7B0
:1042700016FF0546002838D0A3680F209847227CF7
:104280001C212046FFF70BFF054690B3A3680F20C3
:104290009847102237212046FFF701FF054660B3FB
:1042A000A3680F209847012238212046FFF7F7FE28
:1042B000054630B3A3680F209847002384F86A307E
:1042C00090E7052384F86A308CE7052384F86A3088
:1042D00088E7062384F86A3084E7072384F86A3085
:1042E00080E7082384F86A307CE7092384F86A3081
:1042F00078E70A2384F86A3074E70B2384F86A307D
:1043000070E70C2384F86A306CE790F86A00704715
:10431000012303777047007F70470020704770B516
:104320008AB00023069307930893ADF824300293D4
:1043300003930493ADF8143090F86A50002D62D1C5
:104340000446067F002E5FD0C3689847C4F81E005D
:10435000C4F822100E23009302AB06AA3B2120468C
:10436000FFF746FE44E06A000AAB03EB450313F88F
:10437000200C511C0AAB194411F8203C43EA0023DD
:104380001BB205F1180104EB4101CB80291D0AA8DD
:1043900000EB410111F8200C09320AA90A4412F875
:1043A000201C41EA002105F1140204EB42021181B4
:1043B00007EE903AF8EEE77AD4ED056A87EEA67A32
:1043C00005F1100304EB830383ED037AB2F908309F
:1043D00007EE903AF8EEE77AD4ED066A87EEA67A11
:1043E00005F10E0304EB830383ED027A0135EDB290
:1043F000022DB8D9E3689847C4F81E00C4F822100B
:104400000023237700E0002630460AB070BD84B058
:1044100086B00DF1180C8CE80F000B9B02930C9BDF
:104420000393039902984CE902019DED040ADDED26
:10443000050A06B004B0704730B595B004460D4685
:104440004C22002101A813F009F995F86A303BB11C
:104450004C220021204613F001F9204615B030BD52
:104460004C2205F11E01204613F0EAF8F5E770B57D
:1044700082B00023ADF80430ADF80030D8B1164654
:1044800004460368CBB14368CBB161F07F018DF87E
:1044900000100368002098476368022201A968465B
:1044A000984705462368012098479DF805303370EA
:1044B000284602B070BD0025FAE70025F8E7002580
:1044C000F6E730B583B00023ADF80430B8B1044648
:1044D0000368B3B14368B3B18DF800108DF80120C3
:1044E0000368002098476368022201A9684698473C
:1044F0000546236801209847284603B030BD0025B3
:10450000FAE70025F8E70025F6E7000030B4457F1C
:10451000072D26D80124AC4014F08B0F21D0417711
:10452000032B1ED8DFE803F0020B0F134FF08D4171
:104530004161032A15D8DFE802F00E16191C4FF06E
:104540008C414161F5E74FF08B414161F1E74FF05C
:104550008A414161EDE708498161DB008374D20043
:10456000C27430BC704705498161F6E70449816136
:10457000F3E704498161F0E7000003430000834250
:104580003333034233338341016042608360009BD5
:10459000C360704701230374704710B5044680223E
:1045A0006B21FFF78EFFA36814209847E3689847B4
:1045B000012010BD70B582B000238DF8073004468D
:1045C00050B1436843B1036833B1FFF7E6FF48B920
:1045D00003232377002502E00123237700252846C3
:1045E00002B070BD0DF1070275212046FFF73FFFB5
:1045F000A3680A2098479DF80730122B03D00223A6
:1046000023770025EBE701226B212046FFF759FFB6
:10461000A3680A2098470DF107026B212046FFF797
:1046200026FF9DF80760012E03D004232377002581
:10463000D5E700226C212046FFF743FFA3680A203C
:1046400098470DF107026C212046FFF710FF9DF8F7
:1046500007501DB1052323770025C0E740227021B4
:104660002046FFF72EFFA3680A2098470DF10702A6
:1046700070212046FFF7FBFE9DF80730402B02D04B
:1046800006232377ABE7627F19212046FFF719FF46
:10469000A3680A2098470DF1070219212046FFF769
:1046A000E6FE627F9DF807309A4202D00923237705
:1046B00095E7A27C1C212046FFF703FFA3680A2090
:1046C00098470DF107021C212046FFF7D0FEA27C7F
:1046D0009DF807309A4202D0072323777FE7E27CD8
:1046E0001B212046FFF7EDFEA3680A2098470DF135
:1046F00007021B212046FFF7BAFEE27C9DF8073037
:104700009A4202D00823237769E7602237212046A6
:10471000FFF7D7FEA3680A2098470DF1070237215B
:104720002046FFF7A4FE9DF80730602B02D0082337
:10473000237754E7354652E7007C704708B10120E3
:10474000704700207047007F704784B086B00DF13D
:10475000180C8CE80F000B9B02930C9B039303999E
:1047600002984CE902019DED040ADDED050A06B050
:1047700004B0704730B595B004460D464C22002178
:1047800001A812F06BFF2B7F0BB96B7C3BB14C2265
:104790000021204612F062FF204615B030BD2B7478
:1047A0004C2205F11E01204612F04AFFF4E70000FA
:1047B00000B585B004AB03E90700064B5B683BB16D
:1047C00004AA12E907009847012005B05DF804FB30
:1047D0000020FAE72401002000B585B00DF1100C8F
:1047E0000CE907001A46064BDB693BB1BDF808101F
:1047F00001989847012005B05DF804FB0020FAE716
:1048000024010020002848D010B50446244B1B6822
:104810009847B8B3224B5B6904F1F40120469847EE
:10482000A0B3D4F80431C4F82A31D4F80821C4F86C
:104830002E21D4F81421C4F83A21D4F8F420C4F875
:104840001A21D4F80C21C4F83221D4F81021C4F86C
:104850003621D4F80021C4F82621012284F8192138
:10486000002084F8460184F8470184F83E0184F86A
:104870003F0184F8400184F84101C4F8423184F8D2
:10488000180110BD022084F81801FAE7002384F80B
:104890001931032084F81801F3E70120704700BFA5
:1048A0005C01002010B190F818017047012070479A
:1048B000F8B505460C462F22002112F0CFFED4B1E8
:1048C00004F219132A4604F239141F685E689868C6
:1048D000D968176056609060D16010331032A342DF
:1048E000F3D11C6858689968146050609160998988
:1048F0009B7B918193732846F8BD000070B50C46F0
:10490000BDF8103005461146B2FA82F2520900286D
:1049100014BF1046012080B9B4FA84F25209002B6A
:1049200008BF012252B9D5F82A01A04207D3054A8F
:10493000966822462846B04700E0002070BD104629
:10494000FCE700BF5C010020F8B5BDF81840054643
:104950001646B2FA82F25209002814BF104601200E
:1049600090B994B1D5F82A218A420ED3D5F82E21D8
:1049700002FB04F2934208D3044B5F6823460A46C5
:1049800031462846B84700E00020F8BD5C01002011
:10499000182A8CBF00230123002908BF0123002B04
:1049A00040F09C8070B5044615460E46002800F085
:1049B00097802122002112F051FE3378F02B01D094
:1049C000022070BD192D01D00220FAE77378B27869
:1049D00043EA0223C3F30A032380B378F278DB08A7
:1049E00043EA4213C3F30A036380F37832799B09E5
:1049F00043EA8203727943EA8223C3F30A03A38062
:104A00007379B2795B0843EAC213C3F30A03E38004
:104A1000B379F2791B0943EA0213C3F30A03238132
:104A2000F379327ADB0943EA4203727A43EA42239A
:104A3000C3F30A036381737AB27A9B0843EA821351
:104A4000C3F30A03A381B37AF27A5B0943EAC20390
:104A5000E381337B727B43EA0223C3F30A0323829D
:104A6000737BB27BDB0843EA4213C3F30A0363821E
:104A7000B37BF27B9B0943EA8203327C43EA8223C5
:104A8000C3F30A03A382337C727C5B0843EAC2133C
:104A9000C3F30A03E382737CB27C1B0943EA02136B
:104AA000C3F30A032383B37CF27CDB0943EA4203AA
:104AB000327D43EA4223C3F30A036383337D727D6D
:104AC0009B0843EA8213C3F30A03A383737DB27D79
:104AD0005B0943EAC203E383002072E701207047C9
:104AE00001206EE730B108B52122002112F0B6FD99
:104AF000012008BD0020704710B403460022104674
:104B000094B28C4207D213F8014B44400348005D35
:104B10000132D2B2F4E75DF8044B7047DC8203083F
:104B200010B485B00346002201920292ADF80C2029
:104B300039B10A4601AC52F8430F516803C41289D7
:104B4000228001AA03CA1860596012881A81184687
:104B500005B05DF8044B704770B110B504466E2285
:104B6000002112F07BFD012084F84200002384F82C
:104B7000403084F8413010BD002070470A460039AB
:104B800018BF0121002808BF002101B9704730B4C7
:104B9000034653F84E5F5C689868D96815605460A6
:104BA0009060D1601D695C699869D969156154612B
:104BB0009061D16130BC7047002800F0CB8038B5DF
:104BC0000B46054690F84000002800F0C680032AF6
:104BD0008CBF00210121002B00F0BE80002940F095
:104BE000BB80541EA1B21846FFF786FF2A19D3785E
:104BF000984201D0FF20B0E0A878142803D01628EE
:104C000017D0FF20A9E02A8840F6C8439A4201D075
:104C1000FF20A2E02B4653F8031F5A68C5F8431043
:104C2000C5F847201B89A5F84B30002385F8423092
:104C300093E02B78C82B01D0FF208EE02B79697987
:104C400001F0070243EA0223A5F84E30AA7902F0E8
:104C50003F035B0143EAD103A5F85030EB799B0099
:104C600043EA92132A7A02F0010143EA8123A5F86C
:104C70005230697A01F00F03DB0143EA5203A5F8D1
:104C80005430AA7A02F07F031B0143EA1113A5F8FE
:104C90005630EB7A5B0043EAD213297B01F0030222
:104CA00043EA4223A5F858306A7B02F01F039B01B8
:104CB00043EA9103A5F85A30AB7BDB0043EA521379
:104CC000A5F85C30EB7B297C01F0070243EA022364
:104CD000A5F85E306A7C02F03F035B0143EAD10332
:104CE000A5F86030AB7C9B0043EA9213EA7C02F0AB
:104CF000010143EA8123A5F86230297D01F00F0309
:104D0000DB0143EA5203A5F864306A7D02F07F03B9
:104D10001B0143EA1113A5F86630AB7D5B0043EA43
:104D2000D213E97D01F0030243EA4223A5F868307B
:104D30002A7E02F01F039B0143EA9103A5F86A3023
:104D40006B7EDB0043EA5213A5F86C30002385F834
:104D5000423002E000207047002038BDF8B500283E
:104D600065D0054690F84140032C63D8DFE804F095
:104D7000020F21300B78C82B03D0002380F840307D
:104D800056E0012380F841300B78037050E00B7837
:104D90003C2B08D8022380F841300B784370002464
:104DA00080F8404044E0002480F8404080F84140D2
:104DB0003EE00B78837090F840300978C218D170CB
:104DC000013380F84030032380F8413000242FE085
:104DD00090F84030427893422ED20878E918C87093
:104DE0000133DBB285F840309A4201D000241FE045
:104DF000E91C2846FFF7E0FE04462B460F4A05F162
:104E0000400C1F685E689868D968176056609060AB
:104E1000D160103310326345F3D1002185F8411081
:104E200085F840104022284612F018FC00E00024CB
:104E30002046F8BD0024FBE70024F9E78046002067
:104E4000022807D0032807D0012801D00348704763
:104E5000034870470148704702487047808D5B00E7
:104E6000C0C62D00001BB70082B0003918BF012159
:104E700041EA400189B2ADF80610BDF8061089B2CA
:104E80000022134602E04B4009110132022AFADDEA
:104E900003F00F03BDF8062092B243EA02139BB25F
:104EA000ADF80630BDF8060080B202B070470000D1
:104EB00098B310B50B46044640F26C72914203D889
:104EC0002F2903D8002301E040F26C73002118461B
:104ED000FFF7CAFF002308E00E2103F13A0204EBBA
:104EE00082025160400080B201330F2B04DC10F4C9
:104EF000004FF1D10721F0E70023C4F82C31C4F8AA
:104F0000303104F1EC03C4F8E4301223C4F8E83083
:104F1000024B1B69201D984710BD7047A00100205F
:104F20002F2994BF00220122002808BF012202B1CC
:104F3000704710B50B46044600211846FFF794FF52
:104F4000002308E00E2103F13A0204EB82025160D3
:104F5000400080B201330F2B04DC10F4004FF1D17C
:104F60000721F0E70023C4F82C31C4F83031024B9C
:104F70001B69201D984710BDA001002082B02DE9BB
:104F8000F04387B004460D4616460F930078FFF7AE
:104F900057FF07EE900AF8EE677A9FED217A87EEC9
:104FA000270ADFED207A30EE270A13F013F8002CE1
:104FB00033D0471E2378013BDBB2022B01D90223F9
:104FC0002370194BD3F8009004F10408EC34122339
:104FD000059304949DF84C3003939DF84830029358
:104FE000119910988DE803000F9B324629464046E0
:104FF000C847054658B10C4C636839464046984747
:10500000A368142140469847E368404698472846DD
:1050100007B0BDE8F04302B070470025F7E700BFD6
:105020008096184D0AD7233CA0010020F0B589B026
:10503000284B5C68284B93E80700A04700283CD029
:10504000244B1C68254A264B07CAA047002837D0A6
:10505000244E254D344628686968AA68EB680FC459
:1050600028696969AA6907C4204D2F68204C214B23
:105070000093214B214A22492046B8476D680323FB
:105080001A4601212046A8471E4B1F681E4B079356
:105090006C4606F110050FCD0FC495E8070084E8B3
:1050A000070096E80F00B84768B1104B9B6810489E
:1050B000984758B1002009B0F0BD6FF00700FAE73B
:1050C0006FF00600F7E76FF00500F4E76FF00400FB
:1050D000F1E700BF24010020F400002000010020BF
:1050E0009D56020878020020D8000020B40100205C
:1050F000103D0020FD8D0208698E0208255202082D
:10510000ED510208440100207C3D0020F0B589B03B
:10511000284B5C68284B93E80700A04700283CD048
:10512000244B1C68254A264B07CAA047002837D0C5
:10513000244E254D344628686968AA68EB680FC478
:1051400028696969AA6907C4204D6F68204C214B02
:105150000093214B214A22492046B8472D6803235A
:105160001A4601212046A8471E4B1F681E4B079375
:105170006C4606F110050FCD0FC495E8070084E8D2
:10518000070096E80F00B84768B1104B9B681048BD
:10519000984758B1002009B0F0BD6FF00300FAE75E
:1051A0006FF00200F7E76FF00100F4E74FF0FF3017
:1051B000F1E700BF240100209C000020A80000208F
:1051C000C15602084C02002080000020DC010020B3
:1051D0001C3C0020FD8D0208698E0208495202081D
:1051E0000952020844010020883C002010B5024604
:1051F000034BDC69034B99881868A04710BD00BFBA
:1052000024010020F400002010B50246034BDC69A5
:10521000034B99881868A04710BD00BF24010020E7
:105220009C00002010B582B01346054A14694FF463
:105230007A7200920A4601460248A04702B010BDA9
:10524000440100207C3D002010B582B01346054A81
:1052500014694FF47A7200920A4601460248A04748
:1052600002B010BD44010020883C002006EE901AD8
:1052700007EE902AF8EEE66A9FED4F6A66EE865AD0
:10528000F8EEE77A27EE866A9FED4C7A66EE876A3B
:1052900027EE877A0023022B00F28B8010B416E0F1
:1052A000C41894F84910013184F8491000F14901FB
:1052B000632949D9002384F84930022072E002446E
:1052C000002182F846100133DBB2022B69D81A465E
:1052D00003F10A0100EB8101D1F8061007EE901AE4
:1052E000F0EEE77AF4EEE57AF1EE10FA5DDC03F128
:1052F000080100EB8101D1F8021007EE901AF0EEE0
:10530000E77AF4EEC67AF1EE10FA50DC03F12001F0
:1053100030F91110C1B103F10A0400EB8404D4F890
:10532000064007EE904AF0EEE77AF4EEE67AF1EE08
:1053300010FA05D803F10C0430F91440A142AFD0A3
:105340008118002481F8494002F11C0100EB410161
:10535000B1F902100029B6D002F1080400EB840470
:10536000D4F8024007EE904AF0EEE77AF4EEC77AFE
:10537000F1EE10FAA3D802F1080400EB4404B4F9EA
:105380000240A1429BD1841894F846100131C9B261
:1053900084F84610632996D9002384F84630032008
:1053A00000E000205DF8044B70470420FAE7052078
:1053B000F8E70020704700BF9A99993F6666663FFC
:1053C000F0B59DB0A34B1B7813F00F0F00F0EB80EE
:1053D000A14D6E6AA14C5C2204F11001684612F0E6
:1053E0002FF994E80F00B0479D4A10EE103AC2F82A
:1053F000453010EE903AC2F849302B692046984764
:10540000002871D0AB6920469847044600286BD02D
:10541000944B1A78012161F303021A70904B9A6839
:10542000D968013241F100019A60D9608B4AD2F803
:105430001E00D2F82210186059608B4BD3E900236C
:1054400052EA030504D08B4208BF824280F0A98053
:105450008248C36B824D2B61427C017C1E30FFF77A
:1054600005FF85F84400002301E00133DBB2022B85
:105470002FD87A4903F1100201EB8202D768784AEB
:1054800003F10E0502EB8506376001EB85018968A3
:1054900003F10A0502EB85025160021FD2B2012A14
:1054A000E3D96E4A03F1180102EB4101B1F906504C
:1054B00003F12C0102EB4101CD8003F1140102EB59
:1054C0004101B1F9081003F1280502EB45021181F1
:1054D000CBE7644B1A786FF303021A704F226049CE
:1054E000624812F0ADF804E0604B012283F84420DA
:1054F00000245B4B19685A685B4B19605A60554B26
:105500001B7813F0F00F00F0A380594E776A594DC5
:105510005C2205F11001684612F092F895E80F0040
:10552000B847554A10EE103AC2F8453010EE903A9E
:10553000C2F84930336928469847002876D0B369C5
:10554000284698470546002870D0464B1A78012116
:1055500061F307121A70484B9A68D968013241F119
:1055600000019A60D960434AD2F81E00D2F8221096
:1055700018605960414BD3E9002352EA030603D077
:105580008B4208BF824261D23A48C36B3A4E3361C4
:10559000C27C817C1E30FFF769FE86F84400002340
:1055A00005E00024A5E70024A9E70133DBB2022BC4
:1055B00031D8304903F1100201EB8202D2F80CC05D
:1055C0002D4A03F10E0602EB8607C7F800C001EB77
:1055D0008601896803F10A0602EB86025160021F08
:1055E000D2B2012AE1D9234A03F1180102EB4101A9
:1055F000B1F9066003F12C0102EB4101CE8003F109
:10560000140102EB4101B1F9081003F1280602EB85
:1056100046021181C9E7134B1A786FF307121A700B
:105620004F221549164812F00BF804E0124B0122E4
:1056300083F844200025104B19685A680F4B1960F5
:105640005A6044EA0500C0B21DB0F0BD0025F2E783
:105650000025F6E7683F0020B4010020103D00203F
:10566000043E00206C3F0020A83E0020543E002055
:10567000DC0100201C3C0020B03E0020503F0020F8
:10568000003F002008B5034BDB68034A10689847C9
:1056900008BD00BF9C040020643F002008B5054BF6
:1056A0001B7813F00F0F03D0034B5B690348984737
:1056B00008BD00BF683F0020B4010020103D00205D
:1056C00008B5054B1B7813F0F00F03D0034BDB68D4
:1056D0000348984708BD00BF683F0020DC01002058
:1056E0001C3C00200B6801330B6070470B680133D2
:1056F0000B6070470B6801330B60704730B595B095
:1057000004460D464F220021684611F0A7FF012DE7
:1057100009D0022D18D04F226946204611F090FF83
:10572000204615B030BD114B1B7813F00F0F05D17B
:105730004F220F49684611F083FFECE74F220D49D5
:10574000684611F07DFFE6E7084B1B7813F0F00F79
:1057500005D14F220849684611F072FFDBE74F225E
:105760000649684611F06CFFD5E700BF6C3F00208A
:10577000043E0020543E0020B03E0020003F0020A8
:1057800038B5374C236837489847374B18606368FB
:10579000092236499847FFF749FC0546FFF7B6FC52
:1057A00004460023324A1370324A13708DBB304BCB
:1057B0001A78012161F303021A70002C33D12C4BAB
:1057C0001A78012161F307121A704F242246002132
:1057D000294811F043FF22460021284811F03EFFDE
:1057E00022460021264811F039FF22460021254893
:1057F00011F034FF1E4B1B78FBB113F00F0202D1E6
:1058000013F0F00F23D12AB313F0F00F24D00020AF
:1058100038BD134B9D6804231B4A6FF004011248E6
:105820000068A847C9E70E4B9C680423174A4FF04D
:10583000FF310D480068A047C7E7094B9C68042367
:10584000134A012108480068A0470120E0E76FF0F3
:105850000400DDE70020DBE74FF0FF30D8E700BFB2
:105860009C040020DC830308643F0020B402002075
:10587000683F00206C3F0020043E0020B03E002026
:10588000543E0020003F00205C3F0020603F00208D
:10589000583F00207047034688B1827B8A420ED968
:1058A000D0F82A20012000FA01F10A4204D022EAAD
:1058B0000102C3F82A2070470A43C3F82A20704720
:1058C00010B5044603F0A0FAD4F81330C01A61F101
:1058D0000001002908BF652811D20022A37B934252
:1058E0000BD9D4F8173033F81230643B9BB2B3F5C0
:1058F000E16F06D80132D2B2F0E7012000E00020CB
:1059000010BD0020FCE770B584B00646002300936C
:105910000193029301238DF80C300C46C9B1012389
:1059200084F829302046FFF7CBFFD0B16B462546DF
:1059300055F8130F6968AA6807C32A7B1A700023F9
:1059400084F8293094F82830ABB1002384F828304B
:10595000E5E76B4607CB30607160B2601B7833734C
:1059600006E06B4607CB30607160B2601B78337322
:10597000304604B070BD6B4607CB30607160B260DA
:105980001B783373F4E7002800F0AB8030B587B0A4
:1059900015460446036A3BB1426A2AB1D0F80F00AB
:1059A00010B16278012A01D007B030BD94F82920E7
:1059B000EAB1012284F828202278012A1BD02AB9D2
:1059C0005B682A4698470346002869D003F01CFA12
:1059D000C4F81300636A5B68002BE5D0D3F8AD010F
:1059E0000028E1D02A46002111F038FEDCE7002231
:1059F00084F82820E0E75B682A46984714280AD0F4
:105A00001628D1D1236A9B68D4F81710D4F80F0058
:105A1000984700231DE0236ADB68D4F80F1068461E
:105A200098479DF80030A4F81B30236ADB68D4F84F
:105A30000F1003A898479DF80E30A4F81D30C5E755
:105A4000B1F5E16F12D94FF4E16111520EE001336B
:105A5000DBB2A27B9A421ED9D4F81720580032F844
:105A60001310B329ECD8B42122F81310D4F82A204B
:105A7000002AECD0012199400A42E8D0D4F817104E
:105A80000A5AA2F57A720A52D4F817100A5AC2F5C5
:105A90007A720A52DBE70023E37797E70133DBB240
:105AA000A27B9A4292D9D4F80F10D4F8172058004C
:105AB00031F8131022F81310D4F82A20002AEDD060
:105AC000012199400A42E9D0D4F817100A5AA2F5E8
:105AD0007A720A52D4F817100A5AC2F57A720A5228
:105AE000DCE77047F8B50E46B1FA81F149090028A4
:105AF00014BF0C46012414B100242046F8BD05460D
:105B00004FF4807200215F4811F0A8FD5E4F3B68A2
:105B10005E4898475E4B18607B6804225D49984751
:105B20006B78012B0AD0022B66D0574B9D681E2341
:105B3000594A012156480068A847DEE71E22002185
:105B4000554811F08BFD2B78002B60D0012BD4D160
:105B50006FF05F033370682373700623B370002304
:105B6000F3706E2002F0B2F9C5F80F0000286BD078
:105B7000002385F8463085F8473085F8483085F8A9
:105B8000493085F8423085F8433085F8443085F84F
:105B900045301023AB73414B2B621B68984700289C
:105BA0006ED02746A87B400002F090F9C5F8170098
:105BB00000284BD0082002F089F96862002848D0FC
:105BC000002F4BD12F4BC6F8AD31002386F8B131F1
:105BD000012386F8B231C6F8B451314BC6F8A93169
:105BE000304B1B6830469847044600283FD06B6A0C
:105BF0002C4A1A606B6A5E60002385F82A3085F8AB
:105C00002B3085F82C3085F82D30012475E76FF0A6
:105C10005F0333706FF0790373700123B370002357
:105C2000F370212002F052F9C5F80F0050B1102393
:105C3000AB731D4B2B621B68984708B12746B1E731
:105C400004465AE70127ADE70127ABE702F09EF9CA
:105C500053E7D5F8170002F099F94EE70A4B9D6813
:105C60001E230D4A01210A480068A84745E7064B54
:105C70009D681E23084A032105480068A8473CE7A1
:105C800004463AE7480102249C040020DC8403080F
:105C9000703F0020A0030020743F0020300200204D
:105CA0008759020874010020280200202DE9F041E4
:105CB0000546884617461E464FF4EC7002F006F97A
:105CC000044628B34FF4EC72002111F0C7FCC4F86D
:105CD000055008AD07CDC4F88D01C4F89111C4F882
:105CE00095210BAD07CDC4F89901C4F89D11C4F8F6
:105CF000A1219DF81C30237184F8138184F814715C
:105D000084F89960069B84F89A302046BDE8F081BB
:105D100002F03CF9F9E7000070B51E4B5D7895B3D1
:105D2000DB7883422ED91B4BD3F8052000EB4000D3
:105D3000C0EBC00413195E885889864225D1881E9D
:105D4000C0B2012823D9125D032A03D9042A1AD02C
:105D5000002518E052B20AB9002514E079B9802173
:105D60000D4E726801F08001186990477368094A06
:105D7000D2F80500204400210069984703E04FF461
:105D80008071EDE70025284670BD0025FBE7002562
:105D9000F9E700BFC84600204002002010B51D4BA7
:105DA0001C789CB1012010BD631EDBB2012B25D9EC
:105DB000184BD3F8052004EB4403C3EBC30313448F
:105DC000197D2046FFF7A8FF0134E4B2114BDB78C0
:105DD000A342E7D9032C14BF00230123002C08BFE2
:105DE0000123002BE0D00B4BD3F8052004EB440338
:105DF000C3EBC303134401221A75D9E7054BD3F84B
:105E0000052004EB4403C3EBC303134400221A75BB
:105E1000CEE700BFC84600200346194A507868B351
:105E2000D2789A4228D910B5154AD2F8052003EB4A
:105E30004301C1EBC1042244127D1AB1012A0ED0E4
:105E4000002010BD01211846FFF766FF0028F8D09A
:105E50000B4BD3F80510214401230B75F1E700210A
:105E60001846FFF759FF0028EBD0054BD3F8051073
:105E7000214400230B75E4E700207047704700BF02
:105E8000C846002082B0094B33F8022FADF8042039
:105E900000209DF8042062F307009DF8052062F3BE
:105EA0000F209B7863F3174002B07047C84600206C
:105EB000014B1878704700BFC846002070B5484BAA
:105EC0005D78002D00F08A80002800F0868003882D
:105ED0004F2B01D950230380038807EE903AF8EE48
:105EE000E77A9FED407AC7EE876A00211DE03C4BC0
:105EF000D3F8054001EB4103C3EBC3031C44A28864
:105F0000E388D21A07EE902AF8EEE77A27EEA67A0F
:105F100007EE903AF8EEE77A77EE877AFCEEE77ACA
:105F200017EE903A63800131C9B20329DFD92C4AB8
:105F3000D2F80510438884881B1B9BB2C4881B1BA6
:105F40004C8823444B80D2F80520438881880B4439
:105F5000C18811FA83F3B2F817100B44A2F8173076
:105F6000C488438881880B449BB2918DE31A0B440B
:105F70009385838841885B1A9BB2C1885B1AB2F80B
:105F800041100B44A2F84130002413E0908886B2FF
:105F9000B14200D35080124AD2F80520D018D35C09
:105FA000013B022B1AD8104B9B6841880069984727
:105FB0000134E4B20A4BDB78A3420FD9084BD3F883
:105FC000052004EB4403C3EBC3031A445188D08873
:105FD00086B2B142DAD85080DDE70025284670BD90
:105FE000C84600200000C8424002002070B502F000
:105FF0000BFF1E4B186059601D4AD4781C72127931
:106000005A72002314E01A4AD2F8050003EB430247
:10601000C2EBC2021044191B067D144A551885F8BC
:10602000326040880C3102EB410250800133DBB218
:106030000F4A92789A4214D99C42E4D90C4AD2F879
:10604000051003EB4302C2EBC20211444D88074A1C
:10605000181D02EB40004580097D1A4482F82A1081
:10606000E4E70449044801F061FE70BD48020224DF
:10607000C8460020E0040020B404002060B108B548
:10608000064B5B7813B1054B1B7803B108BDFFF7D6
:1060900015FFFFF7ABFFF9E7704700BFC8460020C8
:1060A00010B5144B5C78BCB10022124B9B78934224
:1060B0001CD9104BD3F8051002EB4203C3EBC3030A
:1060C000C818CB5C032B04D9042B07D10132D2B200
:1060D000EBE75BB223B90024204610BD0024FBE7A8
:1060E000054B9B68418900699847F5E7FFF77EFFFC
:1060F000F2E700BFC8460020400200202DE9F04131
:1061000084B004AF294CE27823791A44D31D03F4F8
:106110007E73ADEB030D04A80646254911F090FAF5
:10612000E37833B9214B1B79002B3BD01F4BDB7835
:1061300034E000251D4BDB789D42F3D2705D1B4996
:10614000D1F8053005EB4502C2EBC2021344305CC6
:106150005870735DD1F805100A44C3EBC30399006E
:10616000144C0C44D460144BD3F80080D2F810C007
:10617000A368E268D2B20392DBB202936B46224676
:1061800052F8140F516803C323696268216860469E
:10619000C0470135EDB2CDE70133DBB2034A927857
:1061A0009342F9D3BD46BDE8F08100BFC846002048
:1061B000B0860308608503084002002070B50D46D4
:1061C000704A00231360536013726F4A1360C2F861
:1061D0000330062800F2D480DFE800F0041F272FE8
:1061E000373F4700674B694A1188927859801A7186
:1061F000644C2070A07800EB4000C0EBC00080B27F
