:020000040800F2
:10000000000002205547030819B002081BB002087F
:100010001DB002081FB0020821B002080000000055
:1000200000000000000000000000000023B00208F3
:100030002FB002080000000031B0020839B00208F9
:10004000A5470308A5470308A5470308A5470308D4
:10005000A5470308A54703089DB00208A7B00208FA
:10006000B1B00208BBB00208C5B0020859B102081D
:1000700071B1020889B10208A1B10208B9B1020840
:10008000D1B10208A5470308A5470308A5470308FF
:10009000A5470308A5470308A5470308CFB00208F2
:1000A000A5470308A5470308A5470308A547030874
:1000B000A5470308A5470308A5470308A547030864
:1000C000A5470308A5470308A5470308A547030854
:1000D000A5470308A5470308A5470308A547030844
:1000E000F5B00208A547030800000000A547030873
:1000F000A5470308A5470308A5470308A547030824
:10010000A547030829B10208A5470308A547030826
:10011000E9B10208A5470308A5470308A547030856
:10012000A5470308A5470308A5470308A5470308F3
:10013000A5470308A5470308A5470308A5470308E3
:1001400000000000000000000000000000000000AF
:10015000A5470308A547030849B102080DB20208E4
:10016000A5470308A5470308A5470308A5470308B3
:10017000A5470308A5470308A5470308000000009A
:10018000A5470308A547030831B20208A54703089D
:10019000A5470308A5470308A5470308A547030883
:1001A000A5470308A5470308A5470308A547030873
:1001B000A5470308A5470308A5470308A547030863
:1001C000A5470308A5470308A5470308A547030853
:1001D000A54703088DB00208A5470308A5470308F3
:1001E000A5470308A5470308A5470308A547030833
:1001F000A5470308A5470308A5470308A547030823
:10020000A5470308A5470308A5470308A547030812
:10021000A5470308A5470308A5470308A547030802
:10022000A5470308A547030839B1020800000000EC
:10023000A5470308A547030800000000A5470308D9
:10024000A5470308A5470308A5470308A5470308D2
:10025000A5470308A5470308A5470308A5470308C2
:10026000A5470308A5470308A5470308A5470308B2
:10027000A5470308A5470308A54703080000000099
:10028000A5470308A5470308A54703080000000089
:0802900000000000A54703086F
:100298000000000000000000000000000000000056
:1002A8000000000000000000000000000000000046
:1002B8000000000000000000000000000000000036
:1002C8000000000000000000000000000000000026
:020000040802F0
:1007600010B5054C237833B9044B13B10448AFF3EB
:1007700000800123237010BDB02F00200000000076
:10078000145D030808B5034B1BB103490348AFF3DD
:10079000008008BD00000000B42F0020145D030895
:1007A00010F8012B11F8013B012A28BF9A42F7D01B
:1007B000D01A7047034613F8012B002AFBD1181AF0
:1007C0000138704700000000000000000000000039
:1007D00001F0FF01102A2BDB10F0070F08D010F8F2
:1007E000013B013A8B422DD010F0070F42B3F6D1F6
:1007F000F0B441EA012141EA014122F007047FF00F
:1008000000070023F0E80256083C85EA010586EA65
:10081000010685FA47F5A3FA87F586FA47F6A5FAA1
:1008200087F68EB9EED1F0BC01F0FF0102F00702AD
:1008300032B110F8013B013A83EA010313B1F8D158
:100840000020704701387047002D06BF3546033839
:10085000073815F0010F07D1013015F4807F02BF72
:10086000013015F4C03F0130F0BC0138704700BFC3
:1008700080F0004002E000BF81F0004142001FBF55
:100880005FEA410392EA030F7FEA226C7FEA236C5E
:100890006AD04FEA1262D2EB1363C1BFD218414053
:1008A00048404140B8BF5B42192B88BF704710F0E9
:1008B000004F40F4000020F07F4018BF404211F08C
:1008C000004F41F4000121F07F4118BF494292EAF4
:1008D000030F3FD0A2F1010241FA03FC10EB0C0020
:1008E000C3F1200301FA03F100F0004302D54942AD
:1008F00060EB4000B0F5000F13D3B0F1807F06D35A
:1009000040084FEA310102F10102FE2A51D2B1F151
:10091000004F40EBC25008BF20F0010040EA030046
:100920007047490040EB0000013A28BFB0F5000FC6
:10093000EDD2B0FA80FCACF1080CB2EB0C0200FA7C
:100940000CF0AABF00EBC25052421843BCBFD040CB
:100950001843704792F0000F81F4000106BF80F445
:1009600000000132013BB5E74FEA41037FEA226C08
:1009700018BF7FEA236C21D092EA030F04D092F0D3
:10098000000F08BF0846704790EA010F1CBF002007
:10099000704712F07F4F04D1400028BF40F0004064
:1009A000704712F100723CBF00F50000704700F084
:1009B000004343F0FE4040F4000070477FEA2262AB
:1009C00016BF08467FEA23630146420206BF5FEA7C
:1009D000412390EA010F40F4800070474FF000037C
:1009E00004E000BF10F0004348BF40425FEA000C43
:1009F00008BF704743F0964301464FF000001CE0EB
:100A000050EA010208BF70474FF000030AE000BF40
:100A100050EA010208BF704711F0004302D540427E
:100A200061EB41015FEA010C02BF844601460020F0
:100A300043F0B64308BFA3F18053A3F50003BCFA0B
:100A40008CF2083AA3EBC25310DB01FA02FC6344B8
:100A500000FA02FCC2F12002BCF1004F20FA02F2BF
:100A600043EB020008BF20F00100704702F12002B2
:100A700001FA02FCC2F1200250EA4C0021FA02F213
:100A800043EB020008BF20EADC70704753B94AB953
:100A9000002908BF00281CBF4FF0FF314FF0FF3086
:100AA00000F074B9ADF1080C6DE904CE00F006F861
:100AB000DDF804E0DDE9022304B070472DE9F047DA
:100AC000089D04468E46002B4DD18A42944669D932
:100AD000B2FA82F252B101FA02F3C2F1200120FA15
:100AE00001F10CFA02FC41EA030E94404FEA1C4863
:100AF000210CBEFBF8F61FFA8CF708FB16E341EA5F
:100B0000034306FB07F199420AD91CEB030306F1E4
:100B1000FF3080F01F81994240F21C81023E634405
:100B20005B1AA4B2B3FBF8F008FB103344EA0344A9
:100B300000FB07F7A7420AD91CEB040400F1FF33BE
:100B400080F00A81A74240F207816444023840EAFB
:100B50000640E41B00261DB1D4400023C5E9004334
:100B60003146BDE8F0878B4209D9002D00F0EF80B7
:100B70000026C5E9000130463146BDE8F087B3FAEA
:100B800083F6002E4AD18B4202D3824200F2F980D2
:100B9000841A61EB030301209E46002DE0D0C5E9D5
:100BA000004EDDE702B9FFDEB2FA82F2002A40F021
:100BB0009280A1EB0C014FEA1C471FFA8CFE012624
:100BC000200CB1FBF7F307FB131140EA01410EFBC8
:100BD00003F0884208D91CEB010103F1FF3802D26F
:100BE000884200F2CB804346091AA4B2B1FBF7F069
:100BF00007FB101144EA01440EFB00FEA64508D98C
:100C00001CEB040400F1FF3102D2A64500F2BB80C8
:100C10000846A4EB0E0440EA03409CE7C6F1200717
:100C2000B34022FA07FC4CEA030C20FA07F401FA5D
:100C300006F31C43F9404FEA1C4900FA06F3B1FBE6
:100C4000F9F8200C1FFA8CFE09FB181140EA01414B
:100C500008FB0EF0884202FA06F20BD91CEB0101E8
:100C600008F1FF3A80F08880884240F28580A8F140
:100C700002086144091AA4B2B1FBF9F009FB101192
:100C800044EA014100FB0EFE8E4508D91CEB010130
:100C900000F1FF346CD28E456AD90238614440EAD3
:100CA0000840A0FB0294A1EB0E01A142C846A64653
:100CB00056D353D05DB1B3EB080261EB0E0101FADC
:100CC00007F722FA06F3F1401F43C5E90071002639
:100CD0003146BDE8F087C2F12003D8400CFA02FC8F
:100CE00021FA03F3914001434FEA1C471FFA8CFE9F
:100CF000B3FBF7F007FB10360B0C43EA064300FB8F
:100D00000EF69E4204FA02F408D91CEB030300F12C
:100D1000FF382FD29E422DD9023863449B1B89B2E3
:100D2000B3FBF7F607FB163341EA034106FB0EF36C
:100D30008B4208D91CEB010106F1FF3816D28B4219
:100D400014D9023E6144C91A46EA004638E72E46E5
:100D5000284605E70646E3E61846F8E64B45A9D2DD
:100D6000B9EB020864EB0C0E0138A3E74646EAE74C
:100D7000204694E74046D1E7D0467BE7023B6144FA
:100D800032E7304609E76444023842E7704700BF63
:100D900008B54FF47A6005F0CFFB00F047F900F09A
:100DA000ABF905F00FFC08BD00B585B004AB03E955
:100DB0000700064B5B6833B104AA12E907009847A5
:100DC00005B05DF804FB0020FAE700BF1C0100201D
:100DD00000B585B00DF1100C0CE907001A46064B62
:100DE000DB6933B1BDF808109847012005B05DF804
:100DF00004FB0020FAE700BF1C01002000B1FEE761
:100E00007047000070B582B0214B1B782BB10546AE
:100E10000C46204B1B78012B11D91D4B1B78002B46
:100E20002DD01D4B1C6A1D4B1A7C8DF800200FCB5A
:100E3000A047042827D0174B187802B070BD164B76
:100E40001E6A164B1A7C8DF800200FCBB047032882
:100E500009D0114B1E6A114B1A7C8DF800200FCB64
:100E6000B0470028D9D10B4E022333700A4B9B693F
:100E7000224629460948984701203070DDE70420C2
:100E8000044B1870D9E70320024B1870D5E700BF58
:100E9000FD2F0020EA2F0020D0030020EC2F00209F
:100EA000014B01221A707047FE2F002008B509F08F
:100EB00073F808B9012008BD0020FCE708B5024816
:100EC00009F080F808BD00BF6C5E030870B5194CCE
:100ED0001E220021204613F0A9FC174E2F252A467A
:100EE0000021304613F0A2FC2660A58008F060FFC8
:100EF000C8B1124B9B684FF4805211491148984772
:100F00000446A0B10125104B1D70104809F072F87D
:100F10000F4808F015F80F4B1B690F4928469847F2
:100F20000E4B1D7003E004460C4B02221A70204643
:100F300070BD00BFCC2F002000000224D003002091
:100F4000845E0308EC2F0020FD2F0020A10E020874
:100F5000AD0E020808040020050E0208080000205B
:100F6000F0B583B02B4B5C682B4A012307CAA0471E
:100F70002A4B1B78012B07D0264B5C68264A00239E
:100F800007CAA04703B0F0BD254B1B78002BF3D058
:100F9000244B1C6A244B1A7C8DF800200FCBA047F1
:100FA00048B1204B1C6A204B1A7C8DF800200FCBD7
:100FB000A0470428E0D11B4B1C681B4B1A7C8DF802
:100FC00000200FCBA0470028D6D0164B1C68164B2C
:100FD0001A7C8DF800200FCBA04704F0DFFE0646F8
:100FE0000028C9D00F4F3D680F4C237C8DF800308E
:100FF00094E80F00A8470546FB69024631462046A3
:10100000984729463046FFF751FF304604F026FF47
:10101000B2E700BF000000206C00002008000020A4
:10102000FE2F0020D0030020EC2F002010B5244C10
:10103000244B93E8070023689847234B93E8070065
:10104000236898472468214B93E80700A047204C69
:10105000204B93E80700236898471F4B93E807004D
:10106000236898471D4B93E80700236898471C4B5B
:1010700093E80700236898471A4B93E80700236812
:101080009847194B93E8070023689847174B93E854
:10109000070023689847164B93E807002368984792
:1010A0002468144B93E80700A04704F075FDFFF790
:1010B0000DFF00F06FF800F0BDFC00F029FA10BD44
:1010C000E0010020AC000020B8000020C400002097
:1010D0000000002048000020540000206000002094
:1010E0006C000020180000202400002030000020A8
:1010F0003C0000200C00002010B582B04FF480644A
:101100000194184B009300231A464FF4FA611648D5
:1011100005F0AAFA154B18600194154B00930023B3
:1011200001226421134805F09FFA134B18600194C3
:10113000124B009300230222C821114805F094FAB3
:10114000104B18604FF4007301930F4B0093012371
:1011500000224FF4FA710D4805F086FA0C4B186026
:1011600002B010BDE5110208A85E0308003000209F
:10117000610F0208B85E0308083000205D160208FF
:10118000C05E030804300020511C0208CC5E030836
:101190000C30002070B50F4C1E220021204613F0A9
:1011A00045FB0D4E2F252A460021304613F03EFB0D
:1011B0002A46002106F1300013F038FB2660A58096
:1011C000064B1B689847012800D070BD044B0122D4
:1011D0001A70FAE710300020300002247402002058
:1011E0002E30002070B58CB03D4B5C683D4A012329
:1011F00007CAA0473C4B1C78002C66D13B4B5B6870
:101200009847002861D0394B9B6801216846984770
:10121000EC46374D08AEAE46DCF80000DCF80410B2
:10122000DCF80820DCF80C30AEE80F000CF1100CF4
:101230007546B445EFD1DCF80000DCF80410DCF8AA
:10124000082007C5BCF80C209CF80E302A80AB7033
:10125000264B9B68022168469847EC46254D08AE10
:10126000AE46DCF80000DCF80410DCF80820DCF8FE
:101270000C30AEE80F000CF1100C7546B445EFD100
:10128000DCF80000DCF80410DCF8082007C5BCF826
:101290000C209CF80E302A80AB7010E0144B1A5DC5
:1012A000B3F82D100A44A3F82D201A1992F8302013
:1012B000B3F85D100A44A3F85D200134E4B22C2C8D
:1012C000ECD90D490D4804F0B5FC084BDB68984794
:1012D000034B5C68034A002307CAA0470CB070BDEB
:1012E00000000020300000202E300020740200207A
:1012F0003000022460000224203100201030002041
:1013000084B070B582B007AC84E80E000F9E80B345
:1013100004461E4B1D68037C8DF800300068616830
:10132000A268E368A84720B3DDF836300BB3337802
:1013300043F001033370154B1D68237C8DF800309A
:1013400020686168A268E368A8470546B0F5007F99
:1013500001D840B101E04FF400750C4BDB692A461F
:101360000B492046984733786FF3000333702DB94B
:10137000002002B0BDE8704004B07047054B1C6906
:101380002B46034A04490548A047F2E7D003002052
:10139000E0310020B0050020403100203030002036
:1013A00050B11F4B1B783BB11E4B1B7813F0010F44
:1013B00002D01D4B984200D070471C4B1B7813F095
:1013C000010FF9D030B583B0194B1C6A194B1A7C48
:1013D0008DF800200FCBA04748B1154B1C6A154B68
:1013E0001A7C8DF800200FCBA04703280CD1104D9C
:1013F000AB69104C0322104920469847AD690A4B4F
:101400009A8819682046A8470C4B1B7813F0010FE7
:1014100004D1074B5B6A0A490648984703B030BDC0
:10142000A6310020DC31002020310020D431002002
:10143000D0030020F8300020085F0308D8310020D6
:101440000C310020284B1B78002B4CD010B586B0F7
:10145000264B1B7813F0010F17D1254B1B68254A2B
:1014600012689B1AB3F5FA7F0DD3234A137883F0E1
:1014700001031370214A5468214A07CAA0471C4B34
:101480001A681C4B1A6006B010BD1E4C1E4B05930B
:10149000EC4604F10C0EBEE80F00ACE80F00DEF8DD
:1014A0000030ACF8003094E80E001848FFF728FF31
:1014B000044605F023FC0E4B1860012CE3D10D4BC4
:1014C0001B68C01AC728DED90B4A137883F00103C2
:1014D00013700A4A54680A4A07CAA047044B1A689C
:1014E000044B1A60CFE77047A6310020DC310020A2
:1014F000E4330020E8330020E0330020E001002046
:10150000B800002020310020D83100200C3100200C
:101510002DE9F0439FB03B4C1E220021204613F0E2
:1015200085F966220021384813F080F9374DC8222A
:101530000021284613F07AF9354820602F23A38034
:10154000344BC4F8063080B204F028FCC4F81A000A
:101550000023314A1380314A1380314B1B683149D3
:101560002846984700283FD02D4D6B68DFF8E8905B
:10157000264C022249462046984703462A4A1060D4
:10158000DFF88480294F4FF0807200923A4621465E
:1015900002A8AE68B047662202A9404613F038F9A7
:1015A000ED6843463A4649462046A847204B9B688B
:1015B0004FF420521F4920489847A8B11C4BDC68C3
:1015C0004FF420531D4A1E491E48A04760B11E4BD0
:1015D00001221A701D4A137843F0010313700E4A5A
:1015E000137843F00103137000231C93ADF874309B
:1015F000174B1EAA12E90600164805F00DF81FB099
:10160000BDE8F08320310020403100203030002040
:1016100090000224A1130208DC310020D831002000
:10162000B0050020050E0208A8310020E05E030886
:10163000D0030020E85E0308F8300020B007002047
:10164000F85E03080C310020A6310020D4310020C0
:1016500045140208AC310020D85E0308704782B000
:1016600000238DF800308DF80130024690B1B2B100
:101670001369A3B159680988B3F802C061450ED84F
:101680001B8899420BD3D2689DF8003001338DF846
:101690000030ECE7BDF80030ADF8043008E09DF80C
:1016A0000020037D9A420ED0BDF80030ADF8043022
:1016B00000209DF8043063F307009DF8053063F3C4
:1016C0000F2002B0704701238DF80130ECE758B1CC
:1016D000036963B15A6812881888824209D358880E
:1016E000824206D81046704740F2B630704740F24A
:1016F000B63070472DE9F04389B004460E46002508
:101700000D604FF0010981F8019081F80090DFF839
:101710005880124A05AB07CA83E80700104A02AB9B
:1017200007CA83E807000195052300932B4604228E
:1017300029460C48D8F80070B8470146D8F8083058
:1017400030469847207084F80190A570E570022318
:1017500023736573A57309B0BDE8F083040100200D
:1017600010010020004C00405C030020F0B591B057
:1017700005460023089309930A938DF82C300493AF
:1017800005930693ADF81C306FF049008DF81300F7
:1017900003238DF814308DF815008DF816308DF870
:1017A00017008DF818308DF819008DF81A30002ABE
:1017B00018BF002925D00C4613460A780AB3484AB8
:1017C000D26819466846904708AB00980199029A7A
:1017D00007C39DF80C201A700023E374237563750A
:1017E000A3759DF82C30002B53D1BDF82830A4F8F8
:1017F0001330BDF82A30A4F81530E3785BB1002629
:1018000030E004AB07CB28606960AA601B88AB811D
:10181000284611B0F0BD04F16B00FFF720FFADF8D2
:1018200030009DF83130637004F18000FFF717FF3E
:10183000ADF834009DF834302373013BDBB2022B4A
:10184000DDD902232373DAE7770006EB4600C0EB0D
:10185000C000103020440730FFF739FF2744B8801C
:101860000136F6B2032EEFD904F19500FFF7F7FE2B
:10187000ADF838009DF83930A3706378E3B104F116
:10188000BF00FFF7ECFEADF83C009DF83D30E37083
:1018900012E0012363700023E370A370022222731D
:1018A00008E004EB43026FF049011171032151710B
:1018B0000133DBB2032BF4D904ABD4F80100D4F824
:1018C0000510D4F8092007C3B4F80D201A8004AB22
:1018D00007CB28606960AA601B88AB8198E700BFCE
:1018E0005C0300202DE9F041BDF81860002918BF05
:1018F000002819D014461D460746884640F60203C4
:101900009E4294BF0023012340F2B53295420BD989
:1019100053B9082004F042FA014640B1C0F80480EF
:1019200046800580032C05D90020BDE8F08104F035
:1019300095FAF9E704EB4404C4EBC4043B19012213
:1019400083F82B2010343C44E01D03F010FCECE73E
:101950002DE9F041BDF81870002918BF00280CBF10
:101960000120002029D015461E46884640F6020474
:10197000A74294BF0024012440F2B5339E4298BF91
:1019800044F00104D4B9082004F008FA014680B1FB
:10199000C0F804804780068001242C752C70002339
:1019A0002B716B71AB71EB71284603F0E0FB2046A5
:1019B00004E004F053FA204600E00020BDE8F08186
:1019C000002918BF00280CBF012000202FD0F8B537
:1019D0001546BDF8184040F60202944294BF002418
:1019E000012440F2B532934298BF44F0010404B19F
:1019F000F8BD082004F0D2F9074680B1142004F0A5
:101A0000CDF9064678B12B7D01332B75394603F0AD
:101A1000AEFB3146284603F0E4FB0120E8E704F082
:101A20001DFA2046E4E704F019FA2046E0E700201A
:101A30007047000000B583B06E496F48FFF75AFE4B
:101A400010B903B05DF804FB40F60203009340F2C6
:101A5000B63300226749D1F817106748FFF742FFF5
:101A600028B9654B00221A7001225A70E9E7614BD0
:101A7000D3F8171040F60203009340F2B633012268
:101A800002315D48FFF72EFF0028EAD0594BD3F80A
:101A9000171040F60203009340F2B63302220431DD
:101AA0005548FFF71FFF0028DBD0524BD3F8171023
:101AB00040F60203009340F2B633032206314E484B
:101AC000FFF710FF0028CCD04A4BD3F817104A4834
:101AD00040F2DC53009340F2B63300F16B02083160
:101AE000FFF736FF0028BCD0424BD3F8171042480E
:101AF00040F2DC53009340F2B63300F195020A3114
:101B0000FFF726FF0028ACD03A4BD3F817103A481D
:101B100040F21453009340F2B63300F180020C31CE
:101B2000FFF716FF00289CD0324BD3F8171032482D
:101B300040F27263009340F2145300F180020C31C2
:101B4000FFF73EFF00288CD02A4BD3F817102A4805
:101B500040F60203009340F2726300F180020C3100
:101B6000FFF72EFF00283FF47CAF234840F21A43D2
:101B7000009340F2B63300F1BF021E49D1F81710AE
:101B8000FFF7E6FE00283FF46CAF1A4BD3F81710AE
:101B9000194840F21A43009340F2B63300F1BF02F5
:101BA0000231FFF70DFF00283FF45BAF114BD3F874
:101BB0001710114840F60203009340F29E7300F1A3
:101BC000BF020431FFF7FCFE00283FF44AAF094B87
:101BD000D3F81710084840F21A43009340F2B63386
:101BE00000F1BF020631FFF7EBFE00287FF429AFBA
:101BF00037E700BFCC340020F833002038B505F0BB
:101C00007DF805460C4664220023FEF73FFF134390
:101C10000ED10B4B1A685B68A34208BFAA4207D0DB
:101C2000084A137883F001031370054B1D605C6054
:101C3000054B5C68054A034B1B7807CAA04738BDB3
:101C4000F03300200E350020E0010020AC00002021
:101C500000B585B0FFF7D2FF034A04496846FFF795
:101C600085FD05B05DF804FBCC340020F83300207E
:101C700007EE900AF8EE677A17EE900AC0F3C750A5
:101C80007F38C0B2704700008CB0654B98422FD0AF
:101C9000644B98423CD0644B984248D0634B984286
:101CA00054D0634B984260D0624B98426CD0624BE8
:101CB000984278D0614B984200F08480604B984203
:101CC00000F08F805F4B984200F09A805E4B984204
:101CD0001CD103F5E053D3F8E02042F48062C3F84E
:101CE000E020D3F8E03003F480630B930B9B0DE00E
:101CF00003F58843D3F8E02042F00102C3F8E02066
:101D0000D3F8E03003F001030193019B0CB070475E
:101D100003F58043D3F8E02042F00202C3F8E0204C
:101D2000D3F8E03003F002030293029BEEE703F5E1
:101D30007053D3F8E02042F00402C3F8E020D3F857
:101D4000E03003F004030393039BDFE703F56053E4
:101D5000D3F8E02042F00802C3F8E020D3F8E030E6
:101D600003F008030493049BD0E703F55053D3F822
:101D7000E02042F01002C3F8E020D3F8E03003F096
:101D800010030593059BC1E703F54053D3F8E0200A
:101D900042F02002C3F8E020D3F8E03003F0200343
:101DA0000693069BB2E703F53053D3F8E02042F0E8
:101DB0004002C3F8E020D3F8E03003F0400307937B
:101DC000079BA3E703F52053D3F8E02042F08002FD
:101DD000C3F8E020D3F8E03003F080030893089BB9
:101DE00094E703F51053D3F8E02042F48072C3F86F
:101DF000E020D3F8E03003F480730993099B85E772
:101E000003F50053D3F8E02042F40072C3F8E02059
:101E1000D3F8E03003F400730A930A9B76E700BF1F
:101E2000000002580004025800080258000C025832
:101E3000001002580014025800180258001C0258E2
:101E400000200258002402580028025810B584B01F
:101E500004AC04E907001C46BDF80800FFF708FFC2
:101E6000024B43F8204004B010BD00BF10350020E5
:101E700008B50DF074F808BD10B58AB001AB83E861
:101E800007000446FFF700FFBDF808300593022362
:101E90000693002207920893039B099305A9204605
:101EA0000CF09EFE01200AB010BD10B58AB001AB47
:101EB00083E807000446FFF7E7FEBDF80830059306
:101EC0000023069302230793089305A920460CF0EC
:101ED00087FE01200AB010BD30B58BB001AB83E89E
:101EE0000700B0B10546FFF7CFFEBDF80810059119
:101EF000012406940794002308939DF80A2028469D
:101F00000DF02DF805A928460CF06AFE20460BB00E
:101F100030BD0020FBE700B585B004AB03E9070046
:101F2000BDF80830202B17D81AB2002A45D0013B43
:101F30001F2B42D8DFE803F0454741394141413B7F
:101F4000414141414141413D414141414141414185
:101F5000414141414141413FB3F5806F35D00BD9FB
:101F6000B3F5005F37D018D9B3F5804F37D0B3F54C
:101F7000004F22D128200DE0B3F5807F27D004D96F
:101F8000B3F5007F19D1172004E0402B21D0802B1E
:101F900013D1172005B05DF804FBB3F5006F1CD01A
:101FA000B3F5805F09D12820F4E70820F2E7092083
:101FB000F0E70A20EEE71720ECE70120FEF71EFF0E
:101FC000E8E70620E6E70720E4E72820E2E7172015
:101FD000E0E71720DEE72820DCE72820DAE72820E2
:101FE000D8E7F0B58BB001AC84E80700A8B31C4675
:101FF000054601AB93E80700FFF78DFF09F074FB7E
:10200000022C2FD0032C30D0012C28D04FF40414F4
:102010002846FFF739FEBDF8081005910694002701
:102020000797032608969DF80A2028460CF097FF8C
:1020300005A928460CF0D4FD01AC94E80700FFF791
:102040006AFF3A46314609F00BFB94E80700FFF7B8
:1020500062FF09F03BFB0BB0F0BD0020FBE74FF443
:102060008814D5E74FF40414D2E74FF44414CFE7B3
:10207000F0B58BB001AC84E8070078B31D46044688
:10208000FFF702FEBDF8086005964FF404130693AF
:1020900000270797032308939DF80A20314620461E
:1020A0000CF05DFF05A920460CF09AFD3046FFF7C5
:1020B000DFFD0B4B43F8205001AC94E80700FFF71D
:1020C0002AFF3A46042109F0CBFA94E80700FFF70B
:1020D00022FF09F0FBFA01200BB0F0BD0020FBE766
:1020E0001035002000B585B004AB03E90700BDF84A
:1020F00008100CF02DFF003818BF012005B05DF866
:1021000004FB000008B5FFF7B3FD034B53F8203084
:1021100003B1984708BD00BF103500208AB05B4B63
:1021200098422AD05A4B984237D05A4B984243D0C3
:10213000594B98424FD0594B98425BD0584B9842DC
:1021400067D0584B984273D0574B98427FD0574B2B
:10215000984200F08B80564B98421CD103F5E05317
:10216000D3F8E02042F48062C3F8E020D3F8E030F6
:1021700003F480630993099B0DE003F58843D3F8CA
:10218000E02042F00102C3F8E020D3F8E03003F091
:1021900001030093009B0AB0704703F58043D3F816
:1021A000E02042F00202C3F8E020D3F8E03003F070
:1021B00002030193019BEEE703F57053D3F8E0208F
:1021C00042F00402C3F8E020D3F8E03003F0040347
:1021D0000293029BDFE703F56053D3F8E02042F05F
:1021E0000802C3F8E020D3F8E03003F008030393BB
:1021F000039BD0E703F55053D3F8E02042F01002E0
:10220000C3F8E020D3F8E03003F010030493049BFC
:10221000C1E703F54053D3F8E02042F02002C3F8B1
:10222000E020D3F8E03003F020030593059BB2E7EC
:1022300003F53053D3F8E02042F04002C3F8E02029
:10224000D3F8E03003F040030693069BA3E703F5C1
:102250002053D3F8E02042F08002C3F8E020D3F806
:10226000E03003F080030793079B94E703F50053E6
:10227000D3F8E02042F40072C3F8E020D3F8E03055
:1022800003F400730893089B85E700BF0000025821
:102290000004025800080258000C025800100258AE
:1022A0000014025800180258001C0258002402585A
:1022B0000028025810B1C16101207047002070470A
:1022C00010B582B0BDF8104000940EF077FE10B14A
:1022D000002002B010BD0120FBE708B50FF07EF82A
:1022E00008B1002008BD0120FCE708B50EF004FD90
:1022F00008B1002008BD0120FCE7000084B008B54B
:102300000DF1080C8CE80F00099B2A4A934210D06B
:10231000294A934225D0294A93422AD0284A9342F7
:102320002FD0284A934234D0274A934239D00020F4
:1023300013E0264AD2F8F03023F48053C2F8F0308C
:10234000059902980CF05CFD069903980CF058FD75
:10235000079904980CF054FD0120BDE8084004B032
:1023600070471A4AD2F8E83023F48043C2F8E830C4
:10237000E6E7164AD2F8E83023F40043C2F8E83022
:10238000DEE7124AD2F8F03023F40053C2F8F030FE
:10239000D6E70E4AD2F8F03023F48013C2F8F030BA
:1023A000CEE702F50C32D2F8F43023F02003C2F865
:1023B000F430C5E70030014000380040003C0040E8
:1023C00000340140005001400014005800440258FD
:1023D00084B030B587B00AAC84E80F0000230193C5
:1023E000022202920393049305930546FFF796FE9B
:1023F0000D9B0193109C059401A928460CF0F0FB5D
:102400000B9D2846FFF78AFE0E9B0193059401A9B8
:1024100028460CF0E5FB0C9D2846FFF77FFE0F9B3E
:102420000193059401A928460CF0DAFB012007B0BE
:10243000BDE8304004B0704784B010B5ACB02EACED
:1024400084E80F00359C534B9C4211D0524B9C4268
:1024500056D0524B9C4261D0514B9C426CD0514B58
:102460009C4277D0504B9C4200F08280002042E09A
:102470004E4BD3F8F02042F48052C3F8F020D3F84A
:10248000F03003F480530493049B32AB93E80700CD
:102490008DE807002EAB0FCBFFF79AFF0A944FF49D
:1024A00080030B9300230C9307220D92369A0E9211
:1024B000379A0F924FF080621092389A11921293CD
:1024C00013931493159316931793189319931A93C0
:1024D0001B931C931D931E934FF000421F92209359
:1024E0000AA80EF055FB002851D188220AA9399874
:1024F00012F08EF901202CB0BDE8104004B07047F6
:102500002A4BD3F8E82042F48042C3F8E820D3F8FD
:10251000E83003F480430593059BB6E7234BD3F8DB
:10252000E82042F40042C3F8E820D3F8E83003F48E
:1025300000430693069BA8E71C4BD3F8F02042F417
:102540000052C3F8F020D3F8F03003F4005307939F
:10255000079B9AE7154BD3F8F02042F48012C3F89A
:10256000F020D3F8F03003F480130893089B8CE735
:1025700003F50C33D3F8F42042F02002C3F8F42022
:10258000D3F8F43003F020030993099B7DE7002082
:10259000B1E700BF0030014000380040003C00407F
:1025A000003401400050014000140058004402581B
:1025B0008AB05B4B98422AD05A4B984237D05A4B3C
:1025C000984243D0594B98424FD0594B98425BD0D8
:1025D000584B984267D0584B984273D0574B98420B
:1025E0007FD0574B984200F08B80564B98421CD1BD
:1025F00003F5E053D3F8E02042F48062C3F8E02012
:10260000D3F8E03003F480630993099B0DE003F5F0
:102610008843D3F8E02042F00102C3F8E020D3F869
:10262000E03003F001030093009B0AB0704703F50C
:102630008043D3F8E02042F00202C3F8E020D3F850
:10264000E03003F002030193019BEEE703F57053C2
:10265000D3F8E02042F00402C3F8E020D3F8E030E1
:1026600003F004030293029BDFE703F56053D3F802
:10267000E02042F00802C3F8E020D3F8E03003F095
:1026800008030393039BD0E703F55053D3F8E020EE
:1026900042F01002C3F8E020D3F8E03003F010035A
:1026A0000493049BC1E703F54053D3F8E02042F0C4
:1026B0002002C3F8E020D3F8E03003F020030593B4
:1026C000059BB2E703F53053D3F8E02042F0400217
:1026D000C3F8E020D3F8E03003F040030693069BF4
:1026E000A3E703F52053D3F8E02042F08002C3F8BB
:1026F000E020D3F8E03003F080030793079B94E7D2
:1027000003F50053D3F8E02042F40072C3F8E02050
:10271000D3F8E03003F400730893089B85E700BF0B
:10272000000002580004025800080258000C025829
:10273000001002580014025800180258001C0258D9
:102740000024025800280258002808BF002901D19F
:102750000020704738B5044600F1F405242200211A
:10276000284612F063F82946201D10F06DFB012069
:1027700038BD40B108B5043010F024FC042814BF63
:102780000020012008BD0020704708B504300FF07C
:10279000F1FF08B9012008BD0020FCE7F8B50546A7
:1027A0000C4616461F4604F0AFF904353B46324648
:1027B000214628460FF06EFF044604F0B1F974B1CB
:1027C00000240D4B1C702046F8BD134600221A70E1
:1027D000284610F04BF80128F5D00024F3E74FF01D
:1027E000FF33002BECD0044A1478002CEDD1BFF35A
:1027F0004F8F013BF5E700BF51350020F8B5054686
:102800000C4616461F4604F07FF904353B46324617
:10281000214628460FF0CEFE044604F081F974B13B
:1028200000240D4B1C702046F8BD134600221A7080
:10283000284610F01BF80128F5D00024F3E74FF0EC
:10284000FF33002BECD0044A1478002CEDD1BFF3F9
:102850004F8F013BF5E700BF5035002010B5B0B0F9
:102860000446BC22002101A811F0E0FFDCB1104BAE
:102870009C4202D0012030B010BD4FF48033019350
:1028800001A809F027FE80B90A4BD3F8D42042F4FE
:102890008032C3F8D420D3F8D43003F480330093CB
:1028A000009B0120E7E70020E5E70020E3E700BF09
:1028B000007000520044025810B586B00023019306
:1028C0000293039304930593022302930323049337
:1028D000002940D00C46214B984202D0002006B07F
:1028E00010BD0B6B05930869FFF762FEA36A0193A5
:1028F00001A920690CF074F96069FFF759FEE36AD9
:10290000019301A960690CF06BF92068FFF750FE94
:10291000A369019301A920680CF062F96068FFF7D0
:1029200047FEE369019301A960680CF059F9A068BA
:10293000FFF73EFE236A019301A9A0680CF050F94D
:10294000E068FFF735FE636A019301A9E0680CF0C7
:1029500047F90120C3E70020C1E700BF0070005223
:10296000002836D000B583B01B4AD2F8D41041F00D
:102970000101C2F8D410D2F8D42002F00102019271
:10298000019A164A02604FF0805282600022C260B3
:1029900002610221416108218161C26102624FF03E
:1029A0000071416201218162C262026342638263FB
:1029B0000DF01CFF18B1002003B05DF804FB0022ED
:1029C0000A217A2008F04CFE7A2008F07FFE0120D0
:1029D000F2E70020704700BF004402584000005258
:1029E00070B50446D0F8F000FFF738FF2168D4F83E
:1029F000F000FFF761FF002C3FD0D4F8F030204A00
:102A000093422AD01F4A934202D00025284670BD27
:102A10007C266360002323726372A372E3722373C4
:102A20006373A373E37323746374A374E3742375F0
:102A300063750222A275E37522766376A376E37648
:102A4000012222776377A377E37704F18400FFF70D
:102A500087FF054618B90025D8E73126D9E7201D9C
:102A600010F0C1FA0028F6D100220421304608F007
:102A7000F7FD304608F02AFEC8E70025C6E700BF8C
:102A800000700052002402480268054B9A4200D0B0
:102A90007047044B01221A70BFF34F8FF8E700BF55
:102AA00000700052513500200268054B9A4200D058
:102AB0007047044B01221A70BFF34F8FF8E700BF35
:102AC000007000525035002000B583B001900268BC
:102AD000064B9A4202D003B05DF804FB836B13F0FF
:102AE000100FF8D001A810F0DFFAF4E700700052E0
:102AF00070B5002918BF00280CBF0124002436D06F
:102B00001E460546A2B309300BF01EF848B1431E1D
:102B1000DBB2012B14D8D5F8CE310133C5F8CE3154
:102B200026E0D5F8BE310133C5F8BE3185F8B7616E
:102B300096B9D5F8CA310133C5F8CA31012417E076
:102B4000D5F8D2310133C5F8D23111E0D5F8CE3104
:102B50000133C5F8CE310BE0642295F8B841002C62
:102B6000E7D1531EDBB2002AF0D01A46F5E7002465
:102B7000204670BD10B510B10024204610BD90F85D
:102B8000B941002CF9D0C0F8111009300BF0DBFE70
:102B90000028F2D00024F0E710B510B10024204640
:102BA00010BD90F8B941002CF9D0C0F819100930C7
:102BB0000BF0C9FE0028F2D00024F0E710B510B1E8
:102BC0000024204610BD90F8B941002CF9D0C0F87F
:102BD000151009300BF0B7FE0028F2D00024F0E702
:102BE00010B510B10024204610BD034690F8B9413D
:102BF000002CF8D0017191B1002280F841206FF0D3
:102C00007F0180F8421080F8432080F8442003F1CF
:102C100009000BF098FE0028E5D00024E3E700222D
:102C200080F8412080F8422080F8432080F844203A
:102C3000EDE700002DE9F041EEB00446BC22002192
:102C40003FA811F0F3FD78252A46002121A811F0B4
:102C5000EDFD2A46002103A811F0E8FD4FF4806243
:102C600025924FF4803329934021239107920B93AF
:102C7000002C00F0C080D4F80930002B00F0BE809A
:102C8000D4F89B20002A00F0BC80D4F81521002A3B
:102C900000F0BA80674A934276D0674A934200F0C8
:102CA0008E80664A934240F0B88002233F933FA84B
:102CB00009F010FC002840F0B380614BD3F8E82005
:102CC00042F08042C3F8E820D3F8E83003F08043B4
:102CD0000293029B4F2304935023229302255227F1
:102CE0004FF07808424621A904F19B0011F090FDB5
:102CF00004F21516424603A9304611F089FD514BE6
:102D00001B68324694F8141194F813019847002870
:102D10006ED04C4B1B68324694F89A1094F8990088
:102D20009847002864D0484EF368D4F89901D4F845
:102D30009D11D4F8A1219847F368D4F88D01D4F8F7
:102D40009111D4F89521984703A80CF031FB002885
:102D500069D103ABC4F8853004F10906119621A8A6
:102D60000CF026FB002861D121ABC4F881302F96EE
:102D700000221146384608F073FC384608F0A6FCDD
:102D800028466EB0BDE8F08102233F933FA809F0CA
:102D9000A1FB00283BD12A4BD3F8E82042F40022C3
:102DA000C3F8E820D3F8E83003F400230093009B35
:102DB0003F230493402322930025342790E70123E7
:102DC0003F933FA809F086FB20BB1D4BD3F8F020B2
:102DD00042F02002C3F8F020D3F8F03003F02003D3
:102DE0000193019B4727049748232293012577E706
:102DF0004FF0FF30C5E74FF0FF30C2E74FF0FF3034
:102E0000BFE74FF0FF30BCE74FF0FF30B9E74FF0BE
:102E1000FF30B6E74FF0FF30B3E74FF0FF30B0E7D9
:102E20004FF0FF30ADE74FF0FF30AAE74FF0FF3033
:102E3000A7E700BF004C00400014014000780040AC
:102E400000440258840100201C01002030B5A5B0C8
:102E50000446002380F8B931FFF7ECFE45B2002D9F
:102E600076DBD4F8053000932368019300230293A6
:102E7000039304930C2205920693079308930993F6
:102E800030230A934FF480530F934FF40053109361
:102E9000237913B14FF400430E939022694604F155
:102EA000090011F0B5FC68460BF04DFD10B1002093
:102EB00025B030BD002168460BF048FE0028F6D151
:102EC000002168460BF067FE0028F0D168460BF041
:102ED0001EFE0028EBD1D4F8AD31002B3AD0B4F867
:102EE000B1310BB90020E3E71B4B43F82540002329
:102EF00084F8B83184F8B731C4F8BA31C4F8BE31B7
:102F0000C4F8C231C4F8C631C4F8CA31C4F8CE31ED
:102F1000C4F8D231D4F80920136843F010031360C9
:102F2000D4F80920936823F001039360D4F80920B2
:102F3000136823F480731360B4F8B121D4F8AD1191
:102F400004F109000BF08CFD012084F8B901AFE712
:102F50000020ADE70020ABE754350020022804D85C
:102F6000034B53F82000093070470020704700BF22
:102F700054350020F8B5544B53F82040002C7DD038
:102F8000054604F2151214F1090614BF01230023AB
:102F9000002A0CBF002303F00103002B6ED0D4F8ED
:102FA0000930DA69196812F0100F67D011F0100FAC
:102FB00064D010221A62B4F8B171D4F815314349C3
:102FC000434A934218BF8B422DD0183293422AD0E5
:102FD0001832934227D01832934224D018329342A9
:102FE00021D0183293421ED0183293421BD002F5E2
:102FF0005672934217D01832934214D0183293422B
:1030000011D0183293420ED0183293420BD018329E
:10301000934208D01832934205D01832934202D01E
:103020005B689BB201E05B689BB2FF1ABFB2002FE6
:103030003ED0D4F89110D4F809309A6812F0400FBD
:1030400001D022291BD0204B53F82530D3F8A941B9
:103050002CB13A46D3F8AD11D3F8B301A0471A4BBF
:1030600053F82530D3F8BA210132C3F8BA21B3F8A6
:10307000B121D3F8AD1130460BF0F2FCF8BD9A68DF
:1030800022F040029A60D4F8850008B10CF0AEFC42
:10309000D4F80920136823F490731360D4F809203E
:1030A000936823F0010393602023C4F89130CAE7AA
:1030B000D4F8C2310133C4F8C231D4F809305A6AA5
:1030C00008221A62DAE700BF5435002010000240DF
:1030D0002800024038B50368184A934209D002F527
:1030E0004842934227D0A2F51C42934222D10223A8
:1030F00000E000231C46124A52F82330D3B1D3F823
:10310000A95135B1B3F8B121D3F8AD11D3F8B3015A
:10311000A8470B4D55F82400B0F8B121D0F8AD11F7
:1031200009300BF09DFC55F82420D2F8C63101334C
:10313000C2F8C63138BD0123DCE700BF004C0040B7
:103140005435002003680F4A93420AD002F54842E2
:10315000934214D0A2F51C42934200D07047022241
:1031600000E00022084B53F82230002BF6D093F8F1
:10317000B721002AF2D0012283F8B821EEE701221C
:10318000F0E700BF004C00405435002082B0072912
:1031900098BF002815D0062998BF012822D1124BCC
:1031A000D3F8D82042F00202C3F8D820D3F8D830A0
:1031B00003F002030193019B0C4B53F8210002B072
:1031C0007047094BD3F8D82042F00102C3F8D82049
:1031D000D3F8D83003F001030093009B044B53F85D
:1031E0002100ECE70020EAE7004402582C5F0308C6
:1031F0000C5F0308F8B5012898BF072994BF012781
:10320000002701D93846F8BD05460C461646FFF79B
:10321000BDFF30B1306004EBC500034B43F82060C4
:10322000F0E70027EEE700BF6035002003460128E5
:1032300098BF072994BF0120002000D9704701EBF7
:10324000C301024B002243F82120F7E7603500203C
:10325000012898BF072905D801EBC001024B53F89C
:1032600021007047002070476035002010B5E8B994
:1032700007290ED8DFE801F004320E1012141618D8
:103280000B2400221146204608F0EAF9204608F0F7
:103290001DFA10BD0D24F4E70E24F2E70F24F0E729
:1032A0001024EEE71124ECE72F24EAE70128F0D1FF
:1032B0000729EED8DFE801F0041406080A0C0E1006
:1032C0003824DEE73A24DCE73B24DAE73C24D8E77D
:1032D0004424D6E74524D4E74624D2E70C24D0E79B
:1032E0003924CEE770B582B0154661F07F018DF8C4
:1032F000071000228DF80620D8B11E460446026849
:10330000CAB14368CBB100209047636801220DF138
:1033100006010DF10700984763689DF818203146B3
:10332000284698470546236801209847284602B05A
:1033300070BD0025FAE70025F8E70025F6E770B52F
:1033400082B00023ADF80430ADF80030D8B1164695
:1033500004460368CBB14368CBB161F07F018DF8BF
:10336000041003680020984763680222694601A898
:10337000984705462368012098479DF8013033702F
:10338000284602B070BD0025FAE70025F8E70025C1
:10339000F6E730B583B00023ADF80430ADF8003067
:1033A000B8B104460368B3B14368B3B18DF80410F3
:1033B0008DF805200368002098476368022269465B
:1033C00001A898470546236801209847284603B07E
:1033D00030BD0025FAE70025F8E70025F6E70000F4
:1033E00010B590F81DE0BEF1070F94BF0024012432
:1033F000002C40D18446012000FA0EF010F08B0F13
:1034000014BF0120002029D08CF81D10032A34D8C5
:10341000DFE802F0020C11164FF08D41CCF81410C9
:10342000032B2CD8DFE803F0111B1F234FF08C4136
:10343000CCF81410F4E74FF08B41CCF81410EFE700
:103440004FF08A41CCF81410EAE70E49CCF8181076
:10345000D2008CF81020DB008CF8113010BD0A4926
:10346000CCF81810F4E70949CCF81810F0E708492F
:10347000CCF81810ECE70020F0E72046EEE72046F5
:10348000ECE700BF000003430000834233330342F4
:1034900033338341016042608360009BC3607047A7
:1034A00030B583B000238DF80730044600B343687D
:1034B000F3B10368E3B180226B21FFF76AFF054691
:1034C000E8B1A3680F2098470DF107027521204647
:1034D000FFF735FF0546B0B19DF80730682B16D0D1
:1034E000042384F86A30A3680F209847002503E07E
:1034F000012384F86A300025284603B030BD032339
:1035000084F86A30F8E7032384F86A30F4E703228A
:1035100068212046FFF73DFF054600285BD0A368E1
:103520000F20984703226B212046FFF732FF054604
:10353000002854D0A3680F20984710226A21204603
:10354000FFF727FF054600284DD0A3680F209847B6
:1035500000226C212046FFF71CFF0546002846D0BC
:10356000A3680F209847627F19212046FFF711FFBB
:10357000054600283FD0A3680F209847627C1B2196
:103580002046FFF706FF0546002838D0A3680F2025
:103590009847227C1C212046FFF7FBFE054690B38E
:1035A000A3680F209847102237212046FFF7F1FE2D
:1035B000054660B3A3680F209847012238212046B2
:1035C000FFF7E7FE054630B3A3680F2098470023B6
:1035D00084F86A3090E7052384F86A308CE7052385
:1035E00084F86A3088E7062384F86A3084E7072382
:1035F00084F86A3080E7082384F86A307CE709237E
:1036000084F86A3078E70A2384F86A3074E70B2379
:1036100084F86A3070E70C2384F86A306CE790F81D
:103620006A007047012303777047007F70470020CE
:10363000704770B58AB00023069307930893ADF8DE
:103640002430029303930493ADF8143090F86A5039
:10365000002D61D10446067F002E5ED0C3689847D6
:10366000C4F81E00C4F822100E23009302AB06AA71
:103670003B212046FFF736FE43E069000AAB03EB2F
:10368000450313F8200C4B1C0AAA134413F8202CF2
:1036900042EA002212B205F1180304EB4303DA8078
:1036A0002B1D0AA800EB430313F8200C09310AABC9
:1036B000194411F8203C43EA00231BB205F1140120
:1036C00004EB41010B8107EE902AF8EEE77AD4ED86
:1036D000056A87EEA67A05F1100204EB820282EDFC
:1036E000037A07EE903AF8EEE77AD4ED066A87EEB1
:1036F000A67A05F10E0304EB830383ED027A01350C
:10370000EDB2022DB9D9E3689847C4F81E00C4F899
:1037100022100023237700E0002630460AB070BD57
:1037200030B595B004460D464C22002101A811F099
:103730007DF895F86A303BB14C220021204611F00B
:1037400075F8204615B030BD4C2205F11E0120460B
:1037500011F05EF8F5E770B582B00023ADF80430E3
:10376000ADF80030D8B1164604460368CBB14368C3
:10377000CBB161F07F018DF80010036800209847FD
:103780006368022201A9684698470546236801201C
:1037900098479DF805303370284602B070BD00256B
:1037A000FAE70025F8E70025F6E730B583B00023F7
:1037B000ADF80430ADF80030B8B104460368B3B1D9
:1037C0004368B3B18DF800108DF801200368002024
:1037D00098476368022201A968469847054623680E
:1037E00001209847284603B030BD0025FAE70025A0
:1037F000F8E70025F6E7000000B590F81DE0BEF1FF
:10380000070F28D84FF0010C0CFA0EFC1CF08B0FA0
:1038100021D04177032B1ED8DFE803F0020B0F13F2
:103820004FF08D414161032A15D8DFE802F00E16F2
:10383000191C4FF08C414161F5E74FF08B4141611C
:10384000F1E74FF08A414161EDE708498161DB0012
:103850008374D200C2745DF804FB05498161F6E708
:1038600004498161F3E704498161F0E70000034303
:1038700000008342333303423333834101604260AB
:103880008360009BC360704701230374704710B5C9
:10389000044680226B21FFF788FFA3681420984715
:1038A000E3689847012010BD70B582B000238DF801
:1038B0000730044650B1436843B1036833B1FFF7A2
:1038C000E6FF48B903232377002502E0012323778D
:1038D0000025284602B070BD0DF107027521204673
:1038E000FFF739FFA3680A2098479DF80730122B8D
:1038F00003D0022323770025EBE701226B2120462A
:10390000FFF753FFA3680A2098470DF107026B21C8
:103910002046FFF720FF9DF80760012E03D0042307
:1039200023770025D5E700226C212046FFF73DFFD5
:10393000A3680A2098470DF107026C212046FFF783
:103940000AFF9DF807501DB1052323770025C0E726
:10395000402270212046FFF728FFA3680A209847DD
:103960000DF1070270212046FFF7F5FE9DF80730A4
:10397000402B02D006232377ABE7627F1921204634
:10398000FFF713FFA3680A2098470DF107021921DA
:103990002046FFF7E0FE627F9DF807309A4202D092
:1039A0000923237795E7A27C1C212046FFF7FDFE23
:1039B000A3680A2098470DF107021C212046FFF753
:1039C000CAFEA27C9DF807309A4202D007232377D3
:1039D0007FE7E27C1B212046FFF7E7FEA3680A2071
:1039E00098470DF107021B212046FFF7B4FEE27C49
:1039F0009DF807309A4202D00823237769E76022B6
:103A000037212046FFF7D1FEA3680A2098470DF121
:103A1000070237212046FFF79EFE9DF80730602BF6
:103A200002D00823237754E7354652E7007C7047DD
:103A300008B10120704700207047007F704730B503
:103A400095B004460D464C22002101A810F0EEFE70
:103A50002B7F0BB96B7C3BB14C220021204610F030
:103A6000E5FE204615B030BD2B744C2205F11E0139
:103A7000204610F0CDFEF4E700B585B004AB03E9B5
:103A80000700064B5B683BB104AA12E907009847A0
:103A9000012005B05DF804FB0020FAE71C010020BE
:103AA00000B585B00DF1100C0CE907001A46064B65
:103AB000DB6933B1BDF808109847012005B05DF807
:103AC00004FB0020FAE700BF1C010020002848D0BA
:103AD00010B50446244B1B689847B8B3224B5B696A
:103AE00004F1F40120469847A0B3D4F80431C4F897
:103AF0002A31D4F80821C4F82E21D4F81421C4F8AE
:103B00003A21D4F8F420C4F81A21D4F80C21C4F8CE
:103B10003221D4F81021C4F83621D4F80021C4F899
:103B20002621012284F81921002084F8460184F816
:103B3000470184F83E0184F83F0184F8400184F88D
:103B40004101C4F8423184F8180110BD022084F804
:103B50001801FAE7002384F81931032084F81801CA
:103B6000F3E70120704700BF5401002010B190F826
:103B7000180170470120704738B505460C462F22C2
:103B8000002110F053FEF4B104F219132A4604F296
:103B90003914D3F800E0D3F804C09868D968C2F8A3
:103BA00000E0C2F804C09060D16010331032A3422C
:103BB000EFD11C68586899681460506091609989C9
:103BC0009B7B91819373284638BD000010B5BDF8EA
:103BD00008308646002A18BF00280CBF01200020AC
:103BE00013D08C461146BCF1000F18BF002B0CBF40
:103BF000012400240AD0DEF82A21624507D3054AB1
:103C0000946862467046A04700E0002010BD204640
:103C1000FCE700BF5401002038B5BDF810408446D1
:103C2000002A18BF00280CBF0120002013D09646A0
:103C300094B1DCF82A218A420ED3DCF82E2104FB51
:103C400002F2934208D3054B5D6823460A4671464B
:103C50006046A84700E0002038BD00BF54010020A6
:103C6000002918BF182A40F29C8070B504461546FA
:103C70000E46002800F097802122002110F0D6FD8A
:103C80003378F02B01D0022070BD192D01D0022015
:103C9000FAE77378B27843EA0223C3F30A03238076
:103CA000B378F278DB0843EA4213C3F30A03638074
:103CB000F37832799B0943EA8203727943EA8223DB
:103CC000C3F30A03A3807379B2795B0843EAC21392
:103CD000C3F30A03E380B379F2791B0943EA0213C1
:103CE000C3F30A032381F379327ADB0943EA4203FF
:103CF000727A43EA4223C3F30A036381737AB27A86
:103D00009B0843EA8213C3F30A03A381B37AF27ACE
:103D10005B0943EAC203E381337B727B43EA0223FC
:103D2000C3F30A032382737BB27BDB0843EA4213AB
:103D3000C3F30A036382B37BF27B9B0943EA8203EA
:103D4000327C43EA8223C3F30A03A382337C727C6E
:103D50005B0843EAC213C3F30A03E382737CB27CB9
:103D60001B0943EA0213C3F30A032383B37CF27CE7
:103D7000DB0943EA4203327D43EA4223C3F30A03E9
:103D80006383337D727D9B0843EA8213C3F30A0386
:103D9000A383737DB27D5B0943EAC203E383002002
:103DA00072E70120704701206EE730B108B521228B
:103DB000002110F03BFD012008BD002070470000ED
:103DC00003460022104608E013F801CB8CEA000CF1
:103DD000044810F80C000132D2B21FFA82FC8C4564
:103DE000F2D370474C5F030884B00346002201926F
:103DF0000292ADF80C2049B18C4601AAD1F85A00C4
:103E0000D1F85E1003C2BCF86210118001AA03CA87
:103E10001860596012881A81184604B0704710B5AE
:103E200086B0844600230093019302930393049386
:103E3000ADF8143071B10C46EE46486C896CE26CFA
:103E4000236DAEE80F00606DCEF80000B4F8583076
:103E5000AEF80430EE46BEE80F00CCF80000CCF817
:103E60000410CCF80820CCF80C30DEF80000CCF8B8
:103E70001000BEF80430ACF81430604606B010BD37
:103E800048B110B504466422002110F0CFFC012097
:103E900084F8430010BD002070472DE9F84F002939
:103EA00018BF00286CD0144607460E46032A6BD96B
:103EB00091F8009080F8009091F8018080F80180DE
:103EC0008D788570B8F1400F01D9002559E000F1D7
:103ED000030A01F1030B033A5946504610F098FCCF
:103EE00008F1FF3189B25846FFF76AFF344414F8ED
:103EF000013C984201D0FF2543E0142D03D0162D3C
:103F00001BD0FF253DE0B9F1C80F01D0FF2538E0F7
:103F1000B8F10C0F01D0FF2533E0D7F80320DAF811
:103F20000430C7F85A20C7F85E30BAF80830A7F84E
:103F30006230002387F8433023E0B9F1C80F01D085
:103F4000FF251EE000237B64BB64FB643B657B654F
:103F5000A7F85830D7F80310DAF80460DAF8084008
:103F6000DAF80C007964BE64FC643865DAF8101085
:103F70007965BAF81410A7F8581087F8433000E0B4
:103F800000252846BDE8F88F0025FAE7F0B589B08E
:103F90002A4B5C682A4B93E80700A047002840D0D2
:103FA000264B1C68274A284B07CAA04700283BD04D
:103FB000264D274CAC4620686168A268E368ACE8EF
:103FC0000F0020696169A269ACE80700214E224C0C
:103FD000224B0093224B234A234920463768B84797
:103FE000766803231A4601212046B0471F4B1C6800
:103FF0001F4B0793EC4605F1100EBEE80F00ACE82E
:104000000F009EE807008CE8070095E80F00A04726
:1040100068B1104B9B681048984758B1002009B010
:10402000F0BD6FF00700FAE76FF00600F7E76FF0FA
:104030000500F4E76FF00400F1E700BF1C01002069
:10404000EC000020F8000020A545020848020020EE
:10405000D00000209801002094360020F16C020866
:10406000556D0208954102085D4102083C0100209F
:1040700000370020F0B589B02A4B5C682A4B93E8E2
:104080000700A047002840D0264B1C68274A284B31
:1040900007CAA04700283BD0264D274CAC462068D5
:1040A0006168A268E368ACE80F0020696169A269F1
:1040B000ACE80700214E224C224B0093224B234AAE
:1040C000234920467768B847366803231A460121FA
:1040D0002046B0471F4B1C681F4B0793EC4605F169
:1040E000100EBEE80F00ACE80F009EE807008CE859
:1040F000070095E80F00A04768B1104B9B68104877
:10410000984758B1002009B0F0BD6FF00300FAE7FE
:104110006FF00200F7E76FF00100F4E74FF0FF30B7
:10412000F1E700BF1C01002094000020A000002047
:10413000C94502081C02002078000020BC010020B4
:10414000A0350020F16C0208556D0208B941020843
:10415000794102083C0100200C36002010B50246CF
:10416000034BDC69034B99881868A04710BD00BF5A
:104170001C010020EC00002010B50246034BDC6956
:10418000034B99881868A04710BD00BF1C01002090
:104190009400002010B582B01346054A14694FF40C
:1041A0007A7200920A4601460248A04702B010BD4A
:1041B0003C0100200037002010B582B01346054AAC
:1041C00014694FF47A7200920A4601460248A047E9
:1041D00002B010BD3C0100200C36002007EE101A82
:1041E00007EE902AB8EEC77ADFED425A27EE255A3D
:1041F000F8EEE77A67EEA55ADFED3F6A27EE266A0A
:1042000067EEA66A002315E000EB030C9CF849104A
:1042100001318CF8491000F14901632940D900238C
:104220008CF84930022070470244002182F8461081
:104230000133DBB2022B57D81A4603F10A0100EB17
:104240008101D1F8061007EE901AF0EEE77AF4EE4D
:10425000C57AF1EE10FA49DC03F1080100EB8101A7
:10426000D1F8021007EE101AB0EEC77AB4EEE57A74
:10427000F1EE10FA3CDC03F1200130F9111079B1B4
:10428000F4EEC67AF1EE10FA05D803F10C0C30F911
:104290001CC06145B8D081184FF0000C81F849C0AE
:1042A00002F11C0100EB4101B1F902100029BFD05D
:1042B000B4EEE67AF1EE10FAB6D802F1080C00EB93
:1042C0004C0CBCF902C06145AED100EB020C9CF86D
:1042D00046100131C9B28CF846106329A8D90023D1
:1042E0008CF8463003207047002070470420704748
:1042F000052070479A99993F6666663FF8B5974BD7
:104300001B7813F00F0F00F0CC80954B1B6995487C
:10431000984700287AD0924B9B6992489847044668
:10432000002873D0904B1A78012161F303021A70B0
:104330008E4B9A68D968013241F100019A60D960C8
:10434000884AD2F81E10D2F8222019605A60884B91
:1043500018685B6850EA030503D08842934180F0F7
:104360009E808048C36B814D2B61427C017C1E3056
:10437000FFF734FF85F82C00002318E0794A03F199
:10438000180102EB4101B1F9065003F12C0102EBD7
:104390004101CD8003F1140102EB4101B1F9081094
:1043A00003F1280502EB450211810133DBB2022B38
:1043B00019D86C4903F1100201EB8202D6686B4AEE
:1043C00003F1080502EB85052E6003F10E0501EBF4
:1043D000850189681D1D02EB85025160021FD2B262
:1043E000012ACBD8E1E7604B1A786FF303021A7009
:1043F000604D5E4E0FCE0FC50FCE0FC596E80F0075
:1044000007C525F8023B1B0C2B7004E0594B012219
:1044100083F82C200024554B19685A68544B1960B6
:104420005A604E4B1B7813F0F00F00F09580524B02
:104430001B695248984700287DD04F4B9B694F48D5
:1044400098470546002876D0474B1A78012161F33A
:1044500007121A704A4B9A68D968013241F100017B
:104460009A60D960454AD2F81E10D2F8222019600D
:104470005A60444B18685B6850EA030602D08842D1
:10448000934167D23D48C36B3D4E3361C27C817C12
:104490001E30FFF7A3FE86F82C0000231CE000244A
:1044A000B9E70024BDE7354A03F1180102EB4101E9
:1044B000B1F9066003F12C0102EB4101CE8003F15A
:1044C000140102EB4101B1F9081003F1280602EBD7
:1044D000460211810133DBB2022B19D8274903F1BF
:1044E000100201EB8202D768254A03F1080602EBAD
:1044F0008606376003F10E0601EB860189681E1DF2
:1045000002EB86025160021FD2B2012ACBD8E1E74A
:10451000154B1A786FF307121A701B4E184F0FCFF6
:104520000FC60FCF0FC697E80F0007C626F8023B4D
:104530001B0C337004E0124B012283F82C20002561
:104540000F4B19685A680F4B19605A6044EA05000E
:10455000C0B2F8BD0025F3E70025F7E76838002072
:1045600098010020943600206C3800208837002005
:10457000E8370020B8370020BC010020A03500201B
:10458000F0370020503800202038002008B5034BB9
:10459000DB68034A1068984708BD00BF0804002084
:1045A0006438002008B5054B1B7813F00F0F03D0BB
:1045B000034B5B690348984708BD00BF683800207B
:1045C000980100209436002008B5054B1B7813F0A5
:1045D000F00F03D0034BDB680348984708BD00BFCA
:1045E00068380020BC010020A03500200B68013392
:1045F0000B6070470B6801330B6070470B68013329
:104600000B60704770B58CB005460C462F22002118
:10461000684610F00BF9012C24D0022C43D0EC4654
:10462000AE4608AE64460FCCCEF80000CEF80410BB
:10463000CEF80820CEF80C30A4460EF1100EB4428D
:10464000F0D1234607CBCEF80000CEF80410CEF808
:1046500008201A889B78AEF80C208EF80E30284679
:104660000CB070BD204B1B7813F00F0F0DD16C46B2
:104670001E4E0FCE0FC40FCE0FC496E80F0007C416
:1046800024F8023B1B0C2370C9E76C46184E0FCE72
:104690000FC40FCE0FC496E80F0007C424F8023BE6
:1046A0001B0C2370BBE7104B1B7813F0F00F0DD1E0
:1046B0006C46104E0FCE0FC40FCE0FC496E80F00FD
:1046C00007C424F8023B1B0C2370A8E76C460A4E73
:1046D0000FCE0FC40FCE0FC496E80F0007C424F806
:1046E000023B1B0C23709AE76C38002088370020AF
:1046F000B8370020F03700202038002038B5374C7C
:10470000236837489847374B186063680922364951
:104710009847FFF73BFC0546FFF7ACFC0446002337
:10472000324A1370324A13708DBB304B1A78012114
:1047300061F303021A70002C33D12C4B1A7801213B
:1047400061F307121A702F2422460021294810F025
:104750006DF822460021284810F068F82246002112
:10476000264810F063F822460021254810F05EF834
:104770001E4B1B78FBB113F00F0202D113F0F00FA8
:1047800023D12AB313F0F00F24D0002038BD134BEF
:104790009D6804231B4A6FF0040112480068A84773
:1047A000C9E70E4B9C680423174A4FF0FF310D48B0
:1047B0000068A047C7E7094B9C680423134A0121FE
:1047C00008480068A0470120E0E76FF00400DDE73B
:1047D0000020DBE74FF0FF30D8E700BF08040020DF
:1047E0004C600308643800208402002068380020F0
:1047F0006C38002088370020F0370020B8370020C0
:10480000203800205C380020603800205838002014
:104810007047034688B1827B8A420ED9D0F82A209D
:10482000012000FA01F10A4204D022EA0102C3F891
:104830002A2070470A43C3F82A20704710B504465F
:1048400002F05CFAD4F81330C01A61F10001652857
:1048500071F1000313D20022A37B93420DD9D4F847
:10486000173033F81230A3F2B6339BB240F24C410A
:104870008B4206D80132D2B2EEE7012000E00020E0
:1048800010BD0020FCE730B587B00546019100233C
:104890000293039304938DF8143001238DF81430A0
:1048A000C1B10198012380F82930FFF7C7FFC8B1D3
:1048B00000248DF8144042220199133101A80FF011
:1048C000A7FF019B83F8294093F82820A2B183F821
:1048D0002840E6E702AB07CB28606960AA601B7836
:1048E0002B7306E002AB07CB28606960AA601B78D7
:1048F0002B73284607B030BD02AB07CB2860696038
:10490000AA601B782B73F4E7002800F0418130B5D2
:1049100093B015460446036A3BB1426A2AB1D0F807
:104920000F0010B16278012A01D013B030BD94F8A5
:104930002920F2B1012284F828202278012A1CD0F3
:1049400032B95B682A4698470346002800F0FB808E
:1049500002F0D4F9C4F81300636A5B68002BE4D05A
:10496000D3F8AD010028E0D02A4600210FF05EFF09
:10497000DBE7002284F82820DFE700220692079276
:10498000089209920A92ADF82C205B682A46D4F866
:104990000F009847142800F0A0801628C5D1236A7C
:1049A0009B68D4F80F10684698470DF1180C0098D2
:1049B0000199029A039BACE80F000498CCF8000020
:1049C000BDF81430ACF80430D4F81720BDF8183016
:1049D000C3F30A031380D4F81720069BC3F3CA233A
:1049E0005380D4F81720BDF81A109DF81C3003F03E
:1049F00001039B0243EA91139380D4F81720BDF87A
:104A00001C30C3F34A03D380D4F81720079BC3F3A9
:104A10000A331381D4F81720BDF81E109DF82030FA
:104A200003F003035B0243EAD1135381D4F8172048
:104A3000BDF82030C3F38A039381D4F81720089B74
:104A4000C3F34A33D381D4F817109DF823309DF86F
:104A5000242002F0070243EA02230B82D4F8172035
:104A6000BDF82430C3F3CA035382D4F81720099B3E
:104A7000C3F38A339382D4F817209DF827109DF84A
:104A8000283003F00F03DB0143EA5103D382D4F84B
:104A90001720BDF82830C3F30A131383D4F8172066
:104AA0000A9BC3F3CA335383D4F817209DF82B1005
:104AB0009DF82C3003F01F039B0143EA910393837D
:104AC000D4F81720BDF82C30C3F34A13D383D4F89D
:104AD0002A30A3BB0023E3773AE7236ADB68D4F8E4
:104AE0000F100CA898479DF83030A4F81B30236AAB
:104AF000DB68D4F80F100FA898479DF83E30A4F853
:104B00001D3025E70133DBB2A27B9A42E2D9D4F80B
:104B10002A1001229A401142F4D0D4F8171031F82B
:104B20001320A2F2DC5221F81320D4F8171031F828
:104B3000130040F2DC52121A21F81320E2E700239E
:104B4000E2E70133DBB2A27B9A427FF601AFD4F8F1
:104B50000F10D4F81720580031F8131022F8131052
:104B6000D4F82A20002AECD0012199400A42E8D04A
:104B7000D4F817100A5AA2F2DC520A52D4F81710CD
:104B800031F800C040F2DC52A2EB0C020A52D8E726
:104B900070470000F8B5002918BF00280CBF012499
:104BA000002402D100242046F8BD05460E464FF4ED
:104BB0008062002159480FF039FE594F3B6859482F
:104BC0009847594B18607B680422584998476B787E
:104BD000012B0AD0022B60D0514B9D681E23544AF2
:104BE000012151480068A847DDE71E2200215048F6
:104BF0000FF01CFE2B78002B5AD0012BD3D16FF075
:104C00005F033370682373700623B3700023F3705F
:104C1000642001F0C3F8C5F80F00002865D0002318
:104C200085F83E3085F83F3085F8403085F84130D2
:104C300085F83A3085F83B3085F83C3085F83D30D2
:104C40001023AB733B4B2B621B689847002863D043
:104C50002746A87B400001F0A1F8C5F817000028FE
:104C600045D0002F46D12D4BC6F8AD31002386F834
:104C7000B131042386F8B231C6F8B3512E4BC6F8D1
:104C8000A9312E4B1B6830469847044600283AD07D
:104C90006B6A2A4A1A606B6A5E60002385F82A30C4
:104CA00085F82B3085F82C3085F82D3001247AE7F3
:104CB0006FF05F0333706FF0790373700123B3708B
:104CC0000023F370212001F069F8C5F80F0050B1FE
:104CD0001023AB731A4B2B621B68984708B1274609
:104CE000B7E704465FE70127B3E70127B1E701F023
:104CF000B5F858E70A4B9D681E230D4A01210A4862
:104D00000068A8474FE7064B9D681E23084A032109
:104D100005480068A84746E7044644E77038002085
:104D2000080400204C610308703C00207003002040
:104D3000743C00200C020020094902086C0100208C
:104D4000040200202DE9F04180460F4616461D461C
:104D50004FF4EB7001F022F8044638B34FF4EB72D5
:104D600000210FF063FDC4F805800DF1200CBCE8B4
:104D70000700C4F88D01C4F89111C4F89521BCE86E
:104D80000700C4F89901C4F89D11C4F8A1219DF849
:104D90001C30237184F8137184F8146184F89950DD
:104DA000069B84F89A302046BDE8F08101F056F861
:104DB000F9E70378427843EA0223827843EA024320
:104DC000C07843EA006070470378407843EA0020E7
:104DD000704759B10870C0F307224A70C0F3074208
:104DE0008A70C0F30760C8700120704700207047C8
:104DF000B0F80910B0F80B3099420ED00133828818
:104E000093FBF2FC02FB1C338B420DD0C3889A4209
:104E10000AD00023037218467047C288002AEDD1D9
:104E20000323037218467047042303721846704721
:104E300088B3F8B50F461646044683886BB3027AEA
:104E4000032A18BF002A24D1C2889B1A9E4201DC83
:104E500000251CE001201DE0A288B4F80B30B3FB54
:104E6000F2F102FB11339AB2A4F80B30D4F80D30F2
:104E7000795D9954B4F80B300133A4F80B30E38812
:104E80000133E3802046FFF7B3FF0135ADB2B542F1
:104E9000E2D3207AF8BD052070470520FAE7B0B3C9
:104EA000F8B50F4616460446838893B3037A042B5D
:104EB00018BF002B29D1C388934201D3002522E0DB
:104EC000022023E0A288B4F80930B3FBF2F102FB20
:104ED00011339AB2A4F80930D4F80D309B5C7B559D
:104EE000D4F80D20B4F809300021D154B4F80930B9
:104EF0000133A4F80930E388013BE3802046FFF743
:104F000077FF0135ADB2B542DCD3207AF8BD05207C
:104F100070470520FAE784B08DE80F00BDF8040063
:104F2000BDF80630C01A80B204B070478446002B2A
:104F300018BF00280CBF0120002019D070B51D46F5
:104F4000AAB100200FE0DCF80D40BCF809300B449A
:104F50000344BCF804E093FBFEF60EFB1633E35C5F
:104F600013540130C0B283B2AB42ECD3012070BD08
:104F70000020704784B08DE80F009DF8080004B051
:104F8000704784B08DE80F00BDF8060004B070478C
:104F9000F0B583B00446002918BF00280CBF0120DB
:104FA00000205ED00D46E388002B58D08A88CB883D
:104FB0009A4254D00B7C8DF8003008684968AA6882
:104FC000EB68FFF7A8FF0746237C8DF800302068C8
:104FD0006168A268E368FFF7D4FF874228BF0746ED
:104FE000BFB2002638E0AA88B5F80B30B3FBF2F167
:104FF00002FB1133A5F80B30A288B4F80930B3FBDB
:10500000F2F102FB113399B2A4F80930D4F80D0083
:10501000D5F80D20B5F80B30415CD154D4F80D20F3
:10502000B4F809300021D154B4F809300133A4F8A0
:105030000930E388013BE380B5F80B300133A5F874
:105040000B30EB880133EB802846FFF7D1FE20467A
:10505000FFF7CEFE0136B6B2BE42C4D3012003B084
:10506000F0BD0020FBE7B8B108B50346D0F80D004D
:10507000A0B19A880AB9002008BD0021D97219731D
:10508000597299729971D9714FF0030C83F808C065
:105090000FF0CCFB0120EFE7002070470020EBE78A
:1050A00038B5002B18BF00280CBF0124002402D102
:1050B0000024204638BD944605461A46016000216A
:1050C000C1720173417281728171C1718380C0F8B4
:1050D0000DC060460FF0AAFBD5F80D30002BE8D0CC
:1050E00003232B720124E4E770B5002A18BF0028BF
:1050F0000CBF0124002402D10024204670BD0546C7
:1051000001600026C6720673467286728671C67189
:105110008280104600F042FEC5F80D00AA88314694
:105120000FF084FBD5F80D30002BE6D003232B7253
:105130000124E2E703690A6902610B61704710B458
:105140000C690461CC68C4604B600A7002704360F3
:10515000002383605DF8044B7047034620B10020B4
:1051600018619860D86070476FF00100704738B5DB
:1051700004460D46FFF7F1FF00B9256138BD08B5BB
:10518000C3681BB18068FFF7FAFF08BD8160C86083
:10519000FBE708B50346C06810B1FFF7FAFF08BD8A
:1051A000D9608B60FBE738B543687BB104460D4698
:1051B000006958B1096949B1984738B12A698242F2
:1051C00005D0E06840B12946FFF7EDFF38BD29461C
:1051D0002046FFF7AFFFF4E7E560AC600023EB602B
:1051E000F4E7002818BF002913D008B543684B60C6
:1051F00003780B70012B06D0022B07D003B108BD3A
:10520000FFF7BDFFFBE7FFF7C4FFF8E7FFF7CBFFB2
:10521000F5E7704728B32DE9F0410D4617461C46C7
:1052200080460E1E18BF0126002B14BF002306F077
:1052300001030BB10169A847D8F80C0020B123463F
:105240003A462946FFF7E6FF012C14BF002606F078
:1052500001064EB13A46D8F810104046A847002043
:1052600003E06FF0010070470020BDE8F08108B94D
:105270000020704738B50546D0F80E00FFF7F7FF5D
:1052800080B2013004B2D5F81200FFF7F0FF80B20F
:10529000013000B2A042B8BF204638BD08B9002096
:1052A000704738B50546D0F80E00FFF7E0FF84B22E
:1052B000D5F81200FFF7DBFF80B2201A00B238BD2C
:1052C00008B5034628B1D0F80A0010B1FFF7F8FF7F
:1052D0000346184608BD70B5054650B3D0F80E40D9
:1052E000D0F80A6076B1D0F81E30616870689847CF
:1052F0006168884217D0D5F81E3070689847636897
:10530000984213D0C4F80A60D4F81230C5F80E30B1
:10531000D4F812300BB1C3F80A50C4F81250C5F8D3
:105320000A40204670BDC6F80E40EBE7C6F81240B2
:10533000E8E70446F5E770B5054650B3D0F81240EB
:10534000D0F80A6076B1D0F81E306168706898476E
:105350006168884217D0D5F81E3070689847736826
:10536000984213D0C4F80A60D4F80E30C5F8123051
:10537000D4F80E300BB1C3F80A50C4F80E50C5F87B
:105380000A40204670BDC6F80E40EBE7C6F8124052
:10539000E8E70446F5E760B338B50446FFF77EFF5B
:1053A000022803D010F1020F12D038BDD4F80E50ED
:1053B0002846FFF773FFB0F1FF3F03D02046FFF709
:1053C0008AFFF2E72846FFF7B6FFC4F80E00F5E7BC
:1053D000D4F812502846FFF761FF012803D0204679
:1053E000FFF7A9FFE1E72846FFF775FFC4F81200B1
:1053F000F5E7704770B5002918BF00280CBF0124DD
:10540000002428D005460E46D0F81630496840687A
:105410009847736883420BD06B6883421CD1D5F8E0
:10542000120098B9C6F80A50C5F81260012413E0BA
:10543000D5F80E0028B9C6F80A50C5F80E60012448
:105440000AE03146FFF7D6FF044605E03146FFF794
:10545000D1FF044600E00024204670BDC0B110B565
:105460000446FFF71BFF2081D4F80E00FFF7F6FF7C
:10547000D4F81200FFF7F2FFB4F9083013F1020F6D
:1054800018BF022B00D010BD2046FFF784FFFAE7BB
:10549000704750B110B50446406828B1FFF710FFBF
:1054A00010B16060FFF7DAFF10BD70478446002836
:1054B00018BF002A14BF012000201BD010B596464B
:1054C000029A002A18BF002B0CBF012200220DD027
:1054D000039C6CB1CCF80010CCF804E0CCF81E4072
:1054E000CCF81630029BCCF81A3010BD0020FCE737
:1054F0001046FAE7704780B138B50C46054609B149
:10550000406888472146D5F80E00FFF7F4FF214692
:10551000D5F81200FFF7EFFF38BD704778B138B506
:105520000C460546D0F80E00FFF7F8FF0CB168688E
:10553000A0472146D5F81200FFF7F0FF38BD7047AD
:1055400078B138B50C460546D0F80E00FFF7F8FFE5
:105550002146D5F81200FFF7F3FF0CB16868A047A9
:1055600038BD7047B0B108B50B46406828B1022B72
:1055700008D0032B0AD0012B00D008BD1146FFF73D
:10558000BAFFFAE71146FFF7C9FFF6E71146FFF742
:10559000D7FFF2E7704770B582B00446002300934E
:1055A0008DF8043004238DF8043079B116460D4689
:1055B000D1F81A3053B11146686898478DF8040045
:1055C000022814D0032809D0012809D000982060AF
:1055D0009DF804302371204602B070BD0095F5E7B8
:1055E0003246D5F80E102046FFF7D5FFF3E73246D6
:1055F000D5F812102046FFF7CEFFECE700B583B0D8
:1056000004238DF8043000230093002918BF0028DC
:105610000ED00A46C16879B141686846FFF7BBFF02
:105620009DF80430032B01D0002002E0009800E038
:10563000002003B05DF804FB0020FAE720B3F0B5CA
:1056400083B00F4615460446222000F0A7FB06460D
:10565000E368226901920093A3682A463946FFF75E
:1056600025FF16B9002003B0F0BD2046FFF711FF5B
:10567000606838B13146FFF7BDFE2046FFF709FFED
:105680000120F0E76660F8E700207047F8B50746AC
:105690000C4615461E46142000F080FB68B1002C15
:1056A00018BF002D0AD04EB10760C5608460066146
:1056B0000023037143718371C371F8BD00F0CEFB09
:1056C0000020FAE7012383F31388BFF34F8F0549C6
:1056D000CA6802F4E062044B1343CB60BFF34F8F00
:1056E00000BFFDE700ED00E00400FA0582B00346CC
:1056F0000022ADF80620ADF80420084301D18B420A
:105700000ED1B3F900200FFA82FCADF80620B1F9F2
:10571000002010B2ADF80420844503DC04DB002037
:1057200002B070470846FBE71846F9E782B0B0F9C7
:105730000030ADF80630B1F90030ADF80430BDF8F6
:10574000062012B2BDF804301BB29A4211DCBDF83B
:10575000062012B2BDF804301BB29A420BDBBDF832
:10576000062012B2BDF804301BB29A4205D002B036
:1057700070470120FBE70220F9E70320F7E700006C
:10578000B0B1F8B50E461546074600240BE0094BAC
:105790005B6804EB440206EBC2025168D7F80200D2
:1057A00098470134A4B2AC42F1D33D800120F8BD4A
:1057B00000207047F8030020012802D0022803D0FF
:1057C0007047034B19607047024B1960704700BF68
:1057D000AC3C0020A83C00200FB4F0B5A3B028AC2E
:1057E00054F8045B002102917C2203A80FF01EF8FC
:1057F0000194104B1B7833B90024204623B0BDE838
:10580000F04004B0704723462A46802102A80FF0DA
:10581000BFF8044687B20849A1F80100074EB369F2
:10582000074D042228469847B3693A4602A92846FC
:105830009847E2E7A53C0020B03C0020D0030020C0
:10584000943C002070B50546164B1B785BB9164B8F
:105850009B684FF48062154915489847154B18709E
:10586000104B01221A700A2000F098FA0446B8B1D1
:10587000114B1E6811490B46114A2846B047C4F81F
:10588000020023780023237062786370A279A371E9
:10589000E279E371227A2372627A6372204670BDE4
:1058A0000020FCE7A63C0020D0030020E8610308AC
:1058B000943C0020A53C0020F8030020ED5602088F
:1058C0002D570208F0B587B0002303930493ADF879
:1058D000143000285AD02F4B1C78002C57D02E4B58
:1058E0005D69042303AA00212C48A8479DF80C30C9
:1058F000002B4CD02A4B1B68002B42D0BDF80D006A
:1059000000F04CFA0546002841D0234B1E6A234B79
:105910001A7C8DF800200FCBB047042808D01E4B0E
:105920001E6A1E4B1A7C8DF800200FCBB04720BB9F
:10593000194FFB69194E042203A930469847FB69A9
:10594000BDF80D202946304698479DF80C3013F0DD
:105950000F0F06D0124B1B681BB1BDF80D10284667
:1059600098479DF80C3013F0F00F06D00D4B1B68D4
:105970001BB1BDF80D1028469847284600F06EFA76
:1059800005E0084B1B68002BB8D100E0002420463E
:1059900007B0F0BDA53C0020D0030020943C0020BF
:1059A000AC3C0020A83C00202DE9F04F83B0154608
:1059B0001E46ADF80610414B00221A6000287BD02D
:1059C0000F4680463E4B9B680DF10601D0F8020061
:1059D000984704460095ADF804604368C3F80E503C
:1059E00043685E82002860D04368002B5DD0597AFE
:1059F000DFF8C8A09AF8002061F307128AF80020A7
:105A0000197AD2B261F303028AF800205868FAF7D3
:105A1000D1FE8146D8F802301868FAF7CBFE8144EF
:105A20001FFA89F909F10509AAF80190254B1B789D
:105A30008BB3DAF8003073B3DFF894A0DAF81830DB
:105A4000DFF8909004221D4948469847DAF818304C
:105A500002221D4948469847DAF818B0D8F80230B3
:105A6000D3F800804046FAF7A5FE82B24146484688
:105A7000D847DAF818300322144948469847DAF82C
:105A800018A06368D3F804804046FAF793FE82B208
:105A900041464846D04763689A7832B9D3F80A300D
:105AA0001BB13246294638469847044B00221A60FB
:105AB000012003B0BDE8F08F0020FAE7B03C0020E1
:105AC000F8030020A53C0020F4610308F8610308F6
:105AD000D0030020943C002008B5114B834200D035
:105AE00008BD104B01221A700F4A5168D1F81230CC
:105AF0000133C1F812301068D0F80E300133C0F80D
:105B00000E30D0F8063003B19847074B5868D0F8EC
:105B1000063003B19847044B00225A601A60DFE751
:105B2000BC3C0020343D0020B43C0020174B984280
:105B300000D0704710B50446154B03221A70154A61
:105B40005168D1F816300133C1F816301068D0F81A
:105B500016300133C0F81630D0F80A3003B1984738
:105B60000C4B5868D0F80A3003B19847094B002213
:105B70005A601A60636D636D636D636D636D636D11
:105B8000636D636D636D636D10BD00BFBC3C002031
:105B9000343D0020B43C002010B582B01F4BD3F838
:105BA000D82042F00202C3F8D820D3F8D83003F04E
:105BB00002030193019B1A481A4B036000234360C0
:105BC000802282604FF40072C2604FF480620261F2
:105BD00043618361C3614FF4403303620423436232
:105BE00009F0E6FB10B1002002B010BD0C4C0E4ACB
:105BF000002120460AF06EFD0C4A042120460AF0DE
:105C000069FD00220521462005F02AFD462005F009
:105C10005DFD0120064B1870E6E700BF0044025806
:105C2000BC3C0020B8040240D95A02082D5B02088F
:105C3000343D0020F8B504460D4601F05FF8002D14
:105C400018BF002C0CBF012700273AD0A288AB88D0
:105C50009A4237D11C4B1B78012B33D11B4B5D6013
:105C60001C6000F051FF0526174B02221A70A38812
:105C70002A682168164809F06DFDA0B1124B032275
:105C80001A70D4F816300133C4F81630D5F816302F
:105C90000133C5F81630013EF6B20D480AF046F859
:105CA00008B1002EE0D100F03BFFC823064A12786D
:105CB000012A04D0013B13F0FF03F7D102E00127D2
:105CC00000E000273846F8BD343D0020B43C0020F9
:105CD000BC3C0020194B00E01B681A688242FBD3D1
:105CE000002B2AD05A681A4482420BD0426800EB3B
:105CF000020C19688C450BD01A68026098421CD0BF
:105D0000186070475A6841680A445A601846EDE7BF
:105D100010B41C680A4909688C420CD0196849689B
:105D20000A4442601A6812680260984200D0186003
:105D30005DF8044B70470160F7E770473C3D002079
:105D4000383D0020F8B50E4C4FF40032226000269A
:105D50006660012767610B4D314628460EF066FDEF
:105D6000094B1D605E60094B094A1360094AE260F5
:105D70002B60094BE3606B60A36084F82070F8BD72
:105D8000443D0020000000243C3D0020F8FF012499
:105D9000383D0020F8FF0100F0FF010070B5044617
:105DA00072B62A4B93F8203093B1002C43D00834BC
:105DB000A3B214F0030F03D023F0030304339BB208
:105DC0001D46224A9268934239D8214A146807E056
:105DD000FFF7B8FF1D4B1E4A1A61E6E722461C4634
:105DE00063689D4202D92368002BF7D104F07F41FC
:105DF000184B994225D1184B1B68A34223D0134955
:105E00008B6901338B6116680836236813606368F9
:105E10005B1B082B09D80D4B9A68521B9A605A6875
:105E20002A445A600023236006E0601943606560DD
:105E3000FFF750FFEFE7002662B6304670BD002640
:105E4000FAE70026F8E70026F6E700BF443D002009
:105E50003C3D002000000024383D002040B10246B7
:105E60000C49CB690133CB61083852F8083C03B1C7
:105E7000704710B572B60B46496852F8044C091BBE
:105E8000596052F8041C9A680A449A60FFF722FF8E
:105E900062B610BD443D0020002918BF00280DD077
:105EA00010B50C468B68898820689847E36822699A
:105EB000013342F10002E360226110BD704700002F
:105EC00010B542784FEAD20E02F00702094B19785A
:105ED0004FF0010C0CFA0EF42143C9B2197073444F
:105EE00059780CFA02F20A43D2B25A7080F800C014
:105EF00010BD00BFC03E0020407800F0070C0D4BE5
:105F000003EBD0035A78012101FA0CF122EA0102D5
:105F10005A70597861B900B54FEAD00E05490B782F
:105F2000012202FA0EF223EA02030B705DF804FB71
:105F3000704700BFC03E0020407800F0070C0D4BBA
:105F400003EBD0035A78012101FA0CF122EA010295
:105F50005A70597861B900B54FEAD00E05490B78EF
