:020000040800F2
:100000000000022001A60108216101082361010806
:10001000256101082761010829610108000000002D
:100020000000000000000000000000002B6101083B
:1000300037610108000000003961010841610108D1
:1000400051A6010851A6010851A6010851A60108B0
:1000500051A6010851A60108A5610108AF61010878
:10006000B9610108C3610108CD61010851A6010809
:1000700051A6010851A6010851A6010851A6010880
:1000800051A6010851A6010851A6010851A6010870
:1000900051A6010851A6010851A60108D76101081F
:1000A00051A6010851A6010851A6010851A6010850
:1000B00051A6010851A6010851A6010851A6010840
:1000C00051A6010851A6010851A6010851A6010830
:1000D00051A6010851A6010851A6010851A6010820
:1000E000FD61010851A601080000000051A60108A9
:1000F00051A6010851A6010851A6010851A6010800
:1001000051A6010851A6010851A6010851A60108EF
:1001100051A6010851A6010851A6010851A60108DF
:1001200051A6010851A6010851A6010851A60108CF
:1001300051A6010851A6010851A6010851A60108BF
:1001400000000000000000000000000000000000AF
:1001500051A6010851A6010851A6010851A601089F
:1001600051A6010851A6010851A6010851A601088F
:1001700051A6010851A6010851A60108000000007F
:1001800051A6010851A6010851A6010851A601086F
:1001900051A6010851A6010851A6010851A601085F
:1001A00051A6010851A6010851A6010851A601084F
:1001B00051A6010851A6010851A6010851A601083F
:1001C00051A6010851A6010851A6010851A601082F
:1001D00051A601089561010851A6010851A6010820
:1001E00051A6010851A6010851A6010851A601080F
:1001F00051A6010851A6010851A6010851A60108FF
:1002000051A6010851A6010851A6010851A60108EE
:1002100051A6010851A6010851A6010851A60108DE
:1002200051A6010851A6010851A6010800000000CE
:1002300051A6010851A601080000000051A60108BE
:1002400051A6010851A6010851A6010851A60108AE
:1002500051A6010851A6010851A6010851A601089E
:1002600051A6010851A6010851A6010851A601088E
:1002700051A6010851A6010851A60108000000007E
:1002800051A6010851A6010851A60108000000006E
:080290000000000051A6010866
:100298000000000000000000000000000000000056
:1002A8000000000000000000000000000000000046
:1002B8000000000000000000000000000000000036
:1002C8000000000000000000000000000000000026
:020000040801F1
:1002A00010B5054C237833B9044B13B10448AFF3B0
:1002B00000800123237010BD7004002000000000A6
:1002C00078AF010808B5034B1BB103490348AFF3EE
:1002D000008008BD000000007404002078AF010811
:1002E00010F8012B11F8013B012A28BF9A42F7D0E0
:1002F000D01A7047034613F8012B002AFBD1181AB5
:1003000001387047000000000000000000000000FD
:1003100001F0FF01102A2BDB10F0070F08D010F8B6
:10032000013B013A8B422DD010F0070F42B3F6D1BA
:10033000F0B441EA012141EA014122F007047FF0D3
:1003400000070023F0E80256083C85EA010586EA2A
:10035000010685FA47F5A3FA87F586FA47F6A5FA66
:1003600087F68EB9EED1F0BC01F0FF0102F0070272
:1003700032B110F8013B013A83EA010313B1F8D11D
:100380000020704701387047002D06BF35460338FE
:10039000073815F0010F07D1013015F4807F02BF37
:1003A000013015F4C03F0130F0BC0138704700BF88
:1003B00080F0004002E000BF81F0004142001FBF1A
:1003C0005FEA410392EA030F7FEA226C7FEA236C23
:1003D0006AD04FEA1262D2EB1363C1BFD218414018
:1003E00048404140B8BF5B42192B88BF704710F0AE
:1003F000004F40F4000020F07F4018BF404211F051
:10040000004F41F4000121F07F4118BF494292EAB8
:10041000030F3FD0A2F1010241FA03FC10EB0C00E4
:10042000C3F1200301FA03F100F0004302D5494271
:1004300060EB4000B0F5000F13D3B0F1807F06D31E
:1004400040084FEA310102F10102FE2A51D2B1F116
:10045000004F40EBC25008BF20F0010040EA03000B
:100460007047490040EB0000013A28BFB0F5000F8B
:10047000EDD2B0FA80FCACF1080CB2EB0C0200FA41
:100480000CF0AABF00EBC25052421843BCBFD04090
:100490001843704792F0000F81F4000106BF80F40A
:1004A00000000132013BB5E74FEA41037FEA226CCD
:1004B00018BF7FEA236C21D092EA030F04D092F098
:1004C000000F08BF0846704790EA010F1CBF0020CC
:1004D000704712F07F4F04D1400028BF40F0004029
:1004E000704712F100723CBF00F50000704700F049
:1004F000004343F0FE4040F4000070477FEA226270
:1005000016BF08467FEA23630146420206BF5FEA40
:10051000412390EA010F40F4800070474FF0000340
:1005200004E000BF10F0004348BF40425FEA000C07
:1005300008BF704743F0964301464FF000001CE0AF
:1005400050EA010208BF70474FF000030AE000BF05
:1005500050EA010208BF704711F0004302D5404243
:1005600061EB41015FEA010C02BF844601460020B5
:1005700043F0B64308BFA3F18053A3F50003BCFAD0
:100580008CF2083AA3EBC25310DB01FA02FC63447D
:1005900000FA02FCC2F12002BCF1004F20FA02F284
:1005A00043EB020008BF20F00100704702F1200277
:1005B00001FA02FCC2F1200250EA4C0021FA02F2D8
:1005C00043EB020008BF20EADC70704753B94AB918
:1005D000002908BF00281CBF4FF0FF314FF0FF304B
:1005E00000F074B9ADF1080C6DE904CE00F006F826
:1005F000DDF804E0DDE9022304B070472DE9F0479F
:10060000089D04468E46002B4DD18A42944669D9F6
:10061000B2FA82F252B101FA02F3C2F1200120FAD9
:1006200001F10CFA02FC41EA030E94404FEA1C4827
:10063000210CBEFBF8F61FFA8CF708FB16E341EA23
:10064000034306FB07F199420AD91CEB030306F1A9
:10065000FF3080F01F81994240F21C81023E6344CA
:100660005B1AA4B2B3FBF8F008FB103344EA03446E
:1006700000FB07F7A7420AD91CEB040400F1FF3383
:1006800080F00A81A74240F207816444023840EAC0
:100690000640E41B00261DB1D4400023C5E90043F9
:1006A0003146BDE8F0878B4209D9002D00F0EF807C
:1006B0000026C5E9000130463146BDE8F087B3FAAF
:1006C00083F6002E4AD18B4202D3824200F2F98097
:1006D000841A61EB030301209E46002DE0D0C5E99A
:1006E000004EDDE702B9FFDEB2FA82F2002A40F0E6
:1006F0009280A1EB0C014FEA1C471FFA8CFE0126E9
:10070000200CB1FBF7F307FB131140EA01410EFB8C
:1007100003F0884208D91CEB010103F1FF3802D233
:10072000884200F2CB804346091AA4B2B1FBF7F02D
:1007300007FB101144EA01440EFB00FEA64508D950
:100740001CEB040400F1FF3102D2A64500F2BB808D
:100750000846A4EB0E0440EA03409CE7C6F12007DC
:10076000B34022FA07FC4CEA030C20FA07F401FA22
:1007700006F31C43F9404FEA1C4900FA06F3B1FBAB
:10078000F9F8200C1FFA8CFE09FB181140EA014110
:1007900008FB0EF0884202FA06F20BD91CEB0101AD
:1007A00008F1FF3A80F08880884240F28580A8F105
:1007B00002086144091AA4B2B1FBF9F009FB101157
:1007C00044EA014100FB0EFE8E4508D91CEB0101F5
:1007D00000F1FF346CD28E456AD90238614440EA98
:1007E0000840A0FB0294A1EB0E01A142C846A64618
:1007F00056D353D05DB1B3EB080261EB0E0101FAA1
:1008000007F722FA06F3F1401F43C5E900710026FD
:100810003146BDE8F087C2F12003D8400CFA02FC53
:1008200021FA03F3914001434FEA1C471FFA8CFE63
:10083000B3FBF7F007FB10360B0C43EA064300FB53
:100840000EF69E4204FA02F408D91CEB030300F1F1
:10085000FF382FD29E422DD9023863449B1B89B2A8
:10086000B3FBF7F607FB163341EA034106FB0EF331
:100870008B4208D91CEB010106F1FF3816D28B42DE
:1008800014D9023E6144C91A46EA004638E72E46AA
:10089000284605E70646E3E61846F8E64B45A9D2A2
:1008A000B9EB020864EB0C0E0138A3E74646EAE711
:1008B000204694E74046D1E7D0467BE7023B6144BF
:1008C00032E7304609E76444023842E7704700BF28
:1008D00008B54FF4FA5002F037FE00F0BDF800F012
:1008E0001BF902F077FE08BD00B583B002AB03E947
:1008F0000300064B5B6833B102AA12E90300984774
:1009000003B05DF804FB0020FAE700BFC000002040
:1009100000B583B002AB03E90300064B9B6933B11A
:10092000BDF804109847012003B05DF804FB0020D7
:10093000FAE700BFC000002000B1FEE7704708B52D
:1009400004F0AEFB08B9012008BD0020FCE708B5A3
:10095000FFF7F5FF08BD000008B5024804F0B6FB3C
:1009600008BD00BFD0B0010810B504F0A5FA90B1E1
:100970000C4B1B684FF480520B490C4898470446B7
:1009800068B10B4804F0BAFB0A4803F05DFB0A4B60
:1009900001221A7003E00446074B02221A70204617
:1009A00010BD00BF4C020020E4B001088C04002000
:1009B0004F0901083F0901089D04002038B5064D84
:1009C0006B68064C012294E8030098476B6800228C
:1009D00094E80300984738BD00000020480000203C
:1009E00038B5174D6B68174C012294E803009847FF
:1009F0006B68002294E80300984703F033F905463A
:100A00000C4664220023FFF7E1FD13430ED10E4B89
:100A10001A685B68A34208BFAA4207D00B4A137842
:100A200083F001031370084B1D605C60084B5C6829
:100A3000084B064A127893E80300A04738BD00BF70
:100A40000000002018000020A0040020B4040020B2
:100A50003C0100207C00002010B5214C2268214B75
:100A600093E80300904722681F4B93E803009047E8
:100A700022681E4B93E8030090471D4C22681D4BD3
:100A800093E80300904722681B4B93E803009047CC
:100A900022681A4B93E8030090472268184B93E8AA
:100AA000030090472268174B93E8030090472268A1
:100AB000154B93E8030090472268144B93E803001A
:100AC00090472268124B93E8030090472268114B2D
:100AD00093E80300904700F05FF8FFF745FF10BD73
:100AE0003C0100207C000020840000208C000020BD
:100AF00000000020300000203800002040000020CE
:100B000048000020100000201800002020000020D5
:100B1000280000200800002000B583B04FF40063D7
:100B20000193144B009300231A464FF4FA611248C4
:100B300002F07AFD114B18604FF480630193104B63
:100B400000930023012214210E4802F06DFD0E4B8C
:100B500018604FF4807301930C4B00930223002222
:100B60004FF47A710A4802F05FFD0A4B186003B037
:100B70005DF804FBB90B010808B10108A8040020C6
:100B8000BD09010818B10108AC040020E109010801
:100B900020B10108B004002008B5054B1B68984738
:100BA000012800D008BD034B01221A70FAE700BFEC
:100BB0009C010020B504002010B50A4B5C680A4B6C
:100BC000012293E80300A047084B1B7813B9084B98
:100BD0005B689847034B5C68034B002293E8030073
:100BE000A04710BD0000002020000020B504002018
:100BF0009C01002007EE900AF8EE677A17EE900A43
:100C0000C0F3C7507F38C0B2704700008CB0654B4E
:100C100098422FD0644B98423CD0644B984248D0C5
:100C2000634B984254D0634B984260D0624B9842D9
:100C30006CD0624B984278D0614B984200F084802F
:100C4000604B984200F08F805F4B984200F09A8092
:100C50005E4B98421CD103F5E053D3F8E02042F4F8
:100C60008062C3F8E020D3F8E03003F480630B9394
:100C70000B9B0DE003F58843D3F8E02042F001021E
:100C8000C3F8E020D3F8E03003F001030193019BA7
:100C90000CB0704703F58043D3F8E02042F0020225
:100CA000C3F8E020D3F8E03003F002030293029B84
:100CB000EEE703F57053D3F8E02042F00402C3F8E6
:100CC000E020D3F8E03003F004030393039BDFE755
:100CD00003F56053D3F8E02042F00802C3F8E020A7
:100CE000D3F8E03003F008030493049BD0E703F546
:100CF0005053D3F8E02042F01002C3F8E020D3F8BC
:100D0000E03003F010030593059BC1E703F5405362
:100D1000D3F8E02042F02002C3F8E020D3F8E0301E
:100D200003F020030693069BB2E703F53053D3F894
:100D3000E02042F04002C3F8E020D3F8E03003F0B6
:100D400040030793079BA3E703F52053D3F8E02064
:100D500042F08002C3F8E020D3F8E03003F08003D3
:100D60000893089B94E703F51053D3F8E02042F46E
:100D70008072C3F8E020D3F8E03003F48073099365
:100D8000099B85E703F50053D3F8E02042F4007295
:100D9000C3F8E020D3F8E03003F400730A930A9B11
:100DA00076E700BF0000025800040258000802580D
:100DB000000C025800100258001402580018025883
:100DC000001C025800200258002402580028025833
:100DD00010B582B002AB03E903001446BDF804006D
:100DE000FFF708FF024B43F8204002B010BD00BFE0
:100DF000B804002008B507F0D8F908BD10B588B0D0
:100E00006B4683E803000446FFF700FFBDF804309B
:100E100003930023049302230593069303A920461A
:100E200007F004F8012008B010BD30B589B06B465A
:100E300083E80300B0B10546FFF7E8FEBDF80410F3
:100E40000391012404940594002306939DF8062041
:100E5000284607F0AAF903A9284606F0E7FF20462E
:100E600009B030BD0020FBE700B583B002AB03E959
:100E70000300BDF80430202B17D81AB2002A45D041
:100E8000013B1F2B42D8DFE803F045474139414180
:100E9000413B414141414141413D4141414141414C
:100EA0004141414141414141413FB3F5806F35D01E
:100EB0000BD9B3F5005F37D018D9B3F5804F37D0D1
:100EC000B3F5004F22D128200DE0B3F5807F27D065
:100ED00004D9B3F5007F19D1172004E0402B21D0AD
:100EE000802B13D1172003B05DF804FBB3F5006F1E
:100EF0001CD0B3F5805F09D12820F4E70820F2E781
:100F00000920F0E70A20EEE71720ECE70120FFF7C1
:100F100013FDE8E70620E6E70720E4E72820E2E7FC
:100F20001720E0E71720DEE72820DCE72820DAE7B3
:100F30002820D8E7F0B589B06B4683E80300A8B352
:100F4000144605466B4693E80300FFF78DFF05F056
:100F5000B9FB022C2FD0032C30D0012C28D04FF419
:100F600004142846FFF752FEBDF8041003910494C0
:100F700000270597032606969DF80620284607F0C9
:100F800014F903A9284606F051FF6C4694E80300C3
:100F9000FFF76AFF3A46314605F050FB94E803003C
:100FA000FFF762FF05F080FB09B0F0BD0020FBE712
:100FB0004FF48814D5E74FF40414D2E74FF44414E7
:100FC000CFE70000F0B589B06B4683E8030078B343
:100FD00015460446FFF71AFEBDF8046003964FF469
:100FE0000413049300270597032306939DF8062016
:100FF0003146204607F0D9F803A9204606F016FF2F
:101000003046FFF7F7FD0B4B43F820506C4694E851
:101010000300FFF729FF3A46042105F00FFB94E88F
:101020000300FFF721FF05F03FFB012009B0F0BDF1
:101030000020FBE7B804002000B583B002AB03E951
:101040000300BDF8041007F0A9F8003818BF01200C
:1010500003B05DF804FB000008B5FFF7CBFD034BC0
:1010600053F8203003B1984708BD00BFB8040020F2
:101070008AB05B4B98422AD05A4B984237D05A4B91
:10108000984243D0594B98424FD0594B98425BD02D
:10109000584B984267D0584B984273D0574B984260
:1010A0007FD0574B984200F08B80564B98421CD112
:1010B00003F5E053D3F8E02042F48062C3F8E02067
:1010C000D3F8E03003F480630993099B0DE003F546
:1010D0008843D3F8E02042F00102C3F8E020D3F8BF
:1010E000E03003F001030093009B0AB0704703F562
:1010F0008043D3F8E02042F00202C3F8E020D3F8A6
:10110000E03003F002030193019BEEE703F5705317
:10111000D3F8E02042F00402C3F8E020D3F8E03036
:1011200003F004030293029BDFE703F56053D3F857
:10113000E02042F00802C3F8E020D3F8E03003F0EA
:1011400008030393039BD0E703F55053D3F8E02043
:1011500042F01002C3F8E020D3F8E03003F01003AF
:101160000493049BC1E703F54053D3F8E02042F019
:101170002002C3F8E020D3F8E03003F02003059309
:10118000059BB2E703F53053D3F8E02042F040026C
:10119000C3F8E020D3F8E03003F040030693069B49
:1011A000A3E703F52053D3F8E02042F08002C3F810
:1011B000E020D3F8E03003F080030793079B94E727
:1011C00003F50053D3F8E02042F40072C3F8E020A6
:1011D000D3F8E03003F400730893089B85E700BF61
:1011E000000002580004025800080258000C02587F
:1011F000001002580014025800180258001C02582F
:10120000002402580028025810B1C1610120704723
:101210000020704710B582B0BDF81040009407F070
:10122000B7FA10B1002002B010BD0120FBE708B5ED
:1012300007F0BEFC08B1002008BD0120FCE708B59E
:1012400007F044F908B1002008BD0120FCE70000C8
:1012500084B008B50DF1080C8CE80F00099B2A4AF0
:10126000934210D0294A934225D0294A93422AD04A
:10127000284A93422FD0284A934234D0274A934297
:1012800039D0002013E0264AD2F8F03023F48053FE
:10129000C2F8F0300599029806F0D8FE0699039836
:1012A00006F0D4FE0799049806F0D0FE0120BDE8B0
:1012B000084004B070471A4AD2F8E83023F480435B
:1012C000C2F8E830E6E7164AD2F8E83023F40043E3
:1012D000C2F8E830DEE7124AD2F8F03023F40053C7
:1012E000C2F8F030D6E70E4AD2F8F03023F480137B
:1012F000C2F8F030CEE702F50C32D2F8F43023F029
:101300002003C2F8F430C5E7003001400038004047
:10131000003C0040003401400050014000140058DF
:101320000044025884B030B587B00AAC84E80F009E
:10133000002301930222029203930493059305462E
:10134000FFF796FE0D9B0193109C059401A928467A
:1013500006F06CFD0B9D2846FFF78AFE0E9B01935D
:10136000059401A9284606F061FD0C9D2846FFF76B
:101370007FFE0F9B0193059401A9284606F056FDB8
:10138000012007B0BDE8304004B0704784B010B50C
:10139000ACB02EAC84E80F00359C534B9C4211D06E
:1013A000524B9C4256D0524B9C4261D0514B9C4276
:1013B0006CD0514B9C4277D0504B9C4200F08280C5
:1013C000002042E04E4BD3F8F02042F48052C3F8A4
:1013D000F020D3F8F03003F480530493049B32AB35
:1013E00093E807008DE807002EAB0FCBFFF79AFFBD
:1013F0000A944FF480030B9300230C9307220D9261
:10140000369A0E92379A0F924FF080621092389A65
:101410001192129313931493159316931793189391
:1014200019931A931B931C931D931E934FF0004224
:101430001F9220930AA806F095FF002851D1882218
:101440000AA9399809F02AF901202CB0BDE810400A
:1014500004B070472A4BD3F8E82042F48042C3F826
:10146000E820D3F8E83003F480430593059BB6E702
:10147000234BD3F8E82042F40042C3F8E820D3F825
:10148000E83003F400430693069BA8E71C4BD3F80F
:10149000F02042F40052C3F8F020D3F8F03003F407
:1014A00000530793079B9AE7154BD3F8F02042F4BB
:1014B0008012C3F8F020D3F8F03003F480130893BF
:1014C000089B8CE703F50C33D3F8F42042F020029C
:1014D000C3F8F420D3F8F43003F020030993099BF8
:1014E0007DE70020B1E700BF003001400038004038
:1014F000003C0040003401400050014000140058FE
:101500000044025870B582B0154661F07F018DF835
:10151000071000228DF80620D8B11E460446026846
:10152000CAB14368CBB100209047636801220DF136
:1015300006010DF10700984763689DF818203146B1
:10154000284698470546236801209847284602B058
:1015500070BD0025FAE70025F8E70025F6E770B52D
:1015600082B00023ADF80430ADF80030D8B1164693
:1015700004460368CBB14368CBB161F07F018DF8BD
:10158000041003680020984763680222694601A896
:10159000984705462368012098479DF8013033702D
:1015A000284602B070BD0025FAE70025F8E70025BF
:1015B000F6E730B583B00023ADF80430ADF8003065
:1015C000B8B104460368B3B14368B3B18DF80410F1
:1015D0008DF8052003680020984763680222694659
:1015E00001A898470546236801209847284603B07C
:1015F00030BD0025FAE70025F8E70025F6E70000F2
:1016000010B590F829E0BEF1070F94BF0024012423
:10161000002C44D18446012000FA0EF010F08B0F0C
:1016200014BF012000202AD08CF82910032A38D8B2
:10163000DFE802F0020C11169FED1D7B8CED067B9E
:10164000032B30D8DFE803F0111C21269FED1A7B15
:101650008CED067BF4E79FED1A7B8CED067BEFE7C4
:101660009FED197B8CED067BEAE79FED197B8CEDF6
:10167000087BD2008CF81020DB008CF8113010BDF4
:101680009FED157B8CED087BF3E79FED157B8CEDD3
:10169000087BEEE79FED147B8CED087BE9E70020EB
:1016A000EDE72046EBE72046E9E700BFAFF3008017
:1016B000000000000000D040000000000000C0401A
:1016C000000000000000B040000000000000A0404A
:1016D000000000000060604000000000006050401A
:1016E0006666666666664040666666666666304042
:1016F000016042608360009BC360704730B583B077
:1017000000238DF80730044600B34368F3B1036843
:10171000E3B180226B21FFF74CFF0546E8B1A368D7
:101720000F2098470DF1070275212046FFF717FF9C
:101730000546B0B19DF80730682B16D0042384F815
:101740007C30A3680F209847002503E0012384F82C
:101750007C300025284603B030BD032384F87C305C
:10176000F8E7032384F87C30F4E70322682120465D
:10177000FFF71FFF054600285CD0A3680F2098479D
:1017800003226B212046FFF714FF0546002855D0A1
:10179000A3680F20984710226A212046FFF709FF0F
:1017A000054600284ED0A3680F20984700226C21E0
:1017B0002046FFF7FEFE0546002847D0A3680F200D
:1017C000984794F8292019212046FFF7F2FE054694
:1017D00000283FD0A3680F209847627C1B21204639
:1017E000FFF7E7FE0546002838D0A3680F2098478A
:1017F000227C1C212046FFF7DCFE054690B3A3683F
:101800000F209847102237212046FFF7D2FE0546C9
:1018100060B3A3680F209847012238212046FFF7C4
:10182000C8FE054630B3A3680F209847002384F80C
:101830007C308FE7052384F87C308BE7052384F820
:101840007C3087E7062384F87C3083E7072384F81D
:101850007C307FE7082384F87C307BE7092384F819
:101860007C3077E70A2384F87C3073E70B2384F815
:101870007C306FE70C2384F87C306BE790F87C00B9
:101880007047012380F82830704790F8280070478F
:101890000020704770B58CB00023089309930A9319
:1018A000ADF82C30049305930693ADF81C3090F8F6
:1018B0007C50002D65D1044690F82860002E61D040
:1018C000C3689847C4F82A00C4F82E100E2300936A
:1018D00004AB08AA3B212046FFF714FE4BE0690049
:1018E0000CAB03EB450313F8200C4B1C0CAA134460
:1018F00013F8202C42EA002212B205F1200304EB77
:1019000043035A802B1D0CA800EB430313F8200C53
:1019100009310CAB194411F8203C43EA00231BB2F7
:1019200005F11C0104EB41018B8007EE902AB8EE13
:10193000E77B94ED066B87EE067B8DED027B05F170
:101940000C0204EBC202029951600399916007EE08
:10195000903AB8EEE77B94ED086B87EE067B8DED51
:10196000027B05F1090304EBC303029A5A60039A50
:101970009A600135EDB2022DB1D9002384F82830E8
:1019800000E0002630460CB070BD10B5044691F85A
:101990007C300BB1204610BD52222A3108F07EFE69
:1019A000F8E770B582B00023ADF80430ADF8003030
:1019B000D8B1164604460368CBB14368CBB161F099
:1019C0007F018DF8001003680020984763680222A9
:1019D00001A96846984705462368012098479DF865
:1019E00005303370284602B070BD0025FAE70025A7
:1019F000F8E70025F6E730B583B00023ADF80430F2
:101A0000ADF80030B8B104460368B3B14368B3B170
:101A10008DF800108DF80120036800209847636856
:101A2000022201A968469847054623680120984785
:101A3000284603B030BD0025FAE70025F8E7002569
:101A4000F6E700000000000000B590F829E0BEF1C4
:101A5000070F2FD84FF0010C0CFA0EFC1CF08B0F67
:101A600028D080F82910032B24D8DFE803F0020CDB
:101A700011169FED197B80ED067B032A1AD8DFE84B
:101A800002F0111B20259FED167B80ED067BF4E70D
:101A90009FED157B80ED067BEFE79FED157B80EDDD
:101AA000067BEAE79FED147B80ED087BDB00837407
:101AB000D200C2745DF804FB9FED117B80ED087BC2
:101AC000F4E79FED117B80ED087BEFE79FED107B46
:101AD00080ED087BEAE700BF000000000000D04076
:101AE000000000000000C040000000000000B04006
:101AF000000000000000A040000000000060604006
:101B00000000000000605040666666666666404001
:101B10006666666666663040016042608360009B70
:101B2000C360704701230374704710B504468022D8
:101B30006B21FFF760FFA36814209847E36898477C
:101B4000012010BD70B582B000238DF80730044627
:101B500058B143684BB103683BB1FFF7E6FF58B992
:101B6000032384F82830002503E0012384F828307B
:101B70000025284602B070BD0DF1070275212046F0
:101B8000FFF70FFFA3680A2098479DF80730122B34
:101B900004D0022384F828300025EAE701226B21D3
:101BA0002046FFF728FFA3680A2098470DF1070297
:101BB0006B212046FFF7F5FE9DF80760012E04D04B
:101BC000042384F828300025D3E700226C21204626
:101BD000FFF711FFA3680A2098470DF107026C2157
:101BE0002046FFF7DEFE9DF8075025B1052384F857
:101BF00028300025BDE7402270212046FFF7FBFE7C
:101C0000A3680A2098470DF1070270212046FFF7CC
:101C1000C8FE9DF80730402B03D0062384F82830F7
:101C2000A7E794F8292019212046FFF7E4FEA368CE
:101C30000A2098470DF1070219212046FFF7B1FE4F
:101C400094F829209DF807309A4203D0092384F89C
:101C500028308EE7A27C1C212046FFF7CCFEA3682B
:101C60000A2098470DF107021C212046FFF799FE34
:101C7000A27C9DF807309A4203D0072384F82830CD
:101C800077E7E27C1B212046FFF7B5FEA3680A2018
:101C900098470DF107021B212046FFF782FEE27CE8
:101CA0009DF807309A4203D0082384F8283060E773
:101CB000602237212046FFF79EFEA3680A2098473E
:101CC0000DF1070237212046FFF76BFE9DF8073024
:101CD000602B03D0082384F828304AE7354648E7CC
:101CE000007C704708B1012070470020704710B594
:101CF000044691F828303BB94B7C2BB90B74522227
:101D00002A3108F0CBFC04E052227C31204608F056
:101D1000C5FC204610BD90F82800704700B583B080
:101D200002AB03E90300064B5B683BB102AA12E970
:101D300003009847012003B05DF804FB0020FAE798
:101D4000C000002000B583B002AB03E90300064BDE
:101D50009B6933B1BDF804109847012003B05DF8CA
:101D600004FB0020FAE700BFC0000020F0B589B0F6
:101D70002A4B5A682A4B93E803009047002841D029
:101D8000264B1C68274B284A93E80300A0470028ED
:101D90003BD0264D264CAC4620686168A268E368BB
:101DA000ACE80F0020696169A269ACE80700214E28
:101DB000214C224B0093224B224A2349204637686C
:101DC000B847766803231A4601212046B0471F4BC7
:101DD0001C681F4B0793EC4605F1100EBEE80F0080
:101DE000ACE80F009EE807008CE8070095E80F00BC
:101DF000A04768B10F4B9B680F48984758B1002027
:101E000009B0F0BD6FF00700FAE76FF00600F7E7E2
:101E10006FF00500F4E76FF00400F1E7C000002068
:101E2000B0000020B8000020BD1F01087001002094
:101E300094000020F400002050060020593C0108C6
:101E4000C13C0108751F01083D1F0108DC0000208E
:101E5000D0060020F0B589B02A4B5A682A4B93E887
:101E600003009047002841D0264B1C68274B284A86
:101E700093E80300A04700283BD0264D264CAC46F3
:101E800020686168A268E368ACE80F0020696169B6
:101E9000A269ACE80700214E214C224B0093224B53
:101EA000224A234920467768B847366803231A46F2
:101EB00001212046B0471F4B1C681F4B0793EC467F
:101EC00005F1100EBEE80F00ACE80F009EE8070019
:101ED0008CE8070095E80F00A04768B10F4B9B689E
:101EE0000F48984758B1002009B0F0BD6FF00300CB
:101EF000FAE76FF00200F7E76FF00100F4E74FF048
:101F0000FF30F1E7C00000206C00002074000020CA
:101F1000E11F0108440100205000002018010020AA
:101F2000F8040020593C0108C13C0108991F010830
:101F3000591F0108DC000020C805002010B502462A
:101F4000034B9C69034B99881868A04710BD00BFDC
:101F5000C0000020B000002010B50246034B9C6971
:101F6000034B99881868A04710BD00BFC00000202F
:101F70006C00002010B582B01346054A14694FF476
:101F80007A7200920A4601460248A04702B010BD8C
:101F9000DC000020D006002010B582B01346054AB0
:101FA00014694FF47A7200920A4601460248A0472B
:101FB00002B010BDDC000020C805002008B5054BAC
:101FC0001B7813F00F0F03D0034B5B69034898474E
:101FD00008BD00BF6C080020F4000020500600205F
:101FE00008B5054B1B7813F0F00F03D0034BDB68EB
:101FF0000348984708BD00BF6C0800201801002066
:10200000F8040020024A137801331370704700BFB0
:1020100071080020024A137801331370704700BF23
:1020200072080020024A137801331370704700BF12
:1020300073080020024A137801331370704700BF01
:1020400075080020024A137801331370704700BFEF
:102050007408002030B593B004460D464422002198
:1020600001A808F029FB012D09D0022D18D0442227
:1020700001A9204608F012FB204613B030BD114BD9
:102080001B7813F00F0F05D144220F4901A808F067
:1020900005FBECE744220D4901A808F0FFFAE6E74A
:1020A000084B1B7813F0F00F05D14422084901A812
:1020B00008F0F4FADBE74422064901A808F0EEFA3A
:1020C000D5E700BF70080020580700209C070020BB
:1020D000E00700202408002038B5374C2368374833
:1020E0009847374B18606368092236499847FFF7CD
:1020F0003DFE0546FFF7AEFE04460023324A13704C
:10210000324A13708DBB304B1A78012161F3030200
:102110001A70002C33D12C4B1A78012161F307126D
:102120001A70442422460021294808F0C5FA2246A4
:102130000021284808F0C0FA22460021264808F06D
:10214000BBFA22460021254808F0B6FA1E4B1B7840
:10215000FBB113F00F0202D113F0F00F23D12AB319
:1021600013F0F00F24D0002038BD134B9D680023DE
:102170001A466FF0040112480068A847C9E70E4BE1
:102180009C6800231A464FF0FF310D480068A047B5
:10219000C7E7094B9C6800231A46012108480068DC
:1021A000A0470120E0E76FF00400DDE70020DBE757
:1021B0004FF0FF30D8E700BF7002002028B10108BF
:1021C00068080020A80100206C080020700800208A
:1021D00058070020E00700209C070020240800206A
:1021E000F8B501F039FD05460C46524B1B7813F04B
:1021F0000F0F4CD0504B1B6950489847002842D0D5
:102200004D4B9B694D48984700283CD04C4B1A7861
:10221000012161F303021A704A4B9A68D9680132AE
:1022200041F100019A60D9601D605C60434A926C84
:102230001A6100231AE0414903F10C0201EBC202CA
:10224000576896683F4A581D02EBC0004760866099
:1022500003F1090001EBC0014868896803F1020C31
:1022600002EBCC02506091600133DBB2022BE2D969
:10227000334B1A786FF303021A7044223149324803
:1022800008F00CFA03E000210846FFF7D3FE294BC3
:102290001B7813F0F00F4BD02C4B1B692C48984740
:1022A000002841D0294B9B692948984700283BD0FA
:1022B000234B1A78012161F307121A70254B9A6893
:1022C000D968013241F100019A60D9601D605C60FB
:1022D0001F4A926C1A61002319E01D4903F10C0298
:1022E00001EBC202556894681A4A581D02EBC000FF
:1022F0004560846003F1090001EBC001486889680A
:102300009C1C02EBC402506091600133DBB2022BD3
:10231000E3D90B4B1A786FF307121A7044220D4958
:102320000D4808F0BBF903E000210846FFF78AFEDC
:10233000F8BD00BF6C080020F4000020500600200B
:1023400070080020580700209C070020180100207A
:10235000F8040020E007002024080020B0F809203D
:10236000B0F80B309A420DD0C18859B10133818841
:1023700093FBF1FC01FB1C33934207D00023037253
:1023800018467047032303721846704704230372EC
:102390001846704778B3F8B50F461646044683884A
:1023A0005BB3027A032A18BF002A22D1C2889B1A83
:1023B0009E4201DC00251AE001201BE0B4F80B303E
:1023C0005A1CA4F80B20A288B3FBF2F102FB1133D4
:1023D0009AB2A4F80B30D4F80D30795D9954E388A3
:1023E0000133E3802046FFF7B9FF0135ADB2B542B6
:1023F000E4D3207AF8BD052070470520FAE7A0B3A2
:10240000F8B50F4616460446838883B3037A042B37
:1024100018BF002B27D1C388934201D3002520E0A9
:10242000022021E0B4F809305A1CA4F80920A2883F
:10243000B3FBF2F102FB11339AB2A4F80930D4F8DD
:102440000D309B5C7B55D4F80D20B4F80930002189
:10245000D154E388013BE3802046FFF77FFF01353D
:10246000ADB2B542DED3207AF8BD05207047052015
:10247000FAE78446002A18BF00280CBF012000207C
:1024800013D000B5964671B1002308E0DCF80D00CA
:10249000BCF809201A44825CCA540133DBB29AB2F8
:1024A0007245F3D301205DF804FB00207047B8B1FA
:1024B00008B50346D0F80D00A0B19A880AB90020EB
:1024C00008BD0021D9721973597299729971D97125
:1024D0004FF0030C83F808C008F0EEF80120EFE796
:1024E000002070470020EBE770B5002A18BF0028D5
:1024F0000CBF0124002402D10024204670BD0546F3
:1025000001600026C6720673467286728671C671B5
:102510008280104600F09CFCC5F80D00AA88314668
:1025200008F0CAF8D5F80D30002BE6D003232B7243
:102530000124E2E703690A6902610B61704710B484
:102540000C690461CC68C4604B600A70027043601F
:10255000002383605DF8044B7047034620B10020E0
:1025600018619860D86070476FF00100704738B507
:1025700004460D46FFF7F1FF00B9256138BD08B5E7
:10258000C3681BB18068FFF7FAFF08BD8160C860AF
:10259000FBE708B50346C06810B1FFF7FAFF08BDB6
:1025A000D9608B60FBE738B543687BB104460D46C4
:1025B000006958B1096949B1984738B12A6982421E
:1025C00005D0E06840B12946FFF7EDFF38BD294648
:1025D0002046FFF7AFFFF4E7E560AC600023EB6057
:1025E000F4E7002818BF002913D008B543684B60F2
:1025F00003780B70012B06D0022B07D003B108BD66
:10260000FFF7BDFFFBE7FFF7C4FFF8E7FFF7CBFFDE
:10261000F5E7704728B32DE9F0410D4617461C46F3
:1026200080460E1E18BF0126002B14BF002306F0A3
:1026300001030BB10169A847D8F80C0020B123466B
:102640003A462946FFF7E6FF012C14BF002606F0A4
:1026500001064EB13A46D8F810104046A84700206F
:1026600003E06FF0010070470020BDE8F08108B979
:102670000020704738B50546D0F80E00FFF7F7FF89
:1026800080B2013004B2D5F81200FFF7F0FF80B23B
:10269000013000B2A042B8BF204638BD08B90020C2
:1026A000704738B50546D0F80E00FFF7E0FF84B25A
:1026B000D5F81200FFF7DBFF80B2201A00B238BD58
:1026C00008B5034628B1D0F80A0010B1FFF7F8FFAB
:1026D0000346184608BD70B5054650B3D0F80E4005
:1026E000D0F80A6076B1D0F81E30616870689847FB
:1026F0006168884217D0D5F81E30706898476368C3
:10270000984213D0C4F80A60D4F81230C5F80E30DD
:10271000D4F812300BB1C3F80A50C4F81250C5F8FF
:102720000A40204670BDC6F80E40EBE7C6F81240DE
:10273000E8E70446F5E770B5054650B3D0F8124017
:10274000D0F80A6076B1D0F81E306168706898479A
:102750006168884217D0D5F81E3070689847736852
:10276000984213D0C4F80A60D4F80E30C5F812307D
:10277000D4F80E300BB1C3F80A50C4F80E50C5F8A7
:102780000A40204670BDC6F80E40EBE7C6F812407E
:10279000E8E70446F5E760B338B50446FFF77EFF87
:1027A000022803D010F1020F12D038BDD4F80E5019
:1027B0002846FFF773FFB0F1FF3F03D02046FFF735
:1027C0008AFFF2E72846FFF7B6FFC4F80E00F5E7E8
:1027D000D4F812502846FFF761FF012803D02046A5
:1027E000FFF7A9FFE1E72846FFF775FFC4F81200DD
:1027F000F5E7704770B5002918BF00280CBF012409
:10280000002428D005460E46D0F8163049684068A6
:102810009847736883420BD06B6883421CD1D5F80C
:10282000120098B9C6F80A50C5F81260012413E0E6
:10283000D5F80E0028B9C6F80A50C5F80E60012474
:102840000AE03146FFF7D6FF044605E03146FFF7C0
:10285000D1FF044600E00024204670BDC0B110B591
:102860000446FFF71BFF2081D4F80E00FFF7F6FFA8
:10287000D4F81200FFF7F2FFB4F9083013F1020F99
:1028800018BF022B00D010BD2046FFF784FFFAE7E7
:10289000704750B110B50446406828B1FFF710FFEB
:1028A00010B16060FFF7DAFF10BD70478446002862
:1028B00018BF002A14BF012000201BD010B5964677
:1028C000029A002A18BF002B0CBF012200220DD053
:1028D000039C6CB1CCF80010CCF804E0CCF81E409E
:1028E000CCF81630029BCCF81A3010BD0020FCE763
:1028F0001046FAE7704780B138B50C46054609B175
:10290000406888472146D5F80E00FFF7F4FF2146BE
:10291000D5F81200FFF7EFFF38BD704778B138B532
:102920000C460546D0F80E00FFF7F8FF0CB16868BA
:10293000A0472146D5F81200FFF7F0FF38BD7047D9
:1029400078B138B50C460546D0F80E00FFF7F8FF11
:102950002146D5F81200FFF7F3FF0CB16868A047D5
:1029600038BD7047B0B108B50B46406828B1022B9E
:1029700008D0032B0AD0012B00D008BD1146FFF769
:10298000BAFFFAE71146FFF7C9FFF6E71146FFF76E
:10299000D7FFF2E7704770B582B0044615460023B2
:1029A00000938DF8043004238DF804300E46A1B155
:1029B000D6F81A302946706898478DF80400022826
:1029C00019D003280ED001280ED0009820609DF861
:1029D00004302371204602B070BDD1F81A30002BAC
:1029E000E6D1F2E70096F0E72A46D6F80E10204628
:1029F000FFF7D1FFEEE72A46D6F812102046FFF780
:102A0000CAFFE7E700B583B004238DF80430002344
:102A10000093002918BF00280ED00A46C16879B17A
:102A200041686846FFF7B7FF9DF80430032B01D0DB
:102A3000002002E0009800E0002003B05DF804FBF5
:102A40000020FAE720B3F0B583B00F4615460446E0
:102A5000222000F0FDF90646E36822690192009306
:102A6000A3682A463946FFF721FF16B9002003B0B4
:102A7000F0BD2046FFF70DFF606838B13146FFF723
:102A8000B9FE2046FFF705FF0120F0E76660F8E792
:102A900000207047F8B507460C4615461E46142020
:102AA00000F0D6F968B1002C18BF002D0AD04EB145
:102AB0000760C56084600661002303714371837100
:102AC000C371F8BD00F024FA0020FAE7012383F374
:102AD0001388BFF34F8F0549CA6802F4E062044BC4
:102AE0001343CB60BFF34F8F00BFFDE700ED00E065
:102AF0000400FA0582B003460022ADF80620ADF8C6
:102B00000420084301D18B420ED1B3F900200FFA03
:102B100082FCADF80620B1F9002010B2ADF8042017
:102B2000844503DC04DB002002B070470846FBE765
:102B30001846F9E782B0B0F90030ADF80630B1F9C7
:102B40000030ADF80430BDF8062012B2BDF80430F4
:102B50001BB29A4211DCBDF8062012B2BDF8043057
:102B60001BB29A420BDBBDF8062012B2BDF804304E
:102B70001BB29A4205D002B070470120FBE7022049
:102B8000F9E70320F7E70000F8B506460F461546BB
:102B900000240BE0084B5B6804EBC40207EB420225
:102BA0005168D6F8020098470134A4B2AC42F1D380
:102BB00035800120F8BD00BF60020020012802D04E
:102BC000022803D07047034B19607047024B19600D
:102BD000704700BF980800209408002084B00023AC
:102BE00001930293ADF80C3098B10D4B1B682BB1DB
:102BF0000C4A126812B1013B094A13600A4B1B6868
:102C000053B10A4A12684AB1013B074A13600120D6
:102C100000E0002004B070470120FBE70120F9E745
:102C20007C080020980800207808002094080020E4
:102C3000F0B583B0ADF806100023009300284FD004
:102C40000C462C4A92680DF10601D0F8020090471C
:102C50000546002848D04368002B47D09A782AB907
:102C6000D3F80A3013B11146204698476B68597A59
:102C70009DF8002061F307128DF80020197AD2B276
:102C800061F303028DF800205868FDF733FBADF8BF
:102C90000100194B1C785CB3009B13B39DF8003006
:102CA00013F0F00F03D015490A6801320A6013F0DF
:102CB0000F0F03D0124A136801331360114FFB68E2
:102CC000114E0422694630469847FF686B685D687C
:102CD0002846FDF70FFB82B229463046B84700E090
:102CE0000024204603B0F0BD0124FAE70124F8E7F0
:102CF0000124F6E7600200209108002078080020F7
:102D00007C0800204C0200208008002070B5054699
:102D1000164B1B785BB9164B1B684FF48062154944
:102D200015489847154B1870104B01221A700A204D
:102D300000F08EF80446B8B1114B1E6811490B46DD
:102D4000114A2846B047C4F80200237800232370B4
:102D500062786370A279A371E279E371227A2372B7
:102D6000627A6372204670BD0020FCE79208002062
:102D70004C02002040B20108800800209108002089
:102D800060020020F52A0108352B0108194B00E0EC
:102D90001B681A688242FBD3002B2AD05A681A4457
:102DA00082420BD0426800EB020C19688C450BD0B4
:102DB0001A68026098421CD0186070475A684168CF
:102DC0000A445A601846EDE710B41C680A490968BD
:102DD0008C420CD0196849680A4442601A6812682B
:102DE0000260984200D018605DF8044B70470160A3
:102DF000F7E77047A00800209C080020F8B50F4CAA
:102E00004FF48032226000266660012767610C4D16
:102E10003146284607F050FC0A4B1D605E600A4BA5
:102E20000A4A13604FF6F872E2602B604FF6F073B7
:102E3000E3606B60A36084F82070F8BDA8080020F0
:102E400000000024A0080020F8FF00249C080020B7
:102E500070B5044672B62A4B93F8203093B1002C1B
:102E600043D00834A3B214F0030F03D023F00303BC
:102E700004339BB21D46224A9268934239D8214AB4
:102E8000146807E0FFF7BAFF1D4B1E4A1A61E6E718
:102E900022461C4663689D4202D92368002BF7D165
:102EA00004F07F41184B994225D1184B1B68A3426F
:102EB00023D013498B6901338B6116680836236868
:102EC000136063685B1B082B09D80D4B9A68521B73
:102ED0009A605A682A445A600023236006E0601909
:102EE00043606560FFF752FFEFE7002662B63046A9
:102EF00070BD0026FAE70026F8E70026F6E700BFD7
:102F0000A8080020A0080020000000249C08002041
:102F100040B102460C49CB690133CB61083852F805
:102F2000083C03B1704710B572B60B46496852F8B9
:102F3000044C091B596052F8041C9A680A449A60B0
:102F4000FFF724FF62B610BDA808002010B5427834
:102F50004FEAD20E02F00702094B19784FF0010C2C
:102F60000CFA0EF42143C9B21970734459780CFA63
:102F700002F20A43D2B25A7080F800C010BD00BFFE
:102F80000C0A0020407800F0070C0D4B03EBD00337
:102F90005A78012101FA0CF122EA01025A7059789B
:102FA00061B900B54FEAD00E05490B78012202FA4B
:102FB0000EF223EA02030B705DF804FB704700BFBA
:102FC0000C0A0020407800F0070C0D4B03EBD003F7
:102FD0005A78012101FA0CF122EA01025A7059785B
:102FE00061B900B54FEAD00E05490B78012202FA0B
:102FF0000EF223EA02030B705DF804FB704700BF7A
:10300000000A0020FEE70000144B1B781BB3134B93
:103010001A78D2B212498A5C13445B78DBB2CB5C7B
:1030200003EBC2000F4951F8200000B1704710B502
:103030000A4991F800E04FF0010C0CFA02F42EEA74
:10304000040E81F800E00A4451780CFA03F321EAF7
:103050000303537010BD0020704700BF0C0A00200E
:1030600054B20108E8080020144B1B781BB3134B23
:103070001A78D2B212498A5C13445B78DBB2CB5C1B
:1030800003EBC2000F4951F8200000B1704710B5A2
:103090000A4991F800E04FF0010C0CFA02F42EEA14
:1030A000040E81F800E00A4451780CFA03F321EA97
:1030B0000303537010BD0020704700BF000A0020BA
:1030C00054B20108E808002082B002464078C308E4
:1030D0008DF807304B784FEAD30C8DF806C000F01E
:1030E00007008DF8050003F007038DF80430B2FAED
:1030F00082F35B09B1FA81F0400903427DD10029D6
:103100000CBF002303F0010333B10B78043BDBB2A7
:10311000012B75D9084671E0002A0CBF002000F091
:10312000010030B11378043BDBB2012B6AD91046A1
:1031300064E09DF80700C0B29DF80630DBB298420B
:103140000BD21378043BDBB2012B5DD80B78043B28
:10315000DBB2012B5AD9084650E09DF80700C0B2F7
:103160009DF80630DBB298420BD90B78043BDBB2FA
:10317000012B4DD81378043BDBB2012B4AD9104602
:103180003CE09DF80700C0B29DF80630DBB29842E3
:1031900034D19DF80500C0B29DF80430DBB29842EE
:1031A0000BD21378043BDBB2012B35D80B78043BF0
:1031B000DBB2012B32D9084620E09DF80500C0B2F1
:1031C0009DF80430DBB298420BD90B78043BDBB29C
:1031D000012B25D81378043BDBB2012B22D91046F2
:1031E0000CE00B78043BDBB2012B1DD81378043BB9
:1031F000DBB2012B1AD9104600E0002002B0704764
:103200000020FBE70020F9E71046F7E70020F5E78C
:103210000846F3E70020F1E71046EFE70020EDE76E
:103220000846EBE70020E9E70846E7E70020E5E786
:1032300038B5044600254570456085608581056187
:10324000456285620023836305634563143000F0A3
:10325000B7FC257038BD0000C9B110B50C460D4B48
:103260001B78DBB2022B01D0002010BD0B78032BA2
:1032700018BF012B01D0052BF6D16069A16900F0C0
:1032800011FD0028F0D02046FFF760FEECE700209B
:10329000704700BF200A002010B582B00022002332
:1032A000CDE900230D4B1B6801221A7000F0D4FCFD
:1032B000DDE90023994208BF904201D102B010BD60
:1032C00000F0CAFCCDE90001054CD4E90023501CF4
:1032D00043F10001C4E90001F0E700BFD808002075
:1032E000180A002010B50446C26B92000021406C01
:1032F00007F0E2F904F14403E16B6FF040420A4445
:1033000003EB820323F007034FF0807243F8042C91
:10331000084A22F0010243F8082C074A43F80C2C13
:10332000002243F8202C6FF0020243F8242C443B87
:10333000236410BDC53801080530010810B55020C0
:10334000FFF786FD0E4B1860B0B104460D4B43608D
:10335000802343700C4B03614FF48073C3634FF4BD
:103360008060FFF775FD6064054B1868436C2BB1F6
:10337000FFF7B8FF012010BD0020FCE70020FAE7AE
:10338000D80800204CB201089932010870B52DED23
:10339000028B82B00446684600F012FC2378012BB1
:1033A00003D002B0BDEC028B70BD0023A3642046A5
:1033B000FFF7E8FD304B1C60A36A4BB92F4B1B682D
:1033C000A34205D000F048FCE06121626061A16188
:1033D0002369002B3CD00222227020469847274BBD
:1033E0001B68A342DDD0A36A0133A362A16C236BE7
:1033F000626B5B1842F10002236362636269A36936
:10340000E069216A00F0E1FBCDE90001A08900F04C
:103410003FFC6061A161266B656BDDE90001FDF792
:103420008FF808EE100A30462946FDF789F807EEB6
:10343000100AC7EE087AC4ED0E7A9FED117A67EE96
:10344000877AC4ED0E7AA56A2DB903232370A8E705
:1034500003232370A5E700F011FCFDF771F806EED9
:10346000900A07EE905AF8EE677A87EEA67ABCEEDD
:10347000C77A84ED097AE8E7CC080020D808002054
:103480000000C84200000000000000000000000032
:10349000074B19680868B0E8F04F1EF0100F08BF1E
:1034A000B0EC108A80F30988BFF36F8F704700BFBC
:1034B000D008002000000000000000000000000014
:1034C000EFF30980BFF36F8FDFF850301A681EF0FA
:1034D000100F08BF20ED108A20E9F04F10602DE991
:1034E00009004FF0300080F31188BFF34F8FBFF316
:1034F0006F8F00F015F84FF0000080F3118809BCC1
:1035000019680868B0E8F04F1EF0100F08BFB0EC63
:10351000108A80F30988BFF36F8F7047D0080020AE
:10352000054B064A92E8030083E80300044B1A683F
:10353000044B1A60704700BFD0080020E00800204C
:10354000DC080020CC0800202DE9F041804600F086
:103550008BFA0028FBD0002718E0194D04EBC706B2
:1035600005EB8600FFF764FE55F826200023D363A1
:1035700055F82620536455F82620136445F8263064
:103580000134E4B2072CE8D90137FFB2072F01D884
:103590000024F7E70B4B00221A705A611A61DA60B7
:1035A000094B1868FFF744FE084B1868FFF740FE08
:1035B000404600F09DFA064B01221A70BDE8F081EA
:1035C000E8080020E8090020CC080020DC080020E2
:1035D000200A002010B5FFF717FD0E4B186050B100
:1035E00000F140020C4B1A60426C5A600B4A93E89F
:1035F000030082E803000224094B1C70FFF79EFEC3
:1036000000F04AFA0749204600F056FA00F034FA72
:1036100010BD00BFDC080020E0080020D00800201A
:10362000200A0020E53701082DE9F84317461C461B
:1036300003EBC202564B53F8223023B14FF000087F
:103640004046BDE8F88306460D465020FFF700FCD3
:1036500004EBC7034E4A42F82300002800F08E8096
:10366000804646601646994652F823309D60494987
:10367000B1FBF5F552F829309D8152F82930089AAE
:103680001A6156F8293044EAC7025A7056F82930B0
:10369000099ADA6356F82950900080B2FFF7D8FBF8
:1036A000686456F82900436C002B6AD0FFF71AFEB5
:1036B00035464E4655F829304FF00009C3F848907A
:1036C00055F8263000229A6355F82630C3F830901A
:1036D000C3F83490304B197855F8260090F801C0A3
:1036E000012202FA0CF241EAE201C9B2197003EBBD
:1036F000DC03597802F007020A435A70C0F824909C
:1037000055F82600143000F05BFA55F826001C30FE
:1037100000F056FA55F82630C3F8289055F82630B0
:1037200083F82C9055F82600FFF710FC55F82690EA
:103730001420FFF78DFBC9F84C0055F82610C86C13
:1037400010B3FEF714FF154B1B786BB955F8261014
:10375000134B0222C96C1348FEF7F1FE0F4A13788F
:103760000133DBB213706BE704EBC704084B53F86B
:103770002430D96C0B48FEF734FFEFE74FF0000818
:103780005EE74FF000085BE74FF0000858E700BF26
:10379000E808002040420F000C0A0020E809002041
:1037A000C9300108EC09002010B590F801C04FEABB
:1037B000DC020CF0070E0A4B19784FF0010C0CFAE2
:1037C00002F42143C9B2197013445A780CFA0EFC62
:1037D00042EA0C02D2B25A700623037010BD00BF39
:1037E000000A002030B583B0CDE900012E4B1B78D4
:1037F00033BBFFF709FC0446FFF736FC01462046C1
:10380000FFF762FC294D2968FFF75EFC04462B6830
:10381000834230D090B10378062B18D0234B186820
:1038200038B1234B1B68984203D00378DBB2022BDC
:1038300013D02378043BDBB2012B11D803B030BD89
:1038400000236A461B491C48FEF7E4FED1E7FFF758
:10385000B9FB2046FFF77AFBE0E7FFF7A5FFE8E7B3
:10386000164B1C6004F14002154B1A60626C5A60E2
:1038700000F01AF9E2E798B12378052B01D0042B68
:10388000DCD10B4B1B6801221A700C4A136003F148
:1038900040010B4A11605B6C536000F005F9CDE705
:1038A000002BE9D1EDE700BFE8090020CC0800209B
:1038B000D808002059320108EC090020DC0800205B
:1038C000E008002008B503E000F0C6F9FFF78AFF22
:1038D000074B18680028FBD0FFF758FD054B1A6806
:1038E000054B1B689A42EFD0024B00221A60EBE7AF
:1038F000DC080020CC080020D808002000B5CFB09C
:10390000BC2200211FA806F0D7FE4C2200210CA8E3
:1039100006F0D2FE2022002104A806F0CDFE0220EF
:1039200004F058FC002301934C4BDA6A22F00102A8
:10393000DA62DB6A03F001030193494B9A6942F4AE
:1039400040429A619B6903F440430193019B444BBD
:103950009B6913F4005FFAD0424A936A23F0030391
:1039600043F00203936221230C934FF480330D93B1
:103970000122129202231593169317926422189231
:10398000199350221A921B930C231C9300231D930E
:103990001E930CA802F0BCFE18B100204FB05DF8D9
:1039A00004FB3F230493032305930023069308237A
:1039B00007934023089309934FF480620A920B9374
:1039C000022104A803F0D8FA08B10020E6E74FF47A
:1039D00040531F9302232093902221920922229286
:1039E00023922493802325930023269327934FF437
:1039F000805336934FF4803337931FA803F034FD80
:103A000048BB184BD3F8E02042F08002C3F8E02016
:103A1000D3F8E02002F080020292029AD3F8F42058
:103A200042F00202C3F8F420D3F8F43003F00203AA
:103A30000393039B4FF0E023D3F8202D42F4700250
:103A4000C3F8202DD3F8202D42F07042C3F8202D6A
:103A500062B60120A2E70020A0E700BF00040058E2
:103A6000004802580044025808B572B602F07AFDC8
:103A7000FFF744FF08BD0000002080F309880548D7
:103A80000068006880F3088800DFBFF36F8F00BF15
:103A90007047000008ED00E002484FF0FF010170A0
:103AA0007047000022ED00E002484FF080510160B5
:103AB0007047000004ED00E0012808D002280AD079
:103AC00008B100207047064B996101207047044BF4
:103AD000D96101207047024B19620120704700BF75
:103AE000240A0020014B1869704700BF240A0020F7
:103AF00010B549F64043984216D042F210739842EE
:103B000038D0B0F5FA5F37D041F28833984235D0DB
:103B1000B0F57A6F34D0B0F5FA6F33D0B0F57A7F64
:103B200032D049F6404100E00146184C002284F8AA
:103B30002420174BB3FBF1F32361606102F0DEFB3D
:103B40006269144B1B68B3FBF2F3013BB3F1807F56
:103B50000AD24FF0E02253610F4BF02183F823107B
:103B6000002393610723136103F00CF90B4B1860DA
:103B7000012010BD0146D8E70146D6E70146D4E74B
:103B80000146D2E70146D0E70146CEE7240A0020ED
:103B900040420F00F803002000ED00E0580A00202A
:103BA00008B5064B012283F8242000221A605A60CF
:103BB0009B6913B100200021984708BD240A00200A
:103BC00000220023C0E900237047824273EB010CFE
:103BD00003D2801A61EB03017047101A63EB0101F5
:103BE0007047000070B51A4B93F82430012B0ED0AB
:103BF000184BD3E90023134328D0164CD4E90023F3
:103C0000501E43F1FF31C4E9000100201FE0104CB9
:103C1000002384F825302669236865689E1945F1DC
:103C20000005266065604FF47A720023304629460D
:103C3000FCF7CCFCA060E160012384F82530236A06
:103C400013B1304629469847012000E0002070BD9E
:103C5000240A0020500A0020014B18685968704758
:103C6000240A002008B504494FF47A72002308683A
:103C70004968FCF7ABFC08BD240A002008B5FFF733
:103C8000F1FF4FF47A720023FCF7A0FC08BD00009E
:103C9000034A13685168C01841F10001704700BF22
:103CA000240A0020054B1A685B688B4208BF8242D9
:103CB00001D0002070470120704700BF240A002077
:103CC000084B1B694FF47A71B1FBF3F100FB01F271
:103CD00000230549C1E90023034BD3E90023134323
:103CE000FAD17047240A0020500A002002460378C7
:103CF000302B05D0302B0AD0302B0FD0002010E015
:103D00004178582918BF7829F4D1032009E0517867
:103D1000422918BF6229EFD1012002E0022000E011
:103D20001A46134613F8011B39B152782E2AF7D1DF
:103D30005A78002AF4D00420704770470346303880
:103D4000C0B2092810D9A3F16102D2B2052A07D95D
:103D5000A3F14102D2B2052A05D8373BD8B2704749
:103D6000573BD8B2704700207047000003464078A8
:103D70005C2800D070479878302837D0FAD3742860
:103D8000F8D86228F6D3A0F16203122BF2D801A270
:103D900052F823F0E13D0108753D0108753D010829
:103DA000753D0108753D0108753D0108753D010827
:103DB000753D0108753D0108753D0108753D010817
:103DC000753D0108E53D0108753D0108753D010897
:103DD000753D0108F13D0108753D0108E93D010807
:103DE000082070470A20704709207047002070475C
:103DF0000D20BFE770B506460378222B02D035466A
:103E0000002409E00136FAE7681EFFF7AFFF3055DE
:103E1000013501350134A4B22B7843B15C2BF3D0CA
:103E2000222B01D03355F4E700233355F1E7335506
:103E3000304670BD2DE9F843064603782D2B18D087
:103E40004FF0010900203044FFF750FF07460228D9
:103E500016D0032818D001280FD000234FF00A08ED
:103E6000B9F1FF3F14D0002213441E44002423461E
:103E700012E04FF0FF390120E5E702239846EFE713
:103E800001234FF00808EBE702234FF01008E7E7A3
:103E90000122E9E701360124307858B12E28F9D003
:103EA00003FB08F5FFF74AFF2B1804EB84046400BA
:103EB0000136F1E7042F14BF00270127002C08BFAB
:103EC00000279FB107EE903AF8EE677A07EE104AA6
:103ED000B8EE477AC7EE876A07EE909AF8EEE77A6F
:103EE00067EEA67A17EE900ABDE8F88303FB09F0A7
:103EF000FAE710B504460023826D013100F0A7FDFA
:103F000020B10146204600F061FE10BD0020FCE714
:103F100008B50B78272B0BD0A3F13002D2B22D2B92
:103F200018BF092A0BD9242B0DD093B9002008BD46
:103F30004A78002AF0D00846FFF718FFF7E708464E
:103F4000FFF778FFF3E74A78002AEED0FFF7D1FFBA
:103F5000EDE70846FFF74EFFE9E72DE9F0478CB0A3
:103F60000646894615461F462022002104A806F071
:103F7000A3FB99F8028008F00F08A84501DA05F1C3
:103F8000FF3800240CE004F1010A57F82A103046EB
:103F9000FFF7BEFF0CAB03EB840444F8200C54463F
:103FA00005F1FF3CA445EEDCB8F1070F49D8DFE886
:103FB00008F0040A0F151C242E3AD9F80830984747
:103FC0000CB0BDE8F087D9F8083004989847F7E7B7
:103FD000D9F80830059904989847F1E7D9F80830DE
:103FE000069A059904989847EAE7D9F80840079B8C
:103FF000069A05990498A047E2E7D9F80840089B7B
:104000000093079B069A05990498A047D8E7D9F82A
:104010000840099B0193089B0093079B069A05990A
:104020000498A047CCE7D9F808400A9B0293099B63
:104030000193089B0093079B069A05990498A04753
:10404000BEE74FF0FF30BBE708B5044B98664FF46E
:1040500000720349184600F033FD08BD5C0A0020D9
:10406000C80A00200023042B0BDC1946054A52F82D
:10407000232012B101331BB2F5E7024B43F82100B4
:1040800070477047D40C00200246002002E0135411
:10409000013080B20B5C002BF9D113547047844679
:1040A000002318461CF803207AB110B4CC5C4CB144
:1040B000A24207D1013080B201339BB21CF8032029
:1040C000002AF3D15DF8044B70477047437803F042
:1040D0000F03012B05D9072B05D9082B05D8C0687C
:1040E0007047C0687047C0687047C068704730B597
:1040F000002306E01A1D00EB82020021516001330B
:104100001BB2072BF6DD0021C1860B4601250DE011
:1041100002699E46D41812F803C0BCF1220F14D0D5
:10412000B5B924785C2C22D001339BB282899A42A3
:1041300024D90029ECD10469E25C202A18BF002AA6
:10414000E6D10022E2540125EEE781F00101E7E724
:10415000C58E072D09D805F1010CA0F836C004352D
:1041600000EB85056C600025DBE70025D9E772448C
:104170005278002AD8D001339BB2D5E730BD10B5B4
:1041800004460023A0F85430B0F850305BB1B0F8CA
:10419000523053B3013B0E3304EB8303216958685B
:1041A000FCF79EF800B3B4F852300E3304EB8303EF
:1041B00021695868FFF768FF20B1B4F85230013325
:1041C000A4F85230B4F8503001339BB2A4F8503008
:1041D000052B02D90523A4F85030B4F85230042B33
:1041E00002D90023A4F8523010BD0423D3E770B5E0
:1041F000054600240AE000211170221D05EB820211
:104200005168013151600CE00134A4B2EB8EA3423D
:1042100016D92346221D05EB820252681178222905
:10422000E9D0043305EB83035E683046FCF762F89F
:1042300083B2013BF25C222AE6D10022F254E3E78A
:1042400070BD0000002301E001331BB2042B0ADC27
:10425000064A52F823000028F6D090F8602012F0A9
:10426000020FF1D000E00020704700BFD40C002006
:1042700000B583B08DF80710836E01210DF10700A2
:10428000984703B05DF804FB08B5C389828993425F
:1042900000D308BD0269591CC181D15CFFF7E8FF5A
:1042A000F7E7C38903B9704710B504460821FFF743
:1042B000DFFFE389013BE38110BD38B5856E35B181
:1042C0000C460846FCF716F881B22046A8470020A5
:1042D00038BD000010B504460160886850B103780D
:1042E00053B1E38E012B18D9A169FBF7F9FFB0B1E7
:1042F000002202E0012200E0012294F8603062F323
:10430000000384F8603009492046FFF7D6FF94F88F
:10431000603013F0010F04D110BD0022EDE701223F
:10432000EBE703492046FFF7C8FFF5E754B3010860
:1043300060B3010810B5044690F8603013F0010F27
:1043400019D091B9236859682046FFF7B6FF0C4988
:104350002046FFF7B2FFA16859B12046FFF7ADFF35
:1043600008492046FFF7A9FF10BD0749FFF7A5FF41
:10437000E8E70649F1E70649FFF79FFFF4E700BFCA
:1043800008B401080CB4010864B4010804B40108BD
:1043900010B4010810B50446036899680069FBF77A
:1043A0009FFF68B994F8603043F0010384F86030EF
:1043B00006492046FFF781FF0023A381E38110BD5A
:1043C00003492046FFF779FFF6E700BF60B3010815
:1043D0002CB4010808B5FFF735FF10B10149FFF70C
:1043E0006CFF08BD54B301080B7843B14A7802F062
:1043F0000F02082A03D00268127813420DD090F8F9
:10440000603013F0010F0BD14B7813F0100F01D077
:10441000002070474FF0FF3070474FF0FF3070477B
:104420000020704700230B72082304E03032013B68
:10443000DBB2CA54000928B100F00F02092AF5D9ED
:104440005732F4E7C3F1080040B27047002304E09C
:104450000E4A3021D1540133DBB2082BF8D943780E
:1044600003F00F03012B05D9072B05D9082B05D81D
:1044700040687047406870474068704710B5034C0B
:1044800021464068FFF7CEFF204610BDC80C002033
:1044900010B4041E04DB22460023CB720B2011E073
:1044A0006242F9E7114B83FB023CD317C3EBAC0329
:1044B0009C4603EB8303A2EB43030138C0B23033C5
:1044C0000B546246002AEDD1002C0ADB1CB90138DE
:1044D000C0B230230B54C0F10B0040B25DF8044B66
:1044E00070470138C0B22D230B54EFE7676666664C
:1044F00070B584B004460E46184B01AD93E8070032
:1045000085E8070016492046FFF7D7FE29463046C2
:10451000FFF7BEFFC0F10B0129442046FFF7CDFE97
:1045200010492046FFF7C9FE002307E004AA1A44F9
:104530004FF0300C02F80CCC01331BB20A2BF5DD26
:1045400001A93046FFF76EFF01A92046FFF7B5FE2F
:1045500005492046FFF7B1FE04B070BD54B4010810
:1045600040B401084CB4010864B4010870B50546B4
:104570000E460846FFF76AFF01462846FFF79DFEF4
:10458000C0F1160424B2002C17DD2D212846FFF7B8
:104590006FFE013C24B2002CF7D1737803F00F03B7
:1045A000012B0CD9072B0FD9082B12D9092B15D8A1
:1045B0000D492846FFF781FE05E00424E5E70B4995
:1045C0002846FFF77AFE70BD09492846FFF775FEB9
:1045D000F9E708492846FFF770FEF4E70649284640
:1045E000FFF76BFEEFE700BF74B4010860B4010889
:1045F00068B401086CB4010878B40108F8B506463F
:10460000876D0F49FFF759FE002401E0013424B201
:10461000B6F85C309C4211DA07EB04156B7803F0B6
:104620000F03012BF2D829463046FFF7DDFE0028A4
:10463000ECD129463046FFF799FFE7E7F8BD00BF08
:1046400080B4010808B5FFF7FDFD08B1FFF7D6FFFC
:1046500008BD0000F8B50646876D1049FFF72DFE2E
:10466000002401E0013424B2B6F85C309C4214DA34
:1046700007EB04156B7803F00F030E3303F00F0301
:10468000052BEFD829463046FFF7AEFE0028E9D1CA
:1046900029463046FFF76AFFE4E7F8BD94B4010805
:1046A00008B5FFF7CFFD08B1FFF7D4FF08BD000044
:1046B000F8B50646876D0F49FFF7FFFD002401E0BE
:1046C000013424B2B6F85C309C4211DA07EB0415D1
:1046D0006B7803F00F03082BF2D129463046FFF721
:1046E00083FE0028ECD129463046FFF73FFFE7E77D
:1046F000F8BD00BFA4B4010808B5FFF7A3FD08B1D9
:10470000FFF7D6FF08BD0000F8B50646876D0F49D4
:10471000FFF7D3FD002401E0013424B2B6F85C3089
:104720009C4211DA07EB04156B7803F00F03092B99
:10473000F2D129463046FFF757FE0028ECD1294632
:104740003046FFF713FFE7E7F8BD00BFB4B4010838
:1047500008B5FFF777FD08B1FFF7D6FF08BD08B52C
:10476000FFF74CFF08BD000038B5054604E00549D9
:104770002846FFF7A2FD21464B1EDCB20029F6D1E8
:1047800038BD00BFC4B4010838B505468489C38963
:10479000E41A24B205E020212846FFF769FD013C18
:1047A00024B2002CF7DC297B2846FFF7DDFF38BD5B
:1047B00010B50446002919DDB0F95420531EA0F8A5
:1047C0005430B0F85230B0F850108B4238BF0B461E
:1047D00059428A4201DCA4F854102046FFF7D4FF66
:1047E000B4F9543083B9A381E38110BD0029FCDA08
:1047F000B0F9543001331BB2A0F85430002BECDD7B
:104800000023A0F85430F0E7B4F8522005321A44DF
:104810000C4981FB0231D317C3EB610303EB830324
:10482000D31A0E3304EB830359682069FFF72CFC7D
:10483000A0810028D9D0E08121692046FFF73DFD05
:10484000D3E700BF6766666608B50121FFF7B0FFD2
:1048500008BD08B54FF0FF31FFF7AAFF08BD000003
:104860002DE9F84F0546B0F834A0838943B10269B9
:104870004FF0000802F80380876D4446C14624E0EB
:10488000FFF76DFF01212846FFF754FD5EE007EBBF
:10489000081841462846FFF769FE4046FFF7D6FD57
:1048A00080463046FFF7D2FD01464046FFF7F7FB52
:1048B000824528BF82461FFA8AFA1FFA84F809F156
:1048C00001091FFA89F9013424B2B5F85C309C4221
:1048D0001EDA07EB041631462846FFF785FD00284F
:1048E000F1D1D5F810B03046FFF7B0FD014658467B
:1048F000FFF7D5FBAB899842E5D1B9F1000FDCD0C9
:10490000B9F1010FC3D11A492846FFF7D6FCBEE71B
:10491000B9F1000F1AD0B9F1010F19D02C6907EBCA
:1049200008173846FFF792FD01462046FFF7ACFB1B
:10493000A881B9F1010F0FD82A69AB890021D154A0
:10494000AB89EB8129692846FFF7B7FCBDE8F88FF2
:104950002846FFF719FFE1E739462846FFF706FE2C
:1049600001212846FFF7E6FCA5F80CA0E4E700BF0C
:1049700064B4010838B50446B1F1FF3F14BF002309
:104980000123C2890AB9012955D0A089824203D0E6
:10499000824205D01BB219E0B1F1FF3FF8D14AE0E5
:1049A0000129F7D1013AE281431E9BB2A38122691A
:1049B0000021D15401212046FFF7D6FE3BE02069BB
:1049C0001A44551E825C425501331BB2A089E2890C
:1049D000851AAB42F3DB0138A081B1F1FF3F06D16C
:1049E0002269A3890021D154B4F90E500DE0013A97
:1049F000E28108212046FFF73BFCF1E72369595D7E
:104A00002046FFF735FC01352DB2A3899D42F5DB29
:104A100020212046FFF72CFCA589E389ED1AADB2D1
:104A200001352DB205E008212046FFF721FC013DAC
:104A30002DB2002DF7DC38BD08B50121FFF79AFF34
:104A400008BD08B54FF0FF31FFF794FF08BD2DE911
:104A5000F04780468A4617469946B0F85C60836DF9
:104A6000D31AC3F30F13F31A9EB2002406E04A468A
:104A7000504605F029FE00B30134A4B2B4421BD263
:104A800007EB041595F801C00CF00F0CBCF1090FF1
:104A9000F2D029464046FFF7A7FC0028ECD1284673
:104AA000FFF7D4FC0146B9F1000FE0D15046FBF707
:104AB00017FC0028E0D100E000252846BDE8F0877B
:104AC00010B5044600238381C381A0F85430A0F8B8
:104AD0005030A0F85230036090F8600040F00100C0
:104AE00084F8600021611648A0FB022C4FEA9C0C60
:104AF000A4F834C009E003FB0CC0084403F10E0223
:104B000004EB8202506001331BB2042BF3DD0D4A2B
:104B1000A2650D4B9B1A1B09A4F85C302046FFF7D9
:104B2000A1FA0023A26D09492046FFF790FF014634
:104B30002046FFF7CFFB01212046FFF7FBFB10BD0E
:104B4000ABAAAAAA90AF0108D0B00108C8B4010866
:104B500070B504460D46FFF775FB20B10646012CE3
:104B600002D0012C03DC70BDFFF7F9FDFBE7002349
:104B7000826D6968FFF76BFF0446D8B11049304673
:104B8000FFF79BFB2046FFF761FC01463046FFF72D
:104B900094FB0C4D29463046FFF78FFB2046FFF76C
:104BA00095FA01463046FFF788FB29463046FFF765
:104BB00084FBD8E704493046FFF77FFBD3E700BF0B
:104BC000D8B4010864B40108ECB4010808B54B7806
:104BD00003F00F03023B052B16D8DFE803F00306B2
:104BE0000A0D0D0F8B68186808BD8B68B3F90000BB
:104BF000FAE78B681878F7E78868F5E78A685368FA
:104C000023B110689847EFE70020EDE70020EBE7BD
:104C100070B584B004460D46274B93E8070004ABFB
:104C200003E9070029462046FFF7D0FF06466968DA
:104C30002046FFF742FB21492046FFF73EFB6B78F9
:104C400003F00F03052B10D001A93046FFF720FC1D
:104C5000C0F10B0101AB19442046FFF72EFB1849A8
:104C60002046FFF72AFB002315E0164D2946204673
:104C7000FFF723FB31462046FFF71FFB294620465E
:104C8000FFF71BFB11E004AA1A444FF0300C02F8A6
:104C90000CCC01331BB20A2BF5DD01A93046FFF71E
:104CA000C1FB01A92046FFF708FB07492046FFF793
:104CB00004FB304604B070BD54B4010800B50108CF
:104CC0004CB4010804B5010864B4010870B5054688
:104CD0000C464B7813F0400F0AD14B7803F00F03CA
:104CE000023B052B07D8DFE803F00B0E1114191D4A
:104CF0001249FFF7E2FA21462846FFF789FF70BD07
:104D0000A3681A60F7E7A3681A80F4E7A3681A702B
:104D1000F1E71146A068FFF7B7F9ECE70849FFF79C
:104D2000CCFAE8E7A3689E68002EE4D0186810B1BA
:104D30001146B047DFE71046B047DCE708B5010889
:104D400024B5010870B504460D46FFF77BFA20B381
:104D500006460023826D2146FFF779FE014660B1C9
:104D6000437803F00F030E3303F00F03052B0AD82B
:104D70002A463046FFF7AAFF70BD09493046FFF7C3
:104D80009CFA0020F8E721463046FFF796FA0549DD
:104D90003046FFF792FA0020EEE70020ECE700BF74
:104DA00038B5010848B5010870B504460D4690F8BD
:104DB000603043F0020380F860304B7813F00F034B
:104DC00014D0012B23D04A7802F00F020E3202F0E9
:104DD0000F02052A2AD9082B2CD0002694F860301F
:104DE0006FF3410384F86030304670BDFFF7FFF980
:104DF000AB6804F11401E08E984706466B7813F017
:104E0000200FEBD101462046FFF772FBE6E700F1E9
:104E10001403C28EFFF7A1F806466B7813F0200F3B
:104E2000DCD101462046FFF763FBD7E7FFF7F0FE32
:104E30000026D3E7FFF74EFA0026CFE783895BB35E
:104E400010B5044602690021D15490F8603013F087
:104E5000010F1ED0FFF793F92046FFF748F9002312
:104E6000E381A381E38EB3B10C492046FFF725FA15
:104E70000023A26D61692046FFF7E9FD014618B1E4
:104E80002046FFF791FF06E005492046FFF715FA97
:104E900001E0FFF77FFA10BD704700BF64B401085E
:104EA000ECB4010810B50446FFF7C8FF0121204605
:104EB000FFF740FA10BD000008B500220F49104866
:104EC00000F08AFA08B1002008BD0E490C4800F035
:104ED0009FFA08B10020F7E70B49094801F0D8F81C
:104EE00008B10020F0E7064800F0A6FA08B100205B
:104EF000EAE703F099F90120E6E700BF8402002009
:104F0000E80C0020E8020020D402002012230B80CD
:104F100000487047A002002004230B80004870471F
:104F2000B4020020002393421ED200B510E00CF121
:104F3000370C01F813C000014FEA430C0CF1010CCF
:104F40004FF0000E01F80CE00133DBB2934209D2BE
:104F50004FEA107CB0F1204FE9D20CF1300C01F88F
:104F600013C0E8E75DF804FB7047000038B50B4B51
:104F7000D3F80008D3F80448D3F80838C01800D193
:104F800038BD074D0822A91CFFF7CCFF042205F10C
:104F900012012046FFF7C6FFF2E700BF00E0F11F55
:104FA000B802002008B51A230B80FFF7DFFF014885
:104FB00008BD00BFB802002008B50A4628B9054957
:104FC000054800F09EFE034808BD0249024800F073
:104FD00098FEF8E7B80F00207CB6010810B50A4625
:104FE000034C2146034800F08CFE204610BD00BF54
:104FF000B80F002084B6010808B50A4628B905494B
:10500000054800F07EFE034808BD0249024800F052
:1050100078FEF8E7B80F00208CB6010808B50A46FC
:1050200028B90549054800F06CFE034808BD02494F
:10503000024800F066FEF8E7B80F002098B60108B5
:1050400000207047002070470020704738B50446A4
:10505000074B1B680BB109889847064D2146284627
:1050600001F025F8284601F042F8002038BD00BFC5
:10507000B8230020E80C002010B5064C0022064999
:10508000204601F00CF80549204601F010F80020F8
:1050900010BD00BFE80C0020B81B0020B813002092
:1050A000094BD3F8BC32D3F814320BB1012070474E
:1050B00010B5054C0A460146204600F0F0FF204698
:1050C00000F0FBFF10BD00BFE80C00200FB410B5CE
:1050D00082B004AB53F8042B0193074C4FF40061EA
:1050E000204605F031FB81B22046FFF7D9FF02B020
:1050F000BDE8104004B07047B81B0020014B186099
:10510000704700BFB823002030B5B7B00446002177
:1051100031913291339134913591BC2202A805F03E
:10512000CBFA2268204B9A4201D037B030BD4FF401
:10513000802302934FF44013239302A802F094F9C2
:105140000028F2D103F070F8184CD4F8E03043F0A6
:105150000103C4F8E030D4F8E03003F00103009319
:10516000009B4FF4C05331930223329300253395B3
:1051700034950A23359331A90D4802F057FED4F82F
:10518000D83043F00063C4F8D830D4F8D83003F0F6
:1051900000630193019B2A460321652001F04EFA2A
:1051A000652001F081FAC0E7000008400044025881
:1051B0000000025808B500F57171D0F8040400F041
:1051C00050F908BD08B5C1EBC10300EB8303D3F868
:1051D0000822D0F8040400F070F908BD08B5C1EB4E
:1051E000C10300EB83039A6CD0F8040400F09EF92D
:1051F00008BD08B5D0F8040400F034FA08BD10B5B5
:105200000446C3685BB1022B08D10121D4F8040421
:1052100000F011FAD4F8040400F0E4F910BD002104
:10522000F4E7000010B50446D0F8040400F006FAD4
:105230002268D2F8003E43F00103C2F8003E236A20
:1052400023B1034A136943F00603136110BD00BF85
:1052500000ED00E008B5D0F8040400F0F8F908BD4E
:1052600008B5D0F8040400F00DFA08BD08B5D0F870
:10527000040400F005FA08BD08B5D0F8040400F0F5
:1052800003FA08BD08B5D0F8040400F0FFF908BD22
:1052900002780AB10020704710B503461448C0F8E0
:1052A0000434C3F8C402134B036009234360022291
:1052B000C260002303618261C3610362436283624F
:1052C000C362036303F038FE00B110BD084C8021B7
:1052D000204604F08CFB40220021204604F061FBB4
:1052E00080220121204604F05CFB0020EDE700BF96
:1052F000BC23002000000840D0F8C43211F0800F19
:1053000008D101F07F01C1EBC10103EB810191F8EC
:10531000FE01704701F07F01C1EBC10103EB810188
:1053200091F83E00704708B5D0F8C40204F082FA44
:1053300008BD000000487047C427002070470328BC
:1053400005D8DFE800F005040205012070470320BE
:10535000704708B5D0F8C40203F08CFEFFF7EFFFEA
:1053600008BD08B594461A466346D0F8C40204F056
:10537000B4F9FFF7E4FF08BD08B5D0F8C40204F0A3
:10538000F1F9FFF7DCFF08BD08B5D0F8C40204F05E
:1053900089FAFFF7D4FF08BD08B5D0F8C40204F0BD
:1053A000C5FAFFF7CCFF08BD08B5D0F8C40204F079
:1053B00080F9FFF7C4FF08BD08B5D0F8C40204F0B7
:1053C00042FAFFF7BCFF08BD08B5D0F8C40204F0EC
:1053D00002FAFFF7B4FF08BDC0B108B50346D0F824
:1053E000B80210B10020C3F8B802D3F8CC0210B153
:1053F0000020C3F8CC0209B1C3F8B412012183F82C
:105400009C121A701846FFF743FF08BD032070472F
:1054100010B582B00023ADF8063059B10446C0F88B
:10542000B8128B6A0DF106009847C4F8CC02002030
:1054300002B010BD0320FBE708B5FFF78AFF08BDE7
:1054400008B5D0F8B83213B11B68984708BD0320DF
:10545000FCE708B5D0F8B8320BB15B68984700207C
:1054600008BD38B5044600F2AA25284600F02EF9FA
:105470000123C4F89432B4F8B032C4F8983294F8E6
:10548000AA1201F01F03012B0DD0022B10D02BB15B
:1054900001F080012046FFF777FF03E02946204610
:1054A00000F0CEFA38BD2946204600F001FBF9E7AE
:1054B0002946204600F030FBF4E738B504460D4697
:1054C00031BB1346D0F89422032A01D0084638BDD8
:1054D000D0F85C11D0F8602191420CD8D0F8B832E5
:1054E0001B691BB190F89C22032A0FD0204600F0C4
:1054F00051FC2846EBE7891AC0F85C118A4228BFA4
:105500000A46194600F03EFC2846E0E79847EDE7DA
:10551000D0F8B8329B692BB190F89C22032A03D1B2
:105520009847D4E70320D2E70320D0E738B50446F4
:105530000D46002948D11346D0F89422022A05D0FE
:1055400094F8A032012B3AD0284638BDC269016ACE
:105550008A4211D88A421BD0D4F8B832DB681BB11A
:1055600094F89C22032A27D080212046FFF70CFFC5
:10557000204600F01AFCE3E7521AC261194600F017
:10558000EAFB00231A4619462046FFF71DFFD7E71E
:1055900083699942E0D8D0F898229342DCD2002265
:1055A000114600F0D8FB0021C4F898120B460A46B9
:1055B0002046FFF709FFC3E720469847D4E70023BA
:1055C00084F8A0322846C0E7D0F8B8325B692BB126
:1055D00090F89C22032A03D19847B6E70320B4E74A
:1055E0000320B2E770B50446012380F89C32002303
:1055F000C0F894324360C0F8A432D0F8BC3223B172
:10560000D0F8B8325B680021984740230022114649
:105610002046FFF7A6FE0126A4F864614025C4F8E1
:1056200060512B46002280212046FFF79AFEA68477
:105630002562002070BD01740020704790F89C32F4
:1056400080F89D32042380F89C320020704790F847
:105650009C32042B01D00020704790F89D3280F8D6
:105660009C32F8E708B590F89C32032B01D000205B
:1056700008BDD0F8B832DB69002BF8D09847F6E7C0
:1056800000207047002070470020704708B50123B4
:1056900080F89C32D0F8B83213B15B680179984732
:1056A000002008BD0346002002E00130C0B20133F3
:1056B0001A78002AF9D1704708B54B88012B00D021
:1056C00008BDC0F8A43200F065FBF9E70B78037061
:1056D0004B7843708B78CA7843EA022343800B7976
:1056E0004A7943EA022383808B79CA7943EA022309
:1056F000C380704710B504468021FFF745FE0021A6
:105700002046FFF741FE10BD30B583B004460D467C
:105710000023ADF806304A88130A013B062B00F23D
:10572000AB80DFE803F0041F33A9A98D9A00D0F8FD
:10573000B4321B680DF10601007C9847EA88002A04
:1057400000F0A380BDF80630002B00F099809A424B
:1057500028BF1A46ADF806200146204600F0EEFAB2
:1057600003B030BD037C43B9D0F8B8329B6A0DF169
:105770000600984702234370E0E7D0F8B832DB6AAE
:105780000DF10600984702234370D7E7D2B2052AED
:1057900052D8DFE802F003101D2A3744D0F8B432A3
:1057A0005B6823B10DF10601007C9847C6E72946E6
:1057B000FFF7A0FFD4E7D0F8B4329B6823B10DF116
:1057C0000601007C9847B9E72946FFF793FFC7E732
:1057D000D0F8B432DB6823B10DF10601007C9847A4
:1057E000ACE72946FFF786FFBAE7D0F8B4321B6969
:1057F00023B10DF10601007C98479FE72946FFF78A
:1058000079FFADE7D0F8B4325B6923B10DF1060141
:10581000007C984792E72946FFF76CFFA0E7D0F895
:10582000B4329B6923B10DF10601007C984785E7EE
:105830002946FFF75FFF93E72946FFF75BFF8FE7F6
:10584000037C33B9D0F8B8325B6B0DF10600984792
:1058500074E72946FFF74EFF82E7037C43B9D0F88F
:10586000B8321B6B0DF1060098470723437065E7BC
:105870002946FFF73FFF73E72946FFF73BFF6FE736
:1058800029462046FFF736FF6AE7204600F082FAF5
:1058900066E738B504468B88F3B9CB88E3B94B8803
:1058A0007F2B19D803F07F0590F89C32032B0CD086
:1058B00080F89E522946FFF777FD204600F06AFAED
:1058C00035B1022384F89C3209E0FFF713FF06E0AC
:1058D000012384F89C3202E02046FFF70BFF38BD1D
:1058E00070B504460E468D782D4B1D70012D0FD8D6
:1058F00090F89C32022B0FD0032B23D0FFF7FAFE37
:10590000274B19782046FFF7A4FD0325284670BDD4
:10591000FFF7F0FE0325F9E78DB145602946FFF753
:105920008FFD054620B131462046FFF7E3FEEDE747
:10593000204600F02FFA032384F89C32E6E700F0BB
:1059400029FAE3E7CDB141688D4225D0C9B2FFF70E
:1059500080FD134B197861602046FFF771FD054605
:10596000B0B131462046FFF7C5FE21792046FFF74A
:1059700070FD022384F89C32C8E7022380F89C3231
:1059800045602946FFF765FD204600F003FABDE7B4
:10599000204600F0FFF9B9E700F0FCF90025B5E773
:1059A000E429002008B5CB88012B0AD190F89C325D
:1059B000022B09D9032B09D10122011D00F0BEF9E8
:1059C00001E0FFF797FE08BD5BB213B9FFF792FE47
:1059D000F9E70146002341F8083F012200F0AEF943
:1059E000F1E708B590F89C32013B022B12D8CB8826
:1059F000022B0CD10123C360D0F8A4320BB10323D6
:105A0000C360022200F10C0100F098F908BDFFF715
:105A100071FEFBE7FFF76EFEF8E708B590F89C32E1
:105A2000013B022B09D84B88012B00D008BD002375
:105A3000C0F8A43200F0AEF9F8E7FFF75BFEF5E737
:105A400038B50C7804F06004202C06D0402C04D02B
:105A500054B1FFF74FFE002404E0D0F8B8329B6841
:105A600098470446204638BD4D78092D1DD8DFE8FB
:105A700005F012191C161C08051C0F0BFFF744FE3D
:105A8000F0E7FFF706FFEDE7FFF72AFF0446E9E737
:105A9000FFF788FFE6E7FFF7A4FF2C46E2E7FFF7F2
