:020000040800F2
:1000000000000220B9030008DB020008DD0200083E
:10001000DF020008E1020008E3020008000000001F
:10002000000000000000000000000000E5020008E1
:10003000E702000800000000E9020008EB020008E7
:10004000090400080904000809040008090400085C
:10005000090400080904000809040008090400084C
:10006000090400080904000809040008090400083C
:10007000090400080904000809040008090400082C
:10008000090400080904000809040008090400081C
:10009000090400080904000809040008090400080C
:1000A00009040008090400080904000809040008FC
:1000B00009040008090400080904000809040008EC
:1000C00009040008090400080904000809040008DC
:1000D00009040008090400080904000809040008CC
:1000E00009040008090400080000000009040008D1
:1000F00009040008090400080904000809040008AC
:10010000090400080904000809040008090400089B
:10011000090400080904000809040008090400088B
:10012000090400080904000809040008090400087B
:10013000090400080904000809040008090400086B
:1001400000000000000000000000000000000000AF
:10015000090400080904000809040008090400084B
:10016000090400080904000809040008090400083B
:100170000904000809040008090400080000000040
:10018000090400080904000809040008090400081B
:10019000090400080904000809040008090400080B
:1001A00009040008090400080904000809040008FB
:1001B00009040008090400080904000809040008EB
:1001C00009040008090400080904000809040008DB
:1001D00009040008090400080904000809040008CB
:1001E00009040008090400080904000809040008BB
:1001F00009040008090400080904000809040008AB
:10020000090400080904000809040008090400089A
:10021000090400080904000809040008090400088A
:10022000090400080904000809040008000000008F
:10023000090400080904000800000000090400087F
:10024000090400080904000809040008090400085A
:10025000090400080904000809040008090400084A
:10026000090400080904000809040008090400083A
:10027000090400080904000809040008000000003F
:10028000090400080904000809040008000000002F
:08029000000000000904000851
:1002980010B5054C237833B9044B13B10448AFF3B8
:1002A80000800123237010BD000000200000000022
:1002B8005404000808B5034B1BB103490348AFF3C6
:1002C800008008BD0000000004000020540400085D
:1002D800FEE7FEE7FEE7FEE7FEE7FEE7704770474A
:1002E80070477047274AD2F8883043F47003C2F841
:1002F8008830254B1B6803F00F03062B06D8224ACB
:10030800136823F00F0343F0070313601F4B1A68A9
:1003180042F001021A6000221A6119681C4A0A4058
:100328001A60194B1B6813F0080F06D0164A136899
:1003380023F00F0343F007031360144B00229A6164
:10034800DA611A62134999621349D9621349196328
:100358005A639963DA6319645A64196821F480212D
:1003680019601A660E4B1A680E4B1340B3F1005F02
:1003780003D20D4B0122C3F808210C4B43F2D202E1
:100388001A60704700ED00E0002000520044025857
:100398007FEDF6EA000202020000FF01800201017F
:1003A8000010005C0000FFFF008000510040005278
:1003B800DFF834D0FFF796FF0C480D490D4A0023AB
:1003C80002E0D458C4500433C4188C42F9D30A4A02
:1003D8000A4C002301E013600432A242FBD300F070
:1003E80011F8FFF775FF7047000002200000002099
:1003F8000000002074040008000000201C000020F9
:10040800FEE7000070B50D4D0D4C641BA4100026CE
:10041800A64209D10B4D0C4C00F018F8641BA4102F
:100428000026A64205D170BD55F8043B9847013611
:10043800EEE755F8043B98470136F2E76C040008EC
:100448006C0400086C04000870040008F8B500BFCC
:10045800F8BC08BC9E467047F8B500BFF8BC08BC9D
:040468009E467047F5
:04046C00BD020008C5
:0404700099020008E5
:04000005080003B933
:00000001FF
